{
	"smart-contracts/StekcitBM.sol": {
		"StekcitBM": {
			"abi": [
				{
					"inputs": [
						{
							"internalType": "address",
							"name": "_stekcitBMOwnerAddress",
							"type": "address"
						}
					],
					"stateMutability": "nonpayable",
					"type": "constructor"
				},
				{
					"inputs": [
						{
							"internalType": "uint256",
							"name": "_amount",
							"type": "uint256"
						}
					],
					"name": "approveStekcitBM",
					"outputs": [
						{
							"internalType": "bool",
							"name": "",
							"type": "bool"
						}
					],
					"stateMutability": "nonpayable",
					"type": "function"
				},
				{
					"inputs": [
						{
							"internalType": "uint256",
							"name": "_eventId",
							"type": "uint256"
						}
					],
					"name": "checkIfEventIsAlreadyPaidOut",
					"outputs": [
						{
							"internalType": "bool",
							"name": "",
							"type": "bool"
						}
					],
					"stateMutability": "view",
					"type": "function"
				},
				{
					"inputs": [
						{
							"internalType": "uint256",
							"name": "_eventId",
							"type": "uint256"
						},
						{
							"internalType": "address",
							"name": "_walletAddress",
							"type": "address"
						}
					],
					"name": "checkIfUserAlreadyHasTicket",
					"outputs": [
						{
							"internalType": "bool",
							"name": "",
							"type": "bool"
						}
					],
					"stateMutability": "view",
					"type": "function"
				},
				{
					"inputs": [
						{
							"internalType": "address",
							"name": "_walletAddress",
							"type": "address"
						}
					],
					"name": "checkIfUserExists",
					"outputs": [
						{
							"internalType": "bool",
							"name": "",
							"type": "bool"
						}
					],
					"stateMutability": "view",
					"type": "function"
				},
				{
					"inputs": [
						{
							"internalType": "uint256",
							"name": "_eventId",
							"type": "uint256"
						},
						{
							"internalType": "address",
							"name": "_walletAddress",
							"type": "address"
						}
					],
					"name": "checkIfUserisCreatingUserOfEvent",
					"outputs": [
						{
							"internalType": "bool",
							"name": "",
							"type": "bool"
						}
					],
					"stateMutability": "view",
					"type": "function"
				},
				{
					"inputs": [
						{
							"internalType": "address",
							"name": "_walletAddress",
							"type": "address"
						}
					],
					"name": "checkStekcitBMAllowanceOfUser",
					"outputs": [
						{
							"internalType": "uint256",
							"name": "",
							"type": "uint256"
						}
					],
					"stateMutability": "view",
					"type": "function"
				},
				{
					"inputs": [
						{
							"internalType": "address",
							"name": "_creatingWalletAddress",
							"type": "address"
						},
						{
							"internalType": "string",
							"name": "_title",
							"type": "string"
						},
						{
							"internalType": "string",
							"name": "_description",
							"type": "string"
						},
						{
							"internalType": "string",
							"name": "_link",
							"type": "string"
						},
						{
							"internalType": "uint256",
							"name": "_amount",
							"type": "uint256"
						},
						{
							"internalType": "uint256",
							"name": "dateAndTime",
							"type": "uint256"
						},
						{
							"internalType": "bool",
							"name": "forImmediatePublishing",
							"type": "bool"
						}
					],
					"name": "createEvent",
					"outputs": [
						{
							"components": [
								{
									"internalType": "uint256",
									"name": "id",
									"type": "uint256"
								},
								{
									"internalType": "address",
									"name": "creatingUserWalletAddress",
									"type": "address"
								},
								{
									"internalType": "string",
									"name": "title",
									"type": "string"
								},
								{
									"internalType": "string",
									"name": "description",
									"type": "string"
								},
								{
									"internalType": "string",
									"name": "link",
									"type": "string"
								},
								{
									"internalType": "uint256",
									"name": "amount",
									"type": "uint256"
								},
								{
									"internalType": "uint256",
									"name": "createdAt",
									"type": "uint256"
								},
								{
									"internalType": "uint256",
									"name": "updatedAt",
									"type": "uint256"
								},
								{
									"internalType": "uint256",
									"name": "dateAndTime",
									"type": "uint256"
								},
								{
									"internalType": "bool",
									"name": "isBlank",
									"type": "bool"
								},
								{
									"internalType": "bool",
									"name": "isPublished",
									"type": "bool"
								},
								{
									"internalType": "bool",
									"name": "isVerified",
									"type": "bool"
								},
								{
									"internalType": "uint256",
									"name": "verificationAmount",
									"type": "uint256"
								},
								{
									"internalType": "bool",
									"name": "isEnded",
									"type": "bool"
								},
								{
									"internalType": "bool",
									"name": "isPaidOut",
									"type": "bool"
								}
							],
							"internalType": "struct StekcitEvent",
							"name": "",
							"type": "tuple"
						}
					],
					"stateMutability": "nonpayable",
					"type": "function"
				},
				{
					"inputs": [
						{
							"internalType": "uint256",
							"name": "_eventId",
							"type": "uint256"
						},
						{
							"internalType": "uint256",
							"name": "_amount",
							"type": "uint256"
						}
					],
					"name": "createPayout",
					"outputs": [
						{
							"components": [
								{
									"internalType": "uint256",
									"name": "id",
									"type": "uint256"
								},
								{
									"internalType": "uint256",
									"name": "eventId",
									"type": "uint256"
								},
								{
									"internalType": "address",
									"name": "creatingUserWalletAddress",
									"type": "address"
								},
								{
									"internalType": "uint256",
									"name": "amountPaidOut",
									"type": "uint256"
								},
								{
									"internalType": "uint256",
									"name": "dateTimeAndMade",
									"type": "uint256"
								},
								{
									"internalType": "bool",
									"name": "isBlank",
									"type": "bool"
								}
							],
							"internalType": "struct StekcitPayout",
							"name": "",
							"type": "tuple"
						}
					],
					"stateMutability": "nonpayable",
					"type": "function"
				},
				{
					"inputs": [
						{
							"internalType": "uint256",
							"name": "_eventId",
							"type": "uint256"
						},
						{
							"internalType": "address",
							"name": "_attendingUserWalletAddress",
							"type": "address"
						},
						{
							"internalType": "uint256",
							"name": "_amountPaid",
							"type": "uint256"
						}
					],
					"name": "createTicketForUser",
					"outputs": [
						{
							"components": [
								{
									"internalType": "uint256",
									"name": "id",
									"type": "uint256"
								},
								{
									"internalType": "uint256",
									"name": "eventId",
									"type": "uint256"
								},
								{
									"internalType": "address",
									"name": "attendingUserWalletAddress",
									"type": "address"
								},
								{
									"internalType": "uint256",
									"name": "amountPaid",
									"type": "uint256"
								}
							],
							"internalType": "struct StekcitTicket",
							"name": "",
							"type": "tuple"
						}
					],
					"stateMutability": "nonpayable",
					"type": "function"
				},
				{
					"inputs": [
						{
							"internalType": "address",
							"name": "_walletAddress",
							"type": "address"
						},
						{
							"internalType": "string",
							"name": "_username",
							"type": "string"
						},
						{
							"internalType": "string",
							"name": "_emailAddress",
							"type": "string"
						}
					],
					"name": "createUser",
					"outputs": [
						{
							"components": [
								{
									"internalType": "uint256",
									"name": "id",
									"type": "uint256"
								},
								{
									"internalType": "address",
									"name": "walletAddress",
									"type": "address"
								},
								{
									"internalType": "string",
									"name": "username",
									"type": "string"
								},
								{
									"internalType": "string",
									"name": "emailAddress",
									"type": "string"
								},
								{
									"internalType": "bool",
									"name": "isCreatingUser",
									"type": "bool"
								},
								{
									"internalType": "bool",
									"name": "isBlank",
									"type": "bool"
								}
							],
							"internalType": "struct StekcitUser",
							"name": "",
							"type": "tuple"
						}
					],
					"stateMutability": "nonpayable",
					"type": "function"
				},
				{
					"inputs": [
						{
							"internalType": "address",
							"name": "_walletAddress",
							"type": "address"
						}
					],
					"name": "getAllEventsCreatedByUser",
					"outputs": [
						{
							"components": [
								{
									"internalType": "uint256",
									"name": "id",
									"type": "uint256"
								},
								{
									"internalType": "address",
									"name": "creatingUserWalletAddress",
									"type": "address"
								},
								{
									"internalType": "string",
									"name": "title",
									"type": "string"
								},
								{
									"internalType": "string",
									"name": "description",
									"type": "string"
								},
								{
									"internalType": "string",
									"name": "link",
									"type": "string"
								},
								{
									"internalType": "uint256",
									"name": "amount",
									"type": "uint256"
								},
								{
									"internalType": "uint256",
									"name": "createdAt",
									"type": "uint256"
								},
								{
									"internalType": "uint256",
									"name": "updatedAt",
									"type": "uint256"
								},
								{
									"internalType": "uint256",
									"name": "dateAndTime",
									"type": "uint256"
								},
								{
									"internalType": "bool",
									"name": "isBlank",
									"type": "bool"
								},
								{
									"internalType": "bool",
									"name": "isPublished",
									"type": "bool"
								},
								{
									"internalType": "bool",
									"name": "isVerified",
									"type": "bool"
								},
								{
									"internalType": "uint256",
									"name": "verificationAmount",
									"type": "uint256"
								},
								{
									"internalType": "bool",
									"name": "isEnded",
									"type": "bool"
								},
								{
									"internalType": "bool",
									"name": "isPaidOut",
									"type": "bool"
								}
							],
							"internalType": "struct StekcitEvent[]",
							"name": "",
							"type": "tuple[]"
						}
					],
					"stateMutability": "view",
					"type": "function"
				},
				{
					"inputs": [],
					"name": "getAllPublishedEvents",
					"outputs": [
						{
							"components": [
								{
									"internalType": "uint256",
									"name": "id",
									"type": "uint256"
								},
								{
									"internalType": "address",
									"name": "creatingUserWalletAddress",
									"type": "address"
								},
								{
									"internalType": "string",
									"name": "title",
									"type": "string"
								},
								{
									"internalType": "string",
									"name": "description",
									"type": "string"
								},
								{
									"internalType": "string",
									"name": "link",
									"type": "string"
								},
								{
									"internalType": "uint256",
									"name": "amount",
									"type": "uint256"
								},
								{
									"internalType": "uint256",
									"name": "createdAt",
									"type": "uint256"
								},
								{
									"internalType": "uint256",
									"name": "updatedAt",
									"type": "uint256"
								},
								{
									"internalType": "uint256",
									"name": "dateAndTime",
									"type": "uint256"
								},
								{
									"internalType": "bool",
									"name": "isBlank",
									"type": "bool"
								},
								{
									"internalType": "bool",
									"name": "isPublished",
									"type": "bool"
								},
								{
									"internalType": "bool",
									"name": "isVerified",
									"type": "bool"
								},
								{
									"internalType": "uint256",
									"name": "verificationAmount",
									"type": "uint256"
								},
								{
									"internalType": "bool",
									"name": "isEnded",
									"type": "bool"
								},
								{
									"internalType": "bool",
									"name": "isPaidOut",
									"type": "bool"
								}
							],
							"internalType": "struct StekcitEvent[]",
							"name": "",
							"type": "tuple[]"
						}
					],
					"stateMutability": "view",
					"type": "function"
				},
				{
					"inputs": [
						{
							"internalType": "uint256",
							"name": "_eventId",
							"type": "uint256"
						}
					],
					"name": "getAllTicketsOfEvent",
					"outputs": [
						{
							"components": [
								{
									"internalType": "uint256",
									"name": "id",
									"type": "uint256"
								},
								{
									"internalType": "uint256",
									"name": "eventId",
									"type": "uint256"
								},
								{
									"internalType": "address",
									"name": "attendingUserWalletAddress",
									"type": "address"
								},
								{
									"internalType": "uint256",
									"name": "amountPaid",
									"type": "uint256"
								}
							],
							"internalType": "struct StekcitTicket[]",
							"name": "",
							"type": "tuple[]"
						}
					],
					"stateMutability": "view",
					"type": "function"
				},
				{
					"inputs": [
						{
							"internalType": "address",
							"name": "_walletAddress",
							"type": "address"
						}
					],
					"name": "getAllTicketsOfUser",
					"outputs": [
						{
							"components": [
								{
									"internalType": "uint256",
									"name": "id",
									"type": "uint256"
								},
								{
									"internalType": "uint256",
									"name": "eventId",
									"type": "uint256"
								},
								{
									"internalType": "address",
									"name": "attendingUserWalletAddress",
									"type": "address"
								},
								{
									"internalType": "uint256",
									"name": "amountPaid",
									"type": "uint256"
								}
							],
							"internalType": "struct StekcitTicket[]",
							"name": "",
							"type": "tuple[]"
						}
					],
					"stateMutability": "view",
					"type": "function"
				},
				{
					"inputs": [
						{
							"internalType": "uint256",
							"name": "_eventId",
							"type": "uint256"
						}
					],
					"name": "getEventAttendees",
					"outputs": [
						{
							"components": [
								{
									"internalType": "uint256",
									"name": "id",
									"type": "uint256"
								},
								{
									"internalType": "address",
									"name": "walletAddress",
									"type": "address"
								},
								{
									"internalType": "string",
									"name": "username",
									"type": "string"
								},
								{
									"internalType": "string",
									"name": "emailAddress",
									"type": "string"
								},
								{
									"internalType": "bool",
									"name": "isCreatingUser",
									"type": "bool"
								},
								{
									"internalType": "bool",
									"name": "isBlank",
									"type": "bool"
								}
							],
							"internalType": "struct StekcitUser[]",
							"name": "",
							"type": "tuple[]"
						}
					],
					"stateMutability": "view",
					"type": "function"
				},
				{
					"inputs": [
						{
							"internalType": "uint256",
							"name": "_eventId",
							"type": "uint256"
						}
					],
					"name": "getEventById",
					"outputs": [
						{
							"components": [
								{
									"internalType": "uint256",
									"name": "id",
									"type": "uint256"
								},
								{
									"internalType": "address",
									"name": "creatingUserWalletAddress",
									"type": "address"
								},
								{
									"internalType": "string",
									"name": "title",
									"type": "string"
								},
								{
									"internalType": "string",
									"name": "description",
									"type": "string"
								},
								{
									"internalType": "string",
									"name": "link",
									"type": "string"
								},
								{
									"internalType": "uint256",
									"name": "amount",
									"type": "uint256"
								},
								{
									"internalType": "uint256",
									"name": "createdAt",
									"type": "uint256"
								},
								{
									"internalType": "uint256",
									"name": "updatedAt",
									"type": "uint256"
								},
								{
									"internalType": "uint256",
									"name": "dateAndTime",
									"type": "uint256"
								},
								{
									"internalType": "bool",
									"name": "isBlank",
									"type": "bool"
								},
								{
									"internalType": "bool",
									"name": "isPublished",
									"type": "bool"
								},
								{
									"internalType": "bool",
									"name": "isVerified",
									"type": "bool"
								},
								{
									"internalType": "uint256",
									"name": "verificationAmount",
									"type": "uint256"
								},
								{
									"internalType": "bool",
									"name": "isEnded",
									"type": "bool"
								},
								{
									"internalType": "bool",
									"name": "isPaidOut",
									"type": "bool"
								}
							],
							"internalType": "struct StekcitEvent",
							"name": "",
							"type": "tuple"
						}
					],
					"stateMutability": "view",
					"type": "function"
				},
				{
					"inputs": [],
					"name": "getNumberOfAllPublishedEvents",
					"outputs": [
						{
							"internalType": "uint256",
							"name": "",
							"type": "uint256"
						}
					],
					"stateMutability": "view",
					"type": "function"
				},
				{
					"inputs": [
						{
							"internalType": "uint256",
							"name": "_eventId",
							"type": "uint256"
						}
					],
					"name": "getNumberOfTicketsOfEvent",
					"outputs": [
						{
							"internalType": "uint256",
							"name": "",
							"type": "uint256"
						}
					],
					"stateMutability": "view",
					"type": "function"
				},
				{
					"inputs": [
						{
							"internalType": "address",
							"name": "_walletAddress",
							"type": "address"
						}
					],
					"name": "getNumberOfTicketsOfUser",
					"outputs": [
						{
							"internalType": "uint256",
							"name": "",
							"type": "uint256"
						}
					],
					"stateMutability": "view",
					"type": "function"
				},
				{
					"inputs": [
						{
							"internalType": "uint256",
							"name": "_payoutId",
							"type": "uint256"
						}
					],
					"name": "getPayoutById",
					"outputs": [
						{
							"components": [
								{
									"internalType": "uint256",
									"name": "id",
									"type": "uint256"
								},
								{
									"internalType": "uint256",
									"name": "eventId",
									"type": "uint256"
								},
								{
									"internalType": "address",
									"name": "creatingUserWalletAddress",
									"type": "address"
								},
								{
									"internalType": "uint256",
									"name": "amountPaidOut",
									"type": "uint256"
								},
								{
									"internalType": "uint256",
									"name": "dateTimeAndMade",
									"type": "uint256"
								},
								{
									"internalType": "bool",
									"name": "isBlank",
									"type": "bool"
								}
							],
							"internalType": "struct StekcitPayout",
							"name": "",
							"type": "tuple"
						}
					],
					"stateMutability": "view",
					"type": "function"
				},
				{
					"inputs": [
						{
							"internalType": "uint256",
							"name": "_ticketId",
							"type": "uint256"
						}
					],
					"name": "getTicketById",
					"outputs": [
						{
							"components": [
								{
									"internalType": "uint256",
									"name": "id",
									"type": "uint256"
								},
								{
									"internalType": "uint256",
									"name": "eventId",
									"type": "uint256"
								},
								{
									"internalType": "address",
									"name": "attendingUserWalletAddress",
									"type": "address"
								},
								{
									"internalType": "uint256",
									"name": "amountPaid",
									"type": "uint256"
								}
							],
							"internalType": "struct StekcitTicket",
							"name": "",
							"type": "tuple"
						}
					],
					"stateMutability": "view",
					"type": "function"
				},
				{
					"inputs": [
						{
							"internalType": "uint256",
							"name": "_eventId",
							"type": "uint256"
						}
					],
					"name": "getTotalAmountPaidToEvent",
					"outputs": [
						{
							"internalType": "uint256",
							"name": "",
							"type": "uint256"
						}
					],
					"stateMutability": "view",
					"type": "function"
				},
				{
					"inputs": [
						{
							"internalType": "address",
							"name": "_walletAddress",
							"type": "address"
						}
					],
					"name": "getTotalNumberOfAllEventsCreatedByUser",
					"outputs": [
						{
							"internalType": "uint256",
							"name": "",
							"type": "uint256"
						}
					],
					"stateMutability": "view",
					"type": "function"
				},
				{
					"inputs": [
						{
							"internalType": "uint256",
							"name": "_eventId",
							"type": "uint256"
						}
					],
					"name": "getTotalNumberOfTicketsOfEvent",
					"outputs": [
						{
							"internalType": "uint256",
							"name": "",
							"type": "uint256"
						}
					],
					"stateMutability": "view",
					"type": "function"
				},
				{
					"inputs": [
						{
							"internalType": "uint256",
							"name": "_userId",
							"type": "uint256"
						}
					],
					"name": "getUserByUserId",
					"outputs": [
						{
							"components": [
								{
									"internalType": "uint256",
									"name": "id",
									"type": "uint256"
								},
								{
									"internalType": "address",
									"name": "walletAddress",
									"type": "address"
								},
								{
									"internalType": "string",
									"name": "username",
									"type": "string"
								},
								{
									"internalType": "string",
									"name": "emailAddress",
									"type": "string"
								},
								{
									"internalType": "bool",
									"name": "isCreatingUser",
									"type": "bool"
								},
								{
									"internalType": "bool",
									"name": "isBlank",
									"type": "bool"
								}
							],
							"internalType": "struct StekcitUser",
							"name": "",
							"type": "tuple"
						}
					],
					"stateMutability": "view",
					"type": "function"
				},
				{
					"inputs": [
						{
							"internalType": "address",
							"name": "_walletAddress",
							"type": "address"
						}
					],
					"name": "getUserByWalletAddress",
					"outputs": [
						{
							"components": [
								{
									"internalType": "uint256",
									"name": "id",
									"type": "uint256"
								},
								{
									"internalType": "address",
									"name": "walletAddress",
									"type": "address"
								},
								{
									"internalType": "string",
									"name": "username",
									"type": "string"
								},
								{
									"internalType": "string",
									"name": "emailAddress",
									"type": "string"
								},
								{
									"internalType": "bool",
									"name": "isCreatingUser",
									"type": "bool"
								},
								{
									"internalType": "bool",
									"name": "isBlank",
									"type": "bool"
								}
							],
							"internalType": "struct StekcitUser",
							"name": "",
							"type": "tuple"
						}
					],
					"stateMutability": "view",
					"type": "function"
				},
				{
					"inputs": [
						{
							"internalType": "uint256",
							"name": "_increaseApprovalAmount",
							"type": "uint256"
						}
					],
					"name": "increaseApprovalForStekcitBM",
					"outputs": [
						{
							"internalType": "bool",
							"name": "",
							"type": "bool"
						}
					],
					"stateMutability": "nonpayable",
					"type": "function"
				},
				{
					"inputs": [
						{
							"internalType": "address",
							"name": "_walletAddress",
							"type": "address"
						}
					],
					"name": "makeCreatingUser",
					"outputs": [
						{
							"internalType": "bool",
							"name": "",
							"type": "bool"
						}
					],
					"stateMutability": "nonpayable",
					"type": "function"
				},
				{
					"inputs": [
						{
							"internalType": "uint256",
							"name": "_amount",
							"type": "uint256"
						}
					],
					"name": "payForEvent",
					"outputs": [
						{
							"internalType": "bool",
							"name": "",
							"type": "bool"
						}
					],
					"stateMutability": "nonpayable",
					"type": "function"
				},
				{
					"inputs": [
						{
							"internalType": "uint256",
							"name": "_eventId",
							"type": "uint256"
						}
					],
					"name": "processPayout",
					"outputs": [
						{
							"components": [
								{
									"internalType": "uint256",
									"name": "id",
									"type": "uint256"
								},
								{
									"internalType": "uint256",
									"name": "eventId",
									"type": "uint256"
								},
								{
									"internalType": "address",
									"name": "creatingUserWalletAddress",
									"type": "address"
								},
								{
									"internalType": "uint256",
									"name": "amountPaidOut",
									"type": "uint256"
								},
								{
									"internalType": "uint256",
									"name": "dateTimeAndMade",
									"type": "uint256"
								},
								{
									"internalType": "bool",
									"name": "isBlank",
									"type": "bool"
								}
							],
							"internalType": "struct StekcitPayout",
							"name": "",
							"type": "tuple"
						}
					],
					"stateMutability": "nonpayable",
					"type": "function"
				},
				{
					"inputs": [
						{
							"internalType": "uint256",
							"name": "_eventId",
							"type": "uint256"
						}
					],
					"name": "publishEvent",
					"outputs": [
						{
							"components": [
								{
									"internalType": "uint256",
									"name": "id",
									"type": "uint256"
								},
								{
									"internalType": "address",
									"name": "creatingUserWalletAddress",
									"type": "address"
								},
								{
									"internalType": "string",
									"name": "title",
									"type": "string"
								},
								{
									"internalType": "string",
									"name": "description",
									"type": "string"
								},
								{
									"internalType": "string",
									"name": "link",
									"type": "string"
								},
								{
									"internalType": "uint256",
									"name": "amount",
									"type": "uint256"
								},
								{
									"internalType": "uint256",
									"name": "createdAt",
									"type": "uint256"
								},
								{
									"internalType": "uint256",
									"name": "updatedAt",
									"type": "uint256"
								},
								{
									"internalType": "uint256",
									"name": "dateAndTime",
									"type": "uint256"
								},
								{
									"internalType": "bool",
									"name": "isBlank",
									"type": "bool"
								},
								{
									"internalType": "bool",
									"name": "isPublished",
									"type": "bool"
								},
								{
									"internalType": "bool",
									"name": "isVerified",
									"type": "bool"
								},
								{
									"internalType": "uint256",
									"name": "verificationAmount",
									"type": "uint256"
								},
								{
									"internalType": "bool",
									"name": "isEnded",
									"type": "bool"
								},
								{
									"internalType": "bool",
									"name": "isPaidOut",
									"type": "bool"
								}
							],
							"internalType": "struct StekcitEvent",
							"name": "",
							"type": "tuple"
						}
					],
					"stateMutability": "nonpayable",
					"type": "function"
				},
				{
					"inputs": [],
					"name": "stekcitBMOwnerAddress",
					"outputs": [
						{
							"internalType": "address",
							"name": "",
							"type": "address"
						}
					],
					"stateMutability": "view",
					"type": "function"
				},
				{
					"inputs": [
						{
							"internalType": "uint256",
							"name": "_eventId",
							"type": "uint256"
						}
					],
					"name": "verifyEvent",
					"outputs": [
						{
							"components": [
								{
									"internalType": "uint256",
									"name": "id",
									"type": "uint256"
								},
								{
									"internalType": "address",
									"name": "creatingUserWalletAddress",
									"type": "address"
								},
								{
									"internalType": "string",
									"name": "title",
									"type": "string"
								},
								{
									"internalType": "string",
									"name": "description",
									"type": "string"
								},
								{
									"internalType": "string",
									"name": "link",
									"type": "string"
								},
								{
									"internalType": "uint256",
									"name": "amount",
									"type": "uint256"
								},
								{
									"internalType": "uint256",
									"name": "createdAt",
									"type": "uint256"
								},
								{
									"internalType": "uint256",
									"name": "updatedAt",
									"type": "uint256"
								},
								{
									"internalType": "uint256",
									"name": "dateAndTime",
									"type": "uint256"
								},
								{
									"internalType": "bool",
									"name": "isBlank",
									"type": "bool"
								},
								{
									"internalType": "bool",
									"name": "isPublished",
									"type": "bool"
								},
								{
									"internalType": "bool",
									"name": "isVerified",
									"type": "bool"
								},
								{
									"internalType": "uint256",
									"name": "verificationAmount",
									"type": "uint256"
								},
								{
									"internalType": "bool",
									"name": "isEnded",
									"type": "bool"
								},
								{
									"internalType": "bool",
									"name": "isPaidOut",
									"type": "bool"
								}
							],
							"internalType": "struct StekcitEvent",
							"name": "",
							"type": "tuple"
						}
					],
					"stateMutability": "nonpayable",
					"type": "function"
				}
			],
			"devdoc": {
				"kind": "dev",
				"methods": {},
				"version": 1
			},
			"evm": {
				"assembly": "    /* \"smart-contracts/StekcitBM.sol\":204:18908  contract StekcitBM {... */\n  mstore(0x40, 0x80)\n    /* \"smart-contracts/StekcitBM.sol\":601:663  ERC20 CUSD = ERC20(0x874069Fa1Eb16D44d622F2e0Ca25eeA172369bC1) */\n  0x09\n  dup1\n  sload\n  not(sub(shl(0xa0, 0x01), 0x01))\n  and\n    /* \"smart-contracts/StekcitBM.sol\":620:662  0x874069Fa1Eb16D44d622F2e0Ca25eeA172369bC1 */\n  0x874069fa1eb16d44d622f2e0ca25eea172369bc1\n    /* \"smart-contracts/StekcitBM.sol\":601:663  ERC20 CUSD = ERC20(0x874069Fa1Eb16D44d622F2e0Ca25eeA172369bC1) */\n  or\n  swap1\n  sstore\n    /* \"smart-contracts/StekcitBM.sol\":670:777  constructor(address _stekcitBMOwnerAddress) {... */\n  callvalue\n  dup1\n  iszero\n  tag_1\n  jumpi\n  0x00\n  dup1\n  revert\ntag_1:\n  pop\n  mload(0x40)\n  sub(codesize, bytecodeSize)\n  dup1\n  bytecodeSize\n  dup4\n  codecopy\n  dup2\n  add\n  0x40\n  dup2\n  swap1\n  mstore\n  tag_2\n  swap2\n  tag_3\n  jump\t// in\ntag_2:\n    /* \"smart-contracts/StekcitBM.sol\":724:745  stekcitBMOwnerAddress */\n  0x04\n    /* \"smart-contracts/StekcitBM.sol\":724:770  stekcitBMOwnerAddress = _stekcitBMOwnerAddress */\n  dup1\n  sload\n  not(sub(shl(0xa0, 0x01), 0x01))\n  and\n  sub(shl(0xa0, 0x01), 0x01)\n  swap3\n  swap1\n  swap3\n  and\n  swap2\n  swap1\n  swap2\n  or\n  swap1\n  sstore\n    /* \"smart-contracts/StekcitBM.sol\":204:18908  contract StekcitBM {... */\n  jump(tag_7)\n    /* \"#utility.yul\":14:304   */\ntag_3:\n    /* \"#utility.yul\":84:90   */\n  0x00\n    /* \"#utility.yul\":137:139   */\n  0x20\n    /* \"#utility.yul\":125:134   */\n  dup3\n    /* \"#utility.yul\":116:123   */\n  dup5\n    /* \"#utility.yul\":112:135   */\n  sub\n    /* \"#utility.yul\":108:140   */\n  slt\n    /* \"#utility.yul\":105:157   */\n  iszero\n  tag_9\n  jumpi\n    /* \"#utility.yul\":153:154   */\n  0x00\n    /* \"#utility.yul\":150:151   */\n  dup1\n    /* \"#utility.yul\":143:155   */\n  revert\n    /* \"#utility.yul\":105:157   */\ntag_9:\n    /* \"#utility.yul\":179:195   */\n  dup2\n  mload\n  sub(shl(0xa0, 0x01), 0x01)\n    /* \"#utility.yul\":224:255   */\n  dup2\n  and\n    /* \"#utility.yul\":214:256   */\n  dup2\n  eq\n    /* \"#utility.yul\":204:274   */\n  tag_10\n  jumpi\n    /* \"#utility.yul\":270:271   */\n  0x00\n    /* \"#utility.yul\":267:268   */\n  dup1\n    /* \"#utility.yul\":260:272   */\n  revert\n    /* \"#utility.yul\":204:274   */\ntag_10:\n    /* \"#utility.yul\":293:298   */\n  swap4\n    /* \"#utility.yul\":14:304   */\n  swap3\n  pop\n  pop\n  pop\n  jump\t// out\ntag_7:\n    /* \"smart-contracts/StekcitBM.sol\":204:18908  contract StekcitBM {... */\n  dataSize(sub_0)\n  dup1\n  dataOffset(sub_0)\n  0x00\n  codecopy\n  0x00\n  return\nstop\n\nsub_0: assembly {\n        /* \"smart-contracts/StekcitBM.sol\":204:18908  contract StekcitBM {... */\n      mstore(0x40, 0x80)\n      callvalue\n      dup1\n      iszero\n      tag_1\n      jumpi\n      0x00\n      dup1\n      revert\n    tag_1:\n      pop\n      jumpi(tag_2, lt(calldatasize, 0x04))\n      shr(0xe0, calldataload(0x00))\n      dup1\n      0x76f8cbd5\n      gt\n      tag_36\n      jumpi\n      dup1\n      0xc5b84029\n      gt\n      tag_37\n      jumpi\n      dup1\n      0xd011287d\n      gt\n      tag_38\n      jumpi\n      dup1\n      0xd011287d\n      eq\n      tag_31\n      jumpi\n      dup1\n      0xd903708b\n      eq\n      tag_32\n      jumpi\n      dup1\n      0xe5b16b4c\n      eq\n      tag_33\n      jumpi\n      dup1\n      0xea42e486\n      eq\n      tag_34\n      jumpi\n      dup1\n      0xf5caa96b\n      eq\n      tag_35\n      jumpi\n      0x00\n      dup1\n      revert\n    tag_38:\n      dup1\n      0xc5b84029\n      eq\n      tag_27\n      jumpi\n      dup1\n      0xc89e9666\n      eq\n      tag_28\n      jumpi\n      dup1\n      0xcee34e7b\n      eq\n      tag_29\n      jumpi\n      dup1\n      0xcfd9f3da\n      eq\n      tag_30\n      jumpi\n      0x00\n      dup1\n      revert\n    tag_37:\n      dup1\n      0x99bb6b08\n      gt\n      tag_39\n      jumpi\n      dup1\n      0x99bb6b08\n      eq\n      tag_23\n      jumpi\n      dup1\n      0xad395c14\n      eq\n      tag_24\n      jumpi\n      dup1\n      0xb98079bc\n      eq\n      tag_25\n      jumpi\n      dup1\n      0xbb72caef\n      eq\n      tag_26\n      jumpi\n      0x00\n      dup1\n      revert\n    tag_39:\n      dup1\n      0x76f8cbd5\n      eq\n      tag_19\n      jumpi\n      dup1\n      0x89ee68bf\n      eq\n      tag_20\n      jumpi\n      dup1\n      0x9371de2b\n      eq\n      tag_21\n      jumpi\n      dup1\n      0x9720807c\n      eq\n      tag_22\n      jumpi\n      0x00\n      dup1\n      revert\n    tag_36:\n      dup1\n      0x4ceb48fd\n      gt\n      tag_40\n      jumpi\n      dup1\n      0x71ffeffe\n      gt\n      tag_41\n      jumpi\n      dup1\n      0x71ffeffe\n      eq\n      tag_15\n      jumpi\n      dup1\n      0x7354a25f\n      eq\n      tag_16\n      jumpi\n      dup1\n      0x7370f6cc\n      eq\n      tag_17\n      jumpi\n      dup1\n      0x75362943\n      eq\n      tag_18\n      jumpi\n      0x00\n      dup1\n      revert\n    tag_41:\n      dup1\n      0x4ceb48fd\n      eq\n      tag_11\n      jumpi\n      dup1\n      0x5d3ee0ee\n      eq\n      tag_12\n      jumpi\n      dup1\n      0x65212f70\n      eq\n      tag_13\n      jumpi\n      dup1\n      0x666ac2fb\n      eq\n      tag_14\n      jumpi\n      0x00\n      dup1\n      revert\n    tag_40:\n      dup1\n      0x25299d67\n      gt\n      tag_42\n      jumpi\n      dup1\n      0x25299d67\n      eq\n      tag_7\n      jumpi\n      dup1\n      0x25fb0d55\n      eq\n      tag_8\n      jumpi\n      dup1\n      0x27b7aabc\n      eq\n      tag_9\n      jumpi\n      dup1\n      0x3b902afe\n      eq\n      tag_10\n      jumpi\n      0x00\n      dup1\n      revert\n    tag_42:\n      dup1\n      0x0c6c56f9\n      eq\n      tag_3\n      jumpi\n      dup1\n      0x184b0938\n      eq\n      tag_4\n      jumpi\n      dup1\n      0x235b3a3d\n      eq\n      tag_5\n      jumpi\n      dup1\n      0x24c67b03\n      eq\n      tag_6\n      jumpi\n    tag_2:\n      0x00\n      dup1\n      revert\n        /* \"smart-contracts/StekcitBM.sol\":12388:12578  function checkStekcitBMAllowanceOfUser(address _walletAddress)... */\n    tag_3:\n      tag_43\n      tag_44\n      calldatasize\n      0x04\n      tag_45\n      jump\t// in\n    tag_44:\n      tag_46\n      jump\t// in\n    tag_43:\n      mload(0x40)\n        /* \"#utility.yul\":13783:13808   */\n      swap1\n      dup2\n      mstore\n        /* \"#utility.yul\":13771:13773   */\n      0x20\n        /* \"#utility.yul\":13756:13774   */\n      add\n        /* \"smart-contracts/StekcitBM.sol\":12388:12578  function checkStekcitBMAllowanceOfUser(address _walletAddress)... */\n    tag_47:\n      mload(0x40)\n      dup1\n      swap2\n      sub\n      swap1\n      return\n        /* \"smart-contracts/StekcitBM.sol\":8604:9358  function getAllTicketsOfUser(address _walletAddress)... */\n    tag_4:\n      tag_49\n      tag_50\n      calldatasize\n      0x04\n      tag_45\n      jump\t// in\n    tag_50:\n      tag_51\n      jump\t// in\n    tag_49:\n      mload(0x40)\n      tag_47\n      swap2\n      swap1\n      tag_53\n      jump\t// in\n        /* \"smart-contracts/StekcitBM.sol\":6610:7435  function getAllTicketsOfEvent(uint256 _eventId)... */\n    tag_5:\n      tag_49\n      tag_55\n      calldatasize\n      0x04\n      tag_56\n      jump\t// in\n    tag_55:\n      tag_57\n      jump\t// in\n        /* \"smart-contracts/StekcitBM.sol\":13755:14248  function checkIfEventIsAlreadyPaidOut(uint256 _eventId)... */\n    tag_6:\n      tag_59\n      tag_60\n      calldatasize\n      0x04\n      tag_56\n      jump\t// in\n    tag_60:\n      tag_61\n      jump\t// in\n    tag_59:\n      mload(0x40)\n        /* \"#utility.yul\":11351:11365   */\n      swap1\n      iszero\n        /* \"#utility.yul\":11344:11366   */\n      iszero\n        /* \"#utility.yul\":11326:11367   */\n      dup2\n      mstore\n        /* \"#utility.yul\":11314:11316   */\n      0x20\n        /* \"#utility.yul\":11299:11317   */\n      add\n        /* \"smart-contracts/StekcitBM.sol\":13755:14248  function checkIfEventIsAlreadyPaidOut(uint256 _eventId)... */\n      tag_47\n        /* \"#utility.yul\":11186:11373   */\n      jump\n        /* \"smart-contracts/StekcitBM.sol\":10362:11349  function createEvent(... */\n    tag_7:\n      tag_64\n      tag_65\n      calldatasize\n      0x04\n      tag_66\n      jump\t// in\n    tag_65:\n      tag_67\n      jump\t// in\n    tag_64:\n      mload(0x40)\n      tag_47\n      swap2\n      swap1\n      tag_69\n      jump\t// in\n        /* \"smart-contracts/StekcitBM.sol\":12711:13223  function createTicketForUser(... */\n    tag_8:\n      tag_70\n      tag_71\n      calldatasize\n      0x04\n      tag_72\n      jump\t// in\n    tag_71:\n      tag_73\n      jump\t// in\n    tag_70:\n      mload(0x40)\n      tag_47\n      swap2\n      swap1\n      tag_75\n      jump\t// in\n        /* \"smart-contracts/StekcitBM.sol\":11355:11520  function getTicketById(uint256 _ticketId)... */\n    tag_9:\n      tag_70\n      tag_77\n      calldatasize\n      0x04\n      tag_56\n      jump\t// in\n    tag_77:\n      tag_78\n      jump\t// in\n        /* \"smart-contracts/StekcitBM.sol\":5380:6072  function getAllEventsCreatedByUser(address _walletAddress)... */\n    tag_10:\n      tag_80\n      tag_81\n      calldatasize\n      0x04\n      tag_45\n      jump\t// in\n    tag_81:\n      tag_82\n      jump\t// in\n    tag_80:\n      mload(0x40)\n      tag_47\n      swap2\n      swap1\n      tag_84\n      jump\t// in\n        /* \"smart-contracts/StekcitBM.sol\":2017:2702  function createUser(... */\n    tag_11:\n      tag_85\n      tag_86\n      calldatasize\n      0x04\n      tag_87\n      jump\t// in\n    tag_86:\n      tag_88\n      jump\t// in\n    tag_85:\n      mload(0x40)\n      tag_47\n      swap2\n      swap1\n      tag_90\n      jump\t// in\n        /* \"smart-contracts/StekcitBM.sol\":7925:8598  function getAllPublishedEvents()... */\n    tag_12:\n      tag_80\n      tag_92\n      jump\t// in\n        /* \"smart-contracts/StekcitBM.sol\":16682:16847  function getPayoutById(uint256 _payoutId)... */\n    tag_13:\n      tag_94\n      tag_95\n      calldatasize\n      0x04\n      tag_56\n      jump\t// in\n    tag_95:\n      tag_96\n      jump\t// in\n    tag_94:\n      mload(0x40)\n      tag_47\n      swap2\n      swap1\n        /* \"#utility.yul\":12710:12723   */\n      dup2\n      mload\n        /* \"#utility.yul\":12692:12724   */\n      dup2\n      mstore\n        /* \"#utility.yul\":12780:12784   */\n      0x20\n        /* \"#utility.yul\":12768:12785   */\n      dup1\n      dup4\n      add\n        /* \"#utility.yul\":12762:12786   */\n      mload\n        /* \"#utility.yul\":12740:12760   */\n      swap1\n      dup3\n      add\n        /* \"#utility.yul\":12733:12787   */\n      mstore\n        /* \"#utility.yul\":12847:12851   */\n      0x40\n        /* \"#utility.yul\":12835:12852   */\n      dup1\n      dup4\n      add\n        /* \"#utility.yul\":12829:12853   */\n      mload\n      sub(shl(0xa0, 0x01), 0x01)\n        /* \"#utility.yul\":12825:12875   */\n      and\n        /* \"#utility.yul\":12803:12823   */\n      swap1\n      dup3\n      add\n        /* \"#utility.yul\":12796:12876   */\n      mstore\n        /* \"#utility.yul\":12932:12936   */\n      0x60\n        /* \"#utility.yul\":12920:12937   */\n      dup1\n      dup4\n      add\n        /* \"#utility.yul\":12914:12938   */\n      mload\n        /* \"#utility.yul\":12892:12912   */\n      swap1\n      dup3\n      add\n        /* \"#utility.yul\":12885:12939   */\n      mstore\n        /* \"#utility.yul\":12995:12999   */\n      0x80\n        /* \"#utility.yul\":12983:13000   */\n      dup1\n      dup4\n      add\n        /* \"#utility.yul\":12977:13001   */\n      mload\n        /* \"#utility.yul\":12955:12975   */\n      swap1\n      dup3\n      add\n        /* \"#utility.yul\":12948:13002   */\n      mstore\n        /* \"#utility.yul\":12863:12866   */\n      0xa0\n        /* \"#utility.yul\":13060:13077   */\n      swap2\n      dup3\n      add\n        /* \"#utility.yul\":13054:13078   */\n      mload\n        /* \"#utility.yul\":13047:13079   */\n      iszero\n        /* \"#utility.yul\":13040:13080   */\n      iszero\n        /* \"#utility.yul\":13018:13038   */\n      swap2\n      dup2\n      add\n        /* \"#utility.yul\":13011:13081   */\n      swap2\n      swap1\n      swap2\n      mstore\n        /* \"#utility.yul\":12679:12682   */\n      0xc0\n        /* \"#utility.yul\":12664:12683   */\n      add\n      swap1\n        /* \"#utility.yul\":12483:13087   */\n      jump\n        /* \"smart-contracts/StekcitBM.sol\":4277:4836  function getNumberOfTicketsOfUser(address _walletAddress)... */\n    tag_14:\n      tag_43\n      tag_100\n      calldatasize\n      0x04\n      tag_45\n      jump\t// in\n    tag_100:\n      tag_101\n      jump\t// in\n        /* \"smart-contracts/StekcitBM.sol\":9364:9820  function makeCreatingUser(address _walletAddress) public onlyExistingUser returns (bool) {... */\n    tag_15:\n      tag_59\n      tag_104\n      calldatasize\n      0x04\n      tag_45\n      jump\t// in\n    tag_104:\n      tag_105\n      jump\t// in\n        /* \"smart-contracts/StekcitBM.sol\":4842:5374  function getNumberOfTicketsOfEvent(uint256 _eventId)... */\n    tag_16:\n      tag_43\n      tag_108\n      calldatasize\n      0x04\n      tag_56\n      jump\t// in\n    tag_108:\n      tag_109\n      jump\t// in\n        /* \"smart-contracts/StekcitBM.sol\":18311:18525  function approveStekcitBM(uint256 _amount) public returns (bool) {... */\n    tag_17:\n      tag_59\n      tag_112\n      calldatasize\n      0x04\n      tag_56\n      jump\t// in\n    tag_112:\n      tag_113\n      jump\t// in\n        /* \"smart-contracts/StekcitBM.sol\":1669:2011  function checkIfUserisCreatingUserOfEvent(... */\n    tag_18:\n      tag_59\n      tag_116\n      calldatasize\n      0x04\n      tag_117\n      jump\t// in\n    tag_116:\n      tag_118\n      jump\t// in\n        /* \"smart-contracts/StekcitBM.sol\":6078:6604  function getTotalNumberOfTicketsOfEvent(uint256 _eventId)... */\n    tag_19:\n      tag_43\n      tag_121\n      calldatasize\n      0x04\n      tag_56\n      jump\t// in\n    tag_121:\n      tag_122\n      jump\t// in\n        /* \"smart-contracts/StekcitBM.sol\":14254:16174  function processPayout(uint256 _eventId)... */\n    tag_20:\n      tag_94\n      tag_125\n      calldatasize\n      0x04\n      tag_56\n      jump\t// in\n    tag_125:\n      tag_126\n      jump\t// in\n        /* \"smart-contracts/StekcitBM.sol\":1193:1663  function checkIfUserExists(address _walletAddress)... */\n    tag_21:\n      tag_59\n      tag_129\n      calldatasize\n      0x04\n      tag_45\n      jump\t// in\n    tag_129:\n      tag_130\n      jump\t// in\n        /* \"smart-contracts/StekcitBM.sol\":412:448  address public stekcitBMOwnerAddress */\n    tag_22:\n      sload(0x04)\n      tag_132\n      swap1\n      sub(shl(0xa0, 0x01), 0x01)\n      and\n      dup2\n      jump\n    tag_132:\n      mload(0x40)\n      sub(shl(0xa0, 0x01), 0x01)\n        /* \"#utility.yul\":8109:8141   */\n      swap1\n      swap2\n      and\n        /* \"#utility.yul\":8091:8142   */\n      dup2\n      mstore\n        /* \"#utility.yul\":8079:8081   */\n      0x20\n        /* \"#utility.yul\":8064:8082   */\n      add\n        /* \"smart-contracts/StekcitBM.sol\":412:448  address public stekcitBMOwnerAddress */\n      tag_47\n        /* \"#utility.yul\":7945:8148   */\n      jump\n        /* \"smart-contracts/StekcitBM.sol\":2708:3209  function getUserByWalletAddress(address _walletAddress)... */\n    tag_23:\n      tag_85\n      tag_137\n      calldatasize\n      0x04\n      tag_45\n      jump\t// in\n    tag_137:\n      tag_138\n      jump\t// in\n        /* \"smart-contracts/StekcitBM.sol\":11526:12382  function getEventAttendees(uint256 _eventId)... */\n    tag_24:\n      tag_140\n      tag_141\n      calldatasize\n      0x04\n      tag_56\n      jump\t// in\n    tag_141:\n      tag_142\n      jump\t// in\n    tag_140:\n      mload(0x40)\n      tag_47\n      swap2\n      swap1\n      tag_144\n      jump\t// in\n        /* \"smart-contracts/StekcitBM.sol\":9826:10356  function getEventById(uint256 _eventId)... */\n    tag_25:\n      tag_64\n      tag_146\n      calldatasize\n      0x04\n      tag_56\n      jump\t// in\n    tag_146:\n      tag_147\n      jump\t// in\n        /* \"smart-contracts/StekcitBM.sol\":16180:16676  function createPayout(uint256 _eventId, uint256 _amount)... */\n    tag_26:\n      tag_94\n      tag_150\n      calldatasize\n      0x04\n      tag_151\n      jump\t// in\n    tag_150:\n      tag_152\n      jump\t// in\n        /* \"smart-contracts/StekcitBM.sol\":3690:4271  function getTotalNumberOfAllEventsCreatedByUser(address _walletAddress)... */\n    tag_27:\n      tag_43\n      tag_155\n      calldatasize\n      0x04\n      tag_45\n      jump\t// in\n    tag_155:\n      tag_156\n      jump\t// in\n        /* \"smart-contracts/StekcitBM.sol\":3215:3684  function getUserByUserId(uint256 _userId)... */\n    tag_28:\n      tag_85\n      tag_159\n      calldatasize\n      0x04\n      tag_56\n      jump\t// in\n    tag_159:\n      tag_160\n      jump\t// in\n        /* \"smart-contracts/StekcitBM.sol\":7441:7919  function getNumberOfAllPublishedEvents() public view returns (uint256) {... */\n    tag_29:\n      tag_43\n      tag_163\n      jump\t// in\n        /* \"smart-contracts/StekcitBM.sol\":17970:18305  function publishEvent(uint256 _eventId)... */\n    tag_30:\n      tag_64\n      tag_166\n      calldatasize\n      0x04\n      tag_56\n      jump\t// in\n    tag_166:\n      tag_167\n      jump\t// in\n        /* \"smart-contracts/StekcitBM.sol\":18531:18906  function increaseApprovalForStekcitBM(uint256 _increaseApprovalAmount)... */\n    tag_31:\n      tag_59\n      tag_170\n      calldatasize\n      0x04\n      tag_56\n      jump\t// in\n    tag_170:\n      tag_171\n      jump\t// in\n        /* \"smart-contracts/StekcitBM.sol\":17419:17964  function verifyEvent(uint256 _eventId)... */\n    tag_32:\n      tag_64\n      tag_174\n      calldatasize\n      0x04\n      tag_56\n      jump\t// in\n    tag_174:\n      tag_175\n      jump\t// in\n        /* \"smart-contracts/StekcitBM.sol\":16853:17413  function getTotalAmountPaidToEvent(uint256 _eventId)... */\n    tag_33:\n      tag_43\n      tag_178\n      calldatasize\n      0x04\n      tag_56\n      jump\t// in\n    tag_178:\n      tag_179\n      jump\t// in\n        /* \"smart-contracts/StekcitBM.sol\":12584:12705  function payForEvent(uint256 _amount) public returns (bool) {... */\n    tag_34:\n      tag_59\n      tag_182\n      calldatasize\n      0x04\n      tag_56\n      jump\t// in\n    tag_182:\n      tag_183\n      jump\t// in\n        /* \"smart-contracts/StekcitBM.sol\":13229:13749  function checkIfUserAlreadyHasTicket(... */\n    tag_35:\n      tag_59\n      tag_186\n      calldatasize\n      0x04\n      tag_117\n      jump\t// in\n    tag_186:\n      tag_187\n      jump\t// in\n        /* \"smart-contracts/StekcitBM.sol\":12388:12578  function checkStekcitBMAllowanceOfUser(address _walletAddress)... */\n    tag_46:\n        /* \"smart-contracts/StekcitBM.sol\":12526:12530  CUSD */\n      sload(0x09)\n        /* \"smart-contracts/StekcitBM.sol\":12526:12571  CUSD.allowance(_walletAddress, address(this)) */\n      mload(0x40)\n      shl(0xe1, 0x6eb1769f)\n      dup2\n      mstore\n      sub(shl(0xa0, 0x01), 0x01)\n        /* \"#utility.yul\":8383:8398   */\n      dup4\n      dup2\n      and\n        /* \"smart-contracts/StekcitBM.sol\":12526:12571  CUSD.allowance(_walletAddress, address(this)) */\n      0x04\n      dup4\n      add\n        /* \"#utility.yul\":8365:8399   */\n      mstore\n        /* \"smart-contracts/StekcitBM.sol\":12565:12569  this */\n      address\n        /* \"#utility.yul\":8415:8433   */\n      0x24\n      dup4\n      add\n        /* \"#utility.yul\":8408:8451   */\n      mstore\n        /* \"smart-contracts/StekcitBM.sol\":12496:12503  uint256 */\n      0x00\n      swap3\n        /* \"smart-contracts/StekcitBM.sol\":12526:12530  CUSD */\n      and\n      swap1\n        /* \"smart-contracts/StekcitBM.sol\":12526:12540  CUSD.allowance */\n      0xdd62ed3e\n      swap1\n        /* \"#utility.yul\":8300:8318   */\n      0x44\n      add\n        /* \"smart-contracts/StekcitBM.sol\":12526:12571  CUSD.allowance(_walletAddress, address(this)) */\n      0x20\n      mload(0x40)\n      dup1\n      dup4\n      sub\n      dup2\n      dup7\n      dup1\n      extcodesize\n      iszero\n      dup1\n      iszero\n      tag_192\n      jumpi\n      0x00\n      dup1\n      revert\n    tag_192:\n      pop\n      gas\n      staticcall\n      iszero\n      dup1\n      iszero\n      tag_194\n      jumpi\n      returndatasize\n      0x00\n      dup1\n      returndatacopy\n      revert(0x00, returndatasize)\n    tag_194:\n      pop\n      pop\n      pop\n      pop\n      mload(0x40)\n      returndatasize\n      not(0x1f)\n      0x1f\n      dup3\n      add\n      and\n      dup3\n      add\n      dup1\n      0x40\n      mstore\n      pop\n      dup2\n      add\n      swap1\n      tag_195\n      swap2\n      swap1\n      tag_196\n      jump\t// in\n    tag_195:\n        /* \"smart-contracts/StekcitBM.sol\":12519:12571  return CUSD.allowance(_walletAddress, address(this)) */\n      swap3\n        /* \"smart-contracts/StekcitBM.sol\":12388:12578  function checkStekcitBMAllowanceOfUser(address _walletAddress)... */\n      swap2\n      pop\n      pop\n      jump\t// out\n        /* \"smart-contracts/StekcitBM.sol\":8604:9358  function getAllTicketsOfUser(address _walletAddress)... */\n    tag_51:\n        /* \"smart-contracts/StekcitBM.sol\":8702:8724  StekcitTicket[] memory */\n      0x60\n        /* \"smart-contracts/StekcitBM.sol\":8740:8763  uint256 runningTicketId */\n      0x00\n        /* \"smart-contracts/StekcitBM.sol\":8777:8816  StekcitTicket[] memory allTicketsOfUser */\n      dup1\n        /* \"smart-contracts/StekcitBM.sol\":8852:8892  getNumberOfTicketsOfUser(_walletAddress) */\n      tag_198\n        /* \"smart-contracts/StekcitBM.sol\":8877:8891  _walletAddress */\n      dup5\n        /* \"smart-contracts/StekcitBM.sol\":8852:8876  getNumberOfTicketsOfUser */\n      tag_101\n        /* \"smart-contracts/StekcitBM.sol\":8852:8892  getNumberOfTicketsOfUser(_walletAddress) */\n      jump\t// in\n    tag_198:\n        /* \"smart-contracts/StekcitBM.sol\":8819:8902  new StekcitTicket[](... */\n      0xffffffffffffffff\n      dup2\n      gt\n      iszero\n      tag_200\n      jumpi\n      tag_200\n      tag_201\n      jump\t// in\n    tag_200:\n      mload(0x40)\n      swap1\n      dup1\n      dup3\n      mstore\n      dup1\n      0x20\n      mul\n      0x20\n      add\n      dup3\n      add\n      0x40\n      mstore\n      dup1\n      iszero\n      tag_202\n      jumpi\n      dup2\n      0x20\n      add\n    tag_203:\n      tag_204\n      tag_205\n      jump\t// in\n    tag_204:\n      dup2\n      mstore\n      0x20\n      add\n      swap1\n      0x01\n      swap1\n      sub\n      swap1\n      dup2\n      tag_203\n      jumpi\n      swap1\n      pop\n    tag_202:\n      pop\n        /* \"smart-contracts/StekcitBM.sol\":8777:8902  StekcitTicket[] memory allTicketsOfUser = new StekcitTicket[](... */\n      swap1\n      pop\n        /* \"smart-contracts/StekcitBM.sol\":8931:8947  uint256 ticketId */\n      0x00\n        /* \"smart-contracts/StekcitBM.sol\":8913:9318  for (... */\n    tag_206:\n        /* \"smart-contracts/StekcitBM.sol\":8976:8993  allStekcitTickets */\n      0x02\n        /* \"smart-contracts/StekcitBM.sol\":8976:9000  allStekcitTickets.length */\n      sload\n        /* \"smart-contracts/StekcitBM.sol\":8965:9000  ticketId < allStekcitTickets.length */\n      dup2\n      lt\n        /* \"smart-contracts/StekcitBM.sol\":8913:9318  for (... */\n      iszero\n      tag_207\n      jumpi\n        /* \"smart-contracts/StekcitBM.sol\":9049:9083  StekcitTicket memory currentTicket */\n      0x00\n        /* \"smart-contracts/StekcitBM.sol\":9086:9103  allStekcitTickets */\n      0x02\n        /* \"smart-contracts/StekcitBM.sol\":9104:9112  ticketId */\n      dup3\n        /* \"smart-contracts/StekcitBM.sol\":9086:9113  allStekcitTickets[ticketId] */\n      dup2\n      sload\n      dup2\n      lt\n      tag_210\n      jumpi\n      tag_210\n      tag_211\n      jump\t// in\n    tag_210:\n      0x00\n      swap2\n      dup3\n      mstore\n      0x20\n      swap2\n      dup3\n      swap1\n      keccak256\n        /* \"smart-contracts/StekcitBM.sol\":9049:9113  StekcitTicket memory currentTicket = allStekcitTickets[ticketId] */\n      0x40\n      dup1\n      mload\n      0x80\n      dup2\n      add\n      dup3\n      mstore\n        /* \"smart-contracts/StekcitBM.sol\":9086:9113  allStekcitTickets[ticketId] */\n      0x04\n      swap1\n      swap4\n      mul\n      swap1\n      swap2\n      add\n        /* \"smart-contracts/StekcitBM.sol\":9049:9113  StekcitTicket memory currentTicket = allStekcitTickets[ticketId] */\n      dup1\n      sload\n      dup4\n      mstore\n      0x01\n      dup2\n      add\n      sload\n      swap4\n      dup4\n      add\n      swap4\n      swap1\n      swap4\n      mstore\n      0x02\n      dup4\n      add\n      sload\n      sub(shl(0xa0, 0x01), 0x01)\n      swap1\n      dup2\n      and\n      swap2\n      dup4\n      add\n      dup3\n      swap1\n      mstore\n      0x03\n      swap1\n      swap4\n      add\n      sload\n      0x60\n      dup4\n      add\n      mstore\n      swap1\n      swap3\n      pop\n        /* \"smart-contracts/StekcitBM.sol\":9131:9189  currentTicket.attendingUserWalletAddress == _walletAddress */\n      swap1\n      dup8\n      and\n      eq\n        /* \"smart-contracts/StekcitBM.sol\":9127:9308  if (currentTicket.attendingUserWalletAddress == _walletAddress) {... */\n      iszero\n      tag_213\n      jumpi\n        /* \"smart-contracts/StekcitBM.sol\":9245:9258  currentTicket */\n      dup1\n        /* \"smart-contracts/StekcitBM.sol\":9209:9225  allTicketsOfUser */\n      dup4\n        /* \"smart-contracts/StekcitBM.sol\":9226:9241  runningTicketId */\n      dup6\n        /* \"smart-contracts/StekcitBM.sol\":9209:9242  allTicketsOfUser[runningTicketId] */\n      dup2\n      mload\n      dup2\n      lt\n      tag_215\n      jumpi\n      tag_215\n      tag_211\n      jump\t// in\n    tag_215:\n      0x20\n      mul\n      0x20\n      add\n      add\n        /* \"smart-contracts/StekcitBM.sol\":9209:9258  allTicketsOfUser[runningTicketId] = currentTicket */\n      dup2\n      swap1\n      mstore\n      pop\n        /* \"smart-contracts/StekcitBM.sol\":9276:9293  runningTicketId++ */\n      dup4\n      dup1\n      tag_216\n      swap1\n      tag_217\n      jump\t// in\n    tag_216:\n      swap5\n      pop\n      pop\n        /* \"smart-contracts/StekcitBM.sol\":9127:9308  if (currentTicket.attendingUserWalletAddress == _walletAddress) {... */\n    tag_213:\n      pop\n        /* \"smart-contracts/StekcitBM.sol\":9014:9024  ticketId++ */\n      dup1\n      tag_218\n      dup2\n      tag_217\n      jump\t// in\n    tag_218:\n      swap2\n      pop\n      pop\n        /* \"smart-contracts/StekcitBM.sol\":8913:9318  for (... */\n      jump(tag_206)\n    tag_207:\n      pop\n        /* \"smart-contracts/StekcitBM.sol\":9335:9351  allTicketsOfUser */\n      swap4\n        /* \"smart-contracts/StekcitBM.sol\":8604:9358  function getAllTicketsOfUser(address _walletAddress)... */\n      swap3\n      pop\n      pop\n      pop\n      jump\t// out\n        /* \"smart-contracts/StekcitBM.sol\":6610:7435  function getAllTicketsOfEvent(uint256 _eventId)... */\n    tag_57:\n        /* \"smart-contracts/StekcitBM.sol\":6703:6725  StekcitTicket[] memory */\n      0x60\n        /* \"smart-contracts/StekcitBM.sol\":6741:6764  uint256 runningTicketId */\n      0x00\n        /* \"smart-contracts/StekcitBM.sol\":6779:6814  uint256 totalNumberOfTicketsOfEvent */\n      dup1\n        /* \"smart-contracts/StekcitBM.sol\":6817:6874  getNumberOfTicketsOfEvent(... */\n      tag_220\n        /* \"smart-contracts/StekcitBM.sol\":6856:6864  _eventId */\n      dup5\n        /* \"smart-contracts/StekcitBM.sol\":6817:6842  getNumberOfTicketsOfEvent */\n      tag_109\n        /* \"smart-contracts/StekcitBM.sol\":6817:6874  getNumberOfTicketsOfEvent(... */\n      jump\t// in\n    tag_220:\n        /* \"smart-contracts/StekcitBM.sol\":6779:6874  uint256 totalNumberOfTicketsOfEvent = getNumberOfTicketsOfEvent(... */\n      swap1\n      pop\n        /* \"smart-contracts/StekcitBM.sol\":6885:6925  StekcitTicket[] memory allTicketsOfEvent */\n      0x00\n        /* \"smart-contracts/StekcitBM.sol\":6961:6988  totalNumberOfTicketsOfEvent */\n      dup2\n        /* \"smart-contracts/StekcitBM.sol\":6928:6998  new StekcitTicket[](... */\n      0xffffffffffffffff\n      dup2\n      gt\n      iszero\n      tag_222\n      jumpi\n      tag_222\n      tag_201\n      jump\t// in\n    tag_222:\n      mload(0x40)\n      swap1\n      dup1\n      dup3\n      mstore\n      dup1\n      0x20\n      mul\n      0x20\n      add\n      dup3\n      add\n      0x40\n      mstore\n      dup1\n      iszero\n      tag_223\n      jumpi\n      dup2\n      0x20\n      add\n    tag_224:\n      tag_225\n      tag_205\n      jump\t// in\n    tag_225:\n      dup2\n      mstore\n      0x20\n      add\n      swap1\n      0x01\n      swap1\n      sub\n      swap1\n      dup2\n      tag_224\n      jumpi\n      swap1\n      pop\n    tag_223:\n      pop\n        /* \"smart-contracts/StekcitBM.sol\":6885:6998  StekcitTicket[] memory allTicketsOfEvent = new StekcitTicket[](... */\n      swap1\n      pop\n        /* \"smart-contracts/StekcitBM.sol\":7027:7043  uint256 ticketId */\n      0x00\n        /* \"smart-contracts/StekcitBM.sol\":7009:7394  for (... */\n    tag_226:\n        /* \"smart-contracts/StekcitBM.sol\":7072:7099  totalNumberOfTicketsOfEvent */\n      dup3\n        /* \"smart-contracts/StekcitBM.sol\":7061:7069  ticketId */\n      dup2\n        /* \"smart-contracts/StekcitBM.sol\":7061:7099  ticketId < totalNumberOfTicketsOfEvent */\n      lt\n        /* \"smart-contracts/StekcitBM.sol\":7009:7394  for (... */\n      iszero\n      tag_227\n      jumpi\n        /* \"smart-contracts/StekcitBM.sol\":7148:7182  StekcitTicket memory currentTicket */\n      0x00\n        /* \"smart-contracts/StekcitBM.sol\":7185:7202  allStekcitTickets */\n      0x02\n        /* \"smart-contracts/StekcitBM.sol\":7203:7211  ticketId */\n      dup3\n        /* \"smart-contracts/StekcitBM.sol\":7185:7212  allStekcitTickets[ticketId] */\n      dup2\n      sload\n      dup2\n      lt\n      tag_230\n      jumpi\n      tag_230\n      tag_211\n      jump\t// in\n    tag_230:\n      0x00\n      swap2\n      dup3\n      mstore\n      0x20\n      swap2\n      dup3\n      swap1\n      keccak256\n        /* \"smart-contracts/StekcitBM.sol\":7148:7212  StekcitTicket memory currentTicket = allStekcitTickets[ticketId] */\n      0x40\n      dup1\n      mload\n      0x80\n      dup2\n      add\n      dup3\n      mstore\n        /* \"smart-contracts/StekcitBM.sol\":7185:7212  allStekcitTickets[ticketId] */\n      0x04\n      swap1\n      swap4\n      mul\n      swap1\n      swap2\n      add\n        /* \"smart-contracts/StekcitBM.sol\":7148:7212  StekcitTicket memory currentTicket = allStekcitTickets[ticketId] */\n      dup1\n      sload\n      dup4\n      mstore\n      0x01\n      dup2\n      add\n      sload\n      swap4\n      dup4\n      add\n      dup5\n      swap1\n      mstore\n      0x02\n      dup2\n      add\n      sload\n      sub(shl(0xa0, 0x01), 0x01)\n      and\n      swap2\n      dup4\n      add\n      swap2\n      swap1\n      swap2\n      mstore\n      0x03\n      add\n      sload\n      0x60\n      dup3\n      add\n      mstore\n      swap2\n      pop\n        /* \"smart-contracts/StekcitBM.sol\":7231:7264  currentTicket.eventId == _eventId */\n      dup8\n      eq\n        /* \"smart-contracts/StekcitBM.sol\":7227:7384  if (currentTicket.eventId == _eventId) {... */\n      iszero\n      tag_232\n      jumpi\n        /* \"smart-contracts/StekcitBM.sol\":7321:7334  currentTicket */\n      dup1\n        /* \"smart-contracts/StekcitBM.sol\":7284:7301  allTicketsOfEvent */\n      dup4\n        /* \"smart-contracts/StekcitBM.sol\":7302:7317  runningTicketId */\n      dup7\n        /* \"smart-contracts/StekcitBM.sol\":7284:7318  allTicketsOfEvent[runningTicketId] */\n      dup2\n      mload\n      dup2\n      lt\n      tag_234\n      jumpi\n      tag_234\n      tag_211\n      jump\t// in\n    tag_234:\n      0x20\n      mul\n      0x20\n      add\n      add\n        /* \"smart-contracts/StekcitBM.sol\":7284:7334  allTicketsOfEvent[runningTicketId] = currentTicket */\n      dup2\n      swap1\n      mstore\n      pop\n        /* \"smart-contracts/StekcitBM.sol\":7352:7369  runningTicketId++ */\n      dup5\n      dup1\n      tag_235\n      swap1\n      tag_217\n      jump\t// in\n    tag_235:\n      swap6\n      pop\n      pop\n        /* \"smart-contracts/StekcitBM.sol\":7227:7384  if (currentTicket.eventId == _eventId) {... */\n    tag_232:\n      pop\n        /* \"smart-contracts/StekcitBM.sol\":7113:7123  ticketId++ */\n      dup1\n      tag_236\n      dup2\n      tag_217\n      jump\t// in\n    tag_236:\n      swap2\n      pop\n      pop\n        /* \"smart-contracts/StekcitBM.sol\":7009:7394  for (... */\n      jump(tag_226)\n    tag_227:\n      pop\n        /* \"smart-contracts/StekcitBM.sol\":7411:7428  allTicketsOfEvent */\n      swap5\n        /* \"smart-contracts/StekcitBM.sol\":6610:7435  function getAllTicketsOfEvent(uint256 _eventId)... */\n      swap4\n      pop\n      pop\n      pop\n      pop\n      jump\t// out\n        /* \"smart-contracts/StekcitBM.sol\":13755:14248  function checkIfEventIsAlreadyPaidOut(uint256 _eventId)... */\n    tag_61:\n        /* \"smart-contracts/StekcitBM.sol\":13891:13895  bool */\n      0x00\n        /* \"smart-contracts/StekcitBM.sol\":13864:13872  _eventId */\n      dup2\n        /* \"smart-contracts/StekcitBM.sol\":858:912  checkIfUserisCreatingUserOfEvent(_eventId, msg.sender) */\n      tag_238\n        /* \"smart-contracts/StekcitBM.sol\":891:899  _eventId */\n      dup2\n        /* \"smart-contracts/StekcitBM.sol\":901:911  msg.sender */\n      caller\n        /* \"smart-contracts/StekcitBM.sol\":858:890  checkIfUserisCreatingUserOfEvent */\n      tag_118\n        /* \"smart-contracts/StekcitBM.sol\":858:912  checkIfUserisCreatingUserOfEvent(_eventId, msg.sender) */\n      jump\t// in\n    tag_238:\n        /* \"smart-contracts/StekcitBM.sol\":837:983  require(... */\n      tag_239\n      jumpi\n      mload(0x40)\n      shl(0xe5, 0x461bcd)\n      dup2\n      mstore\n      0x04\n      add\n      tag_240\n      swap1\n      tag_241\n      jump\t// in\n    tag_240:\n      mload(0x40)\n      dup1\n      swap2\n      sub\n      swap1\n      revert\n    tag_239:\n        /* \"smart-contracts/StekcitBM.sol\":13929:13945  uint256 payoutId */\n      0x00\n        /* \"smart-contracts/StekcitBM.sol\":13911:14219  for (... */\n    tag_243:\n        /* \"smart-contracts/StekcitBM.sol\":13974:13991  allStekcitPayouts */\n      0x03\n        /* \"smart-contracts/StekcitBM.sol\":13974:13998  allStekcitPayouts.length */\n      sload\n        /* \"smart-contracts/StekcitBM.sol\":13963:13998  payoutId < allStekcitPayouts.length */\n      dup2\n      lt\n        /* \"smart-contracts/StekcitBM.sol\":13911:14219  for (... */\n      iszero\n      tag_244\n      jumpi\n        /* \"smart-contracts/StekcitBM.sol\":14047:14081  StekcitPayout memory currentPayout */\n      0x00\n        /* \"smart-contracts/StekcitBM.sol\":14084:14101  allStekcitPayouts */\n      0x03\n        /* \"smart-contracts/StekcitBM.sol\":14102:14110  payoutId */\n      dup3\n        /* \"smart-contracts/StekcitBM.sol\":14084:14111  allStekcitPayouts[payoutId] */\n      dup2\n      sload\n      dup2\n      lt\n      tag_247\n      jumpi\n      tag_247\n      tag_211\n      jump\t// in\n    tag_247:\n      0x00\n      swap2\n      dup3\n      mstore\n      0x20\n      swap2\n      dup3\n      swap1\n      keccak256\n        /* \"smart-contracts/StekcitBM.sol\":14047:14111  StekcitPayout memory currentPayout = allStekcitPayouts[payoutId] */\n      0x40\n      dup1\n      mload\n      0xc0\n      dup2\n      add\n      dup3\n      mstore\n        /* \"smart-contracts/StekcitBM.sol\":14084:14111  allStekcitPayouts[payoutId] */\n      0x06\n      swap1\n      swap4\n      mul\n      swap1\n      swap2\n      add\n        /* \"smart-contracts/StekcitBM.sol\":14047:14111  StekcitPayout memory currentPayout = allStekcitPayouts[payoutId] */\n      dup1\n      sload\n      dup4\n      mstore\n      0x01\n      dup2\n      add\n      sload\n      swap4\n      dup4\n      add\n      dup5\n      swap1\n      mstore\n      0x02\n      dup2\n      add\n      sload\n      sub(shl(0xa0, 0x01), 0x01)\n      and\n      swap2\n      dup4\n      add\n      swap2\n      swap1\n      swap2\n      mstore\n      0x03\n      dup2\n      add\n      sload\n      0x60\n      dup4\n      add\n      mstore\n      0x04\n      dup2\n      add\n      sload\n      0x80\n      dup4\n      add\n      mstore\n      0x05\n      add\n      sload\n      0xff\n      and\n      iszero\n      iszero\n      0xa0\n      dup3\n      add\n      mstore\n      swap2\n      pop\n        /* \"smart-contracts/StekcitBM.sol\":14130:14163  currentPayout.eventId == _eventId */\n      dup6\n      eq\n        /* \"smart-contracts/StekcitBM.sol\":14126:14209  if (currentPayout.eventId == _eventId) {... */\n      iszero\n      tag_249\n      jumpi\n        /* \"smart-contracts/StekcitBM.sol\":14190:14194  true */\n      0x01\n        /* \"smart-contracts/StekcitBM.sol\":14183:14194  return true */\n      swap4\n      pop\n      pop\n      pop\n      jump(tag_242)\n        /* \"smart-contracts/StekcitBM.sol\":14126:14209  if (currentPayout.eventId == _eventId) {... */\n    tag_249:\n      pop\n        /* \"smart-contracts/StekcitBM.sol\":14012:14022  payoutId++ */\n      dup1\n      tag_250\n      dup2\n      tag_217\n      jump\t// in\n    tag_250:\n      swap2\n      pop\n      pop\n        /* \"smart-contracts/StekcitBM.sol\":13911:14219  for (... */\n      jump(tag_243)\n    tag_244:\n      pop\n        /* \"smart-contracts/StekcitBM.sol\":14236:14241  false */\n      0x00\n        /* \"smart-contracts/StekcitBM.sol\":14229:14241  return false */\n      swap2\n      pop\n        /* \"smart-contracts/StekcitBM.sol\":993:994  _ */\n    tag_242:\n        /* \"smart-contracts/StekcitBM.sol\":13755:14248  function checkIfEventIsAlreadyPaidOut(uint256 _eventId)... */\n      pop\n      swap2\n      swap1\n      pop\n      jump\t// out\n        /* \"smart-contracts/StekcitBM.sol\":10362:11349  function createEvent(... */\n    tag_67:\n        /* \"smart-contracts/StekcitBM.sol\":10631:10650  StekcitEvent memory */\n      tag_251\n      tag_252\n      jump\t// in\n    tag_251:\n        /* \"smart-contracts/StekcitBM.sol\":10683:10697  currentEventId */\n      sload(0x06)\n        /* \"smart-contracts/StekcitBM.sol\":10833:11263  StekcitEvent(... */\n      0x40\n      dup1\n      mload\n      0x01e0\n      dup2\n      add\n      dup3\n      mstore\n      dup3\n      dup2\n      mstore\n      sub(shl(0xa0, 0x01), 0x01)\n      dup12\n      dup2\n      and\n      0x20\n      dup1\n      dup5\n      add\n      swap2\n      dup3\n      mstore\n      swap4\n      dup4\n      add\n      dup13\n      dup2\n      mstore\n      0x60\n      dup5\n      add\n      dup13\n      swap1\n      mstore\n      0x80\n      dup5\n      add\n      dup12\n      swap1\n      mstore\n      0xa0\n      dup5\n      add\n      dup11\n      swap1\n      mstore\n        /* \"smart-contracts/StekcitBM.sol\":10727:10742  block.timestamp */\n      timestamp\n        /* \"smart-contracts/StekcitBM.sol\":10833:11263  StekcitEvent(... */\n      0xc0\n      dup6\n      add\n      dup2\n      swap1\n      mstore\n      0xe0\n      dup6\n      add\n      dup2\n      swap1\n      mstore\n      0x0100\n      dup6\n      add\n      dup11\n      swap1\n      mstore\n      0x00\n      0x0120\n      dup7\n      add\n      dup2\n      swap1\n      mstore\n      dup10\n      iszero\n      iszero\n      0x0140\n      dup8\n      add\n      mstore\n      0x0160\n      dup7\n      add\n      dup2\n      swap1\n      mstore\n      0x0180\n      dup7\n      add\n      dup2\n      swap1\n      mstore\n      0x01a0\n      dup7\n      add\n      dup2\n      swap1\n      mstore\n      0x01c0\n      dup7\n      add\n      dup2\n      swap1\n      mstore\n        /* \"smart-contracts/StekcitBM.sol\":10798:10814  allStekcitEvents */\n      0x01\n        /* \"smart-contracts/StekcitBM.sol\":10798:11273  allStekcitEvents.push(... */\n      dup1\n      sload\n      dup1\n      dup3\n      add\n      dup3\n      sstore\n      swap2\n      mstore\n      dup6\n      mload\n      0xb10e2d527612073b26eecdfd717e6a320cf44b4afac2b0732d9fcbe2b7fa0cf6\n      0x0c\n      swap1\n      swap3\n      mul\n      swap2\n      dup3\n      add\n      swap1\n      dup2\n      sstore\n      swap4\n      mload\n      0xb10e2d527612073b26eecdfd717e6a320cf44b4afac2b0732d9fcbe2b7fa0cf7\n      dup3\n      add\n      dup1\n      sload\n      not(sub(shl(0xa0, 0x01), 0x01))\n      and\n      swap2\n      swap1\n      swap7\n      and\n      or\n      swap1\n      swap5\n      sstore\n      swap1\n      mload\n      dup1\n      mload\n        /* \"smart-contracts/StekcitBM.sol\":10727:10742  block.timestamp */\n      swap2\n      swap6\n      dup7\n      swap6\n        /* \"smart-contracts/StekcitBM.sol\":10833:11263  StekcitEvent(... */\n      swap5\n        /* \"smart-contracts/StekcitBM.sol\":10798:11273  allStekcitEvents.push(... */\n      tag_255\n      swap4\n      0xb10e2d527612073b26eecdfd717e6a320cf44b4afac2b0732d9fcbe2b7fa0cf8\n      swap1\n      swap2\n      add\n      swap3\n      swap1\n      swap2\n      add\n      swap1\n      tag_256\n      jump\t// in\n    tag_255:\n      pop\n      0x60\n      dup3\n      add\n      mload\n      dup1\n      mload\n      tag_257\n      swap2\n      0x03\n      dup5\n      add\n      swap2\n      0x20\n      swap1\n      swap2\n      add\n      swap1\n      tag_256\n      jump\t// in\n    tag_257:\n      pop\n      0x80\n      dup3\n      add\n      mload\n      dup1\n      mload\n      tag_258\n      swap2\n      0x04\n      dup5\n      add\n      swap2\n      0x20\n      swap1\n      swap2\n      add\n      swap1\n      tag_256\n      jump\t// in\n    tag_258:\n      pop\n      0xa0\n      dup3\n      add\n      mload\n      0x05\n      dup3\n      add\n      sstore\n      0xc0\n      dup3\n      add\n      mload\n      0x06\n      dup1\n      dup4\n      add\n      swap2\n      swap1\n      swap2\n      sstore\n      0xe0\n      dup4\n      add\n      mload\n      0x07\n      dup4\n      add\n      sstore\n      0x0100\n      dup1\n      dup5\n      add\n      mload\n      0x08\n      dup5\n      add\n      sstore\n      0x0120\n      dup5\n      add\n      mload\n      0x09\n      dup5\n      add\n      dup1\n      sload\n      0x0140\n      dup8\n      add\n      mload\n      0x0160\n      dup9\n      add\n      mload\n      iszero\n      iszero\n      0x010000\n      mul\n      not(0xff0000)\n      swap2\n      iszero\n      iszero\n      dup7\n      mul\n      not(0xff00)\n      swap6\n      iszero\n      iszero\n      dup7\n      and\n      not(0xffff)\n      swap5\n      dup6\n      and\n      or\n      or\n      swap2\n      swap1\n      swap2\n      and\n      or\n      swap1\n      swap2\n      sstore\n      0x0180\n      dup7\n      add\n      mload\n      0x0a\n      dup7\n      add\n      sstore\n      0x01a0\n      dup7\n      add\n      mload\n      0x0b\n      swap1\n      swap6\n      add\n      dup1\n      sload\n      0x01c0\n      swap1\n      swap8\n      add\n      mload\n      iszero\n      iszero\n      swap1\n      swap4\n      mul\n      swap5\n      iszero\n      iszero\n      swap1\n      swap2\n      and\n      swap5\n      and\n      swap4\n      swap1\n      swap4\n      or\n      swap2\n      swap1\n      swap2\n      or\n      swap1\n      swap2\n      sstore\n        /* \"smart-contracts/StekcitBM.sol\":11284:11300  currentEventId++ */\n      dup1\n      sload\n      swap1\n      0x00\n      tag_259\n      dup4\n      tag_217\n      jump\t// in\n    tag_259:\n      swap2\n      swap1\n      pop\n      sstore\n      pop\n        /* \"smart-contracts/StekcitBM.sol\":11318:11342  getEventById(newEventId) */\n      tag_260\n        /* \"smart-contracts/StekcitBM.sol\":11331:11341  newEventId */\n      dup4\n        /* \"smart-contracts/StekcitBM.sol\":11318:11330  getEventById */\n      tag_147\n        /* \"smart-contracts/StekcitBM.sol\":11318:11342  getEventById(newEventId) */\n      jump\t// in\n    tag_260:\n        /* \"smart-contracts/StekcitBM.sol\":11311:11342  return getEventById(newEventId) */\n      swap12\n        /* \"smart-contracts/StekcitBM.sol\":10362:11349  function createEvent(... */\n      swap11\n      pop\n      pop\n      pop\n      pop\n      pop\n      pop\n      pop\n      pop\n      pop\n      pop\n      pop\n      jump\t// out\n        /* \"smart-contracts/StekcitBM.sol\":12711:13223  function createTicketForUser(... */\n    tag_73:\n        /* \"smart-contracts/StekcitBM.sol\":12862:12882  StekcitTicket memory */\n      tag_261\n      tag_205\n      jump\t// in\n    tag_261:\n        /* \"smart-contracts/StekcitBM.sol\":12916:12931  currentTicketId */\n      0x07\n      dup1\n      sload\n        /* \"smart-contracts/StekcitBM.sol\":12978:13134  StekcitTicket(... */\n      0x40\n      dup1\n      mload\n      0x80\n      dup2\n      add\n      dup3\n      mstore\n      dup3\n      dup2\n      mstore\n      0x20\n      dup2\n      add\n      dup9\n      dup2\n      mstore\n      sub(shl(0xa0, 0x01), 0x01)\n      dup9\n      dup2\n      and\n      swap4\n      dup4\n      add\n      swap4\n      dup5\n      mstore\n      0x60\n      dup4\n      add\n      dup9\n      dup2\n      mstore\n        /* \"smart-contracts/StekcitBM.sol\":12942:12959  allStekcitTickets */\n      0x02\n        /* \"smart-contracts/StekcitBM.sol\":12942:13144  allStekcitTickets.push(... */\n      dup1\n      sload\n      0x01\n      dup2\n      add\n      dup3\n      sstore\n      0x00\n      swap2\n      dup3\n      mstore\n      swap5\n      mload\n      0x405787fa12a823e0f2b7631cc41b3ba8828b3321ca811111fa75cd3aa3bb5ace\n      0x04\n      swap1\n      swap7\n      mul\n      swap6\n      dup7\n      add\n      sstore\n      swap3\n      mload\n      0x405787fa12a823e0f2b7631cc41b3ba8828b3321ca811111fa75cd3aa3bb5acf\n      dup6\n      add\n      sstore\n      swap4\n      mload\n      0x405787fa12a823e0f2b7631cc41b3ba8828b3321ca811111fa75cd3aa3bb5ad0\n      dup5\n      add\n      dup1\n      sload\n      not(sub(shl(0xa0, 0x01), 0x01))\n      and\n      swap2\n      swap1\n      swap3\n      and\n      or\n      swap1\n      sstore\n      swap2\n      mload\n      0x405787fa12a823e0f2b7631cc41b3ba8828b3321ca811111fa75cd3aa3bb5ad1\n      swap1\n      swap2\n      add\n      sstore\n        /* \"smart-contracts/StekcitBM.sol\":13155:13172  currentTicketId++ */\n      dup3\n      sload\n        /* \"smart-contracts/StekcitBM.sol\":12916:12931  currentTicketId */\n      swap2\n      swap3\n      swap1\n        /* \"smart-contracts/StekcitBM.sol\":13155:13172  currentTicketId++ */\n      tag_264\n      dup4\n      tag_217\n      jump\t// in\n    tag_264:\n      swap2\n      swap1\n      pop\n      sstore\n      pop\n        /* \"smart-contracts/StekcitBM.sol\":13190:13216  getTicketById(newTicketId) */\n      tag_265\n        /* \"smart-contracts/StekcitBM.sol\":13204:13215  newTicketId */\n      dup2\n        /* \"smart-contracts/StekcitBM.sol\":13190:13203  getTicketById */\n      tag_78\n        /* \"smart-contracts/StekcitBM.sol\":13190:13216  getTicketById(newTicketId) */\n      jump\t// in\n    tag_265:\n        /* \"smart-contracts/StekcitBM.sol\":13183:13216  return getTicketById(newTicketId) */\n      swap2\n      pop\n      pop\n        /* \"smart-contracts/StekcitBM.sol\":12711:13223  function createTicketForUser(... */\n    tag_262:\n      swap4\n      swap3\n      pop\n      pop\n      pop\n      jump\t// out\n        /* \"smart-contracts/StekcitBM.sol\":11355:11520  function getTicketById(uint256 _ticketId)... */\n    tag_78:\n        /* \"smart-contracts/StekcitBM.sol\":11442:11462  StekcitTicket memory */\n      tag_266\n      tag_205\n      jump\t// in\n    tag_266:\n        /* \"smart-contracts/StekcitBM.sol\":11485:11502  allStekcitTickets */\n      0x02\n        /* \"smart-contracts/StekcitBM.sol\":11503:11512  _ticketId */\n      dup3\n        /* \"smart-contracts/StekcitBM.sol\":11485:11513  allStekcitTickets[_ticketId] */\n      dup2\n      sload\n      dup2\n      lt\n      tag_269\n      jumpi\n      tag_269\n      tag_211\n      jump\t// in\n    tag_269:\n      0x00\n      swap2\n      dup3\n      mstore\n      0x20\n      swap2\n      dup3\n      swap1\n      keccak256\n        /* \"smart-contracts/StekcitBM.sol\":11478:11513  return allStekcitTickets[_ticketId] */\n      0x40\n      dup1\n      mload\n      0x80\n      dup2\n      add\n      dup3\n      mstore\n        /* \"smart-contracts/StekcitBM.sol\":11485:11513  allStekcitTickets[_ticketId] */\n      0x04\n      swap1\n      swap4\n      mul\n      swap1\n      swap2\n      add\n        /* \"smart-contracts/StekcitBM.sol\":11478:11513  return allStekcitTickets[_ticketId] */\n      dup1\n      sload\n      dup4\n      mstore\n      0x01\n      dup2\n      add\n      sload\n      swap4\n      dup4\n      add\n      swap4\n      swap1\n      swap4\n      mstore\n      0x02\n      dup4\n      add\n      sload\n      sub(shl(0xa0, 0x01), 0x01)\n      and\n      swap1\n      dup3\n      add\n      mstore\n      0x03\n      swap1\n      swap2\n      add\n      sload\n      0x60\n      dup3\n      add\n      mstore\n      swap3\n        /* \"smart-contracts/StekcitBM.sol\":11355:11520  function getTicketById(uint256 _ticketId)... */\n      swap2\n      pop\n      pop\n      jump\t// out\n        /* \"smart-contracts/StekcitBM.sol\":5380:6072  function getAllEventsCreatedByUser(address _walletAddress)... */\n    tag_82:\n        /* \"smart-contracts/StekcitBM.sol\":5484:5505  StekcitEvent[] memory */\n      0x60\n        /* \"smart-contracts/StekcitBM.sol\":5521:5563  StekcitEvent[] memory eventsOfCreatingUser */\n      0x00\n        /* \"smart-contracts/StekcitBM.sol\":5598:5652  getTotalNumberOfAllEventsCreatedByUser(_walletAddress) */\n      tag_272\n        /* \"smart-contracts/StekcitBM.sol\":5637:5651  _walletAddress */\n      dup4\n        /* \"smart-contracts/StekcitBM.sol\":5598:5636  getTotalNumberOfAllEventsCreatedByUser */\n      tag_156\n        /* \"smart-contracts/StekcitBM.sol\":5598:5652  getTotalNumberOfAllEventsCreatedByUser(_walletAddress) */\n      jump\t// in\n    tag_272:\n        /* \"smart-contracts/StekcitBM.sol\":5566:5662  new StekcitEvent[](... */\n      0xffffffffffffffff\n      dup2\n      gt\n      iszero\n      tag_274\n      jumpi\n      tag_274\n      tag_201\n      jump\t// in\n    tag_274:\n      mload(0x40)\n      swap1\n      dup1\n      dup3\n      mstore\n      dup1\n      0x20\n      mul\n      0x20\n      add\n      dup3\n      add\n      0x40\n      mstore\n      dup1\n      iszero\n      tag_275\n      jumpi\n      dup2\n      0x20\n      add\n    tag_276:\n      tag_277\n      tag_252\n      jump\t// in\n    tag_277:\n      dup2\n      mstore\n      0x20\n      add\n      swap1\n      0x01\n      swap1\n      sub\n      swap1\n      dup2\n      tag_276\n      jumpi\n      swap1\n      pop\n    tag_275:\n      pop\n        /* \"smart-contracts/StekcitBM.sol\":5521:5662  StekcitEvent[] memory eventsOfCreatingUser = new StekcitEvent[](... */\n      swap1\n      pop\n        /* \"smart-contracts/StekcitBM.sol\":5691:5706  uint256 eventId */\n      0x00\n        /* \"smart-contracts/StekcitBM.sol\":5673:6028  for (... */\n    tag_278:\n        /* \"smart-contracts/StekcitBM.sol\":5734:5750  allStekcitEvents */\n      0x01\n        /* \"smart-contracts/StekcitBM.sol\":5734:5757  allStekcitEvents.length */\n      sload\n        /* \"smart-contracts/StekcitBM.sol\":5724:5757  eventId < allStekcitEvents.length */\n      dup2\n      lt\n        /* \"smart-contracts/StekcitBM.sol\":5673:6028  for (... */\n      iszero\n      tag_279\n      jumpi\n        /* \"smart-contracts/StekcitBM.sol\":5805:5837  StekcitEvent memory currentEvent */\n      0x00\n        /* \"smart-contracts/StekcitBM.sol\":5840:5856  allStekcitEvents */\n      0x01\n        /* \"smart-contracts/StekcitBM.sol\":5857:5864  eventId */\n      dup3\n        /* \"smart-contracts/StekcitBM.sol\":5840:5865  allStekcitEvents[eventId] */\n      dup2\n      sload\n      dup2\n      lt\n      tag_282\n      jumpi\n      tag_282\n      tag_211\n      jump\t// in\n    tag_282:\n      swap1\n      0x00\n      mstore\n      keccak256(0x00, 0x20)\n      swap1\n      0x0c\n      mul\n      add\n        /* \"smart-contracts/StekcitBM.sol\":5805:5865  StekcitEvent memory currentEvent = allStekcitEvents[eventId] */\n      mload(0x40)\n      dup1\n      0x01e0\n      add\n      0x40\n      mstore\n      swap1\n      dup2\n      0x00\n      dup3\n      add\n      sload\n      dup2\n      mstore\n      0x20\n      add\n      0x01\n      dup3\n      add\n      0x00\n      swap1\n      sload\n      swap1\n      0x0100\n      exp\n      swap1\n      div\n      sub(shl(0xa0, 0x01), 0x01)\n      and\n      sub(shl(0xa0, 0x01), 0x01)\n      and\n      sub(shl(0xa0, 0x01), 0x01)\n      and\n      dup2\n      mstore\n      0x20\n      add\n      0x02\n      dup3\n      add\n      dup1\n      sload\n      tag_284\n      swap1\n      tag_285\n      jump\t// in\n    tag_284:\n      dup1\n      0x1f\n      add\n      0x20\n      dup1\n      swap2\n      div\n      mul\n      0x20\n      add\n      mload(0x40)\n      swap1\n      dup2\n      add\n      0x40\n      mstore\n      dup1\n      swap3\n      swap2\n      swap1\n      dup2\n      dup2\n      mstore\n      0x20\n      add\n      dup3\n      dup1\n      sload\n      tag_286\n      swap1\n      tag_285\n      jump\t// in\n    tag_286:\n      dup1\n      iszero\n      tag_287\n      jumpi\n      dup1\n      0x1f\n      lt\n      tag_288\n      jumpi\n      0x0100\n      dup1\n      dup4\n      sload\n      div\n      mul\n      dup4\n      mstore\n      swap2\n      0x20\n      add\n      swap2\n      jump(tag_287)\n    tag_288:\n      dup3\n      add\n      swap2\n      swap1\n      0x00\n      mstore\n      keccak256(0x00, 0x20)\n      swap1\n    tag_289:\n      dup2\n      sload\n      dup2\n      mstore\n      swap1\n      0x01\n      add\n      swap1\n      0x20\n      add\n      dup1\n      dup4\n      gt\n      tag_289\n      jumpi\n      dup3\n      swap1\n      sub\n      0x1f\n      and\n      dup3\n      add\n      swap2\n    tag_287:\n      pop\n      pop\n      pop\n      pop\n      pop\n      dup2\n      mstore\n      0x20\n      add\n      0x03\n      dup3\n      add\n      dup1\n      sload\n      tag_290\n      swap1\n      tag_285\n      jump\t// in\n    tag_290:\n      dup1\n      0x1f\n      add\n      0x20\n      dup1\n      swap2\n      div\n      mul\n      0x20\n      add\n      mload(0x40)\n      swap1\n      dup2\n      add\n      0x40\n      mstore\n      dup1\n      swap3\n      swap2\n      swap1\n      dup2\n      dup2\n      mstore\n      0x20\n      add\n      dup3\n      dup1\n      sload\n      tag_291\n      swap1\n      tag_285\n      jump\t// in\n    tag_291:\n      dup1\n      iszero\n      tag_292\n      jumpi\n      dup1\n      0x1f\n      lt\n      tag_293\n      jumpi\n      0x0100\n      dup1\n      dup4\n      sload\n      div\n      mul\n      dup4\n      mstore\n      swap2\n      0x20\n      add\n      swap2\n      jump(tag_292)\n    tag_293:\n      dup3\n      add\n      swap2\n      swap1\n      0x00\n      mstore\n      keccak256(0x00, 0x20)\n      swap1\n    tag_294:\n      dup2\n      sload\n      dup2\n      mstore\n      swap1\n      0x01\n      add\n      swap1\n      0x20\n      add\n      dup1\n      dup4\n      gt\n      tag_294\n      jumpi\n      dup3\n      swap1\n      sub\n      0x1f\n      and\n      dup3\n      add\n      swap2\n    tag_292:\n      pop\n      pop\n      pop\n      pop\n      pop\n      dup2\n      mstore\n      0x20\n      add\n      0x04\n      dup3\n      add\n      dup1\n      sload\n      tag_295\n      swap1\n      tag_285\n      jump\t// in\n    tag_295:\n      dup1\n      0x1f\n      add\n      0x20\n      dup1\n      swap2\n      div\n      mul\n      0x20\n      add\n      mload(0x40)\n      swap1\n      dup2\n      add\n      0x40\n      mstore\n      dup1\n      swap3\n      swap2\n      swap1\n      dup2\n      dup2\n      mstore\n      0x20\n      add\n      dup3\n      dup1\n      sload\n      tag_296\n      swap1\n      tag_285\n      jump\t// in\n    tag_296:\n      dup1\n      iszero\n      tag_297\n      jumpi\n      dup1\n      0x1f\n      lt\n      tag_298\n      jumpi\n      0x0100\n      dup1\n      dup4\n      sload\n      div\n      mul\n      dup4\n      mstore\n      swap2\n      0x20\n      add\n      swap2\n      jump(tag_297)\n    tag_298:\n      dup3\n      add\n      swap2\n      swap1\n      0x00\n      mstore\n      keccak256(0x00, 0x20)\n      swap1\n    tag_299:\n      dup2\n      sload\n      dup2\n      mstore\n      swap1\n      0x01\n      add\n      swap1\n      0x20\n      add\n      dup1\n      dup4\n      gt\n      tag_299\n      jumpi\n      dup3\n      swap1\n      sub\n      0x1f\n      and\n      dup3\n      add\n      swap2\n    tag_297:\n      pop\n      pop\n      pop\n      swap2\n      dup4\n      mstore\n      pop\n      pop\n      0x05\n      dup3\n      add\n      sload\n      0x20\n      dup1\n      dup4\n      add\n      swap2\n      swap1\n      swap2\n      mstore\n      0x06\n      dup4\n      add\n      sload\n      0x40\n      dup4\n      add\n      mstore\n      0x07\n      dup4\n      add\n      sload\n      0x60\n      dup4\n      add\n      mstore\n      0x08\n      dup4\n      add\n      sload\n      0x80\n      dup4\n      add\n      mstore\n      0x09\n      dup4\n      add\n      sload\n      0xff\n      dup1\n      dup3\n      and\n      iszero\n      iszero\n      0xa0\n      dup6\n      add\n      mstore\n      0x0100\n      dup1\n      dup4\n      div\n      dup3\n      and\n      iszero\n      iszero\n      0xc0\n      dup7\n      add\n      mstore\n      0x010000\n      swap1\n      swap3\n      div\n      dup2\n      and\n      iszero\n      iszero\n      0xe0\n      dup6\n      add\n      mstore\n      0x0a\n      dup6\n      add\n      sload\n      dup3\n      dup6\n      add\n      mstore\n      0x0b\n      swap1\n      swap5\n      add\n      sload\n      dup1\n      dup6\n      and\n      iszero\n      iszero\n      0x0120\n      dup6\n      add\n      mstore\n      div\n      swap1\n      swap3\n      and\n      iszero\n      iszero\n      0x0140\n      swap1\n      swap2\n      add\n      mstore\n        /* \"smart-contracts/StekcitBM.sol\":5883:5921  currentEvent.creatingUserWalletAddress */\n      dup2\n      add\n      mload\n      swap1\n      swap2\n      pop\n      sub(shl(0xa0, 0x01), 0x01)\n        /* \"smart-contracts/StekcitBM.sol\":5883:5939  currentEvent.creatingUserWalletAddress == _walletAddress */\n      dup7\n      dup2\n      and\n      swap2\n      and\n      eq\n        /* \"smart-contracts/StekcitBM.sol\":5879:6018  if (currentEvent.creatingUserWalletAddress == _walletAddress) {... */\n      iszero\n      tag_300\n      jumpi\n        /* \"smart-contracts/StekcitBM.sol\":5991:6003  currentEvent */\n      dup1\n        /* \"smart-contracts/StekcitBM.sol\":5959:5979  eventsOfCreatingUser */\n      dup4\n        /* \"smart-contracts/StekcitBM.sol\":5980:5987  eventId */\n      dup4\n        /* \"smart-contracts/StekcitBM.sol\":5959:5988  eventsOfCreatingUser[eventId] */\n      dup2\n      mload\n      dup2\n      lt\n      tag_302\n      jumpi\n      tag_302\n      tag_211\n      jump\t// in\n    tag_302:\n      0x20\n      mul\n      0x20\n      add\n      add\n        /* \"smart-contracts/StekcitBM.sol\":5959:6003  eventsOfCreatingUser[eventId] = currentEvent */\n      dup2\n      swap1\n      mstore\n      pop\n        /* \"smart-contracts/StekcitBM.sol\":5879:6018  if (currentEvent.creatingUserWalletAddress == _walletAddress) {... */\n    tag_300:\n      pop\n        /* \"smart-contracts/StekcitBM.sol\":5771:5780  eventId++ */\n      dup1\n      tag_303\n      dup2\n      tag_217\n      jump\t// in\n    tag_303:\n      swap2\n      pop\n      pop\n        /* \"smart-contracts/StekcitBM.sol\":5673:6028  for (... */\n      jump(tag_278)\n    tag_279:\n      pop\n        /* \"smart-contracts/StekcitBM.sol\":6045:6065  eventsOfCreatingUser */\n      swap3\n        /* \"smart-contracts/StekcitBM.sol\":5380:6072  function getAllEventsCreatedByUser(address _walletAddress)... */\n      swap2\n      pop\n      pop\n      jump\t// out\n        /* \"smart-contracts/StekcitBM.sol\":2017:2702  function createUser(... */\n    tag_88:\n        /* \"smart-contracts/StekcitBM.sol\":2161:2179  StekcitUser memory */\n      tag_304\n      tag_305\n      jump\t// in\n    tag_304:\n        /* \"smart-contracts/StekcitBM.sol\":2191:2206  bool userExists */\n      0x00\n        /* \"smart-contracts/StekcitBM.sol\":2209:2242  checkIfUserExists(_walletAddress) */\n      tag_307\n        /* \"smart-contracts/StekcitBM.sol\":2227:2241  _walletAddress */\n      dup6\n        /* \"smart-contracts/StekcitBM.sol\":2209:2226  checkIfUserExists */\n      tag_130\n        /* \"smart-contracts/StekcitBM.sol\":2209:2242  checkIfUserExists(_walletAddress) */\n      jump\t// in\n    tag_307:\n        /* \"smart-contracts/StekcitBM.sol\":2191:2242  bool userExists = checkIfUserExists(_walletAddress) */\n      swap1\n      pop\n        /* \"smart-contracts/StekcitBM.sol\":2257:2267  userExists */\n      dup1\n        /* \"smart-contracts/StekcitBM.sol\":2253:2339  if (userExists) {... */\n      iszero\n      tag_308\n      jumpi\n        /* \"smart-contracts/StekcitBM.sol\":2290:2328  getUserByWalletAddress(_walletAddress) */\n      tag_309\n        /* \"smart-contracts/StekcitBM.sol\":2313:2327  _walletAddress */\n      dup6\n        /* \"smart-contracts/StekcitBM.sol\":2290:2312  getUserByWalletAddress */\n      tag_138\n        /* \"smart-contracts/StekcitBM.sol\":2290:2328  getUserByWalletAddress(_walletAddress) */\n      jump\t// in\n    tag_309:\n        /* \"smart-contracts/StekcitBM.sol\":2283:2328  return getUserByWalletAddress(_walletAddress) */\n      swap2\n      pop\n      pop\n      jump(tag_262)\n        /* \"smart-contracts/StekcitBM.sol\":2253:2339  if (userExists) {... */\n    tag_308:\n        /* \"smart-contracts/StekcitBM.sol\":2369:2382  currentUserId */\n      0x05\n      dup1\n      sload\n        /* \"smart-contracts/StekcitBM.sol\":2427:2615  StekcitUser(... */\n      0x40\n      dup1\n      mload\n      0xc0\n      dup2\n      add\n      dup3\n      mstore\n      dup3\n      dup2\n      mstore\n      sub(shl(0xa0, 0x01), 0x01)\n      dup1\n      dup11\n      and\n      0x20\n      dup1\n      dup5\n      add\n      swap2\n      dup3\n      mstore\n      swap4\n      dup4\n      add\n      dup11\n      dup2\n      mstore\n      0x60\n      dup5\n      add\n      dup11\n      swap1\n      mstore\n        /* \"smart-contracts/StekcitBM.sol\":2349:2366  uint256 newUserId */\n      0x00\n        /* \"smart-contracts/StekcitBM.sol\":2427:2615  StekcitUser(... */\n      0x80\n      dup6\n      add\n      dup2\n      swap1\n      mstore\n      0xa0\n      dup6\n      add\n      dup2\n      swap1\n      mstore\n        /* \"smart-contracts/StekcitBM.sol\":2393:2625  allStekcitUsers.push(... */\n      dup1\n      sload\n        /* \"smart-contracts/StekcitBM.sol\":2427:2615  StekcitUser(... */\n      0x01\n        /* \"smart-contracts/StekcitBM.sol\":2393:2625  allStekcitUsers.push(... */\n      dup2\n      add\n      dup3\n      sstore\n      swap1\n      dup1\n      mstore\n      dup5\n      mload\n      swap8\n      mul\n      0x290decd9548b62a8d60345a988386fc84ba6bc95484008f6362f93160ef3e563\n      dup2\n      add\n      swap8\n      dup9\n      sstore\n      swap2\n      mload\n      0x290decd9548b62a8d60345a988386fc84ba6bc95484008f6362f93160ef3e564\n      dup4\n      add\n      dup1\n      sload\n      swap2\n      swap1\n      swap5\n      and\n      not(sub(shl(0xa0, 0x01), 0x01))\n      swap1\n      swap2\n      and\n      or\n      swap1\n      swap3\n      sstore\n      swap1\n      mload\n      dup1\n      mload\n        /* \"smart-contracts/StekcitBM.sol\":2369:2382  currentUserId */\n      swap5\n      swap6\n        /* \"smart-contracts/StekcitBM.sol\":2427:2615  StekcitUser(... */\n      swap3\n      swap5\n        /* \"smart-contracts/StekcitBM.sol\":2393:2625  allStekcitUsers.push(... */\n      swap3\n      swap4\n      tag_311\n      swap4\n      0x290decd9548b62a8d60345a988386fc84ba6bc95484008f6362f93160ef3e565\n      swap1\n      swap4\n      add\n      swap3\n      swap2\n      add\n      swap1\n      tag_256\n      jump\t// in\n    tag_311:\n      pop\n      0x60\n      dup3\n      add\n      mload\n      dup1\n      mload\n      tag_312\n      swap2\n      0x03\n      dup5\n      add\n      swap2\n      0x20\n      swap1\n      swap2\n      add\n      swap1\n      tag_256\n      jump\t// in\n    tag_312:\n      pop\n      0x80\n      dup3\n      add\n      mload\n      0x04\n      swap1\n      swap2\n      add\n      dup1\n      sload\n      0xa0\n      swap1\n      swap4\n      add\n      mload\n      iszero\n      iszero\n      0x0100\n      mul\n      not(0xff00)\n      swap3\n      iszero\n      iszero\n      swap3\n      swap1\n      swap3\n      and\n      not(0xffff)\n      swap1\n      swap4\n      and\n      swap3\n      swap1\n      swap3\n      or\n      or\n      swap1\n      sstore\n        /* \"smart-contracts/StekcitBM.sol\":2636:2649  currentUserId */\n      0x05\n        /* \"smart-contracts/StekcitBM.sol\":2636:2651  currentUserId++ */\n      dup1\n      sload\n      swap1\n        /* \"smart-contracts/StekcitBM.sol\":2393:2625  allStekcitUsers.push(... */\n      0x00\n        /* \"smart-contracts/StekcitBM.sol\":2636:2651  currentUserId++ */\n      tag_313\n      dup4\n      tag_217\n      jump\t// in\n    tag_313:\n      swap2\n      swap1\n      pop\n      sstore\n      pop\n        /* \"smart-contracts/StekcitBM.sol\":2669:2695  getUserByUserId(newUserId) */\n      tag_314\n        /* \"smart-contracts/StekcitBM.sol\":2685:2694  newUserId */\n      dup2\n        /* \"smart-contracts/StekcitBM.sol\":2669:2684  getUserByUserId */\n      tag_160\n        /* \"smart-contracts/StekcitBM.sol\":2669:2695  getUserByUserId(newUserId) */\n      jump\t// in\n    tag_314:\n        /* \"smart-contracts/StekcitBM.sol\":2662:2695  return getUserByUserId(newUserId) */\n      swap7\n        /* \"smart-contracts/StekcitBM.sol\":2017:2702  function createUser(... */\n      swap6\n      pop\n      pop\n      pop\n      pop\n      pop\n      pop\n      jump\t// out\n        /* \"smart-contracts/StekcitBM.sol\":7925:8598  function getAllPublishedEvents()... */\n    tag_92:\n        /* \"smart-contracts/StekcitBM.sol\":8003:8024  StekcitEvent[] memory */\n      0x60\n        /* \"smart-contracts/StekcitBM.sol\":8040:8062  uint256 runningEventId */\n      0x00\n        /* \"smart-contracts/StekcitBM.sol\":8076:8113  StekcitEvent[] memory publishedEvents */\n      dup1\n        /* \"smart-contracts/StekcitBM.sol\":8148:8179  getNumberOfAllPublishedEvents() */\n      tag_316\n        /* \"smart-contracts/StekcitBM.sol\":8148:8177  getNumberOfAllPublishedEvents */\n      tag_163\n        /* \"smart-contracts/StekcitBM.sol\":8148:8179  getNumberOfAllPublishedEvents() */\n      jump\t// in\n    tag_316:\n        /* \"smart-contracts/StekcitBM.sol\":8116:8189  new StekcitEvent[](... */\n      0xffffffffffffffff\n      dup2\n      gt\n      iszero\n      tag_318\n      jumpi\n      tag_318\n      tag_201\n      jump\t// in\n    tag_318:\n      mload(0x40)\n      swap1\n      dup1\n      dup3\n      mstore\n      dup1\n      0x20\n      mul\n      0x20\n      add\n      dup3\n      add\n      0x40\n      mstore\n      dup1\n      iszero\n      tag_319\n      jumpi\n      dup2\n      0x20\n      add\n    tag_320:\n      tag_321\n      tag_252\n      jump\t// in\n    tag_321:\n      dup2\n      mstore\n      0x20\n      add\n      swap1\n      0x01\n      swap1\n      sub\n      swap1\n      dup2\n      tag_320\n      jumpi\n      swap1\n      pop\n    tag_319:\n      pop\n        /* \"smart-contracts/StekcitBM.sol\":8076:8189  StekcitEvent[] memory publishedEvents = new StekcitEvent[](... */\n      swap1\n      pop\n        /* \"smart-contracts/StekcitBM.sol\":8218:8233  uint256 eventId */\n      0x00\n        /* \"smart-contracts/StekcitBM.sol\":8200:8559  for (... */\n    tag_322:\n        /* \"smart-contracts/StekcitBM.sol\":8261:8277  allStekcitEvents */\n      0x01\n        /* \"smart-contracts/StekcitBM.sol\":8261:8284  allStekcitEvents.length */\n      sload\n        /* \"smart-contracts/StekcitBM.sol\":8251:8284  eventId < allStekcitEvents.length */\n      dup2\n      lt\n        /* \"smart-contracts/StekcitBM.sol\":8200:8559  for (... */\n      iszero\n      tag_279\n      jumpi\n        /* \"smart-contracts/StekcitBM.sol\":8332:8364  StekcitEvent memory currentEvent */\n      0x00\n        /* \"smart-contracts/StekcitBM.sol\":8367:8383  allStekcitEvents */\n      0x01\n        /* \"smart-contracts/StekcitBM.sol\":8384:8391  eventId */\n      dup3\n        /* \"smart-contracts/StekcitBM.sol\":8367:8392  allStekcitEvents[eventId] */\n      dup2\n      sload\n      dup2\n      lt\n      tag_326\n      jumpi\n      tag_326\n      tag_211\n      jump\t// in\n    tag_326:\n      swap1\n      0x00\n      mstore\n      keccak256(0x00, 0x20)\n      swap1\n      0x0c\n      mul\n      add\n        /* \"smart-contracts/StekcitBM.sol\":8332:8392  StekcitEvent memory currentEvent = allStekcitEvents[eventId] */\n      mload(0x40)\n      dup1\n      0x01e0\n      add\n      0x40\n      mstore\n      swap1\n      dup2\n      0x00\n      dup3\n      add\n      sload\n      dup2\n      mstore\n      0x20\n      add\n      0x01\n      dup3\n      add\n      0x00\n      swap1\n      sload\n      swap1\n      0x0100\n      exp\n      swap1\n      div\n      sub(shl(0xa0, 0x01), 0x01)\n      and\n      sub(shl(0xa0, 0x01), 0x01)\n      and\n      sub(shl(0xa0, 0x01), 0x01)\n      and\n      dup2\n      mstore\n      0x20\n      add\n      0x02\n      dup3\n      add\n      dup1\n      sload\n      tag_328\n      swap1\n      tag_285\n      jump\t// in\n    tag_328:\n      dup1\n      0x1f\n      add\n      0x20\n      dup1\n      swap2\n      div\n      mul\n      0x20\n      add\n      mload(0x40)\n      swap1\n      dup2\n      add\n      0x40\n      mstore\n      dup1\n      swap3\n      swap2\n      swap1\n      dup2\n      dup2\n      mstore\n      0x20\n      add\n      dup3\n      dup1\n      sload\n      tag_329\n      swap1\n      tag_285\n      jump\t// in\n    tag_329:\n      dup1\n      iszero\n      tag_330\n      jumpi\n      dup1\n      0x1f\n      lt\n      tag_331\n      jumpi\n      0x0100\n      dup1\n      dup4\n      sload\n      div\n      mul\n      dup4\n      mstore\n      swap2\n      0x20\n      add\n      swap2\n      jump(tag_330)\n    tag_331:\n      dup3\n      add\n      swap2\n      swap1\n      0x00\n      mstore\n      keccak256(0x00, 0x20)\n      swap1\n    tag_332:\n      dup2\n      sload\n      dup2\n      mstore\n      swap1\n      0x01\n      add\n      swap1\n      0x20\n      add\n      dup1\n      dup4\n      gt\n      tag_332\n      jumpi\n      dup3\n      swap1\n      sub\n      0x1f\n      and\n      dup3\n      add\n      swap2\n    tag_330:\n      pop\n      pop\n      pop\n      pop\n      pop\n      dup2\n      mstore\n      0x20\n      add\n      0x03\n      dup3\n      add\n      dup1\n      sload\n      tag_333\n      swap1\n      tag_285\n      jump\t// in\n    tag_333:\n      dup1\n      0x1f\n      add\n      0x20\n      dup1\n      swap2\n      div\n      mul\n      0x20\n      add\n      mload(0x40)\n      swap1\n      dup2\n      add\n      0x40\n      mstore\n      dup1\n      swap3\n      swap2\n      swap1\n      dup2\n      dup2\n      mstore\n      0x20\n      add\n      dup3\n      dup1\n      sload\n      tag_334\n      swap1\n      tag_285\n      jump\t// in\n    tag_334:\n      dup1\n      iszero\n      tag_335\n      jumpi\n      dup1\n      0x1f\n      lt\n      tag_336\n      jumpi\n      0x0100\n      dup1\n      dup4\n      sload\n      div\n      mul\n      dup4\n      mstore\n      swap2\n      0x20\n      add\n      swap2\n      jump(tag_335)\n    tag_336:\n      dup3\n      add\n      swap2\n      swap1\n      0x00\n      mstore\n      keccak256(0x00, 0x20)\n      swap1\n    tag_337:\n      dup2\n      sload\n      dup2\n      mstore\n      swap1\n      0x01\n      add\n      swap1\n      0x20\n      add\n      dup1\n      dup4\n      gt\n      tag_337\n      jumpi\n      dup3\n      swap1\n      sub\n      0x1f\n      and\n      dup3\n      add\n      swap2\n    tag_335:\n      pop\n      pop\n      pop\n      pop\n      pop\n      dup2\n      mstore\n      0x20\n      add\n      0x04\n      dup3\n      add\n      dup1\n      sload\n      tag_338\n      swap1\n      tag_285\n      jump\t// in\n    tag_338:\n      dup1\n      0x1f\n      add\n      0x20\n      dup1\n      swap2\n      div\n      mul\n      0x20\n      add\n      mload(0x40)\n      swap1\n      dup2\n      add\n      0x40\n      mstore\n      dup1\n      swap3\n      swap2\n      swap1\n      dup2\n      dup2\n      mstore\n      0x20\n      add\n      dup3\n      dup1\n      sload\n      tag_339\n      swap1\n      tag_285\n      jump\t// in\n    tag_339:\n      dup1\n      iszero\n      tag_340\n      jumpi\n      dup1\n      0x1f\n      lt\n      tag_341\n      jumpi\n      0x0100\n      dup1\n      dup4\n      sload\n      div\n      mul\n      dup4\n      mstore\n      swap2\n      0x20\n      add\n      swap2\n      jump(tag_340)\n    tag_341:\n      dup3\n      add\n      swap2\n      swap1\n      0x00\n      mstore\n      keccak256(0x00, 0x20)\n      swap1\n    tag_342:\n      dup2\n      sload\n      dup2\n      mstore\n      swap1\n      0x01\n      add\n      swap1\n      0x20\n      add\n      dup1\n      dup4\n      gt\n      tag_342\n      jumpi\n      dup3\n      swap1\n      sub\n      0x1f\n      and\n      dup3\n      add\n      swap2\n    tag_340:\n      pop\n      pop\n      pop\n      swap2\n      dup4\n      mstore\n      pop\n      pop\n      0x05\n      dup3\n      add\n      sload\n      0x20\n      dup3\n      add\n      mstore\n      0x06\n      dup3\n      add\n      sload\n      0x40\n      dup3\n      add\n      mstore\n      0x07\n      dup3\n      add\n      sload\n      0x60\n      dup3\n      add\n      mstore\n      0x08\n      dup3\n      add\n      sload\n      0x80\n      dup3\n      add\n      mstore\n      0x09\n      dup3\n      add\n      sload\n      0xff\n      dup1\n      dup3\n      and\n      iszero\n      iszero\n      0xa0\n      dup5\n      add\n      mstore\n      0x0100\n      dup1\n      dup4\n      div\n      dup3\n      and\n      iszero\n      iszero\n      0xc0\n      dup6\n      add\n      mstore\n      0x010000\n      swap1\n      swap3\n      div\n      dup2\n      and\n      iszero\n      iszero\n      0xe0\n      dup5\n      add\n      mstore\n      0x0a\n      dup5\n      add\n      sload\n      dup3\n      dup5\n      add\n      mstore\n      0x0b\n      swap1\n      swap4\n      add\n      sload\n      dup1\n      dup5\n      and\n      iszero\n      iszero\n      0x0120\n      dup5\n      add\n      mstore\n      div\n      swap1\n      swap2\n      and\n      iszero\n      iszero\n      0x0140\n      swap2\n      dup3\n      add\n      mstore\n        /* \"smart-contracts/StekcitBM.sol\":8410:8434  currentEvent.isPublished */\n      dup2\n      add\n      mload\n        /* \"smart-contracts/StekcitBM.sol\":8332:8392  StekcitEvent memory currentEvent = allStekcitEvents[eventId] */\n      swap1\n      swap2\n      pop\n        /* \"smart-contracts/StekcitBM.sol\":8406:8549  if (currentEvent.isPublished) {... */\n      iszero\n      tag_343\n      jumpi\n        /* \"smart-contracts/StekcitBM.sol\":8488:8500  currentEvent */\n      dup1\n        /* \"smart-contracts/StekcitBM.sol\":8454:8469  publishedEvents */\n      dup4\n        /* \"smart-contracts/StekcitBM.sol\":8470:8484  runningEventId */\n      dup6\n        /* \"smart-contracts/StekcitBM.sol\":8454:8485  publishedEvents[runningEventId] */\n      dup2\n      mload\n      dup2\n      lt\n      tag_345\n      jumpi\n      tag_345\n      tag_211\n      jump\t// in\n    tag_345:\n      0x20\n      mul\n      0x20\n      add\n      add\n        /* \"smart-contracts/StekcitBM.sol\":8454:8500  publishedEvents[runningEventId] = currentEvent */\n      dup2\n      swap1\n      mstore\n      pop\n        /* \"smart-contracts/StekcitBM.sol\":8518:8534  runningEventId++ */\n      dup4\n      dup1\n      tag_346\n      swap1\n      tag_217\n      jump\t// in\n    tag_346:\n      swap5\n      pop\n      pop\n        /* \"smart-contracts/StekcitBM.sol\":8406:8549  if (currentEvent.isPublished) {... */\n    tag_343:\n      pop\n        /* \"smart-contracts/StekcitBM.sol\":8298:8307  eventId++ */\n      dup1\n      tag_347\n      dup2\n      tag_217\n      jump\t// in\n    tag_347:\n      swap2\n      pop\n      pop\n        /* \"smart-contracts/StekcitBM.sol\":8200:8559  for (... */\n      jump(tag_322)\n        /* \"smart-contracts/StekcitBM.sol\":16682:16847  function getPayoutById(uint256 _payoutId)... */\n    tag_96:\n        /* \"smart-contracts/StekcitBM.sol\":16769:16789  StekcitPayout memory */\n      tag_348\n      tag_349\n      jump\t// in\n    tag_348:\n        /* \"smart-contracts/StekcitBM.sol\":16812:16829  allStekcitPayouts */\n      0x03\n        /* \"smart-contracts/StekcitBM.sol\":16830:16839  _payoutId */\n      dup3\n        /* \"smart-contracts/StekcitBM.sol\":16812:16840  allStekcitPayouts[_payoutId] */\n      dup2\n      sload\n      dup2\n      lt\n      tag_352\n      jumpi\n      tag_352\n      tag_211\n      jump\t// in\n    tag_352:\n      0x00\n      swap2\n      dup3\n      mstore\n      0x20\n      swap2\n      dup3\n      swap1\n      keccak256\n        /* \"smart-contracts/StekcitBM.sol\":16805:16840  return allStekcitPayouts[_payoutId] */\n      0x40\n      dup1\n      mload\n      0xc0\n      dup2\n      add\n      dup3\n      mstore\n        /* \"smart-contracts/StekcitBM.sol\":16812:16840  allStekcitPayouts[_payoutId] */\n      0x06\n      swap1\n      swap4\n      mul\n      swap1\n      swap2\n      add\n        /* \"smart-contracts/StekcitBM.sol\":16805:16840  return allStekcitPayouts[_payoutId] */\n      dup1\n      sload\n      dup4\n      mstore\n      0x01\n      dup2\n      add\n      sload\n      swap4\n      dup4\n      add\n      swap4\n      swap1\n      swap4\n      mstore\n      0x02\n      dup4\n      add\n      sload\n      sub(shl(0xa0, 0x01), 0x01)\n      and\n      swap1\n      dup3\n      add\n      mstore\n      0x03\n      dup3\n      add\n      sload\n      0x60\n      dup3\n      add\n      mstore\n      0x04\n      dup3\n      add\n      sload\n      0x80\n      dup3\n      add\n      mstore\n      0x05\n      swap1\n      swap2\n      add\n      sload\n      0xff\n      and\n      iszero\n      iszero\n      0xa0\n      dup3\n      add\n      mstore\n      swap3\n        /* \"smart-contracts/StekcitBM.sol\":16682:16847  function getPayoutById(uint256 _payoutId)... */\n      swap2\n      pop\n      pop\n      jump\t// out\n        /* \"smart-contracts/StekcitBM.sol\":4277:4836  function getNumberOfTicketsOfUser(address _walletAddress)... */\n    tag_101:\n        /* \"smart-contracts/StekcitBM.sol\":4380:4387  uint256 */\n      0x00\n      dup1\n      dup1\n        /* \"smart-contracts/StekcitBM.sol\":4447:4791  for (... */\n    tag_355:\n        /* \"smart-contracts/StekcitBM.sol\":4510:4527  allStekcitTickets */\n      0x02\n        /* \"smart-contracts/StekcitBM.sol\":4510:4534  allStekcitTickets.length */\n      sload\n        /* \"smart-contracts/StekcitBM.sol\":4499:4534  ticketId < allStekcitTickets.length */\n      dup2\n      lt\n        /* \"smart-contracts/StekcitBM.sol\":4447:4791  for (... */\n      iszero\n      tag_279\n      jumpi\n        /* \"smart-contracts/StekcitBM.sol\":4583:4617  StekcitTicket memory currentTicket */\n      0x00\n        /* \"smart-contracts/StekcitBM.sol\":4620:4637  allStekcitTickets */\n      0x02\n        /* \"smart-contracts/StekcitBM.sol\":4638:4646  ticketId */\n      dup3\n        /* \"smart-contracts/StekcitBM.sol\":4620:4647  allStekcitTickets[ticketId] */\n      dup2\n      sload\n      dup2\n      lt\n      tag_359\n      jumpi\n      tag_359\n      tag_211\n      jump\t// in\n    tag_359:\n      0x00\n      swap2\n      dup3\n      mstore\n      0x20\n      swap2\n      dup3\n      swap1\n      keccak256\n        /* \"smart-contracts/StekcitBM.sol\":4583:4647  StekcitTicket memory currentTicket = allStekcitTickets[ticketId] */\n      0x40\n      dup1\n      mload\n      0x80\n      dup2\n      add\n      dup3\n      mstore\n        /* \"smart-contracts/StekcitBM.sol\":4620:4647  allStekcitTickets[ticketId] */\n      0x04\n      swap1\n      swap4\n      mul\n      swap1\n      swap2\n      add\n        /* \"smart-contracts/StekcitBM.sol\":4583:4647  StekcitTicket memory currentTicket = allStekcitTickets[ticketId] */\n      dup1\n      sload\n      dup4\n      mstore\n      0x01\n      dup2\n      add\n      sload\n      swap4\n      dup4\n      add\n      swap4\n      swap1\n      swap4\n      mstore\n      0x02\n      dup4\n      add\n      sload\n      sub(shl(0xa0, 0x01), 0x01)\n      swap1\n      dup2\n      and\n      swap2\n      dup4\n      add\n      dup3\n      swap1\n      mstore\n      0x03\n      swap1\n      swap4\n      add\n      sload\n      0x60\n      dup4\n      add\n      mstore\n      swap1\n      swap3\n      pop\n        /* \"smart-contracts/StekcitBM.sol\":4665:4723  currentTicket.attendingUserWalletAddress == _walletAddress */\n      swap1\n      dup7\n      and\n      eq\n        /* \"smart-contracts/StekcitBM.sol\":4661:4781  if (currentTicket.attendingUserWalletAddress == _walletAddress) {... */\n      iszero\n      tag_361\n      jumpi\n        /* \"smart-contracts/StekcitBM.sol\":4743:4766  numberOfTicketsOfUser++ */\n      dup3\n      tag_362\n      dup2\n      tag_217\n      jump\t// in\n    tag_362:\n      swap4\n      pop\n      pop\n        /* \"smart-contracts/StekcitBM.sol\":4661:4781  if (currentTicket.attendingUserWalletAddress == _walletAddress) {... */\n    tag_361:\n      pop\n        /* \"smart-contracts/StekcitBM.sol\":4548:4558  ticketId++ */\n      dup1\n      tag_363\n      dup2\n      tag_217\n      jump\t// in\n    tag_363:\n      swap2\n      pop\n      pop\n        /* \"smart-contracts/StekcitBM.sol\":4447:4791  for (... */\n      jump(tag_355)\n        /* \"smart-contracts/StekcitBM.sol\":9364:9820  function makeCreatingUser(address _walletAddress) public onlyExistingUser returns (bool) {... */\n    tag_105:\n        /* \"smart-contracts/StekcitBM.sol\":9447:9451  bool */\n      0x00\n        /* \"smart-contracts/StekcitBM.sol\":1070:1099  checkIfUserExists(msg.sender) */\n      tag_365\n        /* \"smart-contracts/StekcitBM.sol\":1088:1098  msg.sender */\n      caller\n        /* \"smart-contracts/StekcitBM.sol\":1070:1087  checkIfUserExists */\n      tag_130\n        /* \"smart-contracts/StekcitBM.sol\":1070:1099  checkIfUserExists(msg.sender) */\n      jump\t// in\n    tag_365:\n        /* \"smart-contracts/StekcitBM.sol\":1049:1169  require(... */\n      tag_366\n      jumpi\n      mload(0x40)\n      shl(0xe5, 0x461bcd)\n      dup2\n      mstore\n        /* \"#utility.yul\":11994:11996   */\n      0x20\n        /* \"smart-contracts/StekcitBM.sol\":1049:1169  require(... */\n      0x04\n      dup3\n      add\n        /* \"#utility.yul\":11976:11997   */\n      mstore\n        /* \"#utility.yul\":12033:12035   */\n      0x2c\n        /* \"#utility.yul\":12013:12031   */\n      0x24\n      dup3\n      add\n        /* \"#utility.yul\":12006:12036   */\n      mstore\n        /* \"#utility.yul\":12072:12106   */\n      0x4f6e6c79204578697374696e672075736572732063616e20706572666f726d20\n        /* \"#utility.yul\":12052:12070   */\n      0x44\n      dup3\n      add\n        /* \"#utility.yul\":12045:12107   */\n      mstore\n      shl(0xa1, 0x3a3434b99030b1ba34b7b717)\n        /* \"#utility.yul\":12123:12141   */\n      0x64\n      dup3\n      add\n        /* \"#utility.yul\":12116:12158   */\n      mstore\n        /* \"#utility.yul\":12175:12194   */\n      0x84\n      add\n        /* \"smart-contracts/StekcitBM.sol\":1049:1169  require(... */\n      tag_240\n        /* \"#utility.yul\":11792:12200   */\n      jump\n        /* \"smart-contracts/StekcitBM.sol\":1049:1169  require(... */\n    tag_366:\n        /* \"smart-contracts/StekcitBM.sol\":9463:9497  StekcitUser memory userToBeUpdated */\n      0x00\n        /* \"smart-contracts/StekcitBM.sol\":9500:9560  getUserByWalletAddress(... */\n      tag_370\n        /* \"smart-contracts/StekcitBM.sol\":9536:9550  _walletAddress */\n      dup4\n        /* \"smart-contracts/StekcitBM.sol\":9500:9522  getUserByWalletAddress */\n      tag_138\n        /* \"smart-contracts/StekcitBM.sol\":9500:9560  getUserByWalletAddress(... */\n      jump\t// in\n    tag_370:\n        /* \"smart-contracts/StekcitBM.sol\":9463:9560  StekcitUser memory userToBeUpdated = getUserByWalletAddress(... */\n      swap1\n      pop\n        /* \"smart-contracts/StekcitBM.sol\":9576:9591  userToBeUpdated */\n      dup1\n        /* \"smart-contracts/StekcitBM.sol\":9576:9599  userToBeUpdated.isBlank */\n      0xa0\n      add\n      mload\n        /* \"smart-contracts/StekcitBM.sol\":9571:9792  if (!userToBeUpdated.isBlank) {... */\n      tag_371\n      jumpi\n        /* \"smart-contracts/StekcitBM.sol\":9632:9650  userToBeUpdated.id */\n      dup1\n      mload\n        /* \"smart-contracts/StekcitBM.sol\":9697:9701  true */\n      0x01\n        /* \"smart-contracts/StekcitBM.sol\":9664:9694  userToBeUpdated.isCreatingUser */\n      0x80\n      dup4\n      add\n        /* \"smart-contracts/StekcitBM.sol\":9664:9701  userToBeUpdated.isCreatingUser = true */\n      mstore\n        /* \"smart-contracts/StekcitBM.sol\":9615:9629  uint256 userId */\n      0x00\n        /* \"smart-contracts/StekcitBM.sol\":9715:9738  allStekcitUsers[userId] */\n      dup1\n      sload\n        /* \"smart-contracts/StekcitBM.sol\":9632:9647  userToBeUpdated */\n      dup4\n      swap2\n        /* \"smart-contracts/StekcitBM.sol\":9615:9629  uint256 userId */\n      swap1\n        /* \"smart-contracts/StekcitBM.sol\":9632:9650  userToBeUpdated.id */\n      dup4\n      swap1\n        /* \"smart-contracts/StekcitBM.sol\":9715:9738  allStekcitUsers[userId] */\n      dup2\n      lt\n      tag_373\n      jumpi\n      tag_373\n      tag_211\n      jump\t// in\n    tag_373:\n      0x00\n      swap2\n      dup3\n      mstore\n      0x20\n      swap2\n      dup3\n      swap1\n      keccak256\n        /* \"smart-contracts/StekcitBM.sol\":9715:9756  allStekcitUsers[userId] = userToBeUpdated */\n      dup4\n      mload\n        /* \"smart-contracts/StekcitBM.sol\":9715:9738  allStekcitUsers[userId] */\n      0x05\n      swap3\n      swap1\n      swap3\n      mul\n      add\n        /* \"smart-contracts/StekcitBM.sol\":9715:9756  allStekcitUsers[userId] = userToBeUpdated */\n      swap1\n      dup2\n      sstore\n      dup3\n      dup3\n      add\n      mload\n      0x01\n      dup3\n      add\n      dup1\n      sload\n      not(sub(shl(0xa0, 0x01), 0x01))\n      and\n      sub(shl(0xa0, 0x01), 0x01)\n      swap1\n      swap3\n      and\n      swap2\n      swap1\n      swap2\n      or\n      swap1\n      sstore\n      0x40\n      dup4\n      add\n      mload\n      dup1\n      mload\n        /* \"smart-contracts/StekcitBM.sol\":9715:9738  allStekcitUsers[userId] */\n      swap2\n      swap3\n        /* \"smart-contracts/StekcitBM.sol\":9715:9756  allStekcitUsers[userId] = userToBeUpdated */\n      tag_375\n      swap3\n      0x02\n      dup6\n      add\n      swap3\n      swap1\n      swap2\n      add\n      swap1\n      tag_256\n      jump\t// in\n    tag_375:\n      pop\n      0x60\n      dup3\n      add\n      mload\n      dup1\n      mload\n      tag_376\n      swap2\n      0x03\n      dup5\n      add\n      swap2\n      0x20\n      swap1\n      swap2\n      add\n      swap1\n      tag_256\n      jump\t// in\n    tag_376:\n      pop\n      0x80\n      dup3\n      add\n      mload\n      0x04\n      swap1\n      swap2\n      add\n      dup1\n      sload\n      0xa0\n      swap1\n      swap4\n      add\n      mload\n      iszero\n      iszero\n      0x0100\n      mul\n      not(0xff00)\n      swap3\n      iszero\n      iszero\n      swap3\n      swap1\n      swap3\n      and\n      not(0xffff)\n      swap1\n      swap4\n      and\n      swap3\n      swap1\n      swap3\n      or\n      or\n      swap1\n      sstore\n      pop\n      0x01\n      swap2\n      pop\n        /* \"smart-contracts/StekcitBM.sol\":9770:9781  return true */\n      tag_369\n      swap1\n      pop\n      jump\n        /* \"smart-contracts/StekcitBM.sol\":9571:9792  if (!userToBeUpdated.isBlank) {... */\n    tag_371:\n        /* \"smart-contracts/StekcitBM.sol\":9808:9813  false */\n      0x00\n        /* \"smart-contracts/StekcitBM.sol\":9801:9813  return false */\n      swap2\n      pop\n      pop\n        /* \"smart-contracts/StekcitBM.sol\":1179:1180  _ */\n    tag_369:\n        /* \"smart-contracts/StekcitBM.sol\":9364:9820  function makeCreatingUser(address _walletAddress) public onlyExistingUser returns (bool) {... */\n      swap2\n      swap1\n      pop\n      jump\t// out\n        /* \"smart-contracts/StekcitBM.sol\":4842:5374  function getNumberOfTicketsOfEvent(uint256 _eventId)... */\n    tag_109:\n        /* \"smart-contracts/StekcitBM.sol\":4940:4947  uint256 */\n      0x00\n      dup1\n      dup1\n        /* \"smart-contracts/StekcitBM.sol\":5008:5328  for (... */\n    tag_378:\n        /* \"smart-contracts/StekcitBM.sol\":5071:5088  allStekcitTickets */\n      0x02\n        /* \"smart-contracts/StekcitBM.sol\":5071:5095  allStekcitTickets.length */\n      sload\n        /* \"smart-contracts/StekcitBM.sol\":5060:5095  ticketId < allStekcitTickets.length */\n      dup2\n      lt\n        /* \"smart-contracts/StekcitBM.sol\":5008:5328  for (... */\n      iszero\n      tag_279\n      jumpi\n        /* \"smart-contracts/StekcitBM.sol\":5144:5178  StekcitTicket memory currentTicket */\n      0x00\n        /* \"smart-contracts/StekcitBM.sol\":5181:5198  allStekcitTickets */\n      0x02\n        /* \"smart-contracts/StekcitBM.sol\":5199:5207  ticketId */\n      dup3\n        /* \"smart-contracts/StekcitBM.sol\":5181:5208  allStekcitTickets[ticketId] */\n      dup2\n      sload\n      dup2\n      lt\n      tag_382\n      jumpi\n      tag_382\n      tag_211\n      jump\t// in\n    tag_382:\n      0x00\n      swap2\n      dup3\n      mstore\n      0x20\n      swap2\n      dup3\n      swap1\n      keccak256\n        /* \"smart-contracts/StekcitBM.sol\":5144:5208  StekcitTicket memory currentTicket = allStekcitTickets[ticketId] */\n      0x40\n      dup1\n      mload\n      0x80\n      dup2\n      add\n      dup3\n      mstore\n        /* \"smart-contracts/StekcitBM.sol\":5181:5208  allStekcitTickets[ticketId] */\n      0x04\n      swap1\n      swap4\n      mul\n      swap1\n      swap2\n      add\n        /* \"smart-contracts/StekcitBM.sol\":5144:5208  StekcitTicket memory currentTicket = allStekcitTickets[ticketId] */\n      dup1\n      sload\n      dup4\n      mstore\n      0x01\n      dup2\n      add\n      sload\n      swap4\n      dup4\n      add\n      dup5\n      swap1\n      mstore\n      0x02\n      dup2\n      add\n      sload\n      sub(shl(0xa0, 0x01), 0x01)\n      and\n      swap2\n      dup4\n      add\n      swap2\n      swap1\n      swap2\n      mstore\n      0x03\n      add\n      sload\n      0x60\n      dup3\n      add\n      mstore\n      swap2\n      pop\n        /* \"smart-contracts/StekcitBM.sol\":5226:5259  currentTicket.eventId == _eventId */\n      dup6\n      eq\n        /* \"smart-contracts/StekcitBM.sol\":5222:5318  if (currentTicket.eventId == _eventId) {... */\n      iszero\n      tag_384\n      jumpi\n        /* \"smart-contracts/StekcitBM.sol\":5279:5303  numberOfTicketsOfEvent++ */\n      dup3\n      tag_385\n      dup2\n      tag_217\n      jump\t// in\n    tag_385:\n      swap4\n      pop\n      pop\n        /* \"smart-contracts/StekcitBM.sol\":5222:5318  if (currentTicket.eventId == _eventId) {... */\n    tag_384:\n      pop\n        /* \"smart-contracts/StekcitBM.sol\":5109:5119  ticketId++ */\n      dup1\n      tag_386\n      dup2\n      tag_217\n      jump\t// in\n    tag_386:\n      swap2\n      pop\n      pop\n        /* \"smart-contracts/StekcitBM.sol\":5008:5328  for (... */\n      jump(tag_378)\n        /* \"smart-contracts/StekcitBM.sol\":18311:18525  function approveStekcitBM(uint256 _amount) public returns (bool) {... */\n    tag_113:\n        /* \"smart-contracts/StekcitBM.sol\":18370:18374  bool */\n      0x00\n        /* \"smart-contracts/StekcitBM.sol\":18386:18416  uint256 approvalAmountInEthers */\n      dup1\n        /* \"smart-contracts/StekcitBM.sol\":18434:18438  CUSD */\n      0x09\n      0x00\n      swap1\n      sload\n      swap1\n      0x0100\n      exp\n      swap1\n      div\n      sub(shl(0xa0, 0x01), 0x01)\n      and\n      sub(shl(0xa0, 0x01), 0x01)\n        /* \"smart-contracts/StekcitBM.sol\":18434:18447  CUSD.decimals */\n      and\n      0x313ce567\n        /* \"smart-contracts/StekcitBM.sol\":18434:18449  CUSD.decimals() */\n      mload(0x40)\n      dup2\n      0xffffffff\n      and\n      0xe0\n      shl\n      dup2\n      mstore\n      0x04\n      add\n      0x20\n      mload(0x40)\n      dup1\n      dup4\n      sub\n      dup2\n      dup7\n      dup1\n      extcodesize\n      iszero\n      dup1\n      iszero\n      tag_388\n      jumpi\n      0x00\n      dup1\n      revert\n    tag_388:\n      pop\n      gas\n      staticcall\n      iszero\n      dup1\n      iszero\n      tag_390\n      jumpi\n      returndatasize\n      0x00\n      dup1\n      returndatacopy\n      revert(0x00, returndatasize)\n    tag_390:\n      pop\n      pop\n      pop\n      pop\n      mload(0x40)\n      returndatasize\n      not(0x1f)\n      0x1f\n      dup3\n      add\n      and\n      dup3\n      add\n      dup1\n      0x40\n      mstore\n      pop\n      dup2\n      add\n      swap1\n      tag_391\n      swap2\n      swap1\n      tag_392\n      jump\t// in\n    tag_391:\n        /* \"smart-contracts/StekcitBM.sol\":18430:18449  10**CUSD.decimals() */\n      tag_393\n      swap1\n        /* \"smart-contracts/StekcitBM.sol\":18430:18432  10 */\n      0x0a\n        /* \"smart-contracts/StekcitBM.sol\":18430:18449  10**CUSD.decimals() */\n      tag_394\n      jump\t// in\n    tag_393:\n        /* \"smart-contracts/StekcitBM.sol\":18419:18450  _amount * (10**CUSD.decimals()) */\n      tag_395\n      swap1\n        /* \"smart-contracts/StekcitBM.sol\":18419:18426  _amount */\n      dup5\n        /* \"smart-contracts/StekcitBM.sol\":18419:18450  _amount * (10**CUSD.decimals()) */\n      tag_396\n      jump\t// in\n    tag_395:\n        /* \"smart-contracts/StekcitBM.sol\":18467:18471  CUSD */\n      sload(0x09)\n        /* \"smart-contracts/StekcitBM.sol\":18467:18518  CUSD.approve(address(this), approvalAmountInEthers) */\n      mload(0x40)\n      shl(0xe0, 0x095ea7b3)\n      dup2\n      mstore\n        /* \"smart-contracts/StekcitBM.sol\":18488:18492  this */\n      address\n        /* \"smart-contracts/StekcitBM.sol\":18467:18518  CUSD.approve(address(this), approvalAmountInEthers) */\n      0x04\n      dup3\n      add\n        /* \"#utility.yul\":8636:8687   */\n      mstore\n        /* \"#utility.yul\":8703:8721   */\n      0x24\n      dup2\n      add\n        /* \"#utility.yul\":8696:8730   */\n      dup4\n      swap1\n      mstore\n        /* \"smart-contracts/StekcitBM.sol\":18386:18450  uint256 approvalAmountInEthers = _amount * (10**CUSD.decimals()) */\n      swap2\n      swap3\n      pop\n      sub(shl(0xa0, 0x01), 0x01)\n        /* \"smart-contracts/StekcitBM.sol\":18467:18471  CUSD */\n      and\n      swap1\n        /* \"smart-contracts/StekcitBM.sol\":18467:18479  CUSD.approve */\n      0x095ea7b3\n      swap1\n        /* \"#utility.yul\":8609:8627   */\n      0x44\n      add\n        /* \"smart-contracts/StekcitBM.sol\":18467:18518  CUSD.approve(address(this), approvalAmountInEthers) */\n    tag_397:\n      0x20\n      mload(0x40)\n      dup1\n      dup4\n      sub\n      dup2\n      0x00\n      dup8\n      dup1\n      extcodesize\n      iszero\n      dup1\n      iszero\n      tag_399\n      jumpi\n      0x00\n      dup1\n      revert\n    tag_399:\n      pop\n      gas\n      call\n      iszero\n      dup1\n      iszero\n      tag_401\n      jumpi\n      returndatasize\n      0x00\n      dup1\n      returndatacopy\n      revert(0x00, returndatasize)\n    tag_401:\n      pop\n      pop\n      pop\n      pop\n      mload(0x40)\n      returndatasize\n      not(0x1f)\n      0x1f\n      dup3\n      add\n      and\n      dup3\n      add\n      dup1\n      0x40\n      mstore\n      pop\n      dup2\n      add\n      swap1\n      tag_262\n      swap2\n      swap1\n      tag_403\n      jump\t// in\n        /* \"smart-contracts/StekcitBM.sol\":1669:2011  function checkIfUserisCreatingUserOfEvent(... */\n    tag_118:\n        /* \"smart-contracts/StekcitBM.sol\":1796:1800  bool */\n      0x00\n        /* \"smart-contracts/StekcitBM.sol\":1812:1844  StekcitEvent memory eventToCheck */\n      dup1\n        /* \"smart-contracts/StekcitBM.sol\":1847:1863  allStekcitEvents */\n      0x01\n        /* \"smart-contracts/StekcitBM.sol\":1864:1872  _eventId */\n      dup5\n        /* \"smart-contracts/StekcitBM.sol\":1847:1873  allStekcitEvents[_eventId] */\n      dup2\n      sload\n      dup2\n      lt\n      tag_406\n      jumpi\n      tag_406\n      tag_211\n      jump\t// in\n    tag_406:\n      swap1\n      0x00\n      mstore\n      keccak256(0x00, 0x20)\n      swap1\n      0x0c\n      mul\n      add\n        /* \"smart-contracts/StekcitBM.sol\":1812:1873  StekcitEvent memory eventToCheck = allStekcitEvents[_eventId] */\n      mload(0x40)\n      dup1\n      0x01e0\n      add\n      0x40\n      mstore\n      swap1\n      dup2\n      0x00\n      dup3\n      add\n      sload\n      dup2\n      mstore\n      0x20\n      add\n      0x01\n      dup3\n      add\n      0x00\n      swap1\n      sload\n      swap1\n      0x0100\n      exp\n      swap1\n      div\n      sub(shl(0xa0, 0x01), 0x01)\n      and\n      sub(shl(0xa0, 0x01), 0x01)\n      and\n      sub(shl(0xa0, 0x01), 0x01)\n      and\n      dup2\n      mstore\n      0x20\n      add\n      0x02\n      dup3\n      add\n      dup1\n      sload\n      tag_408\n      swap1\n      tag_285\n      jump\t// in\n    tag_408:\n      dup1\n      0x1f\n      add\n      0x20\n      dup1\n      swap2\n      div\n      mul\n      0x20\n      add\n      mload(0x40)\n      swap1\n      dup2\n      add\n      0x40\n      mstore\n      dup1\n      swap3\n      swap2\n      swap1\n      dup2\n      dup2\n      mstore\n      0x20\n      add\n      dup3\n      dup1\n      sload\n      tag_409\n      swap1\n      tag_285\n      jump\t// in\n    tag_409:\n      dup1\n      iszero\n      tag_410\n      jumpi\n      dup1\n      0x1f\n      lt\n      tag_411\n      jumpi\n      0x0100\n      dup1\n      dup4\n      sload\n      div\n      mul\n      dup4\n      mstore\n      swap2\n      0x20\n      add\n      swap2\n      jump(tag_410)\n    tag_411:\n      dup3\n      add\n      swap2\n      swap1\n      0x00\n      mstore\n      keccak256(0x00, 0x20)\n      swap1\n    tag_412:\n      dup2\n      sload\n      dup2\n      mstore\n      swap1\n      0x01\n      add\n      swap1\n      0x20\n      add\n      dup1\n      dup4\n      gt\n      tag_412\n      jumpi\n      dup3\n      swap1\n      sub\n      0x1f\n      and\n      dup3\n      add\n      swap2\n    tag_410:\n      pop\n      pop\n      pop\n      pop\n      pop\n      dup2\n      mstore\n      0x20\n      add\n      0x03\n      dup3\n      add\n      dup1\n      sload\n      tag_413\n      swap1\n      tag_285\n      jump\t// in\n    tag_413:\n      dup1\n      0x1f\n      add\n      0x20\n      dup1\n      swap2\n      div\n      mul\n      0x20\n      add\n      mload(0x40)\n      swap1\n      dup2\n      add\n      0x40\n      mstore\n      dup1\n      swap3\n      swap2\n      swap1\n      dup2\n      dup2\n      mstore\n      0x20\n      add\n      dup3\n      dup1\n      sload\n      tag_414\n      swap1\n      tag_285\n      jump\t// in\n    tag_414:\n      dup1\n      iszero\n      tag_415\n      jumpi\n      dup1\n      0x1f\n      lt\n      tag_416\n      jumpi\n      0x0100\n      dup1\n      dup4\n      sload\n      div\n      mul\n      dup4\n      mstore\n      swap2\n      0x20\n      add\n      swap2\n      jump(tag_415)\n    tag_416:\n      dup3\n      add\n      swap2\n      swap1\n      0x00\n      mstore\n      keccak256(0x00, 0x20)\n      swap1\n    tag_417:\n      dup2\n      sload\n      dup2\n      mstore\n      swap1\n      0x01\n      add\n      swap1\n      0x20\n      add\n      dup1\n      dup4\n      gt\n      tag_417\n      jumpi\n      dup3\n      swap1\n      sub\n      0x1f\n      and\n      dup3\n      add\n      swap2\n    tag_415:\n      pop\n      pop\n      pop\n      pop\n      pop\n      dup2\n      mstore\n      0x20\n      add\n      0x04\n      dup3\n      add\n      dup1\n      sload\n      tag_418\n      swap1\n      tag_285\n      jump\t// in\n    tag_418:\n      dup1\n      0x1f\n      add\n      0x20\n      dup1\n      swap2\n      div\n      mul\n      0x20\n      add\n      mload(0x40)\n      swap1\n      dup2\n      add\n      0x40\n      mstore\n      dup1\n      swap3\n      swap2\n      swap1\n      dup2\n      dup2\n      mstore\n      0x20\n      add\n      dup3\n      dup1\n      sload\n      tag_419\n      swap1\n      tag_285\n      jump\t// in\n    tag_419:\n      dup1\n      iszero\n      tag_420\n      jumpi\n      dup1\n      0x1f\n      lt\n      tag_421\n      jumpi\n      0x0100\n      dup1\n      dup4\n      sload\n      div\n      mul\n      dup4\n      mstore\n      swap2\n      0x20\n      add\n      swap2\n      jump(tag_420)\n    tag_421:\n      dup3\n      add\n      swap2\n      swap1\n      0x00\n      mstore\n      keccak256(0x00, 0x20)\n      swap1\n    tag_422:\n      dup2\n      sload\n      dup2\n      mstore\n      swap1\n      0x01\n      add\n      swap1\n      0x20\n      add\n      dup1\n      dup4\n      gt\n      tag_422\n      jumpi\n      dup3\n      swap1\n      sub\n      0x1f\n      and\n      dup3\n      add\n      swap2\n    tag_420:\n      pop\n      pop\n      pop\n      swap2\n      dup4\n      mstore\n      pop\n      pop\n      0x05\n      dup3\n      add\n      sload\n      0x20\n      dup1\n      dup4\n      add\n      swap2\n      swap1\n      swap2\n      mstore\n      0x06\n      dup4\n      add\n      sload\n      0x40\n      dup4\n      add\n      mstore\n      0x07\n      dup4\n      add\n      sload\n      0x60\n      dup4\n      add\n      mstore\n      0x08\n      dup4\n      add\n      sload\n      0x80\n      dup4\n      add\n      mstore\n      0x09\n      dup4\n      add\n      sload\n      0xff\n      dup1\n      dup3\n      and\n      iszero\n      iszero\n      0xa0\n      dup6\n      add\n      mstore\n      0x0100\n      dup1\n      dup4\n      div\n      dup3\n      and\n      iszero\n      iszero\n      0xc0\n      dup7\n      add\n      mstore\n      0x010000\n      swap1\n      swap3\n      div\n      dup2\n      and\n      iszero\n      iszero\n      0xe0\n      dup6\n      add\n      mstore\n      0x0a\n      dup6\n      add\n      sload\n      dup3\n      dup6\n      add\n      mstore\n      0x0b\n      swap1\n      swap5\n      add\n      sload\n      dup1\n      dup6\n      and\n      iszero\n      iszero\n      0x0120\n      dup6\n      add\n      mstore\n      div\n      swap1\n      swap3\n      and\n      iszero\n      iszero\n      0x0140\n      swap1\n      swap2\n      add\n      mstore\n        /* \"smart-contracts/StekcitBM.sol\":1888:1926  eventToCheck.creatingUserWalletAddress */\n      dup2\n      add\n      mload\n      swap1\n      swap2\n      pop\n      sub(shl(0xa0, 0x01), 0x01)\n        /* \"smart-contracts/StekcitBM.sol\":1888:1944  eventToCheck.creatingUserWalletAddress == _walletAddress */\n      dup5\n      dup2\n      and\n      swap2\n      and\n      eq\n        /* \"smart-contracts/StekcitBM.sol\":1884:1982  if (eventToCheck.creatingUserWalletAddress == _walletAddress) {... */\n      iszero\n      tag_423\n      jumpi\n        /* \"smart-contracts/StekcitBM.sol\":1967:1971  true */\n      0x01\n        /* \"smart-contracts/StekcitBM.sol\":1960:1971  return true */\n      swap2\n      pop\n      pop\n      jump(tag_195)\n        /* \"smart-contracts/StekcitBM.sol\":1884:1982  if (eventToCheck.creatingUserWalletAddress == _walletAddress) {... */\n    tag_423:\n      pop\n        /* \"smart-contracts/StekcitBM.sol\":1999:2004  false */\n      0x00\n      swap4\n        /* \"smart-contracts/StekcitBM.sol\":1669:2011  function checkIfUserisCreatingUserOfEvent(... */\n      swap3\n      pop\n      pop\n      pop\n      jump\t// out\n        /* \"smart-contracts/StekcitBM.sol\":6078:6604  function getTotalNumberOfTicketsOfEvent(uint256 _eventId)... */\n    tag_122:\n        /* \"smart-contracts/StekcitBM.sol\":6181:6188  uint256 */\n      0x00\n      dup1\n      dup1\n        /* \"smart-contracts/StekcitBM.sol\":6250:6557  for (... */\n    tag_425:\n        /* \"smart-contracts/StekcitBM.sol\":6311:6327  allStekcitEvents */\n      0x01\n        /* \"smart-contracts/StekcitBM.sol\":6311:6334  allStekcitEvents.length */\n      sload\n        /* \"smart-contracts/StekcitBM.sol\":6301:6334  eventId < allStekcitEvents.length */\n      dup2\n      lt\n        /* \"smart-contracts/StekcitBM.sol\":6250:6557  for (... */\n      iszero\n      tag_279\n      jumpi\n        /* \"smart-contracts/StekcitBM.sol\":6382:6414  StekcitEvent memory currentEvent */\n      0x00\n        /* \"smart-contracts/StekcitBM.sol\":6417:6433  allStekcitEvents */\n      0x01\n        /* \"smart-contracts/StekcitBM.sol\":6434:6441  eventId */\n      dup3\n        /* \"smart-contracts/StekcitBM.sol\":6417:6442  allStekcitEvents[eventId] */\n      dup2\n      sload\n      dup2\n      lt\n      tag_429\n      jumpi\n      tag_429\n      tag_211\n      jump\t// in\n    tag_429:\n      swap1\n      0x00\n      mstore\n      keccak256(0x00, 0x20)\n      swap1\n      0x0c\n      mul\n      add\n        /* \"smart-contracts/StekcitBM.sol\":6382:6442  StekcitEvent memory currentEvent = allStekcitEvents[eventId] */\n      mload(0x40)\n      dup1\n      0x01e0\n      add\n      0x40\n      mstore\n      swap1\n      dup2\n      0x00\n      dup3\n      add\n      sload\n      dup2\n      mstore\n      0x20\n      add\n      0x01\n      dup3\n      add\n      0x00\n      swap1\n      sload\n      swap1\n      0x0100\n      exp\n      swap1\n      div\n      sub(shl(0xa0, 0x01), 0x01)\n      and\n      sub(shl(0xa0, 0x01), 0x01)\n      and\n      sub(shl(0xa0, 0x01), 0x01)\n      and\n      dup2\n      mstore\n      0x20\n      add\n      0x02\n      dup3\n      add\n      dup1\n      sload\n      tag_431\n      swap1\n      tag_285\n      jump\t// in\n    tag_431:\n      dup1\n      0x1f\n      add\n      0x20\n      dup1\n      swap2\n      div\n      mul\n      0x20\n      add\n      mload(0x40)\n      swap1\n      dup2\n      add\n      0x40\n      mstore\n      dup1\n      swap3\n      swap2\n      swap1\n      dup2\n      dup2\n      mstore\n      0x20\n      add\n      dup3\n      dup1\n      sload\n      tag_432\n      swap1\n      tag_285\n      jump\t// in\n    tag_432:\n      dup1\n      iszero\n      tag_433\n      jumpi\n      dup1\n      0x1f\n      lt\n      tag_434\n      jumpi\n      0x0100\n      dup1\n      dup4\n      sload\n      div\n      mul\n      dup4\n      mstore\n      swap2\n      0x20\n      add\n      swap2\n      jump(tag_433)\n    tag_434:\n      dup3\n      add\n      swap2\n      swap1\n      0x00\n      mstore\n      keccak256(0x00, 0x20)\n      swap1\n    tag_435:\n      dup2\n      sload\n      dup2\n      mstore\n      swap1\n      0x01\n      add\n      swap1\n      0x20\n      add\n      dup1\n      dup4\n      gt\n      tag_435\n      jumpi\n      dup3\n      swap1\n      sub\n      0x1f\n      and\n      dup3\n      add\n      swap2\n    tag_433:\n      pop\n      pop\n      pop\n      pop\n      pop\n      dup2\n      mstore\n      0x20\n      add\n      0x03\n      dup3\n      add\n      dup1\n      sload\n      tag_436\n      swap1\n      tag_285\n      jump\t// in\n    tag_436:\n      dup1\n      0x1f\n      add\n      0x20\n      dup1\n      swap2\n      div\n      mul\n      0x20\n      add\n      mload(0x40)\n      swap1\n      dup2\n      add\n      0x40\n      mstore\n      dup1\n      swap3\n      swap2\n      swap1\n      dup2\n      dup2\n      mstore\n      0x20\n      add\n      dup3\n      dup1\n      sload\n      tag_437\n      swap1\n      tag_285\n      jump\t// in\n    tag_437:\n      dup1\n      iszero\n      tag_438\n      jumpi\n      dup1\n      0x1f\n      lt\n      tag_439\n      jumpi\n      0x0100\n      dup1\n      dup4\n      sload\n      div\n      mul\n      dup4\n      mstore\n      swap2\n      0x20\n      add\n      swap2\n      jump(tag_438)\n    tag_439:\n      dup3\n      add\n      swap2\n      swap1\n      0x00\n      mstore\n      keccak256(0x00, 0x20)\n      swap1\n    tag_440:\n      dup2\n      sload\n      dup2\n      mstore\n      swap1\n      0x01\n      add\n      swap1\n      0x20\n      add\n      dup1\n      dup4\n      gt\n      tag_440\n      jumpi\n      dup3\n      swap1\n      sub\n      0x1f\n      and\n      dup3\n      add\n      swap2\n    tag_438:\n      pop\n      pop\n      pop\n      pop\n      pop\n      dup2\n      mstore\n      0x20\n      add\n      0x04\n      dup3\n      add\n      dup1\n      sload\n      tag_441\n      swap1\n      tag_285\n      jump\t// in\n    tag_441:\n      dup1\n      0x1f\n      add\n      0x20\n      dup1\n      swap2\n      div\n      mul\n      0x20\n      add\n      mload(0x40)\n      swap1\n      dup2\n      add\n      0x40\n      mstore\n      dup1\n      swap3\n      swap2\n      swap1\n      dup2\n      dup2\n      mstore\n      0x20\n      add\n      dup3\n      dup1\n      sload\n      tag_442\n      swap1\n      tag_285\n      jump\t// in\n    tag_442:\n      dup1\n      iszero\n      tag_443\n      jumpi\n      dup1\n      0x1f\n      lt\n      tag_444\n      jumpi\n      0x0100\n      dup1\n      dup4\n      sload\n      div\n      mul\n      dup4\n      mstore\n      swap2\n      0x20\n      add\n      swap2\n      jump(tag_443)\n    tag_444:\n      dup3\n      add\n      swap2\n      swap1\n      0x00\n      mstore\n      keccak256(0x00, 0x20)\n      swap1\n    tag_445:\n      dup2\n      sload\n      dup2\n      mstore\n      swap1\n      0x01\n      add\n      swap1\n      0x20\n      add\n      dup1\n      dup4\n      gt\n      tag_445\n      jumpi\n      dup3\n      swap1\n      sub\n      0x1f\n      and\n      dup3\n      add\n      swap2\n    tag_443:\n      pop\n      pop\n      pop\n      swap2\n      dup4\n      mstore\n      pop\n      pop\n      0x05\n      dup3\n      add\n      sload\n      0x20\n      dup3\n      add\n      mstore\n      0x06\n      dup3\n      add\n      sload\n      0x40\n      dup3\n      add\n      mstore\n      0x07\n      dup3\n      add\n      sload\n      0x60\n      dup3\n      add\n      mstore\n      0x08\n      dup3\n      add\n      sload\n      0x80\n      dup3\n      add\n      mstore\n      0x09\n      dup3\n      add\n      sload\n      0xff\n      dup1\n      dup3\n      and\n      iszero\n      iszero\n      0xa0\n      dup5\n      add\n      mstore\n      0x0100\n      dup1\n      dup4\n      div\n      dup3\n      and\n      iszero\n      iszero\n      0xc0\n      dup6\n      add\n      mstore\n      0x010000\n      swap1\n      swap3\n      div\n      dup2\n      and\n      iszero\n      iszero\n      0xe0\n      dup5\n      add\n      mstore\n      0x0a\n      dup5\n      add\n      sload\n      dup3\n      dup5\n      add\n      mstore\n      0x0b\n      swap1\n      swap4\n      add\n      sload\n      dup1\n      dup5\n      and\n      iszero\n      iszero\n      0x0120\n      dup5\n      add\n      mstore\n      div\n      swap1\n      swap2\n      and\n      iszero\n      iszero\n      0x0140\n      swap1\n      swap2\n      add\n      mstore\n        /* \"smart-contracts/StekcitBM.sol\":6460:6475  currentEvent.id */\n      dup1\n      mload\n        /* \"smart-contracts/StekcitBM.sol\":6382:6442  StekcitEvent memory currentEvent = allStekcitEvents[eventId] */\n      swap1\n      swap2\n      pop\n        /* \"smart-contracts/StekcitBM.sol\":6460:6487  currentEvent.id == _eventId */\n      dup6\n      eq\n        /* \"smart-contracts/StekcitBM.sol\":6456:6547  if (currentEvent.id == _eventId) {... */\n      iszero\n      tag_446\n      jumpi\n        /* \"smart-contracts/StekcitBM.sol\":6507:6532  numberOfTicketsOfEvents++ */\n      dup3\n      tag_447\n      dup2\n      tag_217\n      jump\t// in\n    tag_447:\n      swap4\n      pop\n      pop\n        /* \"smart-contracts/StekcitBM.sol\":6456:6547  if (currentEvent.id == _eventId) {... */\n    tag_446:\n      pop\n        /* \"smart-contracts/StekcitBM.sol\":6348:6357  eventId++ */\n      dup1\n      tag_448\n      dup2\n      tag_217\n      jump\t// in\n    tag_448:\n      swap2\n      pop\n      pop\n        /* \"smart-contracts/StekcitBM.sol\":6250:6557  for (... */\n      jump(tag_425)\n        /* \"smart-contracts/StekcitBM.sol\":14254:16174  function processPayout(uint256 _eventId)... */\n    tag_126:\n        /* \"smart-contracts/StekcitBM.sol\":14362:14382  StekcitPayout memory */\n      tag_449\n      tag_349\n      jump\t// in\n    tag_449:\n        /* \"smart-contracts/StekcitBM.sol\":14335:14343  _eventId */\n      dup2\n        /* \"smart-contracts/StekcitBM.sol\":858:912  checkIfUserisCreatingUserOfEvent(_eventId, msg.sender) */\n      tag_451\n        /* \"smart-contracts/StekcitBM.sol\":891:899  _eventId */\n      dup2\n        /* \"smart-contracts/StekcitBM.sol\":901:911  msg.sender */\n      caller\n        /* \"smart-contracts/StekcitBM.sol\":858:890  checkIfUserisCreatingUserOfEvent */\n      tag_118\n        /* \"smart-contracts/StekcitBM.sol\":858:912  checkIfUserisCreatingUserOfEvent(_eventId, msg.sender) */\n      jump\t// in\n    tag_451:\n        /* \"smart-contracts/StekcitBM.sol\":837:983  require(... */\n      tag_452\n      jumpi\n      mload(0x40)\n      shl(0xe5, 0x461bcd)\n      dup2\n      mstore\n      0x04\n      add\n      tag_240\n      swap1\n      tag_241\n      jump\t// in\n    tag_452:\n        /* \"smart-contracts/StekcitBM.sol\":14470:14506  StekcitEvent memory eventToBePaidOut */\n      0x00\n        /* \"smart-contracts/StekcitBM.sol\":14509:14525  allStekcitEvents */\n      0x01\n        /* \"smart-contracts/StekcitBM.sol\":14526:14534  _eventId */\n      dup5\n        /* \"smart-contracts/StekcitBM.sol\":14509:14535  allStekcitEvents[_eventId] */\n      dup2\n      sload\n      dup2\n      lt\n      tag_456\n      jumpi\n      tag_456\n      tag_211\n      jump\t// in\n    tag_456:\n      swap1\n      0x00\n      mstore\n      keccak256(0x00, 0x20)\n      swap1\n      0x0c\n      mul\n      add\n        /* \"smart-contracts/StekcitBM.sol\":14470:14535  StekcitEvent memory eventToBePaidOut = allStekcitEvents[_eventId] */\n      mload(0x40)\n      dup1\n      0x01e0\n      add\n      0x40\n      mstore\n      swap1\n      dup2\n      0x00\n      dup3\n      add\n      sload\n      dup2\n      mstore\n      0x20\n      add\n      0x01\n      dup3\n      add\n      0x00\n      swap1\n      sload\n      swap1\n      0x0100\n      exp\n      swap1\n      div\n      sub(shl(0xa0, 0x01), 0x01)\n      and\n      sub(shl(0xa0, 0x01), 0x01)\n      and\n      sub(shl(0xa0, 0x01), 0x01)\n      and\n      dup2\n      mstore\n      0x20\n      add\n      0x02\n      dup3\n      add\n      dup1\n      sload\n      tag_458\n      swap1\n      tag_285\n      jump\t// in\n    tag_458:\n      dup1\n      0x1f\n      add\n      0x20\n      dup1\n      swap2\n      div\n      mul\n      0x20\n      add\n      mload(0x40)\n      swap1\n      dup2\n      add\n      0x40\n      mstore\n      dup1\n      swap3\n      swap2\n      swap1\n      dup2\n      dup2\n      mstore\n      0x20\n      add\n      dup3\n      dup1\n      sload\n      tag_459\n      swap1\n      tag_285\n      jump\t// in\n    tag_459:\n      dup1\n      iszero\n      tag_460\n      jumpi\n      dup1\n      0x1f\n      lt\n      tag_461\n      jumpi\n      0x0100\n      dup1\n      dup4\n      sload\n      div\n      mul\n      dup4\n      mstore\n      swap2\n      0x20\n      add\n      swap2\n      jump(tag_460)\n    tag_461:\n      dup3\n      add\n      swap2\n      swap1\n      0x00\n      mstore\n      keccak256(0x00, 0x20)\n      swap1\n    tag_462:\n      dup2\n      sload\n      dup2\n      mstore\n      swap1\n      0x01\n      add\n      swap1\n      0x20\n      add\n      dup1\n      dup4\n      gt\n      tag_462\n      jumpi\n      dup3\n      swap1\n      sub\n      0x1f\n      and\n      dup3\n      add\n      swap2\n    tag_460:\n      pop\n      pop\n      pop\n      pop\n      pop\n      dup2\n      mstore\n      0x20\n      add\n      0x03\n      dup3\n      add\n      dup1\n      sload\n      tag_463\n      swap1\n      tag_285\n      jump\t// in\n    tag_463:\n      dup1\n      0x1f\n      add\n      0x20\n      dup1\n      swap2\n      div\n      mul\n      0x20\n      add\n      mload(0x40)\n      swap1\n      dup2\n      add\n      0x40\n      mstore\n      dup1\n      swap3\n      swap2\n      swap1\n      dup2\n      dup2\n      mstore\n      0x20\n      add\n      dup3\n      dup1\n      sload\n      tag_464\n      swap1\n      tag_285\n      jump\t// in\n    tag_464:\n      dup1\n      iszero\n      tag_465\n      jumpi\n      dup1\n      0x1f\n      lt\n      tag_466\n      jumpi\n      0x0100\n      dup1\n      dup4\n      sload\n      div\n      mul\n      dup4\n      mstore\n      swap2\n      0x20\n      add\n      swap2\n      jump(tag_465)\n    tag_466:\n      dup3\n      add\n      swap2\n      swap1\n      0x00\n      mstore\n      keccak256(0x00, 0x20)\n      swap1\n    tag_467:\n      dup2\n      sload\n      dup2\n      mstore\n      swap1\n      0x01\n      add\n      swap1\n      0x20\n      add\n      dup1\n      dup4\n      gt\n      tag_467\n      jumpi\n      dup3\n      swap1\n      sub\n      0x1f\n      and\n      dup3\n      add\n      swap2\n    tag_465:\n      pop\n      pop\n      pop\n      pop\n      pop\n      dup2\n      mstore\n      0x20\n      add\n      0x04\n      dup3\n      add\n      dup1\n      sload\n      tag_468\n      swap1\n      tag_285\n      jump\t// in\n    tag_468:\n      dup1\n      0x1f\n      add\n      0x20\n      dup1\n      swap2\n      div\n      mul\n      0x20\n      add\n      mload(0x40)\n      swap1\n      dup2\n      add\n      0x40\n      mstore\n      dup1\n      swap3\n      swap2\n      swap1\n      dup2\n      dup2\n      mstore\n      0x20\n      add\n      dup3\n      dup1\n      sload\n      tag_469\n      swap1\n      tag_285\n      jump\t// in\n    tag_469:\n      dup1\n      iszero\n      tag_470\n      jumpi\n      dup1\n      0x1f\n      lt\n      tag_471\n      jumpi\n      0x0100\n      dup1\n      dup4\n      sload\n      div\n      mul\n      dup4\n      mstore\n      swap2\n      0x20\n      add\n      swap2\n      jump(tag_470)\n    tag_471:\n      dup3\n      add\n      swap2\n      swap1\n      0x00\n      mstore\n      keccak256(0x00, 0x20)\n      swap1\n    tag_472:\n      dup2\n      sload\n      dup2\n      mstore\n      swap1\n      0x01\n      add\n      swap1\n      0x20\n      add\n      dup1\n      dup4\n      gt\n      tag_472\n      jumpi\n      dup3\n      swap1\n      sub\n      0x1f\n      and\n      dup3\n      add\n      swap2\n    tag_470:\n      pop\n      pop\n      pop\n      swap2\n      dup4\n      mstore\n      pop\n      pop\n      0x05\n      dup3\n      add\n      sload\n      0x20\n      dup3\n      add\n      mstore\n      0x06\n      dup3\n      add\n      sload\n      0x40\n      dup3\n      add\n      mstore\n      0x07\n      dup3\n      add\n      sload\n      0x60\n      dup3\n      add\n      mstore\n      0x08\n      dup3\n      add\n      sload\n      0x80\n      dup3\n      add\n      mstore\n      0x09\n      dup3\n      add\n      sload\n      0xff\n      dup1\n      dup3\n      and\n      iszero\n      iszero\n      0xa0\n      dup5\n      add\n      mstore\n      0x0100\n      dup1\n      dup4\n      div\n      dup3\n      and\n      iszero\n      iszero\n      0xc0\n      dup6\n      add\n      mstore\n      0x010000\n      swap1\n      swap3\n      div\n      dup2\n      and\n      iszero\n      iszero\n      0xe0\n      dup5\n      add\n      mstore\n      0x0a\n      dup5\n      add\n      sload\n      dup3\n      dup5\n      add\n      mstore\n      0x0b\n      swap1\n      swap4\n      add\n      sload\n      dup1\n      dup5\n      and\n      iszero\n      iszero\n      0x0120\n      dup5\n      add\n      mstore\n      div\n      swap1\n      swap2\n      and\n      iszero\n      iszero\n      0x0140\n      swap1\n      swap2\n      add\n      mstore\n      swap1\n      pop\n      0x00\n        /* \"smart-contracts/StekcitBM.sol\":14575:14613  checkIfEventIsAlreadyPaidOut(_eventId) */\n      tag_473\n        /* \"smart-contracts/StekcitBM.sol\":14604:14612  _eventId */\n      dup6\n        /* \"smart-contracts/StekcitBM.sol\":14575:14603  checkIfEventIsAlreadyPaidOut */\n      tag_61\n        /* \"smart-contracts/StekcitBM.sol\":14575:14613  checkIfEventIsAlreadyPaidOut(_eventId) */\n      jump\t// in\n    tag_473:\n        /* \"smart-contracts/StekcitBM.sol\":14546:14613  bool eventIsAlreadyPaidOut = checkIfEventIsAlreadyPaidOut(_eventId) */\n      swap1\n      pop\n        /* \"smart-contracts/StekcitBM.sol\":14624:14656  StekcitPayout memory blankPayout */\n      tag_474\n      tag_349\n      jump\t// in\n    tag_474:\n        /* \"smart-contracts/StekcitBM.sol\":14688:14692  true */\n      0x01\n        /* \"smart-contracts/StekcitBM.sol\":14666:14685  blankPayout.isBlank */\n      0xa0\n      dup3\n      add\n        /* \"smart-contracts/StekcitBM.sol\":14666:14692  blankPayout.isBlank = true */\n      mstore\n        /* \"smart-contracts/StekcitBM.sol\":14703:14773  if (eventIsAlreadyPaidOut) {... */\n      dup2\n      iszero\n      tag_475\n      jumpi\n        /* \"smart-contracts/StekcitBM.sol\":14751:14762  blankPayout */\n      swap4\n      pop\n        /* \"smart-contracts/StekcitBM.sol\":14744:14762  return blankPayout */\n      tag_242\n      swap2\n      pop\n      pop\n      jump\n        /* \"smart-contracts/StekcitBM.sol\":14703:14773  if (eventIsAlreadyPaidOut) {... */\n    tag_475:\n        /* \"smart-contracts/StekcitBM.sol\":14816:14841  uint256 amountPaidToEvent */\n      0x00\n        /* \"smart-contracts/StekcitBM.sol\":14844:14879  getTotalAmountPaidToEvent(_eventId) */\n      tag_476\n        /* \"smart-contracts/StekcitBM.sol\":14870:14878  _eventId */\n      dup8\n        /* \"smart-contracts/StekcitBM.sol\":14844:14869  getTotalAmountPaidToEvent */\n      tag_179\n        /* \"smart-contracts/StekcitBM.sol\":14844:14879  getTotalAmountPaidToEvent(_eventId) */\n      jump\t// in\n    tag_476:\n        /* \"smart-contracts/StekcitBM.sol\":14816:14879  uint256 amountPaidToEvent = getTotalAmountPaidToEvent(_eventId) */\n      swap1\n      pop\n        /* \"smart-contracts/StekcitBM.sol\":14889:14928  uint256 amountToBePaidOutToCreatingUser */\n      0x00\n        /* \"smart-contracts/StekcitBM.sol\":14957:14959  10 */\n      0x0a\n        /* \"smart-contracts/StekcitBM.sol\":14932:14953  amountPaidToEvent * 8 */\n      tag_477\n        /* \"smart-contracts/StekcitBM.sol\":14816:14879  uint256 amountPaidToEvent = getTotalAmountPaidToEvent(_eventId) */\n      dup4\n        /* \"smart-contracts/StekcitBM.sol\":14952:14953  8 */\n      0x08\n        /* \"smart-contracts/StekcitBM.sol\":14932:14953  amountPaidToEvent * 8 */\n      tag_396\n      jump\t// in\n    tag_477:\n        /* \"smart-contracts/StekcitBM.sol\":14931:14959  (amountPaidToEvent * 8) / 10 */\n      tag_478\n      swap2\n      swap1\n      tag_479\n      jump\t// in\n    tag_478:\n        /* \"smart-contracts/StekcitBM.sol\":14889:14959  uint256 amountToBePaidOutToCreatingUser = (amountPaidToEvent * 8) / 10 */\n      swap1\n      pop\n        /* \"smart-contracts/StekcitBM.sol\":14969:15016  uint256 amountToBePaidOutToCreatingUserInEthers */\n      0x00\n        /* \"smart-contracts/StekcitBM.sol\":15074:15078  CUSD */\n      0x09\n      0x00\n      swap1\n      sload\n      swap1\n      0x0100\n      exp\n      swap1\n      div\n      sub(shl(0xa0, 0x01), 0x01)\n      and\n      sub(shl(0xa0, 0x01), 0x01)\n        /* \"smart-contracts/StekcitBM.sol\":15074:15087  CUSD.decimals */\n      and\n      0x313ce567\n        /* \"smart-contracts/StekcitBM.sol\":15074:15089  CUSD.decimals() */\n      mload(0x40)\n      dup2\n      0xffffffff\n      and\n      0xe0\n      shl\n      dup2\n      mstore\n      0x04\n      add\n      0x20\n      mload(0x40)\n      dup1\n      dup4\n      sub\n      dup2\n      dup7\n      dup1\n      extcodesize\n      iszero\n      dup1\n      iszero\n      tag_480\n      jumpi\n      0x00\n      dup1\n      revert\n    tag_480:\n      pop\n      gas\n      staticcall\n      iszero\n      dup1\n      iszero\n      tag_482\n      jumpi\n      returndatasize\n      0x00\n      dup1\n      returndatacopy\n      revert(0x00, returndatasize)\n    tag_482:\n      pop\n      pop\n      pop\n      pop\n      mload(0x40)\n      returndatasize\n      not(0x1f)\n      0x1f\n      dup3\n      add\n      and\n      dup3\n      add\n      dup1\n      0x40\n      mstore\n      pop\n      dup2\n      add\n      swap1\n      tag_483\n      swap2\n      swap1\n      tag_392\n      jump\t// in\n    tag_483:\n        /* \"smart-contracts/StekcitBM.sol\":15070:15089  10**CUSD.decimals() */\n      tag_484\n      swap1\n        /* \"smart-contracts/StekcitBM.sol\":15070:15072  10 */\n      0x0a\n        /* \"smart-contracts/StekcitBM.sol\":15070:15089  10**CUSD.decimals() */\n      tag_394\n      jump\t// in\n    tag_484:\n        /* \"smart-contracts/StekcitBM.sol\":15019:15090  amountToBePaidOutToCreatingUser *... */\n      tag_485\n      swap1\n        /* \"smart-contracts/StekcitBM.sol\":15019:15050  amountToBePaidOutToCreatingUser */\n      dup4\n        /* \"smart-contracts/StekcitBM.sol\":15019:15090  amountToBePaidOutToCreatingUser *... */\n      tag_396\n      jump\t// in\n    tag_485:\n        /* \"smart-contracts/StekcitBM.sol\":15164:15168  CUSD */\n      sload(0x09)\n        /* \"smart-contracts/StekcitBM.sol\":15191:15233  eventToBePaidOut.creatingUserWalletAddress */\n      0x20\n      dup9\n      add\n      mload\n        /* \"smart-contracts/StekcitBM.sol\":15164:15296  CUSD.transfer(... */\n      mload(0x40)\n      shl(0xe0, 0xa9059cbb)\n      dup2\n      mstore\n      sub(shl(0xa0, 0x01), 0x01)\n        /* \"#utility.yul\":8654:8686   */\n      swap2\n      dup3\n      and\n        /* \"smart-contracts/StekcitBM.sol\":15164:15296  CUSD.transfer(... */\n      0x04\n      dup3\n      add\n        /* \"#utility.yul\":8636:8687   */\n      mstore\n        /* \"#utility.yul\":8703:8721   */\n      0x24\n      dup2\n      add\n        /* \"#utility.yul\":8696:8730   */\n      dup5\n      swap1\n      mstore\n        /* \"smart-contracts/StekcitBM.sol\":14969:15090  uint256 amountToBePaidOutToCreatingUserInEthers = amountToBePaidOutToCreatingUser *... */\n      swap3\n      swap4\n      pop\n        /* \"smart-contracts/StekcitBM.sol\":15138:15161  bool isCreatingUserPaid */\n      0x00\n      swap3\n        /* \"smart-contracts/StekcitBM.sol\":15164:15168  CUSD */\n      swap2\n      and\n      swap1\n        /* \"smart-contracts/StekcitBM.sol\":15164:15177  CUSD.transfer */\n      0xa9059cbb\n      swap1\n        /* \"#utility.yul\":8609:8627   */\n      0x44\n      add\n        /* \"smart-contracts/StekcitBM.sol\":15164:15296  CUSD.transfer(... */\n      0x20\n      mload(0x40)\n      dup1\n      dup4\n      sub\n      dup2\n      0x00\n      dup8\n      dup1\n      extcodesize\n      iszero\n      dup1\n      iszero\n      tag_487\n      jumpi\n      0x00\n      dup1\n      revert\n    tag_487:\n      pop\n      gas\n      call\n      iszero\n      dup1\n      iszero\n      tag_489\n      jumpi\n      returndatasize\n      0x00\n      dup1\n      returndatacopy\n      revert(0x00, returndatasize)\n    tag_489:\n      pop\n      pop\n      pop\n      pop\n      mload(0x40)\n      returndatasize\n      not(0x1f)\n      0x1f\n      dup3\n      add\n      and\n      dup3\n      add\n      dup1\n      0x40\n      mstore\n      pop\n      dup2\n      add\n      swap1\n      tag_490\n      swap2\n      swap1\n      tag_403\n      jump\t// in\n    tag_490:\n        /* \"smart-contracts/StekcitBM.sol\":15138:15296  bool isCreatingUserPaid = CUSD.transfer(... */\n      swap1\n      pop\n        /* \"smart-contracts/StekcitBM.sol\":15311:15329  isCreatingUserPaid */\n      dup1\n        /* \"smart-contracts/StekcitBM.sol\":15307:16139  if (isCreatingUserPaid) {... */\n      iszero\n      tag_491\n      jumpi\n        /* \"smart-contracts/StekcitBM.sol\":15345:15386  uint256 amountToBePaidOutToStekcitBMOwner */\n      0x00\n        /* \"smart-contracts/StekcitBM.sol\":15431:15433  10 */\n      0x0a\n        /* \"smart-contracts/StekcitBM.sol\":15390:15427  amountPaidToEvent *... */\n      tag_492\n        /* \"smart-contracts/StekcitBM.sol\":15390:15407  amountPaidToEvent */\n      dup7\n        /* \"smart-contracts/StekcitBM.sol\":15426:15427  2 */\n      0x02\n        /* \"smart-contracts/StekcitBM.sol\":15390:15427  amountPaidToEvent *... */\n      tag_396\n      jump\t// in\n    tag_492:\n        /* \"smart-contracts/StekcitBM.sol\":15389:15433  (amountPaidToEvent *... */\n      tag_493\n      swap2\n      swap1\n      tag_479\n      jump\t// in\n    tag_493:\n        /* \"smart-contracts/StekcitBM.sol\":15345:15433  uint256 amountToBePaidOutToStekcitBMOwner = (amountPaidToEvent *... */\n      swap1\n      pop\n        /* \"smart-contracts/StekcitBM.sol\":15490:15539  uint256 amountToBePaidOutToStekcitBMOwnerInEthers */\n      0x00\n        /* \"smart-contracts/StekcitBM.sol\":15603:15607  CUSD */\n      0x09\n      0x00\n      swap1\n      sload\n      swap1\n      0x0100\n      exp\n      swap1\n      div\n      sub(shl(0xa0, 0x01), 0x01)\n      and\n      sub(shl(0xa0, 0x01), 0x01)\n        /* \"smart-contracts/StekcitBM.sol\":15603:15616  CUSD.decimals */\n      and\n      0x313ce567\n        /* \"smart-contracts/StekcitBM.sol\":15603:15618  CUSD.decimals() */\n      mload(0x40)\n      dup2\n      0xffffffff\n      and\n      0xe0\n      shl\n      dup2\n      mstore\n      0x04\n      add\n      0x20\n      mload(0x40)\n      dup1\n      dup4\n      sub\n      dup2\n      dup7\n      dup1\n      extcodesize\n      iszero\n      dup1\n      iszero\n      tag_494\n      jumpi\n      0x00\n      dup1\n      revert\n    tag_494:\n      pop\n      gas\n      staticcall\n      iszero\n      dup1\n      iszero\n      tag_496\n      jumpi\n      returndatasize\n      0x00\n      dup1\n      returndatacopy\n      revert(0x00, returndatasize)\n    tag_496:\n      pop\n      pop\n      pop\n      pop\n      mload(0x40)\n      returndatasize\n      not(0x1f)\n      0x1f\n      dup3\n      add\n      and\n      dup3\n      add\n      dup1\n      0x40\n      mstore\n      pop\n      dup2\n      add\n      swap1\n      tag_497\n      swap2\n      swap1\n      tag_392\n      jump\t// in\n    tag_497:\n        /* \"smart-contracts/StekcitBM.sol\":15599:15618  10**CUSD.decimals() */\n      tag_498\n      swap1\n        /* \"smart-contracts/StekcitBM.sol\":15599:15601  10 */\n      0x0a\n        /* \"smart-contracts/StekcitBM.sol\":15599:15618  10**CUSD.decimals() */\n      tag_394\n      jump\t// in\n    tag_498:\n        /* \"smart-contracts/StekcitBM.sol\":15542:15619  amountToBePaidOutToStekcitBMOwner *... */\n      tag_499\n      swap1\n        /* \"smart-contracts/StekcitBM.sol\":15542:15575  amountToBePaidOutToStekcitBMOwner */\n      dup4\n        /* \"smart-contracts/StekcitBM.sol\":15542:15619  amountToBePaidOutToStekcitBMOwner *... */\n      tag_396\n      jump\t// in\n    tag_499:\n        /* \"smart-contracts/StekcitBM.sol\":15662:15666  CUSD */\n      sload(0x09)\n        /* \"smart-contracts/StekcitBM.sol\":15693:15714  stekcitBMOwnerAddress */\n      0x04\n      dup1\n      sload\n        /* \"smart-contracts/StekcitBM.sol\":15662:15787  CUSD.transfer(... */\n      mload(0x40)\n      shl(0xe0, 0xa9059cbb)\n      dup2\n      mstore\n      sub(shl(0xa0, 0x01), 0x01)\n        /* \"smart-contracts/StekcitBM.sol\":15693:15714  stekcitBMOwnerAddress */\n      swap2\n      dup3\n      and\n        /* \"smart-contracts/StekcitBM.sol\":15662:15787  CUSD.transfer(... */\n      swap3\n      dup2\n      add\n        /* \"#utility.yul\":8636:8687   */\n      swap3\n      swap1\n      swap3\n      mstore\n        /* \"#utility.yul\":8703:8721   */\n      0x24\n      dup3\n      add\n        /* \"#utility.yul\":8696:8730   */\n      dup5\n      swap1\n      mstore\n        /* \"smart-contracts/StekcitBM.sol\":15490:15619  uint256 amountToBePaidOutToStekcitBMOwnerInEthers = amountToBePaidOutToStekcitBMOwner *... */\n      swap3\n      swap4\n      pop\n        /* \"smart-contracts/StekcitBM.sol\":15634:15659  bool isStekcitBMOwnerPaid */\n      0x00\n      swap3\n        /* \"smart-contracts/StekcitBM.sol\":15662:15666  CUSD */\n      swap1\n      swap2\n      and\n      swap1\n        /* \"smart-contracts/StekcitBM.sol\":15662:15675  CUSD.transfer */\n      0xa9059cbb\n      swap1\n        /* \"#utility.yul\":8609:8627   */\n      0x44\n      add\n        /* \"smart-contracts/StekcitBM.sol\":15662:15787  CUSD.transfer(... */\n      0x20\n      mload(0x40)\n      dup1\n      dup4\n      sub\n      dup2\n      0x00\n      dup8\n      dup1\n      extcodesize\n      iszero\n      dup1\n      iszero\n      tag_501\n      jumpi\n      0x00\n      dup1\n      revert\n    tag_501:\n      pop\n      gas\n      call\n      iszero\n      dup1\n      iszero\n      tag_503\n      jumpi\n      returndatasize\n      0x00\n      dup1\n      returndatacopy\n      revert(0x00, returndatasize)\n    tag_503:\n      pop\n      pop\n      pop\n      pop\n      mload(0x40)\n      returndatasize\n      not(0x1f)\n      0x1f\n      dup3\n      add\n      and\n      dup3\n      add\n      dup1\n      0x40\n      mstore\n      pop\n      dup2\n      add\n      swap1\n      tag_504\n      swap2\n      swap1\n      tag_403\n      jump\t// in\n    tag_504:\n        /* \"smart-contracts/StekcitBM.sol\":15634:15787  bool isStekcitBMOwnerPaid = CUSD.transfer(... */\n      swap1\n      pop\n        /* \"smart-contracts/StekcitBM.sol\":15806:15826  isStekcitBMOwnerPaid */\n      dup1\n        /* \"smart-contracts/StekcitBM.sol\":15802:16080  if (isStekcitBMOwnerPaid) {... */\n      iszero\n      tag_505\n      jumpi\n        /* \"smart-contracts/StekcitBM.sol\":15885:15915  StekcitPayout memory newPayout */\n      0x00\n        /* \"smart-contracts/StekcitBM.sol\":15918:16031  createPayout(... */\n      tag_506\n        /* \"smart-contracts/StekcitBM.sol\":15952:15960  _eventId */\n      dup15\n        /* \"smart-contracts/StekcitBM.sol\":15982:16013  amountToBePaidOutToCreatingUser */\n      dup9\n        /* \"smart-contracts/StekcitBM.sol\":15918:15930  createPayout */\n      tag_152\n        /* \"smart-contracts/StekcitBM.sol\":15918:16031  createPayout(... */\n      jump\t// in\n    tag_506:\n        /* \"smart-contracts/StekcitBM.sol\":15885:16031  StekcitPayout memory newPayout = createPayout(... */\n      swap13\n      pop\n        /* \"smart-contracts/StekcitBM.sol\":16049:16065  return newPayout */\n      tag_242\n      swap11\n      pop\n      pop\n      pop\n      pop\n      pop\n      pop\n      pop\n      pop\n      pop\n      pop\n      pop\n      jump\n        /* \"smart-contracts/StekcitBM.sol\":15802:16080  if (isStekcitBMOwnerPaid) {... */\n    tag_505:\n        /* \"smart-contracts/StekcitBM.sol\":15331:16090  {... */\n      pop\n      pop\n      pop\n        /* \"smart-contracts/StekcitBM.sol\":15307:16139  if (isCreatingUserPaid) {... */\n      jump(tag_507)\n    tag_491:\n        /* \"smart-contracts/StekcitBM.sol\":16117:16128  blankPayout */\n      dup5\n        /* \"smart-contracts/StekcitBM.sol\":16110:16128  return blankPayout */\n      swap9\n      pop\n      pop\n      pop\n      pop\n      pop\n      pop\n      pop\n      pop\n      jump(tag_242)\n        /* \"smart-contracts/StekcitBM.sol\":15307:16139  if (isCreatingUserPaid) {... */\n    tag_507:\n      pop\n        /* \"smart-contracts/StekcitBM.sol\":16156:16167  blankPayout */\n      swap3\n      swap9\n        /* \"smart-contracts/StekcitBM.sol\":14254:16174  function processPayout(uint256 _eventId)... */\n      swap8\n      pop\n      pop\n      pop\n      pop\n      pop\n      pop\n      pop\n      pop\n      jump\t// out\n        /* \"smart-contracts/StekcitBM.sol\":1193:1663  function checkIfUserExists(address _walletAddress)... */\n    tag_130:\n        /* \"smart-contracts/StekcitBM.sol\":1289:1293  bool */\n      0x00\n      dup1\n        /* \"smart-contracts/StekcitBM.sol\":1309:1634  for (uint256 userId = 0; userId < allStekcitUsers.length; userId++) {... */\n    tag_509:\n        /* \"smart-contracts/StekcitBM.sol\":1343:1358  allStekcitUsers */\n      0x00\n        /* \"smart-contracts/StekcitBM.sol\":1343:1365  allStekcitUsers.length */\n      sload\n        /* \"smart-contracts/StekcitBM.sol\":1334:1365  userId < allStekcitUsers.length */\n      dup2\n      lt\n        /* \"smart-contracts/StekcitBM.sol\":1309:1634  for (uint256 userId = 0; userId < allStekcitUsers.length; userId++) {... */\n      iszero\n      tag_510\n      jumpi\n        /* \"smart-contracts/StekcitBM.sol\":1391:1421  StekcitUser memory currentUser */\n      0x00\n        /* \"smart-contracts/StekcitBM.sol\":1424:1439  allStekcitUsers */\n      dup1\n        /* \"smart-contracts/StekcitBM.sol\":1440:1446  userId */\n      dup3\n        /* \"smart-contracts/StekcitBM.sol\":1424:1447  allStekcitUsers[userId] */\n      dup2\n      sload\n      dup2\n      lt\n      tag_513\n      jumpi\n      tag_513\n      tag_211\n      jump\t// in\n    tag_513:\n      swap1\n      0x00\n      mstore\n      keccak256(0x00, 0x20)\n      swap1\n      0x05\n      mul\n      add\n        /* \"smart-contracts/StekcitBM.sol\":1391:1447  StekcitUser memory currentUser = allStekcitUsers[userId] */\n      mload(0x40)\n      dup1\n      0xc0\n      add\n      0x40\n      mstore\n      swap1\n      dup2\n      0x00\n      dup3\n      add\n      sload\n      dup2\n      mstore\n      0x20\n      add\n      0x01\n      dup3\n      add\n      0x00\n      swap1\n      sload\n      swap1\n      0x0100\n      exp\n      swap1\n      div\n      sub(shl(0xa0, 0x01), 0x01)\n      and\n      sub(shl(0xa0, 0x01), 0x01)\n      and\n      sub(shl(0xa0, 0x01), 0x01)\n      and\n      dup2\n      mstore\n      0x20\n      add\n      0x02\n      dup3\n      add\n      dup1\n      sload\n      tag_515\n      swap1\n      tag_285\n      jump\t// in\n    tag_515:\n      dup1\n      0x1f\n      add\n      0x20\n      dup1\n      swap2\n      div\n      mul\n      0x20\n      add\n      mload(0x40)\n      swap1\n      dup2\n      add\n      0x40\n      mstore\n      dup1\n      swap3\n      swap2\n      swap1\n      dup2\n      dup2\n      mstore\n      0x20\n      add\n      dup3\n      dup1\n      sload\n      tag_516\n      swap1\n      tag_285\n      jump\t// in\n    tag_516:\n      dup1\n      iszero\n      tag_517\n      jumpi\n      dup1\n      0x1f\n      lt\n      tag_518\n      jumpi\n      0x0100\n      dup1\n      dup4\n      sload\n      div\n      mul\n      dup4\n      mstore\n      swap2\n      0x20\n      add\n      swap2\n      jump(tag_517)\n    tag_518:\n      dup3\n      add\n      swap2\n      swap1\n      0x00\n      mstore\n      keccak256(0x00, 0x20)\n      swap1\n    tag_519:\n      dup2\n      sload\n      dup2\n      mstore\n      swap1\n      0x01\n      add\n      swap1\n      0x20\n      add\n      dup1\n      dup4\n      gt\n      tag_519\n      jumpi\n      dup3\n      swap1\n      sub\n      0x1f\n      and\n      dup3\n      add\n      swap2\n    tag_517:\n      pop\n      pop\n      pop\n      pop\n      pop\n      dup2\n      mstore\n      0x20\n      add\n      0x03\n      dup3\n      add\n      dup1\n      sload\n      tag_520\n      swap1\n      tag_285\n      jump\t// in\n    tag_520:\n      dup1\n      0x1f\n      add\n      0x20\n      dup1\n      swap2\n      div\n      mul\n      0x20\n      add\n      mload(0x40)\n      swap1\n      dup2\n      add\n      0x40\n      mstore\n      dup1\n      swap3\n      swap2\n      swap1\n      dup2\n      dup2\n      mstore\n      0x20\n      add\n      dup3\n      dup1\n      sload\n      tag_521\n      swap1\n      tag_285\n      jump\t// in\n    tag_521:\n      dup1\n      iszero\n      tag_522\n      jumpi\n      dup1\n      0x1f\n      lt\n      tag_523\n      jumpi\n      0x0100\n      dup1\n      dup4\n      sload\n      div\n      mul\n      dup4\n      mstore\n      swap2\n      0x20\n      add\n      swap2\n      jump(tag_522)\n    tag_523:\n      dup3\n      add\n      swap2\n      swap1\n      0x00\n      mstore\n      keccak256(0x00, 0x20)\n      swap1\n    tag_524:\n      dup2\n      sload\n      dup2\n      mstore\n      swap1\n      0x01\n      add\n      swap1\n      0x20\n      add\n      dup1\n      dup4\n      gt\n      tag_524\n      jumpi\n      dup3\n      swap1\n      sub\n      0x1f\n      and\n      dup3\n      add\n      swap2\n    tag_522:\n      pop\n      pop\n      pop\n      swap2\n      dup4\n      mstore\n      pop\n      pop\n      0x04\n      swap2\n      swap1\n      swap2\n      add\n      sload\n      0xff\n      dup1\n      dup3\n      and\n      iszero\n      iszero\n      0x20\n      dup1\n      dup6\n      add\n      swap2\n      swap1\n      swap2\n      mstore\n      0x0100\n      swap1\n      swap3\n      div\n      and\n      iszero\n      iszero\n      0x40\n      swap1\n      swap3\n      add\n      swap2\n      swap1\n      swap2\n      mstore\n        /* \"smart-contracts/StekcitBM.sol\":1482:1507  currentUser.walletAddress */\n      dup2\n      add\n      mload\n      swap1\n      swap2\n      pop\n      sub(shl(0xa0, 0x01), 0x01)\n        /* \"smart-contracts/StekcitBM.sol\":1482:1525  currentUser.walletAddress == _walletAddress */\n      dup6\n      dup2\n      and\n      swap2\n      and\n      eq\n        /* \"smart-contracts/StekcitBM.sol\":1482:1565  currentUser.walletAddress == _walletAddress &&... */\n      dup1\n      iszero\n      tag_525\n      jumpi\n      pop\n        /* \"smart-contracts/StekcitBM.sol\":1546:1557  currentUser */\n      dup1\n        /* \"smart-contracts/StekcitBM.sol\":1546:1565  currentUser.isBlank */\n      0xa0\n      add\n      mload\n        /* \"smart-contracts/StekcitBM.sol\":1545:1565  !currentUser.isBlank */\n      iszero\n        /* \"smart-contracts/StekcitBM.sol\":1482:1565  currentUser.walletAddress == _walletAddress &&... */\n    tag_525:\n        /* \"smart-contracts/StekcitBM.sol\":1461:1624  if (... */\n      iszero\n      tag_526\n      jumpi\n      pop\n        /* \"smart-contracts/StekcitBM.sol\":1605:1609  true */\n      0x01\n      swap4\n        /* \"smart-contracts/StekcitBM.sol\":1193:1663  function checkIfUserExists(address _walletAddress)... */\n      swap3\n      pop\n      pop\n      pop\n      jump\t// out\n        /* \"smart-contracts/StekcitBM.sol\":1461:1624  if (... */\n    tag_526:\n      pop\n        /* \"smart-contracts/StekcitBM.sol\":1367:1375  userId++ */\n      dup1\n      tag_527\n      dup2\n      tag_217\n      jump\t// in\n    tag_527:\n      swap2\n      pop\n      pop\n        /* \"smart-contracts/StekcitBM.sol\":1309:1634  for (uint256 userId = 0; userId < allStekcitUsers.length; userId++) {... */\n      jump(tag_509)\n    tag_510:\n      pop\n        /* \"smart-contracts/StekcitBM.sol\":1651:1656  false */\n      0x00\n      swap3\n        /* \"smart-contracts/StekcitBM.sol\":1193:1663  function checkIfUserExists(address _walletAddress)... */\n      swap2\n      pop\n      pop\n      jump\t// out\n        /* \"smart-contracts/StekcitBM.sol\":2708:3209  function getUserByWalletAddress(address _walletAddress)... */\n    tag_138:\n        /* \"smart-contracts/StekcitBM.sol\":2809:2827  StekcitUser memory */\n      tag_528\n      tag_305\n      jump\t// in\n    tag_528:\n        /* \"smart-contracts/StekcitBM.sol\":2848:2862  uint256 userId */\n      0x00\n        /* \"smart-contracts/StekcitBM.sol\":2843:3105  for (uint256 userId = 0; userId < allStekcitUsers.length; userId++) {... */\n    tag_530:\n        /* \"smart-contracts/StekcitBM.sol\":2877:2892  allStekcitUsers */\n      0x00\n        /* \"smart-contracts/StekcitBM.sol\":2877:2899  allStekcitUsers.length */\n      sload\n        /* \"smart-contracts/StekcitBM.sol\":2868:2899  userId < allStekcitUsers.length */\n      dup2\n      lt\n        /* \"smart-contracts/StekcitBM.sol\":2843:3105  for (uint256 userId = 0; userId < allStekcitUsers.length; userId++) {... */\n      iszero\n      tag_531\n      jumpi\n        /* \"smart-contracts/StekcitBM.sol\":2925:2955  StekcitUser memory currentUser */\n      0x00\n        /* \"smart-contracts/StekcitBM.sol\":2958:2973  allStekcitUsers */\n      dup1\n        /* \"smart-contracts/StekcitBM.sol\":2974:2980  userId */\n      dup3\n        /* \"smart-contracts/StekcitBM.sol\":2958:2981  allStekcitUsers[userId] */\n      dup2\n      sload\n      dup2\n      lt\n      tag_534\n      jumpi\n      tag_534\n      tag_211\n      jump\t// in\n    tag_534:\n      swap1\n      0x00\n      mstore\n      keccak256(0x00, 0x20)\n      swap1\n      0x05\n      mul\n      add\n        /* \"smart-contracts/StekcitBM.sol\":2925:2981  StekcitUser memory currentUser = allStekcitUsers[userId] */\n      mload(0x40)\n      dup1\n      0xc0\n      add\n      0x40\n      mstore\n      swap1\n      dup2\n      0x00\n      dup3\n      add\n      sload\n      dup2\n      mstore\n      0x20\n      add\n      0x01\n      dup3\n      add\n      0x00\n      swap1\n      sload\n      swap1\n      0x0100\n      exp\n      swap1\n      div\n      sub(shl(0xa0, 0x01), 0x01)\n      and\n      sub(shl(0xa0, 0x01), 0x01)\n      and\n      sub(shl(0xa0, 0x01), 0x01)\n      and\n      dup2\n      mstore\n      0x20\n      add\n      0x02\n      dup3\n      add\n      dup1\n      sload\n      tag_536\n      swap1\n      tag_285\n      jump\t// in\n    tag_536:\n      dup1\n      0x1f\n      add\n      0x20\n      dup1\n      swap2\n      div\n      mul\n      0x20\n      add\n      mload(0x40)\n      swap1\n      dup2\n      add\n      0x40\n      mstore\n      dup1\n      swap3\n      swap2\n      swap1\n      dup2\n      dup2\n      mstore\n      0x20\n      add\n      dup3\n      dup1\n      sload\n      tag_537\n      swap1\n      tag_285\n      jump\t// in\n    tag_537:\n      dup1\n      iszero\n      tag_538\n      jumpi\n      dup1\n      0x1f\n      lt\n      tag_539\n      jumpi\n      0x0100\n      dup1\n      dup4\n      sload\n      div\n      mul\n      dup4\n      mstore\n      swap2\n      0x20\n      add\n      swap2\n      jump(tag_538)\n    tag_539:\n      dup3\n      add\n      swap2\n      swap1\n      0x00\n      mstore\n      keccak256(0x00, 0x20)\n      swap1\n    tag_540:\n      dup2\n      sload\n      dup2\n      mstore\n      swap1\n      0x01\n      add\n      swap1\n      0x20\n      add\n      dup1\n      dup4\n      gt\n      tag_540\n      jumpi\n      dup3\n      swap1\n      sub\n      0x1f\n      and\n      dup3\n      add\n      swap2\n    tag_538:\n      pop\n      pop\n      pop\n      pop\n      pop\n      dup2\n      mstore\n      0x20\n      add\n      0x03\n      dup3\n      add\n      dup1\n      sload\n      tag_541\n      swap1\n      tag_285\n      jump\t// in\n    tag_541:\n      dup1\n      0x1f\n      add\n      0x20\n      dup1\n      swap2\n      div\n      mul\n      0x20\n      add\n      mload(0x40)\n      swap1\n      dup2\n      add\n      0x40\n      mstore\n      dup1\n      swap3\n      swap2\n      swap1\n      dup2\n      dup2\n      mstore\n      0x20\n      add\n      dup3\n      dup1\n      sload\n      tag_542\n      swap1\n      tag_285\n      jump\t// in\n    tag_542:\n      dup1\n      iszero\n      tag_543\n      jumpi\n      dup1\n      0x1f\n      lt\n      tag_544\n      jumpi\n      0x0100\n      dup1\n      dup4\n      sload\n      div\n      mul\n      dup4\n      mstore\n      swap2\n      0x20\n      add\n      swap2\n      jump(tag_543)\n    tag_544:\n      dup3\n      add\n      swap2\n      swap1\n      0x00\n      mstore\n      keccak256(0x00, 0x20)\n      swap1\n    tag_545:\n      dup2\n      sload\n      dup2\n      mstore\n      swap1\n      0x01\n      add\n      swap1\n      0x20\n      add\n      dup1\n      dup4\n      gt\n      tag_545\n      jumpi\n      dup3\n      swap1\n      sub\n      0x1f\n      and\n      dup3\n      add\n      swap2\n    tag_543:\n      pop\n      pop\n      pop\n      swap2\n      dup4\n      mstore\n      pop\n      pop\n      0x04\n      swap2\n      swap1\n      swap2\n      add\n      sload\n      0xff\n      dup1\n      dup3\n      and\n      iszero\n      iszero\n      0x20\n      dup1\n      dup6\n      add\n      swap2\n      swap1\n      swap2\n      mstore\n      0x0100\n      swap1\n      swap3\n      div\n      and\n      iszero\n      iszero\n      0x40\n      swap1\n      swap3\n      add\n      swap2\n      swap1\n      swap2\n      mstore\n        /* \"smart-contracts/StekcitBM.sol\":2999:3024  currentUser.walletAddress */\n      dup2\n      add\n      mload\n      swap1\n      swap2\n      pop\n      sub(shl(0xa0, 0x01), 0x01)\n        /* \"smart-contracts/StekcitBM.sol\":2999:3042  currentUser.walletAddress == _walletAddress */\n      dup6\n      dup2\n      and\n      swap2\n      and\n      eq\n        /* \"smart-contracts/StekcitBM.sol\":2995:3095  if (currentUser.walletAddress == _walletAddress) {... */\n      iszero\n      tag_546\n      jumpi\n        /* \"smart-contracts/StekcitBM.sol\":3069:3080  currentUser */\n      swap4\n        /* \"smart-contracts/StekcitBM.sol\":2708:3209  function getUserByWalletAddress(address _walletAddress)... */\n      swap3\n      pop\n      pop\n      pop\n      jump\t// out\n        /* \"smart-contracts/StekcitBM.sol\":2995:3095  if (currentUser.walletAddress == _walletAddress) {... */\n    tag_546:\n      pop\n        /* \"smart-contracts/StekcitBM.sol\":2901:2909  userId++ */\n      dup1\n      tag_547\n      dup2\n      tag_217\n      jump\t// in\n    tag_547:\n      swap2\n      pop\n      pop\n        /* \"smart-contracts/StekcitBM.sol\":2843:3105  for (uint256 userId = 0; userId < allStekcitUsers.length; userId++) {... */\n      jump(tag_530)\n    tag_531:\n      pop\n        /* \"smart-contracts/StekcitBM.sol\":3114:3142  StekcitUser memory blankUser */\n      tag_548\n      tag_305\n      jump\t// in\n    tag_548:\n        /* \"smart-contracts/StekcitBM.sol\":3172:3176  true */\n      0x01\n        /* \"smart-contracts/StekcitBM.sol\":3152:3169  blankUser.isBlank */\n      0xa0\n      dup3\n      add\n        /* \"smart-contracts/StekcitBM.sol\":3152:3176  blankUser.isBlank = true */\n      mstore\n        /* \"smart-contracts/StekcitBM.sol\":3152:3161  blankUser */\n      swap3\n        /* \"smart-contracts/StekcitBM.sol\":2708:3209  function getUserByWalletAddress(address _walletAddress)... */\n      swap2\n      pop\n      pop\n      jump\t// out\n        /* \"smart-contracts/StekcitBM.sol\":11526:12382  function getEventAttendees(uint256 _eventId)... */\n    tag_142:\n        /* \"smart-contracts/StekcitBM.sol\":11616:11636  StekcitUser[] memory */\n      0x60\n        /* \"smart-contracts/StekcitBM.sol\":11652:11673  uint256 runningUserId */\n      0x00\n        /* \"smart-contracts/StekcitBM.sol\":11688:11723  StekcitUser[] memory eventAttendees */\n      dup1\n        /* \"smart-contracts/StekcitBM.sol\":11757:11797  getTotalNumberOfTicketsOfEvent(_eventId) */\n      tag_550\n        /* \"smart-contracts/StekcitBM.sol\":11788:11796  _eventId */\n      dup5\n        /* \"smart-contracts/StekcitBM.sol\":11757:11787  getTotalNumberOfTicketsOfEvent */\n      tag_122\n        /* \"smart-contracts/StekcitBM.sol\":11757:11797  getTotalNumberOfTicketsOfEvent(_eventId) */\n      jump\t// in\n    tag_550:\n        /* \"smart-contracts/StekcitBM.sol\":11726:11807  new StekcitUser[](... */\n      0xffffffffffffffff\n      dup2\n      gt\n      iszero\n      tag_552\n      jumpi\n      tag_552\n      tag_201\n      jump\t// in\n    tag_552:\n      mload(0x40)\n      swap1\n      dup1\n      dup3\n      mstore\n      dup1\n      0x20\n      mul\n      0x20\n      add\n      dup3\n      add\n      0x40\n      mstore\n      dup1\n      iszero\n      tag_553\n      jumpi\n      dup2\n      0x20\n      add\n    tag_554:\n      tag_555\n      tag_305\n      jump\t// in\n    tag_555:\n      dup2\n      mstore\n      0x20\n      add\n      swap1\n      0x01\n      swap1\n      sub\n      swap1\n      dup2\n      tag_554\n      jumpi\n      swap1\n      pop\n    tag_553:\n      pop\n        /* \"smart-contracts/StekcitBM.sol\":11688:11807  StekcitUser[] memory eventAttendees = new StekcitUser[](... */\n      swap1\n      pop\n        /* \"smart-contracts/StekcitBM.sol\":11836:11852  uint256 ticketId */\n      0x00\n        /* \"smart-contracts/StekcitBM.sol\":11818:12344  for (... */\n    tag_556:\n        /* \"smart-contracts/StekcitBM.sol\":11881:11898  allStekcitTickets */\n      0x02\n        /* \"smart-contracts/StekcitBM.sol\":11881:11905  allStekcitTickets.length */\n      sload\n        /* \"smart-contracts/StekcitBM.sol\":11870:11905  ticketId < allStekcitTickets.length */\n      dup2\n      lt\n        /* \"smart-contracts/StekcitBM.sol\":11818:12344  for (... */\n      iszero\n      tag_207\n      jumpi\n        /* \"smart-contracts/StekcitBM.sol\":11954:11988  StekcitTicket memory currentTicket */\n      0x00\n        /* \"smart-contracts/StekcitBM.sol\":11991:12008  allStekcitTickets */\n      0x02\n        /* \"smart-contracts/StekcitBM.sol\":12009:12017  ticketId */\n      dup3\n        /* \"smart-contracts/StekcitBM.sol\":11991:12018  allStekcitTickets[ticketId] */\n      dup2\n      sload\n      dup2\n      lt\n      tag_560\n      jumpi\n      tag_560\n      tag_211\n      jump\t// in\n    tag_560:\n      0x00\n      swap2\n      dup3\n      mstore\n      0x20\n      swap2\n      dup3\n      swap1\n      keccak256\n        /* \"smart-contracts/StekcitBM.sol\":11954:12018  StekcitTicket memory currentTicket = allStekcitTickets[ticketId] */\n      0x40\n      dup1\n      mload\n      0x80\n      dup2\n      add\n      dup3\n      mstore\n        /* \"smart-contracts/StekcitBM.sol\":11991:12018  allStekcitTickets[ticketId] */\n      0x04\n      swap1\n      swap4\n      mul\n      swap1\n      swap2\n      add\n        /* \"smart-contracts/StekcitBM.sol\":11954:12018  StekcitTicket memory currentTicket = allStekcitTickets[ticketId] */\n      dup1\n      sload\n      dup4\n      mstore\n      0x01\n      dup2\n      add\n      sload\n      swap4\n      dup4\n      add\n      dup5\n      swap1\n      mstore\n      0x02\n      dup2\n      add\n      sload\n      sub(shl(0xa0, 0x01), 0x01)\n      and\n      swap2\n      dup4\n      add\n      swap2\n      swap1\n      swap2\n      mstore\n      0x03\n      add\n      sload\n      0x60\n      dup3\n      add\n      mstore\n      swap2\n      pop\n        /* \"smart-contracts/StekcitBM.sol\":12037:12070  currentTicket.eventId == _eventId */\n      dup7\n      eq\n        /* \"smart-contracts/StekcitBM.sol\":12033:12334  if (currentTicket.eventId == _eventId) {... */\n      iszero\n      tag_562\n      jumpi\n        /* \"smart-contracts/StekcitBM.sol\":12090:12120  StekcitUser memory currentUser */\n      0x00\n        /* \"smart-contracts/StekcitBM.sol\":12123:12225  getUserByWalletAddress(... */\n      tag_563\n        /* \"smart-contracts/StekcitBM.sol\":12167:12180  currentTicket */\n      dup3\n        /* \"smart-contracts/StekcitBM.sol\":12167:12207  currentTicket.attendingUserWalletAddress */\n      0x40\n      add\n      mload\n        /* \"smart-contracts/StekcitBM.sol\":12123:12145  getUserByWalletAddress */\n      tag_138\n        /* \"smart-contracts/StekcitBM.sol\":12123:12225  getUserByWalletAddress(... */\n      jump\t// in\n    tag_563:\n        /* \"smart-contracts/StekcitBM.sol\":12090:12225  StekcitUser memory currentUser = getUserByWalletAddress(... */\n      swap1\n      pop\n        /* \"smart-contracts/StekcitBM.sol\":12275:12286  currentUser */\n      dup1\n        /* \"smart-contracts/StekcitBM.sol\":12243:12257  eventAttendees */\n      dup5\n        /* \"smart-contracts/StekcitBM.sol\":12258:12271  runningUserId */\n      dup7\n        /* \"smart-contracts/StekcitBM.sol\":12243:12272  eventAttendees[runningUserId] */\n      dup2\n      mload\n      dup2\n      lt\n      tag_565\n      jumpi\n      tag_565\n      tag_211\n      jump\t// in\n    tag_565:\n      0x20\n      mul\n      0x20\n      add\n      add\n        /* \"smart-contracts/StekcitBM.sol\":12243:12286  eventAttendees[runningUserId] = currentUser */\n      dup2\n      swap1\n      mstore\n      pop\n        /* \"smart-contracts/StekcitBM.sol\":12304:12319  runningUserId++ */\n      dup5\n      dup1\n      tag_566\n      swap1\n      tag_217\n      jump\t// in\n    tag_566:\n      swap6\n      pop\n      pop\n        /* \"smart-contracts/StekcitBM.sol\":12072:12334  {... */\n      pop\n        /* \"smart-contracts/StekcitBM.sol\":12033:12334  if (currentTicket.eventId == _eventId) {... */\n    tag_562:\n      pop\n        /* \"smart-contracts/StekcitBM.sol\":11919:11929  ticketId++ */\n      dup1\n      tag_567\n      dup2\n      tag_217\n      jump\t// in\n    tag_567:\n      swap2\n      pop\n      pop\n        /* \"smart-contracts/StekcitBM.sol\":11818:12344  for (... */\n      jump(tag_556)\n        /* \"smart-contracts/StekcitBM.sol\":9826:10356  function getEventById(uint256 _eventId)... */\n    tag_147:\n        /* \"smart-contracts/StekcitBM.sol\":9911:9930  StekcitEvent memory */\n      tag_568\n      tag_252\n      jump\t// in\n    tag_568:\n        /* \"smart-contracts/StekcitBM.sol\":9964:9979  uint256 eventId */\n      0x00\n        /* \"smart-contracts/StekcitBM.sol\":9946:10247  for (... */\n    tag_570:\n        /* \"smart-contracts/StekcitBM.sol\":10007:10023  allStekcitEvents */\n      0x01\n        /* \"smart-contracts/StekcitBM.sol\":10007:10030  allStekcitEvents.length */\n      sload\n        /* \"smart-contracts/StekcitBM.sol\":9997:10030  eventId < allStekcitEvents.length */\n      dup2\n      lt\n        /* \"smart-contracts/StekcitBM.sol\":9946:10247  for (... */\n      iszero\n      tag_571\n      jumpi\n        /* \"smart-contracts/StekcitBM.sol\":10078:10110  StekcitEvent memory currentEvent */\n      0x00\n        /* \"smart-contracts/StekcitBM.sol\":10113:10129  allStekcitEvents */\n      0x01\n        /* \"smart-contracts/StekcitBM.sol\":10130:10137  eventId */\n      dup3\n        /* \"smart-contracts/StekcitBM.sol\":10113:10138  allStekcitEvents[eventId] */\n      dup2\n      sload\n      dup2\n      lt\n      tag_574\n      jumpi\n      tag_574\n      tag_211\n      jump\t// in\n    tag_574:\n      swap1\n      0x00\n      mstore\n      keccak256(0x00, 0x20)\n      swap1\n      0x0c\n      mul\n      add\n        /* \"smart-contracts/StekcitBM.sol\":10078:10138  StekcitEvent memory currentEvent = allStekcitEvents[eventId] */\n      mload(0x40)\n      dup1\n      0x01e0\n      add\n      0x40\n      mstore\n      swap1\n      dup2\n      0x00\n      dup3\n      add\n      sload\n      dup2\n      mstore\n      0x20\n      add\n      0x01\n      dup3\n      add\n      0x00\n      swap1\n      sload\n      swap1\n      0x0100\n      exp\n      swap1\n      div\n      sub(shl(0xa0, 0x01), 0x01)\n      and\n      sub(shl(0xa0, 0x01), 0x01)\n      and\n      sub(shl(0xa0, 0x01), 0x01)\n      and\n      dup2\n      mstore\n      0x20\n      add\n      0x02\n      dup3\n      add\n      dup1\n      sload\n      tag_576\n      swap1\n      tag_285\n      jump\t// in\n    tag_576:\n      dup1\n      0x1f\n      add\n      0x20\n      dup1\n      swap2\n      div\n      mul\n      0x20\n      add\n      mload(0x40)\n      swap1\n      dup2\n      add\n      0x40\n      mstore\n      dup1\n      swap3\n      swap2\n      swap1\n      dup2\n      dup2\n      mstore\n      0x20\n      add\n      dup3\n      dup1\n      sload\n      tag_577\n      swap1\n      tag_285\n      jump\t// in\n    tag_577:\n      dup1\n      iszero\n      tag_578\n      jumpi\n      dup1\n      0x1f\n      lt\n      tag_579\n      jumpi\n      0x0100\n      dup1\n      dup4\n      sload\n      div\n      mul\n      dup4\n      mstore\n      swap2\n      0x20\n      add\n      swap2\n      jump(tag_578)\n    tag_579:\n      dup3\n      add\n      swap2\n      swap1\n      0x00\n      mstore\n      keccak256(0x00, 0x20)\n      swap1\n    tag_580:\n      dup2\n      sload\n      dup2\n      mstore\n      swap1\n      0x01\n      add\n      swap1\n      0x20\n      add\n      dup1\n      dup4\n      gt\n      tag_580\n      jumpi\n      dup3\n      swap1\n      sub\n      0x1f\n      and\n      dup3\n      add\n      swap2\n    tag_578:\n      pop\n      pop\n      pop\n      pop\n      pop\n      dup2\n      mstore\n      0x20\n      add\n      0x03\n      dup3\n      add\n      dup1\n      sload\n      tag_581\n      swap1\n      tag_285\n      jump\t// in\n    tag_581:\n      dup1\n      0x1f\n      add\n      0x20\n      dup1\n      swap2\n      div\n      mul\n      0x20\n      add\n      mload(0x40)\n      swap1\n      dup2\n      add\n      0x40\n      mstore\n      dup1\n      swap3\n      swap2\n      swap1\n      dup2\n      dup2\n      mstore\n      0x20\n      add\n      dup3\n      dup1\n      sload\n      tag_582\n      swap1\n      tag_285\n      jump\t// in\n    tag_582:\n      dup1\n      iszero\n      tag_583\n      jumpi\n      dup1\n      0x1f\n      lt\n      tag_584\n      jumpi\n      0x0100\n      dup1\n      dup4\n      sload\n      div\n      mul\n      dup4\n      mstore\n      swap2\n      0x20\n      add\n      swap2\n      jump(tag_583)\n    tag_584:\n      dup3\n      add\n      swap2\n      swap1\n      0x00\n      mstore\n      keccak256(0x00, 0x20)\n      swap1\n    tag_585:\n      dup2\n      sload\n      dup2\n      mstore\n      swap1\n      0x01\n      add\n      swap1\n      0x20\n      add\n      dup1\n      dup4\n      gt\n      tag_585\n      jumpi\n      dup3\n      swap1\n      sub\n      0x1f\n      and\n      dup3\n      add\n      swap2\n    tag_583:\n      pop\n      pop\n      pop\n      pop\n      pop\n      dup2\n      mstore\n      0x20\n      add\n      0x04\n      dup3\n      add\n      dup1\n      sload\n      tag_586\n      swap1\n      tag_285\n      jump\t// in\n    tag_586:\n      dup1\n      0x1f\n      add\n      0x20\n      dup1\n      swap2\n      div\n      mul\n      0x20\n      add\n      mload(0x40)\n      swap1\n      dup2\n      add\n      0x40\n      mstore\n      dup1\n      swap3\n      swap2\n      swap1\n      dup2\n      dup2\n      mstore\n      0x20\n      add\n      dup3\n      dup1\n      sload\n      tag_587\n      swap1\n      tag_285\n      jump\t// in\n    tag_587:\n      dup1\n      iszero\n      tag_588\n      jumpi\n      dup1\n      0x1f\n      lt\n      tag_589\n      jumpi\n      0x0100\n      dup1\n      dup4\n      sload\n      div\n      mul\n      dup4\n      mstore\n      swap2\n      0x20\n      add\n      swap2\n      jump(tag_588)\n    tag_589:\n      dup3\n      add\n      swap2\n      swap1\n      0x00\n      mstore\n      keccak256(0x00, 0x20)\n      swap1\n    tag_590:\n      dup2\n      sload\n      dup2\n      mstore\n      swap1\n      0x01\n      add\n      swap1\n      0x20\n      add\n      dup1\n      dup4\n      gt\n      tag_590\n      jumpi\n      dup3\n      swap1\n      sub\n      0x1f\n      and\n      dup3\n      add\n      swap2\n    tag_588:\n      pop\n      pop\n      pop\n      swap2\n      dup4\n      mstore\n      pop\n      pop\n      0x05\n      dup3\n      add\n      sload\n      0x20\n      dup3\n      add\n      mstore\n      0x06\n      dup3\n      add\n      sload\n      0x40\n      dup3\n      add\n      mstore\n      0x07\n      dup3\n      add\n      sload\n      0x60\n      dup3\n      add\n      mstore\n      0x08\n      dup3\n      add\n      sload\n      0x80\n      dup3\n      add\n      mstore\n      0x09\n      dup3\n      add\n      sload\n      0xff\n      dup1\n      dup3\n      and\n      iszero\n      iszero\n      0xa0\n      dup5\n      add\n      mstore\n      0x0100\n      dup1\n      dup4\n      div\n      dup3\n      and\n      iszero\n      iszero\n      0xc0\n      dup6\n      add\n      mstore\n      0x010000\n      swap1\n      swap3\n      div\n      dup2\n      and\n      iszero\n      iszero\n      0xe0\n      dup5\n      add\n      mstore\n      0x0a\n      dup5\n      add\n      sload\n      dup3\n      dup5\n      add\n      mstore\n      0x0b\n      swap1\n      swap4\n      add\n      sload\n      dup1\n      dup5\n      and\n      iszero\n      iszero\n      0x0120\n      dup5\n      add\n      mstore\n      div\n      swap1\n      swap2\n      and\n      iszero\n      iszero\n      0x0140\n      swap1\n      swap2\n      add\n      mstore\n        /* \"smart-contracts/StekcitBM.sol\":10156:10171  currentEvent.id */\n      dup1\n      mload\n        /* \"smart-contracts/StekcitBM.sol\":10078:10138  StekcitEvent memory currentEvent = allStekcitEvents[eventId] */\n      swap1\n      swap2\n      pop\n        /* \"smart-contracts/StekcitBM.sol\":10156:10183  currentEvent.id == _eventId */\n      dup5\n      eq\n        /* \"smart-contracts/StekcitBM.sol\":10152:10237  if (currentEvent.id == _eventId) {... */\n      iszero\n      tag_591\n      jumpi\n        /* \"smart-contracts/StekcitBM.sol\":10210:10222  currentEvent */\n      swap4\n        /* \"smart-contracts/StekcitBM.sol\":9826:10356  function getEventById(uint256 _eventId)... */\n      swap3\n      pop\n      pop\n      pop\n      jump\t// out\n        /* \"smart-contracts/StekcitBM.sol\":10152:10237  if (currentEvent.id == _eventId) {... */\n    tag_591:\n      pop\n        /* \"smart-contracts/StekcitBM.sol\":10044:10053  eventId++ */\n      dup1\n      tag_592\n      dup2\n      tag_217\n      jump\t// in\n    tag_592:\n      swap2\n      pop\n      pop\n        /* \"smart-contracts/StekcitBM.sol\":9946:10247  for (... */\n      jump(tag_570)\n    tag_571:\n      pop\n        /* \"smart-contracts/StekcitBM.sol\":10257:10287  StekcitEvent memory blankEvent */\n      tag_593\n      tag_252\n      jump\t// in\n    tag_593:\n        /* \"smart-contracts/StekcitBM.sol\":10318:10322  true */\n      0x01\n        /* \"smart-contracts/StekcitBM.sol\":10297:10315  blankEvent.isBlank */\n      0x0120\n      dup3\n      add\n        /* \"smart-contracts/StekcitBM.sol\":10297:10322  blankEvent.isBlank = true */\n      mstore\n        /* \"smart-contracts/StekcitBM.sol\":10297:10307  blankEvent */\n      swap3\n        /* \"smart-contracts/StekcitBM.sol\":9826:10356  function getEventById(uint256 _eventId)... */\n      swap2\n      pop\n      pop\n      jump\t// out\n        /* \"smart-contracts/StekcitBM.sol\":16180:16676  function createPayout(uint256 _eventId, uint256 _amount)... */\n    tag_152:\n        /* \"smart-contracts/StekcitBM.sol\":16304:16324  StekcitPayout memory */\n      tag_594\n      tag_349\n      jump\t// in\n    tag_594:\n        /* \"smart-contracts/StekcitBM.sol\":16277:16285  _eventId */\n      dup3\n        /* \"smart-contracts/StekcitBM.sol\":858:912  checkIfUserisCreatingUserOfEvent(_eventId, msg.sender) */\n      tag_596\n        /* \"smart-contracts/StekcitBM.sol\":891:899  _eventId */\n      dup2\n        /* \"smart-contracts/StekcitBM.sol\":901:911  msg.sender */\n      caller\n        /* \"smart-contracts/StekcitBM.sol\":858:890  checkIfUserisCreatingUserOfEvent */\n      tag_118\n        /* \"smart-contracts/StekcitBM.sol\":858:912  checkIfUserisCreatingUserOfEvent(_eventId, msg.sender) */\n      jump\t// in\n    tag_596:\n        /* \"smart-contracts/StekcitBM.sol\":837:983  require(... */\n      tag_597\n      jumpi\n      mload(0x40)\n      shl(0xe5, 0x461bcd)\n      dup2\n      mstore\n      0x04\n      add\n      tag_240\n      swap1\n      tag_241\n      jump\t// in\n    tag_597:\n        /* \"smart-contracts/StekcitBM.sol\":16362:16377  currentPayoutId */\n      sload(0x08)\n        /* \"smart-contracts/StekcitBM.sol\":16424:16615  StekcitPayout(... */\n      0x40\n      dup1\n      mload\n      0xc0\n      dup2\n      add\n      dup3\n      mstore\n      dup3\n      dup2\n      mstore\n      0x20\n      dup2\n      add\n      dup8\n      dup2\n      mstore\n        /* \"smart-contracts/StekcitBM.sol\":16510:16520  msg.sender */\n      caller\n        /* \"smart-contracts/StekcitBM.sol\":16424:16615  StekcitPayout(... */\n      swap3\n      dup3\n      add\n      swap3\n      dup4\n      mstore\n      0x60\n      dup3\n      add\n      dup8\n      dup2\n      mstore\n        /* \"smart-contracts/StekcitBM.sol\":16563:16578  block.timestamp */\n      timestamp\n        /* \"smart-contracts/StekcitBM.sol\":16424:16615  StekcitPayout(... */\n      0x80\n      dup5\n      add\n      swap1\n      dup2\n      mstore\n      0x00\n      0xa0\n      dup6\n      add\n      dup2\n      dup2\n      mstore\n        /* \"smart-contracts/StekcitBM.sol\":16388:16405  allStekcitPayouts */\n      0x03\n        /* \"smart-contracts/StekcitBM.sol\":16388:16625  allStekcitPayouts.push(... */\n      dup1\n      sload\n        /* \"smart-contracts/StekcitBM.sol\":16424:16615  StekcitPayout(... */\n      0x01\n        /* \"smart-contracts/StekcitBM.sol\":16388:16625  allStekcitPayouts.push(... */\n      dup2\n      add\n      dup3\n      sstore\n      swap3\n      mstore\n      swap5\n      mload\n      0xc2575a0e9e593c00f959f8c92f12db2869c3395a3b0502d05e2516446f71f85b\n      0x06\n      swap1\n      swap3\n      mul\n      swap2\n      dup3\n      add\n      sstore\n      swap3\n      mload\n      0xc2575a0e9e593c00f959f8c92f12db2869c3395a3b0502d05e2516446f71f85c\n      dup5\n      add\n      sstore\n      swap4\n      mload\n      0xc2575a0e9e593c00f959f8c92f12db2869c3395a3b0502d05e2516446f71f85d\n      dup4\n      add\n      dup1\n      sload\n      not(sub(shl(0xa0, 0x01), 0x01))\n      and\n      sub(shl(0xa0, 0x01), 0x01)\n      swap1\n      swap3\n      and\n      swap2\n      swap1\n      swap2\n      or\n      swap1\n      sstore\n      mload\n      0xc2575a0e9e593c00f959f8c92f12db2869c3395a3b0502d05e2516446f71f85e\n      dup3\n      add\n      sstore\n      swap2\n      mload\n      0xc2575a0e9e593c00f959f8c92f12db2869c3395a3b0502d05e2516446f71f85f\n      dup4\n      add\n      sstore\n      mload\n      0xc2575a0e9e593c00f959f8c92f12db2869c3395a3b0502d05e2516446f71f860\n      swap1\n      swap2\n      add\n      dup1\n      sload\n      not(0xff)\n      and\n      swap2\n      iszero\n      iszero\n      swap2\n      swap1\n      swap2\n      or\n      swap1\n      sstore\n        /* \"smart-contracts/StekcitBM.sol\":16643:16669  getPayoutById(newPayoutId) */\n      tag_601\n        /* \"smart-contracts/StekcitBM.sol\":16362:16377  currentPayoutId */\n      dup2\n        /* \"smart-contracts/StekcitBM.sol\":16643:16656  getPayoutById */\n      tag_96\n        /* \"smart-contracts/StekcitBM.sol\":16643:16669  getPayoutById(newPayoutId) */\n      jump\t// in\n    tag_601:\n        /* \"smart-contracts/StekcitBM.sol\":16636:16669  return getPayoutById(newPayoutId) */\n      swap6\n        /* \"smart-contracts/StekcitBM.sol\":16180:16676  function createPayout(uint256 _eventId, uint256 _amount)... */\n      swap5\n      pop\n      pop\n      pop\n      pop\n      pop\n      jump\t// out\n        /* \"smart-contracts/StekcitBM.sol\":3690:4271  function getTotalNumberOfAllEventsCreatedByUser(address _walletAddress)... */\n    tag_156:\n        /* \"smart-contracts/StekcitBM.sol\":3807:3814  uint256 */\n      0x00\n      dup1\n      dup1\n        /* \"smart-contracts/StekcitBM.sol\":3880:4220  for (... */\n    tag_603:\n        /* \"smart-contracts/StekcitBM.sol\":3941:3957  allStekcitEvents */\n      0x01\n        /* \"smart-contracts/StekcitBM.sol\":3941:3964  allStekcitEvents.length */\n      sload\n        /* \"smart-contracts/StekcitBM.sol\":3931:3964  eventId < allStekcitEvents.length */\n      dup2\n      lt\n        /* \"smart-contracts/StekcitBM.sol\":3880:4220  for (... */\n      iszero\n      tag_279\n      jumpi\n        /* \"smart-contracts/StekcitBM.sol\":4012:4044  StekcitEvent memory currentEvent */\n      0x00\n        /* \"smart-contracts/StekcitBM.sol\":4047:4063  allStekcitEvents */\n      0x01\n        /* \"smart-contracts/StekcitBM.sol\":4064:4071  eventId */\n      dup3\n        /* \"smart-contracts/StekcitBM.sol\":4047:4072  allStekcitEvents[eventId] */\n      dup2\n      sload\n      dup2\n      lt\n      tag_607\n      jumpi\n      tag_607\n      tag_211\n      jump\t// in\n    tag_607:\n      swap1\n      0x00\n      mstore\n      keccak256(0x00, 0x20)\n      swap1\n      0x0c\n      mul\n      add\n        /* \"smart-contracts/StekcitBM.sol\":4012:4072  StekcitEvent memory currentEvent = allStekcitEvents[eventId] */\n      mload(0x40)\n      dup1\n      0x01e0\n      add\n      0x40\n      mstore\n      swap1\n      dup2\n      0x00\n      dup3\n      add\n      sload\n      dup2\n      mstore\n      0x20\n      add\n      0x01\n      dup3\n      add\n      0x00\n      swap1\n      sload\n      swap1\n      0x0100\n      exp\n      swap1\n      div\n      sub(shl(0xa0, 0x01), 0x01)\n      and\n      sub(shl(0xa0, 0x01), 0x01)\n      and\n      sub(shl(0xa0, 0x01), 0x01)\n      and\n      dup2\n      mstore\n      0x20\n      add\n      0x02\n      dup3\n      add\n      dup1\n      sload\n      tag_609\n      swap1\n      tag_285\n      jump\t// in\n    tag_609:\n      dup1\n      0x1f\n      add\n      0x20\n      dup1\n      swap2\n      div\n      mul\n      0x20\n      add\n      mload(0x40)\n      swap1\n      dup2\n      add\n      0x40\n      mstore\n      dup1\n      swap3\n      swap2\n      swap1\n      dup2\n      dup2\n      mstore\n      0x20\n      add\n      dup3\n      dup1\n      sload\n      tag_610\n      swap1\n      tag_285\n      jump\t// in\n    tag_610:\n      dup1\n      iszero\n      tag_611\n      jumpi\n      dup1\n      0x1f\n      lt\n      tag_612\n      jumpi\n      0x0100\n      dup1\n      dup4\n      sload\n      div\n      mul\n      dup4\n      mstore\n      swap2\n      0x20\n      add\n      swap2\n      jump(tag_611)\n    tag_612:\n      dup3\n      add\n      swap2\n      swap1\n      0x00\n      mstore\n      keccak256(0x00, 0x20)\n      swap1\n    tag_613:\n      dup2\n      sload\n      dup2\n      mstore\n      swap1\n      0x01\n      add\n      swap1\n      0x20\n      add\n      dup1\n      dup4\n      gt\n      tag_613\n      jumpi\n      dup3\n      swap1\n      sub\n      0x1f\n      and\n      dup3\n      add\n      swap2\n    tag_611:\n      pop\n      pop\n      pop\n      pop\n      pop\n      dup2\n      mstore\n      0x20\n      add\n      0x03\n      dup3\n      add\n      dup1\n      sload\n      tag_614\n      swap1\n      tag_285\n      jump\t// in\n    tag_614:\n      dup1\n      0x1f\n      add\n      0x20\n      dup1\n      swap2\n      div\n      mul\n      0x20\n      add\n      mload(0x40)\n      swap1\n      dup2\n      add\n      0x40\n      mstore\n      dup1\n      swap3\n      swap2\n      swap1\n      dup2\n      dup2\n      mstore\n      0x20\n      add\n      dup3\n      dup1\n      sload\n      tag_615\n      swap1\n      tag_285\n      jump\t// in\n    tag_615:\n      dup1\n      iszero\n      tag_616\n      jumpi\n      dup1\n      0x1f\n      lt\n      tag_617\n      jumpi\n      0x0100\n      dup1\n      dup4\n      sload\n      div\n      mul\n      dup4\n      mstore\n      swap2\n      0x20\n      add\n      swap2\n      jump(tag_616)\n    tag_617:\n      dup3\n      add\n      swap2\n      swap1\n      0x00\n      mstore\n      keccak256(0x00, 0x20)\n      swap1\n    tag_618:\n      dup2\n      sload\n      dup2\n      mstore\n      swap1\n      0x01\n      add\n      swap1\n      0x20\n      add\n      dup1\n      dup4\n      gt\n      tag_618\n      jumpi\n      dup3\n      swap1\n      sub\n      0x1f\n      and\n      dup3\n      add\n      swap2\n    tag_616:\n      pop\n      pop\n      pop\n      pop\n      pop\n      dup2\n      mstore\n      0x20\n      add\n      0x04\n      dup3\n      add\n      dup1\n      sload\n      tag_619\n      swap1\n      tag_285\n      jump\t// in\n    tag_619:\n      dup1\n      0x1f\n      add\n      0x20\n      dup1\n      swap2\n      div\n      mul\n      0x20\n      add\n      mload(0x40)\n      swap1\n      dup2\n      add\n      0x40\n      mstore\n      dup1\n      swap3\n      swap2\n      swap1\n      dup2\n      dup2\n      mstore\n      0x20\n      add\n      dup3\n      dup1\n      sload\n      tag_620\n      swap1\n      tag_285\n      jump\t// in\n    tag_620:\n      dup1\n      iszero\n      tag_621\n      jumpi\n      dup1\n      0x1f\n      lt\n      tag_622\n      jumpi\n      0x0100\n      dup1\n      dup4\n      sload\n      div\n      mul\n      dup4\n      mstore\n      swap2\n      0x20\n      add\n      swap2\n      jump(tag_621)\n    tag_622:\n      dup3\n      add\n      swap2\n      swap1\n      0x00\n      mstore\n      keccak256(0x00, 0x20)\n      swap1\n    tag_623:\n      dup2\n      sload\n      dup2\n      mstore\n      swap1\n      0x01\n      add\n      swap1\n      0x20\n      add\n      dup1\n      dup4\n      gt\n      tag_623\n      jumpi\n      dup3\n      swap1\n      sub\n      0x1f\n      and\n      dup3\n      add\n      swap2\n    tag_621:\n      pop\n      pop\n      pop\n      swap2\n      dup4\n      mstore\n      pop\n      pop\n      0x05\n      dup3\n      add\n      sload\n      0x20\n      dup1\n      dup4\n      add\n      swap2\n      swap1\n      swap2\n      mstore\n      0x06\n      dup4\n      add\n      sload\n      0x40\n      dup4\n      add\n      mstore\n      0x07\n      dup4\n      add\n      sload\n      0x60\n      dup4\n      add\n      mstore\n      0x08\n      dup4\n      add\n      sload\n      0x80\n      dup4\n      add\n      mstore\n      0x09\n      dup4\n      add\n      sload\n      0xff\n      dup1\n      dup3\n      and\n      iszero\n      iszero\n      0xa0\n      dup6\n      add\n      mstore\n      0x0100\n      dup1\n      dup4\n      div\n      dup3\n      and\n      iszero\n      iszero\n      0xc0\n      dup7\n      add\n      mstore\n      0x010000\n      swap1\n      swap3\n      div\n      dup2\n      and\n      iszero\n      iszero\n      0xe0\n      dup6\n      add\n      mstore\n      0x0a\n      dup6\n      add\n      sload\n      dup3\n      dup6\n      add\n      mstore\n      0x0b\n      swap1\n      swap5\n      add\n      sload\n      dup1\n      dup6\n      and\n      iszero\n      iszero\n      0x0120\n      dup6\n      add\n      mstore\n      div\n      swap1\n      swap3\n      and\n      iszero\n      iszero\n      0x0140\n      swap1\n      swap2\n      add\n      mstore\n        /* \"smart-contracts/StekcitBM.sol\":4090:4128  currentEvent.creatingUserWalletAddress */\n      dup2\n      add\n      mload\n      swap1\n      swap2\n      pop\n      sub(shl(0xa0, 0x01), 0x01)\n        /* \"smart-contracts/StekcitBM.sol\":4090:4146  currentEvent.creatingUserWalletAddress == _walletAddress */\n      dup7\n      dup2\n      and\n      swap2\n      and\n      eq\n        /* \"smart-contracts/StekcitBM.sol\":4086:4210  if (currentEvent.creatingUserWalletAddress == _walletAddress) {... */\n      iszero\n      tag_624\n      jumpi\n        /* \"smart-contracts/StekcitBM.sol\":4166:4195  numberOfEventsCreatedByUser++ */\n      dup3\n      tag_625\n      dup2\n      tag_217\n      jump\t// in\n    tag_625:\n      swap4\n      pop\n      pop\n        /* \"smart-contracts/StekcitBM.sol\":4086:4210  if (currentEvent.creatingUserWalletAddress == _walletAddress) {... */\n    tag_624:\n      pop\n        /* \"smart-contracts/StekcitBM.sol\":3978:3987  eventId++ */\n      dup1\n      tag_626\n      dup2\n      tag_217\n      jump\t// in\n    tag_626:\n      swap2\n      pop\n      pop\n        /* \"smart-contracts/StekcitBM.sol\":3880:4220  for (... */\n      jump(tag_603)\n        /* \"smart-contracts/StekcitBM.sol\":3215:3684  function getUserByUserId(uint256 _userId)... */\n    tag_160:\n        /* \"smart-contracts/StekcitBM.sol\":3302:3320  StekcitUser memory */\n      tag_627\n      tag_305\n      jump\t// in\n    tag_627:\n        /* \"smart-contracts/StekcitBM.sol\":3341:3355  uint256 userId */\n      0x00\n        /* \"smart-contracts/StekcitBM.sol\":3336:3580  for (uint256 userId = 0; userId < allStekcitUsers.length; userId++) {... */\n    tag_629:\n        /* \"smart-contracts/StekcitBM.sol\":3370:3385  allStekcitUsers */\n      0x00\n        /* \"smart-contracts/StekcitBM.sol\":3370:3392  allStekcitUsers.length */\n      sload\n        /* \"smart-contracts/StekcitBM.sol\":3361:3392  userId < allStekcitUsers.length */\n      dup2\n      lt\n        /* \"smart-contracts/StekcitBM.sol\":3336:3580  for (uint256 userId = 0; userId < allStekcitUsers.length; userId++) {... */\n      iszero\n      tag_531\n      jumpi\n        /* \"smart-contracts/StekcitBM.sol\":3418:3448  StekcitUser memory currentUser */\n      0x00\n        /* \"smart-contracts/StekcitBM.sol\":3451:3466  allStekcitUsers */\n      dup1\n        /* \"smart-contracts/StekcitBM.sol\":3467:3473  userId */\n      dup3\n        /* \"smart-contracts/StekcitBM.sol\":3451:3474  allStekcitUsers[userId] */\n      dup2\n      sload\n      dup2\n      lt\n      tag_633\n      jumpi\n      tag_633\n      tag_211\n      jump\t// in\n    tag_633:\n      swap1\n      0x00\n      mstore\n      keccak256(0x00, 0x20)\n      swap1\n      0x05\n      mul\n      add\n        /* \"smart-contracts/StekcitBM.sol\":3418:3474  StekcitUser memory currentUser = allStekcitUsers[userId] */\n      mload(0x40)\n      dup1\n      0xc0\n      add\n      0x40\n      mstore\n      swap1\n      dup2\n      0x00\n      dup3\n      add\n      sload\n      dup2\n      mstore\n      0x20\n      add\n      0x01\n      dup3\n      add\n      0x00\n      swap1\n      sload\n      swap1\n      0x0100\n      exp\n      swap1\n      div\n      sub(shl(0xa0, 0x01), 0x01)\n      and\n      sub(shl(0xa0, 0x01), 0x01)\n      and\n      sub(shl(0xa0, 0x01), 0x01)\n      and\n      dup2\n      mstore\n      0x20\n      add\n      0x02\n      dup3\n      add\n      dup1\n      sload\n      tag_635\n      swap1\n      tag_285\n      jump\t// in\n    tag_635:\n      dup1\n      0x1f\n      add\n      0x20\n      dup1\n      swap2\n      div\n      mul\n      0x20\n      add\n      mload(0x40)\n      swap1\n      dup2\n      add\n      0x40\n      mstore\n      dup1\n      swap3\n      swap2\n      swap1\n      dup2\n      dup2\n      mstore\n      0x20\n      add\n      dup3\n      dup1\n      sload\n      tag_636\n      swap1\n      tag_285\n      jump\t// in\n    tag_636:\n      dup1\n      iszero\n      tag_637\n      jumpi\n      dup1\n      0x1f\n      lt\n      tag_638\n      jumpi\n      0x0100\n      dup1\n      dup4\n      sload\n      div\n      mul\n      dup4\n      mstore\n      swap2\n      0x20\n      add\n      swap2\n      jump(tag_637)\n    tag_638:\n      dup3\n      add\n      swap2\n      swap1\n      0x00\n      mstore\n      keccak256(0x00, 0x20)\n      swap1\n    tag_639:\n      dup2\n      sload\n      dup2\n      mstore\n      swap1\n      0x01\n      add\n      swap1\n      0x20\n      add\n      dup1\n      dup4\n      gt\n      tag_639\n      jumpi\n      dup3\n      swap1\n      sub\n      0x1f\n      and\n      dup3\n      add\n      swap2\n    tag_637:\n      pop\n      pop\n      pop\n      pop\n      pop\n      dup2\n      mstore\n      0x20\n      add\n      0x03\n      dup3\n      add\n      dup1\n      sload\n      tag_640\n      swap1\n      tag_285\n      jump\t// in\n    tag_640:\n      dup1\n      0x1f\n      add\n      0x20\n      dup1\n      swap2\n      div\n      mul\n      0x20\n      add\n      mload(0x40)\n      swap1\n      dup2\n      add\n      0x40\n      mstore\n      dup1\n      swap3\n      swap2\n      swap1\n      dup2\n      dup2\n      mstore\n      0x20\n      add\n      dup3\n      dup1\n      sload\n      tag_641\n      swap1\n      tag_285\n      jump\t// in\n    tag_641:\n      dup1\n      iszero\n      tag_642\n      jumpi\n      dup1\n      0x1f\n      lt\n      tag_643\n      jumpi\n      0x0100\n      dup1\n      dup4\n      sload\n      div\n      mul\n      dup4\n      mstore\n      swap2\n      0x20\n      add\n      swap2\n      jump(tag_642)\n    tag_643:\n      dup3\n      add\n      swap2\n      swap1\n      0x00\n      mstore\n      keccak256(0x00, 0x20)\n      swap1\n    tag_644:\n      dup2\n      sload\n      dup2\n      mstore\n      swap1\n      0x01\n      add\n      swap1\n      0x20\n      add\n      dup1\n      dup4\n      gt\n      tag_644\n      jumpi\n      dup3\n      swap1\n      sub\n      0x1f\n      and\n      dup3\n      add\n      swap2\n    tag_642:\n      pop\n      pop\n      pop\n      swap2\n      dup4\n      mstore\n      pop\n      pop\n      0x04\n      swap2\n      swap1\n      swap2\n      add\n      sload\n      0xff\n      dup1\n      dup3\n      and\n      iszero\n      iszero\n      0x20\n      dup5\n      add\n      mstore\n      0x0100\n      swap1\n      swap2\n      div\n      and\n      iszero\n      iszero\n      0x40\n      swap1\n      swap2\n      add\n      mstore\n        /* \"smart-contracts/StekcitBM.sol\":3492:3506  currentUser.id */\n      dup1\n      mload\n        /* \"smart-contracts/StekcitBM.sol\":3418:3474  StekcitUser memory currentUser = allStekcitUsers[userId] */\n      swap1\n      swap2\n      pop\n        /* \"smart-contracts/StekcitBM.sol\":3492:3517  currentUser.id == _userId */\n      dup5\n      eq\n        /* \"smart-contracts/StekcitBM.sol\":3488:3570  if (currentUser.id == _userId) {... */\n      iszero\n      tag_645\n      jumpi\n        /* \"smart-contracts/StekcitBM.sol\":3544:3555  currentUser */\n      swap4\n        /* \"smart-contracts/StekcitBM.sol\":3215:3684  function getUserByUserId(uint256 _userId)... */\n      swap3\n      pop\n      pop\n      pop\n      jump\t// out\n        /* \"smart-contracts/StekcitBM.sol\":3488:3570  if (currentUser.id == _userId) {... */\n    tag_645:\n      pop\n        /* \"smart-contracts/StekcitBM.sol\":3394:3402  userId++ */\n      dup1\n      tag_646\n      dup2\n      tag_217\n      jump\t// in\n    tag_646:\n      swap2\n      pop\n      pop\n        /* \"smart-contracts/StekcitBM.sol\":3336:3580  for (uint256 userId = 0; userId < allStekcitUsers.length; userId++) {... */\n      jump(tag_629)\n        /* \"smart-contracts/StekcitBM.sol\":7441:7919  function getNumberOfAllPublishedEvents() public view returns (uint256) {... */\n    tag_163:\n        /* \"smart-contracts/StekcitBM.sol\":7503:7510  uint256 */\n      0x00\n      dup1\n      dup1\n        /* \"smart-contracts/StekcitBM.sol\":7568:7872  for (... */\n    tag_649:\n        /* \"smart-contracts/StekcitBM.sol\":7629:7645  allStekcitEvents */\n      0x01\n        /* \"smart-contracts/StekcitBM.sol\":7629:7652  allStekcitEvents.length */\n      sload\n        /* \"smart-contracts/StekcitBM.sol\":7619:7652  eventId < allStekcitEvents.length */\n      dup2\n      lt\n        /* \"smart-contracts/StekcitBM.sol\":7568:7872  for (... */\n      iszero\n      tag_242\n      jumpi\n        /* \"smart-contracts/StekcitBM.sol\":7700:7732  StekcitEvent memory currentEvent */\n      0x00\n        /* \"smart-contracts/StekcitBM.sol\":7735:7751  allStekcitEvents */\n      0x01\n        /* \"smart-contracts/StekcitBM.sol\":7752:7759  eventId */\n      dup3\n        /* \"smart-contracts/StekcitBM.sol\":7735:7760  allStekcitEvents[eventId] */\n      dup2\n      sload\n      dup2\n      lt\n      tag_653\n      jumpi\n      tag_653\n      tag_211\n      jump\t// in\n    tag_653:\n      swap1\n      0x00\n      mstore\n      keccak256(0x00, 0x20)\n      swap1\n      0x0c\n      mul\n      add\n        /* \"smart-contracts/StekcitBM.sol\":7700:7760  StekcitEvent memory currentEvent = allStekcitEvents[eventId] */\n      mload(0x40)\n      dup1\n      0x01e0\n      add\n      0x40\n      mstore\n      swap1\n      dup2\n      0x00\n      dup3\n      add\n      sload\n      dup2\n      mstore\n      0x20\n      add\n      0x01\n      dup3\n      add\n      0x00\n      swap1\n      sload\n      swap1\n      0x0100\n      exp\n      swap1\n      div\n      sub(shl(0xa0, 0x01), 0x01)\n      and\n      sub(shl(0xa0, 0x01), 0x01)\n      and\n      sub(shl(0xa0, 0x01), 0x01)\n      and\n      dup2\n      mstore\n      0x20\n      add\n      0x02\n      dup3\n      add\n      dup1\n      sload\n      tag_655\n      swap1\n      tag_285\n      jump\t// in\n    tag_655:\n      dup1\n      0x1f\n      add\n      0x20\n      dup1\n      swap2\n      div\n      mul\n      0x20\n      add\n      mload(0x40)\n      swap1\n      dup2\n      add\n      0x40\n      mstore\n      dup1\n      swap3\n      swap2\n      swap1\n      dup2\n      dup2\n      mstore\n      0x20\n      add\n      dup3\n      dup1\n      sload\n      tag_656\n      swap1\n      tag_285\n      jump\t// in\n    tag_656:\n      dup1\n      iszero\n      tag_657\n      jumpi\n      dup1\n      0x1f\n      lt\n      tag_658\n      jumpi\n      0x0100\n      dup1\n      dup4\n      sload\n      div\n      mul\n      dup4\n      mstore\n      swap2\n      0x20\n      add\n      swap2\n      jump(tag_657)\n    tag_658:\n      dup3\n      add\n      swap2\n      swap1\n      0x00\n      mstore\n      keccak256(0x00, 0x20)\n      swap1\n    tag_659:\n      dup2\n      sload\n      dup2\n      mstore\n      swap1\n      0x01\n      add\n      swap1\n      0x20\n      add\n      dup1\n      dup4\n      gt\n      tag_659\n      jumpi\n      dup3\n      swap1\n      sub\n      0x1f\n      and\n      dup3\n      add\n      swap2\n    tag_657:\n      pop\n      pop\n      pop\n      pop\n      pop\n      dup2\n      mstore\n      0x20\n      add\n      0x03\n      dup3\n      add\n      dup1\n      sload\n      tag_660\n      swap1\n      tag_285\n      jump\t// in\n    tag_660:\n      dup1\n      0x1f\n      add\n      0x20\n      dup1\n      swap2\n      div\n      mul\n      0x20\n      add\n      mload(0x40)\n      swap1\n      dup2\n      add\n      0x40\n      mstore\n      dup1\n      swap3\n      swap2\n      swap1\n      dup2\n      dup2\n      mstore\n      0x20\n      add\n      dup3\n      dup1\n      sload\n      tag_661\n      swap1\n      tag_285\n      jump\t// in\n    tag_661:\n      dup1\n      iszero\n      tag_662\n      jumpi\n      dup1\n      0x1f\n      lt\n      tag_663\n      jumpi\n      0x0100\n      dup1\n      dup4\n      sload\n      div\n      mul\n      dup4\n      mstore\n      swap2\n      0x20\n      add\n      swap2\n      jump(tag_662)\n    tag_663:\n      dup3\n      add\n      swap2\n      swap1\n      0x00\n      mstore\n      keccak256(0x00, 0x20)\n      swap1\n    tag_664:\n      dup2\n      sload\n      dup2\n      mstore\n      swap1\n      0x01\n      add\n      swap1\n      0x20\n      add\n      dup1\n      dup4\n      gt\n      tag_664\n      jumpi\n      dup3\n      swap1\n      sub\n      0x1f\n      and\n      dup3\n      add\n      swap2\n    tag_662:\n      pop\n      pop\n      pop\n      pop\n      pop\n      dup2\n      mstore\n      0x20\n      add\n      0x04\n      dup3\n      add\n      dup1\n      sload\n      tag_665\n      swap1\n      tag_285\n      jump\t// in\n    tag_665:\n      dup1\n      0x1f\n      add\n      0x20\n      dup1\n      swap2\n      div\n      mul\n      0x20\n      add\n      mload(0x40)\n      swap1\n      dup2\n      add\n      0x40\n      mstore\n      dup1\n      swap3\n      swap2\n      swap1\n      dup2\n      dup2\n      mstore\n      0x20\n      add\n      dup3\n      dup1\n      sload\n      tag_666\n      swap1\n      tag_285\n      jump\t// in\n    tag_666:\n      dup1\n      iszero\n      tag_667\n      jumpi\n      dup1\n      0x1f\n      lt\n      tag_668\n      jumpi\n      0x0100\n      dup1\n      dup4\n      sload\n      div\n      mul\n      dup4\n      mstore\n      swap2\n      0x20\n      add\n      swap2\n      jump(tag_667)\n    tag_668:\n      dup3\n      add\n      swap2\n      swap1\n      0x00\n      mstore\n      keccak256(0x00, 0x20)\n      swap1\n    tag_669:\n      dup2\n      sload\n      dup2\n      mstore\n      swap1\n      0x01\n      add\n      swap1\n      0x20\n      add\n      dup1\n      dup4\n      gt\n      tag_669\n      jumpi\n      dup3\n      swap1\n      sub\n      0x1f\n      and\n      dup3\n      add\n      swap2\n    tag_667:\n      pop\n      pop\n      pop\n      swap2\n      dup4\n      mstore\n      pop\n      pop\n      0x05\n      dup3\n      add\n      sload\n      0x20\n      dup3\n      add\n      mstore\n      0x06\n      dup3\n      add\n      sload\n      0x40\n      dup3\n      add\n      mstore\n      0x07\n      dup3\n      add\n      sload\n      0x60\n      dup3\n      add\n      mstore\n      0x08\n      dup3\n      add\n      sload\n      0x80\n      dup3\n      add\n      mstore\n      0x09\n      dup3\n      add\n      sload\n      0xff\n      dup1\n      dup3\n      and\n      iszero\n      iszero\n      0xa0\n      dup5\n      add\n      mstore\n      0x0100\n      dup1\n      dup4\n      div\n      dup3\n      and\n      iszero\n      iszero\n      0xc0\n      dup6\n      add\n      mstore\n      0x010000\n      swap1\n      swap3\n      div\n      dup2\n      and\n      iszero\n      iszero\n      0xe0\n      dup5\n      add\n      mstore\n      0x0a\n      dup5\n      add\n      sload\n      dup3\n      dup5\n      add\n      mstore\n      0x0b\n      swap1\n      swap4\n      add\n      sload\n      dup1\n      dup5\n      and\n      iszero\n      iszero\n      0x0120\n      dup5\n      add\n      mstore\n      div\n      swap1\n      swap2\n      and\n      iszero\n      iszero\n      0x0140\n      swap2\n      dup3\n      add\n      mstore\n        /* \"smart-contracts/StekcitBM.sol\":7778:7802  currentEvent.isPublished */\n      dup2\n      add\n      mload\n        /* \"smart-contracts/StekcitBM.sol\":7700:7760  StekcitEvent memory currentEvent = allStekcitEvents[eventId] */\n      swap1\n      swap2\n      pop\n        /* \"smart-contracts/StekcitBM.sol\":7774:7862  if (currentEvent.isPublished) {... */\n      iszero\n      tag_670\n      jumpi\n        /* \"smart-contracts/StekcitBM.sol\":7822:7847  numberOfPublishedEvents++ */\n      dup3\n      tag_671\n      dup2\n      tag_217\n      jump\t// in\n    tag_671:\n      swap4\n      pop\n      pop\n        /* \"smart-contracts/StekcitBM.sol\":7774:7862  if (currentEvent.isPublished) {... */\n    tag_670:\n      pop\n        /* \"smart-contracts/StekcitBM.sol\":7666:7675  eventId++ */\n      dup1\n      tag_672\n      dup2\n      tag_217\n      jump\t// in\n    tag_672:\n      swap2\n      pop\n      pop\n        /* \"smart-contracts/StekcitBM.sol\":7568:7872  for (... */\n      jump(tag_649)\n        /* \"smart-contracts/StekcitBM.sol\":17970:18305  function publishEvent(uint256 _eventId)... */\n    tag_167:\n        /* \"smart-contracts/StekcitBM.sol\":18042:18061  StekcitEvent memory */\n      tag_673\n      tag_252\n      jump\t// in\n    tag_673:\n        /* \"smart-contracts/StekcitBM.sol\":18077:18119  StekcitEvent memory eventToVerifyAndUpdate */\n      0x00\n        /* \"smart-contracts/StekcitBM.sol\":18122:18144  getEventById(_eventId) */\n      tag_675\n        /* \"smart-contracts/StekcitBM.sol\":18135:18143  _eventId */\n      dup4\n        /* \"smart-contracts/StekcitBM.sol\":18122:18134  getEventById */\n      tag_147\n        /* \"smart-contracts/StekcitBM.sol\":18122:18144  getEventById(_eventId) */\n      jump\t// in\n    tag_675:\n        /* \"smart-contracts/StekcitBM.sol\":18192:18196  true */\n      0x01\n        /* \"smart-contracts/StekcitBM.sol\":18155:18189  eventToVerifyAndUpdate.isPublished */\n      0x0140\n      dup3\n      add\n        /* \"smart-contracts/StekcitBM.sol\":18155:18196  eventToVerifyAndUpdate.isPublished = true */\n      dup2\n      swap1\n      mstore\n        /* \"smart-contracts/StekcitBM.sol\":18207:18233  allStekcitEvents[_eventId] */\n      dup1\n      sload\n        /* \"smart-contracts/StekcitBM.sol\":18077:18144  StekcitEvent memory eventToVerifyAndUpdate = getEventById(_eventId) */\n      swap2\n      swap3\n      pop\n      dup3\n      swap2\n        /* \"smart-contracts/StekcitBM.sol\":18224:18232  _eventId */\n      dup6\n      swap1\n        /* \"smart-contracts/StekcitBM.sol\":18207:18233  allStekcitEvents[_eventId] */\n      dup2\n      lt\n      tag_677\n      jumpi\n      tag_677\n      tag_211\n      jump\t// in\n    tag_677:\n      0x00\n      swap2\n      dup3\n      mstore\n      0x20\n      swap2\n      dup3\n      swap1\n      keccak256\n        /* \"smart-contracts/StekcitBM.sol\":18207:18258  allStekcitEvents[_eventId] = eventToVerifyAndUpdate */\n      dup4\n      mload\n        /* \"smart-contracts/StekcitBM.sol\":18207:18233  allStekcitEvents[_eventId] */\n      0x0c\n      swap3\n      swap1\n      swap3\n      mul\n      add\n        /* \"smart-contracts/StekcitBM.sol\":18207:18258  allStekcitEvents[_eventId] = eventToVerifyAndUpdate */\n      swap1\n      dup2\n      sstore\n      dup3\n      dup3\n      add\n      mload\n      0x01\n      dup3\n      add\n      dup1\n      sload\n      not(sub(shl(0xa0, 0x01), 0x01))\n      and\n      sub(shl(0xa0, 0x01), 0x01)\n      swap1\n      swap3\n      and\n      swap2\n      swap1\n      swap2\n      or\n      swap1\n      sstore\n      0x40\n      dup4\n      add\n      mload\n      dup1\n      mload\n        /* \"smart-contracts/StekcitBM.sol\":18207:18233  allStekcitEvents[_eventId] */\n      swap2\n      swap3\n        /* \"smart-contracts/StekcitBM.sol\":18207:18258  allStekcitEvents[_eventId] = eventToVerifyAndUpdate */\n      tag_679\n      swap3\n      0x02\n      dup6\n      add\n      swap3\n      swap1\n      swap2\n      add\n      swap1\n      tag_256\n      jump\t// in\n    tag_679:\n      pop\n      0x60\n      dup3\n      add\n      mload\n      dup1\n      mload\n      tag_680\n      swap2\n      0x03\n      dup5\n      add\n      swap2\n      0x20\n      swap1\n      swap2\n      add\n      swap1\n      tag_256\n      jump\t// in\n    tag_680:\n      pop\n      0x80\n      dup3\n      add\n      mload\n      dup1\n      mload\n      tag_681\n      swap2\n      0x04\n      dup5\n      add\n      swap2\n      0x20\n      swap1\n      swap2\n      add\n      swap1\n      tag_256\n      jump\t// in\n    tag_681:\n      pop\n      0xa0\n      dup3\n      add\n      mload\n      0x05\n      dup3\n      add\n      sstore\n      0xc0\n      dup3\n      add\n      mload\n      0x06\n      dup3\n      add\n      sstore\n      0xe0\n      dup3\n      add\n      mload\n      0x07\n      dup3\n      add\n      sstore\n      0x0100\n      dup1\n      dup4\n      add\n      mload\n      0x08\n      dup4\n      add\n      sstore\n      0x0120\n      dup4\n      add\n      mload\n      0x09\n      dup4\n      add\n      dup1\n      sload\n      0x0140\n      dup7\n      add\n      mload\n      0x0160\n      dup8\n      add\n      mload\n      iszero\n      iszero\n      0x010000\n      mul\n      not(0xff0000)\n      swap2\n      iszero\n      iszero\n      dup7\n      mul\n      not(0xff00)\n      swap6\n      iszero\n      iszero\n      dup7\n      and\n      not(0xffff)\n      swap5\n      dup6\n      and\n      or\n      or\n      swap2\n      swap1\n      swap2\n      and\n      or\n      swap1\n      swap2\n      sstore\n      0x0180\n      dup6\n      add\n      mload\n      0x0a\n      dup6\n      add\n      sstore\n      0x01a0\n      dup6\n      add\n      mload\n      0x0b\n      swap1\n      swap5\n      add\n      dup1\n      sload\n      0x01c0\n      swap1\n      swap7\n      add\n      mload\n      iszero\n      iszero\n      swap1\n      swap4\n      mul\n      swap4\n      iszero\n      iszero\n      swap1\n      swap2\n      and\n      swap4\n      and\n      swap3\n      swap1\n      swap3\n      or\n      or\n      swap1\n      sstore\n        /* \"smart-contracts/StekcitBM.sol\":18276:18298  eventToVerifyAndUpdate */\n      swap3\n        /* \"smart-contracts/StekcitBM.sol\":17970:18305  function publishEvent(uint256 _eventId)... */\n      swap2\n      pop\n      pop\n      jump\t// out\n        /* \"smart-contracts/StekcitBM.sol\":18531:18906  function increaseApprovalForStekcitBM(uint256 _increaseApprovalAmount)... */\n    tag_171:\n        /* \"smart-contracts/StekcitBM.sol\":18634:18638  bool */\n      0x00\n        /* \"smart-contracts/StekcitBM.sol\":18654:18692  uint256 increaseApprovalAmountInEthers */\n      dup1\n        /* \"smart-contracts/StekcitBM.sol\":18738:18742  CUSD */\n      0x09\n      0x00\n      swap1\n      sload\n      swap1\n      0x0100\n      exp\n      swap1\n      div\n      sub(shl(0xa0, 0x01), 0x01)\n      and\n      sub(shl(0xa0, 0x01), 0x01)\n        /* \"smart-contracts/StekcitBM.sol\":18738:18751  CUSD.decimals */\n      and\n      0x313ce567\n        /* \"smart-contracts/StekcitBM.sol\":18738:18753  CUSD.decimals() */\n      mload(0x40)\n      dup2\n      0xffffffff\n      and\n      0xe0\n      shl\n      dup2\n      mstore\n      0x04\n      add\n      0x20\n      mload(0x40)\n      dup1\n      dup4\n      sub\n      dup2\n      dup7\n      dup1\n      extcodesize\n      iszero\n      dup1\n      iszero\n      tag_683\n      jumpi\n      0x00\n      dup1\n      revert\n    tag_683:\n      pop\n      gas\n      staticcall\n      iszero\n      dup1\n      iszero\n      tag_685\n      jumpi\n      returndatasize\n      0x00\n      dup1\n      returndatacopy\n      revert(0x00, returndatasize)\n    tag_685:\n      pop\n      pop\n      pop\n      pop\n      mload(0x40)\n      returndatasize\n      not(0x1f)\n      0x1f\n      dup3\n      add\n      and\n      dup3\n      add\n      dup1\n      0x40\n      mstore\n      pop\n      dup2\n      add\n      swap1\n      tag_686\n      swap2\n      swap1\n      tag_392\n      jump\t// in\n    tag_686:\n        /* \"smart-contracts/StekcitBM.sol\":18734:18753  10**CUSD.decimals() */\n      tag_687\n      swap1\n        /* \"smart-contracts/StekcitBM.sol\":18734:18736  10 */\n      0x0a\n        /* \"smart-contracts/StekcitBM.sol\":18734:18753  10**CUSD.decimals() */\n      tag_394\n      jump\t// in\n    tag_687:\n        /* \"smart-contracts/StekcitBM.sol\":18695:18754  _increaseApprovalAmount *... */\n      tag_688\n      swap1\n        /* \"smart-contracts/StekcitBM.sol\":18695:18718  _increaseApprovalAmount */\n      dup5\n        /* \"smart-contracts/StekcitBM.sol\":18695:18754  _increaseApprovalAmount *... */\n      tag_396\n      jump\t// in\n    tag_688:\n        /* \"smart-contracts/StekcitBM.sol\":18784:18788  CUSD */\n      sload(0x09)\n        /* \"smart-contracts/StekcitBM.sol\":18784:18899  CUSD.increaseAllowance(... */\n      mload(0x40)\n      shl(0xe0, 0x39509351)\n      dup2\n      mstore\n        /* \"smart-contracts/StekcitBM.sol\":18832:18836  this */\n      address\n        /* \"smart-contracts/StekcitBM.sol\":18784:18899  CUSD.increaseAllowance(... */\n      0x04\n      dup3\n      add\n        /* \"#utility.yul\":8636:8687   */\n      mstore\n        /* \"#utility.yul\":8703:8721   */\n      0x24\n      dup2\n      add\n        /* \"#utility.yul\":8696:8730   */\n      dup4\n      swap1\n      mstore\n        /* \"smart-contracts/StekcitBM.sol\":18654:18754  uint256 increaseApprovalAmountInEthers = _increaseApprovalAmount *... */\n      swap2\n      swap3\n      pop\n      sub(shl(0xa0, 0x01), 0x01)\n        /* \"smart-contracts/StekcitBM.sol\":18784:18788  CUSD */\n      and\n      swap1\n        /* \"smart-contracts/StekcitBM.sol\":18784:18806  CUSD.increaseAllowance */\n      0x39509351\n      swap1\n        /* \"#utility.yul\":8609:8627   */\n      0x44\n      add\n        /* \"smart-contracts/StekcitBM.sol\":18784:18899  CUSD.increaseAllowance(... */\n      tag_397\n        /* \"#utility.yul\":8462:8736   */\n      jump\n        /* \"smart-contracts/StekcitBM.sol\":17419:17964  function verifyEvent(uint256 _eventId)... */\n    tag_175:\n        /* \"smart-contracts/StekcitBM.sol\":17490:17509  StekcitEvent memory */\n      tag_694\n      tag_252\n      jump\t// in\n    tag_694:\n        /* \"smart-contracts/StekcitBM.sol\":17525:17567  StekcitEvent memory eventToVerifyAndUpdate */\n      0x00\n        /* \"smart-contracts/StekcitBM.sol\":17570:17592  getEventById(_eventId) */\n      tag_696\n        /* \"smart-contracts/StekcitBM.sol\":17583:17591  _eventId */\n      dup4\n        /* \"smart-contracts/StekcitBM.sol\":17570:17582  getEventById */\n      tag_147\n        /* \"smart-contracts/StekcitBM.sol\":17570:17592  getEventById(_eventId) */\n      jump\t// in\n    tag_696:\n        /* \"smart-contracts/StekcitBM.sol\":17525:17592  StekcitEvent memory eventToVerifyAndUpdate = getEventById(_eventId) */\n      swap1\n      pop\n        /* \"smart-contracts/StekcitBM.sol\":17603:17629  uint256 verificationAmount */\n      0x00\n        /* \"smart-contracts/StekcitBM.sol\":17670:17672  10 */\n      0x0a\n        /* \"smart-contracts/StekcitBM.sol\":17633:17655  eventToVerifyAndUpdate */\n      dup3\n        /* \"smart-contracts/StekcitBM.sol\":17633:17662  eventToVerifyAndUpdate.amount */\n      0xa0\n      add\n      mload\n        /* \"smart-contracts/StekcitBM.sol\":17665:17666  1 */\n      0x01\n        /* \"smart-contracts/StekcitBM.sol\":17633:17666  eventToVerifyAndUpdate.amount * 1 */\n      tag_697\n      swap2\n      swap1\n      tag_396\n      jump\t// in\n    tag_697:\n        /* \"smart-contracts/StekcitBM.sol\":17632:17672  (eventToVerifyAndUpdate.amount * 1) / 10 */\n      tag_698\n      swap2\n      swap1\n      tag_479\n      jump\t// in\n    tag_698:\n        /* \"smart-contracts/StekcitBM.sol\":17718:17733  block.timestamp */\n      timestamp\n        /* \"smart-contracts/StekcitBM.sol\":17683:17715  eventToVerifyAndUpdate.updatedAt */\n      0xe0\n      dup5\n      add\n        /* \"smart-contracts/StekcitBM.sol\":17683:17733  eventToVerifyAndUpdate.updatedAt = block.timestamp */\n      mstore\n        /* \"smart-contracts/StekcitBM.sol\":17779:17783  true */\n      0x01\n        /* \"smart-contracts/StekcitBM.sol\":17743:17776  eventToVerifyAndUpdate.isVerified */\n      0x0160\n      dup5\n      add\n        /* \"smart-contracts/StekcitBM.sol\":17743:17783  eventToVerifyAndUpdate.isVerified = true */\n      dup2\n      swap1\n      mstore\n        /* \"smart-contracts/StekcitBM.sol\":17793:17834  eventToVerifyAndUpdate.verificationAmount */\n      0x0180\n      dup5\n      add\n        /* \"smart-contracts/StekcitBM.sol\":17793:17855  eventToVerifyAndUpdate.verificationAmount = verificationAmount */\n      dup3\n      swap1\n      mstore\n        /* \"smart-contracts/StekcitBM.sol\":17866:17892  allStekcitEvents[_eventId] */\n      dup1\n      sload\n        /* \"smart-contracts/StekcitBM.sol\":17603:17672  uint256 verificationAmount = (eventToVerifyAndUpdate.amount * 1) / 10 */\n      swap2\n      swap3\n      pop\n        /* \"smart-contracts/StekcitBM.sol\":17683:17705  eventToVerifyAndUpdate */\n      dup4\n      swap2\n        /* \"smart-contracts/StekcitBM.sol\":17883:17891  _eventId */\n      dup7\n      swap1\n        /* \"smart-contracts/StekcitBM.sol\":17866:17892  allStekcitEvents[_eventId] */\n      dup2\n      lt\n      tag_700\n      jumpi\n      tag_700\n      tag_211\n      jump\t// in\n    tag_700:\n      0x00\n      swap2\n      dup3\n      mstore\n      0x20\n      swap2\n      dup3\n      swap1\n      keccak256\n        /* \"smart-contracts/StekcitBM.sol\":17866:17917  allStekcitEvents[_eventId] = eventToVerifyAndUpdate */\n      dup4\n      mload\n        /* \"smart-contracts/StekcitBM.sol\":17866:17892  allStekcitEvents[_eventId] */\n      0x0c\n      swap3\n      swap1\n      swap3\n      mul\n      add\n        /* \"smart-contracts/StekcitBM.sol\":17866:17917  allStekcitEvents[_eventId] = eventToVerifyAndUpdate */\n      swap1\n      dup2\n      sstore\n      dup3\n      dup3\n      add\n      mload\n      0x01\n      dup3\n      add\n      dup1\n      sload\n      not(sub(shl(0xa0, 0x01), 0x01))\n      and\n      sub(shl(0xa0, 0x01), 0x01)\n      swap1\n      swap3\n      and\n      swap2\n      swap1\n      swap2\n      or\n      swap1\n      sstore\n      0x40\n      dup4\n      add\n      mload\n      dup1\n      mload\n        /* \"smart-contracts/StekcitBM.sol\":17866:17892  allStekcitEvents[_eventId] */\n      swap2\n      swap3\n        /* \"smart-contracts/StekcitBM.sol\":17866:17917  allStekcitEvents[_eventId] = eventToVerifyAndUpdate */\n      tag_702\n      swap3\n      0x02\n      dup6\n      add\n      swap3\n      swap1\n      swap2\n      add\n      swap1\n      tag_256\n      jump\t// in\n    tag_702:\n      pop\n      0x60\n      dup3\n      add\n      mload\n      dup1\n      mload\n      tag_703\n      swap2\n      0x03\n      dup5\n      add\n      swap2\n      0x20\n      swap1\n      swap2\n      add\n      swap1\n      tag_256\n      jump\t// in\n    tag_703:\n      pop\n      0x80\n      dup3\n      add\n      mload\n      dup1\n      mload\n      tag_704\n      swap2\n      0x04\n      dup5\n      add\n      swap2\n      0x20\n      swap1\n      swap2\n      add\n      swap1\n      tag_256\n      jump\t// in\n    tag_704:\n      pop\n      0xa0\n      dup3\n      add\n      mload\n      0x05\n      dup3\n      add\n      sstore\n      0xc0\n      dup3\n      add\n      mload\n      0x06\n      dup3\n      add\n      sstore\n      0xe0\n      dup3\n      add\n      mload\n      0x07\n      dup3\n      add\n      sstore\n      0x0100\n      dup1\n      dup4\n      add\n      mload\n      0x08\n      dup4\n      add\n      sstore\n      0x0120\n      dup4\n      add\n      mload\n      0x09\n      dup4\n      add\n      dup1\n      sload\n      0x0140\n      dup7\n      add\n      mload\n      0x0160\n      dup8\n      add\n      mload\n      iszero\n      iszero\n      0x010000\n      mul\n      not(0xff0000)\n      swap2\n      iszero\n      iszero\n      dup7\n      mul\n      not(0xff00)\n      swap6\n      iszero\n      iszero\n      dup7\n      and\n      not(0xffff)\n      swap5\n      dup6\n      and\n      or\n      or\n      swap2\n      swap1\n      swap2\n      and\n      or\n      swap1\n      swap2\n      sstore\n      0x0180\n      dup6\n      add\n      mload\n      0x0a\n      dup6\n      add\n      sstore\n      0x01a0\n      dup6\n      add\n      mload\n      0x0b\n      swap1\n      swap5\n      add\n      dup1\n      sload\n      0x01c0\n      swap1\n      swap7\n      add\n      mload\n      iszero\n      iszero\n      swap1\n      swap4\n      mul\n      swap4\n      iszero\n      iszero\n      swap1\n      swap2\n      and\n      swap4\n      and\n      swap3\n      swap1\n      swap3\n      or\n      or\n      swap1\n      sstore\n      pop\n        /* \"smart-contracts/StekcitBM.sol\":17935:17957  eventToVerifyAndUpdate */\n      swap3\n        /* \"smart-contracts/StekcitBM.sol\":17419:17964  function verifyEvent(uint256 _eventId)... */\n      swap2\n      pop\n      pop\n      jump\t// out\n        /* \"smart-contracts/StekcitBM.sol\":16853:17413  function getTotalAmountPaidToEvent(uint256 _eventId)... */\n    tag_179:\n        /* \"smart-contracts/StekcitBM.sol\":16951:16958  uint256 */\n      0x00\n      dup1\n      dup1\n        /* \"smart-contracts/StekcitBM.sol\":17051:17103  getAllTicketsOfEvent(... */\n      tag_706\n        /* \"smart-contracts/StekcitBM.sol\":17085:17093  _eventId */\n      dup5\n        /* \"smart-contracts/StekcitBM.sol\":17051:17071  getAllTicketsOfEvent */\n      tag_57\n        /* \"smart-contracts/StekcitBM.sol\":17051:17103  getAllTicketsOfEvent(... */\n      jump\t// in\n    tag_706:\n        /* \"smart-contracts/StekcitBM.sol\":17008:17103  StekcitTicket[] memory allTicketsOfEvent = getAllTicketsOfEvent(... */\n      swap1\n      pop\n        /* \"smart-contracts/StekcitBM.sol\":17132:17148  uint256 ticketId */\n      0x00\n        /* \"smart-contracts/StekcitBM.sol\":17114:17378  for (... */\n    tag_707:\n        /* \"smart-contracts/StekcitBM.sol\":17177:17194  allTicketsOfEvent */\n      dup2\n        /* \"smart-contracts/StekcitBM.sol\":17177:17201  allTicketsOfEvent.length */\n      mload\n        /* \"smart-contracts/StekcitBM.sol\":17166:17174  ticketId */\n      dup2\n        /* \"smart-contracts/StekcitBM.sol\":17166:17201  ticketId < allTicketsOfEvent.length */\n      lt\n        /* \"smart-contracts/StekcitBM.sol\":17114:17378  for (... */\n      iszero\n      tag_708\n      jumpi\n        /* \"smart-contracts/StekcitBM.sol\":17250:17284  StekcitTicket memory currentTicket */\n      0x00\n        /* \"smart-contracts/StekcitBM.sol\":17287:17304  allTicketsOfEvent */\n      dup3\n        /* \"smart-contracts/StekcitBM.sol\":17305:17313  ticketId */\n      dup3\n        /* \"smart-contracts/StekcitBM.sol\":17287:17314  allTicketsOfEvent[ticketId] */\n      dup2\n      mload\n      dup2\n      lt\n      tag_711\n      jumpi\n      tag_711\n      tag_211\n      jump\t// in\n    tag_711:\n      0x20\n      mul\n      0x20\n      add\n      add\n      mload\n        /* \"smart-contracts/StekcitBM.sol\":17250:17314  StekcitTicket memory currentTicket = allTicketsOfEvent[ticketId] */\n      swap1\n      pop\n        /* \"smart-contracts/StekcitBM.sol\":17343:17356  currentTicket */\n      dup1\n        /* \"smart-contracts/StekcitBM.sol\":17343:17367  currentTicket.amountPaid */\n      0x60\n      add\n      mload\n        /* \"smart-contracts/StekcitBM.sol\":17328:17367  totalAmount += currentTicket.amountPaid */\n      dup5\n      tag_712\n      swap2\n      swap1\n      tag_713\n      jump\t// in\n    tag_712:\n      swap4\n      pop\n        /* \"smart-contracts/StekcitBM.sol\":17236:17378  {... */\n      pop\n        /* \"smart-contracts/StekcitBM.sol\":17215:17225  ticketId++ */\n      dup1\n      dup1\n      tag_714\n      swap1\n      tag_217\n      jump\t// in\n    tag_714:\n      swap2\n      pop\n      pop\n        /* \"smart-contracts/StekcitBM.sol\":17114:17378  for (... */\n      jump(tag_707)\n    tag_708:\n      pop\n        /* \"smart-contracts/StekcitBM.sol\":17395:17406  totalAmount */\n      swap1\n      swap4\n        /* \"smart-contracts/StekcitBM.sol\":16853:17413  function getTotalAmountPaidToEvent(uint256 _eventId)... */\n      swap3\n      pop\n      pop\n      pop\n      jump\t// out\n        /* \"smart-contracts/StekcitBM.sol\":12584:12705  function payForEvent(uint256 _amount) public returns (bool) {... */\n    tag_183:\n        /* \"smart-contracts/StekcitBM.sol\":12661:12665  CUSD */\n      sload(0x09)\n        /* \"smart-contracts/StekcitBM.sol\":12661:12698  CUSD.transfer(address(this), _amount) */\n      mload(0x40)\n      shl(0xe0, 0xa9059cbb)\n      dup2\n      mstore\n        /* \"smart-contracts/StekcitBM.sol\":12683:12687  this */\n      address\n        /* \"smart-contracts/StekcitBM.sol\":12661:12698  CUSD.transfer(address(this), _amount) */\n      0x04\n      dup3\n      add\n        /* \"#utility.yul\":8636:8687   */\n      mstore\n        /* \"#utility.yul\":8703:8721   */\n      0x24\n      dup2\n      add\n        /* \"#utility.yul\":8696:8730   */\n      dup4\n      swap1\n      mstore\n        /* \"smart-contracts/StekcitBM.sol\":12638:12642  bool */\n      0x00\n      swap2\n      sub(shl(0xa0, 0x01), 0x01)\n        /* \"smart-contracts/StekcitBM.sol\":12661:12665  CUSD */\n      and\n      swap1\n        /* \"smart-contracts/StekcitBM.sol\":12661:12674  CUSD.transfer */\n      0xa9059cbb\n      swap1\n        /* \"#utility.yul\":8609:8627   */\n      0x44\n      add\n        /* \"smart-contracts/StekcitBM.sol\":12661:12698  CUSD.transfer(address(this), _amount) */\n      0x20\n      mload(0x40)\n      dup1\n      dup4\n      sub\n      dup2\n      0x00\n      dup8\n      dup1\n      extcodesize\n      iszero\n      dup1\n      iszero\n      tag_717\n      jumpi\n      0x00\n      dup1\n      revert\n    tag_717:\n      pop\n      gas\n      call\n      iszero\n      dup1\n      iszero\n      tag_719\n      jumpi\n      returndatasize\n      0x00\n      dup1\n      returndatacopy\n      revert(0x00, returndatasize)\n    tag_719:\n      pop\n      pop\n      pop\n      pop\n      mload(0x40)\n      returndatasize\n      not(0x1f)\n      0x1f\n      dup3\n      add\n      and\n      dup3\n      add\n      dup1\n      0x40\n      mstore\n      pop\n      dup2\n      add\n      swap1\n      tag_195\n      swap2\n      swap1\n      tag_403\n      jump\t// in\n        /* \"smart-contracts/StekcitBM.sol\":13229:13749  function checkIfUserAlreadyHasTicket(... */\n    tag_187:\n        /* \"smart-contracts/StekcitBM.sol\":13351:13355  bool */\n      0x00\n        /* \"smart-contracts/StekcitBM.sol\":13367:13401  StekcitTicket[] memory userTickets */\n      dup1\n        /* \"smart-contracts/StekcitBM.sol\":13404:13461  getAllTicketsOfUser(... */\n      tag_722\n        /* \"smart-contracts/StekcitBM.sol\":13437:13451  _walletAddress */\n      dup4\n        /* \"smart-contracts/StekcitBM.sol\":13404:13423  getAllTicketsOfUser */\n      tag_51\n        /* \"smart-contracts/StekcitBM.sol\":13404:13461  getAllTicketsOfUser(... */\n      jump\t// in\n    tag_722:\n        /* \"smart-contracts/StekcitBM.sol\":13367:13461  StekcitTicket[] memory userTickets = getAllTicketsOfUser(... */\n      swap1\n      pop\n        /* \"smart-contracts/StekcitBM.sol\":13476:13492  uint256 ticketId */\n      0x00\n        /* \"smart-contracts/StekcitBM.sol\":13471:13720  for (uint256 ticketId = 0; ticketId < userTickets.length; ticketId++) {... */\n    tag_723:\n        /* \"smart-contracts/StekcitBM.sol\":13509:13520  userTickets */\n      dup2\n        /* \"smart-contracts/StekcitBM.sol\":13509:13527  userTickets.length */\n      mload\n        /* \"smart-contracts/StekcitBM.sol\":13498:13506  ticketId */\n      dup2\n        /* \"smart-contracts/StekcitBM.sol\":13498:13527  ticketId < userTickets.length */\n      lt\n        /* \"smart-contracts/StekcitBM.sol\":13471:13720  for (uint256 ticketId = 0; ticketId < userTickets.length; ticketId++) {... */\n      iszero\n      tag_724\n      jumpi\n        /* \"smart-contracts/StekcitBM.sol\":13555:13589  StekcitTicket memory currentTicket */\n      0x00\n        /* \"smart-contracts/StekcitBM.sol\":13592:13603  userTickets */\n      dup3\n        /* \"smart-contracts/StekcitBM.sol\":13604:13612  ticketId */\n      dup3\n        /* \"smart-contracts/StekcitBM.sol\":13592:13613  userTickets[ticketId] */\n      dup2\n      mload\n      dup2\n      lt\n      tag_727\n      jumpi\n      tag_727\n      tag_211\n      jump\t// in\n    tag_727:\n      0x20\n      mul\n      0x20\n      add\n      add\n      mload\n        /* \"smart-contracts/StekcitBM.sol\":13555:13613  StekcitTicket memory currentTicket = userTickets[ticketId] */\n      swap1\n      pop\n        /* \"smart-contracts/StekcitBM.sol\":13656:13664  _eventId */\n      dup6\n        /* \"smart-contracts/StekcitBM.sol\":13631:13644  currentTicket */\n      dup2\n        /* \"smart-contracts/StekcitBM.sol\":13631:13652  currentTicket.eventId */\n      0x20\n      add\n      mload\n        /* \"smart-contracts/StekcitBM.sol\":13631:13664  currentTicket.eventId == _eventId */\n      eq\n        /* \"smart-contracts/StekcitBM.sol\":13627:13710  if (currentTicket.eventId == _eventId) {... */\n      iszero\n      tag_728\n      jumpi\n        /* \"smart-contracts/StekcitBM.sol\":13691:13695  true */\n      0x01\n        /* \"smart-contracts/StekcitBM.sol\":13684:13695  return true */\n      swap4\n      pop\n      pop\n      pop\n      pop\n      jump(tag_195)\n        /* \"smart-contracts/StekcitBM.sol\":13627:13710  if (currentTicket.eventId == _eventId) {... */\n    tag_728:\n      pop\n        /* \"smart-contracts/StekcitBM.sol\":13529:13539  ticketId++ */\n      dup1\n      tag_729\n      dup2\n      tag_217\n      jump\t// in\n    tag_729:\n      swap2\n      pop\n      pop\n        /* \"smart-contracts/StekcitBM.sol\":13471:13720  for (uint256 ticketId = 0; ticketId < userTickets.length; ticketId++) {... */\n      jump(tag_723)\n    tag_724:\n      pop\n        /* \"smart-contracts/StekcitBM.sol\":13737:13742  false */\n      0x00\n      swap5\n        /* \"smart-contracts/StekcitBM.sol\":13229:13749  function checkIfUserAlreadyHasTicket(... */\n      swap4\n      pop\n      pop\n      pop\n      pop\n      jump\t// out\n    tag_205:\n      mload(0x40)\n      dup1\n      0x80\n      add\n      0x40\n      mstore\n      dup1\n      0x00\n      dup2\n      mstore\n      0x20\n      add\n      0x00\n      dup2\n      mstore\n      0x20\n      add\n      and(sub(shl(0xa0, 0x01), 0x01), 0x00)\n      dup2\n      mstore\n      0x20\n      add\n      0x00\n      dup2\n      mstore\n      pop\n      swap1\n      jump\t// out\n    tag_252:\n      mload(0x40)\n      dup1\n      0x01e0\n      add\n      0x40\n      mstore\n      dup1\n      0x00\n      dup2\n      mstore\n      0x20\n      add\n      and(sub(shl(0xa0, 0x01), 0x01), 0x00)\n      dup2\n      mstore\n      0x20\n      add\n      0x60\n      dup2\n      mstore\n      0x20\n      add\n      0x60\n      dup2\n      mstore\n      0x20\n      add\n      0x60\n      dup2\n      mstore\n      0x20\n      add\n      0x00\n      dup2\n      mstore\n      0x20\n      add\n      0x00\n      dup2\n      mstore\n      0x20\n      add\n      0x00\n      dup2\n      mstore\n      0x20\n      add\n      0x00\n      dup2\n      mstore\n      0x20\n      add\n      iszero(iszero(0x00))\n      dup2\n      mstore\n      0x20\n      add\n      iszero(iszero(0x00))\n      dup2\n      mstore\n      0x20\n      add\n      iszero(iszero(0x00))\n      dup2\n      mstore\n      0x20\n      add\n      0x00\n      dup2\n      mstore\n      0x20\n      add\n      iszero(iszero(0x00))\n      dup2\n      mstore\n      0x20\n      add\n      iszero(iszero(0x00))\n      dup2\n      mstore\n      pop\n      swap1\n      jump\t// out\n    tag_256:\n      dup3\n      dup1\n      sload\n      tag_730\n      swap1\n      tag_285\n      jump\t// in\n    tag_730:\n      swap1\n      0x00\n      mstore\n      keccak256(0x00, 0x20)\n      swap1\n      0x1f\n      add\n      0x20\n      swap1\n      div\n      dup2\n      add\n      swap3\n      dup3\n      tag_732\n      jumpi\n      0x00\n      dup6\n      sstore\n      jump(tag_735)\n    tag_732:\n      dup3\n      0x1f\n      lt\n      tag_733\n      jumpi\n      dup1\n      mload\n      not(0xff)\n      and\n      dup4\n      dup1\n      add\n      or\n      dup6\n      sstore\n      jump(tag_735)\n    tag_733:\n      dup3\n      dup1\n      add\n      0x01\n      add\n      dup6\n      sstore\n      dup3\n      iszero\n      tag_735\n      jumpi\n      swap2\n      dup3\n      add\n    tag_734:\n      dup3\n      dup2\n      gt\n      iszero\n      tag_735\n      jumpi\n      dup3\n      mload\n      dup3\n      sstore\n      swap2\n      0x20\n      add\n      swap2\n      swap1\n      0x01\n      add\n      swap1\n      jump(tag_734)\n    tag_735:\n      pop\n      tag_736\n      swap3\n      swap2\n      pop\n      tag_737\n      jump\t// in\n    tag_736:\n      pop\n      swap1\n      jump\t// out\n    tag_305:\n      mload(0x40)\n      dup1\n      0xc0\n      add\n      0x40\n      mstore\n      dup1\n      0x00\n      dup2\n      mstore\n      0x20\n      add\n      and(sub(shl(0xa0, 0x01), 0x01), 0x00)\n      dup2\n      mstore\n      0x20\n      add\n      0x60\n      dup2\n      mstore\n      0x20\n      add\n      0x60\n      dup2\n      mstore\n      0x20\n      add\n      iszero(iszero(0x00))\n      dup2\n      mstore\n      0x20\n      add\n      iszero(iszero(0x00))\n      dup2\n      mstore\n      pop\n      swap1\n      jump\t// out\n    tag_349:\n      mload(0x40)\n      dup1\n      0xc0\n      add\n      0x40\n      mstore\n      dup1\n      0x00\n      dup2\n      mstore\n      0x20\n      add\n      0x00\n      dup2\n      mstore\n      0x20\n      add\n      and(sub(shl(0xa0, 0x01), 0x01), 0x00)\n      dup2\n      mstore\n      0x20\n      add\n      0x00\n      dup2\n      mstore\n      0x20\n      add\n      0x00\n      dup2\n      mstore\n      0x20\n      add\n      iszero(iszero(0x00))\n      dup2\n      mstore\n      pop\n      swap1\n      jump\t// out\n    tag_737:\n    tag_738:\n      dup1\n      dup3\n      gt\n      iszero\n      tag_736\n      jumpi\n      0x00\n      dup2\n      sstore\n      0x01\n      add\n      jump(tag_738)\n        /* \"#utility.yul\":14:187   */\n    tag_741:\n        /* \"#utility.yul\":82:102   */\n      dup1\n      calldataload\n      sub(shl(0xa0, 0x01), 0x01)\n        /* \"#utility.yul\":131:162   */\n      dup2\n      and\n        /* \"#utility.yul\":121:163   */\n      dup2\n      eq\n        /* \"#utility.yul\":111:181   */\n      tag_369\n      jumpi\n        /* \"#utility.yul\":177:178   */\n      0x00\n        /* \"#utility.yul\":174:175   */\n      dup1\n        /* \"#utility.yul\":167:179   */\n      revert\n        /* \"#utility.yul\":192:911   */\n    tag_744:\n        /* \"#utility.yul\":235:240   */\n      0x00\n        /* \"#utility.yul\":288:291   */\n      dup3\n        /* \"#utility.yul\":281:285   */\n      0x1f\n        /* \"#utility.yul\":273:279   */\n      dup4\n        /* \"#utility.yul\":269:286   */\n      add\n        /* \"#utility.yul\":265:292   */\n      slt\n        /* \"#utility.yul\":255:310   */\n      tag_746\n      jumpi\n        /* \"#utility.yul\":306:307   */\n      0x00\n        /* \"#utility.yul\":303:304   */\n      dup1\n        /* \"#utility.yul\":296:308   */\n      revert\n        /* \"#utility.yul\":255:310   */\n    tag_746:\n        /* \"#utility.yul\":342:348   */\n      dup2\n        /* \"#utility.yul\":329:349   */\n      calldataload\n        /* \"#utility.yul\":368:386   */\n      0xffffffffffffffff\n        /* \"#utility.yul\":405:407   */\n      dup1\n        /* \"#utility.yul\":401:403   */\n      dup3\n        /* \"#utility.yul\":398:408   */\n      gt\n        /* \"#utility.yul\":395:431   */\n      iszero\n      tag_748\n      jumpi\n        /* \"#utility.yul\":411:429   */\n      tag_748\n      tag_201\n      jump\t// in\n    tag_748:\n        /* \"#utility.yul\":486:488   */\n      0x40\n        /* \"#utility.yul\":480:489   */\n      mload\n        /* \"#utility.yul\":454:456   */\n      0x1f\n        /* \"#utility.yul\":540:553   */\n      dup4\n      add\n      not(0x1f)\n        /* \"#utility.yul\":536:558   */\n      swap1\n      dup2\n      and\n        /* \"#utility.yul\":560:562   */\n      0x3f\n        /* \"#utility.yul\":532:563   */\n      add\n        /* \"#utility.yul\":528:568   */\n      and\n        /* \"#utility.yul\":516:569   */\n      dup2\n      add\n      swap1\n        /* \"#utility.yul\":584:602   */\n      dup3\n      dup3\n      gt\n        /* \"#utility.yul\":604:626   */\n      dup2\n      dup4\n      lt\n        /* \"#utility.yul\":581:627   */\n      or\n        /* \"#utility.yul\":578:650   */\n      iszero\n      tag_750\n      jumpi\n        /* \"#utility.yul\":630:648   */\n      tag_750\n      tag_201\n      jump\t// in\n    tag_750:\n        /* \"#utility.yul\":670:680   */\n      dup2\n        /* \"#utility.yul\":666:668   */\n      0x40\n        /* \"#utility.yul\":659:681   */\n      mstore\n        /* \"#utility.yul\":705:707   */\n      dup4\n        /* \"#utility.yul\":697:703   */\n      dup2\n        /* \"#utility.yul\":690:708   */\n      mstore\n        /* \"#utility.yul\":751:754   */\n      dup7\n        /* \"#utility.yul\":744:748   */\n      0x20\n        /* \"#utility.yul\":739:741   */\n      dup6\n        /* \"#utility.yul\":731:737   */\n      dup9\n        /* \"#utility.yul\":727:742   */\n      add\n        /* \"#utility.yul\":723:749   */\n      add\n        /* \"#utility.yul\":720:755   */\n      gt\n        /* \"#utility.yul\":717:772   */\n      iszero\n      tag_751\n      jumpi\n        /* \"#utility.yul\":768:769   */\n      0x00\n        /* \"#utility.yul\":765:766   */\n      dup1\n        /* \"#utility.yul\":758:770   */\n      revert\n        /* \"#utility.yul\":717:772   */\n    tag_751:\n        /* \"#utility.yul\":832:834   */\n      dup4\n        /* \"#utility.yul\":825:829   */\n      0x20\n        /* \"#utility.yul\":817:823   */\n      dup8\n        /* \"#utility.yul\":813:830   */\n      add\n        /* \"#utility.yul\":806:810   */\n      0x20\n        /* \"#utility.yul\":798:804   */\n      dup4\n        /* \"#utility.yul\":794:811   */\n      add\n        /* \"#utility.yul\":781:835   */\n      calldatacopy\n        /* \"#utility.yul\":879:880   */\n      0x00\n        /* \"#utility.yul\":872:876   */\n      0x20\n        /* \"#utility.yul\":867:869   */\n      dup6\n        /* \"#utility.yul\":859:865   */\n      dup4\n        /* \"#utility.yul\":855:870   */\n      add\n        /* \"#utility.yul\":851:877   */\n      add\n        /* \"#utility.yul\":844:881   */\n      mstore\n        /* \"#utility.yul\":899:905   */\n      dup1\n        /* \"#utility.yul\":890:905   */\n      swap5\n      pop\n      pop\n      pop\n      pop\n      pop\n        /* \"#utility.yul\":192:911   */\n      swap3\n      swap2\n      pop\n      pop\n      jump\t// out\n        /* \"#utility.yul\":916:1102   */\n    tag_45:\n        /* \"#utility.yul\":975:981   */\n      0x00\n        /* \"#utility.yul\":1028:1030   */\n      0x20\n        /* \"#utility.yul\":1016:1025   */\n      dup3\n        /* \"#utility.yul\":1007:1014   */\n      dup5\n        /* \"#utility.yul\":1003:1026   */\n      sub\n        /* \"#utility.yul\":999:1031   */\n      slt\n        /* \"#utility.yul\":996:1048   */\n      iszero\n      tag_753\n      jumpi\n        /* \"#utility.yul\":1044:1045   */\n      0x00\n        /* \"#utility.yul\":1041:1042   */\n      dup1\n        /* \"#utility.yul\":1034:1046   */\n      revert\n        /* \"#utility.yul\":996:1048   */\n    tag_753:\n        /* \"#utility.yul\":1067:1096   */\n      tag_262\n        /* \"#utility.yul\":1086:1095   */\n      dup3\n        /* \"#utility.yul\":1067:1096   */\n      tag_741\n      jump\t// in\n        /* \"#utility.yul\":1107:1724   */\n    tag_87:\n        /* \"#utility.yul\":1204:1210   */\n      0x00\n        /* \"#utility.yul\":1212:1218   */\n      dup1\n        /* \"#utility.yul\":1220:1226   */\n      0x00\n        /* \"#utility.yul\":1273:1275   */\n      0x60\n        /* \"#utility.yul\":1261:1270   */\n      dup5\n        /* \"#utility.yul\":1252:1259   */\n      dup7\n        /* \"#utility.yul\":1248:1271   */\n      sub\n        /* \"#utility.yul\":1244:1276   */\n      slt\n        /* \"#utility.yul\":1241:1293   */\n      iszero\n      tag_756\n      jumpi\n        /* \"#utility.yul\":1289:1290   */\n      0x00\n        /* \"#utility.yul\":1286:1287   */\n      dup1\n        /* \"#utility.yul\":1279:1291   */\n      revert\n        /* \"#utility.yul\":1241:1293   */\n    tag_756:\n        /* \"#utility.yul\":1312:1341   */\n      tag_757\n        /* \"#utility.yul\":1331:1340   */\n      dup5\n        /* \"#utility.yul\":1312:1341   */\n      tag_741\n      jump\t// in\n    tag_757:\n        /* \"#utility.yul\":1302:1341   */\n      swap3\n      pop\n        /* \"#utility.yul\":1392:1394   */\n      0x20\n        /* \"#utility.yul\":1381:1390   */\n      dup5\n        /* \"#utility.yul\":1377:1395   */\n      add\n        /* \"#utility.yul\":1364:1396   */\n      calldataload\n        /* \"#utility.yul\":1415:1433   */\n      0xffffffffffffffff\n        /* \"#utility.yul\":1456:1458   */\n      dup1\n        /* \"#utility.yul\":1448:1454   */\n      dup3\n        /* \"#utility.yul\":1445:1459   */\n      gt\n        /* \"#utility.yul\":1442:1476   */\n      iszero\n      tag_758\n      jumpi\n        /* \"#utility.yul\":1472:1473   */\n      0x00\n        /* \"#utility.yul\":1469:1470   */\n      dup1\n        /* \"#utility.yul\":1462:1474   */\n      revert\n        /* \"#utility.yul\":1442:1476   */\n    tag_758:\n        /* \"#utility.yul\":1495:1545   */\n      tag_759\n        /* \"#utility.yul\":1537:1544   */\n      dup8\n        /* \"#utility.yul\":1528:1534   */\n      dup4\n        /* \"#utility.yul\":1517:1526   */\n      dup9\n        /* \"#utility.yul\":1513:1535   */\n      add\n        /* \"#utility.yul\":1495:1545   */\n      tag_744\n      jump\t// in\n    tag_759:\n        /* \"#utility.yul\":1485:1545   */\n      swap4\n      pop\n        /* \"#utility.yul\":1598:1600   */\n      0x40\n        /* \"#utility.yul\":1587:1596   */\n      dup7\n        /* \"#utility.yul\":1583:1601   */\n      add\n        /* \"#utility.yul\":1570:1602   */\n      calldataload\n        /* \"#utility.yul\":1554:1602   */\n      swap2\n      pop\n        /* \"#utility.yul\":1627:1629   */\n      dup1\n        /* \"#utility.yul\":1617:1625   */\n      dup3\n        /* \"#utility.yul\":1614:1630   */\n      gt\n        /* \"#utility.yul\":1611:1647   */\n      iszero\n      tag_760\n      jumpi\n        /* \"#utility.yul\":1643:1644   */\n      0x00\n        /* \"#utility.yul\":1640:1641   */\n      dup1\n        /* \"#utility.yul\":1633:1645   */\n      revert\n        /* \"#utility.yul\":1611:1647   */\n    tag_760:\n      pop\n        /* \"#utility.yul\":1666:1718   */\n      tag_761\n        /* \"#utility.yul\":1710:1717   */\n      dup7\n        /* \"#utility.yul\":1699:1707   */\n      dup3\n        /* \"#utility.yul\":1688:1697   */\n      dup8\n        /* \"#utility.yul\":1684:1708   */\n      add\n        /* \"#utility.yul\":1666:1718   */\n      tag_744\n      jump\t// in\n    tag_761:\n        /* \"#utility.yul\":1656:1718   */\n      swap2\n      pop\n      pop\n        /* \"#utility.yul\":1107:1724   */\n      swap3\n      pop\n      swap3\n      pop\n      swap3\n      jump\t// out\n        /* \"#utility.yul\":1729:2815   */\n    tag_66:\n        /* \"#utility.yul\":1869:1875   */\n      0x00\n        /* \"#utility.yul\":1877:1883   */\n      dup1\n        /* \"#utility.yul\":1885:1891   */\n      0x00\n        /* \"#utility.yul\":1893:1899   */\n      dup1\n        /* \"#utility.yul\":1901:1907   */\n      0x00\n        /* \"#utility.yul\":1909:1915   */\n      dup1\n        /* \"#utility.yul\":1917:1923   */\n      0x00\n        /* \"#utility.yul\":1970:1973   */\n      0xe0\n        /* \"#utility.yul\":1958:1967   */\n      dup9\n        /* \"#utility.yul\":1949:1956   */\n      dup11\n        /* \"#utility.yul\":1945:1968   */\n      sub\n        /* \"#utility.yul\":1941:1974   */\n      slt\n        /* \"#utility.yul\":1938:1991   */\n      iszero\n      tag_763\n      jumpi\n        /* \"#utility.yul\":1987:1988   */\n      0x00\n        /* \"#utility.yul\":1984:1985   */\n      dup1\n        /* \"#utility.yul\":1977:1989   */\n      revert\n        /* \"#utility.yul\":1938:1991   */\n    tag_763:\n        /* \"#utility.yul\":2010:2039   */\n      tag_764\n        /* \"#utility.yul\":2029:2038   */\n      dup9\n        /* \"#utility.yul\":2010:2039   */\n      tag_741\n      jump\t// in\n    tag_764:\n        /* \"#utility.yul\":2000:2039   */\n      swap7\n      pop\n        /* \"#utility.yul\":2090:2092   */\n      0x20\n        /* \"#utility.yul\":2079:2088   */\n      dup9\n        /* \"#utility.yul\":2075:2093   */\n      add\n        /* \"#utility.yul\":2062:2094   */\n      calldataload\n        /* \"#utility.yul\":2113:2131   */\n      0xffffffffffffffff\n        /* \"#utility.yul\":2154:2156   */\n      dup1\n        /* \"#utility.yul\":2146:2152   */\n      dup3\n        /* \"#utility.yul\":2143:2157   */\n      gt\n        /* \"#utility.yul\":2140:2174   */\n      iszero\n      tag_765\n      jumpi\n        /* \"#utility.yul\":2170:2171   */\n      0x00\n        /* \"#utility.yul\":2167:2168   */\n      dup1\n        /* \"#utility.yul\":2160:2172   */\n      revert\n        /* \"#utility.yul\":2140:2174   */\n    tag_765:\n        /* \"#utility.yul\":2193:2243   */\n      tag_766\n        /* \"#utility.yul\":2235:2242   */\n      dup12\n        /* \"#utility.yul\":2226:2232   */\n      dup4\n        /* \"#utility.yul\":2215:2224   */\n      dup13\n        /* \"#utility.yul\":2211:2233   */\n      add\n        /* \"#utility.yul\":2193:2243   */\n      tag_744\n      jump\t// in\n    tag_766:\n        /* \"#utility.yul\":2183:2243   */\n      swap8\n      pop\n        /* \"#utility.yul\":2296:2298   */\n      0x40\n        /* \"#utility.yul\":2285:2294   */\n      dup11\n        /* \"#utility.yul\":2281:2299   */\n      add\n        /* \"#utility.yul\":2268:2300   */\n      calldataload\n        /* \"#utility.yul\":2252:2300   */\n      swap2\n      pop\n        /* \"#utility.yul\":2325:2327   */\n      dup1\n        /* \"#utility.yul\":2315:2323   */\n      dup3\n        /* \"#utility.yul\":2312:2328   */\n      gt\n        /* \"#utility.yul\":2309:2345   */\n      iszero\n      tag_767\n      jumpi\n        /* \"#utility.yul\":2341:2342   */\n      0x00\n        /* \"#utility.yul\":2338:2339   */\n      dup1\n        /* \"#utility.yul\":2331:2343   */\n      revert\n        /* \"#utility.yul\":2309:2345   */\n    tag_767:\n        /* \"#utility.yul\":2364:2416   */\n      tag_768\n        /* \"#utility.yul\":2408:2415   */\n      dup12\n        /* \"#utility.yul\":2397:2405   */\n      dup4\n        /* \"#utility.yul\":2386:2395   */\n      dup13\n        /* \"#utility.yul\":2382:2406   */\n      add\n        /* \"#utility.yul\":2364:2416   */\n      tag_744\n      jump\t// in\n    tag_768:\n        /* \"#utility.yul\":2354:2416   */\n      swap7\n      pop\n        /* \"#utility.yul\":2469:2471   */\n      0x60\n        /* \"#utility.yul\":2458:2467   */\n      dup11\n        /* \"#utility.yul\":2454:2472   */\n      add\n        /* \"#utility.yul\":2441:2473   */\n      calldataload\n        /* \"#utility.yul\":2425:2473   */\n      swap2\n      pop\n        /* \"#utility.yul\":2498:2500   */\n      dup1\n        /* \"#utility.yul\":2488:2496   */\n      dup3\n        /* \"#utility.yul\":2485:2501   */\n      gt\n        /* \"#utility.yul\":2482:2518   */\n      iszero\n      tag_769\n      jumpi\n        /* \"#utility.yul\":2514:2515   */\n      0x00\n        /* \"#utility.yul\":2511:2512   */\n      dup1\n        /* \"#utility.yul\":2504:2516   */\n      revert\n        /* \"#utility.yul\":2482:2518   */\n    tag_769:\n      pop\n        /* \"#utility.yul\":2537:2589   */\n      tag_770\n        /* \"#utility.yul\":2581:2588   */\n      dup11\n        /* \"#utility.yul\":2570:2578   */\n      dup3\n        /* \"#utility.yul\":2559:2568   */\n      dup12\n        /* \"#utility.yul\":2555:2579   */\n      add\n        /* \"#utility.yul\":2537:2589   */\n      tag_744\n      jump\t// in\n    tag_770:\n        /* \"#utility.yul\":2527:2589   */\n      swap5\n      pop\n      pop\n        /* \"#utility.yul\":2636:2639   */\n      0x80\n        /* \"#utility.yul\":2625:2634   */\n      dup9\n        /* \"#utility.yul\":2621:2640   */\n      add\n        /* \"#utility.yul\":2608:2641   */\n      calldataload\n        /* \"#utility.yul\":2598:2641   */\n      swap3\n      pop\n        /* \"#utility.yul\":2688:2691   */\n      0xa0\n        /* \"#utility.yul\":2677:2686   */\n      dup9\n        /* \"#utility.yul\":2673:2692   */\n      add\n        /* \"#utility.yul\":2660:2693   */\n      calldataload\n        /* \"#utility.yul\":2650:2693   */\n      swap2\n      pop\n        /* \"#utility.yul\":2743:2746   */\n      0xc0\n        /* \"#utility.yul\":2732:2741   */\n      dup9\n        /* \"#utility.yul\":2728:2747   */\n      add\n        /* \"#utility.yul\":2715:2748   */\n      calldataload\n        /* \"#utility.yul\":2757:2785   */\n      tag_771\n        /* \"#utility.yul\":2779:2784   */\n      dup2\n        /* \"#utility.yul\":2757:2785   */\n      tag_772\n      jump\t// in\n    tag_771:\n        /* \"#utility.yul\":2804:2809   */\n      dup1\n        /* \"#utility.yul\":2794:2809   */\n      swap2\n      pop\n      pop\n        /* \"#utility.yul\":1729:2815   */\n      swap3\n      swap6\n      swap9\n      swap2\n      swap5\n      swap8\n      pop\n      swap3\n      swap6\n      pop\n      jump\t// out\n        /* \"#utility.yul\":2820:3065   */\n    tag_403:\n        /* \"#utility.yul\":2887:2893   */\n      0x00\n        /* \"#utility.yul\":2940:2942   */\n      0x20\n        /* \"#utility.yul\":2928:2937   */\n      dup3\n        /* \"#utility.yul\":2919:2926   */\n      dup5\n        /* \"#utility.yul\":2915:2938   */\n      sub\n        /* \"#utility.yul\":2911:2943   */\n      slt\n        /* \"#utility.yul\":2908:2960   */\n      iszero\n      tag_774\n      jumpi\n        /* \"#utility.yul\":2956:2957   */\n      0x00\n        /* \"#utility.yul\":2953:2954   */\n      dup1\n        /* \"#utility.yul\":2946:2958   */\n      revert\n        /* \"#utility.yul\":2908:2960   */\n    tag_774:\n        /* \"#utility.yul\":2988:2997   */\n      dup2\n        /* \"#utility.yul\":2982:2998   */\n      mload\n        /* \"#utility.yul\":3007:3035   */\n      tag_262\n        /* \"#utility.yul\":3029:3034   */\n      dup2\n        /* \"#utility.yul\":3007:3035   */\n      tag_772\n      jump\t// in\n        /* \"#utility.yul\":3070:3250   */\n    tag_56:\n        /* \"#utility.yul\":3129:3135   */\n      0x00\n        /* \"#utility.yul\":3182:3184   */\n      0x20\n        /* \"#utility.yul\":3170:3179   */\n      dup3\n        /* \"#utility.yul\":3161:3168   */\n      dup5\n        /* \"#utility.yul\":3157:3180   */\n      sub\n        /* \"#utility.yul\":3153:3185   */\n      slt\n        /* \"#utility.yul\":3150:3202   */\n      iszero\n      tag_777\n      jumpi\n        /* \"#utility.yul\":3198:3199   */\n      0x00\n        /* \"#utility.yul\":3195:3196   */\n      dup1\n        /* \"#utility.yul\":3188:3200   */\n      revert\n        /* \"#utility.yul\":3150:3202   */\n    tag_777:\n      pop\n        /* \"#utility.yul\":3221:3244   */\n      calldataload\n      swap2\n        /* \"#utility.yul\":3070:3250   */\n      swap1\n      pop\n      jump\t// out\n        /* \"#utility.yul\":3255:3439   */\n    tag_196:\n        /* \"#utility.yul\":3325:3331   */\n      0x00\n        /* \"#utility.yul\":3378:3380   */\n      0x20\n        /* \"#utility.yul\":3366:3375   */\n      dup3\n        /* \"#utility.yul\":3357:3364   */\n      dup5\n        /* \"#utility.yul\":3353:3376   */\n      sub\n        /* \"#utility.yul\":3349:3381   */\n      slt\n        /* \"#utility.yul\":3346:3398   */\n      iszero\n      tag_779\n      jumpi\n        /* \"#utility.yul\":3394:3395   */\n      0x00\n        /* \"#utility.yul\":3391:3392   */\n      dup1\n        /* \"#utility.yul\":3384:3396   */\n      revert\n        /* \"#utility.yul\":3346:3398   */\n    tag_779:\n      pop\n        /* \"#utility.yul\":3417:3433   */\n      mload\n      swap2\n        /* \"#utility.yul\":3255:3439   */\n      swap1\n      pop\n      jump\t// out\n        /* \"#utility.yul\":3444:3698   */\n    tag_117:\n        /* \"#utility.yul\":3512:3518   */\n      0x00\n        /* \"#utility.yul\":3520:3526   */\n      dup1\n        /* \"#utility.yul\":3573:3575   */\n      0x40\n        /* \"#utility.yul\":3561:3570   */\n      dup4\n        /* \"#utility.yul\":3552:3559   */\n      dup6\n        /* \"#utility.yul\":3548:3571   */\n      sub\n        /* \"#utility.yul\":3544:3576   */\n      slt\n        /* \"#utility.yul\":3541:3593   */\n      iszero\n      tag_781\n      jumpi\n        /* \"#utility.yul\":3589:3590   */\n      0x00\n        /* \"#utility.yul\":3586:3587   */\n      dup1\n        /* \"#utility.yul\":3579:3591   */\n      revert\n        /* \"#utility.yul\":3541:3593   */\n    tag_781:\n        /* \"#utility.yul\":3625:3634   */\n      dup3\n        /* \"#utility.yul\":3612:3635   */\n      calldataload\n        /* \"#utility.yul\":3602:3635   */\n      swap2\n      pop\n        /* \"#utility.yul\":3654:3692   */\n      tag_782\n        /* \"#utility.yul\":3688:3690   */\n      0x20\n        /* \"#utility.yul\":3677:3686   */\n      dup5\n        /* \"#utility.yul\":3673:3691   */\n      add\n        /* \"#utility.yul\":3654:3692   */\n      tag_741\n      jump\t// in\n    tag_782:\n        /* \"#utility.yul\":3644:3692   */\n      swap1\n      pop\n        /* \"#utility.yul\":3444:3698   */\n      swap3\n      pop\n      swap3\n      swap1\n      pop\n      jump\t// out\n        /* \"#utility.yul\":3703:4025   */\n    tag_72:\n        /* \"#utility.yul\":3780:3786   */\n      0x00\n        /* \"#utility.yul\":3788:3794   */\n      dup1\n        /* \"#utility.yul\":3796:3802   */\n      0x00\n        /* \"#utility.yul\":3849:3851   */\n      0x60\n        /* \"#utility.yul\":3837:3846   */\n      dup5\n        /* \"#utility.yul\":3828:3835   */\n      dup7\n        /* \"#utility.yul\":3824:3847   */\n      sub\n        /* \"#utility.yul\":3820:3852   */\n      slt\n        /* \"#utility.yul\":3817:3869   */\n      iszero\n      tag_784\n      jumpi\n        /* \"#utility.yul\":3865:3866   */\n      0x00\n        /* \"#utility.yul\":3862:3863   */\n      dup1\n        /* \"#utility.yul\":3855:3867   */\n      revert\n        /* \"#utility.yul\":3817:3869   */\n    tag_784:\n        /* \"#utility.yul\":3901:3910   */\n      dup4\n        /* \"#utility.yul\":3888:3911   */\n      calldataload\n        /* \"#utility.yul\":3878:3911   */\n      swap3\n      pop\n        /* \"#utility.yul\":3930:3968   */\n      tag_785\n        /* \"#utility.yul\":3964:3966   */\n      0x20\n        /* \"#utility.yul\":3953:3962   */\n      dup6\n        /* \"#utility.yul\":3949:3967   */\n      add\n        /* \"#utility.yul\":3930:3968   */\n      tag_741\n      jump\t// in\n    tag_785:\n        /* \"#utility.yul\":3920:3968   */\n      swap2\n      pop\n        /* \"#utility.yul\":4015:4017   */\n      0x40\n        /* \"#utility.yul\":4004:4013   */\n      dup5\n        /* \"#utility.yul\":4000:4018   */\n      add\n        /* \"#utility.yul\":3987:4019   */\n      calldataload\n        /* \"#utility.yul\":3977:4019   */\n      swap1\n      pop\n        /* \"#utility.yul\":3703:4025   */\n      swap3\n      pop\n      swap3\n      pop\n      swap3\n      jump\t// out\n        /* \"#utility.yul\":4030:4278   */\n    tag_151:\n        /* \"#utility.yul\":4098:4104   */\n      0x00\n        /* \"#utility.yul\":4106:4112   */\n      dup1\n        /* \"#utility.yul\":4159:4161   */\n      0x40\n        /* \"#utility.yul\":4147:4156   */\n      dup4\n        /* \"#utility.yul\":4138:4145   */\n      dup6\n        /* \"#utility.yul\":4134:4157   */\n      sub\n        /* \"#utility.yul\":4130:4162   */\n      slt\n        /* \"#utility.yul\":4127:4179   */\n      iszero\n      tag_787\n      jumpi\n        /* \"#utility.yul\":4175:4176   */\n      0x00\n        /* \"#utility.yul\":4172:4173   */\n      dup1\n        /* \"#utility.yul\":4165:4177   */\n      revert\n        /* \"#utility.yul\":4127:4179   */\n    tag_787:\n      pop\n      pop\n        /* \"#utility.yul\":4198:4221   */\n      dup1\n      calldataload\n      swap3\n        /* \"#utility.yul\":4268:4270   */\n      0x20\n        /* \"#utility.yul\":4253:4271   */\n      swap1\n      swap2\n      add\n        /* \"#utility.yul\":4240:4272   */\n      calldataload\n      swap2\n      pop\n        /* \"#utility.yul\":4030:4278   */\n      jump\t// out\n        /* \"#utility.yul\":4283:4556   */\n    tag_392:\n        /* \"#utility.yul\":4351:4357   */\n      0x00\n        /* \"#utility.yul\":4404:4406   */\n      0x20\n        /* \"#utility.yul\":4392:4401   */\n      dup3\n        /* \"#utility.yul\":4383:4390   */\n      dup5\n        /* \"#utility.yul\":4379:4402   */\n      sub\n        /* \"#utility.yul\":4375:4407   */\n      slt\n        /* \"#utility.yul\":4372:4424   */\n      iszero\n      tag_789\n      jumpi\n        /* \"#utility.yul\":4420:4421   */\n      0x00\n        /* \"#utility.yul\":4417:4418   */\n      dup1\n        /* \"#utility.yul\":4410:4422   */\n      revert\n        /* \"#utility.yul\":4372:4424   */\n    tag_789:\n        /* \"#utility.yul\":4452:4461   */\n      dup2\n        /* \"#utility.yul\":4446:4462   */\n      mload\n        /* \"#utility.yul\":4502:4506   */\n      0xff\n        /* \"#utility.yul\":4495:4500   */\n      dup2\n        /* \"#utility.yul\":4491:4507   */\n      and\n        /* \"#utility.yul\":4484:4489   */\n      dup2\n        /* \"#utility.yul\":4481:4508   */\n      eq\n        /* \"#utility.yul\":4471:4526   */\n      tag_262\n      jumpi\n        /* \"#utility.yul\":4522:4523   */\n      0x00\n        /* \"#utility.yul\":4519:4520   */\n      dup1\n        /* \"#utility.yul\":4512:4524   */\n      revert\n        /* \"#utility.yul\":4766:5238   */\n    tag_795:\n        /* \"#utility.yul\":4808:4811   */\n      0x00\n        /* \"#utility.yul\":4846:4851   */\n      dup2\n        /* \"#utility.yul\":4840:4852   */\n      mload\n        /* \"#utility.yul\":4873:4879   */\n      dup1\n        /* \"#utility.yul\":4868:4871   */\n      dup5\n        /* \"#utility.yul\":4861:4880   */\n      mstore\n        /* \"#utility.yul\":4898:4899   */\n      0x00\n        /* \"#utility.yul\":4908:5070   */\n    tag_797:\n        /* \"#utility.yul\":4922:4928   */\n      dup2\n        /* \"#utility.yul\":4919:4920   */\n      dup2\n        /* \"#utility.yul\":4916:4929   */\n      lt\n        /* \"#utility.yul\":4908:5070   */\n      iszero\n      tag_799\n      jumpi\n        /* \"#utility.yul\":4984:4988   */\n      0x20\n        /* \"#utility.yul\":5040:5053   */\n      dup2\n      dup6\n      add\n        /* \"#utility.yul\":5036:5058   */\n      dup2\n      add\n        /* \"#utility.yul\":5030:5059   */\n      mload\n        /* \"#utility.yul\":5012:5023   */\n      dup7\n      dup4\n      add\n        /* \"#utility.yul\":5008:5028   */\n      dup3\n      add\n        /* \"#utility.yul\":5001:5060   */\n      mstore\n        /* \"#utility.yul\":4937:4949   */\n      add\n        /* \"#utility.yul\":4908:5070   */\n      jump(tag_797)\n    tag_799:\n        /* \"#utility.yul\":5088:5094   */\n      dup2\n        /* \"#utility.yul\":5085:5086   */\n      dup2\n        /* \"#utility.yul\":5082:5095   */\n      gt\n        /* \"#utility.yul\":5079:5166   */\n      iszero\n      tag_800\n      jumpi\n        /* \"#utility.yul\":5154:5155   */\n      0x00\n        /* \"#utility.yul\":5147:5151   */\n      0x20\n        /* \"#utility.yul\":5138:5144   */\n      dup4\n        /* \"#utility.yul\":5133:5136   */\n      dup8\n        /* \"#utility.yul\":5129:5145   */\n      add\n        /* \"#utility.yul\":5125:5152   */\n      add\n        /* \"#utility.yul\":5118:5156   */\n      mstore\n        /* \"#utility.yul\":5079:5166   */\n    tag_800:\n      pop\n        /* \"#utility.yul\":5220:5222   */\n      0x1f\n        /* \"#utility.yul\":5199:5214   */\n      add\n      not(0x1f)\n        /* \"#utility.yul\":5195:5224   */\n      and\n        /* \"#utility.yul\":5186:5225   */\n      swap3\n      swap1\n      swap3\n      add\n        /* \"#utility.yul\":5227:5231   */\n      0x20\n        /* \"#utility.yul\":5182:5232   */\n      add\n      swap3\n        /* \"#utility.yul\":4766:5238   */\n      swap2\n      pop\n      pop\n      jump\t// out\n        /* \"#utility.yul\":5243:6967   */\n    tag_801:\n        /* \"#utility.yul\":5298:5301   */\n      0x00\n        /* \"#utility.yul\":5326:5332   */\n      0x01e0\n        /* \"#utility.yul\":5359:5364   */\n      dup3\n        /* \"#utility.yul\":5353:5365   */\n      mload\n        /* \"#utility.yul\":5348:5351   */\n      dup5\n        /* \"#utility.yul\":5341:5366   */\n      mstore\n        /* \"#utility.yul\":5412:5416   */\n      0x20\n        /* \"#utility.yul\":5405:5410   */\n      dup4\n        /* \"#utility.yul\":5401:5417   */\n      add\n        /* \"#utility.yul\":5395:5418   */\n      mload\n        /* \"#utility.yul\":5427:5475   */\n      tag_803\n        /* \"#utility.yul\":5469:5473   */\n      0x20\n        /* \"#utility.yul\":5464:5467   */\n      dup7\n        /* \"#utility.yul\":5460:5474   */\n      add\n        /* \"#utility.yul\":5446:5458   */\n      dup3\n      sub(shl(0xa0, 0x01), 0x01)\n        /* \"#utility.yul\":4627:4658   */\n      and\n        /* \"#utility.yul\":4615:4659   */\n      swap1\n      mstore\n        /* \"#utility.yul\":4561:4665   */\n      jump\n        /* \"#utility.yul\":5427:5475   */\n    tag_803:\n      pop\n        /* \"#utility.yul\":5523:5527   */\n      0x40\n        /* \"#utility.yul\":5516:5521   */\n      dup4\n        /* \"#utility.yul\":5512:5528   */\n      add\n        /* \"#utility.yul\":5506:5529   */\n      mload\n        /* \"#utility.yul\":5561:5563   */\n      dup2\n        /* \"#utility.yul\":5554:5558   */\n      0x40\n        /* \"#utility.yul\":5549:5552   */\n      dup7\n        /* \"#utility.yul\":5545:5559   */\n      add\n        /* \"#utility.yul\":5538:5564   */\n      mstore\n        /* \"#utility.yul\":5585:5632   */\n      tag_804\n        /* \"#utility.yul\":5628:5630   */\n      dup3\n        /* \"#utility.yul\":5623:5626   */\n      dup7\n        /* \"#utility.yul\":5619:5631   */\n      add\n        /* \"#utility.yul\":5603:5617   */\n      dup3\n        /* \"#utility.yul\":5585:5632   */\n      tag_795\n      jump\t// in\n    tag_804:\n        /* \"#utility.yul\":5573:5632   */\n      swap2\n      pop\n      pop\n        /* \"#utility.yul\":5680:5684   */\n      0x60\n        /* \"#utility.yul\":5673:5678   */\n      dup4\n        /* \"#utility.yul\":5669:5685   */\n      add\n        /* \"#utility.yul\":5663:5686   */\n      mload\n        /* \"#utility.yul\":5728:5731   */\n      dup5\n        /* \"#utility.yul\":5722:5726   */\n      dup3\n        /* \"#utility.yul\":5718:5732   */\n      sub\n        /* \"#utility.yul\":5711:5715   */\n      0x60\n        /* \"#utility.yul\":5706:5709   */\n      dup7\n        /* \"#utility.yul\":5702:5716   */\n      add\n        /* \"#utility.yul\":5695:5733   */\n      mstore\n        /* \"#utility.yul\":5756:5795   */\n      tag_805\n        /* \"#utility.yul\":5790:5794   */\n      dup3\n        /* \"#utility.yul\":5774:5788   */\n      dup3\n        /* \"#utility.yul\":5756:5795   */\n      tag_795\n      jump\t// in\n    tag_805:\n        /* \"#utility.yul\":5742:5795   */\n      swap2\n      pop\n      pop\n        /* \"#utility.yul\":5843:5847   */\n      0x80\n        /* \"#utility.yul\":5836:5841   */\n      dup4\n        /* \"#utility.yul\":5832:5848   */\n      add\n        /* \"#utility.yul\":5826:5849   */\n      mload\n        /* \"#utility.yul\":5893:5896   */\n      dup5\n        /* \"#utility.yul\":5885:5891   */\n      dup3\n        /* \"#utility.yul\":5881:5897   */\n      sub\n        /* \"#utility.yul\":5874:5878   */\n      0x80\n        /* \"#utility.yul\":5869:5872   */\n      dup7\n        /* \"#utility.yul\":5865:5879   */\n      add\n        /* \"#utility.yul\":5858:5898   */\n      mstore\n        /* \"#utility.yul\":5921:5962   */\n      tag_806\n        /* \"#utility.yul\":5955:5961   */\n      dup3\n        /* \"#utility.yul\":5939:5953   */\n      dup3\n        /* \"#utility.yul\":5921:5962   */\n      tag_795\n      jump\t// in\n    tag_806:\n        /* \"#utility.yul\":5907:5962   */\n      swap2\n      pop\n      pop\n        /* \"#utility.yul\":6011:6015   */\n      0xa0\n        /* \"#utility.yul\":6004:6009   */\n      dup4\n        /* \"#utility.yul\":6000:6016   */\n      add\n        /* \"#utility.yul\":5994:6017   */\n      mload\n        /* \"#utility.yul\":5987:5991   */\n      0xa0\n        /* \"#utility.yul\":5982:5985   */\n      dup6\n        /* \"#utility.yul\":5978:5992   */\n      add\n        /* \"#utility.yul\":5971:6018   */\n      mstore\n        /* \"#utility.yul\":6067:6071   */\n      0xc0\n        /* \"#utility.yul\":6060:6065   */\n      dup4\n        /* \"#utility.yul\":6056:6072   */\n      add\n        /* \"#utility.yul\":6050:6073   */\n      mload\n        /* \"#utility.yul\":6043:6047   */\n      0xc0\n        /* \"#utility.yul\":6038:6041   */\n      dup6\n        /* \"#utility.yul\":6034:6048   */\n      add\n        /* \"#utility.yul\":6027:6074   */\n      mstore\n        /* \"#utility.yul\":6123:6127   */\n      0xe0\n        /* \"#utility.yul\":6116:6121   */\n      dup4\n        /* \"#utility.yul\":6112:6128   */\n      add\n        /* \"#utility.yul\":6106:6129   */\n      mload\n        /* \"#utility.yul\":6099:6103   */\n      0xe0\n        /* \"#utility.yul\":6094:6097   */\n      dup6\n        /* \"#utility.yul\":6090:6104   */\n      add\n        /* \"#utility.yul\":6083:6130   */\n      mstore\n        /* \"#utility.yul\":6149:6155   */\n      0x0100\n        /* \"#utility.yul\":6202:6204   */\n      dup1\n        /* \"#utility.yul\":6195:6200   */\n      dup5\n        /* \"#utility.yul\":6191:6205   */\n      add\n        /* \"#utility.yul\":6185:6206   */\n      mload\n        /* \"#utility.yul\":6180:6182   */\n      dup2\n        /* \"#utility.yul\":6175:6178   */\n      dup7\n        /* \"#utility.yul\":6171:6183   */\n      add\n        /* \"#utility.yul\":6164:6207   */\n      mstore\n      pop\n        /* \"#utility.yul\":6226:6232   */\n      0x0120\n        /* \"#utility.yul\":6280:6282   */\n      dup1\n        /* \"#utility.yul\":6273:6278   */\n      dup5\n        /* \"#utility.yul\":6269:6283   */\n      add\n        /* \"#utility.yul\":6263:6284   */\n      mload\n        /* \"#utility.yul\":6293:6338   */\n      tag_807\n        /* \"#utility.yul\":6334:6336   */\n      dup3\n        /* \"#utility.yul\":6329:6332   */\n      dup8\n        /* \"#utility.yul\":6325:6337   */\n      add\n        /* \"#utility.yul\":6309:6323   */\n      dup3\n        /* \"#utility.yul\":4740:4753   */\n      iszero\n        /* \"#utility.yul\":4733:4754   */\n      iszero\n        /* \"#utility.yul\":4721:4755   */\n      swap1\n      mstore\n        /* \"#utility.yul\":4670:4761   */\n      jump\n        /* \"#utility.yul\":6293:6338   */\n    tag_807:\n      pop\n      pop\n        /* \"#utility.yul\":6357:6363   */\n      0x0140\n        /* \"#utility.yul\":6400:6414   */\n      dup4\n      dup2\n      add\n        /* \"#utility.yul\":6394:6415   */\n      mload\n        /* \"#utility.yul\":4740:4753   */\n      iszero\n        /* \"#utility.yul\":4733:4754   */\n      iszero\n        /* \"#utility.yul\":6456:6468   */\n      swap1\n      dup6\n      add\n        /* \"#utility.yul\":4721:4755   */\n      mstore\n        /* \"#utility.yul\":6488:6494   */\n      0x0160\n        /* \"#utility.yul\":6531:6545   */\n      dup1\n      dup5\n      add\n        /* \"#utility.yul\":6525:6546   */\n      mload\n        /* \"#utility.yul\":4740:4753   */\n      iszero\n        /* \"#utility.yul\":4733:4754   */\n      iszero\n        /* \"#utility.yul\":6587:6599   */\n      swap1\n      dup6\n      add\n        /* \"#utility.yul\":4721:4755   */\n      mstore\n        /* \"#utility.yul\":6619:6625   */\n      0x0180\n        /* \"#utility.yul\":6661:6675   */\n      dup1\n      dup5\n      add\n        /* \"#utility.yul\":6655:6676   */\n      mload\n        /* \"#utility.yul\":6641:6653   */\n      swap1\n      dup6\n      add\n        /* \"#utility.yul\":6634:6677   */\n      mstore\n        /* \"#utility.yul\":6696:6702   */\n      0x01a0\n        /* \"#utility.yul\":6739:6753   */\n      dup1\n      dup5\n      add\n        /* \"#utility.yul\":6733:6754   */\n      mload\n        /* \"#utility.yul\":4740:4753   */\n      iszero\n        /* \"#utility.yul\":4733:4754   */\n      iszero\n        /* \"#utility.yul\":6795:6807   */\n      swap1\n      dup6\n      add\n        /* \"#utility.yul\":4721:4755   */\n      mstore\n        /* \"#utility.yul\":6827:6833   */\n      0x01c0\n        /* \"#utility.yul\":6870:6884   */\n      swap3\n      dup4\n      add\n        /* \"#utility.yul\":6864:6885   */\n      mload\n        /* \"#utility.yul\":4740:4753   */\n      iszero\n        /* \"#utility.yul\":4733:4754   */\n      iszero\n        /* \"#utility.yul\":6926:6938   */\n      swap3\n      swap1\n      swap4\n      add\n        /* \"#utility.yul\":4721:4755   */\n      swap2\n      swap1\n      swap2\n      mstore\n      pop\n        /* \"#utility.yul\":6955:6961   */\n      swap1\n        /* \"#utility.yul\":5243:6967   */\n      jump\t// out\n        /* \"#utility.yul\":7269:7940   */\n    tag_814:\n        /* \"#utility.yul\":7359:7364   */\n      dup1\n        /* \"#utility.yul\":7353:7365   */\n      mload\n        /* \"#utility.yul\":7348:7351   */\n      dup3\n        /* \"#utility.yul\":7341:7366   */\n      mstore\n        /* \"#utility.yul\":7444:7445   */\n      0x01\n        /* \"#utility.yul\":7440:7441   */\n      dup1\n        /* \"#utility.yul\":7435:7438   */\n      0xa0\n        /* \"#utility.yul\":7431:7442   */\n      shl\n        /* \"#utility.yul\":7427:7446   */\n      sub\n        /* \"#utility.yul\":7419:7423   */\n      0x20\n        /* \"#utility.yul\":7412:7417   */\n      dup3\n        /* \"#utility.yul\":7408:7424   */\n      add\n        /* \"#utility.yul\":7402:7425   */\n      mload\n        /* \"#utility.yul\":7398:7447   */\n      and\n        /* \"#utility.yul\":7391:7395   */\n      0x20\n        /* \"#utility.yul\":7386:7389   */\n      dup4\n        /* \"#utility.yul\":7382:7396   */\n      add\n        /* \"#utility.yul\":7375:7448   */\n      mstore\n        /* \"#utility.yul\":7323:7326   */\n      0x00\n        /* \"#utility.yul\":7494:7498   */\n      0x40\n        /* \"#utility.yul\":7487:7492   */\n      dup3\n        /* \"#utility.yul\":7483:7499   */\n      add\n        /* \"#utility.yul\":7477:7500   */\n      mload\n        /* \"#utility.yul\":7532:7536   */\n      0xc0\n        /* \"#utility.yul\":7525:7529   */\n      0x40\n        /* \"#utility.yul\":7520:7523   */\n      dup6\n        /* \"#utility.yul\":7516:7530   */\n      add\n        /* \"#utility.yul\":7509:7537   */\n      mstore\n        /* \"#utility.yul\":7558:7605   */\n      tag_816\n        /* \"#utility.yul\":7599:7603   */\n      0xc0\n        /* \"#utility.yul\":7594:7597   */\n      dup6\n        /* \"#utility.yul\":7590:7604   */\n      add\n        /* \"#utility.yul\":7576:7588   */\n      dup3\n        /* \"#utility.yul\":7558:7605   */\n      tag_795\n      jump\t// in\n    tag_816:\n        /* \"#utility.yul\":7546:7605   */\n      swap1\n      pop\n        /* \"#utility.yul\":7653:7657   */\n      0x60\n        /* \"#utility.yul\":7646:7651   */\n      dup4\n        /* \"#utility.yul\":7642:7658   */\n      add\n        /* \"#utility.yul\":7636:7659   */\n      mload\n        /* \"#utility.yul\":7701:7704   */\n      dup5\n        /* \"#utility.yul\":7695:7699   */\n      dup3\n        /* \"#utility.yul\":7691:7705   */\n      sub\n        /* \"#utility.yul\":7684:7688   */\n      0x60\n        /* \"#utility.yul\":7679:7682   */\n      dup7\n        /* \"#utility.yul\":7675:7689   */\n      add\n        /* \"#utility.yul\":7668:7706   */\n      mstore\n        /* \"#utility.yul\":7729:7768   */\n      tag_817\n        /* \"#utility.yul\":7763:7767   */\n      dup3\n        /* \"#utility.yul\":7747:7761   */\n      dup3\n        /* \"#utility.yul\":7729:7768   */\n      tag_795\n      jump\t// in\n    tag_817:\n        /* \"#utility.yul\":7715:7768   */\n      swap2\n      pop\n      pop\n        /* \"#utility.yul\":7831:7835   */\n      0x80\n        /* \"#utility.yul\":7824:7829   */\n      dup4\n        /* \"#utility.yul\":7820:7836   */\n      add\n        /* \"#utility.yul\":7814:7837   */\n      mload\n        /* \"#utility.yul\":7807:7838   */\n      iszero\n        /* \"#utility.yul\":7800:7839   */\n      iszero\n        /* \"#utility.yul\":7793:7797   */\n      0x80\n        /* \"#utility.yul\":7788:7791   */\n      dup6\n        /* \"#utility.yul\":7784:7798   */\n      add\n        /* \"#utility.yul\":7777:7840   */\n      mstore\n        /* \"#utility.yul\":7903:7907   */\n      0xa0\n        /* \"#utility.yul\":7896:7901   */\n      dup4\n        /* \"#utility.yul\":7892:7908   */\n      add\n        /* \"#utility.yul\":7886:7909   */\n      mload\n        /* \"#utility.yul\":7879:7910   */\n      iszero\n        /* \"#utility.yul\":7872:7911   */\n      iszero\n        /* \"#utility.yul\":7865:7869   */\n      0xa0\n        /* \"#utility.yul\":7860:7863   */\n      dup6\n        /* \"#utility.yul\":7856:7870   */\n      add\n        /* \"#utility.yul\":7849:7912   */\n      mstore\n        /* \"#utility.yul\":7928:7934   */\n      dup1\n        /* \"#utility.yul\":7921:7934   */\n      swap2\n      pop\n      pop\n        /* \"#utility.yul\":7269:7940   */\n      swap3\n      swap2\n      pop\n      pop\n      jump\t// out\n        /* \"#utility.yul\":8741:9597   */\n    tag_84:\n        /* \"#utility.yul\":8943:8947   */\n      0x00\n        /* \"#utility.yul\":8972:8974   */\n      0x20\n        /* \"#utility.yul\":9012:9014   */\n      dup1\n        /* \"#utility.yul\":9001:9010   */\n      dup4\n        /* \"#utility.yul\":8997:9015   */\n      add\n        /* \"#utility.yul\":9042:9044   */\n      dup2\n        /* \"#utility.yul\":9031:9040   */\n      dup5\n        /* \"#utility.yul\":9024:9045   */\n      mstore\n        /* \"#utility.yul\":9065:9071   */\n      dup1\n        /* \"#utility.yul\":9100:9106   */\n      dup6\n        /* \"#utility.yul\":9094:9107   */\n      mload\n        /* \"#utility.yul\":9131:9137   */\n      dup1\n        /* \"#utility.yul\":9123:9129   */\n      dup4\n        /* \"#utility.yul\":9116:9138   */\n      mstore\n        /* \"#utility.yul\":9169:9171   */\n      0x40\n        /* \"#utility.yul\":9158:9167   */\n      dup7\n        /* \"#utility.yul\":9154:9172   */\n      add\n        /* \"#utility.yul\":9147:9172   */\n      swap2\n      pop\n        /* \"#utility.yul\":9231:9233   */\n      0x40\n        /* \"#utility.yul\":9221:9227   */\n      dup2\n        /* \"#utility.yul\":9218:9219   */\n      0x05\n        /* \"#utility.yul\":9214:9228   */\n      shl\n        /* \"#utility.yul\":9203:9212   */\n      dup8\n        /* \"#utility.yul\":9199:9229   */\n      add\n        /* \"#utility.yul\":9195:9234   */\n      add\n        /* \"#utility.yul\":9181:9234   */\n      swap3\n      pop\n        /* \"#utility.yul\":9269:9271   */\n      dup4\n        /* \"#utility.yul\":9261:9267   */\n      dup8\n        /* \"#utility.yul\":9257:9272   */\n      add\n        /* \"#utility.yul\":9290:9291   */\n      0x00\n        /* \"#utility.yul\":9300:9568   */\n    tag_822:\n        /* \"#utility.yul\":9314:9320   */\n      dup3\n        /* \"#utility.yul\":9311:9312   */\n      dup2\n        /* \"#utility.yul\":9308:9321   */\n      lt\n        /* \"#utility.yul\":9300:9568   */\n      iszero\n      tag_824\n      jumpi\n        /* \"#utility.yul\":9407:9409   */\n      0x3f\n        /* \"#utility.yul\":9403:9410   */\n      not\n        /* \"#utility.yul\":9391:9400   */\n      dup9\n        /* \"#utility.yul\":9383:9389   */\n      dup7\n        /* \"#utility.yul\":9379:9401   */\n      sub\n        /* \"#utility.yul\":9375:9411   */\n      add\n        /* \"#utility.yul\":9370:9373   */\n      dup5\n        /* \"#utility.yul\":9363:9412   */\n      mstore\n        /* \"#utility.yul\":9435:9488   */\n      tag_825\n        /* \"#utility.yul\":9481:9487   */\n      dup6\n        /* \"#utility.yul\":9472:9478   */\n      dup4\n        /* \"#utility.yul\":9466:9479   */\n      mload\n        /* \"#utility.yul\":9435:9488   */\n      tag_801\n      jump\t// in\n    tag_825:\n        /* \"#utility.yul\":9425:9488   */\n      swap5\n      pop\n        /* \"#utility.yul\":9546:9558   */\n      swap3\n      dup6\n      add\n      swap3\n        /* \"#utility.yul\":9511:9526   */\n      swap1\n      dup6\n      add\n      swap1\n        /* \"#utility.yul\":9336:9337   */\n      0x01\n        /* \"#utility.yul\":9329:9338   */\n      add\n        /* \"#utility.yul\":9300:9568   */\n      jump(tag_822)\n    tag_824:\n      pop\n        /* \"#utility.yul\":9585:9591   */\n      swap3\n      swap8\n        /* \"#utility.yul\":8741:9597   */\n      swap7\n      pop\n      pop\n      pop\n      pop\n      pop\n      pop\n      pop\n      jump\t// out\n        /* \"#utility.yul\":9602:10323   */\n    tag_53:\n        /* \"#utility.yul\":9835:9837   */\n      0x20\n        /* \"#utility.yul\":9887:9908   */\n      dup1\n      dup3\n      mstore\n        /* \"#utility.yul\":9957:9970   */\n      dup3\n      mload\n        /* \"#utility.yul\":9860:9878   */\n      dup3\n      dup3\n      add\n        /* \"#utility.yul\":9979:10001   */\n      dup2\n      swap1\n      mstore\n        /* \"#utility.yul\":9806:9810   */\n      0x00\n      swap2\n        /* \"#utility.yul\":9835:9837   */\n      swap1\n        /* \"#utility.yul\":10058:10073   */\n      dup5\n      dup3\n      add\n      swap1\n        /* \"#utility.yul\":10032:10034   */\n      0x40\n        /* \"#utility.yul\":10017:10035   */\n      dup6\n      add\n      swap1\n        /* \"#utility.yul\":9806:9810   */\n      dup5\n        /* \"#utility.yul\":10101:10297   */\n    tag_827:\n        /* \"#utility.yul\":10115:10121   */\n      dup2\n        /* \"#utility.yul\":10112:10113   */\n      dup2\n        /* \"#utility.yul\":10109:10122   */\n      lt\n        /* \"#utility.yul\":10101:10297   */\n      iszero\n      tag_829\n      jumpi\n        /* \"#utility.yul\":10164:10215   */\n      tag_830\n        /* \"#utility.yul\":10211:10214   */\n      dup4\n        /* \"#utility.yul\":10202:10208   */\n      dup6\n        /* \"#utility.yul\":10196:10209   */\n      mload\n        /* \"#utility.yul\":7051:7063   */\n      dup1\n      mload\n        /* \"#utility.yul\":7039:7064   */\n      dup3\n      mstore\n        /* \"#utility.yul\":7113:7117   */\n      0x20\n        /* \"#utility.yul\":7102:7118   */\n      dup1\n      dup3\n      add\n        /* \"#utility.yul\":7096:7119   */\n      mload\n        /* \"#utility.yul\":7080:7094   */\n      swap1\n      dup4\n      add\n        /* \"#utility.yul\":7073:7120   */\n      mstore\n        /* \"#utility.yul\":7173:7177   */\n      0x40\n        /* \"#utility.yul\":7162:7178   */\n      dup1\n      dup3\n      add\n        /* \"#utility.yul\":7156:7179   */\n      mload\n      sub(shl(0xa0, 0x01), 0x01)\n        /* \"#utility.yul\":7152:7201   */\n      and\n        /* \"#utility.yul\":7136:7150   */\n      swap1\n      dup4\n      add\n        /* \"#utility.yul\":7129:7202   */\n      mstore\n        /* \"#utility.yul\":7251:7255   */\n      0x60\n        /* \"#utility.yul\":7240:7256   */\n      swap1\n      dup2\n      add\n        /* \"#utility.yul\":7234:7257   */\n      mload\n        /* \"#utility.yul\":7218:7232   */\n      swap2\n      add\n        /* \"#utility.yul\":7211:7258   */\n      mstore\n        /* \"#utility.yul\":6972:7264   */\n      jump\n        /* \"#utility.yul\":10164:10215   */\n    tag_830:\n        /* \"#utility.yul\":10272:10287   */\n      swap3\n      dup5\n      add\n      swap3\n        /* \"#utility.yul\":10244:10248   */\n      0x80\n        /* \"#utility.yul\":10235:10249   */\n      swap3\n      swap1\n      swap3\n      add\n      swap2\n        /* \"#utility.yul\":10137:10138   */\n      0x01\n        /* \"#utility.yul\":10130:10139   */\n      add\n        /* \"#utility.yul\":10101:10297   */\n      jump(tag_827)\n    tag_829:\n      pop\n        /* \"#utility.yul\":10314:10317   */\n      swap1\n      swap7\n        /* \"#utility.yul\":9602:10323   */\n      swap6\n      pop\n      pop\n      pop\n      pop\n      pop\n      pop\n      jump\t// out\n        /* \"#utility.yul\":10328:11181   */\n    tag_144:\n        /* \"#utility.yul\":10528:10532   */\n      0x00\n        /* \"#utility.yul\":10557:10559   */\n      0x20\n        /* \"#utility.yul\":10597:10599   */\n      dup1\n        /* \"#utility.yul\":10586:10595   */\n      dup4\n        /* \"#utility.yul\":10582:10600   */\n      add\n        /* \"#utility.yul\":10627:10629   */\n      dup2\n        /* \"#utility.yul\":10616:10625   */\n      dup5\n        /* \"#utility.yul\":10609:10630   */\n      mstore\n        /* \"#utility.yul\":10650:10656   */\n      dup1\n        /* \"#utility.yul\":10685:10691   */\n      dup6\n        /* \"#utility.yul\":10679:10692   */\n      mload\n        /* \"#utility.yul\":10716:10722   */\n      dup1\n        /* \"#utility.yul\":10708:10714   */\n      dup4\n        /* \"#utility.yul\":10701:10723   */\n      mstore\n        /* \"#utility.yul\":10754:10756   */\n      0x40\n        /* \"#utility.yul\":10743:10752   */\n      dup7\n        /* \"#utility.yul\":10739:10757   */\n      add\n        /* \"#utility.yul\":10732:10757   */\n      swap2\n      pop\n        /* \"#utility.yul\":10816:10818   */\n      0x40\n        /* \"#utility.yul\":10806:10812   */\n      dup2\n        /* \"#utility.yul\":10803:10804   */\n      0x05\n        /* \"#utility.yul\":10799:10813   */\n      shl\n        /* \"#utility.yul\":10788:10797   */\n      dup8\n        /* \"#utility.yul\":10784:10814   */\n      add\n        /* \"#utility.yul\":10780:10819   */\n      add\n        /* \"#utility.yul\":10766:10819   */\n      swap3\n      pop\n        /* \"#utility.yul\":10854:10856   */\n      dup4\n        /* \"#utility.yul\":10846:10852   */\n      dup8\n        /* \"#utility.yul\":10842:10857   */\n      add\n        /* \"#utility.yul\":10875:10876   */\n      0x00\n        /* \"#utility.yul\":10885:11152   */\n    tag_832:\n        /* \"#utility.yul\":10899:10905   */\n      dup3\n        /* \"#utility.yul\":10896:10897   */\n      dup2\n        /* \"#utility.yul\":10893:10906   */\n      lt\n        /* \"#utility.yul\":10885:11152   */\n      iszero\n      tag_824\n      jumpi\n        /* \"#utility.yul\":10992:10994   */\n      0x3f\n        /* \"#utility.yul\":10988:10995   */\n      not\n        /* \"#utility.yul\":10976:10985   */\n      dup9\n        /* \"#utility.yul\":10968:10974   */\n      dup7\n        /* \"#utility.yul\":10964:10986   */\n      sub\n        /* \"#utility.yul\":10960:10996   */\n      add\n        /* \"#utility.yul\":10955:10958   */\n      dup5\n        /* \"#utility.yul\":10948:10997   */\n      mstore\n        /* \"#utility.yul\":11020:11072   */\n      tag_835\n        /* \"#utility.yul\":11065:11071   */\n      dup6\n        /* \"#utility.yul\":11056:11062   */\n      dup4\n        /* \"#utility.yul\":11050:11063   */\n      mload\n        /* \"#utility.yul\":11020:11072   */\n      tag_814\n      jump\t// in\n    tag_835:\n        /* \"#utility.yul\":11010:11072   */\n      swap5\n      pop\n        /* \"#utility.yul\":11130:11142   */\n      swap3\n      dup6\n      add\n      swap3\n        /* \"#utility.yul\":11095:11110   */\n      swap1\n      dup6\n      add\n      swap1\n        /* \"#utility.yul\":10921:10922   */\n      0x01\n        /* \"#utility.yul\":10914:10923   */\n      add\n        /* \"#utility.yul\":10885:11152   */\n      jump(tag_832)\n        /* \"#utility.yul\":11378:11787   */\n    tag_241:\n        /* \"#utility.yul\":11580:11582   */\n      0x20\n        /* \"#utility.yul\":11562:11583   */\n      dup1\n      dup3\n      mstore\n        /* \"#utility.yul\":11619:11621   */\n      0x2d\n        /* \"#utility.yul\":11599:11617   */\n      swap1\n      dup3\n      add\n        /* \"#utility.yul\":11592:11622   */\n      mstore\n        /* \"#utility.yul\":11658:11692   */\n      0x4f6e6c792061204372656174696e6720757365722063616e20706572666f726d\n        /* \"#utility.yul\":11653:11655   */\n      0x40\n        /* \"#utility.yul\":11638:11656   */\n      dup3\n      add\n        /* \"#utility.yul\":11631:11693   */\n      mstore\n      shl(0x99, 0x103a3434b99030b1ba34b7b717)\n        /* \"#utility.yul\":11724:11726   */\n      0x60\n        /* \"#utility.yul\":11709:11727   */\n      dup3\n      add\n        /* \"#utility.yul\":11702:11745   */\n      mstore\n        /* \"#utility.yul\":11777:11780   */\n      0x80\n        /* \"#utility.yul\":11762:11781   */\n      add\n      swap1\n        /* \"#utility.yul\":11378:11787   */\n      jump\t// out\n        /* \"#utility.yul\":12205:12478   */\n    tag_69:\n        /* \"#utility.yul\":12394:12396   */\n      0x20\n        /* \"#utility.yul\":12383:12392   */\n      dup2\n        /* \"#utility.yul\":12376:12397   */\n      mstore\n        /* \"#utility.yul\":12357:12361   */\n      0x00\n        /* \"#utility.yul\":12414:12472   */\n      tag_262\n        /* \"#utility.yul\":12468:12470   */\n      0x20\n        /* \"#utility.yul\":12457:12466   */\n      dup4\n        /* \"#utility.yul\":12453:12471   */\n      add\n        /* \"#utility.yul\":12445:12451   */\n      dup5\n        /* \"#utility.yul\":12414:12472   */\n      tag_801\n      jump\t// in\n        /* \"#utility.yul\":13092:13357   */\n    tag_75:\n        /* \"#utility.yul\":7051:7063   */\n      dup2\n      mload\n        /* \"#utility.yul\":7039:7064   */\n      dup2\n      mstore\n        /* \"#utility.yul\":7113:7117   */\n      0x20\n        /* \"#utility.yul\":7102:7118   */\n      dup1\n      dup4\n      add\n        /* \"#utility.yul\":7096:7119   */\n      mload\n        /* \"#utility.yul\":7080:7094   */\n      swap1\n      dup3\n      add\n        /* \"#utility.yul\":7073:7120   */\n      mstore\n        /* \"#utility.yul\":7173:7177   */\n      0x40\n        /* \"#utility.yul\":7162:7178   */\n      dup1\n      dup4\n      add\n        /* \"#utility.yul\":7156:7179   */\n      mload\n      sub(shl(0xa0, 0x01), 0x01)\n        /* \"#utility.yul\":7152:7201   */\n      and\n        /* \"#utility.yul\":7136:7150   */\n      swap1\n      dup3\n      add\n        /* \"#utility.yul\":7129:7202   */\n      mstore\n        /* \"#utility.yul\":7251:7255   */\n      0x60\n        /* \"#utility.yul\":7240:7256   */\n      dup1\n      dup4\n      add\n        /* \"#utility.yul\":7234:7257   */\n      mload\n        /* \"#utility.yul\":7218:7232   */\n      swap1\n      dup3\n      add\n        /* \"#utility.yul\":7211:7258   */\n      mstore\n        /* \"#utility.yul\":13288:13291   */\n      0x80\n        /* \"#utility.yul\":13273:13292   */\n      dup2\n      add\n        /* \"#utility.yul\":13301:13351   */\n      tag_195\n        /* \"#utility.yul\":6972:7264   */\n      jump\n        /* \"#utility.yul\":13362:13632   */\n    tag_90:\n        /* \"#utility.yul\":13549:13551   */\n      0x20\n        /* \"#utility.yul\":13538:13547   */\n      dup2\n        /* \"#utility.yul\":13531:13552   */\n      mstore\n        /* \"#utility.yul\":13512:13516   */\n      0x00\n        /* \"#utility.yul\":13569:13626   */\n      tag_262\n        /* \"#utility.yul\":13622:13624   */\n      0x20\n        /* \"#utility.yul\":13611:13620   */\n      dup4\n        /* \"#utility.yul\":13607:13625   */\n      add\n        /* \"#utility.yul\":13599:13605   */\n      dup5\n        /* \"#utility.yul\":13569:13626   */\n      tag_814\n      jump\t// in\n        /* \"#utility.yul\":13819:13947   */\n    tag_713:\n        /* \"#utility.yul\":13859:13862   */\n      0x00\n        /* \"#utility.yul\":13890:13891   */\n      dup3\n        /* \"#utility.yul\":13886:13892   */\n      not\n        /* \"#utility.yul\":13883:13884   */\n      dup3\n        /* \"#utility.yul\":13880:13893   */\n      gt\n        /* \"#utility.yul\":13877:13916   */\n      iszero\n      tag_849\n      jumpi\n        /* \"#utility.yul\":13896:13914   */\n      tag_849\n      tag_850\n      jump\t// in\n    tag_849:\n      pop\n        /* \"#utility.yul\":13932:13941   */\n      add\n      swap1\n        /* \"#utility.yul\":13819:13947   */\n      jump\t// out\n        /* \"#utility.yul\":13952:14169   */\n    tag_479:\n        /* \"#utility.yul\":13992:13993   */\n      0x00\n        /* \"#utility.yul\":14018:14019   */\n      dup3\n        /* \"#utility.yul\":14008:14140   */\n      tag_852\n      jumpi\n        /* \"#utility.yul\":14062:14072   */\n      0x4e487b71\n        /* \"#utility.yul\":14057:14060   */\n      0xe0\n        /* \"#utility.yul\":14053:14073   */\n      shl\n        /* \"#utility.yul\":14050:14051   */\n      0x00\n        /* \"#utility.yul\":14043:14074   */\n      mstore\n        /* \"#utility.yul\":14097:14101   */\n      0x12\n        /* \"#utility.yul\":14094:14095   */\n      0x04\n        /* \"#utility.yul\":14087:14102   */\n      mstore\n        /* \"#utility.yul\":14125:14129   */\n      0x24\n        /* \"#utility.yul\":14122:14123   */\n      0x00\n        /* \"#utility.yul\":14115:14130   */\n      revert\n        /* \"#utility.yul\":14008:14140   */\n    tag_852:\n      pop\n        /* \"#utility.yul\":14154:14163   */\n      div\n      swap1\n        /* \"#utility.yul\":13952:14169   */\n      jump\t// out\n        /* \"#utility.yul\":14174:14596   */\n    tag_853:\n        /* \"#utility.yul\":14263:14264   */\n      0x01\n        /* \"#utility.yul\":14306:14311   */\n      dup2\n        /* \"#utility.yul\":14263:14264   */\n      dup2\n        /* \"#utility.yul\":14320:14590   */\n    tag_855:\n        /* \"#utility.yul\":14341:14348   */\n      dup1\n        /* \"#utility.yul\":14331:14339   */\n      dup6\n        /* \"#utility.yul\":14328:14349   */\n      gt\n        /* \"#utility.yul\":14320:14590   */\n      iszero\n      tag_857\n      jumpi\n        /* \"#utility.yul\":14400:14404   */\n      dup2\n        /* \"#utility.yul\":14396:14397   */\n      0x00\n        /* \"#utility.yul\":14392:14398   */\n      not\n        /* \"#utility.yul\":14388:14405   */\n      div\n        /* \"#utility.yul\":14382:14386   */\n      dup3\n        /* \"#utility.yul\":14379:14406   */\n      gt\n        /* \"#utility.yul\":14376:14429   */\n      iszero\n      tag_859\n      jumpi\n        /* \"#utility.yul\":14409:14427   */\n      tag_859\n      tag_850\n      jump\t// in\n    tag_859:\n        /* \"#utility.yul\":14459:14466   */\n      dup1\n        /* \"#utility.yul\":14449:14457   */\n      dup6\n        /* \"#utility.yul\":14445:14467   */\n      and\n        /* \"#utility.yul\":14442:14497   */\n      iszero\n      tag_860\n      jumpi\n        /* \"#utility.yul\":14479:14495   */\n      swap2\n      dup2\n      mul\n      swap2\n        /* \"#utility.yul\":14442:14497   */\n    tag_860:\n        /* \"#utility.yul\":14558:14580   */\n      swap4\n      dup5\n      shr\n      swap4\n        /* \"#utility.yul\":14518:14533   */\n      swap1\n      dup1\n      mul\n      swap1\n        /* \"#utility.yul\":14320:14590   */\n      jump(tag_855)\n    tag_857:\n        /* \"#utility.yul\":14324:14327   */\n      pop\n        /* \"#utility.yul\":14174:14596   */\n      swap3\n      pop\n      swap3\n      swap1\n      pop\n      jump\t// out\n        /* \"#utility.yul\":14601:14741   */\n    tag_394:\n        /* \"#utility.yul\":14659:14664   */\n      0x00\n        /* \"#utility.yul\":14688:14735   */\n      tag_262\n        /* \"#utility.yul\":14729:14733   */\n      0xff\n        /* \"#utility.yul\":14719:14727   */\n      dup5\n        /* \"#utility.yul\":14715:14734   */\n      and\n        /* \"#utility.yul\":14709:14713   */\n      dup4\n        /* \"#utility.yul\":14795:14800   */\n      0x00\n        /* \"#utility.yul\":14825:14833   */\n      dup3\n        /* \"#utility.yul\":14815:14895   */\n      tag_865\n      jumpi\n      pop\n        /* \"#utility.yul\":14866:14867   */\n      0x01\n        /* \"#utility.yul\":14880:14885   */\n      jump(tag_195)\n        /* \"#utility.yul\":14815:14895   */\n    tag_865:\n        /* \"#utility.yul\":14914:14918   */\n      dup2\n        /* \"#utility.yul\":14904:14980   */\n      tag_866\n      jumpi\n      pop\n        /* \"#utility.yul\":14951:14952   */\n      0x00\n        /* \"#utility.yul\":14965:14970   */\n      jump(tag_195)\n        /* \"#utility.yul\":14904:14980   */\n    tag_866:\n        /* \"#utility.yul\":14996:15000   */\n      dup2\n        /* \"#utility.yul\":15014:15015   */\n      0x01\n        /* \"#utility.yul\":15009:15068   */\n      dup2\n      eq\n      tag_868\n      jumpi\n        /* \"#utility.yul\":15082:15083   */\n      0x02\n        /* \"#utility.yul\":15077:15207   */\n      dup2\n      eq\n      tag_869\n      jumpi\n        /* \"#utility.yul\":14989:15207   */\n      jump(tag_867)\n        /* \"#utility.yul\":15009:15068   */\n    tag_868:\n        /* \"#utility.yul\":15039:15040   */\n      0x01\n        /* \"#utility.yul\":15030:15040   */\n      swap2\n      pop\n        /* \"#utility.yul\":15053:15058   */\n      pop\n      jump(tag_195)\n        /* \"#utility.yul\":15077:15207   */\n    tag_869:\n        /* \"#utility.yul\":15114:15117   */\n      0xff\n        /* \"#utility.yul\":15104:15112   */\n      dup5\n        /* \"#utility.yul\":15101:15118   */\n      gt\n        /* \"#utility.yul\":15098:15141   */\n      iszero\n      tag_871\n      jumpi\n        /* \"#utility.yul\":15121:15139   */\n      tag_871\n      tag_850\n      jump\t// in\n    tag_871:\n      pop\n      pop\n        /* \"#utility.yul\":15177:15178   */\n      0x01\n        /* \"#utility.yul\":15163:15179   */\n      dup3\n      shl\n        /* \"#utility.yul\":15192:15197   */\n      jump(tag_195)\n        /* \"#utility.yul\":14989:15207   */\n    tag_867:\n      pop\n        /* \"#utility.yul\":15291:15293   */\n      0x20\n        /* \"#utility.yul\":15281:15289   */\n      dup4\n        /* \"#utility.yul\":15278:15294   */\n      lt\n        /* \"#utility.yul\":15272:15275   */\n      0x0133\n        /* \"#utility.yul\":15266:15270   */\n      dup4\n        /* \"#utility.yul\":15263:15276   */\n      lt\n        /* \"#utility.yul\":15259:15295   */\n      and\n        /* \"#utility.yul\":15253:15255   */\n      0x4e\n        /* \"#utility.yul\":15243:15251   */\n      dup5\n        /* \"#utility.yul\":15240:15256   */\n      lt\n        /* \"#utility.yul\":15235:15237   */\n      0x0b\n        /* \"#utility.yul\":15229:15233   */\n      dup5\n        /* \"#utility.yul\":15226:15238   */\n      lt\n        /* \"#utility.yul\":15222:15257   */\n      and\n        /* \"#utility.yul\":15219:15296   */\n      or\n        /* \"#utility.yul\":15216:15375   */\n      iszero\n      tag_872\n      jumpi\n      pop\n        /* \"#utility.yul\":15328:15347   */\n      dup2\n      dup2\n      exp\n        /* \"#utility.yul\":15360:15365   */\n      jump(tag_195)\n        /* \"#utility.yul\":15216:15375   */\n    tag_872:\n        /* \"#utility.yul\":15407:15441   */\n      tag_873\n        /* \"#utility.yul\":15432:15440   */\n      dup4\n        /* \"#utility.yul\":15426:15430   */\n      dup4\n        /* \"#utility.yul\":15407:15441   */\n      tag_853\n      jump\t// in\n    tag_873:\n        /* \"#utility.yul\":15477:15483   */\n      dup1\n        /* \"#utility.yul\":15473:15474   */\n      0x00\n        /* \"#utility.yul\":15469:15475   */\n      not\n        /* \"#utility.yul\":15465:15484   */\n      div\n        /* \"#utility.yul\":15456:15463   */\n      dup3\n        /* \"#utility.yul\":15453:15485   */\n      gt\n        /* \"#utility.yul\":15450:15508   */\n      iszero\n      tag_875\n      jumpi\n        /* \"#utility.yul\":15488:15506   */\n      tag_875\n      tag_850\n      jump\t// in\n    tag_875:\n        /* \"#utility.yul\":15526:15546   */\n      mul\n      swap4\n        /* \"#utility.yul\":14746:15552   */\n      swap3\n      pop\n      pop\n      pop\n      jump\t// out\n        /* \"#utility.yul\":15557:15725   */\n    tag_396:\n        /* \"#utility.yul\":15597:15604   */\n      0x00\n        /* \"#utility.yul\":15663:15664   */\n      dup2\n        /* \"#utility.yul\":15659:15660   */\n      0x00\n        /* \"#utility.yul\":15655:15661   */\n      not\n        /* \"#utility.yul\":15651:15665   */\n      div\n        /* \"#utility.yul\":15648:15649   */\n      dup4\n        /* \"#utility.yul\":15645:15666   */\n      gt\n        /* \"#utility.yul\":15640:15641   */\n      dup3\n        /* \"#utility.yul\":15633:15642   */\n      iszero\n        /* \"#utility.yul\":15626:15643   */\n      iszero\n        /* \"#utility.yul\":15622:15667   */\n      and\n        /* \"#utility.yul\":15619:15690   */\n      iszero\n      tag_878\n      jumpi\n        /* \"#utility.yul\":15670:15688   */\n      tag_878\n      tag_850\n      jump\t// in\n    tag_878:\n      pop\n        /* \"#utility.yul\":15710:15719   */\n      mul\n      swap1\n        /* \"#utility.yul\":15557:15725   */\n      jump\t// out\n        /* \"#utility.yul\":15730:16110   */\n    tag_285:\n        /* \"#utility.yul\":15809:15810   */\n      0x01\n        /* \"#utility.yul\":15805:15817   */\n      dup2\n      dup2\n      shr\n      swap1\n        /* \"#utility.yul\":15852:15864   */\n      dup3\n      and\n      dup1\n        /* \"#utility.yul\":15873:15934   */\n      tag_880\n      jumpi\n        /* \"#utility.yul\":15927:15931   */\n      0x7f\n        /* \"#utility.yul\":15919:15925   */\n      dup3\n        /* \"#utility.yul\":15915:15932   */\n      and\n        /* \"#utility.yul\":15905:15932   */\n      swap2\n      pop\n        /* \"#utility.yul\":15873:15934   */\n    tag_880:\n        /* \"#utility.yul\":15980:15982   */\n      0x20\n        /* \"#utility.yul\":15972:15978   */\n      dup3\n        /* \"#utility.yul\":15969:15983   */\n      lt\n        /* \"#utility.yul\":15949:15967   */\n      dup2\n        /* \"#utility.yul\":15946:15984   */\n      eq\n        /* \"#utility.yul\":15943:16104   */\n      iszero\n      tag_242\n      jumpi\n        /* \"#utility.yul\":16026:16036   */\n      0x4e487b71\n        /* \"#utility.yul\":16021:16024   */\n      0xe0\n        /* \"#utility.yul\":16017:16037   */\n      shl\n        /* \"#utility.yul\":16014:16015   */\n      0x00\n        /* \"#utility.yul\":16007:16038   */\n      mstore\n        /* \"#utility.yul\":16061:16065   */\n      0x22\n        /* \"#utility.yul\":16058:16059   */\n      0x04\n        /* \"#utility.yul\":16051:16066   */\n      mstore\n        /* \"#utility.yul\":16089:16093   */\n      0x24\n        /* \"#utility.yul\":16086:16087   */\n      0x00\n        /* \"#utility.yul\":16079:16094   */\n      revert\n        /* \"#utility.yul\":16115:16250   */\n    tag_217:\n        /* \"#utility.yul\":16154:16157   */\n      0x00\n      not(0x00)\n        /* \"#utility.yul\":16175:16192   */\n      dup3\n      eq\n        /* \"#utility.yul\":16172:16215   */\n      iszero\n      tag_884\n      jumpi\n        /* \"#utility.yul\":16195:16213   */\n      tag_884\n      tag_850\n      jump\t// in\n    tag_884:\n      pop\n        /* \"#utility.yul\":16242:16243   */\n      0x01\n        /* \"#utility.yul\":16231:16244   */\n      add\n      swap1\n        /* \"#utility.yul\":16115:16250   */\n      jump\t// out\n        /* \"#utility.yul\":16255:16382   */\n    tag_850:\n        /* \"#utility.yul\":16316:16326   */\n      0x4e487b71\n        /* \"#utility.yul\":16311:16314   */\n      0xe0\n        /* \"#utility.yul\":16307:16327   */\n      shl\n        /* \"#utility.yul\":16304:16305   */\n      0x00\n        /* \"#utility.yul\":16297:16328   */\n      mstore\n        /* \"#utility.yul\":16347:16351   */\n      0x11\n        /* \"#utility.yul\":16344:16345   */\n      0x04\n        /* \"#utility.yul\":16337:16352   */\n      mstore\n        /* \"#utility.yul\":16371:16375   */\n      0x24\n        /* \"#utility.yul\":16368:16369   */\n      0x00\n        /* \"#utility.yul\":16361:16376   */\n      revert\n        /* \"#utility.yul\":16387:16514   */\n    tag_211:\n        /* \"#utility.yul\":16448:16458   */\n      0x4e487b71\n        /* \"#utility.yul\":16443:16446   */\n      0xe0\n        /* \"#utility.yul\":16439:16459   */\n      shl\n        /* \"#utility.yul\":16436:16437   */\n      0x00\n        /* \"#utility.yul\":16429:16460   */\n      mstore\n        /* \"#utility.yul\":16479:16483   */\n      0x32\n        /* \"#utility.yul\":16476:16477   */\n      0x04\n        /* \"#utility.yul\":16469:16484   */\n      mstore\n        /* \"#utility.yul\":16503:16507   */\n      0x24\n        /* \"#utility.yul\":16500:16501   */\n      0x00\n        /* \"#utility.yul\":16493:16508   */\n      revert\n        /* \"#utility.yul\":16519:16646   */\n    tag_201:\n        /* \"#utility.yul\":16580:16590   */\n      0x4e487b71\n        /* \"#utility.yul\":16575:16578   */\n      0xe0\n        /* \"#utility.yul\":16571:16591   */\n      shl\n        /* \"#utility.yul\":16568:16569   */\n      0x00\n        /* \"#utility.yul\":16561:16592   */\n      mstore\n        /* \"#utility.yul\":16611:16615   */\n      0x41\n        /* \"#utility.yul\":16608:16609   */\n      0x04\n        /* \"#utility.yul\":16601:16616   */\n      mstore\n        /* \"#utility.yul\":16635:16639   */\n      0x24\n        /* \"#utility.yul\":16632:16633   */\n      0x00\n        /* \"#utility.yul\":16625:16640   */\n      revert\n        /* \"#utility.yul\":16651:16769   */\n    tag_772:\n        /* \"#utility.yul\":16737:16742   */\n      dup1\n        /* \"#utility.yul\":16730:16743   */\n      iszero\n        /* \"#utility.yul\":16723:16744   */\n      iszero\n        /* \"#utility.yul\":16716:16721   */\n      dup2\n        /* \"#utility.yul\":16713:16745   */\n      eq\n        /* \"#utility.yul\":16703:16763   */\n      tag_889\n      jumpi\n        /* \"#utility.yul\":16759:16760   */\n      0x00\n        /* \"#utility.yul\":16756:16757   */\n      dup1\n        /* \"#utility.yul\":16749:16761   */\n      revert\n        /* \"#utility.yul\":16703:16763   */\n    tag_889:\n        /* \"#utility.yul\":16651:16769   */\n      pop\n      jump\t// out\n\n    auxdata: 0xa264697066735822122073d24c14265c096c0b483d20cbb6149fae4dec8d2905226f00538692afba553b64736f6c63430008070033\n}\n",
				"bytecode": {
					"linkReferences": {},
					"object": "6080604052600980546001600160a01b03191673874069fa1eb16d44d622f2e0ca25eea172369bc11790553480156200003757600080fd5b50604051620046aa380380620046aa8339810160408190526200005a9162000080565b600480546001600160a01b0319166001600160a01b0392909216919091179055620000b2565b6000602082840312156200009357600080fd5b81516001600160a01b0381168114620000ab57600080fd5b9392505050565b6145e880620000c26000396000f3fe608060405234801561001057600080fd5b50600436106101fb5760003560e01c806376f8cbd51161011a578063c5b84029116100ad578063d011287d1161007c578063d011287d146104d9578063d903708b146104ec578063e5b16b4c146104ff578063ea42e48614610512578063f5caa96b1461052557600080fd5b8063c5b8402914610498578063c89e9666146104ab578063cee34e7b146104be578063cfd9f3da146104c657600080fd5b806399bb6b08116100e957806399bb6b081461043f578063ad395c1414610452578063b98079bc14610472578063bb72caef1461048557600080fd5b806376f8cbd5146103db57806389ee68bf146103ee5780639371de2b146104015780639720807c1461041457600080fd5b80634ceb48fd1161019257806371ffeffe1161016157806371ffeffe1461038f5780637354a25f146103a25780637370f6cc146103b557806375362943146103c857600080fd5b80634ceb48fd146102ef5780635d3ee0ee1461030f57806365212f7014610317578063666ac2fb1461037c57600080fd5b806325299d67116101ce57806325299d671461027c57806325fb0d551461029c57806327b7aabc146102bc5780633b902afe146102cf57600080fd5b80630c6c56f914610200578063184b093814610226578063235b3a3d1461024657806324c67b0314610259575b600080fd5b61021361020e366004613dfb565b610538565b6040519081526020015b60405180910390f35b610239610234366004613dfb565b6105c2565b60405161021d9190614257565b610239610254366004613f68565b6106e8565b61026c610267366004613f68565b61080b565b604051901515815260200161021d565b61028f61028a366004613e8a565b6108f5565b60405161021d919061436e565b6102af6102aa366004613fc6565b610b3f565b60405161021d9190614381565b6102af6102ca366004613f68565b610c5e565b6102e26102dd366004613dfb565b610cc9565b60405161021d91906141f5565b6103026102fd366004613e16565b611029565b60405161021d91906143b5565b6102e26111b7565b61032a610325366004613f68565b61150c565b60405161021d919081518152602080830151908201526040808301516001600160a01b031690820152606080830151908201526080808301519082015260a09182015115159181019190915260c00190565b61021361038a366004613dfb565b611590565b61026c61039d366004613dfb565b61162f565b6102136103b0366004613f68565b61178d565b61026c6103c3366004613f68565b611825565b61026c6103d6366004613f9a565b611949565b6102136103e9366004613f68565b611c17565b61032a6103fc366004613f68565b611eef565b61026c61040f366004613dfb565b6124db565b600454610427906001600160a01b031681565b6040516001600160a01b03909116815260200161021d565b61030261044d366004613dfb565b6126e8565b610465610460366004613f68565b6128f8565b60405161021d91906142cc565b61028f610480366004613f68565b612a21565b61032a610493366004613ffb565b612d0f565b6102136104a6366004613dfb565b612ea5565b6103026104b9366004613f68565b61318e565b610213613374565b61028f6104d4366004613f68565b61364b565b61026c6104e7366004613f68565b6137b5565b61028f6104fa366004613f68565b61388b565b61021361050d366004613f68565b613a25565b61026c610520366004613f68565b613a8d565b61026c610533366004613f9a565b613b12565b600954604051636eb1769f60e11b81526001600160a01b038381166004830152306024830152600092169063dd62ed3e9060440160206040518083038186803b15801561058457600080fd5b505afa158015610598573d6000803e3d6000fd5b505050506040513d601f19601f820116820180604052508101906105bc9190613f81565b92915050565b60606000806105d084611590565b67ffffffffffffffff8111156105e8576105e861458b565b60405190808252806020026020018201604052801561062157816020015b61060e613b80565b8152602001906001900390816106065790505b50905060005b6002548110156106e05760006002828154811061064657610646614575565b60009182526020918290206040805160808101825260049093029091018054835260018101549383019390935260028301546001600160a01b03908116918301829052600390930154606083015290925090871614156106cd57808385815181106106b3576106b3614575565b602002602001018190525083806106c990614544565b9450505b50806106d881614544565b915050610627565b509392505050565b60606000806106f68461178d565b905060008167ffffffffffffffff8111156107135761071361458b565b60405190808252806020026020018201604052801561074c57816020015b610739613b80565b8152602001906001900390816107315790505b50905060005b828110156108025760006002828154811061076f5761076f614575565b600091825260209182902060408051608081018252600490930290910180548352600181015493830184905260028101546001600160a01b03169183019190915260030154606082015291508714156107ef57808386815181106107d5576107d5614575565b602002602001018190525084806107eb90614544565b9550505b50806107fa81614544565b915050610752565b50949350505050565b6000816108188133611949565b61083d5760405162461bcd60e51b815260040161083490614321565b60405180910390fd5b60005b6003548110156108e95760006003828154811061085f5761085f614575565b60009182526020918290206040805160c081018252600690930290910180548352600181015493830184905260028101546001600160a01b03169183019190915260038101546060830152600481015460808301526005015460ff16151560a082015291508514156108d6576001935050506108ef565b50806108e181614544565b915050610840565b50600091505b50919050565b6108fd613bb1565b600654604080516101e0810182528281526001600160a01b038b811660208084019182529383018c8152606084018c9052608084018b905260a084018a90524260c0850181905260e0850181905261010085018a905260006101208601819052891515610140870152610160860181905261018086018190526101a086018190526101c08601819052600180548082018255915285517fb10e2d527612073b26eecdfd717e6a320cf44b4afac2b0732d9fcbe2b7fa0cf6600c90920291820190815593517fb10e2d527612073b26eecdfd717e6a320cf44b4afac2b0732d9fcbe2b7fa0cf7820180546001600160a01b0319169190961617909455905180519195869594610a33937fb10e2d527612073b26eecdfd717e6a320cf44b4afac2b0732d9fcbe2b7fa0cf89091019290910190613c3a565b5060608201518051610a4f916003840191602090910190613c3a565b5060808201518051610a6b916004840191602090910190613c3a565b5060a0820151600582015560c082015160068083019190915560e083015160078301556101008084015160088401556101208401516009840180546101408701516101608801511515620100000262ff000019911515860261ff0019951515861661ffff1994851617179190911617909155610180860151600a8601556101a0860151600b90950180546101c0909701511515909302941515909116941693909317919091179091558054906000610b2283614544565b9190505550610b3083612a21565b9b9a5050505050505050505050565b610b47613b80565b6007805460408051608081018252828152602081018881526001600160a01b038881169383019384526060830188815260028054600181018255600091825294517f405787fa12a823e0f2b7631cc41b3ba8828b3321ca811111fa75cd3aa3bb5ace60049096029586015592517f405787fa12a823e0f2b7631cc41b3ba8828b3321ca811111fa75cd3aa3bb5acf85015593517f405787fa12a823e0f2b7631cc41b3ba8828b3321ca811111fa75cd3aa3bb5ad0840180546001600160a01b0319169190921617905591517f405787fa12a823e0f2b7631cc41b3ba8828b3321ca811111fa75cd3aa3bb5ad1909101558254919290610c4583614544565b9190505550610c5381610c5e565b9150505b9392505050565b610c66613b80565b60028281548110610c7957610c79614575565b60009182526020918290206040805160808101825260049093029091018054835260018101549383019390935260028301546001600160a01b031690820152600390910154606082015292915050565b60606000610cd683612ea5565b67ffffffffffffffff811115610cee57610cee61458b565b604051908082528060200260200182016040528015610d2757816020015b610d14613bb1565b815260200190600190039081610d0c5790505b50905060005b60015481101561102257600060018281548110610d4c57610d4c614575565b90600052602060002090600c0201604051806101e0016040529081600082015481526020016001820160009054906101000a90046001600160a01b03166001600160a01b03166001600160a01b03168152602001600282018054610daf9061450f565b80601f0160208091040260200160405190810160405280929190818152602001828054610ddb9061450f565b8015610e285780601f10610dfd57610100808354040283529160200191610e28565b820191906000526020600020905b815481529060010190602001808311610e0b57829003601f168201915b50505050508152602001600382018054610e419061450f565b80601f0160208091040260200160405190810160405280929190818152602001828054610e6d9061450f565b8015610eba5780601f10610e8f57610100808354040283529160200191610eba565b820191906000526020600020905b815481529060010190602001808311610e9d57829003601f168201915b50505050508152602001600482018054610ed39061450f565b80601f0160208091040260200160405190810160405280929190818152602001828054610eff9061450f565b8015610f4c5780601f10610f2157610100808354040283529160200191610f4c565b820191906000526020600020905b815481529060010190602001808311610f2f57829003601f168201915b50505091835250506005820154602080830191909152600683015460408301526007830154606083015260088301546080830152600983015460ff808216151560a08501526101008083048216151560c0860152620100009092048116151560e0850152600a85015482850152600b909401548085161515610120850152049092161515610140909101528101519091506001600160a01b038681169116141561100f578083838151811061100357611003614575565b60200260200101819052505b508061101a81614544565b915050610d2d565b5092915050565b611031613cbe565b600061103c856124db565b905080156110555761104d856126e8565b915050610c57565b600580546040805160c0810182528281526001600160a01b03808a1660208084019182529383018a8152606084018a905260006080850181905260a085018190528054600181018255908052845197027f290decd9548b62a8d60345a988386fc84ba6bc95484008f6362f93160ef3e563810197885591517f290decd9548b62a8d60345a988386fc84ba6bc95484008f6362f93160ef3e56483018054919094166001600160a01b03199091161790925590518051949592949293611141937f290decd9548b62a8d60345a988386fc84ba6bc95484008f6362f93160ef3e56590930192910190613c3a565b506060820151805161115d916003840191602090910190613c3a565b5060808201516004909101805460a09093015115156101000261ff00199215159290921661ffff19909316929092171790556005805490600061119f83614544565b91905055506111ad8161318e565b9695505050505050565b60606000806111c4613374565b67ffffffffffffffff8111156111dc576111dc61458b565b60405190808252806020026020018201604052801561121557816020015b611202613bb1565b8152602001906001900390816111fa5790505b50905060005b6001548110156110225760006001828154811061123a5761123a614575565b90600052602060002090600c0201604051806101e0016040529081600082015481526020016001820160009054906101000a90046001600160a01b03166001600160a01b03166001600160a01b0316815260200160028201805461129d9061450f565b80601f01602080910402602001604051908101604052809291908181526020018280546112c99061450f565b80156113165780601f106112eb57610100808354040283529160200191611316565b820191906000526020600020905b8154815290600101906020018083116112f957829003601f168201915b5050505050815260200160038201805461132f9061450f565b80601f016020809104026020016040519081016040528092919081815260200182805461135b9061450f565b80156113a85780601f1061137d576101008083540402835291602001916113a8565b820191906000526020600020905b81548152906001019060200180831161138b57829003601f168201915b505050505081526020016004820180546113c19061450f565b80601f01602080910402602001604051908101604052809291908181526020018280546113ed9061450f565b801561143a5780601f1061140f5761010080835404028352916020019161143a565b820191906000526020600020905b81548152906001019060200180831161141d57829003601f168201915b505050918352505060058201546020820152600682015460408201526007820154606082015260088201546080820152600982015460ff808216151560a08401526101008083048216151560c0850152620100009092048116151560e0840152600a84015482840152600b90930154808416151561012084015204909116151561014091820152810151909150156114f957808385815181106114df576114df614575565b602002602001018190525083806114f590614544565b9450505b508061150481614544565b91505061121b565b611514613d01565b6003828154811061152757611527614575565b60009182526020918290206040805160c08101825260069093029091018054835260018101549383019390935260028301546001600160a01b031690820152600382015460608201526004820154608082015260059091015460ff16151560a082015292915050565b600080805b600254811015611022576000600282815481106115b4576115b4614575565b60009182526020918290206040805160808101825260049093029091018054835260018101549383019390935260028301546001600160a01b039081169183018290526003909301546060830152909250908616141561161c578261161881614544565b9350505b508061162781614544565b915050611595565b600061163a336124db565b61169b5760405162461bcd60e51b815260206004820152602c60248201527f4f6e6c79204578697374696e672075736572732063616e20706572666f726d2060448201526b3a3434b99030b1ba34b7b71760a11b6064820152608401610834565b60006116a6836126e8565b90508060a001516117825780516001608083015260008054839190839081106116d1576116d1614575565b6000918252602091829020835160059290920201908155828201516001820180546001600160a01b0319166001600160a01b0390921691909117905560408301518051919261172892600285019290910190613c3a565b5060608201518051611744916003840191602090910190613c3a565b5060808201516004909101805460a09093015115156101000261ff00199215159290921661ffff199093169290921717905550600191506117889050565b60009150505b919050565b600080805b600254811015611022576000600282815481106117b1576117b1614575565b600091825260209182902060408051608081018252600490930290910180548352600181015493830184905260028101546001600160a01b0316918301919091526003015460608201529150851415611812578261180e81614544565b9350505b508061181d81614544565b915050611792565b600080600960009054906101000a90046001600160a01b03166001600160a01b031663313ce5676040518163ffffffff1660e01b815260040160206040518083038186803b15801561187657600080fd5b505afa15801561188a573d6000803e3d6000fd5b505050506040513d601f19601f820116820180604052508101906118ae919061401d565b6118b990600a614445565b6118c390846144f0565b60095460405163095ea7b360e01b8152306004820152602481018390529192506001600160a01b03169063095ea7b3906044015b602060405180830381600087803b15801561191157600080fd5b505af1158015611925573d6000803e3d6000fd5b505050506040513d601f19601f82011682018060405250810190610c579190613f4b565b6000806001848154811061195f5761195f614575565b90600052602060002090600c0201604051806101e0016040529081600082015481526020016001820160009054906101000a90046001600160a01b03166001600160a01b03166001600160a01b031681526020016002820180546119c29061450f565b80601f01602080910402602001604051908101604052809291908181526020018280546119ee9061450f565b8015611a3b5780601f10611a1057610100808354040283529160200191611a3b565b820191906000526020600020905b815481529060010190602001808311611a1e57829003601f168201915b50505050508152602001600382018054611a549061450f565b80601f0160208091040260200160405190810160405280929190818152602001828054611a809061450f565b8015611acd5780601f10611aa257610100808354040283529160200191611acd565b820191906000526020600020905b815481529060010190602001808311611ab057829003601f168201915b50505050508152602001600482018054611ae69061450f565b80601f0160208091040260200160405190810160405280929190818152602001828054611b129061450f565b8015611b5f5780601f10611b3457610100808354040283529160200191611b5f565b820191906000526020600020905b815481529060010190602001808311611b4257829003601f168201915b50505091835250506005820154602080830191909152600683015460408301526007830154606083015260088301546080830152600983015460ff808216151560a08501526101008083048216151560c0860152620100009092048116151560e0850152600a85015482850152600b909401548085161515610120850152049092161515610140909101528101519091506001600160a01b0384811691161415611c0d5760019150506105bc565b5060009392505050565b600080805b60015481101561102257600060018281548110611c3b57611c3b614575565b90600052602060002090600c0201604051806101e0016040529081600082015481526020016001820160009054906101000a90046001600160a01b03166001600160a01b03166001600160a01b03168152602001600282018054611c9e9061450f565b80601f0160208091040260200160405190810160405280929190818152602001828054611cca9061450f565b8015611d175780601f10611cec57610100808354040283529160200191611d17565b820191906000526020600020905b815481529060010190602001808311611cfa57829003601f168201915b50505050508152602001600382018054611d309061450f565b80601f0160208091040260200160405190810160405280929190818152602001828054611d5c9061450f565b8015611da95780601f10611d7e57610100808354040283529160200191611da9565b820191906000526020600020905b815481529060010190602001808311611d8c57829003601f168201915b50505050508152602001600482018054611dc29061450f565b80601f0160208091040260200160405190810160405280929190818152602001828054611dee9061450f565b8015611e3b5780601f10611e1057610100808354040283529160200191611e3b565b820191906000526020600020905b815481529060010190602001808311611e1e57829003601f168201915b505050918352505060058201546020820152600682015460408201526007820154606082015260088201546080820152600982015460ff808216151560a08401526101008083048216151560c0850152620100009092048116151560e0840152600a84015482840152600b909301548084161515610120840152049091161515610140909101528051909150851415611edc5782611ed881614544565b9350505b5080611ee781614544565b915050611c1c565b611ef7613d01565b81611f028133611949565b611f1e5760405162461bcd60e51b815260040161083490614321565b600060018481548110611f3357611f33614575565b90600052602060002090600c0201604051806101e0016040529081600082015481526020016001820160009054906101000a90046001600160a01b03166001600160a01b03166001600160a01b03168152602001600282018054611f969061450f565b80601f0160208091040260200160405190810160405280929190818152602001828054611fc29061450f565b801561200f5780601f10611fe45761010080835404028352916020019161200f565b820191906000526020600020905b815481529060010190602001808311611ff257829003601f168201915b505050505081526020016003820180546120289061450f565b80601f01602080910402602001604051908101604052809291908181526020018280546120549061450f565b80156120a15780601f10612076576101008083540402835291602001916120a1565b820191906000526020600020905b81548152906001019060200180831161208457829003601f168201915b505050505081526020016004820180546120ba9061450f565b80601f01602080910402602001604051908101604052809291908181526020018280546120e69061450f565b80156121335780601f1061210857610100808354040283529160200191612133565b820191906000526020600020905b81548152906001019060200180831161211657829003601f168201915b505050918352505060058201546020820152600682015460408201526007820154606082015260088201546080820152600982015460ff808216151560a08401526101008083048216151560c0850152620100009092048116151560e0840152600a84015482840152600b90930154808416151561012084015204909116151561014090910152905060006121c78561080b565b90506121d1613d01565b600160a082015281156121e85793506108ef915050565b60006121f387613a25565b90506000600a6122048360086144f0565b61220e91906143e0565b90506000600960009054906101000a90046001600160a01b03166001600160a01b031663313ce5676040518163ffffffff1660e01b815260040160206040518083038186803b15801561226057600080fd5b505afa158015612274573d6000803e3d6000fd5b505050506040513d601f19601f82011682018060405250810190612298919061401d565b6122a390600a614445565b6122ad90836144f0565b600954602088015160405163a9059cbb60e01b81526001600160a01b0391821660048201526024810184905292935060009291169063a9059cbb90604401602060405180830381600087803b15801561230557600080fd5b505af1158015612319573d6000803e3d6000fd5b505050506040513d601f19601f8201168201806040525081019061233d9190613f4b565b905080156124be576000600a6123548660026144f0565b61235e91906143e0565b90506000600960009054906101000a90046001600160a01b03166001600160a01b031663313ce5676040518163ffffffff1660e01b815260040160206040518083038186803b1580156123b057600080fd5b505afa1580156123c4573d6000803e3d6000fd5b505050506040513d601f19601f820116820180604052508101906123e8919061401d565b6123f390600a614445565b6123fd90836144f0565b6009546004805460405163a9059cbb60e01b81526001600160a01b0391821692810192909252602482018490529293506000929091169063a9059cbb90604401602060405180830381600087803b15801561245757600080fd5b505af115801561246b573d6000803e3d6000fd5b505050506040513d601f19601f8201168201806040525081019061248f9190613f4b565b905080156124b65760006124a38e88612d0f565b9c506108ef9a5050505050505050505050565b5050506124cd565b849850505050505050506108ef565b509298975050505050505050565b6000805b6000548110156126df5760008082815481106124fd576124fd614575565b90600052602060002090600502016040518060c0016040529081600082015481526020016001820160009054906101000a90046001600160a01b03166001600160a01b03166001600160a01b0316815260200160028201805461255f9061450f565b80601f016020809104026020016040519081016040528092919081815260200182805461258b9061450f565b80156125d85780601f106125ad576101008083540402835291602001916125d8565b820191906000526020600020905b8154815290600101906020018083116125bb57829003601f168201915b505050505081526020016003820180546125f19061450f565b80601f016020809104026020016040519081016040528092919081815260200182805461261d9061450f565b801561266a5780601f1061263f5761010080835404028352916020019161266a565b820191906000526020600020905b81548152906001019060200180831161264d57829003601f168201915b50505091835250506004919091015460ff80821615156020808501919091526101009092041615156040909201919091528101519091506001600160a01b0385811691161480156126bd57508060a00151155b156126cc575060019392505050565b50806126d781614544565b9150506124df565b50600092915050565b6126f0613cbe565b60005b6000548110156128e257600080828154811061271157612711614575565b90600052602060002090600502016040518060c0016040529081600082015481526020016001820160009054906101000a90046001600160a01b03166001600160a01b03166001600160a01b031681526020016002820180546127739061450f565b80601f016020809104026020016040519081016040528092919081815260200182805461279f9061450f565b80156127ec5780601f106127c1576101008083540402835291602001916127ec565b820191906000526020600020905b8154815290600101906020018083116127cf57829003601f168201915b505050505081526020016003820180546128059061450f565b80601f01602080910402602001604051908101604052809291908181526020018280546128319061450f565b801561287e5780601f106128535761010080835404028352916020019161287e565b820191906000526020600020905b81548152906001019060200180831161286157829003601f168201915b50505091835250506004919091015460ff80821615156020808501919091526101009092041615156040909201919091528101519091506001600160a01b03858116911614156128cf579392505050565b50806128da81614544565b9150506126f3565b506128eb613cbe565b600160a082015292915050565b606060008061290684611c17565b67ffffffffffffffff81111561291e5761291e61458b565b60405190808252806020026020018201604052801561295757816020015b612944613cbe565b81526020019060019003908161293c5790505b50905060005b6002548110156106e05760006002828154811061297c5761297c614575565b600091825260209182902060408051608081018252600490930290910180548352600181015493830184905260028101546001600160a01b0316918301919091526003015460608201529150861415612a0e5760006129de82604001516126e8565b9050808486815181106129f3576129f3614575565b60200260200101819052508480612a0990614544565b955050505b5080612a1981614544565b91505061295d565b612a29613bb1565b60005b600154811015612cf857600060018281548110612a4b57612a4b614575565b90600052602060002090600c0201604051806101e0016040529081600082015481526020016001820160009054906101000a90046001600160a01b03166001600160a01b03166001600160a01b03168152602001600282018054612aae9061450f565b80601f0160208091040260200160405190810160405280929190818152602001828054612ada9061450f565b8015612b275780601f10612afc57610100808354040283529160200191612b27565b820191906000526020600020905b815481529060010190602001808311612b0a57829003601f168201915b50505050508152602001600382018054612b409061450f565b80601f0160208091040260200160405190810160405280929190818152602001828054612b6c9061450f565b8015612bb95780601f10612b8e57610100808354040283529160200191612bb9565b820191906000526020600020905b815481529060010190602001808311612b9c57829003601f168201915b50505050508152602001600482018054612bd29061450f565b80601f0160208091040260200160405190810160405280929190818152602001828054612bfe9061450f565b8015612c4b5780601f10612c2057610100808354040283529160200191612c4b565b820191906000526020600020905b815481529060010190602001808311612c2e57829003601f168201915b505050918352505060058201546020820152600682015460408201526007820154606082015260088201546080820152600982015460ff808216151560a08401526101008083048216151560c0850152620100009092048116151560e0840152600a84015482840152600b909301548084161515610120840152049091161515610140909101528051909150841415612ce5579392505050565b5080612cf081614544565b915050612a2c565b50612d01613bb1565b600161012082015292915050565b612d17613d01565b82612d228133611949565b612d3e5760405162461bcd60e51b815260040161083490614321565b6008546040805160c0810182528281526020810187815233928201928352606082018781524260808401908152600060a0850181815260038054600181018255925294517fc2575a0e9e593c00f959f8c92f12db2869c3395a3b0502d05e2516446f71f85b60069092029182015592517fc2575a0e9e593c00f959f8c92f12db2869c3395a3b0502d05e2516446f71f85c84015593517fc2575a0e9e593c00f959f8c92f12db2869c3395a3b0502d05e2516446f71f85d830180546001600160a01b0319166001600160a01b03909216919091179055517fc2575a0e9e593c00f959f8c92f12db2869c3395a3b0502d05e2516446f71f85e82015591517fc2575a0e9e593c00f959f8c92f12db2869c3395a3b0502d05e2516446f71f85f830155517fc2575a0e9e593c00f959f8c92f12db2869c3395a3b0502d05e2516446f71f860909101805460ff1916911515919091179055612e9c8161150c565b95945050505050565b600080805b60015481101561102257600060018281548110612ec957612ec9614575565b90600052602060002090600c0201604051806101e0016040529081600082015481526020016001820160009054906101000a90046001600160a01b03166001600160a01b03166001600160a01b03168152602001600282018054612f2c9061450f565b80601f0160208091040260200160405190810160405280929190818152602001828054612f589061450f565b8015612fa55780601f10612f7a57610100808354040283529160200191612fa5565b820191906000526020600020905b815481529060010190602001808311612f8857829003601f168201915b50505050508152602001600382018054612fbe9061450f565b80601f0160208091040260200160405190810160405280929190818152602001828054612fea9061450f565b80156130375780601f1061300c57610100808354040283529160200191613037565b820191906000526020600020905b81548152906001019060200180831161301a57829003601f168201915b505050505081526020016004820180546130509061450f565b80601f016020809104026020016040519081016040528092919081815260200182805461307c9061450f565b80156130c95780601f1061309e576101008083540402835291602001916130c9565b820191906000526020600020905b8154815290600101906020018083116130ac57829003601f168201915b50505091835250506005820154602080830191909152600683015460408301526007830154606083015260088301546080830152600983015460ff808216151560a08501526101008083048216151560c0860152620100009092048116151560e0850152600a85015482850152600b909401548085161515610120850152049092161515610140909101528101519091506001600160a01b038681169116141561317b578261317781614544565b9350505b508061318681614544565b915050612eaa565b613196613cbe565b60005b6000548110156128e25760008082815481106131b7576131b7614575565b90600052602060002090600502016040518060c0016040529081600082015481526020016001820160009054906101000a90046001600160a01b03166001600160a01b03166001600160a01b031681526020016002820180546132199061450f565b80601f01602080910402602001604051908101604052809291908181526020018280546132459061450f565b80156132925780601f1061326757610100808354040283529160200191613292565b820191906000526020600020905b81548152906001019060200180831161327557829003601f168201915b505050505081526020016003820180546132ab9061450f565b80601f01602080910402602001604051908101604052809291908181526020018280546132d79061450f565b80156133245780601f106132f957610100808354040283529160200191613324565b820191906000526020600020905b81548152906001019060200180831161330757829003601f168201915b50505091835250506004919091015460ff808216151560208401526101009091041615156040909101528051909150841415613361579392505050565b508061336c81614544565b915050613199565b600080805b6001548110156108ef5760006001828154811061339857613398614575565b90600052602060002090600c0201604051806101e0016040529081600082015481526020016001820160009054906101000a90046001600160a01b03166001600160a01b03166001600160a01b031681526020016002820180546133fb9061450f565b80601f01602080910402602001604051908101604052809291908181526020018280546134279061450f565b80156134745780601f1061344957610100808354040283529160200191613474565b820191906000526020600020905b81548152906001019060200180831161345757829003601f168201915b5050505050815260200160038201805461348d9061450f565b80601f01602080910402602001604051908101604052809291908181526020018280546134b99061450f565b80156135065780601f106134db57610100808354040283529160200191613506565b820191906000526020600020905b8154815290600101906020018083116134e957829003601f168201915b5050505050815260200160048201805461351f9061450f565b80601f016020809104026020016040519081016040528092919081815260200182805461354b9061450f565b80156135985780601f1061356d57610100808354040283529160200191613598565b820191906000526020600020905b81548152906001019060200180831161357b57829003601f168201915b505050918352505060058201546020820152600682015460408201526007820154606082015260088201546080820152600982015460ff808216151560a08401526101008083048216151560c0850152620100009092048116151560e0840152600a84015482840152600b9093015480841615156101208401520490911615156101409182015281015190915015613638578261363481614544565b9350505b508061364381614544565b915050613379565b613653613bb1565b600061365e83612a21565b60016101408201819052805491925082918590811061367f5761367f614575565b60009182526020918290208351600c9290920201908155828201516001820180546001600160a01b0319166001600160a01b039092169190911790556040830151805191926136d692600285019290910190613c3a565b50606082015180516136f2916003840191602090910190613c3a565b506080820151805161370e916004840191602090910190613c3a565b5060a0820151600582015560c0820151600682015560e082015160078201556101008083015160088301556101208301516009830180546101408601516101608701511515620100000262ff000019911515860261ff0019951515861661ffff1994851617179190911617909155610180850151600a8501556101a0850151600b90940180546101c090960151151590930293151590911693169290921717905592915050565b600080600960009054906101000a90046001600160a01b03166001600160a01b031663313ce5676040518163ffffffff1660e01b815260040160206040518083038186803b15801561380657600080fd5b505afa15801561381a573d6000803e3d6000fd5b505050506040513d601f19601f8201168201806040525081019061383e919061401d565b61384990600a614445565b61385390846144f0565b600954604051633950935160e01b8152306004820152602481018390529192506001600160a01b0316906339509351906044016118f7565b613893613bb1565b600061389e83612a21565b90506000600a8260a0015160016138b591906144f0565b6138bf91906143e0565b4260e084015260016101608401819052610180840182905280549192508391869081106138ee576138ee614575565b60009182526020918290208351600c9290920201908155828201516001820180546001600160a01b0319166001600160a01b0390921691909117905560408301518051919261394592600285019290910190613c3a565b5060608201518051613961916003840191602090910190613c3a565b506080820151805161397d916004840191602090910190613c3a565b5060a0820151600582015560c0820151600682015560e082015160078201556101008083015160088301556101208301516009830180546101408601516101608701511515620100000262ff000019911515860261ff0019951515861661ffff1994851617179190911617909155610180850151600a8501556101a0850151600b90940180546101c09096015115159093029315159091169316929092171790555092915050565b60008080613a32846106e8565b905060005b8151811015613a84576000828281518110613a5457613a54614575565b60200260200101519050806060015184613a6e91906143c8565b9350508080613a7c90614544565b915050613a37565b50909392505050565b60095460405163a9059cbb60e01b8152306004820152602481018390526000916001600160a01b03169063a9059cbb90604401602060405180830381600087803b158015613ada57600080fd5b505af1158015613aee573d6000803e3d6000fd5b505050506040513d601f19601f820116820180604052508101906105bc9190613f4b565b600080613b1e836105c2565b905060005b8151811015613b75576000828281518110613b4057613b40614575565b602002602001015190508581602001511415613b6257600193505050506105bc565b5080613b6d81614544565b915050613b23565b506000949350505050565b6040518060800160405280600081526020016000815260200160006001600160a01b03168152602001600081525090565b604051806101e001604052806000815260200160006001600160a01b0316815260200160608152602001606081526020016060815260200160008152602001600081526020016000815260200160008152602001600015158152602001600015158152602001600015158152602001600081526020016000151581526020016000151581525090565b828054613c469061450f565b90600052602060002090601f016020900481019282613c685760008555613cae565b82601f10613c8157805160ff1916838001178555613cae565b82800160010185558215613cae579182015b82811115613cae578251825591602001919060010190613c93565b50613cba929150613d42565b5090565b6040518060c001604052806000815260200160006001600160a01b0316815260200160608152602001606081526020016000151581526020016000151581525090565b6040518060c00160405280600081526020016000815260200160006001600160a01b0316815260200160008152602001600081526020016000151581525090565b5b80821115613cba5760008155600101613d43565b80356001600160a01b038116811461178857600080fd5b600082601f830112613d7f57600080fd5b813567ffffffffffffffff80821115613d9a57613d9a61458b565b604051601f8301601f19908116603f01168101908282118183101715613dc257613dc261458b565b81604052838152866020858801011115613ddb57600080fd5b836020870160208301376000602085830101528094505050505092915050565b600060208284031215613e0d57600080fd5b610c5782613d57565b600080600060608486031215613e2b57600080fd5b613e3484613d57565b9250602084013567ffffffffffffffff80821115613e5157600080fd5b613e5d87838801613d6e565b93506040860135915080821115613e7357600080fd5b50613e8086828701613d6e565b9150509250925092565b600080600080600080600060e0888a031215613ea557600080fd5b613eae88613d57565b9650602088013567ffffffffffffffff80821115613ecb57600080fd5b613ed78b838c01613d6e565b975060408a0135915080821115613eed57600080fd5b613ef98b838c01613d6e565b965060608a0135915080821115613f0f57600080fd5b50613f1c8a828b01613d6e565b9450506080880135925060a0880135915060c0880135613f3b816145a1565b8091505092959891949750929550565b600060208284031215613f5d57600080fd5b8151610c57816145a1565b600060208284031215613f7a57600080fd5b5035919050565b600060208284031215613f9357600080fd5b5051919050565b60008060408385031215613fad57600080fd5b82359150613fbd60208401613d57565b90509250929050565b600080600060608486031215613fdb57600080fd5b83359250613feb60208501613d57565b9150604084013590509250925092565b6000806040838503121561400e57600080fd5b50508035926020909101359150565b60006020828403121561402f57600080fd5b815160ff81168114610c5757600080fd5b6000815180845260005b818110156140665760208185018101518683018201520161404a565b81811115614078576000602083870101525b50601f01601f19169290920160200192915050565b60006101e08251845260208301516140b060208601826001600160a01b03169052565b5060408301518160408601526140c882860182614040565b915050606083015184820360608601526140e28282614040565b915050608083015184820360808601526140fc8282614040565b91505060a083015160a085015260c083015160c085015260e083015160e08501526101008084015181860152506101208084015161413d8287018215159052565b5050610140838101511515908501526101608084015115159085015261018080840151908501526101a0808401511515908501526101c092830151151592909301919091525090565b8051825260018060a01b0360208201511660208301526000604082015160c060408501526141b760c0850182614040565b9050606083015184820360608601526141d08282614040565b91505060808301511515608085015260a0830151151560a08501528091505092915050565b6000602080830181845280855180835260408601915060408160051b870101925083870160005b8281101561424a57603f1988860301845261423885835161408d565b9450928501929085019060010161421c565b5092979650505050505050565b6020808252825182820181905260009190848201906040850190845b818110156142c0576142ad83855180518252602080820151908301526040808201516001600160a01b031690830152606090810151910152565b9284019260809290920191600101614273565b50909695505050505050565b6000602080830181845280855180835260408601915060408160051b870101925083870160005b8281101561424a57603f1988860301845261430f858351614186565b945092850192908501906001016142f3565b6020808252602d908201527f4f6e6c792061204372656174696e6720757365722063616e20706572666f726d60408201526c103a3434b99030b1ba34b7b71760991b606082015260800190565b602081526000610c57602083018461408d565b81518152602080830151908201526040808301516001600160a01b03169082015260608083015190820152608081016105bc565b602081526000610c576020830184614186565b600082198211156143db576143db61455f565b500190565b6000826143fd57634e487b7160e01b600052601260045260246000fd5b500490565b600181815b8085111561443d5781600019048211156144235761442361455f565b8085161561443057918102915b93841c9390800290614407565b509250929050565b6000610c5760ff84168360008261445e575060016105bc565b8161446b575060006105bc565b8160018114614481576002811461448b576144a7565b60019150506105bc565b60ff84111561449c5761449c61455f565b50506001821b6105bc565b5060208310610133831016604e8410600b84101617156144ca575081810a6105bc565b6144d48383614402565b80600019048211156144e8576144e861455f565b029392505050565b600081600019048311821515161561450a5761450a61455f565b500290565b600181811c9082168061452357607f821691505b602082108114156108ef57634e487b7160e01b600052602260045260246000fd5b60006000198214156145585761455861455f565b5060010190565b634e487b7160e01b600052601160045260246000fd5b634e487b7160e01b600052603260045260246000fd5b634e487b7160e01b600052604160045260246000fd5b80151581146145af57600080fd5b5056fea264697066735822122073d24c14265c096c0b483d20cbb6149fae4dec8d2905226f00538692afba553b64736f6c63430008070033",
					"opcodes": "PUSH1 0x80 PUSH1 0x40 MSTORE PUSH1 0x9 DUP1 SLOAD PUSH1 0x1 PUSH1 0x1 PUSH1 0xA0 SHL SUB NOT AND PUSH20 0x874069FA1EB16D44D622F2E0CA25EEA172369BC1 OR SWAP1 SSTORE CALLVALUE DUP1 ISZERO PUSH3 0x37 JUMPI PUSH1 0x0 DUP1 REVERT JUMPDEST POP PUSH1 0x40 MLOAD PUSH3 0x46AA CODESIZE SUB DUP1 PUSH3 0x46AA DUP4 CODECOPY DUP2 ADD PUSH1 0x40 DUP2 SWAP1 MSTORE PUSH3 0x5A SWAP2 PUSH3 0x80 JUMP JUMPDEST PUSH1 0x4 DUP1 SLOAD PUSH1 0x1 PUSH1 0x1 PUSH1 0xA0 SHL SUB NOT AND PUSH1 0x1 PUSH1 0x1 PUSH1 0xA0 SHL SUB SWAP3 SWAP1 SWAP3 AND SWAP2 SWAP1 SWAP2 OR SWAP1 SSTORE PUSH3 0xB2 JUMP JUMPDEST PUSH1 0x0 PUSH1 0x20 DUP3 DUP5 SUB SLT ISZERO PUSH3 0x93 JUMPI PUSH1 0x0 DUP1 REVERT JUMPDEST DUP2 MLOAD PUSH1 0x1 PUSH1 0x1 PUSH1 0xA0 SHL SUB DUP2 AND DUP2 EQ PUSH3 0xAB JUMPI PUSH1 0x0 DUP1 REVERT JUMPDEST SWAP4 SWAP3 POP POP POP JUMP JUMPDEST PUSH2 0x45E8 DUP1 PUSH3 0xC2 PUSH1 0x0 CODECOPY PUSH1 0x0 RETURN INVALID PUSH1 0x80 PUSH1 0x40 MSTORE CALLVALUE DUP1 ISZERO PUSH2 0x10 JUMPI PUSH1 0x0 DUP1 REVERT JUMPDEST POP PUSH1 0x4 CALLDATASIZE LT PUSH2 0x1FB JUMPI PUSH1 0x0 CALLDATALOAD PUSH1 0xE0 SHR DUP1 PUSH4 0x76F8CBD5 GT PUSH2 0x11A JUMPI DUP1 PUSH4 0xC5B84029 GT PUSH2 0xAD JUMPI DUP1 PUSH4 0xD011287D GT PUSH2 0x7C JUMPI DUP1 PUSH4 0xD011287D EQ PUSH2 0x4D9 JUMPI DUP1 PUSH4 0xD903708B EQ PUSH2 0x4EC JUMPI DUP1 PUSH4 0xE5B16B4C EQ PUSH2 0x4FF JUMPI DUP1 PUSH4 0xEA42E486 EQ PUSH2 0x512 JUMPI DUP1 PUSH4 0xF5CAA96B EQ PUSH2 0x525 JUMPI PUSH1 0x0 DUP1 REVERT JUMPDEST DUP1 PUSH4 0xC5B84029 EQ PUSH2 0x498 JUMPI DUP1 PUSH4 0xC89E9666 EQ PUSH2 0x4AB JUMPI DUP1 PUSH4 0xCEE34E7B EQ PUSH2 0x4BE JUMPI DUP1 PUSH4 0xCFD9F3DA EQ PUSH2 0x4C6 JUMPI PUSH1 0x0 DUP1 REVERT JUMPDEST DUP1 PUSH4 0x99BB6B08 GT PUSH2 0xE9 JUMPI DUP1 PUSH4 0x99BB6B08 EQ PUSH2 0x43F JUMPI DUP1 PUSH4 0xAD395C14 EQ PUSH2 0x452 JUMPI DUP1 PUSH4 0xB98079BC EQ PUSH2 0x472 JUMPI DUP1 PUSH4 0xBB72CAEF EQ PUSH2 0x485 JUMPI PUSH1 0x0 DUP1 REVERT JUMPDEST DUP1 PUSH4 0x76F8CBD5 EQ PUSH2 0x3DB JUMPI DUP1 PUSH4 0x89EE68BF EQ PUSH2 0x3EE JUMPI DUP1 PUSH4 0x9371DE2B EQ PUSH2 0x401 JUMPI DUP1 PUSH4 0x9720807C EQ PUSH2 0x414 JUMPI PUSH1 0x0 DUP1 REVERT JUMPDEST DUP1 PUSH4 0x4CEB48FD GT PUSH2 0x192 JUMPI DUP1 PUSH4 0x71FFEFFE GT PUSH2 0x161 JUMPI DUP1 PUSH4 0x71FFEFFE EQ PUSH2 0x38F JUMPI DUP1 PUSH4 0x7354A25F EQ PUSH2 0x3A2 JUMPI DUP1 PUSH4 0x7370F6CC EQ PUSH2 0x3B5 JUMPI DUP1 PUSH4 0x75362943 EQ PUSH2 0x3C8 JUMPI PUSH1 0x0 DUP1 REVERT JUMPDEST DUP1 PUSH4 0x4CEB48FD EQ PUSH2 0x2EF JUMPI DUP1 PUSH4 0x5D3EE0EE EQ PUSH2 0x30F JUMPI DUP1 PUSH4 0x65212F70 EQ PUSH2 0x317 JUMPI DUP1 PUSH4 0x666AC2FB EQ PUSH2 0x37C JUMPI PUSH1 0x0 DUP1 REVERT JUMPDEST DUP1 PUSH4 0x25299D67 GT PUSH2 0x1CE JUMPI DUP1 PUSH4 0x25299D67 EQ PUSH2 0x27C JUMPI DUP1 PUSH4 0x25FB0D55 EQ PUSH2 0x29C JUMPI DUP1 PUSH4 0x27B7AABC EQ PUSH2 0x2BC JUMPI DUP1 PUSH4 0x3B902AFE EQ PUSH2 0x2CF JUMPI PUSH1 0x0 DUP1 REVERT JUMPDEST DUP1 PUSH4 0xC6C56F9 EQ PUSH2 0x200 JUMPI DUP1 PUSH4 0x184B0938 EQ PUSH2 0x226 JUMPI DUP1 PUSH4 0x235B3A3D EQ PUSH2 0x246 JUMPI DUP1 PUSH4 0x24C67B03 EQ PUSH2 0x259 JUMPI JUMPDEST PUSH1 0x0 DUP1 REVERT JUMPDEST PUSH2 0x213 PUSH2 0x20E CALLDATASIZE PUSH1 0x4 PUSH2 0x3DFB JUMP JUMPDEST PUSH2 0x538 JUMP JUMPDEST PUSH1 0x40 MLOAD SWAP1 DUP2 MSTORE PUSH1 0x20 ADD JUMPDEST PUSH1 0x40 MLOAD DUP1 SWAP2 SUB SWAP1 RETURN JUMPDEST PUSH2 0x239 PUSH2 0x234 CALLDATASIZE PUSH1 0x4 PUSH2 0x3DFB JUMP JUMPDEST PUSH2 0x5C2 JUMP JUMPDEST PUSH1 0x40 MLOAD PUSH2 0x21D SWAP2 SWAP1 PUSH2 0x4257 JUMP JUMPDEST PUSH2 0x239 PUSH2 0x254 CALLDATASIZE PUSH1 0x4 PUSH2 0x3F68 JUMP JUMPDEST PUSH2 0x6E8 JUMP JUMPDEST PUSH2 0x26C PUSH2 0x267 CALLDATASIZE PUSH1 0x4 PUSH2 0x3F68 JUMP JUMPDEST PUSH2 0x80B JUMP JUMPDEST PUSH1 0x40 MLOAD SWAP1 ISZERO ISZERO DUP2 MSTORE PUSH1 0x20 ADD PUSH2 0x21D JUMP JUMPDEST PUSH2 0x28F PUSH2 0x28A CALLDATASIZE PUSH1 0x4 PUSH2 0x3E8A JUMP JUMPDEST PUSH2 0x8F5 JUMP JUMPDEST PUSH1 0x40 MLOAD PUSH2 0x21D SWAP2 SWAP1 PUSH2 0x436E JUMP JUMPDEST PUSH2 0x2AF PUSH2 0x2AA CALLDATASIZE PUSH1 0x4 PUSH2 0x3FC6 JUMP JUMPDEST PUSH2 0xB3F JUMP JUMPDEST PUSH1 0x40 MLOAD PUSH2 0x21D SWAP2 SWAP1 PUSH2 0x4381 JUMP JUMPDEST PUSH2 0x2AF PUSH2 0x2CA CALLDATASIZE PUSH1 0x4 PUSH2 0x3F68 JUMP JUMPDEST PUSH2 0xC5E JUMP JUMPDEST PUSH2 0x2E2 PUSH2 0x2DD CALLDATASIZE PUSH1 0x4 PUSH2 0x3DFB JUMP JUMPDEST PUSH2 0xCC9 JUMP JUMPDEST PUSH1 0x40 MLOAD PUSH2 0x21D SWAP2 SWAP1 PUSH2 0x41F5 JUMP JUMPDEST PUSH2 0x302 PUSH2 0x2FD CALLDATASIZE PUSH1 0x4 PUSH2 0x3E16 JUMP JUMPDEST PUSH2 0x1029 JUMP JUMPDEST PUSH1 0x40 MLOAD PUSH2 0x21D SWAP2 SWAP1 PUSH2 0x43B5 JUMP JUMPDEST PUSH2 0x2E2 PUSH2 0x11B7 JUMP JUMPDEST PUSH2 0x32A PUSH2 0x325 CALLDATASIZE PUSH1 0x4 PUSH2 0x3F68 JUMP JUMPDEST PUSH2 0x150C JUMP JUMPDEST PUSH1 0x40 MLOAD PUSH2 0x21D SWAP2 SWAP1 DUP2 MLOAD DUP2 MSTORE PUSH1 0x20 DUP1 DUP4 ADD MLOAD SWAP1 DUP3 ADD MSTORE PUSH1 0x40 DUP1 DUP4 ADD MLOAD PUSH1 0x1 PUSH1 0x1 PUSH1 0xA0 SHL SUB AND SWAP1 DUP3 ADD MSTORE PUSH1 0x60 DUP1 DUP4 ADD MLOAD SWAP1 DUP3 ADD MSTORE PUSH1 0x80 DUP1 DUP4 ADD MLOAD SWAP1 DUP3 ADD MSTORE PUSH1 0xA0 SWAP2 DUP3 ADD MLOAD ISZERO ISZERO SWAP2 DUP2 ADD SWAP2 SWAP1 SWAP2 MSTORE PUSH1 0xC0 ADD SWAP1 JUMP JUMPDEST PUSH2 0x213 PUSH2 0x38A CALLDATASIZE PUSH1 0x4 PUSH2 0x3DFB JUMP JUMPDEST PUSH2 0x1590 JUMP JUMPDEST PUSH2 0x26C PUSH2 0x39D CALLDATASIZE PUSH1 0x4 PUSH2 0x3DFB JUMP JUMPDEST PUSH2 0x162F JUMP JUMPDEST PUSH2 0x213 PUSH2 0x3B0 CALLDATASIZE PUSH1 0x4 PUSH2 0x3F68 JUMP JUMPDEST PUSH2 0x178D JUMP JUMPDEST PUSH2 0x26C PUSH2 0x3C3 CALLDATASIZE PUSH1 0x4 PUSH2 0x3F68 JUMP JUMPDEST PUSH2 0x1825 JUMP JUMPDEST PUSH2 0x26C PUSH2 0x3D6 CALLDATASIZE PUSH1 0x4 PUSH2 0x3F9A JUMP JUMPDEST PUSH2 0x1949 JUMP JUMPDEST PUSH2 0x213 PUSH2 0x3E9 CALLDATASIZE PUSH1 0x4 PUSH2 0x3F68 JUMP JUMPDEST PUSH2 0x1C17 JUMP JUMPDEST PUSH2 0x32A PUSH2 0x3FC CALLDATASIZE PUSH1 0x4 PUSH2 0x3F68 JUMP JUMPDEST PUSH2 0x1EEF JUMP JUMPDEST PUSH2 0x26C PUSH2 0x40F CALLDATASIZE PUSH1 0x4 PUSH2 0x3DFB JUMP JUMPDEST PUSH2 0x24DB JUMP JUMPDEST PUSH1 0x4 SLOAD PUSH2 0x427 SWAP1 PUSH1 0x1 PUSH1 0x1 PUSH1 0xA0 SHL SUB AND DUP2 JUMP JUMPDEST PUSH1 0x40 MLOAD PUSH1 0x1 PUSH1 0x1 PUSH1 0xA0 SHL SUB SWAP1 SWAP2 AND DUP2 MSTORE PUSH1 0x20 ADD PUSH2 0x21D JUMP JUMPDEST PUSH2 0x302 PUSH2 0x44D CALLDATASIZE PUSH1 0x4 PUSH2 0x3DFB JUMP JUMPDEST PUSH2 0x26E8 JUMP JUMPDEST PUSH2 0x465 PUSH2 0x460 CALLDATASIZE PUSH1 0x4 PUSH2 0x3F68 JUMP JUMPDEST PUSH2 0x28F8 JUMP JUMPDEST PUSH1 0x40 MLOAD PUSH2 0x21D SWAP2 SWAP1 PUSH2 0x42CC JUMP JUMPDEST PUSH2 0x28F PUSH2 0x480 CALLDATASIZE PUSH1 0x4 PUSH2 0x3F68 JUMP JUMPDEST PUSH2 0x2A21 JUMP JUMPDEST PUSH2 0x32A PUSH2 0x493 CALLDATASIZE PUSH1 0x4 PUSH2 0x3FFB JUMP JUMPDEST PUSH2 0x2D0F JUMP JUMPDEST PUSH2 0x213 PUSH2 0x4A6 CALLDATASIZE PUSH1 0x4 PUSH2 0x3DFB JUMP JUMPDEST PUSH2 0x2EA5 JUMP JUMPDEST PUSH2 0x302 PUSH2 0x4B9 CALLDATASIZE PUSH1 0x4 PUSH2 0x3F68 JUMP JUMPDEST PUSH2 0x318E JUMP JUMPDEST PUSH2 0x213 PUSH2 0x3374 JUMP JUMPDEST PUSH2 0x28F PUSH2 0x4D4 CALLDATASIZE PUSH1 0x4 PUSH2 0x3F68 JUMP JUMPDEST PUSH2 0x364B JUMP JUMPDEST PUSH2 0x26C PUSH2 0x4E7 CALLDATASIZE PUSH1 0x4 PUSH2 0x3F68 JUMP JUMPDEST PUSH2 0x37B5 JUMP JUMPDEST PUSH2 0x28F PUSH2 0x4FA CALLDATASIZE PUSH1 0x4 PUSH2 0x3F68 JUMP JUMPDEST PUSH2 0x388B JUMP JUMPDEST PUSH2 0x213 PUSH2 0x50D CALLDATASIZE PUSH1 0x4 PUSH2 0x3F68 JUMP JUMPDEST PUSH2 0x3A25 JUMP JUMPDEST PUSH2 0x26C PUSH2 0x520 CALLDATASIZE PUSH1 0x4 PUSH2 0x3F68 JUMP JUMPDEST PUSH2 0x3A8D JUMP JUMPDEST PUSH2 0x26C PUSH2 0x533 CALLDATASIZE PUSH1 0x4 PUSH2 0x3F9A JUMP JUMPDEST PUSH2 0x3B12 JUMP JUMPDEST PUSH1 0x9 SLOAD PUSH1 0x40 MLOAD PUSH4 0x6EB1769F PUSH1 0xE1 SHL DUP2 MSTORE PUSH1 0x1 PUSH1 0x1 PUSH1 0xA0 SHL SUB DUP4 DUP2 AND PUSH1 0x4 DUP4 ADD MSTORE ADDRESS PUSH1 0x24 DUP4 ADD MSTORE PUSH1 0x0 SWAP3 AND SWAP1 PUSH4 0xDD62ED3E SWAP1 PUSH1 0x44 ADD PUSH1 0x20 PUSH1 0x40 MLOAD DUP1 DUP4 SUB DUP2 DUP7 DUP1 EXTCODESIZE ISZERO DUP1 ISZERO PUSH2 0x584 JUMPI PUSH1 0x0 DUP1 REVERT JUMPDEST POP GAS STATICCALL ISZERO DUP1 ISZERO PUSH2 0x598 JUMPI RETURNDATASIZE PUSH1 0x0 DUP1 RETURNDATACOPY RETURNDATASIZE PUSH1 0x0 REVERT JUMPDEST POP POP POP POP PUSH1 0x40 MLOAD RETURNDATASIZE PUSH1 0x1F NOT PUSH1 0x1F DUP3 ADD AND DUP3 ADD DUP1 PUSH1 0x40 MSTORE POP DUP2 ADD SWAP1 PUSH2 0x5BC SWAP2 SWAP1 PUSH2 0x3F81 JUMP JUMPDEST SWAP3 SWAP2 POP POP JUMP JUMPDEST PUSH1 0x60 PUSH1 0x0 DUP1 PUSH2 0x5D0 DUP5 PUSH2 0x1590 JUMP JUMPDEST PUSH8 0xFFFFFFFFFFFFFFFF DUP2 GT ISZERO PUSH2 0x5E8 JUMPI PUSH2 0x5E8 PUSH2 0x458B JUMP JUMPDEST PUSH1 0x40 MLOAD SWAP1 DUP1 DUP3 MSTORE DUP1 PUSH1 0x20 MUL PUSH1 0x20 ADD DUP3 ADD PUSH1 0x40 MSTORE DUP1 ISZERO PUSH2 0x621 JUMPI DUP2 PUSH1 0x20 ADD JUMPDEST PUSH2 0x60E PUSH2 0x3B80 JUMP JUMPDEST DUP2 MSTORE PUSH1 0x20 ADD SWAP1 PUSH1 0x1 SWAP1 SUB SWAP1 DUP2 PUSH2 0x606 JUMPI SWAP1 POP JUMPDEST POP SWAP1 POP PUSH1 0x0 JUMPDEST PUSH1 0x2 SLOAD DUP2 LT ISZERO PUSH2 0x6E0 JUMPI PUSH1 0x0 PUSH1 0x2 DUP3 DUP2 SLOAD DUP2 LT PUSH2 0x646 JUMPI PUSH2 0x646 PUSH2 0x4575 JUMP JUMPDEST PUSH1 0x0 SWAP2 DUP3 MSTORE PUSH1 0x20 SWAP2 DUP3 SWAP1 KECCAK256 PUSH1 0x40 DUP1 MLOAD PUSH1 0x80 DUP2 ADD DUP3 MSTORE PUSH1 0x4 SWAP1 SWAP4 MUL SWAP1 SWAP2 ADD DUP1 SLOAD DUP4 MSTORE PUSH1 0x1 DUP2 ADD SLOAD SWAP4 DUP4 ADD SWAP4 SWAP1 SWAP4 MSTORE PUSH1 0x2 DUP4 ADD SLOAD PUSH1 0x1 PUSH1 0x1 PUSH1 0xA0 SHL SUB SWAP1 DUP2 AND SWAP2 DUP4 ADD DUP3 SWAP1 MSTORE PUSH1 0x3 SWAP1 SWAP4 ADD SLOAD PUSH1 0x60 DUP4 ADD MSTORE SWAP1 SWAP3 POP SWAP1 DUP8 AND EQ ISZERO PUSH2 0x6CD JUMPI DUP1 DUP4 DUP6 DUP2 MLOAD DUP2 LT PUSH2 0x6B3 JUMPI PUSH2 0x6B3 PUSH2 0x4575 JUMP JUMPDEST PUSH1 0x20 MUL PUSH1 0x20 ADD ADD DUP2 SWAP1 MSTORE POP DUP4 DUP1 PUSH2 0x6C9 SWAP1 PUSH2 0x4544 JUMP JUMPDEST SWAP5 POP POP JUMPDEST POP DUP1 PUSH2 0x6D8 DUP2 PUSH2 0x4544 JUMP JUMPDEST SWAP2 POP POP PUSH2 0x627 JUMP JUMPDEST POP SWAP4 SWAP3 POP POP POP JUMP JUMPDEST PUSH1 0x60 PUSH1 0x0 DUP1 PUSH2 0x6F6 DUP5 PUSH2 0x178D JUMP JUMPDEST SWAP1 POP PUSH1 0x0 DUP2 PUSH8 0xFFFFFFFFFFFFFFFF DUP2 GT ISZERO PUSH2 0x713 JUMPI PUSH2 0x713 PUSH2 0x458B JUMP JUMPDEST PUSH1 0x40 MLOAD SWAP1 DUP1 DUP3 MSTORE DUP1 PUSH1 0x20 MUL PUSH1 0x20 ADD DUP3 ADD PUSH1 0x40 MSTORE DUP1 ISZERO PUSH2 0x74C JUMPI DUP2 PUSH1 0x20 ADD JUMPDEST PUSH2 0x739 PUSH2 0x3B80 JUMP JUMPDEST DUP2 MSTORE PUSH1 0x20 ADD SWAP1 PUSH1 0x1 SWAP1 SUB SWAP1 DUP2 PUSH2 0x731 JUMPI SWAP1 POP JUMPDEST POP SWAP1 POP PUSH1 0x0 JUMPDEST DUP3 DUP2 LT ISZERO PUSH2 0x802 JUMPI PUSH1 0x0 PUSH1 0x2 DUP3 DUP2 SLOAD DUP2 LT PUSH2 0x76F JUMPI PUSH2 0x76F PUSH2 0x4575 JUMP JUMPDEST PUSH1 0x0 SWAP2 DUP3 MSTORE PUSH1 0x20 SWAP2 DUP3 SWAP1 KECCAK256 PUSH1 0x40 DUP1 MLOAD PUSH1 0x80 DUP2 ADD DUP3 MSTORE PUSH1 0x4 SWAP1 SWAP4 MUL SWAP1 SWAP2 ADD DUP1 SLOAD DUP4 MSTORE PUSH1 0x1 DUP2 ADD SLOAD SWAP4 DUP4 ADD DUP5 SWAP1 MSTORE PUSH1 0x2 DUP2 ADD SLOAD PUSH1 0x1 PUSH1 0x1 PUSH1 0xA0 SHL SUB AND SWAP2 DUP4 ADD SWAP2 SWAP1 SWAP2 MSTORE PUSH1 0x3 ADD SLOAD PUSH1 0x60 DUP3 ADD MSTORE SWAP2 POP DUP8 EQ ISZERO PUSH2 0x7EF JUMPI DUP1 DUP4 DUP7 DUP2 MLOAD DUP2 LT PUSH2 0x7D5 JUMPI PUSH2 0x7D5 PUSH2 0x4575 JUMP JUMPDEST PUSH1 0x20 MUL PUSH1 0x20 ADD ADD DUP2 SWAP1 MSTORE POP DUP5 DUP1 PUSH2 0x7EB SWAP1 PUSH2 0x4544 JUMP JUMPDEST SWAP6 POP POP JUMPDEST POP DUP1 PUSH2 0x7FA DUP2 PUSH2 0x4544 JUMP JUMPDEST SWAP2 POP POP PUSH2 0x752 JUMP JUMPDEST POP SWAP5 SWAP4 POP POP POP POP JUMP JUMPDEST PUSH1 0x0 DUP2 PUSH2 0x818 DUP2 CALLER PUSH2 0x1949 JUMP JUMPDEST PUSH2 0x83D JUMPI PUSH1 0x40 MLOAD PUSH3 0x461BCD PUSH1 0xE5 SHL DUP2 MSTORE PUSH1 0x4 ADD PUSH2 0x834 SWAP1 PUSH2 0x4321 JUMP JUMPDEST PUSH1 0x40 MLOAD DUP1 SWAP2 SUB SWAP1 REVERT JUMPDEST PUSH1 0x0 JUMPDEST PUSH1 0x3 SLOAD DUP2 LT ISZERO PUSH2 0x8E9 JUMPI PUSH1 0x0 PUSH1 0x3 DUP3 DUP2 SLOAD DUP2 LT PUSH2 0x85F JUMPI PUSH2 0x85F PUSH2 0x4575 JUMP JUMPDEST PUSH1 0x0 SWAP2 DUP3 MSTORE PUSH1 0x20 SWAP2 DUP3 SWAP1 KECCAK256 PUSH1 0x40 DUP1 MLOAD PUSH1 0xC0 DUP2 ADD DUP3 MSTORE PUSH1 0x6 SWAP1 SWAP4 MUL SWAP1 SWAP2 ADD DUP1 SLOAD DUP4 MSTORE PUSH1 0x1 DUP2 ADD SLOAD SWAP4 DUP4 ADD DUP5 SWAP1 MSTORE PUSH1 0x2 DUP2 ADD SLOAD PUSH1 0x1 PUSH1 0x1 PUSH1 0xA0 SHL SUB AND SWAP2 DUP4 ADD SWAP2 SWAP1 SWAP2 MSTORE PUSH1 0x3 DUP2 ADD SLOAD PUSH1 0x60 DUP4 ADD MSTORE PUSH1 0x4 DUP2 ADD SLOAD PUSH1 0x80 DUP4 ADD MSTORE PUSH1 0x5 ADD SLOAD PUSH1 0xFF AND ISZERO ISZERO PUSH1 0xA0 DUP3 ADD MSTORE SWAP2 POP DUP6 EQ ISZERO PUSH2 0x8D6 JUMPI PUSH1 0x1 SWAP4 POP POP POP PUSH2 0x8EF JUMP JUMPDEST POP DUP1 PUSH2 0x8E1 DUP2 PUSH2 0x4544 JUMP JUMPDEST SWAP2 POP POP PUSH2 0x840 JUMP JUMPDEST POP PUSH1 0x0 SWAP2 POP JUMPDEST POP SWAP2 SWAP1 POP JUMP JUMPDEST PUSH2 0x8FD PUSH2 0x3BB1 JUMP JUMPDEST PUSH1 0x6 SLOAD PUSH1 0x40 DUP1 MLOAD PUSH2 0x1E0 DUP2 ADD DUP3 MSTORE DUP3 DUP2 MSTORE PUSH1 0x1 PUSH1 0x1 PUSH1 0xA0 SHL SUB DUP12 DUP2 AND PUSH1 0x20 DUP1 DUP5 ADD SWAP2 DUP3 MSTORE SWAP4 DUP4 ADD DUP13 DUP2 MSTORE PUSH1 0x60 DUP5 ADD DUP13 SWAP1 MSTORE PUSH1 0x80 DUP5 ADD DUP12 SWAP1 MSTORE PUSH1 0xA0 DUP5 ADD DUP11 SWAP1 MSTORE TIMESTAMP PUSH1 0xC0 DUP6 ADD DUP2 SWAP1 MSTORE PUSH1 0xE0 DUP6 ADD DUP2 SWAP1 MSTORE PUSH2 0x100 DUP6 ADD DUP11 SWAP1 MSTORE PUSH1 0x0 PUSH2 0x120 DUP7 ADD DUP2 SWAP1 MSTORE DUP10 ISZERO ISZERO PUSH2 0x140 DUP8 ADD MSTORE PUSH2 0x160 DUP7 ADD DUP2 SWAP1 MSTORE PUSH2 0x180 DUP7 ADD DUP2 SWAP1 MSTORE PUSH2 0x1A0 DUP7 ADD DUP2 SWAP1 MSTORE PUSH2 0x1C0 DUP7 ADD DUP2 SWAP1 MSTORE PUSH1 0x1 DUP1 SLOAD DUP1 DUP3 ADD DUP3 SSTORE SWAP2 MSTORE DUP6 MLOAD PUSH32 0xB10E2D527612073B26EECDFD717E6A320CF44B4AFAC2B0732D9FCBE2B7FA0CF6 PUSH1 0xC SWAP1 SWAP3 MUL SWAP2 DUP3 ADD SWAP1 DUP2 SSTORE SWAP4 MLOAD PUSH32 0xB10E2D527612073B26EECDFD717E6A320CF44B4AFAC2B0732D9FCBE2B7FA0CF7 DUP3 ADD DUP1 SLOAD PUSH1 0x1 PUSH1 0x1 PUSH1 0xA0 SHL SUB NOT AND SWAP2 SWAP1 SWAP7 AND OR SWAP1 SWAP5 SSTORE SWAP1 MLOAD DUP1 MLOAD SWAP2 SWAP6 DUP7 SWAP6 SWAP5 PUSH2 0xA33 SWAP4 PUSH32 0xB10E2D527612073B26EECDFD717E6A320CF44B4AFAC2B0732D9FCBE2B7FA0CF8 SWAP1 SWAP2 ADD SWAP3 SWAP1 SWAP2 ADD SWAP1 PUSH2 0x3C3A JUMP JUMPDEST POP PUSH1 0x60 DUP3 ADD MLOAD DUP1 MLOAD PUSH2 0xA4F SWAP2 PUSH1 0x3 DUP5 ADD SWAP2 PUSH1 0x20 SWAP1 SWAP2 ADD SWAP1 PUSH2 0x3C3A JUMP JUMPDEST POP PUSH1 0x80 DUP3 ADD MLOAD DUP1 MLOAD PUSH2 0xA6B SWAP2 PUSH1 0x4 DUP5 ADD SWAP2 PUSH1 0x20 SWAP1 SWAP2 ADD SWAP1 PUSH2 0x3C3A JUMP JUMPDEST POP PUSH1 0xA0 DUP3 ADD MLOAD PUSH1 0x5 DUP3 ADD SSTORE PUSH1 0xC0 DUP3 ADD MLOAD PUSH1 0x6 DUP1 DUP4 ADD SWAP2 SWAP1 SWAP2 SSTORE PUSH1 0xE0 DUP4 ADD MLOAD PUSH1 0x7 DUP4 ADD SSTORE PUSH2 0x100 DUP1 DUP5 ADD MLOAD PUSH1 0x8 DUP5 ADD SSTORE PUSH2 0x120 DUP5 ADD MLOAD PUSH1 0x9 DUP5 ADD DUP1 SLOAD PUSH2 0x140 DUP8 ADD MLOAD PUSH2 0x160 DUP9 ADD MLOAD ISZERO ISZERO PUSH3 0x10000 MUL PUSH3 0xFF0000 NOT SWAP2 ISZERO ISZERO DUP7 MUL PUSH2 0xFF00 NOT SWAP6 ISZERO ISZERO DUP7 AND PUSH2 0xFFFF NOT SWAP5 DUP6 AND OR OR SWAP2 SWAP1 SWAP2 AND OR SWAP1 SWAP2 SSTORE PUSH2 0x180 DUP7 ADD MLOAD PUSH1 0xA DUP7 ADD SSTORE PUSH2 0x1A0 DUP7 ADD MLOAD PUSH1 0xB SWAP1 SWAP6 ADD DUP1 SLOAD PUSH2 0x1C0 SWAP1 SWAP8 ADD MLOAD ISZERO ISZERO SWAP1 SWAP4 MUL SWAP5 ISZERO ISZERO SWAP1 SWAP2 AND SWAP5 AND SWAP4 SWAP1 SWAP4 OR SWAP2 SWAP1 SWAP2 OR SWAP1 SWAP2 SSTORE DUP1 SLOAD SWAP1 PUSH1 0x0 PUSH2 0xB22 DUP4 PUSH2 0x4544 JUMP JUMPDEST SWAP2 SWAP1 POP SSTORE POP PUSH2 0xB30 DUP4 PUSH2 0x2A21 JUMP JUMPDEST SWAP12 SWAP11 POP POP POP POP POP POP POP POP POP POP POP JUMP JUMPDEST PUSH2 0xB47 PUSH2 0x3B80 JUMP JUMPDEST PUSH1 0x7 DUP1 SLOAD PUSH1 0x40 DUP1 MLOAD PUSH1 0x80 DUP2 ADD DUP3 MSTORE DUP3 DUP2 MSTORE PUSH1 0x20 DUP2 ADD DUP9 DUP2 MSTORE PUSH1 0x1 PUSH1 0x1 PUSH1 0xA0 SHL SUB DUP9 DUP2 AND SWAP4 DUP4 ADD SWAP4 DUP5 MSTORE PUSH1 0x60 DUP4 ADD DUP9 DUP2 MSTORE PUSH1 0x2 DUP1 SLOAD PUSH1 0x1 DUP2 ADD DUP3 SSTORE PUSH1 0x0 SWAP2 DUP3 MSTORE SWAP5 MLOAD PUSH32 0x405787FA12A823E0F2B7631CC41B3BA8828B3321CA811111FA75CD3AA3BB5ACE PUSH1 0x4 SWAP1 SWAP7 MUL SWAP6 DUP7 ADD SSTORE SWAP3 MLOAD PUSH32 0x405787FA12A823E0F2B7631CC41B3BA8828B3321CA811111FA75CD3AA3BB5ACF DUP6 ADD SSTORE SWAP4 MLOAD PUSH32 0x405787FA12A823E0F2B7631CC41B3BA8828B3321CA811111FA75CD3AA3BB5AD0 DUP5 ADD DUP1 SLOAD PUSH1 0x1 PUSH1 0x1 PUSH1 0xA0 SHL SUB NOT AND SWAP2 SWAP1 SWAP3 AND OR SWAP1 SSTORE SWAP2 MLOAD PUSH32 0x405787FA12A823E0F2B7631CC41B3BA8828B3321CA811111FA75CD3AA3BB5AD1 SWAP1 SWAP2 ADD SSTORE DUP3 SLOAD SWAP2 SWAP3 SWAP1 PUSH2 0xC45 DUP4 PUSH2 0x4544 JUMP JUMPDEST SWAP2 SWAP1 POP SSTORE POP PUSH2 0xC53 DUP2 PUSH2 0xC5E JUMP JUMPDEST SWAP2 POP POP JUMPDEST SWAP4 SWAP3 POP POP POP JUMP JUMPDEST PUSH2 0xC66 PUSH2 0x3B80 JUMP JUMPDEST PUSH1 0x2 DUP3 DUP2 SLOAD DUP2 LT PUSH2 0xC79 JUMPI PUSH2 0xC79 PUSH2 0x4575 JUMP JUMPDEST PUSH1 0x0 SWAP2 DUP3 MSTORE PUSH1 0x20 SWAP2 DUP3 SWAP1 KECCAK256 PUSH1 0x40 DUP1 MLOAD PUSH1 0x80 DUP2 ADD DUP3 MSTORE PUSH1 0x4 SWAP1 SWAP4 MUL SWAP1 SWAP2 ADD DUP1 SLOAD DUP4 MSTORE PUSH1 0x1 DUP2 ADD SLOAD SWAP4 DUP4 ADD SWAP4 SWAP1 SWAP4 MSTORE PUSH1 0x2 DUP4 ADD SLOAD PUSH1 0x1 PUSH1 0x1 PUSH1 0xA0 SHL SUB AND SWAP1 DUP3 ADD MSTORE PUSH1 0x3 SWAP1 SWAP2 ADD SLOAD PUSH1 0x60 DUP3 ADD MSTORE SWAP3 SWAP2 POP POP JUMP JUMPDEST PUSH1 0x60 PUSH1 0x0 PUSH2 0xCD6 DUP4 PUSH2 0x2EA5 JUMP JUMPDEST PUSH8 0xFFFFFFFFFFFFFFFF DUP2 GT ISZERO PUSH2 0xCEE JUMPI PUSH2 0xCEE PUSH2 0x458B JUMP JUMPDEST PUSH1 0x40 MLOAD SWAP1 DUP1 DUP3 MSTORE DUP1 PUSH1 0x20 MUL PUSH1 0x20 ADD DUP3 ADD PUSH1 0x40 MSTORE DUP1 ISZERO PUSH2 0xD27 JUMPI DUP2 PUSH1 0x20 ADD JUMPDEST PUSH2 0xD14 PUSH2 0x3BB1 JUMP JUMPDEST DUP2 MSTORE PUSH1 0x20 ADD SWAP1 PUSH1 0x1 SWAP1 SUB SWAP1 DUP2 PUSH2 0xD0C JUMPI SWAP1 POP JUMPDEST POP SWAP1 POP PUSH1 0x0 JUMPDEST PUSH1 0x1 SLOAD DUP2 LT ISZERO PUSH2 0x1022 JUMPI PUSH1 0x0 PUSH1 0x1 DUP3 DUP2 SLOAD DUP2 LT PUSH2 0xD4C JUMPI PUSH2 0xD4C PUSH2 0x4575 JUMP JUMPDEST SWAP1 PUSH1 0x0 MSTORE PUSH1 0x20 PUSH1 0x0 KECCAK256 SWAP1 PUSH1 0xC MUL ADD PUSH1 0x40 MLOAD DUP1 PUSH2 0x1E0 ADD PUSH1 0x40 MSTORE SWAP1 DUP2 PUSH1 0x0 DUP3 ADD SLOAD DUP2 MSTORE PUSH1 0x20 ADD PUSH1 0x1 DUP3 ADD PUSH1 0x0 SWAP1 SLOAD SWAP1 PUSH2 0x100 EXP SWAP1 DIV PUSH1 0x1 PUSH1 0x1 PUSH1 0xA0 SHL SUB AND PUSH1 0x1 PUSH1 0x1 PUSH1 0xA0 SHL SUB AND PUSH1 0x1 PUSH1 0x1 PUSH1 0xA0 SHL SUB AND DUP2 MSTORE PUSH1 0x20 ADD PUSH1 0x2 DUP3 ADD DUP1 SLOAD PUSH2 0xDAF SWAP1 PUSH2 0x450F JUMP JUMPDEST DUP1 PUSH1 0x1F ADD PUSH1 0x20 DUP1 SWAP2 DIV MUL PUSH1 0x20 ADD PUSH1 0x40 MLOAD SWAP1 DUP2 ADD PUSH1 0x40 MSTORE DUP1 SWAP3 SWAP2 SWAP1 DUP2 DUP2 MSTORE PUSH1 0x20 ADD DUP3 DUP1 SLOAD PUSH2 0xDDB SWAP1 PUSH2 0x450F JUMP JUMPDEST DUP1 ISZERO PUSH2 0xE28 JUMPI DUP1 PUSH1 0x1F LT PUSH2 0xDFD JUMPI PUSH2 0x100 DUP1 DUP4 SLOAD DIV MUL DUP4 MSTORE SWAP2 PUSH1 0x20 ADD SWAP2 PUSH2 0xE28 JUMP JUMPDEST DUP3 ADD SWAP2 SWAP1 PUSH1 0x0 MSTORE PUSH1 0x20 PUSH1 0x0 KECCAK256 SWAP1 JUMPDEST DUP2 SLOAD DUP2 MSTORE SWAP1 PUSH1 0x1 ADD SWAP1 PUSH1 0x20 ADD DUP1 DUP4 GT PUSH2 0xE0B JUMPI DUP3 SWAP1 SUB PUSH1 0x1F AND DUP3 ADD SWAP2 JUMPDEST POP POP POP POP POP DUP2 MSTORE PUSH1 0x20 ADD PUSH1 0x3 DUP3 ADD DUP1 SLOAD PUSH2 0xE41 SWAP1 PUSH2 0x450F JUMP JUMPDEST DUP1 PUSH1 0x1F ADD PUSH1 0x20 DUP1 SWAP2 DIV MUL PUSH1 0x20 ADD PUSH1 0x40 MLOAD SWAP1 DUP2 ADD PUSH1 0x40 MSTORE DUP1 SWAP3 SWAP2 SWAP1 DUP2 DUP2 MSTORE PUSH1 0x20 ADD DUP3 DUP1 SLOAD PUSH2 0xE6D SWAP1 PUSH2 0x450F JUMP JUMPDEST DUP1 ISZERO PUSH2 0xEBA JUMPI DUP1 PUSH1 0x1F LT PUSH2 0xE8F JUMPI PUSH2 0x100 DUP1 DUP4 SLOAD DIV MUL DUP4 MSTORE SWAP2 PUSH1 0x20 ADD SWAP2 PUSH2 0xEBA JUMP JUMPDEST DUP3 ADD SWAP2 SWAP1 PUSH1 0x0 MSTORE PUSH1 0x20 PUSH1 0x0 KECCAK256 SWAP1 JUMPDEST DUP2 SLOAD DUP2 MSTORE SWAP1 PUSH1 0x1 ADD SWAP1 PUSH1 0x20 ADD DUP1 DUP4 GT PUSH2 0xE9D JUMPI DUP3 SWAP1 SUB PUSH1 0x1F AND DUP3 ADD SWAP2 JUMPDEST POP POP POP POP POP DUP2 MSTORE PUSH1 0x20 ADD PUSH1 0x4 DUP3 ADD DUP1 SLOAD PUSH2 0xED3 SWAP1 PUSH2 0x450F JUMP JUMPDEST DUP1 PUSH1 0x1F ADD PUSH1 0x20 DUP1 SWAP2 DIV MUL PUSH1 0x20 ADD PUSH1 0x40 MLOAD SWAP1 DUP2 ADD PUSH1 0x40 MSTORE DUP1 SWAP3 SWAP2 SWAP1 DUP2 DUP2 MSTORE PUSH1 0x20 ADD DUP3 DUP1 SLOAD PUSH2 0xEFF SWAP1 PUSH2 0x450F JUMP JUMPDEST DUP1 ISZERO PUSH2 0xF4C JUMPI DUP1 PUSH1 0x1F LT PUSH2 0xF21 JUMPI PUSH2 0x100 DUP1 DUP4 SLOAD DIV MUL DUP4 MSTORE SWAP2 PUSH1 0x20 ADD SWAP2 PUSH2 0xF4C JUMP JUMPDEST DUP3 ADD SWAP2 SWAP1 PUSH1 0x0 MSTORE PUSH1 0x20 PUSH1 0x0 KECCAK256 SWAP1 JUMPDEST DUP2 SLOAD DUP2 MSTORE SWAP1 PUSH1 0x1 ADD SWAP1 PUSH1 0x20 ADD DUP1 DUP4 GT PUSH2 0xF2F JUMPI DUP3 SWAP1 SUB PUSH1 0x1F AND DUP3 ADD SWAP2 JUMPDEST POP POP POP SWAP2 DUP4 MSTORE POP POP PUSH1 0x5 DUP3 ADD SLOAD PUSH1 0x20 DUP1 DUP4 ADD SWAP2 SWAP1 SWAP2 MSTORE PUSH1 0x6 DUP4 ADD SLOAD PUSH1 0x40 DUP4 ADD MSTORE PUSH1 0x7 DUP4 ADD SLOAD PUSH1 0x60 DUP4 ADD MSTORE PUSH1 0x8 DUP4 ADD SLOAD PUSH1 0x80 DUP4 ADD MSTORE PUSH1 0x9 DUP4 ADD SLOAD PUSH1 0xFF DUP1 DUP3 AND ISZERO ISZERO PUSH1 0xA0 DUP6 ADD MSTORE PUSH2 0x100 DUP1 DUP4 DIV DUP3 AND ISZERO ISZERO PUSH1 0xC0 DUP7 ADD MSTORE PUSH3 0x10000 SWAP1 SWAP3 DIV DUP2 AND ISZERO ISZERO PUSH1 0xE0 DUP6 ADD MSTORE PUSH1 0xA DUP6 ADD SLOAD DUP3 DUP6 ADD MSTORE PUSH1 0xB SWAP1 SWAP5 ADD SLOAD DUP1 DUP6 AND ISZERO ISZERO PUSH2 0x120 DUP6 ADD MSTORE DIV SWAP1 SWAP3 AND ISZERO ISZERO PUSH2 0x140 SWAP1 SWAP2 ADD MSTORE DUP2 ADD MLOAD SWAP1 SWAP2 POP PUSH1 0x1 PUSH1 0x1 PUSH1 0xA0 SHL SUB DUP7 DUP2 AND SWAP2 AND EQ ISZERO PUSH2 0x100F JUMPI DUP1 DUP4 DUP4 DUP2 MLOAD DUP2 LT PUSH2 0x1003 JUMPI PUSH2 0x1003 PUSH2 0x4575 JUMP JUMPDEST PUSH1 0x20 MUL PUSH1 0x20 ADD ADD DUP2 SWAP1 MSTORE POP JUMPDEST POP DUP1 PUSH2 0x101A DUP2 PUSH2 0x4544 JUMP JUMPDEST SWAP2 POP POP PUSH2 0xD2D JUMP JUMPDEST POP SWAP3 SWAP2 POP POP JUMP JUMPDEST PUSH2 0x1031 PUSH2 0x3CBE JUMP JUMPDEST PUSH1 0x0 PUSH2 0x103C DUP6 PUSH2 0x24DB JUMP JUMPDEST SWAP1 POP DUP1 ISZERO PUSH2 0x1055 JUMPI PUSH2 0x104D DUP6 PUSH2 0x26E8 JUMP JUMPDEST SWAP2 POP POP PUSH2 0xC57 JUMP JUMPDEST PUSH1 0x5 DUP1 SLOAD PUSH1 0x40 DUP1 MLOAD PUSH1 0xC0 DUP2 ADD DUP3 MSTORE DUP3 DUP2 MSTORE PUSH1 0x1 PUSH1 0x1 PUSH1 0xA0 SHL SUB DUP1 DUP11 AND PUSH1 0x20 DUP1 DUP5 ADD SWAP2 DUP3 MSTORE SWAP4 DUP4 ADD DUP11 DUP2 MSTORE PUSH1 0x60 DUP5 ADD DUP11 SWAP1 MSTORE PUSH1 0x0 PUSH1 0x80 DUP6 ADD DUP2 SWAP1 MSTORE PUSH1 0xA0 DUP6 ADD DUP2 SWAP1 MSTORE DUP1 SLOAD PUSH1 0x1 DUP2 ADD DUP3 SSTORE SWAP1 DUP1 MSTORE DUP5 MLOAD SWAP8 MUL PUSH32 0x290DECD9548B62A8D60345A988386FC84BA6BC95484008F6362F93160EF3E563 DUP2 ADD SWAP8 DUP9 SSTORE SWAP2 MLOAD PUSH32 0x290DECD9548B62A8D60345A988386FC84BA6BC95484008F6362F93160EF3E564 DUP4 ADD DUP1 SLOAD SWAP2 SWAP1 SWAP5 AND PUSH1 0x1 PUSH1 0x1 PUSH1 0xA0 SHL SUB NOT SWAP1 SWAP2 AND OR SWAP1 SWAP3 SSTORE SWAP1 MLOAD DUP1 MLOAD SWAP5 SWAP6 SWAP3 SWAP5 SWAP3 SWAP4 PUSH2 0x1141 SWAP4 PUSH32 0x290DECD9548B62A8D60345A988386FC84BA6BC95484008F6362F93160EF3E565 SWAP1 SWAP4 ADD SWAP3 SWAP2 ADD SWAP1 PUSH2 0x3C3A JUMP JUMPDEST POP PUSH1 0x60 DUP3 ADD MLOAD DUP1 MLOAD PUSH2 0x115D SWAP2 PUSH1 0x3 DUP5 ADD SWAP2 PUSH1 0x20 SWAP1 SWAP2 ADD SWAP1 PUSH2 0x3C3A JUMP JUMPDEST POP PUSH1 0x80 DUP3 ADD MLOAD PUSH1 0x4 SWAP1 SWAP2 ADD DUP1 SLOAD PUSH1 0xA0 SWAP1 SWAP4 ADD MLOAD ISZERO ISZERO PUSH2 0x100 MUL PUSH2 0xFF00 NOT SWAP3 ISZERO ISZERO SWAP3 SWAP1 SWAP3 AND PUSH2 0xFFFF NOT SWAP1 SWAP4 AND SWAP3 SWAP1 SWAP3 OR OR SWAP1 SSTORE PUSH1 0x5 DUP1 SLOAD SWAP1 PUSH1 0x0 PUSH2 0x119F DUP4 PUSH2 0x4544 JUMP JUMPDEST SWAP2 SWAP1 POP SSTORE POP PUSH2 0x11AD DUP2 PUSH2 0x318E JUMP JUMPDEST SWAP7 SWAP6 POP POP POP POP POP POP JUMP JUMPDEST PUSH1 0x60 PUSH1 0x0 DUP1 PUSH2 0x11C4 PUSH2 0x3374 JUMP JUMPDEST PUSH8 0xFFFFFFFFFFFFFFFF DUP2 GT ISZERO PUSH2 0x11DC JUMPI PUSH2 0x11DC PUSH2 0x458B JUMP JUMPDEST PUSH1 0x40 MLOAD SWAP1 DUP1 DUP3 MSTORE DUP1 PUSH1 0x20 MUL PUSH1 0x20 ADD DUP3 ADD PUSH1 0x40 MSTORE DUP1 ISZERO PUSH2 0x1215 JUMPI DUP2 PUSH1 0x20 ADD JUMPDEST PUSH2 0x1202 PUSH2 0x3BB1 JUMP JUMPDEST DUP2 MSTORE PUSH1 0x20 ADD SWAP1 PUSH1 0x1 SWAP1 SUB SWAP1 DUP2 PUSH2 0x11FA JUMPI SWAP1 POP JUMPDEST POP SWAP1 POP PUSH1 0x0 JUMPDEST PUSH1 0x1 SLOAD DUP2 LT ISZERO PUSH2 0x1022 JUMPI PUSH1 0x0 PUSH1 0x1 DUP3 DUP2 SLOAD DUP2 LT PUSH2 0x123A JUMPI PUSH2 0x123A PUSH2 0x4575 JUMP JUMPDEST SWAP1 PUSH1 0x0 MSTORE PUSH1 0x20 PUSH1 0x0 KECCAK256 SWAP1 PUSH1 0xC MUL ADD PUSH1 0x40 MLOAD DUP1 PUSH2 0x1E0 ADD PUSH1 0x40 MSTORE SWAP1 DUP2 PUSH1 0x0 DUP3 ADD SLOAD DUP2 MSTORE PUSH1 0x20 ADD PUSH1 0x1 DUP3 ADD PUSH1 0x0 SWAP1 SLOAD SWAP1 PUSH2 0x100 EXP SWAP1 DIV PUSH1 0x1 PUSH1 0x1 PUSH1 0xA0 SHL SUB AND PUSH1 0x1 PUSH1 0x1 PUSH1 0xA0 SHL SUB AND PUSH1 0x1 PUSH1 0x1 PUSH1 0xA0 SHL SUB AND DUP2 MSTORE PUSH1 0x20 ADD PUSH1 0x2 DUP3 ADD DUP1 SLOAD PUSH2 0x129D SWAP1 PUSH2 0x450F JUMP JUMPDEST DUP1 PUSH1 0x1F ADD PUSH1 0x20 DUP1 SWAP2 DIV MUL PUSH1 0x20 ADD PUSH1 0x40 MLOAD SWAP1 DUP2 ADD PUSH1 0x40 MSTORE DUP1 SWAP3 SWAP2 SWAP1 DUP2 DUP2 MSTORE PUSH1 0x20 ADD DUP3 DUP1 SLOAD PUSH2 0x12C9 SWAP1 PUSH2 0x450F JUMP JUMPDEST DUP1 ISZERO PUSH2 0x1316 JUMPI DUP1 PUSH1 0x1F LT PUSH2 0x12EB JUMPI PUSH2 0x100 DUP1 DUP4 SLOAD DIV MUL DUP4 MSTORE SWAP2 PUSH1 0x20 ADD SWAP2 PUSH2 0x1316 JUMP JUMPDEST DUP3 ADD SWAP2 SWAP1 PUSH1 0x0 MSTORE PUSH1 0x20 PUSH1 0x0 KECCAK256 SWAP1 JUMPDEST DUP2 SLOAD DUP2 MSTORE SWAP1 PUSH1 0x1 ADD SWAP1 PUSH1 0x20 ADD DUP1 DUP4 GT PUSH2 0x12F9 JUMPI DUP3 SWAP1 SUB PUSH1 0x1F AND DUP3 ADD SWAP2 JUMPDEST POP POP POP POP POP DUP2 MSTORE PUSH1 0x20 ADD PUSH1 0x3 DUP3 ADD DUP1 SLOAD PUSH2 0x132F SWAP1 PUSH2 0x450F JUMP JUMPDEST DUP1 PUSH1 0x1F ADD PUSH1 0x20 DUP1 SWAP2 DIV MUL PUSH1 0x20 ADD PUSH1 0x40 MLOAD SWAP1 DUP2 ADD PUSH1 0x40 MSTORE DUP1 SWAP3 SWAP2 SWAP1 DUP2 DUP2 MSTORE PUSH1 0x20 ADD DUP3 DUP1 SLOAD PUSH2 0x135B SWAP1 PUSH2 0x450F JUMP JUMPDEST DUP1 ISZERO PUSH2 0x13A8 JUMPI DUP1 PUSH1 0x1F LT PUSH2 0x137D JUMPI PUSH2 0x100 DUP1 DUP4 SLOAD DIV MUL DUP4 MSTORE SWAP2 PUSH1 0x20 ADD SWAP2 PUSH2 0x13A8 JUMP JUMPDEST DUP3 ADD SWAP2 SWAP1 PUSH1 0x0 MSTORE PUSH1 0x20 PUSH1 0x0 KECCAK256 SWAP1 JUMPDEST DUP2 SLOAD DUP2 MSTORE SWAP1 PUSH1 0x1 ADD SWAP1 PUSH1 0x20 ADD DUP1 DUP4 GT PUSH2 0x138B JUMPI DUP3 SWAP1 SUB PUSH1 0x1F AND DUP3 ADD SWAP2 JUMPDEST POP POP POP POP POP DUP2 MSTORE PUSH1 0x20 ADD PUSH1 0x4 DUP3 ADD DUP1 SLOAD PUSH2 0x13C1 SWAP1 PUSH2 0x450F JUMP JUMPDEST DUP1 PUSH1 0x1F ADD PUSH1 0x20 DUP1 SWAP2 DIV MUL PUSH1 0x20 ADD PUSH1 0x40 MLOAD SWAP1 DUP2 ADD PUSH1 0x40 MSTORE DUP1 SWAP3 SWAP2 SWAP1 DUP2 DUP2 MSTORE PUSH1 0x20 ADD DUP3 DUP1 SLOAD PUSH2 0x13ED SWAP1 PUSH2 0x450F JUMP JUMPDEST DUP1 ISZERO PUSH2 0x143A JUMPI DUP1 PUSH1 0x1F LT PUSH2 0x140F JUMPI PUSH2 0x100 DUP1 DUP4 SLOAD DIV MUL DUP4 MSTORE SWAP2 PUSH1 0x20 ADD SWAP2 PUSH2 0x143A JUMP JUMPDEST DUP3 ADD SWAP2 SWAP1 PUSH1 0x0 MSTORE PUSH1 0x20 PUSH1 0x0 KECCAK256 SWAP1 JUMPDEST DUP2 SLOAD DUP2 MSTORE SWAP1 PUSH1 0x1 ADD SWAP1 PUSH1 0x20 ADD DUP1 DUP4 GT PUSH2 0x141D JUMPI DUP3 SWAP1 SUB PUSH1 0x1F AND DUP3 ADD SWAP2 JUMPDEST POP POP POP SWAP2 DUP4 MSTORE POP POP PUSH1 0x5 DUP3 ADD SLOAD PUSH1 0x20 DUP3 ADD MSTORE PUSH1 0x6 DUP3 ADD SLOAD PUSH1 0x40 DUP3 ADD MSTORE PUSH1 0x7 DUP3 ADD SLOAD PUSH1 0x60 DUP3 ADD MSTORE PUSH1 0x8 DUP3 ADD SLOAD PUSH1 0x80 DUP3 ADD MSTORE PUSH1 0x9 DUP3 ADD SLOAD PUSH1 0xFF DUP1 DUP3 AND ISZERO ISZERO PUSH1 0xA0 DUP5 ADD MSTORE PUSH2 0x100 DUP1 DUP4 DIV DUP3 AND ISZERO ISZERO PUSH1 0xC0 DUP6 ADD MSTORE PUSH3 0x10000 SWAP1 SWAP3 DIV DUP2 AND ISZERO ISZERO PUSH1 0xE0 DUP5 ADD MSTORE PUSH1 0xA DUP5 ADD SLOAD DUP3 DUP5 ADD MSTORE PUSH1 0xB SWAP1 SWAP4 ADD SLOAD DUP1 DUP5 AND ISZERO ISZERO PUSH2 0x120 DUP5 ADD MSTORE DIV SWAP1 SWAP2 AND ISZERO ISZERO PUSH2 0x140 SWAP2 DUP3 ADD MSTORE DUP2 ADD MLOAD SWAP1 SWAP2 POP ISZERO PUSH2 0x14F9 JUMPI DUP1 DUP4 DUP6 DUP2 MLOAD DUP2 LT PUSH2 0x14DF JUMPI PUSH2 0x14DF PUSH2 0x4575 JUMP JUMPDEST PUSH1 0x20 MUL PUSH1 0x20 ADD ADD DUP2 SWAP1 MSTORE POP DUP4 DUP1 PUSH2 0x14F5 SWAP1 PUSH2 0x4544 JUMP JUMPDEST SWAP5 POP POP JUMPDEST POP DUP1 PUSH2 0x1504 DUP2 PUSH2 0x4544 JUMP JUMPDEST SWAP2 POP POP PUSH2 0x121B JUMP JUMPDEST PUSH2 0x1514 PUSH2 0x3D01 JUMP JUMPDEST PUSH1 0x3 DUP3 DUP2 SLOAD DUP2 LT PUSH2 0x1527 JUMPI PUSH2 0x1527 PUSH2 0x4575 JUMP JUMPDEST PUSH1 0x0 SWAP2 DUP3 MSTORE PUSH1 0x20 SWAP2 DUP3 SWAP1 KECCAK256 PUSH1 0x40 DUP1 MLOAD PUSH1 0xC0 DUP2 ADD DUP3 MSTORE PUSH1 0x6 SWAP1 SWAP4 MUL SWAP1 SWAP2 ADD DUP1 SLOAD DUP4 MSTORE PUSH1 0x1 DUP2 ADD SLOAD SWAP4 DUP4 ADD SWAP4 SWAP1 SWAP4 MSTORE PUSH1 0x2 DUP4 ADD SLOAD PUSH1 0x1 PUSH1 0x1 PUSH1 0xA0 SHL SUB AND SWAP1 DUP3 ADD MSTORE PUSH1 0x3 DUP3 ADD SLOAD PUSH1 0x60 DUP3 ADD MSTORE PUSH1 0x4 DUP3 ADD SLOAD PUSH1 0x80 DUP3 ADD MSTORE PUSH1 0x5 SWAP1 SWAP2 ADD SLOAD PUSH1 0xFF AND ISZERO ISZERO PUSH1 0xA0 DUP3 ADD MSTORE SWAP3 SWAP2 POP POP JUMP JUMPDEST PUSH1 0x0 DUP1 DUP1 JUMPDEST PUSH1 0x2 SLOAD DUP2 LT ISZERO PUSH2 0x1022 JUMPI PUSH1 0x0 PUSH1 0x2 DUP3 DUP2 SLOAD DUP2 LT PUSH2 0x15B4 JUMPI PUSH2 0x15B4 PUSH2 0x4575 JUMP JUMPDEST PUSH1 0x0 SWAP2 DUP3 MSTORE PUSH1 0x20 SWAP2 DUP3 SWAP1 KECCAK256 PUSH1 0x40 DUP1 MLOAD PUSH1 0x80 DUP2 ADD DUP3 MSTORE PUSH1 0x4 SWAP1 SWAP4 MUL SWAP1 SWAP2 ADD DUP1 SLOAD DUP4 MSTORE PUSH1 0x1 DUP2 ADD SLOAD SWAP4 DUP4 ADD SWAP4 SWAP1 SWAP4 MSTORE PUSH1 0x2 DUP4 ADD SLOAD PUSH1 0x1 PUSH1 0x1 PUSH1 0xA0 SHL SUB SWAP1 DUP2 AND SWAP2 DUP4 ADD DUP3 SWAP1 MSTORE PUSH1 0x3 SWAP1 SWAP4 ADD SLOAD PUSH1 0x60 DUP4 ADD MSTORE SWAP1 SWAP3 POP SWAP1 DUP7 AND EQ ISZERO PUSH2 0x161C JUMPI DUP3 PUSH2 0x1618 DUP2 PUSH2 0x4544 JUMP JUMPDEST SWAP4 POP POP JUMPDEST POP DUP1 PUSH2 0x1627 DUP2 PUSH2 0x4544 JUMP JUMPDEST SWAP2 POP POP PUSH2 0x1595 JUMP JUMPDEST PUSH1 0x0 PUSH2 0x163A CALLER PUSH2 0x24DB JUMP JUMPDEST PUSH2 0x169B JUMPI PUSH1 0x40 MLOAD PUSH3 0x461BCD PUSH1 0xE5 SHL DUP2 MSTORE PUSH1 0x20 PUSH1 0x4 DUP3 ADD MSTORE PUSH1 0x2C PUSH1 0x24 DUP3 ADD MSTORE PUSH32 0x4F6E6C79204578697374696E672075736572732063616E20706572666F726D20 PUSH1 0x44 DUP3 ADD MSTORE PUSH12 0x3A3434B99030B1BA34B7B717 PUSH1 0xA1 SHL PUSH1 0x64 DUP3 ADD MSTORE PUSH1 0x84 ADD PUSH2 0x834 JUMP JUMPDEST PUSH1 0x0 PUSH2 0x16A6 DUP4 PUSH2 0x26E8 JUMP JUMPDEST SWAP1 POP DUP1 PUSH1 0xA0 ADD MLOAD PUSH2 0x1782 JUMPI DUP1 MLOAD PUSH1 0x1 PUSH1 0x80 DUP4 ADD MSTORE PUSH1 0x0 DUP1 SLOAD DUP4 SWAP2 SWAP1 DUP4 SWAP1 DUP2 LT PUSH2 0x16D1 JUMPI PUSH2 0x16D1 PUSH2 0x4575 JUMP JUMPDEST PUSH1 0x0 SWAP2 DUP3 MSTORE PUSH1 0x20 SWAP2 DUP3 SWAP1 KECCAK256 DUP4 MLOAD PUSH1 0x5 SWAP3 SWAP1 SWAP3 MUL ADD SWAP1 DUP2 SSTORE DUP3 DUP3 ADD MLOAD PUSH1 0x1 DUP3 ADD DUP1 SLOAD PUSH1 0x1 PUSH1 0x1 PUSH1 0xA0 SHL SUB NOT AND PUSH1 0x1 PUSH1 0x1 PUSH1 0xA0 SHL SUB SWAP1 SWAP3 AND SWAP2 SWAP1 SWAP2 OR SWAP1 SSTORE PUSH1 0x40 DUP4 ADD MLOAD DUP1 MLOAD SWAP2 SWAP3 PUSH2 0x1728 SWAP3 PUSH1 0x2 DUP6 ADD SWAP3 SWAP1 SWAP2 ADD SWAP1 PUSH2 0x3C3A JUMP JUMPDEST POP PUSH1 0x60 DUP3 ADD MLOAD DUP1 MLOAD PUSH2 0x1744 SWAP2 PUSH1 0x3 DUP5 ADD SWAP2 PUSH1 0x20 SWAP1 SWAP2 ADD SWAP1 PUSH2 0x3C3A JUMP JUMPDEST POP PUSH1 0x80 DUP3 ADD MLOAD PUSH1 0x4 SWAP1 SWAP2 ADD DUP1 SLOAD PUSH1 0xA0 SWAP1 SWAP4 ADD MLOAD ISZERO ISZERO PUSH2 0x100 MUL PUSH2 0xFF00 NOT SWAP3 ISZERO ISZERO SWAP3 SWAP1 SWAP3 AND PUSH2 0xFFFF NOT SWAP1 SWAP4 AND SWAP3 SWAP1 SWAP3 OR OR SWAP1 SSTORE POP PUSH1 0x1 SWAP2 POP PUSH2 0x1788 SWAP1 POP JUMP JUMPDEST PUSH1 0x0 SWAP2 POP POP JUMPDEST SWAP2 SWAP1 POP JUMP JUMPDEST PUSH1 0x0 DUP1 DUP1 JUMPDEST PUSH1 0x2 SLOAD DUP2 LT ISZERO PUSH2 0x1022 JUMPI PUSH1 0x0 PUSH1 0x2 DUP3 DUP2 SLOAD DUP2 LT PUSH2 0x17B1 JUMPI PUSH2 0x17B1 PUSH2 0x4575 JUMP JUMPDEST PUSH1 0x0 SWAP2 DUP3 MSTORE PUSH1 0x20 SWAP2 DUP3 SWAP1 KECCAK256 PUSH1 0x40 DUP1 MLOAD PUSH1 0x80 DUP2 ADD DUP3 MSTORE PUSH1 0x4 SWAP1 SWAP4 MUL SWAP1 SWAP2 ADD DUP1 SLOAD DUP4 MSTORE PUSH1 0x1 DUP2 ADD SLOAD SWAP4 DUP4 ADD DUP5 SWAP1 MSTORE PUSH1 0x2 DUP2 ADD SLOAD PUSH1 0x1 PUSH1 0x1 PUSH1 0xA0 SHL SUB AND SWAP2 DUP4 ADD SWAP2 SWAP1 SWAP2 MSTORE PUSH1 0x3 ADD SLOAD PUSH1 0x60 DUP3 ADD MSTORE SWAP2 POP DUP6 EQ ISZERO PUSH2 0x1812 JUMPI DUP3 PUSH2 0x180E DUP2 PUSH2 0x4544 JUMP JUMPDEST SWAP4 POP POP JUMPDEST POP DUP1 PUSH2 0x181D DUP2 PUSH2 0x4544 JUMP JUMPDEST SWAP2 POP POP PUSH2 0x1792 JUMP JUMPDEST PUSH1 0x0 DUP1 PUSH1 0x9 PUSH1 0x0 SWAP1 SLOAD SWAP1 PUSH2 0x100 EXP SWAP1 DIV PUSH1 0x1 PUSH1 0x1 PUSH1 0xA0 SHL SUB AND PUSH1 0x1 PUSH1 0x1 PUSH1 0xA0 SHL SUB AND PUSH4 0x313CE567 PUSH1 0x40 MLOAD DUP2 PUSH4 0xFFFFFFFF AND PUSH1 0xE0 SHL DUP2 MSTORE PUSH1 0x4 ADD PUSH1 0x20 PUSH1 0x40 MLOAD DUP1 DUP4 SUB DUP2 DUP7 DUP1 EXTCODESIZE ISZERO DUP1 ISZERO PUSH2 0x1876 JUMPI PUSH1 0x0 DUP1 REVERT JUMPDEST POP GAS STATICCALL ISZERO DUP1 ISZERO PUSH2 0x188A JUMPI RETURNDATASIZE PUSH1 0x0 DUP1 RETURNDATACOPY RETURNDATASIZE PUSH1 0x0 REVERT JUMPDEST POP POP POP POP PUSH1 0x40 MLOAD RETURNDATASIZE PUSH1 0x1F NOT PUSH1 0x1F DUP3 ADD AND DUP3 ADD DUP1 PUSH1 0x40 MSTORE POP DUP2 ADD SWAP1 PUSH2 0x18AE SWAP2 SWAP1 PUSH2 0x401D JUMP JUMPDEST PUSH2 0x18B9 SWAP1 PUSH1 0xA PUSH2 0x4445 JUMP JUMPDEST PUSH2 0x18C3 SWAP1 DUP5 PUSH2 0x44F0 JUMP JUMPDEST PUSH1 0x9 SLOAD PUSH1 0x40 MLOAD PUSH4 0x95EA7B3 PUSH1 0xE0 SHL DUP2 MSTORE ADDRESS PUSH1 0x4 DUP3 ADD MSTORE PUSH1 0x24 DUP2 ADD DUP4 SWAP1 MSTORE SWAP2 SWAP3 POP PUSH1 0x1 PUSH1 0x1 PUSH1 0xA0 SHL SUB AND SWAP1 PUSH4 0x95EA7B3 SWAP1 PUSH1 0x44 ADD JUMPDEST PUSH1 0x20 PUSH1 0x40 MLOAD DUP1 DUP4 SUB DUP2 PUSH1 0x0 DUP8 DUP1 EXTCODESIZE ISZERO DUP1 ISZERO PUSH2 0x1911 JUMPI PUSH1 0x0 DUP1 REVERT JUMPDEST POP GAS CALL ISZERO DUP1 ISZERO PUSH2 0x1925 JUMPI RETURNDATASIZE PUSH1 0x0 DUP1 RETURNDATACOPY RETURNDATASIZE PUSH1 0x0 REVERT JUMPDEST POP POP POP POP PUSH1 0x40 MLOAD RETURNDATASIZE PUSH1 0x1F NOT PUSH1 0x1F DUP3 ADD AND DUP3 ADD DUP1 PUSH1 0x40 MSTORE POP DUP2 ADD SWAP1 PUSH2 0xC57 SWAP2 SWAP1 PUSH2 0x3F4B JUMP JUMPDEST PUSH1 0x0 DUP1 PUSH1 0x1 DUP5 DUP2 SLOAD DUP2 LT PUSH2 0x195F JUMPI PUSH2 0x195F PUSH2 0x4575 JUMP JUMPDEST SWAP1 PUSH1 0x0 MSTORE PUSH1 0x20 PUSH1 0x0 KECCAK256 SWAP1 PUSH1 0xC MUL ADD PUSH1 0x40 MLOAD DUP1 PUSH2 0x1E0 ADD PUSH1 0x40 MSTORE SWAP1 DUP2 PUSH1 0x0 DUP3 ADD SLOAD DUP2 MSTORE PUSH1 0x20 ADD PUSH1 0x1 DUP3 ADD PUSH1 0x0 SWAP1 SLOAD SWAP1 PUSH2 0x100 EXP SWAP1 DIV PUSH1 0x1 PUSH1 0x1 PUSH1 0xA0 SHL SUB AND PUSH1 0x1 PUSH1 0x1 PUSH1 0xA0 SHL SUB AND PUSH1 0x1 PUSH1 0x1 PUSH1 0xA0 SHL SUB AND DUP2 MSTORE PUSH1 0x20 ADD PUSH1 0x2 DUP3 ADD DUP1 SLOAD PUSH2 0x19C2 SWAP1 PUSH2 0x450F JUMP JUMPDEST DUP1 PUSH1 0x1F ADD PUSH1 0x20 DUP1 SWAP2 DIV MUL PUSH1 0x20 ADD PUSH1 0x40 MLOAD SWAP1 DUP2 ADD PUSH1 0x40 MSTORE DUP1 SWAP3 SWAP2 SWAP1 DUP2 DUP2 MSTORE PUSH1 0x20 ADD DUP3 DUP1 SLOAD PUSH2 0x19EE SWAP1 PUSH2 0x450F JUMP JUMPDEST DUP1 ISZERO PUSH2 0x1A3B JUMPI DUP1 PUSH1 0x1F LT PUSH2 0x1A10 JUMPI PUSH2 0x100 DUP1 DUP4 SLOAD DIV MUL DUP4 MSTORE SWAP2 PUSH1 0x20 ADD SWAP2 PUSH2 0x1A3B JUMP JUMPDEST DUP3 ADD SWAP2 SWAP1 PUSH1 0x0 MSTORE PUSH1 0x20 PUSH1 0x0 KECCAK256 SWAP1 JUMPDEST DUP2 SLOAD DUP2 MSTORE SWAP1 PUSH1 0x1 ADD SWAP1 PUSH1 0x20 ADD DUP1 DUP4 GT PUSH2 0x1A1E JUMPI DUP3 SWAP1 SUB PUSH1 0x1F AND DUP3 ADD SWAP2 JUMPDEST POP POP POP POP POP DUP2 MSTORE PUSH1 0x20 ADD PUSH1 0x3 DUP3 ADD DUP1 SLOAD PUSH2 0x1A54 SWAP1 PUSH2 0x450F JUMP JUMPDEST DUP1 PUSH1 0x1F ADD PUSH1 0x20 DUP1 SWAP2 DIV MUL PUSH1 0x20 ADD PUSH1 0x40 MLOAD SWAP1 DUP2 ADD PUSH1 0x40 MSTORE DUP1 SWAP3 SWAP2 SWAP1 DUP2 DUP2 MSTORE PUSH1 0x20 ADD DUP3 DUP1 SLOAD PUSH2 0x1A80 SWAP1 PUSH2 0x450F JUMP JUMPDEST DUP1 ISZERO PUSH2 0x1ACD JUMPI DUP1 PUSH1 0x1F LT PUSH2 0x1AA2 JUMPI PUSH2 0x100 DUP1 DUP4 SLOAD DIV MUL DUP4 MSTORE SWAP2 PUSH1 0x20 ADD SWAP2 PUSH2 0x1ACD JUMP JUMPDEST DUP3 ADD SWAP2 SWAP1 PUSH1 0x0 MSTORE PUSH1 0x20 PUSH1 0x0 KECCAK256 SWAP1 JUMPDEST DUP2 SLOAD DUP2 MSTORE SWAP1 PUSH1 0x1 ADD SWAP1 PUSH1 0x20 ADD DUP1 DUP4 GT PUSH2 0x1AB0 JUMPI DUP3 SWAP1 SUB PUSH1 0x1F AND DUP3 ADD SWAP2 JUMPDEST POP POP POP POP POP DUP2 MSTORE PUSH1 0x20 ADD PUSH1 0x4 DUP3 ADD DUP1 SLOAD PUSH2 0x1AE6 SWAP1 PUSH2 0x450F JUMP JUMPDEST DUP1 PUSH1 0x1F ADD PUSH1 0x20 DUP1 SWAP2 DIV MUL PUSH1 0x20 ADD PUSH1 0x40 MLOAD SWAP1 DUP2 ADD PUSH1 0x40 MSTORE DUP1 SWAP3 SWAP2 SWAP1 DUP2 DUP2 MSTORE PUSH1 0x20 ADD DUP3 DUP1 SLOAD PUSH2 0x1B12 SWAP1 PUSH2 0x450F JUMP JUMPDEST DUP1 ISZERO PUSH2 0x1B5F JUMPI DUP1 PUSH1 0x1F LT PUSH2 0x1B34 JUMPI PUSH2 0x100 DUP1 DUP4 SLOAD DIV MUL DUP4 MSTORE SWAP2 PUSH1 0x20 ADD SWAP2 PUSH2 0x1B5F JUMP JUMPDEST DUP3 ADD SWAP2 SWAP1 PUSH1 0x0 MSTORE PUSH1 0x20 PUSH1 0x0 KECCAK256 SWAP1 JUMPDEST DUP2 SLOAD DUP2 MSTORE SWAP1 PUSH1 0x1 ADD SWAP1 PUSH1 0x20 ADD DUP1 DUP4 GT PUSH2 0x1B42 JUMPI DUP3 SWAP1 SUB PUSH1 0x1F AND DUP3 ADD SWAP2 JUMPDEST POP POP POP SWAP2 DUP4 MSTORE POP POP PUSH1 0x5 DUP3 ADD SLOAD PUSH1 0x20 DUP1 DUP4 ADD SWAP2 SWAP1 SWAP2 MSTORE PUSH1 0x6 DUP4 ADD SLOAD PUSH1 0x40 DUP4 ADD MSTORE PUSH1 0x7 DUP4 ADD SLOAD PUSH1 0x60 DUP4 ADD MSTORE PUSH1 0x8 DUP4 ADD SLOAD PUSH1 0x80 DUP4 ADD MSTORE PUSH1 0x9 DUP4 ADD SLOAD PUSH1 0xFF DUP1 DUP3 AND ISZERO ISZERO PUSH1 0xA0 DUP6 ADD MSTORE PUSH2 0x100 DUP1 DUP4 DIV DUP3 AND ISZERO ISZERO PUSH1 0xC0 DUP7 ADD MSTORE PUSH3 0x10000 SWAP1 SWAP3 DIV DUP2 AND ISZERO ISZERO PUSH1 0xE0 DUP6 ADD MSTORE PUSH1 0xA DUP6 ADD SLOAD DUP3 DUP6 ADD MSTORE PUSH1 0xB SWAP1 SWAP5 ADD SLOAD DUP1 DUP6 AND ISZERO ISZERO PUSH2 0x120 DUP6 ADD MSTORE DIV SWAP1 SWAP3 AND ISZERO ISZERO PUSH2 0x140 SWAP1 SWAP2 ADD MSTORE DUP2 ADD MLOAD SWAP1 SWAP2 POP PUSH1 0x1 PUSH1 0x1 PUSH1 0xA0 SHL SUB DUP5 DUP2 AND SWAP2 AND EQ ISZERO PUSH2 0x1C0D JUMPI PUSH1 0x1 SWAP2 POP POP PUSH2 0x5BC JUMP JUMPDEST POP PUSH1 0x0 SWAP4 SWAP3 POP POP POP JUMP JUMPDEST PUSH1 0x0 DUP1 DUP1 JUMPDEST PUSH1 0x1 SLOAD DUP2 LT ISZERO PUSH2 0x1022 JUMPI PUSH1 0x0 PUSH1 0x1 DUP3 DUP2 SLOAD DUP2 LT PUSH2 0x1C3B JUMPI PUSH2 0x1C3B PUSH2 0x4575 JUMP JUMPDEST SWAP1 PUSH1 0x0 MSTORE PUSH1 0x20 PUSH1 0x0 KECCAK256 SWAP1 PUSH1 0xC MUL ADD PUSH1 0x40 MLOAD DUP1 PUSH2 0x1E0 ADD PUSH1 0x40 MSTORE SWAP1 DUP2 PUSH1 0x0 DUP3 ADD SLOAD DUP2 MSTORE PUSH1 0x20 ADD PUSH1 0x1 DUP3 ADD PUSH1 0x0 SWAP1 SLOAD SWAP1 PUSH2 0x100 EXP SWAP1 DIV PUSH1 0x1 PUSH1 0x1 PUSH1 0xA0 SHL SUB AND PUSH1 0x1 PUSH1 0x1 PUSH1 0xA0 SHL SUB AND PUSH1 0x1 PUSH1 0x1 PUSH1 0xA0 SHL SUB AND DUP2 MSTORE PUSH1 0x20 ADD PUSH1 0x2 DUP3 ADD DUP1 SLOAD PUSH2 0x1C9E SWAP1 PUSH2 0x450F JUMP JUMPDEST DUP1 PUSH1 0x1F ADD PUSH1 0x20 DUP1 SWAP2 DIV MUL PUSH1 0x20 ADD PUSH1 0x40 MLOAD SWAP1 DUP2 ADD PUSH1 0x40 MSTORE DUP1 SWAP3 SWAP2 SWAP1 DUP2 DUP2 MSTORE PUSH1 0x20 ADD DUP3 DUP1 SLOAD PUSH2 0x1CCA SWAP1 PUSH2 0x450F JUMP JUMPDEST DUP1 ISZERO PUSH2 0x1D17 JUMPI DUP1 PUSH1 0x1F LT PUSH2 0x1CEC JUMPI PUSH2 0x100 DUP1 DUP4 SLOAD DIV MUL DUP4 MSTORE SWAP2 PUSH1 0x20 ADD SWAP2 PUSH2 0x1D17 JUMP JUMPDEST DUP3 ADD SWAP2 SWAP1 PUSH1 0x0 MSTORE PUSH1 0x20 PUSH1 0x0 KECCAK256 SWAP1 JUMPDEST DUP2 SLOAD DUP2 MSTORE SWAP1 PUSH1 0x1 ADD SWAP1 PUSH1 0x20 ADD DUP1 DUP4 GT PUSH2 0x1CFA JUMPI DUP3 SWAP1 SUB PUSH1 0x1F AND DUP3 ADD SWAP2 JUMPDEST POP POP POP POP POP DUP2 MSTORE PUSH1 0x20 ADD PUSH1 0x3 DUP3 ADD DUP1 SLOAD PUSH2 0x1D30 SWAP1 PUSH2 0x450F JUMP JUMPDEST DUP1 PUSH1 0x1F ADD PUSH1 0x20 DUP1 SWAP2 DIV MUL PUSH1 0x20 ADD PUSH1 0x40 MLOAD SWAP1 DUP2 ADD PUSH1 0x40 MSTORE DUP1 SWAP3 SWAP2 SWAP1 DUP2 DUP2 MSTORE PUSH1 0x20 ADD DUP3 DUP1 SLOAD PUSH2 0x1D5C SWAP1 PUSH2 0x450F JUMP JUMPDEST DUP1 ISZERO PUSH2 0x1DA9 JUMPI DUP1 PUSH1 0x1F LT PUSH2 0x1D7E JUMPI PUSH2 0x100 DUP1 DUP4 SLOAD DIV MUL DUP4 MSTORE SWAP2 PUSH1 0x20 ADD SWAP2 PUSH2 0x1DA9 JUMP JUMPDEST DUP3 ADD SWAP2 SWAP1 PUSH1 0x0 MSTORE PUSH1 0x20 PUSH1 0x0 KECCAK256 SWAP1 JUMPDEST DUP2 SLOAD DUP2 MSTORE SWAP1 PUSH1 0x1 ADD SWAP1 PUSH1 0x20 ADD DUP1 DUP4 GT PUSH2 0x1D8C JUMPI DUP3 SWAP1 SUB PUSH1 0x1F AND DUP3 ADD SWAP2 JUMPDEST POP POP POP POP POP DUP2 MSTORE PUSH1 0x20 ADD PUSH1 0x4 DUP3 ADD DUP1 SLOAD PUSH2 0x1DC2 SWAP1 PUSH2 0x450F JUMP JUMPDEST DUP1 PUSH1 0x1F ADD PUSH1 0x20 DUP1 SWAP2 DIV MUL PUSH1 0x20 ADD PUSH1 0x40 MLOAD SWAP1 DUP2 ADD PUSH1 0x40 MSTORE DUP1 SWAP3 SWAP2 SWAP1 DUP2 DUP2 MSTORE PUSH1 0x20 ADD DUP3 DUP1 SLOAD PUSH2 0x1DEE SWAP1 PUSH2 0x450F JUMP JUMPDEST DUP1 ISZERO PUSH2 0x1E3B JUMPI DUP1 PUSH1 0x1F LT PUSH2 0x1E10 JUMPI PUSH2 0x100 DUP1 DUP4 SLOAD DIV MUL DUP4 MSTORE SWAP2 PUSH1 0x20 ADD SWAP2 PUSH2 0x1E3B JUMP JUMPDEST DUP3 ADD SWAP2 SWAP1 PUSH1 0x0 MSTORE PUSH1 0x20 PUSH1 0x0 KECCAK256 SWAP1 JUMPDEST DUP2 SLOAD DUP2 MSTORE SWAP1 PUSH1 0x1 ADD SWAP1 PUSH1 0x20 ADD DUP1 DUP4 GT PUSH2 0x1E1E JUMPI DUP3 SWAP1 SUB PUSH1 0x1F AND DUP3 ADD SWAP2 JUMPDEST POP POP POP SWAP2 DUP4 MSTORE POP POP PUSH1 0x5 DUP3 ADD SLOAD PUSH1 0x20 DUP3 ADD MSTORE PUSH1 0x6 DUP3 ADD SLOAD PUSH1 0x40 DUP3 ADD MSTORE PUSH1 0x7 DUP3 ADD SLOAD PUSH1 0x60 DUP3 ADD MSTORE PUSH1 0x8 DUP3 ADD SLOAD PUSH1 0x80 DUP3 ADD MSTORE PUSH1 0x9 DUP3 ADD SLOAD PUSH1 0xFF DUP1 DUP3 AND ISZERO ISZERO PUSH1 0xA0 DUP5 ADD MSTORE PUSH2 0x100 DUP1 DUP4 DIV DUP3 AND ISZERO ISZERO PUSH1 0xC0 DUP6 ADD MSTORE PUSH3 0x10000 SWAP1 SWAP3 DIV DUP2 AND ISZERO ISZERO PUSH1 0xE0 DUP5 ADD MSTORE PUSH1 0xA DUP5 ADD SLOAD DUP3 DUP5 ADD MSTORE PUSH1 0xB SWAP1 SWAP4 ADD SLOAD DUP1 DUP5 AND ISZERO ISZERO PUSH2 0x120 DUP5 ADD MSTORE DIV SWAP1 SWAP2 AND ISZERO ISZERO PUSH2 0x140 SWAP1 SWAP2 ADD MSTORE DUP1 MLOAD SWAP1 SWAP2 POP DUP6 EQ ISZERO PUSH2 0x1EDC JUMPI DUP3 PUSH2 0x1ED8 DUP2 PUSH2 0x4544 JUMP JUMPDEST SWAP4 POP POP JUMPDEST POP DUP1 PUSH2 0x1EE7 DUP2 PUSH2 0x4544 JUMP JUMPDEST SWAP2 POP POP PUSH2 0x1C1C JUMP JUMPDEST PUSH2 0x1EF7 PUSH2 0x3D01 JUMP JUMPDEST DUP2 PUSH2 0x1F02 DUP2 CALLER PUSH2 0x1949 JUMP JUMPDEST PUSH2 0x1F1E JUMPI PUSH1 0x40 MLOAD PUSH3 0x461BCD PUSH1 0xE5 SHL DUP2 MSTORE PUSH1 0x4 ADD PUSH2 0x834 SWAP1 PUSH2 0x4321 JUMP JUMPDEST PUSH1 0x0 PUSH1 0x1 DUP5 DUP2 SLOAD DUP2 LT PUSH2 0x1F33 JUMPI PUSH2 0x1F33 PUSH2 0x4575 JUMP JUMPDEST SWAP1 PUSH1 0x0 MSTORE PUSH1 0x20 PUSH1 0x0 KECCAK256 SWAP1 PUSH1 0xC MUL ADD PUSH1 0x40 MLOAD DUP1 PUSH2 0x1E0 ADD PUSH1 0x40 MSTORE SWAP1 DUP2 PUSH1 0x0 DUP3 ADD SLOAD DUP2 MSTORE PUSH1 0x20 ADD PUSH1 0x1 DUP3 ADD PUSH1 0x0 SWAP1 SLOAD SWAP1 PUSH2 0x100 EXP SWAP1 DIV PUSH1 0x1 PUSH1 0x1 PUSH1 0xA0 SHL SUB AND PUSH1 0x1 PUSH1 0x1 PUSH1 0xA0 SHL SUB AND PUSH1 0x1 PUSH1 0x1 PUSH1 0xA0 SHL SUB AND DUP2 MSTORE PUSH1 0x20 ADD PUSH1 0x2 DUP3 ADD DUP1 SLOAD PUSH2 0x1F96 SWAP1 PUSH2 0x450F JUMP JUMPDEST DUP1 PUSH1 0x1F ADD PUSH1 0x20 DUP1 SWAP2 DIV MUL PUSH1 0x20 ADD PUSH1 0x40 MLOAD SWAP1 DUP2 ADD PUSH1 0x40 MSTORE DUP1 SWAP3 SWAP2 SWAP1 DUP2 DUP2 MSTORE PUSH1 0x20 ADD DUP3 DUP1 SLOAD PUSH2 0x1FC2 SWAP1 PUSH2 0x450F JUMP JUMPDEST DUP1 ISZERO PUSH2 0x200F JUMPI DUP1 PUSH1 0x1F LT PUSH2 0x1FE4 JUMPI PUSH2 0x100 DUP1 DUP4 SLOAD DIV MUL DUP4 MSTORE SWAP2 PUSH1 0x20 ADD SWAP2 PUSH2 0x200F JUMP JUMPDEST DUP3 ADD SWAP2 SWAP1 PUSH1 0x0 MSTORE PUSH1 0x20 PUSH1 0x0 KECCAK256 SWAP1 JUMPDEST DUP2 SLOAD DUP2 MSTORE SWAP1 PUSH1 0x1 ADD SWAP1 PUSH1 0x20 ADD DUP1 DUP4 GT PUSH2 0x1FF2 JUMPI DUP3 SWAP1 SUB PUSH1 0x1F AND DUP3 ADD SWAP2 JUMPDEST POP POP POP POP POP DUP2 MSTORE PUSH1 0x20 ADD PUSH1 0x3 DUP3 ADD DUP1 SLOAD PUSH2 0x2028 SWAP1 PUSH2 0x450F JUMP JUMPDEST DUP1 PUSH1 0x1F ADD PUSH1 0x20 DUP1 SWAP2 DIV MUL PUSH1 0x20 ADD PUSH1 0x40 MLOAD SWAP1 DUP2 ADD PUSH1 0x40 MSTORE DUP1 SWAP3 SWAP2 SWAP1 DUP2 DUP2 MSTORE PUSH1 0x20 ADD DUP3 DUP1 SLOAD PUSH2 0x2054 SWAP1 PUSH2 0x450F JUMP JUMPDEST DUP1 ISZERO PUSH2 0x20A1 JUMPI DUP1 PUSH1 0x1F LT PUSH2 0x2076 JUMPI PUSH2 0x100 DUP1 DUP4 SLOAD DIV MUL DUP4 MSTORE SWAP2 PUSH1 0x20 ADD SWAP2 PUSH2 0x20A1 JUMP JUMPDEST DUP3 ADD SWAP2 SWAP1 PUSH1 0x0 MSTORE PUSH1 0x20 PUSH1 0x0 KECCAK256 SWAP1 JUMPDEST DUP2 SLOAD DUP2 MSTORE SWAP1 PUSH1 0x1 ADD SWAP1 PUSH1 0x20 ADD DUP1 DUP4 GT PUSH2 0x2084 JUMPI DUP3 SWAP1 SUB PUSH1 0x1F AND DUP3 ADD SWAP2 JUMPDEST POP POP POP POP POP DUP2 MSTORE PUSH1 0x20 ADD PUSH1 0x4 DUP3 ADD DUP1 SLOAD PUSH2 0x20BA SWAP1 PUSH2 0x450F JUMP JUMPDEST DUP1 PUSH1 0x1F ADD PUSH1 0x20 DUP1 SWAP2 DIV MUL PUSH1 0x20 ADD PUSH1 0x40 MLOAD SWAP1 DUP2 ADD PUSH1 0x40 MSTORE DUP1 SWAP3 SWAP2 SWAP1 DUP2 DUP2 MSTORE PUSH1 0x20 ADD DUP3 DUP1 SLOAD PUSH2 0x20E6 SWAP1 PUSH2 0x450F JUMP JUMPDEST DUP1 ISZERO PUSH2 0x2133 JUMPI DUP1 PUSH1 0x1F LT PUSH2 0x2108 JUMPI PUSH2 0x100 DUP1 DUP4 SLOAD DIV MUL DUP4 MSTORE SWAP2 PUSH1 0x20 ADD SWAP2 PUSH2 0x2133 JUMP JUMPDEST DUP3 ADD SWAP2 SWAP1 PUSH1 0x0 MSTORE PUSH1 0x20 PUSH1 0x0 KECCAK256 SWAP1 JUMPDEST DUP2 SLOAD DUP2 MSTORE SWAP1 PUSH1 0x1 ADD SWAP1 PUSH1 0x20 ADD DUP1 DUP4 GT PUSH2 0x2116 JUMPI DUP3 SWAP1 SUB PUSH1 0x1F AND DUP3 ADD SWAP2 JUMPDEST POP POP POP SWAP2 DUP4 MSTORE POP POP PUSH1 0x5 DUP3 ADD SLOAD PUSH1 0x20 DUP3 ADD MSTORE PUSH1 0x6 DUP3 ADD SLOAD PUSH1 0x40 DUP3 ADD MSTORE PUSH1 0x7 DUP3 ADD SLOAD PUSH1 0x60 DUP3 ADD MSTORE PUSH1 0x8 DUP3 ADD SLOAD PUSH1 0x80 DUP3 ADD MSTORE PUSH1 0x9 DUP3 ADD SLOAD PUSH1 0xFF DUP1 DUP3 AND ISZERO ISZERO PUSH1 0xA0 DUP5 ADD MSTORE PUSH2 0x100 DUP1 DUP4 DIV DUP3 AND ISZERO ISZERO PUSH1 0xC0 DUP6 ADD MSTORE PUSH3 0x10000 SWAP1 SWAP3 DIV DUP2 AND ISZERO ISZERO PUSH1 0xE0 DUP5 ADD MSTORE PUSH1 0xA DUP5 ADD SLOAD DUP3 DUP5 ADD MSTORE PUSH1 0xB SWAP1 SWAP4 ADD SLOAD DUP1 DUP5 AND ISZERO ISZERO PUSH2 0x120 DUP5 ADD MSTORE DIV SWAP1 SWAP2 AND ISZERO ISZERO PUSH2 0x140 SWAP1 SWAP2 ADD MSTORE SWAP1 POP PUSH1 0x0 PUSH2 0x21C7 DUP6 PUSH2 0x80B JUMP JUMPDEST SWAP1 POP PUSH2 0x21D1 PUSH2 0x3D01 JUMP JUMPDEST PUSH1 0x1 PUSH1 0xA0 DUP3 ADD MSTORE DUP2 ISZERO PUSH2 0x21E8 JUMPI SWAP4 POP PUSH2 0x8EF SWAP2 POP POP JUMP JUMPDEST PUSH1 0x0 PUSH2 0x21F3 DUP8 PUSH2 0x3A25 JUMP JUMPDEST SWAP1 POP PUSH1 0x0 PUSH1 0xA PUSH2 0x2204 DUP4 PUSH1 0x8 PUSH2 0x44F0 JUMP JUMPDEST PUSH2 0x220E SWAP2 SWAP1 PUSH2 0x43E0 JUMP JUMPDEST SWAP1 POP PUSH1 0x0 PUSH1 0x9 PUSH1 0x0 SWAP1 SLOAD SWAP1 PUSH2 0x100 EXP SWAP1 DIV PUSH1 0x1 PUSH1 0x1 PUSH1 0xA0 SHL SUB AND PUSH1 0x1 PUSH1 0x1 PUSH1 0xA0 SHL SUB AND PUSH4 0x313CE567 PUSH1 0x40 MLOAD DUP2 PUSH4 0xFFFFFFFF AND PUSH1 0xE0 SHL DUP2 MSTORE PUSH1 0x4 ADD PUSH1 0x20 PUSH1 0x40 MLOAD DUP1 DUP4 SUB DUP2 DUP7 DUP1 EXTCODESIZE ISZERO DUP1 ISZERO PUSH2 0x2260 JUMPI PUSH1 0x0 DUP1 REVERT JUMPDEST POP GAS STATICCALL ISZERO DUP1 ISZERO PUSH2 0x2274 JUMPI RETURNDATASIZE PUSH1 0x0 DUP1 RETURNDATACOPY RETURNDATASIZE PUSH1 0x0 REVERT JUMPDEST POP POP POP POP PUSH1 0x40 MLOAD RETURNDATASIZE PUSH1 0x1F NOT PUSH1 0x1F DUP3 ADD AND DUP3 ADD DUP1 PUSH1 0x40 MSTORE POP DUP2 ADD SWAP1 PUSH2 0x2298 SWAP2 SWAP1 PUSH2 0x401D JUMP JUMPDEST PUSH2 0x22A3 SWAP1 PUSH1 0xA PUSH2 0x4445 JUMP JUMPDEST PUSH2 0x22AD SWAP1 DUP4 PUSH2 0x44F0 JUMP JUMPDEST PUSH1 0x9 SLOAD PUSH1 0x20 DUP9 ADD MLOAD PUSH1 0x40 MLOAD PUSH4 0xA9059CBB PUSH1 0xE0 SHL DUP2 MSTORE PUSH1 0x1 PUSH1 0x1 PUSH1 0xA0 SHL SUB SWAP2 DUP3 AND PUSH1 0x4 DUP3 ADD MSTORE PUSH1 0x24 DUP2 ADD DUP5 SWAP1 MSTORE SWAP3 SWAP4 POP PUSH1 0x0 SWAP3 SWAP2 AND SWAP1 PUSH4 0xA9059CBB SWAP1 PUSH1 0x44 ADD PUSH1 0x20 PUSH1 0x40 MLOAD DUP1 DUP4 SUB DUP2 PUSH1 0x0 DUP8 DUP1 EXTCODESIZE ISZERO DUP1 ISZERO PUSH2 0x2305 JUMPI PUSH1 0x0 DUP1 REVERT JUMPDEST POP GAS CALL ISZERO DUP1 ISZERO PUSH2 0x2319 JUMPI RETURNDATASIZE PUSH1 0x0 DUP1 RETURNDATACOPY RETURNDATASIZE PUSH1 0x0 REVERT JUMPDEST POP POP POP POP PUSH1 0x40 MLOAD RETURNDATASIZE PUSH1 0x1F NOT PUSH1 0x1F DUP3 ADD AND DUP3 ADD DUP1 PUSH1 0x40 MSTORE POP DUP2 ADD SWAP1 PUSH2 0x233D SWAP2 SWAP1 PUSH2 0x3F4B JUMP JUMPDEST SWAP1 POP DUP1 ISZERO PUSH2 0x24BE JUMPI PUSH1 0x0 PUSH1 0xA PUSH2 0x2354 DUP7 PUSH1 0x2 PUSH2 0x44F0 JUMP JUMPDEST PUSH2 0x235E SWAP2 SWAP1 PUSH2 0x43E0 JUMP JUMPDEST SWAP1 POP PUSH1 0x0 PUSH1 0x9 PUSH1 0x0 SWAP1 SLOAD SWAP1 PUSH2 0x100 EXP SWAP1 DIV PUSH1 0x1 PUSH1 0x1 PUSH1 0xA0 SHL SUB AND PUSH1 0x1 PUSH1 0x1 PUSH1 0xA0 SHL SUB AND PUSH4 0x313CE567 PUSH1 0x40 MLOAD DUP2 PUSH4 0xFFFFFFFF AND PUSH1 0xE0 SHL DUP2 MSTORE PUSH1 0x4 ADD PUSH1 0x20 PUSH1 0x40 MLOAD DUP1 DUP4 SUB DUP2 DUP7 DUP1 EXTCODESIZE ISZERO DUP1 ISZERO PUSH2 0x23B0 JUMPI PUSH1 0x0 DUP1 REVERT JUMPDEST POP GAS STATICCALL ISZERO DUP1 ISZERO PUSH2 0x23C4 JUMPI RETURNDATASIZE PUSH1 0x0 DUP1 RETURNDATACOPY RETURNDATASIZE PUSH1 0x0 REVERT JUMPDEST POP POP POP POP PUSH1 0x40 MLOAD RETURNDATASIZE PUSH1 0x1F NOT PUSH1 0x1F DUP3 ADD AND DUP3 ADD DUP1 PUSH1 0x40 MSTORE POP DUP2 ADD SWAP1 PUSH2 0x23E8 SWAP2 SWAP1 PUSH2 0x401D JUMP JUMPDEST PUSH2 0x23F3 SWAP1 PUSH1 0xA PUSH2 0x4445 JUMP JUMPDEST PUSH2 0x23FD SWAP1 DUP4 PUSH2 0x44F0 JUMP JUMPDEST PUSH1 0x9 SLOAD PUSH1 0x4 DUP1 SLOAD PUSH1 0x40 MLOAD PUSH4 0xA9059CBB PUSH1 0xE0 SHL DUP2 MSTORE PUSH1 0x1 PUSH1 0x1 PUSH1 0xA0 SHL SUB SWAP2 DUP3 AND SWAP3 DUP2 ADD SWAP3 SWAP1 SWAP3 MSTORE PUSH1 0x24 DUP3 ADD DUP5 SWAP1 MSTORE SWAP3 SWAP4 POP PUSH1 0x0 SWAP3 SWAP1 SWAP2 AND SWAP1 PUSH4 0xA9059CBB SWAP1 PUSH1 0x44 ADD PUSH1 0x20 PUSH1 0x40 MLOAD DUP1 DUP4 SUB DUP2 PUSH1 0x0 DUP8 DUP1 EXTCODESIZE ISZERO DUP1 ISZERO PUSH2 0x2457 JUMPI PUSH1 0x0 DUP1 REVERT JUMPDEST POP GAS CALL ISZERO DUP1 ISZERO PUSH2 0x246B JUMPI RETURNDATASIZE PUSH1 0x0 DUP1 RETURNDATACOPY RETURNDATASIZE PUSH1 0x0 REVERT JUMPDEST POP POP POP POP PUSH1 0x40 MLOAD RETURNDATASIZE PUSH1 0x1F NOT PUSH1 0x1F DUP3 ADD AND DUP3 ADD DUP1 PUSH1 0x40 MSTORE POP DUP2 ADD SWAP1 PUSH2 0x248F SWAP2 SWAP1 PUSH2 0x3F4B JUMP JUMPDEST SWAP1 POP DUP1 ISZERO PUSH2 0x24B6 JUMPI PUSH1 0x0 PUSH2 0x24A3 DUP15 DUP9 PUSH2 0x2D0F JUMP JUMPDEST SWAP13 POP PUSH2 0x8EF SWAP11 POP POP POP POP POP POP POP POP POP POP POP JUMP JUMPDEST POP POP POP PUSH2 0x24CD JUMP JUMPDEST DUP5 SWAP9 POP POP POP POP POP POP POP POP PUSH2 0x8EF JUMP JUMPDEST POP SWAP3 SWAP9 SWAP8 POP POP POP POP POP POP POP POP JUMP JUMPDEST PUSH1 0x0 DUP1 JUMPDEST PUSH1 0x0 SLOAD DUP2 LT ISZERO PUSH2 0x26DF JUMPI PUSH1 0x0 DUP1 DUP3 DUP2 SLOAD DUP2 LT PUSH2 0x24FD JUMPI PUSH2 0x24FD PUSH2 0x4575 JUMP JUMPDEST SWAP1 PUSH1 0x0 MSTORE PUSH1 0x20 PUSH1 0x0 KECCAK256 SWAP1 PUSH1 0x5 MUL ADD PUSH1 0x40 MLOAD DUP1 PUSH1 0xC0 ADD PUSH1 0x40 MSTORE SWAP1 DUP2 PUSH1 0x0 DUP3 ADD SLOAD DUP2 MSTORE PUSH1 0x20 ADD PUSH1 0x1 DUP3 ADD PUSH1 0x0 SWAP1 SLOAD SWAP1 PUSH2 0x100 EXP SWAP1 DIV PUSH1 0x1 PUSH1 0x1 PUSH1 0xA0 SHL SUB AND PUSH1 0x1 PUSH1 0x1 PUSH1 0xA0 SHL SUB AND PUSH1 0x1 PUSH1 0x1 PUSH1 0xA0 SHL SUB AND DUP2 MSTORE PUSH1 0x20 ADD PUSH1 0x2 DUP3 ADD DUP1 SLOAD PUSH2 0x255F SWAP1 PUSH2 0x450F JUMP JUMPDEST DUP1 PUSH1 0x1F ADD PUSH1 0x20 DUP1 SWAP2 DIV MUL PUSH1 0x20 ADD PUSH1 0x40 MLOAD SWAP1 DUP2 ADD PUSH1 0x40 MSTORE DUP1 SWAP3 SWAP2 SWAP1 DUP2 DUP2 MSTORE PUSH1 0x20 ADD DUP3 DUP1 SLOAD PUSH2 0x258B SWAP1 PUSH2 0x450F JUMP JUMPDEST DUP1 ISZERO PUSH2 0x25D8 JUMPI DUP1 PUSH1 0x1F LT PUSH2 0x25AD JUMPI PUSH2 0x100 DUP1 DUP4 SLOAD DIV MUL DUP4 MSTORE SWAP2 PUSH1 0x20 ADD SWAP2 PUSH2 0x25D8 JUMP JUMPDEST DUP3 ADD SWAP2 SWAP1 PUSH1 0x0 MSTORE PUSH1 0x20 PUSH1 0x0 KECCAK256 SWAP1 JUMPDEST DUP2 SLOAD DUP2 MSTORE SWAP1 PUSH1 0x1 ADD SWAP1 PUSH1 0x20 ADD DUP1 DUP4 GT PUSH2 0x25BB JUMPI DUP3 SWAP1 SUB PUSH1 0x1F AND DUP3 ADD SWAP2 JUMPDEST POP POP POP POP POP DUP2 MSTORE PUSH1 0x20 ADD PUSH1 0x3 DUP3 ADD DUP1 SLOAD PUSH2 0x25F1 SWAP1 PUSH2 0x450F JUMP JUMPDEST DUP1 PUSH1 0x1F ADD PUSH1 0x20 DUP1 SWAP2 DIV MUL PUSH1 0x20 ADD PUSH1 0x40 MLOAD SWAP1 DUP2 ADD PUSH1 0x40 MSTORE DUP1 SWAP3 SWAP2 SWAP1 DUP2 DUP2 MSTORE PUSH1 0x20 ADD DUP3 DUP1 SLOAD PUSH2 0x261D SWAP1 PUSH2 0x450F JUMP JUMPDEST DUP1 ISZERO PUSH2 0x266A JUMPI DUP1 PUSH1 0x1F LT PUSH2 0x263F JUMPI PUSH2 0x100 DUP1 DUP4 SLOAD DIV MUL DUP4 MSTORE SWAP2 PUSH1 0x20 ADD SWAP2 PUSH2 0x266A JUMP JUMPDEST DUP3 ADD SWAP2 SWAP1 PUSH1 0x0 MSTORE PUSH1 0x20 PUSH1 0x0 KECCAK256 SWAP1 JUMPDEST DUP2 SLOAD DUP2 MSTORE SWAP1 PUSH1 0x1 ADD SWAP1 PUSH1 0x20 ADD DUP1 DUP4 GT PUSH2 0x264D JUMPI DUP3 SWAP1 SUB PUSH1 0x1F AND DUP3 ADD SWAP2 JUMPDEST POP POP POP SWAP2 DUP4 MSTORE POP POP PUSH1 0x4 SWAP2 SWAP1 SWAP2 ADD SLOAD PUSH1 0xFF DUP1 DUP3 AND ISZERO ISZERO PUSH1 0x20 DUP1 DUP6 ADD SWAP2 SWAP1 SWAP2 MSTORE PUSH2 0x100 SWAP1 SWAP3 DIV AND ISZERO ISZERO PUSH1 0x40 SWAP1 SWAP3 ADD SWAP2 SWAP1 SWAP2 MSTORE DUP2 ADD MLOAD SWAP1 SWAP2 POP PUSH1 0x1 PUSH1 0x1 PUSH1 0xA0 SHL SUB DUP6 DUP2 AND SWAP2 AND EQ DUP1 ISZERO PUSH2 0x26BD JUMPI POP DUP1 PUSH1 0xA0 ADD MLOAD ISZERO JUMPDEST ISZERO PUSH2 0x26CC JUMPI POP PUSH1 0x1 SWAP4 SWAP3 POP POP POP JUMP JUMPDEST POP DUP1 PUSH2 0x26D7 DUP2 PUSH2 0x4544 JUMP JUMPDEST SWAP2 POP POP PUSH2 0x24DF JUMP JUMPDEST POP PUSH1 0x0 SWAP3 SWAP2 POP POP JUMP JUMPDEST PUSH2 0x26F0 PUSH2 0x3CBE JUMP JUMPDEST PUSH1 0x0 JUMPDEST PUSH1 0x0 SLOAD DUP2 LT ISZERO PUSH2 0x28E2 JUMPI PUSH1 0x0 DUP1 DUP3 DUP2 SLOAD DUP2 LT PUSH2 0x2711 JUMPI PUSH2 0x2711 PUSH2 0x4575 JUMP JUMPDEST SWAP1 PUSH1 0x0 MSTORE PUSH1 0x20 PUSH1 0x0 KECCAK256 SWAP1 PUSH1 0x5 MUL ADD PUSH1 0x40 MLOAD DUP1 PUSH1 0xC0 ADD PUSH1 0x40 MSTORE SWAP1 DUP2 PUSH1 0x0 DUP3 ADD SLOAD DUP2 MSTORE PUSH1 0x20 ADD PUSH1 0x1 DUP3 ADD PUSH1 0x0 SWAP1 SLOAD SWAP1 PUSH2 0x100 EXP SWAP1 DIV PUSH1 0x1 PUSH1 0x1 PUSH1 0xA0 SHL SUB AND PUSH1 0x1 PUSH1 0x1 PUSH1 0xA0 SHL SUB AND PUSH1 0x1 PUSH1 0x1 PUSH1 0xA0 SHL SUB AND DUP2 MSTORE PUSH1 0x20 ADD PUSH1 0x2 DUP3 ADD DUP1 SLOAD PUSH2 0x2773 SWAP1 PUSH2 0x450F JUMP JUMPDEST DUP1 PUSH1 0x1F ADD PUSH1 0x20 DUP1 SWAP2 DIV MUL PUSH1 0x20 ADD PUSH1 0x40 MLOAD SWAP1 DUP2 ADD PUSH1 0x40 MSTORE DUP1 SWAP3 SWAP2 SWAP1 DUP2 DUP2 MSTORE PUSH1 0x20 ADD DUP3 DUP1 SLOAD PUSH2 0x279F SWAP1 PUSH2 0x450F JUMP JUMPDEST DUP1 ISZERO PUSH2 0x27EC JUMPI DUP1 PUSH1 0x1F LT PUSH2 0x27C1 JUMPI PUSH2 0x100 DUP1 DUP4 SLOAD DIV MUL DUP4 MSTORE SWAP2 PUSH1 0x20 ADD SWAP2 PUSH2 0x27EC JUMP JUMPDEST DUP3 ADD SWAP2 SWAP1 PUSH1 0x0 MSTORE PUSH1 0x20 PUSH1 0x0 KECCAK256 SWAP1 JUMPDEST DUP2 SLOAD DUP2 MSTORE SWAP1 PUSH1 0x1 ADD SWAP1 PUSH1 0x20 ADD DUP1 DUP4 GT PUSH2 0x27CF JUMPI DUP3 SWAP1 SUB PUSH1 0x1F AND DUP3 ADD SWAP2 JUMPDEST POP POP POP POP POP DUP2 MSTORE PUSH1 0x20 ADD PUSH1 0x3 DUP3 ADD DUP1 SLOAD PUSH2 0x2805 SWAP1 PUSH2 0x450F JUMP JUMPDEST DUP1 PUSH1 0x1F ADD PUSH1 0x20 DUP1 SWAP2 DIV MUL PUSH1 0x20 ADD PUSH1 0x40 MLOAD SWAP1 DUP2 ADD PUSH1 0x40 MSTORE DUP1 SWAP3 SWAP2 SWAP1 DUP2 DUP2 MSTORE PUSH1 0x20 ADD DUP3 DUP1 SLOAD PUSH2 0x2831 SWAP1 PUSH2 0x450F JUMP JUMPDEST DUP1 ISZERO PUSH2 0x287E JUMPI DUP1 PUSH1 0x1F LT PUSH2 0x2853 JUMPI PUSH2 0x100 DUP1 DUP4 SLOAD DIV MUL DUP4 MSTORE SWAP2 PUSH1 0x20 ADD SWAP2 PUSH2 0x287E JUMP JUMPDEST DUP3 ADD SWAP2 SWAP1 PUSH1 0x0 MSTORE PUSH1 0x20 PUSH1 0x0 KECCAK256 SWAP1 JUMPDEST DUP2 SLOAD DUP2 MSTORE SWAP1 PUSH1 0x1 ADD SWAP1 PUSH1 0x20 ADD DUP1 DUP4 GT PUSH2 0x2861 JUMPI DUP3 SWAP1 SUB PUSH1 0x1F AND DUP3 ADD SWAP2 JUMPDEST POP POP POP SWAP2 DUP4 MSTORE POP POP PUSH1 0x4 SWAP2 SWAP1 SWAP2 ADD SLOAD PUSH1 0xFF DUP1 DUP3 AND ISZERO ISZERO PUSH1 0x20 DUP1 DUP6 ADD SWAP2 SWAP1 SWAP2 MSTORE PUSH2 0x100 SWAP1 SWAP3 DIV AND ISZERO ISZERO PUSH1 0x40 SWAP1 SWAP3 ADD SWAP2 SWAP1 SWAP2 MSTORE DUP2 ADD MLOAD SWAP1 SWAP2 POP PUSH1 0x1 PUSH1 0x1 PUSH1 0xA0 SHL SUB DUP6 DUP2 AND SWAP2 AND EQ ISZERO PUSH2 0x28CF JUMPI SWAP4 SWAP3 POP POP POP JUMP JUMPDEST POP DUP1 PUSH2 0x28DA DUP2 PUSH2 0x4544 JUMP JUMPDEST SWAP2 POP POP PUSH2 0x26F3 JUMP JUMPDEST POP PUSH2 0x28EB PUSH2 0x3CBE JUMP JUMPDEST PUSH1 0x1 PUSH1 0xA0 DUP3 ADD MSTORE SWAP3 SWAP2 POP POP JUMP JUMPDEST PUSH1 0x60 PUSH1 0x0 DUP1 PUSH2 0x2906 DUP5 PUSH2 0x1C17 JUMP JUMPDEST PUSH8 0xFFFFFFFFFFFFFFFF DUP2 GT ISZERO PUSH2 0x291E JUMPI PUSH2 0x291E PUSH2 0x458B JUMP JUMPDEST PUSH1 0x40 MLOAD SWAP1 DUP1 DUP3 MSTORE DUP1 PUSH1 0x20 MUL PUSH1 0x20 ADD DUP3 ADD PUSH1 0x40 MSTORE DUP1 ISZERO PUSH2 0x2957 JUMPI DUP2 PUSH1 0x20 ADD JUMPDEST PUSH2 0x2944 PUSH2 0x3CBE JUMP JUMPDEST DUP2 MSTORE PUSH1 0x20 ADD SWAP1 PUSH1 0x1 SWAP1 SUB SWAP1 DUP2 PUSH2 0x293C JUMPI SWAP1 POP JUMPDEST POP SWAP1 POP PUSH1 0x0 JUMPDEST PUSH1 0x2 SLOAD DUP2 LT ISZERO PUSH2 0x6E0 JUMPI PUSH1 0x0 PUSH1 0x2 DUP3 DUP2 SLOAD DUP2 LT PUSH2 0x297C JUMPI PUSH2 0x297C PUSH2 0x4575 JUMP JUMPDEST PUSH1 0x0 SWAP2 DUP3 MSTORE PUSH1 0x20 SWAP2 DUP3 SWAP1 KECCAK256 PUSH1 0x40 DUP1 MLOAD PUSH1 0x80 DUP2 ADD DUP3 MSTORE PUSH1 0x4 SWAP1 SWAP4 MUL SWAP1 SWAP2 ADD DUP1 SLOAD DUP4 MSTORE PUSH1 0x1 DUP2 ADD SLOAD SWAP4 DUP4 ADD DUP5 SWAP1 MSTORE PUSH1 0x2 DUP2 ADD SLOAD PUSH1 0x1 PUSH1 0x1 PUSH1 0xA0 SHL SUB AND SWAP2 DUP4 ADD SWAP2 SWAP1 SWAP2 MSTORE PUSH1 0x3 ADD SLOAD PUSH1 0x60 DUP3 ADD MSTORE SWAP2 POP DUP7 EQ ISZERO PUSH2 0x2A0E JUMPI PUSH1 0x0 PUSH2 0x29DE DUP3 PUSH1 0x40 ADD MLOAD PUSH2 0x26E8 JUMP JUMPDEST SWAP1 POP DUP1 DUP5 DUP7 DUP2 MLOAD DUP2 LT PUSH2 0x29F3 JUMPI PUSH2 0x29F3 PUSH2 0x4575 JUMP JUMPDEST PUSH1 0x20 MUL PUSH1 0x20 ADD ADD DUP2 SWAP1 MSTORE POP DUP5 DUP1 PUSH2 0x2A09 SWAP1 PUSH2 0x4544 JUMP JUMPDEST SWAP6 POP POP POP JUMPDEST POP DUP1 PUSH2 0x2A19 DUP2 PUSH2 0x4544 JUMP JUMPDEST SWAP2 POP POP PUSH2 0x295D JUMP JUMPDEST PUSH2 0x2A29 PUSH2 0x3BB1 JUMP JUMPDEST PUSH1 0x0 JUMPDEST PUSH1 0x1 SLOAD DUP2 LT ISZERO PUSH2 0x2CF8 JUMPI PUSH1 0x0 PUSH1 0x1 DUP3 DUP2 SLOAD DUP2 LT PUSH2 0x2A4B JUMPI PUSH2 0x2A4B PUSH2 0x4575 JUMP JUMPDEST SWAP1 PUSH1 0x0 MSTORE PUSH1 0x20 PUSH1 0x0 KECCAK256 SWAP1 PUSH1 0xC MUL ADD PUSH1 0x40 MLOAD DUP1 PUSH2 0x1E0 ADD PUSH1 0x40 MSTORE SWAP1 DUP2 PUSH1 0x0 DUP3 ADD SLOAD DUP2 MSTORE PUSH1 0x20 ADD PUSH1 0x1 DUP3 ADD PUSH1 0x0 SWAP1 SLOAD SWAP1 PUSH2 0x100 EXP SWAP1 DIV PUSH1 0x1 PUSH1 0x1 PUSH1 0xA0 SHL SUB AND PUSH1 0x1 PUSH1 0x1 PUSH1 0xA0 SHL SUB AND PUSH1 0x1 PUSH1 0x1 PUSH1 0xA0 SHL SUB AND DUP2 MSTORE PUSH1 0x20 ADD PUSH1 0x2 DUP3 ADD DUP1 SLOAD PUSH2 0x2AAE SWAP1 PUSH2 0x450F JUMP JUMPDEST DUP1 PUSH1 0x1F ADD PUSH1 0x20 DUP1 SWAP2 DIV MUL PUSH1 0x20 ADD PUSH1 0x40 MLOAD SWAP1 DUP2 ADD PUSH1 0x40 MSTORE DUP1 SWAP3 SWAP2 SWAP1 DUP2 DUP2 MSTORE PUSH1 0x20 ADD DUP3 DUP1 SLOAD PUSH2 0x2ADA SWAP1 PUSH2 0x450F JUMP JUMPDEST DUP1 ISZERO PUSH2 0x2B27 JUMPI DUP1 PUSH1 0x1F LT PUSH2 0x2AFC JUMPI PUSH2 0x100 DUP1 DUP4 SLOAD DIV MUL DUP4 MSTORE SWAP2 PUSH1 0x20 ADD SWAP2 PUSH2 0x2B27 JUMP JUMPDEST DUP3 ADD SWAP2 SWAP1 PUSH1 0x0 MSTORE PUSH1 0x20 PUSH1 0x0 KECCAK256 SWAP1 JUMPDEST DUP2 SLOAD DUP2 MSTORE SWAP1 PUSH1 0x1 ADD SWAP1 PUSH1 0x20 ADD DUP1 DUP4 GT PUSH2 0x2B0A JUMPI DUP3 SWAP1 SUB PUSH1 0x1F AND DUP3 ADD SWAP2 JUMPDEST POP POP POP POP POP DUP2 MSTORE PUSH1 0x20 ADD PUSH1 0x3 DUP3 ADD DUP1 SLOAD PUSH2 0x2B40 SWAP1 PUSH2 0x450F JUMP JUMPDEST DUP1 PUSH1 0x1F ADD PUSH1 0x20 DUP1 SWAP2 DIV MUL PUSH1 0x20 ADD PUSH1 0x40 MLOAD SWAP1 DUP2 ADD PUSH1 0x40 MSTORE DUP1 SWAP3 SWAP2 SWAP1 DUP2 DUP2 MSTORE PUSH1 0x20 ADD DUP3 DUP1 SLOAD PUSH2 0x2B6C SWAP1 PUSH2 0x450F JUMP JUMPDEST DUP1 ISZERO PUSH2 0x2BB9 JUMPI DUP1 PUSH1 0x1F LT PUSH2 0x2B8E JUMPI PUSH2 0x100 DUP1 DUP4 SLOAD DIV MUL DUP4 MSTORE SWAP2 PUSH1 0x20 ADD SWAP2 PUSH2 0x2BB9 JUMP JUMPDEST DUP3 ADD SWAP2 SWAP1 PUSH1 0x0 MSTORE PUSH1 0x20 PUSH1 0x0 KECCAK256 SWAP1 JUMPDEST DUP2 SLOAD DUP2 MSTORE SWAP1 PUSH1 0x1 ADD SWAP1 PUSH1 0x20 ADD DUP1 DUP4 GT PUSH2 0x2B9C JUMPI DUP3 SWAP1 SUB PUSH1 0x1F AND DUP3 ADD SWAP2 JUMPDEST POP POP POP POP POP DUP2 MSTORE PUSH1 0x20 ADD PUSH1 0x4 DUP3 ADD DUP1 SLOAD PUSH2 0x2BD2 SWAP1 PUSH2 0x450F JUMP JUMPDEST DUP1 PUSH1 0x1F ADD PUSH1 0x20 DUP1 SWAP2 DIV MUL PUSH1 0x20 ADD PUSH1 0x40 MLOAD SWAP1 DUP2 ADD PUSH1 0x40 MSTORE DUP1 SWAP3 SWAP2 SWAP1 DUP2 DUP2 MSTORE PUSH1 0x20 ADD DUP3 DUP1 SLOAD PUSH2 0x2BFE SWAP1 PUSH2 0x450F JUMP JUMPDEST DUP1 ISZERO PUSH2 0x2C4B JUMPI DUP1 PUSH1 0x1F LT PUSH2 0x2C20 JUMPI PUSH2 0x100 DUP1 DUP4 SLOAD DIV MUL DUP4 MSTORE SWAP2 PUSH1 0x20 ADD SWAP2 PUSH2 0x2C4B JUMP JUMPDEST DUP3 ADD SWAP2 SWAP1 PUSH1 0x0 MSTORE PUSH1 0x20 PUSH1 0x0 KECCAK256 SWAP1 JUMPDEST DUP2 SLOAD DUP2 MSTORE SWAP1 PUSH1 0x1 ADD SWAP1 PUSH1 0x20 ADD DUP1 DUP4 GT PUSH2 0x2C2E JUMPI DUP3 SWAP1 SUB PUSH1 0x1F AND DUP3 ADD SWAP2 JUMPDEST POP POP POP SWAP2 DUP4 MSTORE POP POP PUSH1 0x5 DUP3 ADD SLOAD PUSH1 0x20 DUP3 ADD MSTORE PUSH1 0x6 DUP3 ADD SLOAD PUSH1 0x40 DUP3 ADD MSTORE PUSH1 0x7 DUP3 ADD SLOAD PUSH1 0x60 DUP3 ADD MSTORE PUSH1 0x8 DUP3 ADD SLOAD PUSH1 0x80 DUP3 ADD MSTORE PUSH1 0x9 DUP3 ADD SLOAD PUSH1 0xFF DUP1 DUP3 AND ISZERO ISZERO PUSH1 0xA0 DUP5 ADD MSTORE PUSH2 0x100 DUP1 DUP4 DIV DUP3 AND ISZERO ISZERO PUSH1 0xC0 DUP6 ADD MSTORE PUSH3 0x10000 SWAP1 SWAP3 DIV DUP2 AND ISZERO ISZERO PUSH1 0xE0 DUP5 ADD MSTORE PUSH1 0xA DUP5 ADD SLOAD DUP3 DUP5 ADD MSTORE PUSH1 0xB SWAP1 SWAP4 ADD SLOAD DUP1 DUP5 AND ISZERO ISZERO PUSH2 0x120 DUP5 ADD MSTORE DIV SWAP1 SWAP2 AND ISZERO ISZERO PUSH2 0x140 SWAP1 SWAP2 ADD MSTORE DUP1 MLOAD SWAP1 SWAP2 POP DUP5 EQ ISZERO PUSH2 0x2CE5 JUMPI SWAP4 SWAP3 POP POP POP JUMP JUMPDEST POP DUP1 PUSH2 0x2CF0 DUP2 PUSH2 0x4544 JUMP JUMPDEST SWAP2 POP POP PUSH2 0x2A2C JUMP JUMPDEST POP PUSH2 0x2D01 PUSH2 0x3BB1 JUMP JUMPDEST PUSH1 0x1 PUSH2 0x120 DUP3 ADD MSTORE SWAP3 SWAP2 POP POP JUMP JUMPDEST PUSH2 0x2D17 PUSH2 0x3D01 JUMP JUMPDEST DUP3 PUSH2 0x2D22 DUP2 CALLER PUSH2 0x1949 JUMP JUMPDEST PUSH2 0x2D3E JUMPI PUSH1 0x40 MLOAD PUSH3 0x461BCD PUSH1 0xE5 SHL DUP2 MSTORE PUSH1 0x4 ADD PUSH2 0x834 SWAP1 PUSH2 0x4321 JUMP JUMPDEST PUSH1 0x8 SLOAD PUSH1 0x40 DUP1 MLOAD PUSH1 0xC0 DUP2 ADD DUP3 MSTORE DUP3 DUP2 MSTORE PUSH1 0x20 DUP2 ADD DUP8 DUP2 MSTORE CALLER SWAP3 DUP3 ADD SWAP3 DUP4 MSTORE PUSH1 0x60 DUP3 ADD DUP8 DUP2 MSTORE TIMESTAMP PUSH1 0x80 DUP5 ADD SWAP1 DUP2 MSTORE PUSH1 0x0 PUSH1 0xA0 DUP6 ADD DUP2 DUP2 MSTORE PUSH1 0x3 DUP1 SLOAD PUSH1 0x1 DUP2 ADD DUP3 SSTORE SWAP3 MSTORE SWAP5 MLOAD PUSH32 0xC2575A0E9E593C00F959F8C92F12DB2869C3395A3B0502D05E2516446F71F85B PUSH1 0x6 SWAP1 SWAP3 MUL SWAP2 DUP3 ADD SSTORE SWAP3 MLOAD PUSH32 0xC2575A0E9E593C00F959F8C92F12DB2869C3395A3B0502D05E2516446F71F85C DUP5 ADD SSTORE SWAP4 MLOAD PUSH32 0xC2575A0E9E593C00F959F8C92F12DB2869C3395A3B0502D05E2516446F71F85D DUP4 ADD DUP1 SLOAD PUSH1 0x1 PUSH1 0x1 PUSH1 0xA0 SHL SUB NOT AND PUSH1 0x1 PUSH1 0x1 PUSH1 0xA0 SHL SUB SWAP1 SWAP3 AND SWAP2 SWAP1 SWAP2 OR SWAP1 SSTORE MLOAD PUSH32 0xC2575A0E9E593C00F959F8C92F12DB2869C3395A3B0502D05E2516446F71F85E DUP3 ADD SSTORE SWAP2 MLOAD PUSH32 0xC2575A0E9E593C00F959F8C92F12DB2869C3395A3B0502D05E2516446F71F85F DUP4 ADD SSTORE MLOAD PUSH32 0xC2575A0E9E593C00F959F8C92F12DB2869C3395A3B0502D05E2516446F71F860 SWAP1 SWAP2 ADD DUP1 SLOAD PUSH1 0xFF NOT AND SWAP2 ISZERO ISZERO SWAP2 SWAP1 SWAP2 OR SWAP1 SSTORE PUSH2 0x2E9C DUP2 PUSH2 0x150C JUMP JUMPDEST SWAP6 SWAP5 POP POP POP POP POP JUMP JUMPDEST PUSH1 0x0 DUP1 DUP1 JUMPDEST PUSH1 0x1 SLOAD DUP2 LT ISZERO PUSH2 0x1022 JUMPI PUSH1 0x0 PUSH1 0x1 DUP3 DUP2 SLOAD DUP2 LT PUSH2 0x2EC9 JUMPI PUSH2 0x2EC9 PUSH2 0x4575 JUMP JUMPDEST SWAP1 PUSH1 0x0 MSTORE PUSH1 0x20 PUSH1 0x0 KECCAK256 SWAP1 PUSH1 0xC MUL ADD PUSH1 0x40 MLOAD DUP1 PUSH2 0x1E0 ADD PUSH1 0x40 MSTORE SWAP1 DUP2 PUSH1 0x0 DUP3 ADD SLOAD DUP2 MSTORE PUSH1 0x20 ADD PUSH1 0x1 DUP3 ADD PUSH1 0x0 SWAP1 SLOAD SWAP1 PUSH2 0x100 EXP SWAP1 DIV PUSH1 0x1 PUSH1 0x1 PUSH1 0xA0 SHL SUB AND PUSH1 0x1 PUSH1 0x1 PUSH1 0xA0 SHL SUB AND PUSH1 0x1 PUSH1 0x1 PUSH1 0xA0 SHL SUB AND DUP2 MSTORE PUSH1 0x20 ADD PUSH1 0x2 DUP3 ADD DUP1 SLOAD PUSH2 0x2F2C SWAP1 PUSH2 0x450F JUMP JUMPDEST DUP1 PUSH1 0x1F ADD PUSH1 0x20 DUP1 SWAP2 DIV MUL PUSH1 0x20 ADD PUSH1 0x40 MLOAD SWAP1 DUP2 ADD PUSH1 0x40 MSTORE DUP1 SWAP3 SWAP2 SWAP1 DUP2 DUP2 MSTORE PUSH1 0x20 ADD DUP3 DUP1 SLOAD PUSH2 0x2F58 SWAP1 PUSH2 0x450F JUMP JUMPDEST DUP1 ISZERO PUSH2 0x2FA5 JUMPI DUP1 PUSH1 0x1F LT PUSH2 0x2F7A JUMPI PUSH2 0x100 DUP1 DUP4 SLOAD DIV MUL DUP4 MSTORE SWAP2 PUSH1 0x20 ADD SWAP2 PUSH2 0x2FA5 JUMP JUMPDEST DUP3 ADD SWAP2 SWAP1 PUSH1 0x0 MSTORE PUSH1 0x20 PUSH1 0x0 KECCAK256 SWAP1 JUMPDEST DUP2 SLOAD DUP2 MSTORE SWAP1 PUSH1 0x1 ADD SWAP1 PUSH1 0x20 ADD DUP1 DUP4 GT PUSH2 0x2F88 JUMPI DUP3 SWAP1 SUB PUSH1 0x1F AND DUP3 ADD SWAP2 JUMPDEST POP POP POP POP POP DUP2 MSTORE PUSH1 0x20 ADD PUSH1 0x3 DUP3 ADD DUP1 SLOAD PUSH2 0x2FBE SWAP1 PUSH2 0x450F JUMP JUMPDEST DUP1 PUSH1 0x1F ADD PUSH1 0x20 DUP1 SWAP2 DIV MUL PUSH1 0x20 ADD PUSH1 0x40 MLOAD SWAP1 DUP2 ADD PUSH1 0x40 MSTORE DUP1 SWAP3 SWAP2 SWAP1 DUP2 DUP2 MSTORE PUSH1 0x20 ADD DUP3 DUP1 SLOAD PUSH2 0x2FEA SWAP1 PUSH2 0x450F JUMP JUMPDEST DUP1 ISZERO PUSH2 0x3037 JUMPI DUP1 PUSH1 0x1F LT PUSH2 0x300C JUMPI PUSH2 0x100 DUP1 DUP4 SLOAD DIV MUL DUP4 MSTORE SWAP2 PUSH1 0x20 ADD SWAP2 PUSH2 0x3037 JUMP JUMPDEST DUP3 ADD SWAP2 SWAP1 PUSH1 0x0 MSTORE PUSH1 0x20 PUSH1 0x0 KECCAK256 SWAP1 JUMPDEST DUP2 SLOAD DUP2 MSTORE SWAP1 PUSH1 0x1 ADD SWAP1 PUSH1 0x20 ADD DUP1 DUP4 GT PUSH2 0x301A JUMPI DUP3 SWAP1 SUB PUSH1 0x1F AND DUP3 ADD SWAP2 JUMPDEST POP POP POP POP POP DUP2 MSTORE PUSH1 0x20 ADD PUSH1 0x4 DUP3 ADD DUP1 SLOAD PUSH2 0x3050 SWAP1 PUSH2 0x450F JUMP JUMPDEST DUP1 PUSH1 0x1F ADD PUSH1 0x20 DUP1 SWAP2 DIV MUL PUSH1 0x20 ADD PUSH1 0x40 MLOAD SWAP1 DUP2 ADD PUSH1 0x40 MSTORE DUP1 SWAP3 SWAP2 SWAP1 DUP2 DUP2 MSTORE PUSH1 0x20 ADD DUP3 DUP1 SLOAD PUSH2 0x307C SWAP1 PUSH2 0x450F JUMP JUMPDEST DUP1 ISZERO PUSH2 0x30C9 JUMPI DUP1 PUSH1 0x1F LT PUSH2 0x309E JUMPI PUSH2 0x100 DUP1 DUP4 SLOAD DIV MUL DUP4 MSTORE SWAP2 PUSH1 0x20 ADD SWAP2 PUSH2 0x30C9 JUMP JUMPDEST DUP3 ADD SWAP2 SWAP1 PUSH1 0x0 MSTORE PUSH1 0x20 PUSH1 0x0 KECCAK256 SWAP1 JUMPDEST DUP2 SLOAD DUP2 MSTORE SWAP1 PUSH1 0x1 ADD SWAP1 PUSH1 0x20 ADD DUP1 DUP4 GT PUSH2 0x30AC JUMPI DUP3 SWAP1 SUB PUSH1 0x1F AND DUP3 ADD SWAP2 JUMPDEST POP POP POP SWAP2 DUP4 MSTORE POP POP PUSH1 0x5 DUP3 ADD SLOAD PUSH1 0x20 DUP1 DUP4 ADD SWAP2 SWAP1 SWAP2 MSTORE PUSH1 0x6 DUP4 ADD SLOAD PUSH1 0x40 DUP4 ADD MSTORE PUSH1 0x7 DUP4 ADD SLOAD PUSH1 0x60 DUP4 ADD MSTORE PUSH1 0x8 DUP4 ADD SLOAD PUSH1 0x80 DUP4 ADD MSTORE PUSH1 0x9 DUP4 ADD SLOAD PUSH1 0xFF DUP1 DUP3 AND ISZERO ISZERO PUSH1 0xA0 DUP6 ADD MSTORE PUSH2 0x100 DUP1 DUP4 DIV DUP3 AND ISZERO ISZERO PUSH1 0xC0 DUP7 ADD MSTORE PUSH3 0x10000 SWAP1 SWAP3 DIV DUP2 AND ISZERO ISZERO PUSH1 0xE0 DUP6 ADD MSTORE PUSH1 0xA DUP6 ADD SLOAD DUP3 DUP6 ADD MSTORE PUSH1 0xB SWAP1 SWAP5 ADD SLOAD DUP1 DUP6 AND ISZERO ISZERO PUSH2 0x120 DUP6 ADD MSTORE DIV SWAP1 SWAP3 AND ISZERO ISZERO PUSH2 0x140 SWAP1 SWAP2 ADD MSTORE DUP2 ADD MLOAD SWAP1 SWAP2 POP PUSH1 0x1 PUSH1 0x1 PUSH1 0xA0 SHL SUB DUP7 DUP2 AND SWAP2 AND EQ ISZERO PUSH2 0x317B JUMPI DUP3 PUSH2 0x3177 DUP2 PUSH2 0x4544 JUMP JUMPDEST SWAP4 POP POP JUMPDEST POP DUP1 PUSH2 0x3186 DUP2 PUSH2 0x4544 JUMP JUMPDEST SWAP2 POP POP PUSH2 0x2EAA JUMP JUMPDEST PUSH2 0x3196 PUSH2 0x3CBE JUMP JUMPDEST PUSH1 0x0 JUMPDEST PUSH1 0x0 SLOAD DUP2 LT ISZERO PUSH2 0x28E2 JUMPI PUSH1 0x0 DUP1 DUP3 DUP2 SLOAD DUP2 LT PUSH2 0x31B7 JUMPI PUSH2 0x31B7 PUSH2 0x4575 JUMP JUMPDEST SWAP1 PUSH1 0x0 MSTORE PUSH1 0x20 PUSH1 0x0 KECCAK256 SWAP1 PUSH1 0x5 MUL ADD PUSH1 0x40 MLOAD DUP1 PUSH1 0xC0 ADD PUSH1 0x40 MSTORE SWAP1 DUP2 PUSH1 0x0 DUP3 ADD SLOAD DUP2 MSTORE PUSH1 0x20 ADD PUSH1 0x1 DUP3 ADD PUSH1 0x0 SWAP1 SLOAD SWAP1 PUSH2 0x100 EXP SWAP1 DIV PUSH1 0x1 PUSH1 0x1 PUSH1 0xA0 SHL SUB AND PUSH1 0x1 PUSH1 0x1 PUSH1 0xA0 SHL SUB AND PUSH1 0x1 PUSH1 0x1 PUSH1 0xA0 SHL SUB AND DUP2 MSTORE PUSH1 0x20 ADD PUSH1 0x2 DUP3 ADD DUP1 SLOAD PUSH2 0x3219 SWAP1 PUSH2 0x450F JUMP JUMPDEST DUP1 PUSH1 0x1F ADD PUSH1 0x20 DUP1 SWAP2 DIV MUL PUSH1 0x20 ADD PUSH1 0x40 MLOAD SWAP1 DUP2 ADD PUSH1 0x40 MSTORE DUP1 SWAP3 SWAP2 SWAP1 DUP2 DUP2 MSTORE PUSH1 0x20 ADD DUP3 DUP1 SLOAD PUSH2 0x3245 SWAP1 PUSH2 0x450F JUMP JUMPDEST DUP1 ISZERO PUSH2 0x3292 JUMPI DUP1 PUSH1 0x1F LT PUSH2 0x3267 JUMPI PUSH2 0x100 DUP1 DUP4 SLOAD DIV MUL DUP4 MSTORE SWAP2 PUSH1 0x20 ADD SWAP2 PUSH2 0x3292 JUMP JUMPDEST DUP3 ADD SWAP2 SWAP1 PUSH1 0x0 MSTORE PUSH1 0x20 PUSH1 0x0 KECCAK256 SWAP1 JUMPDEST DUP2 SLOAD DUP2 MSTORE SWAP1 PUSH1 0x1 ADD SWAP1 PUSH1 0x20 ADD DUP1 DUP4 GT PUSH2 0x3275 JUMPI DUP3 SWAP1 SUB PUSH1 0x1F AND DUP3 ADD SWAP2 JUMPDEST POP POP POP POP POP DUP2 MSTORE PUSH1 0x20 ADD PUSH1 0x3 DUP3 ADD DUP1 SLOAD PUSH2 0x32AB SWAP1 PUSH2 0x450F JUMP JUMPDEST DUP1 PUSH1 0x1F ADD PUSH1 0x20 DUP1 SWAP2 DIV MUL PUSH1 0x20 ADD PUSH1 0x40 MLOAD SWAP1 DUP2 ADD PUSH1 0x40 MSTORE DUP1 SWAP3 SWAP2 SWAP1 DUP2 DUP2 MSTORE PUSH1 0x20 ADD DUP3 DUP1 SLOAD PUSH2 0x32D7 SWAP1 PUSH2 0x450F JUMP JUMPDEST DUP1 ISZERO PUSH2 0x3324 JUMPI DUP1 PUSH1 0x1F LT PUSH2 0x32F9 JUMPI PUSH2 0x100 DUP1 DUP4 SLOAD DIV MUL DUP4 MSTORE SWAP2 PUSH1 0x20 ADD SWAP2 PUSH2 0x3324 JUMP JUMPDEST DUP3 ADD SWAP2 SWAP1 PUSH1 0x0 MSTORE PUSH1 0x20 PUSH1 0x0 KECCAK256 SWAP1 JUMPDEST DUP2 SLOAD DUP2 MSTORE SWAP1 PUSH1 0x1 ADD SWAP1 PUSH1 0x20 ADD DUP1 DUP4 GT PUSH2 0x3307 JUMPI DUP3 SWAP1 SUB PUSH1 0x1F AND DUP3 ADD SWAP2 JUMPDEST POP POP POP SWAP2 DUP4 MSTORE POP POP PUSH1 0x4 SWAP2 SWAP1 SWAP2 ADD SLOAD PUSH1 0xFF DUP1 DUP3 AND ISZERO ISZERO PUSH1 0x20 DUP5 ADD MSTORE PUSH2 0x100 SWAP1 SWAP2 DIV AND ISZERO ISZERO PUSH1 0x40 SWAP1 SWAP2 ADD MSTORE DUP1 MLOAD SWAP1 SWAP2 POP DUP5 EQ ISZERO PUSH2 0x3361 JUMPI SWAP4 SWAP3 POP POP POP JUMP JUMPDEST POP DUP1 PUSH2 0x336C DUP2 PUSH2 0x4544 JUMP JUMPDEST SWAP2 POP POP PUSH2 0x3199 JUMP JUMPDEST PUSH1 0x0 DUP1 DUP1 JUMPDEST PUSH1 0x1 SLOAD DUP2 LT ISZERO PUSH2 0x8EF JUMPI PUSH1 0x0 PUSH1 0x1 DUP3 DUP2 SLOAD DUP2 LT PUSH2 0x3398 JUMPI PUSH2 0x3398 PUSH2 0x4575 JUMP JUMPDEST SWAP1 PUSH1 0x0 MSTORE PUSH1 0x20 PUSH1 0x0 KECCAK256 SWAP1 PUSH1 0xC MUL ADD PUSH1 0x40 MLOAD DUP1 PUSH2 0x1E0 ADD PUSH1 0x40 MSTORE SWAP1 DUP2 PUSH1 0x0 DUP3 ADD SLOAD DUP2 MSTORE PUSH1 0x20 ADD PUSH1 0x1 DUP3 ADD PUSH1 0x0 SWAP1 SLOAD SWAP1 PUSH2 0x100 EXP SWAP1 DIV PUSH1 0x1 PUSH1 0x1 PUSH1 0xA0 SHL SUB AND PUSH1 0x1 PUSH1 0x1 PUSH1 0xA0 SHL SUB AND PUSH1 0x1 PUSH1 0x1 PUSH1 0xA0 SHL SUB AND DUP2 MSTORE PUSH1 0x20 ADD PUSH1 0x2 DUP3 ADD DUP1 SLOAD PUSH2 0x33FB SWAP1 PUSH2 0x450F JUMP JUMPDEST DUP1 PUSH1 0x1F ADD PUSH1 0x20 DUP1 SWAP2 DIV MUL PUSH1 0x20 ADD PUSH1 0x40 MLOAD SWAP1 DUP2 ADD PUSH1 0x40 MSTORE DUP1 SWAP3 SWAP2 SWAP1 DUP2 DUP2 MSTORE PUSH1 0x20 ADD DUP3 DUP1 SLOAD PUSH2 0x3427 SWAP1 PUSH2 0x450F JUMP JUMPDEST DUP1 ISZERO PUSH2 0x3474 JUMPI DUP1 PUSH1 0x1F LT PUSH2 0x3449 JUMPI PUSH2 0x100 DUP1 DUP4 SLOAD DIV MUL DUP4 MSTORE SWAP2 PUSH1 0x20 ADD SWAP2 PUSH2 0x3474 JUMP JUMPDEST DUP3 ADD SWAP2 SWAP1 PUSH1 0x0 MSTORE PUSH1 0x20 PUSH1 0x0 KECCAK256 SWAP1 JUMPDEST DUP2 SLOAD DUP2 MSTORE SWAP1 PUSH1 0x1 ADD SWAP1 PUSH1 0x20 ADD DUP1 DUP4 GT PUSH2 0x3457 JUMPI DUP3 SWAP1 SUB PUSH1 0x1F AND DUP3 ADD SWAP2 JUMPDEST POP POP POP POP POP DUP2 MSTORE PUSH1 0x20 ADD PUSH1 0x3 DUP3 ADD DUP1 SLOAD PUSH2 0x348D SWAP1 PUSH2 0x450F JUMP JUMPDEST DUP1 PUSH1 0x1F ADD PUSH1 0x20 DUP1 SWAP2 DIV MUL PUSH1 0x20 ADD PUSH1 0x40 MLOAD SWAP1 DUP2 ADD PUSH1 0x40 MSTORE DUP1 SWAP3 SWAP2 SWAP1 DUP2 DUP2 MSTORE PUSH1 0x20 ADD DUP3 DUP1 SLOAD PUSH2 0x34B9 SWAP1 PUSH2 0x450F JUMP JUMPDEST DUP1 ISZERO PUSH2 0x3506 JUMPI DUP1 PUSH1 0x1F LT PUSH2 0x34DB JUMPI PUSH2 0x100 DUP1 DUP4 SLOAD DIV MUL DUP4 MSTORE SWAP2 PUSH1 0x20 ADD SWAP2 PUSH2 0x3506 JUMP JUMPDEST DUP3 ADD SWAP2 SWAP1 PUSH1 0x0 MSTORE PUSH1 0x20 PUSH1 0x0 KECCAK256 SWAP1 JUMPDEST DUP2 SLOAD DUP2 MSTORE SWAP1 PUSH1 0x1 ADD SWAP1 PUSH1 0x20 ADD DUP1 DUP4 GT PUSH2 0x34E9 JUMPI DUP3 SWAP1 SUB PUSH1 0x1F AND DUP3 ADD SWAP2 JUMPDEST POP POP POP POP POP DUP2 MSTORE PUSH1 0x20 ADD PUSH1 0x4 DUP3 ADD DUP1 SLOAD PUSH2 0x351F SWAP1 PUSH2 0x450F JUMP JUMPDEST DUP1 PUSH1 0x1F ADD PUSH1 0x20 DUP1 SWAP2 DIV MUL PUSH1 0x20 ADD PUSH1 0x40 MLOAD SWAP1 DUP2 ADD PUSH1 0x40 MSTORE DUP1 SWAP3 SWAP2 SWAP1 DUP2 DUP2 MSTORE PUSH1 0x20 ADD DUP3 DUP1 SLOAD PUSH2 0x354B SWAP1 PUSH2 0x450F JUMP JUMPDEST DUP1 ISZERO PUSH2 0x3598 JUMPI DUP1 PUSH1 0x1F LT PUSH2 0x356D JUMPI PUSH2 0x100 DUP1 DUP4 SLOAD DIV MUL DUP4 MSTORE SWAP2 PUSH1 0x20 ADD SWAP2 PUSH2 0x3598 JUMP JUMPDEST DUP3 ADD SWAP2 SWAP1 PUSH1 0x0 MSTORE PUSH1 0x20 PUSH1 0x0 KECCAK256 SWAP1 JUMPDEST DUP2 SLOAD DUP2 MSTORE SWAP1 PUSH1 0x1 ADD SWAP1 PUSH1 0x20 ADD DUP1 DUP4 GT PUSH2 0x357B JUMPI DUP3 SWAP1 SUB PUSH1 0x1F AND DUP3 ADD SWAP2 JUMPDEST POP POP POP SWAP2 DUP4 MSTORE POP POP PUSH1 0x5 DUP3 ADD SLOAD PUSH1 0x20 DUP3 ADD MSTORE PUSH1 0x6 DUP3 ADD SLOAD PUSH1 0x40 DUP3 ADD MSTORE PUSH1 0x7 DUP3 ADD SLOAD PUSH1 0x60 DUP3 ADD MSTORE PUSH1 0x8 DUP3 ADD SLOAD PUSH1 0x80 DUP3 ADD MSTORE PUSH1 0x9 DUP3 ADD SLOAD PUSH1 0xFF DUP1 DUP3 AND ISZERO ISZERO PUSH1 0xA0 DUP5 ADD MSTORE PUSH2 0x100 DUP1 DUP4 DIV DUP3 AND ISZERO ISZERO PUSH1 0xC0 DUP6 ADD MSTORE PUSH3 0x10000 SWAP1 SWAP3 DIV DUP2 AND ISZERO ISZERO PUSH1 0xE0 DUP5 ADD MSTORE PUSH1 0xA DUP5 ADD SLOAD DUP3 DUP5 ADD MSTORE PUSH1 0xB SWAP1 SWAP4 ADD SLOAD DUP1 DUP5 AND ISZERO ISZERO PUSH2 0x120 DUP5 ADD MSTORE DIV SWAP1 SWAP2 AND ISZERO ISZERO PUSH2 0x140 SWAP2 DUP3 ADD MSTORE DUP2 ADD MLOAD SWAP1 SWAP2 POP ISZERO PUSH2 0x3638 JUMPI DUP3 PUSH2 0x3634 DUP2 PUSH2 0x4544 JUMP JUMPDEST SWAP4 POP POP JUMPDEST POP DUP1 PUSH2 0x3643 DUP2 PUSH2 0x4544 JUMP JUMPDEST SWAP2 POP POP PUSH2 0x3379 JUMP JUMPDEST PUSH2 0x3653 PUSH2 0x3BB1 JUMP JUMPDEST PUSH1 0x0 PUSH2 0x365E DUP4 PUSH2 0x2A21 JUMP JUMPDEST PUSH1 0x1 PUSH2 0x140 DUP3 ADD DUP2 SWAP1 MSTORE DUP1 SLOAD SWAP2 SWAP3 POP DUP3 SWAP2 DUP6 SWAP1 DUP2 LT PUSH2 0x367F JUMPI PUSH2 0x367F PUSH2 0x4575 JUMP JUMPDEST PUSH1 0x0 SWAP2 DUP3 MSTORE PUSH1 0x20 SWAP2 DUP3 SWAP1 KECCAK256 DUP4 MLOAD PUSH1 0xC SWAP3 SWAP1 SWAP3 MUL ADD SWAP1 DUP2 SSTORE DUP3 DUP3 ADD MLOAD PUSH1 0x1 DUP3 ADD DUP1 SLOAD PUSH1 0x1 PUSH1 0x1 PUSH1 0xA0 SHL SUB NOT AND PUSH1 0x1 PUSH1 0x1 PUSH1 0xA0 SHL SUB SWAP1 SWAP3 AND SWAP2 SWAP1 SWAP2 OR SWAP1 SSTORE PUSH1 0x40 DUP4 ADD MLOAD DUP1 MLOAD SWAP2 SWAP3 PUSH2 0x36D6 SWAP3 PUSH1 0x2 DUP6 ADD SWAP3 SWAP1 SWAP2 ADD SWAP1 PUSH2 0x3C3A JUMP JUMPDEST POP PUSH1 0x60 DUP3 ADD MLOAD DUP1 MLOAD PUSH2 0x36F2 SWAP2 PUSH1 0x3 DUP5 ADD SWAP2 PUSH1 0x20 SWAP1 SWAP2 ADD SWAP1 PUSH2 0x3C3A JUMP JUMPDEST POP PUSH1 0x80 DUP3 ADD MLOAD DUP1 MLOAD PUSH2 0x370E SWAP2 PUSH1 0x4 DUP5 ADD SWAP2 PUSH1 0x20 SWAP1 SWAP2 ADD SWAP1 PUSH2 0x3C3A JUMP JUMPDEST POP PUSH1 0xA0 DUP3 ADD MLOAD PUSH1 0x5 DUP3 ADD SSTORE PUSH1 0xC0 DUP3 ADD MLOAD PUSH1 0x6 DUP3 ADD SSTORE PUSH1 0xE0 DUP3 ADD MLOAD PUSH1 0x7 DUP3 ADD SSTORE PUSH2 0x100 DUP1 DUP4 ADD MLOAD PUSH1 0x8 DUP4 ADD SSTORE PUSH2 0x120 DUP4 ADD MLOAD PUSH1 0x9 DUP4 ADD DUP1 SLOAD PUSH2 0x140 DUP7 ADD MLOAD PUSH2 0x160 DUP8 ADD MLOAD ISZERO ISZERO PUSH3 0x10000 MUL PUSH3 0xFF0000 NOT SWAP2 ISZERO ISZERO DUP7 MUL PUSH2 0xFF00 NOT SWAP6 ISZERO ISZERO DUP7 AND PUSH2 0xFFFF NOT SWAP5 DUP6 AND OR OR SWAP2 SWAP1 SWAP2 AND OR SWAP1 SWAP2 SSTORE PUSH2 0x180 DUP6 ADD MLOAD PUSH1 0xA DUP6 ADD SSTORE PUSH2 0x1A0 DUP6 ADD MLOAD PUSH1 0xB SWAP1 SWAP5 ADD DUP1 SLOAD PUSH2 0x1C0 SWAP1 SWAP7 ADD MLOAD ISZERO ISZERO SWAP1 SWAP4 MUL SWAP4 ISZERO ISZERO SWAP1 SWAP2 AND SWAP4 AND SWAP3 SWAP1 SWAP3 OR OR SWAP1 SSTORE SWAP3 SWAP2 POP POP JUMP JUMPDEST PUSH1 0x0 DUP1 PUSH1 0x9 PUSH1 0x0 SWAP1 SLOAD SWAP1 PUSH2 0x100 EXP SWAP1 DIV PUSH1 0x1 PUSH1 0x1 PUSH1 0xA0 SHL SUB AND PUSH1 0x1 PUSH1 0x1 PUSH1 0xA0 SHL SUB AND PUSH4 0x313CE567 PUSH1 0x40 MLOAD DUP2 PUSH4 0xFFFFFFFF AND PUSH1 0xE0 SHL DUP2 MSTORE PUSH1 0x4 ADD PUSH1 0x20 PUSH1 0x40 MLOAD DUP1 DUP4 SUB DUP2 DUP7 DUP1 EXTCODESIZE ISZERO DUP1 ISZERO PUSH2 0x3806 JUMPI PUSH1 0x0 DUP1 REVERT JUMPDEST POP GAS STATICCALL ISZERO DUP1 ISZERO PUSH2 0x381A JUMPI RETURNDATASIZE PUSH1 0x0 DUP1 RETURNDATACOPY RETURNDATASIZE PUSH1 0x0 REVERT JUMPDEST POP POP POP POP PUSH1 0x40 MLOAD RETURNDATASIZE PUSH1 0x1F NOT PUSH1 0x1F DUP3 ADD AND DUP3 ADD DUP1 PUSH1 0x40 MSTORE POP DUP2 ADD SWAP1 PUSH2 0x383E SWAP2 SWAP1 PUSH2 0x401D JUMP JUMPDEST PUSH2 0x3849 SWAP1 PUSH1 0xA PUSH2 0x4445 JUMP JUMPDEST PUSH2 0x3853 SWAP1 DUP5 PUSH2 0x44F0 JUMP JUMPDEST PUSH1 0x9 SLOAD PUSH1 0x40 MLOAD PUSH4 0x39509351 PUSH1 0xE0 SHL DUP2 MSTORE ADDRESS PUSH1 0x4 DUP3 ADD MSTORE PUSH1 0x24 DUP2 ADD DUP4 SWAP1 MSTORE SWAP2 SWAP3 POP PUSH1 0x1 PUSH1 0x1 PUSH1 0xA0 SHL SUB AND SWAP1 PUSH4 0x39509351 SWAP1 PUSH1 0x44 ADD PUSH2 0x18F7 JUMP JUMPDEST PUSH2 0x3893 PUSH2 0x3BB1 JUMP JUMPDEST PUSH1 0x0 PUSH2 0x389E DUP4 PUSH2 0x2A21 JUMP JUMPDEST SWAP1 POP PUSH1 0x0 PUSH1 0xA DUP3 PUSH1 0xA0 ADD MLOAD PUSH1 0x1 PUSH2 0x38B5 SWAP2 SWAP1 PUSH2 0x44F0 JUMP JUMPDEST PUSH2 0x38BF SWAP2 SWAP1 PUSH2 0x43E0 JUMP JUMPDEST TIMESTAMP PUSH1 0xE0 DUP5 ADD MSTORE PUSH1 0x1 PUSH2 0x160 DUP5 ADD DUP2 SWAP1 MSTORE PUSH2 0x180 DUP5 ADD DUP3 SWAP1 MSTORE DUP1 SLOAD SWAP2 SWAP3 POP DUP4 SWAP2 DUP7 SWAP1 DUP2 LT PUSH2 0x38EE JUMPI PUSH2 0x38EE PUSH2 0x4575 JUMP JUMPDEST PUSH1 0x0 SWAP2 DUP3 MSTORE PUSH1 0x20 SWAP2 DUP3 SWAP1 KECCAK256 DUP4 MLOAD PUSH1 0xC SWAP3 SWAP1 SWAP3 MUL ADD SWAP1 DUP2 SSTORE DUP3 DUP3 ADD MLOAD PUSH1 0x1 DUP3 ADD DUP1 SLOAD PUSH1 0x1 PUSH1 0x1 PUSH1 0xA0 SHL SUB NOT AND PUSH1 0x1 PUSH1 0x1 PUSH1 0xA0 SHL SUB SWAP1 SWAP3 AND SWAP2 SWAP1 SWAP2 OR SWAP1 SSTORE PUSH1 0x40 DUP4 ADD MLOAD DUP1 MLOAD SWAP2 SWAP3 PUSH2 0x3945 SWAP3 PUSH1 0x2 DUP6 ADD SWAP3 SWAP1 SWAP2 ADD SWAP1 PUSH2 0x3C3A JUMP JUMPDEST POP PUSH1 0x60 DUP3 ADD MLOAD DUP1 MLOAD PUSH2 0x3961 SWAP2 PUSH1 0x3 DUP5 ADD SWAP2 PUSH1 0x20 SWAP1 SWAP2 ADD SWAP1 PUSH2 0x3C3A JUMP JUMPDEST POP PUSH1 0x80 DUP3 ADD MLOAD DUP1 MLOAD PUSH2 0x397D SWAP2 PUSH1 0x4 DUP5 ADD SWAP2 PUSH1 0x20 SWAP1 SWAP2 ADD SWAP1 PUSH2 0x3C3A JUMP JUMPDEST POP PUSH1 0xA0 DUP3 ADD MLOAD PUSH1 0x5 DUP3 ADD SSTORE PUSH1 0xC0 DUP3 ADD MLOAD PUSH1 0x6 DUP3 ADD SSTORE PUSH1 0xE0 DUP3 ADD MLOAD PUSH1 0x7 DUP3 ADD SSTORE PUSH2 0x100 DUP1 DUP4 ADD MLOAD PUSH1 0x8 DUP4 ADD SSTORE PUSH2 0x120 DUP4 ADD MLOAD PUSH1 0x9 DUP4 ADD DUP1 SLOAD PUSH2 0x140 DUP7 ADD MLOAD PUSH2 0x160 DUP8 ADD MLOAD ISZERO ISZERO PUSH3 0x10000 MUL PUSH3 0xFF0000 NOT SWAP2 ISZERO ISZERO DUP7 MUL PUSH2 0xFF00 NOT SWAP6 ISZERO ISZERO DUP7 AND PUSH2 0xFFFF NOT SWAP5 DUP6 AND OR OR SWAP2 SWAP1 SWAP2 AND OR SWAP1 SWAP2 SSTORE PUSH2 0x180 DUP6 ADD MLOAD PUSH1 0xA DUP6 ADD SSTORE PUSH2 0x1A0 DUP6 ADD MLOAD PUSH1 0xB SWAP1 SWAP5 ADD DUP1 SLOAD PUSH2 0x1C0 SWAP1 SWAP7 ADD MLOAD ISZERO ISZERO SWAP1 SWAP4 MUL SWAP4 ISZERO ISZERO SWAP1 SWAP2 AND SWAP4 AND SWAP3 SWAP1 SWAP3 OR OR SWAP1 SSTORE POP SWAP3 SWAP2 POP POP JUMP JUMPDEST PUSH1 0x0 DUP1 DUP1 PUSH2 0x3A32 DUP5 PUSH2 0x6E8 JUMP JUMPDEST SWAP1 POP PUSH1 0x0 JUMPDEST DUP2 MLOAD DUP2 LT ISZERO PUSH2 0x3A84 JUMPI PUSH1 0x0 DUP3 DUP3 DUP2 MLOAD DUP2 LT PUSH2 0x3A54 JUMPI PUSH2 0x3A54 PUSH2 0x4575 JUMP JUMPDEST PUSH1 0x20 MUL PUSH1 0x20 ADD ADD MLOAD SWAP1 POP DUP1 PUSH1 0x60 ADD MLOAD DUP5 PUSH2 0x3A6E SWAP2 SWAP1 PUSH2 0x43C8 JUMP JUMPDEST SWAP4 POP POP DUP1 DUP1 PUSH2 0x3A7C SWAP1 PUSH2 0x4544 JUMP JUMPDEST SWAP2 POP POP PUSH2 0x3A37 JUMP JUMPDEST POP SWAP1 SWAP4 SWAP3 POP POP POP JUMP JUMPDEST PUSH1 0x9 SLOAD PUSH1 0x40 MLOAD PUSH4 0xA9059CBB PUSH1 0xE0 SHL DUP2 MSTORE ADDRESS PUSH1 0x4 DUP3 ADD MSTORE PUSH1 0x24 DUP2 ADD DUP4 SWAP1 MSTORE PUSH1 0x0 SWAP2 PUSH1 0x1 PUSH1 0x1 PUSH1 0xA0 SHL SUB AND SWAP1 PUSH4 0xA9059CBB SWAP1 PUSH1 0x44 ADD PUSH1 0x20 PUSH1 0x40 MLOAD DUP1 DUP4 SUB DUP2 PUSH1 0x0 DUP8 DUP1 EXTCODESIZE ISZERO DUP1 ISZERO PUSH2 0x3ADA JUMPI PUSH1 0x0 DUP1 REVERT JUMPDEST POP GAS CALL ISZERO DUP1 ISZERO PUSH2 0x3AEE JUMPI RETURNDATASIZE PUSH1 0x0 DUP1 RETURNDATACOPY RETURNDATASIZE PUSH1 0x0 REVERT JUMPDEST POP POP POP POP PUSH1 0x40 MLOAD RETURNDATASIZE PUSH1 0x1F NOT PUSH1 0x1F DUP3 ADD AND DUP3 ADD DUP1 PUSH1 0x40 MSTORE POP DUP2 ADD SWAP1 PUSH2 0x5BC SWAP2 SWAP1 PUSH2 0x3F4B JUMP JUMPDEST PUSH1 0x0 DUP1 PUSH2 0x3B1E DUP4 PUSH2 0x5C2 JUMP JUMPDEST SWAP1 POP PUSH1 0x0 JUMPDEST DUP2 MLOAD DUP2 LT ISZERO PUSH2 0x3B75 JUMPI PUSH1 0x0 DUP3 DUP3 DUP2 MLOAD DUP2 LT PUSH2 0x3B40 JUMPI PUSH2 0x3B40 PUSH2 0x4575 JUMP JUMPDEST PUSH1 0x20 MUL PUSH1 0x20 ADD ADD MLOAD SWAP1 POP DUP6 DUP2 PUSH1 0x20 ADD MLOAD EQ ISZERO PUSH2 0x3B62 JUMPI PUSH1 0x1 SWAP4 POP POP POP POP PUSH2 0x5BC JUMP JUMPDEST POP DUP1 PUSH2 0x3B6D DUP2 PUSH2 0x4544 JUMP JUMPDEST SWAP2 POP POP PUSH2 0x3B23 JUMP JUMPDEST POP PUSH1 0x0 SWAP5 SWAP4 POP POP POP POP JUMP JUMPDEST PUSH1 0x40 MLOAD DUP1 PUSH1 0x80 ADD PUSH1 0x40 MSTORE DUP1 PUSH1 0x0 DUP2 MSTORE PUSH1 0x20 ADD PUSH1 0x0 DUP2 MSTORE PUSH1 0x20 ADD PUSH1 0x0 PUSH1 0x1 PUSH1 0x1 PUSH1 0xA0 SHL SUB AND DUP2 MSTORE PUSH1 0x20 ADD PUSH1 0x0 DUP2 MSTORE POP SWAP1 JUMP JUMPDEST PUSH1 0x40 MLOAD DUP1 PUSH2 0x1E0 ADD PUSH1 0x40 MSTORE DUP1 PUSH1 0x0 DUP2 MSTORE PUSH1 0x20 ADD PUSH1 0x0 PUSH1 0x1 PUSH1 0x1 PUSH1 0xA0 SHL SUB AND DUP2 MSTORE PUSH1 0x20 ADD PUSH1 0x60 DUP2 MSTORE PUSH1 0x20 ADD PUSH1 0x60 DUP2 MSTORE PUSH1 0x20 ADD PUSH1 0x60 DUP2 MSTORE PUSH1 0x20 ADD PUSH1 0x0 DUP2 MSTORE PUSH1 0x20 ADD PUSH1 0x0 DUP2 MSTORE PUSH1 0x20 ADD PUSH1 0x0 DUP2 MSTORE PUSH1 0x20 ADD PUSH1 0x0 DUP2 MSTORE PUSH1 0x20 ADD PUSH1 0x0 ISZERO ISZERO DUP2 MSTORE PUSH1 0x20 ADD PUSH1 0x0 ISZERO ISZERO DUP2 MSTORE PUSH1 0x20 ADD PUSH1 0x0 ISZERO ISZERO DUP2 MSTORE PUSH1 0x20 ADD PUSH1 0x0 DUP2 MSTORE PUSH1 0x20 ADD PUSH1 0x0 ISZERO ISZERO DUP2 MSTORE PUSH1 0x20 ADD PUSH1 0x0 ISZERO ISZERO DUP2 MSTORE POP SWAP1 JUMP JUMPDEST DUP3 DUP1 SLOAD PUSH2 0x3C46 SWAP1 PUSH2 0x450F JUMP JUMPDEST SWAP1 PUSH1 0x0 MSTORE PUSH1 0x20 PUSH1 0x0 KECCAK256 SWAP1 PUSH1 0x1F ADD PUSH1 0x20 SWAP1 DIV DUP2 ADD SWAP3 DUP3 PUSH2 0x3C68 JUMPI PUSH1 0x0 DUP6 SSTORE PUSH2 0x3CAE JUMP JUMPDEST DUP3 PUSH1 0x1F LT PUSH2 0x3C81 JUMPI DUP1 MLOAD PUSH1 0xFF NOT AND DUP4 DUP1 ADD OR DUP6 SSTORE PUSH2 0x3CAE JUMP JUMPDEST DUP3 DUP1 ADD PUSH1 0x1 ADD DUP6 SSTORE DUP3 ISZERO PUSH2 0x3CAE JUMPI SWAP2 DUP3 ADD JUMPDEST DUP3 DUP2 GT ISZERO PUSH2 0x3CAE JUMPI DUP3 MLOAD DUP3 SSTORE SWAP2 PUSH1 0x20 ADD SWAP2 SWAP1 PUSH1 0x1 ADD SWAP1 PUSH2 0x3C93 JUMP JUMPDEST POP PUSH2 0x3CBA SWAP3 SWAP2 POP PUSH2 0x3D42 JUMP JUMPDEST POP SWAP1 JUMP JUMPDEST PUSH1 0x40 MLOAD DUP1 PUSH1 0xC0 ADD PUSH1 0x40 MSTORE DUP1 PUSH1 0x0 DUP2 MSTORE PUSH1 0x20 ADD PUSH1 0x0 PUSH1 0x1 PUSH1 0x1 PUSH1 0xA0 SHL SUB AND DUP2 MSTORE PUSH1 0x20 ADD PUSH1 0x60 DUP2 MSTORE PUSH1 0x20 ADD PUSH1 0x60 DUP2 MSTORE PUSH1 0x20 ADD PUSH1 0x0 ISZERO ISZERO DUP2 MSTORE PUSH1 0x20 ADD PUSH1 0x0 ISZERO ISZERO DUP2 MSTORE POP SWAP1 JUMP JUMPDEST PUSH1 0x40 MLOAD DUP1 PUSH1 0xC0 ADD PUSH1 0x40 MSTORE DUP1 PUSH1 0x0 DUP2 MSTORE PUSH1 0x20 ADD PUSH1 0x0 DUP2 MSTORE PUSH1 0x20 ADD PUSH1 0x0 PUSH1 0x1 PUSH1 0x1 PUSH1 0xA0 SHL SUB AND DUP2 MSTORE PUSH1 0x20 ADD PUSH1 0x0 DUP2 MSTORE PUSH1 0x20 ADD PUSH1 0x0 DUP2 MSTORE PUSH1 0x20 ADD PUSH1 0x0 ISZERO ISZERO DUP2 MSTORE POP SWAP1 JUMP JUMPDEST JUMPDEST DUP1 DUP3 GT ISZERO PUSH2 0x3CBA JUMPI PUSH1 0x0 DUP2 SSTORE PUSH1 0x1 ADD PUSH2 0x3D43 JUMP JUMPDEST DUP1 CALLDATALOAD PUSH1 0x1 PUSH1 0x1 PUSH1 0xA0 SHL SUB DUP2 AND DUP2 EQ PUSH2 0x1788 JUMPI PUSH1 0x0 DUP1 REVERT JUMPDEST PUSH1 0x0 DUP3 PUSH1 0x1F DUP4 ADD SLT PUSH2 0x3D7F JUMPI PUSH1 0x0 DUP1 REVERT JUMPDEST DUP2 CALLDATALOAD PUSH8 0xFFFFFFFFFFFFFFFF DUP1 DUP3 GT ISZERO PUSH2 0x3D9A JUMPI PUSH2 0x3D9A PUSH2 0x458B JUMP JUMPDEST PUSH1 0x40 MLOAD PUSH1 0x1F DUP4 ADD PUSH1 0x1F NOT SWAP1 DUP2 AND PUSH1 0x3F ADD AND DUP2 ADD SWAP1 DUP3 DUP3 GT DUP2 DUP4 LT OR ISZERO PUSH2 0x3DC2 JUMPI PUSH2 0x3DC2 PUSH2 0x458B JUMP JUMPDEST DUP2 PUSH1 0x40 MSTORE DUP4 DUP2 MSTORE DUP7 PUSH1 0x20 DUP6 DUP9 ADD ADD GT ISZERO PUSH2 0x3DDB JUMPI PUSH1 0x0 DUP1 REVERT JUMPDEST DUP4 PUSH1 0x20 DUP8 ADD PUSH1 0x20 DUP4 ADD CALLDATACOPY PUSH1 0x0 PUSH1 0x20 DUP6 DUP4 ADD ADD MSTORE DUP1 SWAP5 POP POP POP POP POP SWAP3 SWAP2 POP POP JUMP JUMPDEST PUSH1 0x0 PUSH1 0x20 DUP3 DUP5 SUB SLT ISZERO PUSH2 0x3E0D JUMPI PUSH1 0x0 DUP1 REVERT JUMPDEST PUSH2 0xC57 DUP3 PUSH2 0x3D57 JUMP JUMPDEST PUSH1 0x0 DUP1 PUSH1 0x0 PUSH1 0x60 DUP5 DUP7 SUB SLT ISZERO PUSH2 0x3E2B JUMPI PUSH1 0x0 DUP1 REVERT JUMPDEST PUSH2 0x3E34 DUP5 PUSH2 0x3D57 JUMP JUMPDEST SWAP3 POP PUSH1 0x20 DUP5 ADD CALLDATALOAD PUSH8 0xFFFFFFFFFFFFFFFF DUP1 DUP3 GT ISZERO PUSH2 0x3E51 JUMPI PUSH1 0x0 DUP1 REVERT JUMPDEST PUSH2 0x3E5D DUP8 DUP4 DUP9 ADD PUSH2 0x3D6E JUMP JUMPDEST SWAP4 POP PUSH1 0x40 DUP7 ADD CALLDATALOAD SWAP2 POP DUP1 DUP3 GT ISZERO PUSH2 0x3E73 JUMPI PUSH1 0x0 DUP1 REVERT JUMPDEST POP PUSH2 0x3E80 DUP7 DUP3 DUP8 ADD PUSH2 0x3D6E JUMP JUMPDEST SWAP2 POP POP SWAP3 POP SWAP3 POP SWAP3 JUMP JUMPDEST PUSH1 0x0 DUP1 PUSH1 0x0 DUP1 PUSH1 0x0 DUP1 PUSH1 0x0 PUSH1 0xE0 DUP9 DUP11 SUB SLT ISZERO PUSH2 0x3EA5 JUMPI PUSH1 0x0 DUP1 REVERT JUMPDEST PUSH2 0x3EAE DUP9 PUSH2 0x3D57 JUMP JUMPDEST SWAP7 POP PUSH1 0x20 DUP9 ADD CALLDATALOAD PUSH8 0xFFFFFFFFFFFFFFFF DUP1 DUP3 GT ISZERO PUSH2 0x3ECB JUMPI PUSH1 0x0 DUP1 REVERT JUMPDEST PUSH2 0x3ED7 DUP12 DUP4 DUP13 ADD PUSH2 0x3D6E JUMP JUMPDEST SWAP8 POP PUSH1 0x40 DUP11 ADD CALLDATALOAD SWAP2 POP DUP1 DUP3 GT ISZERO PUSH2 0x3EED JUMPI PUSH1 0x0 DUP1 REVERT JUMPDEST PUSH2 0x3EF9 DUP12 DUP4 DUP13 ADD PUSH2 0x3D6E JUMP JUMPDEST SWAP7 POP PUSH1 0x60 DUP11 ADD CALLDATALOAD SWAP2 POP DUP1 DUP3 GT ISZERO PUSH2 0x3F0F JUMPI PUSH1 0x0 DUP1 REVERT JUMPDEST POP PUSH2 0x3F1C DUP11 DUP3 DUP12 ADD PUSH2 0x3D6E JUMP JUMPDEST SWAP5 POP POP PUSH1 0x80 DUP9 ADD CALLDATALOAD SWAP3 POP PUSH1 0xA0 DUP9 ADD CALLDATALOAD SWAP2 POP PUSH1 0xC0 DUP9 ADD CALLDATALOAD PUSH2 0x3F3B DUP2 PUSH2 0x45A1 JUMP JUMPDEST DUP1 SWAP2 POP POP SWAP3 SWAP6 SWAP9 SWAP2 SWAP5 SWAP8 POP SWAP3 SWAP6 POP JUMP JUMPDEST PUSH1 0x0 PUSH1 0x20 DUP3 DUP5 SUB SLT ISZERO PUSH2 0x3F5D JUMPI PUSH1 0x0 DUP1 REVERT JUMPDEST DUP2 MLOAD PUSH2 0xC57 DUP2 PUSH2 0x45A1 JUMP JUMPDEST PUSH1 0x0 PUSH1 0x20 DUP3 DUP5 SUB SLT ISZERO PUSH2 0x3F7A JUMPI PUSH1 0x0 DUP1 REVERT JUMPDEST POP CALLDATALOAD SWAP2 SWAP1 POP JUMP JUMPDEST PUSH1 0x0 PUSH1 0x20 DUP3 DUP5 SUB SLT ISZERO PUSH2 0x3F93 JUMPI PUSH1 0x0 DUP1 REVERT JUMPDEST POP MLOAD SWAP2 SWAP1 POP JUMP JUMPDEST PUSH1 0x0 DUP1 PUSH1 0x40 DUP4 DUP6 SUB SLT ISZERO PUSH2 0x3FAD JUMPI PUSH1 0x0 DUP1 REVERT JUMPDEST DUP3 CALLDATALOAD SWAP2 POP PUSH2 0x3FBD PUSH1 0x20 DUP5 ADD PUSH2 0x3D57 JUMP JUMPDEST SWAP1 POP SWAP3 POP SWAP3 SWAP1 POP JUMP JUMPDEST PUSH1 0x0 DUP1 PUSH1 0x0 PUSH1 0x60 DUP5 DUP7 SUB SLT ISZERO PUSH2 0x3FDB JUMPI PUSH1 0x0 DUP1 REVERT JUMPDEST DUP4 CALLDATALOAD SWAP3 POP PUSH2 0x3FEB PUSH1 0x20 DUP6 ADD PUSH2 0x3D57 JUMP JUMPDEST SWAP2 POP PUSH1 0x40 DUP5 ADD CALLDATALOAD SWAP1 POP SWAP3 POP SWAP3 POP SWAP3 JUMP JUMPDEST PUSH1 0x0 DUP1 PUSH1 0x40 DUP4 DUP6 SUB SLT ISZERO PUSH2 0x400E JUMPI PUSH1 0x0 DUP1 REVERT JUMPDEST POP POP DUP1 CALLDATALOAD SWAP3 PUSH1 0x20 SWAP1 SWAP2 ADD CALLDATALOAD SWAP2 POP JUMP JUMPDEST PUSH1 0x0 PUSH1 0x20 DUP3 DUP5 SUB SLT ISZERO PUSH2 0x402F JUMPI PUSH1 0x0 DUP1 REVERT JUMPDEST DUP2 MLOAD PUSH1 0xFF DUP2 AND DUP2 EQ PUSH2 0xC57 JUMPI PUSH1 0x0 DUP1 REVERT JUMPDEST PUSH1 0x0 DUP2 MLOAD DUP1 DUP5 MSTORE PUSH1 0x0 JUMPDEST DUP2 DUP2 LT ISZERO PUSH2 0x4066 JUMPI PUSH1 0x20 DUP2 DUP6 ADD DUP2 ADD MLOAD DUP7 DUP4 ADD DUP3 ADD MSTORE ADD PUSH2 0x404A JUMP JUMPDEST DUP2 DUP2 GT ISZERO PUSH2 0x4078 JUMPI PUSH1 0x0 PUSH1 0x20 DUP4 DUP8 ADD ADD MSTORE JUMPDEST POP PUSH1 0x1F ADD PUSH1 0x1F NOT AND SWAP3 SWAP1 SWAP3 ADD PUSH1 0x20 ADD SWAP3 SWAP2 POP POP JUMP JUMPDEST PUSH1 0x0 PUSH2 0x1E0 DUP3 MLOAD DUP5 MSTORE PUSH1 0x20 DUP4 ADD MLOAD PUSH2 0x40B0 PUSH1 0x20 DUP7 ADD DUP3 PUSH1 0x1 PUSH1 0x1 PUSH1 0xA0 SHL SUB AND SWAP1 MSTORE JUMP JUMPDEST POP PUSH1 0x40 DUP4 ADD MLOAD DUP2 PUSH1 0x40 DUP7 ADD MSTORE PUSH2 0x40C8 DUP3 DUP7 ADD DUP3 PUSH2 0x4040 JUMP JUMPDEST SWAP2 POP POP PUSH1 0x60 DUP4 ADD MLOAD DUP5 DUP3 SUB PUSH1 0x60 DUP7 ADD MSTORE PUSH2 0x40E2 DUP3 DUP3 PUSH2 0x4040 JUMP JUMPDEST SWAP2 POP POP PUSH1 0x80 DUP4 ADD MLOAD DUP5 DUP3 SUB PUSH1 0x80 DUP7 ADD MSTORE PUSH2 0x40FC DUP3 DUP3 PUSH2 0x4040 JUMP JUMPDEST SWAP2 POP POP PUSH1 0xA0 DUP4 ADD MLOAD PUSH1 0xA0 DUP6 ADD MSTORE PUSH1 0xC0 DUP4 ADD MLOAD PUSH1 0xC0 DUP6 ADD MSTORE PUSH1 0xE0 DUP4 ADD MLOAD PUSH1 0xE0 DUP6 ADD MSTORE PUSH2 0x100 DUP1 DUP5 ADD MLOAD DUP2 DUP7 ADD MSTORE POP PUSH2 0x120 DUP1 DUP5 ADD MLOAD PUSH2 0x413D DUP3 DUP8 ADD DUP3 ISZERO ISZERO SWAP1 MSTORE JUMP JUMPDEST POP POP PUSH2 0x140 DUP4 DUP2 ADD MLOAD ISZERO ISZERO SWAP1 DUP6 ADD MSTORE PUSH2 0x160 DUP1 DUP5 ADD MLOAD ISZERO ISZERO SWAP1 DUP6 ADD MSTORE PUSH2 0x180 DUP1 DUP5 ADD MLOAD SWAP1 DUP6 ADD MSTORE PUSH2 0x1A0 DUP1 DUP5 ADD MLOAD ISZERO ISZERO SWAP1 DUP6 ADD MSTORE PUSH2 0x1C0 SWAP3 DUP4 ADD MLOAD ISZERO ISZERO SWAP3 SWAP1 SWAP4 ADD SWAP2 SWAP1 SWAP2 MSTORE POP SWAP1 JUMP JUMPDEST DUP1 MLOAD DUP3 MSTORE PUSH1 0x1 DUP1 PUSH1 0xA0 SHL SUB PUSH1 0x20 DUP3 ADD MLOAD AND PUSH1 0x20 DUP4 ADD MSTORE PUSH1 0x0 PUSH1 0x40 DUP3 ADD MLOAD PUSH1 0xC0 PUSH1 0x40 DUP6 ADD MSTORE PUSH2 0x41B7 PUSH1 0xC0 DUP6 ADD DUP3 PUSH2 0x4040 JUMP JUMPDEST SWAP1 POP PUSH1 0x60 DUP4 ADD MLOAD DUP5 DUP3 SUB PUSH1 0x60 DUP7 ADD MSTORE PUSH2 0x41D0 DUP3 DUP3 PUSH2 0x4040 JUMP JUMPDEST SWAP2 POP POP PUSH1 0x80 DUP4 ADD MLOAD ISZERO ISZERO PUSH1 0x80 DUP6 ADD MSTORE PUSH1 0xA0 DUP4 ADD MLOAD ISZERO ISZERO PUSH1 0xA0 DUP6 ADD MSTORE DUP1 SWAP2 POP POP SWAP3 SWAP2 POP POP JUMP JUMPDEST PUSH1 0x0 PUSH1 0x20 DUP1 DUP4 ADD DUP2 DUP5 MSTORE DUP1 DUP6 MLOAD DUP1 DUP4 MSTORE PUSH1 0x40 DUP7 ADD SWAP2 POP PUSH1 0x40 DUP2 PUSH1 0x5 SHL DUP8 ADD ADD SWAP3 POP DUP4 DUP8 ADD PUSH1 0x0 JUMPDEST DUP3 DUP2 LT ISZERO PUSH2 0x424A JUMPI PUSH1 0x3F NOT DUP9 DUP7 SUB ADD DUP5 MSTORE PUSH2 0x4238 DUP6 DUP4 MLOAD PUSH2 0x408D JUMP JUMPDEST SWAP5 POP SWAP3 DUP6 ADD SWAP3 SWAP1 DUP6 ADD SWAP1 PUSH1 0x1 ADD PUSH2 0x421C JUMP JUMPDEST POP SWAP3 SWAP8 SWAP7 POP POP POP POP POP POP POP JUMP JUMPDEST PUSH1 0x20 DUP1 DUP3 MSTORE DUP3 MLOAD DUP3 DUP3 ADD DUP2 SWAP1 MSTORE PUSH1 0x0 SWAP2 SWAP1 DUP5 DUP3 ADD SWAP1 PUSH1 0x40 DUP6 ADD SWAP1 DUP5 JUMPDEST DUP2 DUP2 LT ISZERO PUSH2 0x42C0 JUMPI PUSH2 0x42AD DUP4 DUP6 MLOAD DUP1 MLOAD DUP3 MSTORE PUSH1 0x20 DUP1 DUP3 ADD MLOAD SWAP1 DUP4 ADD MSTORE PUSH1 0x40 DUP1 DUP3 ADD MLOAD PUSH1 0x1 PUSH1 0x1 PUSH1 0xA0 SHL SUB AND SWAP1 DUP4 ADD MSTORE PUSH1 0x60 SWAP1 DUP2 ADD MLOAD SWAP2 ADD MSTORE JUMP JUMPDEST SWAP3 DUP5 ADD SWAP3 PUSH1 0x80 SWAP3 SWAP1 SWAP3 ADD SWAP2 PUSH1 0x1 ADD PUSH2 0x4273 JUMP JUMPDEST POP SWAP1 SWAP7 SWAP6 POP POP POP POP POP POP JUMP JUMPDEST PUSH1 0x0 PUSH1 0x20 DUP1 DUP4 ADD DUP2 DUP5 MSTORE DUP1 DUP6 MLOAD DUP1 DUP4 MSTORE PUSH1 0x40 DUP7 ADD SWAP2 POP PUSH1 0x40 DUP2 PUSH1 0x5 SHL DUP8 ADD ADD SWAP3 POP DUP4 DUP8 ADD PUSH1 0x0 JUMPDEST DUP3 DUP2 LT ISZERO PUSH2 0x424A JUMPI PUSH1 0x3F NOT DUP9 DUP7 SUB ADD DUP5 MSTORE PUSH2 0x430F DUP6 DUP4 MLOAD PUSH2 0x4186 JUMP JUMPDEST SWAP5 POP SWAP3 DUP6 ADD SWAP3 SWAP1 DUP6 ADD SWAP1 PUSH1 0x1 ADD PUSH2 0x42F3 JUMP JUMPDEST PUSH1 0x20 DUP1 DUP3 MSTORE PUSH1 0x2D SWAP1 DUP3 ADD MSTORE PUSH32 0x4F6E6C792061204372656174696E6720757365722063616E20706572666F726D PUSH1 0x40 DUP3 ADD MSTORE PUSH13 0x103A3434B99030B1BA34B7B717 PUSH1 0x99 SHL PUSH1 0x60 DUP3 ADD MSTORE PUSH1 0x80 ADD SWAP1 JUMP JUMPDEST PUSH1 0x20 DUP2 MSTORE PUSH1 0x0 PUSH2 0xC57 PUSH1 0x20 DUP4 ADD DUP5 PUSH2 0x408D JUMP JUMPDEST DUP2 MLOAD DUP2 MSTORE PUSH1 0x20 DUP1 DUP4 ADD MLOAD SWAP1 DUP3 ADD MSTORE PUSH1 0x40 DUP1 DUP4 ADD MLOAD PUSH1 0x1 PUSH1 0x1 PUSH1 0xA0 SHL SUB AND SWAP1 DUP3 ADD MSTORE PUSH1 0x60 DUP1 DUP4 ADD MLOAD SWAP1 DUP3 ADD MSTORE PUSH1 0x80 DUP2 ADD PUSH2 0x5BC JUMP JUMPDEST PUSH1 0x20 DUP2 MSTORE PUSH1 0x0 PUSH2 0xC57 PUSH1 0x20 DUP4 ADD DUP5 PUSH2 0x4186 JUMP JUMPDEST PUSH1 0x0 DUP3 NOT DUP3 GT ISZERO PUSH2 0x43DB JUMPI PUSH2 0x43DB PUSH2 0x455F JUMP JUMPDEST POP ADD SWAP1 JUMP JUMPDEST PUSH1 0x0 DUP3 PUSH2 0x43FD JUMPI PUSH4 0x4E487B71 PUSH1 0xE0 SHL PUSH1 0x0 MSTORE PUSH1 0x12 PUSH1 0x4 MSTORE PUSH1 0x24 PUSH1 0x0 REVERT JUMPDEST POP DIV SWAP1 JUMP JUMPDEST PUSH1 0x1 DUP2 DUP2 JUMPDEST DUP1 DUP6 GT ISZERO PUSH2 0x443D JUMPI DUP2 PUSH1 0x0 NOT DIV DUP3 GT ISZERO PUSH2 0x4423 JUMPI PUSH2 0x4423 PUSH2 0x455F JUMP JUMPDEST DUP1 DUP6 AND ISZERO PUSH2 0x4430 JUMPI SWAP2 DUP2 MUL SWAP2 JUMPDEST SWAP4 DUP5 SHR SWAP4 SWAP1 DUP1 MUL SWAP1 PUSH2 0x4407 JUMP JUMPDEST POP SWAP3 POP SWAP3 SWAP1 POP JUMP JUMPDEST PUSH1 0x0 PUSH2 0xC57 PUSH1 0xFF DUP5 AND DUP4 PUSH1 0x0 DUP3 PUSH2 0x445E JUMPI POP PUSH1 0x1 PUSH2 0x5BC JUMP JUMPDEST DUP2 PUSH2 0x446B JUMPI POP PUSH1 0x0 PUSH2 0x5BC JUMP JUMPDEST DUP2 PUSH1 0x1 DUP2 EQ PUSH2 0x4481 JUMPI PUSH1 0x2 DUP2 EQ PUSH2 0x448B JUMPI PUSH2 0x44A7 JUMP JUMPDEST PUSH1 0x1 SWAP2 POP POP PUSH2 0x5BC JUMP JUMPDEST PUSH1 0xFF DUP5 GT ISZERO PUSH2 0x449C JUMPI PUSH2 0x449C PUSH2 0x455F JUMP JUMPDEST POP POP PUSH1 0x1 DUP3 SHL PUSH2 0x5BC JUMP JUMPDEST POP PUSH1 0x20 DUP4 LT PUSH2 0x133 DUP4 LT AND PUSH1 0x4E DUP5 LT PUSH1 0xB DUP5 LT AND OR ISZERO PUSH2 0x44CA JUMPI POP DUP2 DUP2 EXP PUSH2 0x5BC JUMP JUMPDEST PUSH2 0x44D4 DUP4 DUP4 PUSH2 0x4402 JUMP JUMPDEST DUP1 PUSH1 0x0 NOT DIV DUP3 GT ISZERO PUSH2 0x44E8 JUMPI PUSH2 0x44E8 PUSH2 0x455F JUMP JUMPDEST MUL SWAP4 SWAP3 POP POP POP JUMP JUMPDEST PUSH1 0x0 DUP2 PUSH1 0x0 NOT DIV DUP4 GT DUP3 ISZERO ISZERO AND ISZERO PUSH2 0x450A JUMPI PUSH2 0x450A PUSH2 0x455F JUMP JUMPDEST POP MUL SWAP1 JUMP JUMPDEST PUSH1 0x1 DUP2 DUP2 SHR SWAP1 DUP3 AND DUP1 PUSH2 0x4523 JUMPI PUSH1 0x7F DUP3 AND SWAP2 POP JUMPDEST PUSH1 0x20 DUP3 LT DUP2 EQ ISZERO PUSH2 0x8EF JUMPI PUSH4 0x4E487B71 PUSH1 0xE0 SHL PUSH1 0x0 MSTORE PUSH1 0x22 PUSH1 0x4 MSTORE PUSH1 0x24 PUSH1 0x0 REVERT JUMPDEST PUSH1 0x0 PUSH1 0x0 NOT DUP3 EQ ISZERO PUSH2 0x4558 JUMPI PUSH2 0x4558 PUSH2 0x455F JUMP JUMPDEST POP PUSH1 0x1 ADD SWAP1 JUMP JUMPDEST PUSH4 0x4E487B71 PUSH1 0xE0 SHL PUSH1 0x0 MSTORE PUSH1 0x11 PUSH1 0x4 MSTORE PUSH1 0x24 PUSH1 0x0 REVERT JUMPDEST PUSH4 0x4E487B71 PUSH1 0xE0 SHL PUSH1 0x0 MSTORE PUSH1 0x32 PUSH1 0x4 MSTORE PUSH1 0x24 PUSH1 0x0 REVERT JUMPDEST PUSH4 0x4E487B71 PUSH1 0xE0 SHL PUSH1 0x0 MSTORE PUSH1 0x41 PUSH1 0x4 MSTORE PUSH1 0x24 PUSH1 0x0 REVERT JUMPDEST DUP1 ISZERO ISZERO DUP2 EQ PUSH2 0x45AF JUMPI PUSH1 0x0 DUP1 REVERT JUMPDEST POP JUMP INVALID LOG2 PUSH5 0x6970667358 0x22 SLT KECCAK256 PUSH20 0xD24C14265C096C0B483D20CBB6149FAE4DEC8D29 SDIV 0x22 PUSH16 0x538692AFBA553B64736F6C63430008 SMOD STOP CALLER "
				},
				"gasEstimates": {
					"creation": {
						"codeDepositCost": "3579200",
						"executionCost": "infinite",
						"totalCost": "infinite"
					},
					"external": {
						"approveStekcitBM(uint256)": "infinite",
						"checkIfEventIsAlreadyPaidOut(uint256)": "infinite",
						"checkIfUserAlreadyHasTicket(uint256,address)": "infinite",
						"checkIfUserExists(address)": "infinite",
						"checkIfUserisCreatingUserOfEvent(uint256,address)": "infinite",
						"checkStekcitBMAllowanceOfUser(address)": "infinite",
						"createEvent(address,string,string,string,uint256,uint256,bool)": "infinite",
						"createPayout(uint256,uint256)": "infinite",
						"createTicketForUser(uint256,address,uint256)": "infinite",
						"createUser(address,string,string)": "infinite",
						"getAllEventsCreatedByUser(address)": "infinite",
						"getAllPublishedEvents()": "infinite",
						"getAllTicketsOfEvent(uint256)": "infinite",
						"getAllTicketsOfUser(address)": "infinite",
						"getEventAttendees(uint256)": "infinite",
						"getEventById(uint256)": "infinite",
						"getNumberOfAllPublishedEvents()": "infinite",
						"getNumberOfTicketsOfEvent(uint256)": "infinite",
						"getNumberOfTicketsOfUser(address)": "infinite",
						"getPayoutById(uint256)": "15762",
						"getTicketById(uint256)": "11419",
						"getTotalAmountPaidToEvent(uint256)": "infinite",
						"getTotalNumberOfAllEventsCreatedByUser(address)": "infinite",
						"getTotalNumberOfTicketsOfEvent(uint256)": "infinite",
						"getUserByUserId(uint256)": "infinite",
						"getUserByWalletAddress(address)": "infinite",
						"increaseApprovalForStekcitBM(uint256)": "infinite",
						"makeCreatingUser(address)": "infinite",
						"payForEvent(uint256)": "infinite",
						"processPayout(uint256)": "infinite",
						"publishEvent(uint256)": "infinite",
						"stekcitBMOwnerAddress()": "2449",
						"verifyEvent(uint256)": "infinite"
					}
				},
				"methodIdentifiers": {
					"approveStekcitBM(uint256)": "7370f6cc",
					"checkIfEventIsAlreadyPaidOut(uint256)": "24c67b03",
					"checkIfUserAlreadyHasTicket(uint256,address)": "f5caa96b",
					"checkIfUserExists(address)": "9371de2b",
					"checkIfUserisCreatingUserOfEvent(uint256,address)": "75362943",
					"checkStekcitBMAllowanceOfUser(address)": "0c6c56f9",
					"createEvent(address,string,string,string,uint256,uint256,bool)": "25299d67",
					"createPayout(uint256,uint256)": "bb72caef",
					"createTicketForUser(uint256,address,uint256)": "25fb0d55",
					"createUser(address,string,string)": "4ceb48fd",
					"getAllEventsCreatedByUser(address)": "3b902afe",
					"getAllPublishedEvents()": "5d3ee0ee",
					"getAllTicketsOfEvent(uint256)": "235b3a3d",
					"getAllTicketsOfUser(address)": "184b0938",
					"getEventAttendees(uint256)": "ad395c14",
					"getEventById(uint256)": "b98079bc",
					"getNumberOfAllPublishedEvents()": "cee34e7b",
					"getNumberOfTicketsOfEvent(uint256)": "7354a25f",
					"getNumberOfTicketsOfUser(address)": "666ac2fb",
					"getPayoutById(uint256)": "65212f70",
					"getTicketById(uint256)": "27b7aabc",
					"getTotalAmountPaidToEvent(uint256)": "e5b16b4c",
					"getTotalNumberOfAllEventsCreatedByUser(address)": "c5b84029",
					"getTotalNumberOfTicketsOfEvent(uint256)": "76f8cbd5",
					"getUserByUserId(uint256)": "c89e9666",
					"getUserByWalletAddress(address)": "99bb6b08",
					"increaseApprovalForStekcitBM(uint256)": "d011287d",
					"makeCreatingUser(address)": "71ffeffe",
					"payForEvent(uint256)": "ea42e486",
					"processPayout(uint256)": "89ee68bf",
					"publishEvent(uint256)": "cfd9f3da",
					"stekcitBMOwnerAddress()": "9720807c",
					"verifyEvent(uint256)": "d903708b"
				}
			},
			"storageLayout": {
				"storage": [
					{
						"astId": 12,
						"contract": "smart-contracts/StekcitBM.sol:StekcitBM",
						"label": "allStekcitUsers",
						"offset": 0,
						"slot": "0",
						"type": "t_array(t_struct(StekcitUser)1686_storage)dyn_storage"
					},
					{
						"astId": 16,
						"contract": "smart-contracts/StekcitBM.sol:StekcitBM",
						"label": "allStekcitEvents",
						"offset": 0,
						"slot": "1",
						"type": "t_array(t_struct(StekcitEvent)1717_storage)dyn_storage"
					},
					{
						"astId": 20,
						"contract": "smart-contracts/StekcitBM.sol:StekcitBM",
						"label": "allStekcitTickets",
						"offset": 0,
						"slot": "2",
						"type": "t_array(t_struct(StekcitTicket)1726_storage)dyn_storage"
					},
					{
						"astId": 24,
						"contract": "smart-contracts/StekcitBM.sol:StekcitBM",
						"label": "allStekcitPayouts",
						"offset": 0,
						"slot": "3",
						"type": "t_array(t_struct(StekcitPayout)1739_storage)dyn_storage"
					},
					{
						"astId": 26,
						"contract": "smart-contracts/StekcitBM.sol:StekcitBM",
						"label": "stekcitBMOwnerAddress",
						"offset": 0,
						"slot": "4",
						"type": "t_address"
					},
					{
						"astId": 28,
						"contract": "smart-contracts/StekcitBM.sol:StekcitBM",
						"label": "currentUserId",
						"offset": 0,
						"slot": "5",
						"type": "t_uint256"
					},
					{
						"astId": 30,
						"contract": "smart-contracts/StekcitBM.sol:StekcitBM",
						"label": "currentEventId",
						"offset": 0,
						"slot": "6",
						"type": "t_uint256"
					},
					{
						"astId": 32,
						"contract": "smart-contracts/StekcitBM.sol:StekcitBM",
						"label": "currentTicketId",
						"offset": 0,
						"slot": "7",
						"type": "t_uint256"
					},
					{
						"astId": 34,
						"contract": "smart-contracts/StekcitBM.sol:StekcitBM",
						"label": "currentPayoutId",
						"offset": 0,
						"slot": "8",
						"type": "t_uint256"
					},
					{
						"astId": 40,
						"contract": "smart-contracts/StekcitBM.sol:StekcitBM",
						"label": "CUSD",
						"offset": 0,
						"slot": "9",
						"type": "t_contract(ERC20)1671"
					}
				],
				"types": {
					"t_address": {
						"encoding": "inplace",
						"label": "address",
						"numberOfBytes": "20"
					},
					"t_array(t_struct(StekcitEvent)1717_storage)dyn_storage": {
						"base": "t_struct(StekcitEvent)1717_storage",
						"encoding": "dynamic_array",
						"label": "struct StekcitEvent[]",
						"numberOfBytes": "32"
					},
					"t_array(t_struct(StekcitPayout)1739_storage)dyn_storage": {
						"base": "t_struct(StekcitPayout)1739_storage",
						"encoding": "dynamic_array",
						"label": "struct StekcitPayout[]",
						"numberOfBytes": "32"
					},
					"t_array(t_struct(StekcitTicket)1726_storage)dyn_storage": {
						"base": "t_struct(StekcitTicket)1726_storage",
						"encoding": "dynamic_array",
						"label": "struct StekcitTicket[]",
						"numberOfBytes": "32"
					},
					"t_array(t_struct(StekcitUser)1686_storage)dyn_storage": {
						"base": "t_struct(StekcitUser)1686_storage",
						"encoding": "dynamic_array",
						"label": "struct StekcitUser[]",
						"numberOfBytes": "32"
					},
					"t_bool": {
						"encoding": "inplace",
						"label": "bool",
						"numberOfBytes": "1"
					},
					"t_contract(ERC20)1671": {
						"encoding": "inplace",
						"label": "contract ERC20",
						"numberOfBytes": "20"
					},
					"t_string_storage": {
						"encoding": "bytes",
						"label": "string",
						"numberOfBytes": "32"
					},
					"t_struct(StekcitEvent)1717_storage": {
						"encoding": "inplace",
						"label": "struct StekcitEvent",
						"members": [
							{
								"astId": 1688,
								"contract": "smart-contracts/StekcitBM.sol:StekcitBM",
								"label": "id",
								"offset": 0,
								"slot": "0",
								"type": "t_uint256"
							},
							{
								"astId": 1690,
								"contract": "smart-contracts/StekcitBM.sol:StekcitBM",
								"label": "creatingUserWalletAddress",
								"offset": 0,
								"slot": "1",
								"type": "t_address"
							},
							{
								"astId": 1692,
								"contract": "smart-contracts/StekcitBM.sol:StekcitBM",
								"label": "title",
								"offset": 0,
								"slot": "2",
								"type": "t_string_storage"
							},
							{
								"astId": 1694,
								"contract": "smart-contracts/StekcitBM.sol:StekcitBM",
								"label": "description",
								"offset": 0,
								"slot": "3",
								"type": "t_string_storage"
							},
							{
								"astId": 1696,
								"contract": "smart-contracts/StekcitBM.sol:StekcitBM",
								"label": "link",
								"offset": 0,
								"slot": "4",
								"type": "t_string_storage"
							},
							{
								"astId": 1698,
								"contract": "smart-contracts/StekcitBM.sol:StekcitBM",
								"label": "amount",
								"offset": 0,
								"slot": "5",
								"type": "t_uint256"
							},
							{
								"astId": 1700,
								"contract": "smart-contracts/StekcitBM.sol:StekcitBM",
								"label": "createdAt",
								"offset": 0,
								"slot": "6",
								"type": "t_uint256"
							},
							{
								"astId": 1702,
								"contract": "smart-contracts/StekcitBM.sol:StekcitBM",
								"label": "updatedAt",
								"offset": 0,
								"slot": "7",
								"type": "t_uint256"
							},
							{
								"astId": 1704,
								"contract": "smart-contracts/StekcitBM.sol:StekcitBM",
								"label": "dateAndTime",
								"offset": 0,
								"slot": "8",
								"type": "t_uint256"
							},
							{
								"astId": 1706,
								"contract": "smart-contracts/StekcitBM.sol:StekcitBM",
								"label": "isBlank",
								"offset": 0,
								"slot": "9",
								"type": "t_bool"
							},
							{
								"astId": 1708,
								"contract": "smart-contracts/StekcitBM.sol:StekcitBM",
								"label": "isPublished",
								"offset": 1,
								"slot": "9",
								"type": "t_bool"
							},
							{
								"astId": 1710,
								"contract": "smart-contracts/StekcitBM.sol:StekcitBM",
								"label": "isVerified",
								"offset": 2,
								"slot": "9",
								"type": "t_bool"
							},
							{
								"astId": 1712,
								"contract": "smart-contracts/StekcitBM.sol:StekcitBM",
								"label": "verificationAmount",
								"offset": 0,
								"slot": "10",
								"type": "t_uint256"
							},
							{
								"astId": 1714,
								"contract": "smart-contracts/StekcitBM.sol:StekcitBM",
								"label": "isEnded",
								"offset": 0,
								"slot": "11",
								"type": "t_bool"
							},
							{
								"astId": 1716,
								"contract": "smart-contracts/StekcitBM.sol:StekcitBM",
								"label": "isPaidOut",
								"offset": 1,
								"slot": "11",
								"type": "t_bool"
							}
						],
						"numberOfBytes": "384"
					},
					"t_struct(StekcitPayout)1739_storage": {
						"encoding": "inplace",
						"label": "struct StekcitPayout",
						"members": [
							{
								"astId": 1728,
								"contract": "smart-contracts/StekcitBM.sol:StekcitBM",
								"label": "id",
								"offset": 0,
								"slot": "0",
								"type": "t_uint256"
							},
							{
								"astId": 1730,
								"contract": "smart-contracts/StekcitBM.sol:StekcitBM",
								"label": "eventId",
								"offset": 0,
								"slot": "1",
								"type": "t_uint256"
							},
							{
								"astId": 1732,
								"contract": "smart-contracts/StekcitBM.sol:StekcitBM",
								"label": "creatingUserWalletAddress",
								"offset": 0,
								"slot": "2",
								"type": "t_address"
							},
							{
								"astId": 1734,
								"contract": "smart-contracts/StekcitBM.sol:StekcitBM",
								"label": "amountPaidOut",
								"offset": 0,
								"slot": "3",
								"type": "t_uint256"
							},
							{
								"astId": 1736,
								"contract": "smart-contracts/StekcitBM.sol:StekcitBM",
								"label": "dateTimeAndMade",
								"offset": 0,
								"slot": "4",
								"type": "t_uint256"
							},
							{
								"astId": 1738,
								"contract": "smart-contracts/StekcitBM.sol:StekcitBM",
								"label": "isBlank",
								"offset": 0,
								"slot": "5",
								"type": "t_bool"
							}
						],
						"numberOfBytes": "192"
					},
					"t_struct(StekcitTicket)1726_storage": {
						"encoding": "inplace",
						"label": "struct StekcitTicket",
						"members": [
							{
								"astId": 1719,
								"contract": "smart-contracts/StekcitBM.sol:StekcitBM",
								"label": "id",
								"offset": 0,
								"slot": "0",
								"type": "t_uint256"
							},
							{
								"astId": 1721,
								"contract": "smart-contracts/StekcitBM.sol:StekcitBM",
								"label": "eventId",
								"offset": 0,
								"slot": "1",
								"type": "t_uint256"
							},
							{
								"astId": 1723,
								"contract": "smart-contracts/StekcitBM.sol:StekcitBM",
								"label": "attendingUserWalletAddress",
								"offset": 0,
								"slot": "2",
								"type": "t_address"
							},
							{
								"astId": 1725,
								"contract": "smart-contracts/StekcitBM.sol:StekcitBM",
								"label": "amountPaid",
								"offset": 0,
								"slot": "3",
								"type": "t_uint256"
							}
						],
						"numberOfBytes": "128"
					},
					"t_struct(StekcitUser)1686_storage": {
						"encoding": "inplace",
						"label": "struct StekcitUser",
						"members": [
							{
								"astId": 1675,
								"contract": "smart-contracts/StekcitBM.sol:StekcitBM",
								"label": "id",
								"offset": 0,
								"slot": "0",
								"type": "t_uint256"
							},
							{
								"astId": 1677,
								"contract": "smart-contracts/StekcitBM.sol:StekcitBM",
								"label": "walletAddress",
								"offset": 0,
								"slot": "1",
								"type": "t_address"
							},
							{
								"astId": 1679,
								"contract": "smart-contracts/StekcitBM.sol:StekcitBM",
								"label": "username",
								"offset": 0,
								"slot": "2",
								"type": "t_string_storage"
							},
							{
								"astId": 1681,
								"contract": "smart-contracts/StekcitBM.sol:StekcitBM",
								"label": "emailAddress",
								"offset": 0,
								"slot": "3",
								"type": "t_string_storage"
							},
							{
								"astId": 1683,
								"contract": "smart-contracts/StekcitBM.sol:StekcitBM",
								"label": "isCreatingUser",
								"offset": 0,
								"slot": "4",
								"type": "t_bool"
							},
							{
								"astId": 1685,
								"contract": "smart-contracts/StekcitBM.sol:StekcitBM",
								"label": "isBlank",
								"offset": 1,
								"slot": "4",
								"type": "t_bool"
							}
						],
						"numberOfBytes": "160"
					},
					"t_uint256": {
						"encoding": "inplace",
						"label": "uint256",
						"numberOfBytes": "32"
					}
				}
			},
			"userdoc": {
				"kind": "user",
				"methods": {},
				"version": 1
			}
		}
	}
}