{
	"data": {
		"bytecode": {
			"linkReferences": {},
			"object": "608060405234801561001057600080fd5b5061106c806100206000396000f3fe608060405234801561001057600080fd5b50600436106100365760003560e01c8063891918ca1461003b578063b98079bc14610057575b600080fd5b61005560048036038101906100509190610946565b610087565b005b610071600480360381019061006c9190610a3c565b610302565b60405161007e9190610c90565b60405180910390f35b600060015490506000429050600042905060006040518061022001604052808581526020018673ffffffffffffffffffffffffffffffffffffffff1681526020018c81526020018b81526020018a815260200189815260200184815260200183815260200188815260200160001515815260200187151581526020016000151581526020016000815260200160001515815260200160001515815260200160008152602001600081525090806001815401808255809150506001900390600052602060002090600e02016000909190919091506000820151816000015560208201518160010160006101000a81548173ffffffffffffffffffffffffffffffffffffffff021916908373ffffffffffffffffffffffffffffffffffffffff16021790555060408201518160020190816101c09190610ebe565b5060608201518160030190816101d69190610ebe565b5060808201518160040190816101ec9190610ebe565b5060a0820151816005015560c0820151816006015560e0820151816007015561010082015181600801556101208201518160090160006101000a81548160ff0219169083151502179055506101408201518160090160016101000a81548160ff0219169083151502179055506101608201518160090160026101000a81548160ff02191690831515021790555061018082015181600a01556101a082015181600b0160006101000a81548160ff0219169083151502179055506101c082015181600b0160016101000a81548160ff0219169083151502179055506101e082015181600c015561020082015181600d01555050600160008154809291906102f190610fbf565b919050555050505050505050505050565b61030a61067c565b60005b60008054905081101561065757600080828154811061032f5761032e611007565b5b90600052602060002090600e020160405180610220016040529081600082015481526020016001820160009054906101000a900473ffffffffffffffffffffffffffffffffffffffff1673ffffffffffffffffffffffffffffffffffffffff1673ffffffffffffffffffffffffffffffffffffffff1681526020016002820180546103b990610ce1565b80601f01602080910402602001604051908101604052809291908181526020018280546103e590610ce1565b80156104325780601f1061040757610100808354040283529160200191610432565b820191906000526020600020905b81548152906001019060200180831161041557829003601f168201915b5050505050815260200160038201805461044b90610ce1565b80601f016020809104026020016040519081016040528092919081815260200182805461047790610ce1565b80156104c45780601f10610499576101008083540402835291602001916104c4565b820191906000526020600020905b8154815290600101906020018083116104a757829003601f168201915b505050505081526020016004820180546104dd90610ce1565b80601f016020809104026020016040519081016040528092919081815260200182805461050990610ce1565b80156105565780601f1061052b57610100808354040283529160200191610556565b820191906000526020600020905b81548152906001019060200180831161053957829003601f168201915b50505050508152602001600582015481526020016006820154815260200160078201548152602001600882015481526020016009820160009054906101000a900460ff161515151581526020016009820160019054906101000a900460ff161515151581526020016009820160029054906101000a900460ff16151515158152602001600a8201548152602001600b820160009054906101000a900460ff16151515158152602001600b820160019054906101000a900460ff16151515158152602001600c8201548152602001600d82015481525050905083816000015103610643578092505050610677565b50808061064f90610fbf565b91505061030d565b5061066061067c565b600181610120019015159081151581525050809150505b919050565b60405180610220016040528060008152602001600073ffffffffffffffffffffffffffffffffffffffff168152602001606081526020016060815260200160608152602001600081526020016000815260200160008152602001600081526020016000151581526020016000151581526020016000151581526020016000815260200160001515815260200160001515815260200160008152602001600081525090565b6000604051905090565b600080fd5b600080fd5b600080fd5b600080fd5b6000601f19601f8301169050919050565b7f4e487b7100000000000000000000000000000000000000000000000000000000600052604160045260246000fd5b6107878261073e565b810181811067ffffffffffffffff821117156107a6576107a561074f565b5b80604052505050565b60006107b9610720565b90506107c5828261077e565b919050565b600067ffffffffffffffff8211156107e5576107e461074f565b5b6107ee8261073e565b9050602081019050919050565b82818337600083830152505050565b600061081d610818846107ca565b6107af565b90508281526020810184848401111561083957610838610739565b5b6108448482856107fb565b509392505050565b600082601f83011261086157610860610734565b5b813561087184826020860161080a565b91505092915050565b6000819050919050565b61088d8161087a565b811461089857600080fd5b50565b6000813590506108aa81610884565b92915050565b60008115159050919050565b6108c5816108b0565b81146108d057600080fd5b50565b6000813590506108e2816108bc565b92915050565b600073ffffffffffffffffffffffffffffffffffffffff82169050919050565b6000610913826108e8565b9050919050565b61092381610908565b811461092e57600080fd5b50565b6000813590506109408161091a565b92915050565b600080600080600080600060e0888a0312156109655761096461072a565b5b600088013567ffffffffffffffff8111156109835761098261072f565b5b61098f8a828b0161084c565b975050602088013567ffffffffffffffff8111156109b0576109af61072f565b5b6109bc8a828b0161084c565b965050604088013567ffffffffffffffff8111156109dd576109dc61072f565b5b6109e98a828b0161084c565b95505060606109fa8a828b0161089b565b9450506080610a0b8a828b0161089b565b93505060a0610a1c8a828b016108d3565b92505060c0610a2d8a828b01610931565b91505092959891949750929550565b600060208284031215610a5257610a5161072a565b5b6000610a608482850161089b565b91505092915050565b610a728161087a565b82525050565b610a8181610908565b82525050565b600081519050919050565b600082825260208201905092915050565b60005b83811015610ac1578082015181840152602081019050610aa6565b60008484015250505050565b6000610ad882610a87565b610ae28185610a92565b9350610af2818560208601610aa3565b610afb8161073e565b840191505092915050565b610b0f816108b0565b82525050565b600061022083016000830151610b2e6000860182610a69565b506020830151610b416020860182610a78565b5060408301518482036040860152610b598282610acd565b91505060608301518482036060860152610b738282610acd565b91505060808301518482036080860152610b8d8282610acd565b91505060a0830151610ba260a0860182610a69565b5060c0830151610bb560c0860182610a69565b5060e0830151610bc860e0860182610a69565b50610100830151610bdd610100860182610a69565b50610120830151610bf2610120860182610b06565b50610140830151610c07610140860182610b06565b50610160830151610c1c610160860182610b06565b50610180830151610c31610180860182610a69565b506101a0830151610c466101a0860182610b06565b506101c0830151610c5b6101c0860182610b06565b506101e0830151610c706101e0860182610a69565b50610200830151610c85610200860182610a69565b508091505092915050565b60006020820190508181036000830152610caa8184610b15565b905092915050565b7f4e487b7100000000000000000000000000000000000000000000000000000000600052602260045260246000fd5b60006002820490506001821680610cf957607f821691505b602082108103610d0c57610d0b610cb2565b5b50919050565b60008190508160005260206000209050919050565b60006020601f8301049050919050565b600082821b905092915050565b600060088302610d747fffffffffffffffffffffffffffffffffffffffffffffffffffffffffffffffff82610d37565b610d7e8683610d37565b95508019841693508086168417925050509392505050565b6000819050919050565b6000610dbb610db6610db18461087a565b610d96565b61087a565b9050919050565b6000819050919050565b610dd583610da0565b610de9610de182610dc2565b848454610d44565b825550505050565b600090565b610dfe610df1565b610e09818484610dcc565b505050565b5b81811015610e2d57610e22600082610df6565b600181019050610e0f565b5050565b601f821115610e7257610e4381610d12565b610e4c84610d27565b81016020851015610e5b578190505b610e6f610e6785610d27565b830182610e0e565b50505b505050565b600082821c905092915050565b6000610e9560001984600802610e77565b1980831691505092915050565b6000610eae8383610e84565b9150826002028217905092915050565b610ec782610a87565b67ffffffffffffffff811115610ee057610edf61074f565b5b610eea8254610ce1565b610ef5828285610e31565b600060209050601f831160018114610f285760008415610f16578287015190505b610f208582610ea2565b865550610f88565b601f198416610f3686610d12565b60005b82811015610f5e57848901518255600182019150602085019450602081019050610f39565b86831015610f7b5784890151610f77601f891682610e84565b8355505b6001600288020188555050505b505050505050565b7f4e487b7100000000000000000000000000000000000000000000000000000000600052601160045260246000fd5b6000610fca8261087a565b91507fffffffffffffffffffffffffffffffffffffffffffffffffffffffffffffffff8203610ffc57610ffb610f90565b5b600182019050919050565b7f4e487b7100000000000000000000000000000000000000000000000000000000600052603260045260246000fdfea2646970667358221220b63e6cd024c95ee926fd6b74d02f8cf4aa94f295e407f90146020e5591fe884e64736f6c63430008130033",
			"opcodes": "PUSH1 0x80 PUSH1 0x40 MSTORE CALLVALUE DUP1 ISZERO PUSH2 0x10 JUMPI PUSH1 0x0 DUP1 REVERT JUMPDEST POP PUSH2 0x106C DUP1 PUSH2 0x20 PUSH1 0x0 CODECOPY PUSH1 0x0 RETURN INVALID PUSH1 0x80 PUSH1 0x40 MSTORE CALLVALUE DUP1 ISZERO PUSH2 0x10 JUMPI PUSH1 0x0 DUP1 REVERT JUMPDEST POP PUSH1 0x4 CALLDATASIZE LT PUSH2 0x36 JUMPI PUSH1 0x0 CALLDATALOAD PUSH1 0xE0 SHR DUP1 PUSH4 0x891918CA EQ PUSH2 0x3B JUMPI DUP1 PUSH4 0xB98079BC EQ PUSH2 0x57 JUMPI JUMPDEST PUSH1 0x0 DUP1 REVERT JUMPDEST PUSH2 0x55 PUSH1 0x4 DUP1 CALLDATASIZE SUB DUP2 ADD SWAP1 PUSH2 0x50 SWAP2 SWAP1 PUSH2 0x946 JUMP JUMPDEST PUSH2 0x87 JUMP JUMPDEST STOP JUMPDEST PUSH2 0x71 PUSH1 0x4 DUP1 CALLDATASIZE SUB DUP2 ADD SWAP1 PUSH2 0x6C SWAP2 SWAP1 PUSH2 0xA3C JUMP JUMPDEST PUSH2 0x302 JUMP JUMPDEST PUSH1 0x40 MLOAD PUSH2 0x7E SWAP2 SWAP1 PUSH2 0xC90 JUMP JUMPDEST PUSH1 0x40 MLOAD DUP1 SWAP2 SUB SWAP1 RETURN JUMPDEST PUSH1 0x0 PUSH1 0x1 SLOAD SWAP1 POP PUSH1 0x0 TIMESTAMP SWAP1 POP PUSH1 0x0 TIMESTAMP SWAP1 POP PUSH1 0x0 PUSH1 0x40 MLOAD DUP1 PUSH2 0x220 ADD PUSH1 0x40 MSTORE DUP1 DUP6 DUP2 MSTORE PUSH1 0x20 ADD DUP7 PUSH20 0xFFFFFFFFFFFFFFFFFFFFFFFFFFFFFFFFFFFFFFFF AND DUP2 MSTORE PUSH1 0x20 ADD DUP13 DUP2 MSTORE PUSH1 0x20 ADD DUP12 DUP2 MSTORE PUSH1 0x20 ADD DUP11 DUP2 MSTORE PUSH1 0x20 ADD DUP10 DUP2 MSTORE PUSH1 0x20 ADD DUP5 DUP2 MSTORE PUSH1 0x20 ADD DUP4 DUP2 MSTORE PUSH1 0x20 ADD DUP9 DUP2 MSTORE PUSH1 0x20 ADD PUSH1 0x0 ISZERO ISZERO DUP2 MSTORE PUSH1 0x20 ADD DUP8 ISZERO ISZERO DUP2 MSTORE PUSH1 0x20 ADD PUSH1 0x0 ISZERO ISZERO DUP2 MSTORE PUSH1 0x20 ADD PUSH1 0x0 DUP2 MSTORE PUSH1 0x20 ADD PUSH1 0x0 ISZERO ISZERO DUP2 MSTORE PUSH1 0x20 ADD PUSH1 0x0 ISZERO ISZERO DUP2 MSTORE PUSH1 0x20 ADD PUSH1 0x0 DUP2 MSTORE PUSH1 0x20 ADD PUSH1 0x0 DUP2 MSTORE POP SWAP1 DUP1 PUSH1 0x1 DUP2 SLOAD ADD DUP1 DUP3 SSTORE DUP1 SWAP2 POP POP PUSH1 0x1 SWAP1 SUB SWAP1 PUSH1 0x0 MSTORE PUSH1 0x20 PUSH1 0x0 KECCAK256 SWAP1 PUSH1 0xE MUL ADD PUSH1 0x0 SWAP1 SWAP2 SWAP1 SWAP2 SWAP1 SWAP2 POP PUSH1 0x0 DUP3 ADD MLOAD DUP2 PUSH1 0x0 ADD SSTORE PUSH1 0x20 DUP3 ADD MLOAD DUP2 PUSH1 0x1 ADD PUSH1 0x0 PUSH2 0x100 EXP DUP2 SLOAD DUP2 PUSH20 0xFFFFFFFFFFFFFFFFFFFFFFFFFFFFFFFFFFFFFFFF MUL NOT AND SWAP1 DUP4 PUSH20 0xFFFFFFFFFFFFFFFFFFFFFFFFFFFFFFFFFFFFFFFF AND MUL OR SWAP1 SSTORE POP PUSH1 0x40 DUP3 ADD MLOAD DUP2 PUSH1 0x2 ADD SWAP1 DUP2 PUSH2 0x1C0 SWAP2 SWAP1 PUSH2 0xEBE JUMP JUMPDEST POP PUSH1 0x60 DUP3 ADD MLOAD DUP2 PUSH1 0x3 ADD SWAP1 DUP2 PUSH2 0x1D6 SWAP2 SWAP1 PUSH2 0xEBE JUMP JUMPDEST POP PUSH1 0x80 DUP3 ADD MLOAD DUP2 PUSH1 0x4 ADD SWAP1 DUP2 PUSH2 0x1EC SWAP2 SWAP1 PUSH2 0xEBE JUMP JUMPDEST POP PUSH1 0xA0 DUP3 ADD MLOAD DUP2 PUSH1 0x5 ADD SSTORE PUSH1 0xC0 DUP3 ADD MLOAD DUP2 PUSH1 0x6 ADD SSTORE PUSH1 0xE0 DUP3 ADD MLOAD DUP2 PUSH1 0x7 ADD SSTORE PUSH2 0x100 DUP3 ADD MLOAD DUP2 PUSH1 0x8 ADD SSTORE PUSH2 0x120 DUP3 ADD MLOAD DUP2 PUSH1 0x9 ADD PUSH1 0x0 PUSH2 0x100 EXP DUP2 SLOAD DUP2 PUSH1 0xFF MUL NOT AND SWAP1 DUP4 ISZERO ISZERO MUL OR SWAP1 SSTORE POP PUSH2 0x140 DUP3 ADD MLOAD DUP2 PUSH1 0x9 ADD PUSH1 0x1 PUSH2 0x100 EXP DUP2 SLOAD DUP2 PUSH1 0xFF MUL NOT AND SWAP1 DUP4 ISZERO ISZERO MUL OR SWAP1 SSTORE POP PUSH2 0x160 DUP3 ADD MLOAD DUP2 PUSH1 0x9 ADD PUSH1 0x2 PUSH2 0x100 EXP DUP2 SLOAD DUP2 PUSH1 0xFF MUL NOT AND SWAP1 DUP4 ISZERO ISZERO MUL OR SWAP1 SSTORE POP PUSH2 0x180 DUP3 ADD MLOAD DUP2 PUSH1 0xA ADD SSTORE PUSH2 0x1A0 DUP3 ADD MLOAD DUP2 PUSH1 0xB ADD PUSH1 0x0 PUSH2 0x100 EXP DUP2 SLOAD DUP2 PUSH1 0xFF MUL NOT AND SWAP1 DUP4 ISZERO ISZERO MUL OR SWAP1 SSTORE POP PUSH2 0x1C0 DUP3 ADD MLOAD DUP2 PUSH1 0xB ADD PUSH1 0x1 PUSH2 0x100 EXP DUP2 SLOAD DUP2 PUSH1 0xFF MUL NOT AND SWAP1 DUP4 ISZERO ISZERO MUL OR SWAP1 SSTORE POP PUSH2 0x1E0 DUP3 ADD MLOAD DUP2 PUSH1 0xC ADD SSTORE PUSH2 0x200 DUP3 ADD MLOAD DUP2 PUSH1 0xD ADD SSTORE POP POP PUSH1 0x1 PUSH1 0x0 DUP2 SLOAD DUP1 SWAP3 SWAP2 SWAP1 PUSH2 0x2F1 SWAP1 PUSH2 0xFBF JUMP JUMPDEST SWAP2 SWAP1 POP SSTORE POP POP POP POP POP POP POP POP POP POP POP JUMP JUMPDEST PUSH2 0x30A PUSH2 0x67C JUMP JUMPDEST PUSH1 0x0 JUMPDEST PUSH1 0x0 DUP1 SLOAD SWAP1 POP DUP2 LT ISZERO PUSH2 0x657 JUMPI PUSH1 0x0 DUP1 DUP3 DUP2 SLOAD DUP2 LT PUSH2 0x32F JUMPI PUSH2 0x32E PUSH2 0x1007 JUMP JUMPDEST JUMPDEST SWAP1 PUSH1 0x0 MSTORE PUSH1 0x20 PUSH1 0x0 KECCAK256 SWAP1 PUSH1 0xE MUL ADD PUSH1 0x40 MLOAD DUP1 PUSH2 0x220 ADD PUSH1 0x40 MSTORE SWAP1 DUP2 PUSH1 0x0 DUP3 ADD SLOAD DUP2 MSTORE PUSH1 0x20 ADD PUSH1 0x1 DUP3 ADD PUSH1 0x0 SWAP1 SLOAD SWAP1 PUSH2 0x100 EXP SWAP1 DIV PUSH20 0xFFFFFFFFFFFFFFFFFFFFFFFFFFFFFFFFFFFFFFFF AND PUSH20 0xFFFFFFFFFFFFFFFFFFFFFFFFFFFFFFFFFFFFFFFF AND PUSH20 0xFFFFFFFFFFFFFFFFFFFFFFFFFFFFFFFFFFFFFFFF AND DUP2 MSTORE PUSH1 0x20 ADD PUSH1 0x2 DUP3 ADD DUP1 SLOAD PUSH2 0x3B9 SWAP1 PUSH2 0xCE1 JUMP JUMPDEST DUP1 PUSH1 0x1F ADD PUSH1 0x20 DUP1 SWAP2 DIV MUL PUSH1 0x20 ADD PUSH1 0x40 MLOAD SWAP1 DUP2 ADD PUSH1 0x40 MSTORE DUP1 SWAP3 SWAP2 SWAP1 DUP2 DUP2 MSTORE PUSH1 0x20 ADD DUP3 DUP1 SLOAD PUSH2 0x3E5 SWAP1 PUSH2 0xCE1 JUMP JUMPDEST DUP1 ISZERO PUSH2 0x432 JUMPI DUP1 PUSH1 0x1F LT PUSH2 0x407 JUMPI PUSH2 0x100 DUP1 DUP4 SLOAD DIV MUL DUP4 MSTORE SWAP2 PUSH1 0x20 ADD SWAP2 PUSH2 0x432 JUMP JUMPDEST DUP3 ADD SWAP2 SWAP1 PUSH1 0x0 MSTORE PUSH1 0x20 PUSH1 0x0 KECCAK256 SWAP1 JUMPDEST DUP2 SLOAD DUP2 MSTORE SWAP1 PUSH1 0x1 ADD SWAP1 PUSH1 0x20 ADD DUP1 DUP4 GT PUSH2 0x415 JUMPI DUP3 SWAP1 SUB PUSH1 0x1F AND DUP3 ADD SWAP2 JUMPDEST POP POP POP POP POP DUP2 MSTORE PUSH1 0x20 ADD PUSH1 0x3 DUP3 ADD DUP1 SLOAD PUSH2 0x44B SWAP1 PUSH2 0xCE1 JUMP JUMPDEST DUP1 PUSH1 0x1F ADD PUSH1 0x20 DUP1 SWAP2 DIV MUL PUSH1 0x20 ADD PUSH1 0x40 MLOAD SWAP1 DUP2 ADD PUSH1 0x40 MSTORE DUP1 SWAP3 SWAP2 SWAP1 DUP2 DUP2 MSTORE PUSH1 0x20 ADD DUP3 DUP1 SLOAD PUSH2 0x477 SWAP1 PUSH2 0xCE1 JUMP JUMPDEST DUP1 ISZERO PUSH2 0x4C4 JUMPI DUP1 PUSH1 0x1F LT PUSH2 0x499 JUMPI PUSH2 0x100 DUP1 DUP4 SLOAD DIV MUL DUP4 MSTORE SWAP2 PUSH1 0x20 ADD SWAP2 PUSH2 0x4C4 JUMP JUMPDEST DUP3 ADD SWAP2 SWAP1 PUSH1 0x0 MSTORE PUSH1 0x20 PUSH1 0x0 KECCAK256 SWAP1 JUMPDEST DUP2 SLOAD DUP2 MSTORE SWAP1 PUSH1 0x1 ADD SWAP1 PUSH1 0x20 ADD DUP1 DUP4 GT PUSH2 0x4A7 JUMPI DUP3 SWAP1 SUB PUSH1 0x1F AND DUP3 ADD SWAP2 JUMPDEST POP POP POP POP POP DUP2 MSTORE PUSH1 0x20 ADD PUSH1 0x4 DUP3 ADD DUP1 SLOAD PUSH2 0x4DD SWAP1 PUSH2 0xCE1 JUMP JUMPDEST DUP1 PUSH1 0x1F ADD PUSH1 0x20 DUP1 SWAP2 DIV MUL PUSH1 0x20 ADD PUSH1 0x40 MLOAD SWAP1 DUP2 ADD PUSH1 0x40 MSTORE DUP1 SWAP3 SWAP2 SWAP1 DUP2 DUP2 MSTORE PUSH1 0x20 ADD DUP3 DUP1 SLOAD PUSH2 0x509 SWAP1 PUSH2 0xCE1 JUMP JUMPDEST DUP1 ISZERO PUSH2 0x556 JUMPI DUP1 PUSH1 0x1F LT PUSH2 0x52B JUMPI PUSH2 0x100 DUP1 DUP4 SLOAD DIV MUL DUP4 MSTORE SWAP2 PUSH1 0x20 ADD SWAP2 PUSH2 0x556 JUMP JUMPDEST DUP3 ADD SWAP2 SWAP1 PUSH1 0x0 MSTORE PUSH1 0x20 PUSH1 0x0 KECCAK256 SWAP1 JUMPDEST DUP2 SLOAD DUP2 MSTORE SWAP1 PUSH1 0x1 ADD SWAP1 PUSH1 0x20 ADD DUP1 DUP4 GT PUSH2 0x539 JUMPI DUP3 SWAP1 SUB PUSH1 0x1F AND DUP3 ADD SWAP2 JUMPDEST POP POP POP POP POP DUP2 MSTORE PUSH1 0x20 ADD PUSH1 0x5 DUP3 ADD SLOAD DUP2 MSTORE PUSH1 0x20 ADD PUSH1 0x6 DUP3 ADD SLOAD DUP2 MSTORE PUSH1 0x20 ADD PUSH1 0x7 DUP3 ADD SLOAD DUP2 MSTORE PUSH1 0x20 ADD PUSH1 0x8 DUP3 ADD SLOAD DUP2 MSTORE PUSH1 0x20 ADD PUSH1 0x9 DUP3 ADD PUSH1 0x0 SWAP1 SLOAD SWAP1 PUSH2 0x100 EXP SWAP1 DIV PUSH1 0xFF AND ISZERO ISZERO ISZERO ISZERO DUP2 MSTORE PUSH1 0x20 ADD PUSH1 0x9 DUP3 ADD PUSH1 0x1 SWAP1 SLOAD SWAP1 PUSH2 0x100 EXP SWAP1 DIV PUSH1 0xFF AND ISZERO ISZERO ISZERO ISZERO DUP2 MSTORE PUSH1 0x20 ADD PUSH1 0x9 DUP3 ADD PUSH1 0x2 SWAP1 SLOAD SWAP1 PUSH2 0x100 EXP SWAP1 DIV PUSH1 0xFF AND ISZERO ISZERO ISZERO ISZERO DUP2 MSTORE PUSH1 0x20 ADD PUSH1 0xA DUP3 ADD SLOAD DUP2 MSTORE PUSH1 0x20 ADD PUSH1 0xB DUP3 ADD PUSH1 0x0 SWAP1 SLOAD SWAP1 PUSH2 0x100 EXP SWAP1 DIV PUSH1 0xFF AND ISZERO ISZERO ISZERO ISZERO DUP2 MSTORE PUSH1 0x20 ADD PUSH1 0xB DUP3 ADD PUSH1 0x1 SWAP1 SLOAD SWAP1 PUSH2 0x100 EXP SWAP1 DIV PUSH1 0xFF AND ISZERO ISZERO ISZERO ISZERO DUP2 MSTORE PUSH1 0x20 ADD PUSH1 0xC DUP3 ADD SLOAD DUP2 MSTORE PUSH1 0x20 ADD PUSH1 0xD DUP3 ADD SLOAD DUP2 MSTORE POP POP SWAP1 POP DUP4 DUP2 PUSH1 0x0 ADD MLOAD SUB PUSH2 0x643 JUMPI DUP1 SWAP3 POP POP POP PUSH2 0x677 JUMP JUMPDEST POP DUP1 DUP1 PUSH2 0x64F SWAP1 PUSH2 0xFBF JUMP JUMPDEST SWAP2 POP POP PUSH2 0x30D JUMP JUMPDEST POP PUSH2 0x660 PUSH2 0x67C JUMP JUMPDEST PUSH1 0x1 DUP2 PUSH2 0x120 ADD SWAP1 ISZERO ISZERO SWAP1 DUP2 ISZERO ISZERO DUP2 MSTORE POP POP DUP1 SWAP2 POP POP JUMPDEST SWAP2 SWAP1 POP JUMP JUMPDEST PUSH1 0x40 MLOAD DUP1 PUSH2 0x220 ADD PUSH1 0x40 MSTORE DUP1 PUSH1 0x0 DUP2 MSTORE PUSH1 0x20 ADD PUSH1 0x0 PUSH20 0xFFFFFFFFFFFFFFFFFFFFFFFFFFFFFFFFFFFFFFFF AND DUP2 MSTORE PUSH1 0x20 ADD PUSH1 0x60 DUP2 MSTORE PUSH1 0x20 ADD PUSH1 0x60 DUP2 MSTORE PUSH1 0x20 ADD PUSH1 0x60 DUP2 MSTORE PUSH1 0x20 ADD PUSH1 0x0 DUP2 MSTORE PUSH1 0x20 ADD PUSH1 0x0 DUP2 MSTORE PUSH1 0x20 ADD PUSH1 0x0 DUP2 MSTORE PUSH1 0x20 ADD PUSH1 0x0 DUP2 MSTORE PUSH1 0x20 ADD PUSH1 0x0 ISZERO ISZERO DUP2 MSTORE PUSH1 0x20 ADD PUSH1 0x0 ISZERO ISZERO DUP2 MSTORE PUSH1 0x20 ADD PUSH1 0x0 ISZERO ISZERO DUP2 MSTORE PUSH1 0x20 ADD PUSH1 0x0 DUP2 MSTORE PUSH1 0x20 ADD PUSH1 0x0 ISZERO ISZERO DUP2 MSTORE PUSH1 0x20 ADD PUSH1 0x0 ISZERO ISZERO DUP2 MSTORE PUSH1 0x20 ADD PUSH1 0x0 DUP2 MSTORE PUSH1 0x20 ADD PUSH1 0x0 DUP2 MSTORE POP SWAP1 JUMP JUMPDEST PUSH1 0x0 PUSH1 0x40 MLOAD SWAP1 POP SWAP1 JUMP JUMPDEST PUSH1 0x0 DUP1 REVERT JUMPDEST PUSH1 0x0 DUP1 REVERT JUMPDEST PUSH1 0x0 DUP1 REVERT JUMPDEST PUSH1 0x0 DUP1 REVERT JUMPDEST PUSH1 0x0 PUSH1 0x1F NOT PUSH1 0x1F DUP4 ADD AND SWAP1 POP SWAP2 SWAP1 POP JUMP JUMPDEST PUSH32 0x4E487B7100000000000000000000000000000000000000000000000000000000 PUSH1 0x0 MSTORE PUSH1 0x41 PUSH1 0x4 MSTORE PUSH1 0x24 PUSH1 0x0 REVERT JUMPDEST PUSH2 0x787 DUP3 PUSH2 0x73E JUMP JUMPDEST DUP2 ADD DUP2 DUP2 LT PUSH8 0xFFFFFFFFFFFFFFFF DUP3 GT OR ISZERO PUSH2 0x7A6 JUMPI PUSH2 0x7A5 PUSH2 0x74F JUMP JUMPDEST JUMPDEST DUP1 PUSH1 0x40 MSTORE POP POP POP JUMP JUMPDEST PUSH1 0x0 PUSH2 0x7B9 PUSH2 0x720 JUMP JUMPDEST SWAP1 POP PUSH2 0x7C5 DUP3 DUP3 PUSH2 0x77E JUMP JUMPDEST SWAP2 SWAP1 POP JUMP JUMPDEST PUSH1 0x0 PUSH8 0xFFFFFFFFFFFFFFFF DUP3 GT ISZERO PUSH2 0x7E5 JUMPI PUSH2 0x7E4 PUSH2 0x74F JUMP JUMPDEST JUMPDEST PUSH2 0x7EE DUP3 PUSH2 0x73E JUMP JUMPDEST SWAP1 POP PUSH1 0x20 DUP2 ADD SWAP1 POP SWAP2 SWAP1 POP JUMP JUMPDEST DUP3 DUP2 DUP4 CALLDATACOPY PUSH1 0x0 DUP4 DUP4 ADD MSTORE POP POP POP JUMP JUMPDEST PUSH1 0x0 PUSH2 0x81D PUSH2 0x818 DUP5 PUSH2 0x7CA JUMP JUMPDEST PUSH2 0x7AF JUMP JUMPDEST SWAP1 POP DUP3 DUP2 MSTORE PUSH1 0x20 DUP2 ADD DUP5 DUP5 DUP5 ADD GT ISZERO PUSH2 0x839 JUMPI PUSH2 0x838 PUSH2 0x739 JUMP JUMPDEST JUMPDEST PUSH2 0x844 DUP5 DUP3 DUP6 PUSH2 0x7FB JUMP JUMPDEST POP SWAP4 SWAP3 POP POP POP JUMP JUMPDEST PUSH1 0x0 DUP3 PUSH1 0x1F DUP4 ADD SLT PUSH2 0x861 JUMPI PUSH2 0x860 PUSH2 0x734 JUMP JUMPDEST JUMPDEST DUP2 CALLDATALOAD PUSH2 0x871 DUP5 DUP3 PUSH1 0x20 DUP7 ADD PUSH2 0x80A JUMP JUMPDEST SWAP2 POP POP SWAP3 SWAP2 POP POP JUMP JUMPDEST PUSH1 0x0 DUP2 SWAP1 POP SWAP2 SWAP1 POP JUMP JUMPDEST PUSH2 0x88D DUP2 PUSH2 0x87A JUMP JUMPDEST DUP2 EQ PUSH2 0x898 JUMPI PUSH1 0x0 DUP1 REVERT JUMPDEST POP JUMP JUMPDEST PUSH1 0x0 DUP2 CALLDATALOAD SWAP1 POP PUSH2 0x8AA DUP2 PUSH2 0x884 JUMP JUMPDEST SWAP3 SWAP2 POP POP JUMP JUMPDEST PUSH1 0x0 DUP2 ISZERO ISZERO SWAP1 POP SWAP2 SWAP1 POP JUMP JUMPDEST PUSH2 0x8C5 DUP2 PUSH2 0x8B0 JUMP JUMPDEST DUP2 EQ PUSH2 0x8D0 JUMPI PUSH1 0x0 DUP1 REVERT JUMPDEST POP JUMP JUMPDEST PUSH1 0x0 DUP2 CALLDATALOAD SWAP1 POP PUSH2 0x8E2 DUP2 PUSH2 0x8BC JUMP JUMPDEST SWAP3 SWAP2 POP POP JUMP JUMPDEST PUSH1 0x0 PUSH20 0xFFFFFFFFFFFFFFFFFFFFFFFFFFFFFFFFFFFFFFFF DUP3 AND SWAP1 POP SWAP2 SWAP1 POP JUMP JUMPDEST PUSH1 0x0 PUSH2 0x913 DUP3 PUSH2 0x8E8 JUMP JUMPDEST SWAP1 POP SWAP2 SWAP1 POP JUMP JUMPDEST PUSH2 0x923 DUP2 PUSH2 0x908 JUMP JUMPDEST DUP2 EQ PUSH2 0x92E JUMPI PUSH1 0x0 DUP1 REVERT JUMPDEST POP JUMP JUMPDEST PUSH1 0x0 DUP2 CALLDATALOAD SWAP1 POP PUSH2 0x940 DUP2 PUSH2 0x91A JUMP JUMPDEST SWAP3 SWAP2 POP POP JUMP JUMPDEST PUSH1 0x0 DUP1 PUSH1 0x0 DUP1 PUSH1 0x0 DUP1 PUSH1 0x0 PUSH1 0xE0 DUP9 DUP11 SUB SLT ISZERO PUSH2 0x965 JUMPI PUSH2 0x964 PUSH2 0x72A JUMP JUMPDEST JUMPDEST PUSH1 0x0 DUP9 ADD CALLDATALOAD PUSH8 0xFFFFFFFFFFFFFFFF DUP2 GT ISZERO PUSH2 0x983 JUMPI PUSH2 0x982 PUSH2 0x72F JUMP JUMPDEST JUMPDEST PUSH2 0x98F DUP11 DUP3 DUP12 ADD PUSH2 0x84C JUMP JUMPDEST SWAP8 POP POP PUSH1 0x20 DUP9 ADD CALLDATALOAD PUSH8 0xFFFFFFFFFFFFFFFF DUP2 GT ISZERO PUSH2 0x9B0 JUMPI PUSH2 0x9AF PUSH2 0x72F JUMP JUMPDEST JUMPDEST PUSH2 0x9BC DUP11 DUP3 DUP12 ADD PUSH2 0x84C JUMP JUMPDEST SWAP7 POP POP PUSH1 0x40 DUP9 ADD CALLDATALOAD PUSH8 0xFFFFFFFFFFFFFFFF DUP2 GT ISZERO PUSH2 0x9DD JUMPI PUSH2 0x9DC PUSH2 0x72F JUMP JUMPDEST JUMPDEST PUSH2 0x9E9 DUP11 DUP3 DUP12 ADD PUSH2 0x84C JUMP JUMPDEST SWAP6 POP POP PUSH1 0x60 PUSH2 0x9FA DUP11 DUP3 DUP12 ADD PUSH2 0x89B JUMP JUMPDEST SWAP5 POP POP PUSH1 0x80 PUSH2 0xA0B DUP11 DUP3 DUP12 ADD PUSH2 0x89B JUMP JUMPDEST SWAP4 POP POP PUSH1 0xA0 PUSH2 0xA1C DUP11 DUP3 DUP12 ADD PUSH2 0x8D3 JUMP JUMPDEST SWAP3 POP POP PUSH1 0xC0 PUSH2 0xA2D DUP11 DUP3 DUP12 ADD PUSH2 0x931 JUMP JUMPDEST SWAP2 POP POP SWAP3 SWAP6 SWAP9 SWAP2 SWAP5 SWAP8 POP SWAP3 SWAP6 POP JUMP JUMPDEST PUSH1 0x0 PUSH1 0x20 DUP3 DUP5 SUB SLT ISZERO PUSH2 0xA52 JUMPI PUSH2 0xA51 PUSH2 0x72A JUMP JUMPDEST JUMPDEST PUSH1 0x0 PUSH2 0xA60 DUP5 DUP3 DUP6 ADD PUSH2 0x89B JUMP JUMPDEST SWAP2 POP POP SWAP3 SWAP2 POP POP JUMP JUMPDEST PUSH2 0xA72 DUP2 PUSH2 0x87A JUMP JUMPDEST DUP3 MSTORE POP POP JUMP JUMPDEST PUSH2 0xA81 DUP2 PUSH2 0x908 JUMP JUMPDEST DUP3 MSTORE POP POP JUMP JUMPDEST PUSH1 0x0 DUP2 MLOAD SWAP1 POP SWAP2 SWAP1 POP JUMP JUMPDEST PUSH1 0x0 DUP3 DUP3 MSTORE PUSH1 0x20 DUP3 ADD SWAP1 POP SWAP3 SWAP2 POP POP JUMP JUMPDEST PUSH1 0x0 JUMPDEST DUP4 DUP2 LT ISZERO PUSH2 0xAC1 JUMPI DUP1 DUP3 ADD MLOAD DUP2 DUP5 ADD MSTORE PUSH1 0x20 DUP2 ADD SWAP1 POP PUSH2 0xAA6 JUMP JUMPDEST PUSH1 0x0 DUP5 DUP5 ADD MSTORE POP POP POP POP JUMP JUMPDEST PUSH1 0x0 PUSH2 0xAD8 DUP3 PUSH2 0xA87 JUMP JUMPDEST PUSH2 0xAE2 DUP2 DUP6 PUSH2 0xA92 JUMP JUMPDEST SWAP4 POP PUSH2 0xAF2 DUP2 DUP6 PUSH1 0x20 DUP7 ADD PUSH2 0xAA3 JUMP JUMPDEST PUSH2 0xAFB DUP2 PUSH2 0x73E JUMP JUMPDEST DUP5 ADD SWAP2 POP POP SWAP3 SWAP2 POP POP JUMP JUMPDEST PUSH2 0xB0F DUP2 PUSH2 0x8B0 JUMP JUMPDEST DUP3 MSTORE POP POP JUMP JUMPDEST PUSH1 0x0 PUSH2 0x220 DUP4 ADD PUSH1 0x0 DUP4 ADD MLOAD PUSH2 0xB2E PUSH1 0x0 DUP7 ADD DUP3 PUSH2 0xA69 JUMP JUMPDEST POP PUSH1 0x20 DUP4 ADD MLOAD PUSH2 0xB41 PUSH1 0x20 DUP7 ADD DUP3 PUSH2 0xA78 JUMP JUMPDEST POP PUSH1 0x40 DUP4 ADD MLOAD DUP5 DUP3 SUB PUSH1 0x40 DUP7 ADD MSTORE PUSH2 0xB59 DUP3 DUP3 PUSH2 0xACD JUMP JUMPDEST SWAP2 POP POP PUSH1 0x60 DUP4 ADD MLOAD DUP5 DUP3 SUB PUSH1 0x60 DUP7 ADD MSTORE PUSH2 0xB73 DUP3 DUP3 PUSH2 0xACD JUMP JUMPDEST SWAP2 POP POP PUSH1 0x80 DUP4 ADD MLOAD DUP5 DUP3 SUB PUSH1 0x80 DUP7 ADD MSTORE PUSH2 0xB8D DUP3 DUP3 PUSH2 0xACD JUMP JUMPDEST SWAP2 POP POP PUSH1 0xA0 DUP4 ADD MLOAD PUSH2 0xBA2 PUSH1 0xA0 DUP7 ADD DUP3 PUSH2 0xA69 JUMP JUMPDEST POP PUSH1 0xC0 DUP4 ADD MLOAD PUSH2 0xBB5 PUSH1 0xC0 DUP7 ADD DUP3 PUSH2 0xA69 JUMP JUMPDEST POP PUSH1 0xE0 DUP4 ADD MLOAD PUSH2 0xBC8 PUSH1 0xE0 DUP7 ADD DUP3 PUSH2 0xA69 JUMP JUMPDEST POP PUSH2 0x100 DUP4 ADD MLOAD PUSH2 0xBDD PUSH2 0x100 DUP7 ADD DUP3 PUSH2 0xA69 JUMP JUMPDEST POP PUSH2 0x120 DUP4 ADD MLOAD PUSH2 0xBF2 PUSH2 0x120 DUP7 ADD DUP3 PUSH2 0xB06 JUMP JUMPDEST POP PUSH2 0x140 DUP4 ADD MLOAD PUSH2 0xC07 PUSH2 0x140 DUP7 ADD DUP3 PUSH2 0xB06 JUMP JUMPDEST POP PUSH2 0x160 DUP4 ADD MLOAD PUSH2 0xC1C PUSH2 0x160 DUP7 ADD DUP3 PUSH2 0xB06 JUMP JUMPDEST POP PUSH2 0x180 DUP4 ADD MLOAD PUSH2 0xC31 PUSH2 0x180 DUP7 ADD DUP3 PUSH2 0xA69 JUMP JUMPDEST POP PUSH2 0x1A0 DUP4 ADD MLOAD PUSH2 0xC46 PUSH2 0x1A0 DUP7 ADD DUP3 PUSH2 0xB06 JUMP JUMPDEST POP PUSH2 0x1C0 DUP4 ADD MLOAD PUSH2 0xC5B PUSH2 0x1C0 DUP7 ADD DUP3 PUSH2 0xB06 JUMP JUMPDEST POP PUSH2 0x1E0 DUP4 ADD MLOAD PUSH2 0xC70 PUSH2 0x1E0 DUP7 ADD DUP3 PUSH2 0xA69 JUMP JUMPDEST POP PUSH2 0x200 DUP4 ADD MLOAD PUSH2 0xC85 PUSH2 0x200 DUP7 ADD DUP3 PUSH2 0xA69 JUMP JUMPDEST POP DUP1 SWAP2 POP POP SWAP3 SWAP2 POP POP JUMP JUMPDEST PUSH1 0x0 PUSH1 0x20 DUP3 ADD SWAP1 POP DUP2 DUP2 SUB PUSH1 0x0 DUP4 ADD MSTORE PUSH2 0xCAA DUP2 DUP5 PUSH2 0xB15 JUMP JUMPDEST SWAP1 POP SWAP3 SWAP2 POP POP JUMP JUMPDEST PUSH32 0x4E487B7100000000000000000000000000000000000000000000000000000000 PUSH1 0x0 MSTORE PUSH1 0x22 PUSH1 0x4 MSTORE PUSH1 0x24 PUSH1 0x0 REVERT JUMPDEST PUSH1 0x0 PUSH1 0x2 DUP3 DIV SWAP1 POP PUSH1 0x1 DUP3 AND DUP1 PUSH2 0xCF9 JUMPI PUSH1 0x7F DUP3 AND SWAP2 POP JUMPDEST PUSH1 0x20 DUP3 LT DUP2 SUB PUSH2 0xD0C JUMPI PUSH2 0xD0B PUSH2 0xCB2 JUMP JUMPDEST JUMPDEST POP SWAP2 SWAP1 POP JUMP JUMPDEST PUSH1 0x0 DUP2 SWAP1 POP DUP2 PUSH1 0x0 MSTORE PUSH1 0x20 PUSH1 0x0 KECCAK256 SWAP1 POP SWAP2 SWAP1 POP JUMP JUMPDEST PUSH1 0x0 PUSH1 0x20 PUSH1 0x1F DUP4 ADD DIV SWAP1 POP SWAP2 SWAP1 POP JUMP JUMPDEST PUSH1 0x0 DUP3 DUP3 SHL SWAP1 POP SWAP3 SWAP2 POP POP JUMP JUMPDEST PUSH1 0x0 PUSH1 0x8 DUP4 MUL PUSH2 0xD74 PUSH32 0xFFFFFFFFFFFFFFFFFFFFFFFFFFFFFFFFFFFFFFFFFFFFFFFFFFFFFFFFFFFFFFFF DUP3 PUSH2 0xD37 JUMP JUMPDEST PUSH2 0xD7E DUP7 DUP4 PUSH2 0xD37 JUMP JUMPDEST SWAP6 POP DUP1 NOT DUP5 AND SWAP4 POP DUP1 DUP7 AND DUP5 OR SWAP3 POP POP POP SWAP4 SWAP3 POP POP POP JUMP JUMPDEST PUSH1 0x0 DUP2 SWAP1 POP SWAP2 SWAP1 POP JUMP JUMPDEST PUSH1 0x0 PUSH2 0xDBB PUSH2 0xDB6 PUSH2 0xDB1 DUP5 PUSH2 0x87A JUMP JUMPDEST PUSH2 0xD96 JUMP JUMPDEST PUSH2 0x87A JUMP JUMPDEST SWAP1 POP SWAP2 SWAP1 POP JUMP JUMPDEST PUSH1 0x0 DUP2 SWAP1 POP SWAP2 SWAP1 POP JUMP JUMPDEST PUSH2 0xDD5 DUP4 PUSH2 0xDA0 JUMP JUMPDEST PUSH2 0xDE9 PUSH2 0xDE1 DUP3 PUSH2 0xDC2 JUMP JUMPDEST DUP5 DUP5 SLOAD PUSH2 0xD44 JUMP JUMPDEST DUP3 SSTORE POP POP POP POP JUMP JUMPDEST PUSH1 0x0 SWAP1 JUMP JUMPDEST PUSH2 0xDFE PUSH2 0xDF1 JUMP JUMPDEST PUSH2 0xE09 DUP2 DUP5 DUP5 PUSH2 0xDCC JUMP JUMPDEST POP POP POP JUMP JUMPDEST JUMPDEST DUP2 DUP2 LT ISZERO PUSH2 0xE2D JUMPI PUSH2 0xE22 PUSH1 0x0 DUP3 PUSH2 0xDF6 JUMP JUMPDEST PUSH1 0x1 DUP2 ADD SWAP1 POP PUSH2 0xE0F JUMP JUMPDEST POP POP JUMP JUMPDEST PUSH1 0x1F DUP3 GT ISZERO PUSH2 0xE72 JUMPI PUSH2 0xE43 DUP2 PUSH2 0xD12 JUMP JUMPDEST PUSH2 0xE4C DUP5 PUSH2 0xD27 JUMP JUMPDEST DUP2 ADD PUSH1 0x20 DUP6 LT ISZERO PUSH2 0xE5B JUMPI DUP2 SWAP1 POP JUMPDEST PUSH2 0xE6F PUSH2 0xE67 DUP6 PUSH2 0xD27 JUMP JUMPDEST DUP4 ADD DUP3 PUSH2 0xE0E JUMP JUMPDEST POP POP JUMPDEST POP POP POP JUMP JUMPDEST PUSH1 0x0 DUP3 DUP3 SHR SWAP1 POP SWAP3 SWAP2 POP POP JUMP JUMPDEST PUSH1 0x0 PUSH2 0xE95 PUSH1 0x0 NOT DUP5 PUSH1 0x8 MUL PUSH2 0xE77 JUMP JUMPDEST NOT DUP1 DUP4 AND SWAP2 POP POP SWAP3 SWAP2 POP POP JUMP JUMPDEST PUSH1 0x0 PUSH2 0xEAE DUP4 DUP4 PUSH2 0xE84 JUMP JUMPDEST SWAP2 POP DUP3 PUSH1 0x2 MUL DUP3 OR SWAP1 POP SWAP3 SWAP2 POP POP JUMP JUMPDEST PUSH2 0xEC7 DUP3 PUSH2 0xA87 JUMP JUMPDEST PUSH8 0xFFFFFFFFFFFFFFFF DUP2 GT ISZERO PUSH2 0xEE0 JUMPI PUSH2 0xEDF PUSH2 0x74F JUMP JUMPDEST JUMPDEST PUSH2 0xEEA DUP3 SLOAD PUSH2 0xCE1 JUMP JUMPDEST PUSH2 0xEF5 DUP3 DUP3 DUP6 PUSH2 0xE31 JUMP JUMPDEST PUSH1 0x0 PUSH1 0x20 SWAP1 POP PUSH1 0x1F DUP4 GT PUSH1 0x1 DUP2 EQ PUSH2 0xF28 JUMPI PUSH1 0x0 DUP5 ISZERO PUSH2 0xF16 JUMPI DUP3 DUP8 ADD MLOAD SWAP1 POP JUMPDEST PUSH2 0xF20 DUP6 DUP3 PUSH2 0xEA2 JUMP JUMPDEST DUP7 SSTORE POP PUSH2 0xF88 JUMP JUMPDEST PUSH1 0x1F NOT DUP5 AND PUSH2 0xF36 DUP7 PUSH2 0xD12 JUMP JUMPDEST PUSH1 0x0 JUMPDEST DUP3 DUP2 LT ISZERO PUSH2 0xF5E JUMPI DUP5 DUP10 ADD MLOAD DUP3 SSTORE PUSH1 0x1 DUP3 ADD SWAP2 POP PUSH1 0x20 DUP6 ADD SWAP5 POP PUSH1 0x20 DUP2 ADD SWAP1 POP PUSH2 0xF39 JUMP JUMPDEST DUP7 DUP4 LT ISZERO PUSH2 0xF7B JUMPI DUP5 DUP10 ADD MLOAD PUSH2 0xF77 PUSH1 0x1F DUP10 AND DUP3 PUSH2 0xE84 JUMP JUMPDEST DUP4 SSTORE POP JUMPDEST PUSH1 0x1 PUSH1 0x2 DUP9 MUL ADD DUP9 SSTORE POP POP POP JUMPDEST POP POP POP POP POP POP JUMP JUMPDEST PUSH32 0x4E487B7100000000000000000000000000000000000000000000000000000000 PUSH1 0x0 MSTORE PUSH1 0x11 PUSH1 0x4 MSTORE PUSH1 0x24 PUSH1 0x0 REVERT JUMPDEST PUSH1 0x0 PUSH2 0xFCA DUP3 PUSH2 0x87A JUMP JUMPDEST SWAP2 POP PUSH32 0xFFFFFFFFFFFFFFFFFFFFFFFFFFFFFFFFFFFFFFFFFFFFFFFFFFFFFFFFFFFFFFFF DUP3 SUB PUSH2 0xFFC JUMPI PUSH2 0xFFB PUSH2 0xF90 JUMP JUMPDEST JUMPDEST PUSH1 0x1 DUP3 ADD SWAP1 POP SWAP2 SWAP1 POP JUMP JUMPDEST PUSH32 0x4E487B7100000000000000000000000000000000000000000000000000000000 PUSH1 0x0 MSTORE PUSH1 0x32 PUSH1 0x4 MSTORE PUSH1 0x24 PUSH1 0x0 REVERT INVALID LOG2 PUSH5 0x6970667358 0x22 SLT KECCAK256 0xB6 RETURNDATACOPY PUSH13 0xD024C95EE926FD6B74D02F8CF4 0xAA SWAP5 CALLCODE SWAP6 0xE4 SMOD 0xF9 ADD CHAINID MUL 0xE SSTORE SWAP2 INVALID DUP9 0x4E PUSH5 0x736F6C6343 STOP ADDMOD SGT STOP CALLER "
		},
		"gasEstimates": {
			"creation": {
				"codeDepositCost": "840800",
				"executionCost": "877",
				"totalCost": "841677"
			},
			"external": {
				"createEvent(string,string,string,uint256,uint256,bool,address)": "infinite",
				"getEventById(uint256)": "infinite"
			}
		},
		"methodIdentifiers": {
			"createEvent(string,string,string,uint256,uint256,bool,address)": "891918ca",
			"getEventById(uint256)": "b98079bc"
		}
	},
	"abi": [
		{
			"inputs": [
				{
					"internalType": "string",
					"name": "_title",
					"type": "string"
				},
				{
					"internalType": "string",
					"name": "_description",
					"type": "string"
				},
				{
					"internalType": "string",
					"name": "_link",
					"type": "string"
				},
				{
					"internalType": "uint256",
					"name": "_amount",
					"type": "uint256"
				},
				{
					"internalType": "uint256",
					"name": "_dateAndTime",
					"type": "uint256"
				},
				{
					"internalType": "bool",
					"name": "_forImmediatePublishing",
					"type": "bool"
				},
				{
					"internalType": "address",
					"name": "_creatingUserWalletAddress",
					"type": "address"
				}
			],
			"name": "createEvent",
			"outputs": [],
			"stateMutability": "nonpayable",
			"type": "function"
		},
		{
			"inputs": [
				{
					"internalType": "uint256",
					"name": "_eventId",
					"type": "uint256"
				}
			],
			"name": "getEventById",
			"outputs": [
				{
					"components": [
						{
							"internalType": "uint256",
							"name": "id",
							"type": "uint256"
						},
						{
							"internalType": "address",
							"name": "creatingUserWalletAddress",
							"type": "address"
						},
						{
							"internalType": "string",
							"name": "title",
							"type": "string"
						},
						{
							"internalType": "string",
							"name": "description",
							"type": "string"
						},
						{
							"internalType": "string",
							"name": "link",
							"type": "string"
						},
						{
							"internalType": "uint256",
							"name": "amountInEthers",
							"type": "uint256"
						},
						{
							"internalType": "uint256",
							"name": "createdAt",
							"type": "uint256"
						},
						{
							"internalType": "uint256",
							"name": "updatedAt",
							"type": "uint256"
						},
						{
							"internalType": "uint256",
							"name": "dateAndTime",
							"type": "uint256"
						},
						{
							"internalType": "bool",
							"name": "isBlank",
							"type": "bool"
						},
						{
							"internalType": "bool",
							"name": "isPublished",
							"type": "bool"
						},
						{
							"internalType": "bool",
							"name": "isVerified",
							"type": "bool"
						},
						{
							"internalType": "uint256",
							"name": "verificationAmountInEthers",
							"type": "uint256"
						},
						{
							"internalType": "bool",
							"name": "isEnded",
							"type": "bool"
						},
						{
							"internalType": "bool",
							"name": "isPaidOut",
							"type": "bool"
						},
						{
							"internalType": "uint256",
							"name": "verificationRequestId",
							"type": "uint256"
						},
						{
							"internalType": "uint256",
							"name": "verificationId",
							"type": "uint256"
						}
					],
					"internalType": "struct StekcitEvent",
					"name": "",
					"type": "tuple"
				}
			],
			"stateMutability": "view",
			"type": "function"
		}
	]
}