{
	"data": {
		"bytecode": {
			"linkReferences": {},
			"object": "60c0604052600e80546001600160a01b0319908116735425890298aed601595a70ab815c96711a31bc6517909155600f80548216730b9d5d9136855f6fec3c0993fee6e9ce8a297846179055601080548216735c210ef41cd1a72de73bf76ec39637bb0d3d7bee1790556011805490911673a9d587a00a31a52ed70d6026794a8fc5e2f5dcb01790557fc799bd1e3bd4d1a41cd4968997a4e03dfd2a3c7c04b695881138580163f42887601255348015620000b957600080fd5b506040516200628038038062006280833981016040819052620000dc916200028a565b6010546011546001600160a01b03908116608052163380600081620001485760405162461bcd60e51b815260206004820152601860248201527f43616e6e6f7420736574206f776e657220746f207a65726f000000000000000060448201526064015b60405180910390fd5b600080546001600160a01b0319166001600160a01b03848116919091179091558116156200017b576200017b81620001df565b5050506001600160a01b038116620001a65760405163d92e233d60e01b815260040160405180910390fd5b600280546001600160a01b039283166001600160a01b031991821617909155600780549490921693169290921790915560a052620002c6565b336001600160a01b03821603620002395760405162461bcd60e51b815260206004820152601760248201527f43616e6e6f74207472616e7366657220746f2073656c6600000000000000000060448201526064016200013f565b600180546001600160a01b0319166001600160a01b0383811691821790925560008054604051929316917fed8889f560326eb138920d842192f0eb3dd22b4f139c87a2c57538e05bae12789190a350565b600080604083850312156200029e57600080fd5b82516001600160a01b0381168114620002b657600080fd5b6020939093015192949293505050565b60805160a051615f86620002fa600039600081816111410152611ad901526000818161055501526147560152615f866000f3fe608060405234801561001057600080fd5b50600436106102275760003560e01c806379ba509711610130578063ad395c14116100b8578063c5b840291161007c578063c5b84029146104f6578063cee34e7b14610509578063cfd9f3da14610511578063f2fde38b14610524578063f5caa96b1461053757600080fd5b8063ad395c1414610493578063b07c7e6c146104b3578063b98079bc146104c8578063c081ee70146104db578063c0f555f0146104e357600080fd5b80638ea98117116100ff5780638ea98117146104345780639720807c1461044757806399bb6b081461045a5780639eccacf61461046d578063abda74051461048057600080fd5b806379ba5097146103e157806387b162b5146103e957806389ee68bf146103fc5780638da5cb5b1461040f57600080fd5b80634dff247f116101b3578063666ac2fb11610182578063666ac2fb146103755780636ed6da9e146103885780637354a25f146103a8578063767a5867146103bb57806376f8cbd5146103ce57600080fd5b80634dff247f1461033457806352a81eeb146103475780635d3ee0ee1461035a57806363ff89c71461036257600080fd5b806322b1185e116101fa57806322b1185e1461029d578063235b3a3d146102bd57806324c67b03146102d05780633b902afe146102f35780634591b6661461031357600080fd5b80630ca761751461022c578063184b093814610241578063198670631461026a5780631fe543e31461028a575b600080fd5b61023f61023a36600461535c565b61054a565b005b61025461024f3660046153e4565b6105ce565b604051610261919061544b565b60405180910390f35b61027d610278366004615499565b610716565b60405161026191906154b2565b61023f6102983660046154c0565b6107e8565b6102b06102ab366004615499565b61083d565b6040516102619190615693565b6102546102cb366004615499565b610b46565b6102e36102de366004615499565b610c8b565b6040519015158152602001610261565b6103066103013660046153e4565b610d40565b60405161026191906156a6565b610326610321366004615499565b6110bd565b604051908152602001610261565b6102b0610342366004615499565b611125565b6103266103553660046157eb565b611221565b6103066112e6565b6102e3610370366004615499565b61165c565b6103266103833660046153e4565b61172a565b61039b610396366004615499565b6117ec565b604051610261919061597b565b6103266103b6366004615499565b611a02565b61027d6103c9366004615499565b611abd565b6103266103dc366004615499565b611bb2565b61023f611c6d565b61039b6103f736600461598e565b611d17565b61023f61040a366004615499565b611eac565b6000546001600160a01b03165b6040516001600160a01b039091168152602001610261565b61023f6104423660046153e4565b6125b8565b60075461041c906001600160a01b031681565b61039b6104683660046153e4565b6126aa565b60025461041c906001600160a01b031681565b61023f61048e3660046159ff565b6128ba565b6104a66104a1366004615499565b612b89565b6040516102619190615aad565b6104bb612cd4565b6040516102619190615b02565b6102b06104d6366004615499565b612d62565b6102e3613050565b61023f6104f1366004615499565b613156565b6103266105043660046153e4565b613600565b6103266138ff565b6102b061051f366004615499565b613bf7565b61023f6105323660046153e4565b613d67565b6102e3610545366004615b15565b613d7b565b336001600160a01b037f000000000000000000000000000000000000000000000000000000000000000016146105935760405163c6829f8360e01b815260040160405180910390fd5b61059e838383613de8565b60405183907f85e1543bf2f84fe80c6badbce3648c8539ad1df4d2b3d822938ca0538be727e690600090a2505050565b60606000806105dc8461172a565b6001600160401b038111156105f3576105f36152a7565b60405190808252806020026020018201604052801561062c57816020015b61061961514d565b8152602001906001900390816106115790505b50905060005b60055481101561070e5760006005828154811061065157610651615b41565b60009182526020918290206040805160e08101825260079093029091018054835260018101549383019390935260028301546001600160a01b0390811691830182905260038401546060840152600484015460ff1615156080840152600584015460a084015260069093015460c083015290925090871690036106fb57808385815181106106e1576106e1615b41565b602002602001018190525083806106f790615b6d565b9450505b508061070681615b6d565b915050610632565b509392505050565b61071e61514d565b60005b6005548110156107d25760006005828154811061074057610740615b41565b60009182526020918290206040805160e08101825260079093029091018054835260018101549383019390935260028301546001600160a01b03169082015260038201546060820152600482015460ff1615156080820152600582015460a0820181905260069092015460c082015291508490036107bf579392505050565b50806107ca81615b6d565b915050610721565b506107db61514d565b6001608082015292915050565b6002546001600160a01b0316331461082d5760025460405163073e64fd60e21b81523360048201526001600160a01b0390911660248201526044015b60405180910390fd5b6108388383836140c9565b505050565b610845615195565b60005b600454811015610b2f5760006004828154811061086757610867615b41565b90600052602060002090600e020160405180610220016040529081600082015481526020016001820160009054906101000a90046001600160a01b03166001600160a01b03166001600160a01b031681526020016002820180546108ca90615b86565b80601f01602080910402602001604051908101604052809291908181526020018280546108f690615b86565b80156109435780601f1061091857610100808354040283529160200191610943565b820191906000526020600020905b81548152906001019060200180831161092657829003601f168201915b5050505050815260200160038201805461095c90615b86565b80601f016020809104026020016040519081016040528092919081815260200182805461098890615b86565b80156109d55780601f106109aa576101008083540402835291602001916109d5565b820191906000526020600020905b8154815290600101906020018083116109b857829003601f168201915b505050505081526020016004820180546109ee90615b86565b80601f0160208091040260200160405190810160405280929190818152602001828054610a1a90615b86565b8015610a675780601f10610a3c57610100808354040283529160200191610a67565b820191906000526020600020905b815481529060010190602001808311610a4a57829003601f168201915b505050918352505060058201546020820152600682015460408201526007820154606082015260088201546080820152600982015460ff808216151560a08401526101008083048216151560c0850152620100009092048116151560e0840152600a84015482840152600b840154808216151561012085015291909104161515610140820152600c820154610160820152600d90910154610180909101526101e0810151909150849003610b1c579392505050565b5080610b2781615b6d565b915050610848565b50610b38615195565b600161012082015292915050565b6060600080610b5484611a02565b90506000816001600160401b03811115610b7057610b706152a7565b604051908082528060200260200182016040528015610ba957816020015b610b9661514d565b815260200190600190039081610b8e5790505b50905060005b82811015610c8257600060058281548110610bcc57610bcc615b41565b60009182526020918290206040805160e081018252600790930290910180548352600181015493830184905260028101546001600160a01b03169183019190915260038101546060830152600481015460ff1615156080830152600581015460a08301526006015460c08201529150879003610c6f5780838681518110610c5557610c55615b41565b60200260200101819052508480610c6b90615b6d565b9550505b5080610c7a81615b6d565b915050610baf565b50949350505050565b6000805b600654811015610d3757600060068281548110610cae57610cae615b41565b60009182526020918290206040805160c081018252600690930290910180548352600181015493830184905260028101546001600160a01b03169183019190915260038101546060830152600481015460808301526005015460ff16151560a08201529150849003610d24575060019392505050565b5080610d2f81615b6d565b915050610c8f565b50600092915050565b6060600080610d4e84613600565b6001600160401b03811115610d6557610d656152a7565b604051908082528060200260200182016040528015610d9e57816020015b610d8b615195565b815260200190600190039081610d835790505b50905060005b60045481101561070e57600060048281548110610dc357610dc3615b41565b90600052602060002090600e020160405180610220016040529081600082015481526020016001820160009054906101000a90046001600160a01b03166001600160a01b03166001600160a01b03168152602001600282018054610e2690615b86565b80601f0160208091040260200160405190810160405280929190818152602001828054610e5290615b86565b8015610e9f5780601f10610e7457610100808354040283529160200191610e9f565b820191906000526020600020905b815481529060010190602001808311610e8257829003601f168201915b50505050508152602001600382018054610eb890615b86565b80601f0160208091040260200160405190810160405280929190818152602001828054610ee490615b86565b8015610f315780601f10610f0657610100808354040283529160200191610f31565b820191906000526020600020905b815481529060010190602001808311610f1457829003601f168201915b50505050508152602001600482018054610f4a90615b86565b80601f0160208091040260200160405190810160405280929190818152602001828054610f7690615b86565b8015610fc35780601f10610f9857610100808354040283529160200191610fc3565b820191906000526020600020905b815481529060010190602001808311610fa657829003601f168201915b50505091835250506005820154602080830191909152600683015460408301526007830154606083015260088301546080830152600983015460ff808216151560a08501526101008083048216151560c0860152620100009092048116151560e0850152600a85015482850152600b850154808216151561012086015291909104161515610140830152600c830154610160830152600d90920154610180909101528101519091506001600160a01b038088169116036110aa578083858151811061109057611090615b41565b602002602001018190525083806110a690615b6d565b9450505b50806110b581615b6d565b915050610da4565b600080806110ca84610b46565b905060005b815181101561111c5760008282815181106110ec576110ec615b41565b602002602001015190508060600151846111069190615bba565b935050808061111490615b6d565b9150506110cf565b50909392505050565b61112d615195565b6002546040805160c08101825260125481527f00000000000000000000000000000000000000000000000000000000000000006020808301919091526001828401819052620186a06060840152608083015282519081019092526000808352926001600160a01b031691639b1c385e919060a08201906111ac9061413e565b8152506040518263ffffffff1660e01b81526004016111cb9190615bcd565b6020604051808303816000875af11580156111ea573d6000803e3d6000fd5b505050506040513d601f19601f8201168201806040525081019061120e9190615c32565b905061121a83826141af565b9392505050565b60006112646040805160e0810190915280600081526020016000815260200160008152602001606081526020016060815260200160608152602001606081525090565b61126e818c61434d565b8951156112845761127f818b61435e565b61129e565b6001600160401b0388161561129e5761129e818a8a61438f565b8651156112af576112af8188614425565b8551156112c0576112c0818761444f565b60006112d66112ce83614479565b878787614751565b9c9b505050505050505050505050565b60606000806112f36138ff565b6001600160401b0381111561130a5761130a6152a7565b60405190808252806020026020018201604052801561134357816020015b611330615195565b8152602001906001900390816113285790505b50905060005b6004548110156116555760006004828154811061136857611368615b41565b90600052602060002090600e020160405180610220016040529081600082015481526020016001820160009054906101000a90046001600160a01b03166001600160a01b03166001600160a01b031681526020016002820180546113cb90615b86565b80601f01602080910402602001604051908101604052809291908181526020018280546113f790615b86565b80156114445780601f1061141957610100808354040283529160200191611444565b820191906000526020600020905b81548152906001019060200180831161142757829003601f168201915b5050505050815260200160038201805461145d90615b86565b80601f016020809104026020016040519081016040528092919081815260200182805461148990615b86565b80156114d65780601f106114ab576101008083540402835291602001916114d6565b820191906000526020600020905b8154815290600101906020018083116114b957829003601f168201915b505050505081526020016004820180546114ef90615b86565b80601f016020809104026020016040519081016040528092919081815260200182805461151b90615b86565b80156115685780601f1061153d57610100808354040283529160200191611568565b820191906000526020600020905b81548152906001019060200180831161154b57829003601f168201915b505050918352505060058201546020820152600682015460408201526007820154606082015260088201546080820152600982015460ff808216151560a08401526101008083048216151560c0850152620100009092048116151560e0840152600a84015482840152600b84015480821615156101208501529190910416151561014080830191909152600c830154610160830152600d909201546101809091015281015190915015611642578083858151811061162857611628615b41565b6020026020010181905250838061163e90615b6d565b9450505b508061164d81615b6d565b915050611349565b5092915050565b6000805b600554811015610d375760006005828154811061167f5761167f615b41565b60009182526020918290206040805160e081018252600790930290910180548352600181015493830184905260028101546001600160a01b03169183019190915260038101546060830152600481015460ff1615156080830152600581015460a08301526006015460c0820152915084148015611708575060408101516001600160a01b031633145b15611717575060019392505050565b508061172281615b6d565b915050611660565b600080805b6005548110156116555760006005828154811061174e5761174e615b41565b60009182526020918290206040805160e08101825260079093029091018054835260018101549383019390935260028301546001600160a01b0390811691830182905260038401546060840152600484015460ff1615156080840152600584015460a084015260069093015460c083015290925090861690036117d957826117d581615b6d565b9350505b50806117e481615b6d565b91505061172f565b6117f461522c565b60005b6003548110156119ec5760006003828154811061181657611816615b41565b906000526020600020906006020160405180610100016040529081600082015481526020016001820160009054906101000a90046001600160a01b03166001600160a01b03166001600160a01b0316815260200160028201805461187990615b86565b80601f01602080910402602001604051908101604052809291908181526020018280546118a590615b86565b80156118f25780601f106118c7576101008083540402835291602001916118f2565b820191906000526020600020905b8154815290600101906020018083116118d557829003601f168201915b5050505050815260200160038201805461190b90615b86565b80601f016020809104026020016040519081016040528092919081815260200182805461193790615b86565b80156119845780601f1061195957610100808354040283529160200191611984565b820191906000526020600020905b81548152906001019060200180831161196757829003601f168201915b5050509183525050600482015460ff80821615156020840152610100820481161515604084015262010000909104161515606082015260059091015460809091015280519091508490036119d9579392505050565b50806119e481615b6d565b9150506117f7565b506119f561522c565b600160a082015292915050565b600080805b60055481101561165557600060058281548110611a2657611a26615b41565b60009182526020918290206040805160e081018252600790930290910180548352600181015493830184905260028101546001600160a01b03169183019190915260038101546060830152600481015460ff1615156080830152600581015460a08301526006015460c08201529150859003611aaa5782611aa681615b6d565b9350505b5080611ab581615b6d565b915050611a07565b611ac561514d565b6002546040805160c08101825260125481527f00000000000000000000000000000000000000000000000000000000000000006020808301919091526001828401819052620186a06060840152608083015282519081019092526000808352926001600160a01b031691639b1c385e919060a0820190611b449061413e565b8152506040518263ffffffff1660e01b8152600401611b639190615bcd565b6020604051808303816000875af1158015611b82573d6000803e3d6000fd5b505050506040513d601f19601f82011682018060405250810190611ba69190615c32565b905061121a8382614823565b600080805b60055481101561165557600060058281548110611bd657611bd6615b41565b60009182526020918290206040805160e081018252600790930290910180548352600181015493830184905260028101546001600160a01b03169183019190915260038101546060830152600481015460ff1615156080830152600581015460a08301526006015460c08201529150859003611c5a5782611c5681615b6d565b9350505b5080611c6581615b6d565b915050611bb7565b6001546001600160a01b03163314611cc05760405162461bcd60e51b815260206004820152601660248201527526bab9ba10313290383937b837b9b2b21037bbb732b960511b6044820152606401610824565b60008054336001600160a01b0319808316821784556001805490911690556040516001600160a01b0390921692909183917f8be0079c531659141344cd1fd0a4f28419497f9722a3daafe3b4186f6b6457e091a350565b611d1f61522c565b600954604080516101008101825282815233602082019081529181018681526060820186905260006080830181905260a0830181905260c0830181905260e0830181905260038054600181018255915282517fc2575a0e9e593c00f959f8c92f12db2869c3395a3b0502d05e2516446f71f85b600690920291820190815593517fc2575a0e9e593c00f959f8c92f12db2869c3395a3b0502d05e2516446f71f85c820180546001600160a01b0319166001600160a01b0390921691909117905590519192917fc2575a0e9e593c00f959f8c92f12db2869c3395a3b0502d05e2516446f71f85d90910190611e139082615c91565b5060608201516003820190611e289082615c91565b50608082015160048201805460a085015160c08601511515620100000262ff0000199115156101000261ff00199515159590951661ffff1990931692909217939093179290921691909117905560e09091015160059091015560098054906000611e9183615b6d565b91905055506000611ea1826117ec565b925050505b92915050565b600060048281548110611ec157611ec1615b41565b90600052602060002090600e020160405180610220016040529081600082015481526020016001820160009054906101000a90046001600160a01b03166001600160a01b03166001600160a01b03168152602001600282018054611f2490615b86565b80601f0160208091040260200160405190810160405280929190818152602001828054611f5090615b86565b8015611f9d5780601f10611f7257610100808354040283529160200191611f9d565b820191906000526020600020905b815481529060010190602001808311611f8057829003601f168201915b50505050508152602001600382018054611fb690615b86565b80601f0160208091040260200160405190810160405280929190818152602001828054611fe290615b86565b801561202f5780601f106120045761010080835404028352916020019161202f565b820191906000526020600020905b81548152906001019060200180831161201257829003601f168201915b5050505050815260200160048201805461204890615b86565b80601f016020809104026020016040519081016040528092919081815260200182805461207490615b86565b80156120c15780601f10612096576101008083540402835291602001916120c1565b820191906000526020600020905b8154815290600101906020018083116120a457829003601f168201915b505050918352505060058201546020820152600682015460408201526007820154606082015260088201546080820152600982015460ff808216151560a08401526101008083048216151560c0850152620100009092048116151560e0840152600a84015482840152600b840154808216151561012085015291909104161515610140820152600c820154610160820152600d9091015461018090910152905060008061216d846110bd565b9050606461217c826050615d50565b6121869190615d7d565b6121909083615bba565b9150826101600151156121b0576101808301516121ad9083615bba565b91505b600e54602084015160405163a9059cbb60e01b81526001600160a01b03918216600482015260248101859052600092919091169063a9059cbb906044016020604051808303816000875af115801561220c573d6000803e3d6000fd5b505050506040513d601f19601f820116820180604052508101906122309190615d91565b905080156125b15760006064612247846014615d50565b6122519190615d7d565b600e5460075460405163a9059cbb60e01b81526001600160a01b0391821660048201526024810184905292935060009291169063a9059cbb906044016020604051808303816000875af11580156122ac573d6000803e3d6000fd5b505050506040513d601f19601f820116820180604052508101906122d09190615d91565b905080156125ae5760016101a087018190526101c087015260048054879190899081106122ff576122ff615b41565b60009182526020918290208351600e9290920201908155908201516001820180546001600160a01b0319166001600160a01b039092169190911790556040820151600282019061234f9082615c91565b50606082015160038201906123649082615c91565b50608082015160048201906123799082615c91565b5060a082810151600583015560c08084015160068085019190915560e085015160078501556101008086015160088601556101208601516009860180546101408901516101608a01511515620100000262ff000019911515860261ff0019951515861661ffff1994851617179190911617909155610180880151600a8801556101a0880151600b880180546101c08b0151151590950291151590931693909116929092179190911790556101e0850151600c8086019190915561020090950151600d909401939093558354604080519283018152818352602083018d815233918401918252606084018c8152426080860190815260009686018781528854600181018a558989529651969098027ff652222313e28459528d920b65115c16c04f3efc82aaedc97be59f3f377c0d3f81019690965591517ff652222313e28459528d920b65115c16c04f3efc82aaedc97be59f3f377c0d4086015591517ff652222313e28459528d920b65115c16c04f3efc82aaedc97be59f3f377c0d41850180546001600160a01b039092166001600160a01b031990921691909117905590517ff652222313e28459528d920b65115c16c04f3efc82aaedc97be59f3f377c0d42840155517ff652222313e28459528d920b65115c16c04f3efc82aaedc97be59f3f377c0d4383015592517ff652222313e28459528d920b65115c16c04f3efc82aaedc97be59f3f377c0d44909101805491151560ff1990921691909117905582549192906125a783615b6d565b9190505550505b50505b5050505050565b6000546001600160a01b031633148015906125de57506002546001600160a01b03163314155b1561262f57336125f66000546001600160a01b031690565b60025460405163061db9c160e01b81526001600160a01b0393841660048201529183166024830152919091166044820152606401610824565b6001600160a01b0381166126565760405163d92e233d60e01b815260040160405180910390fd5b600280546001600160a01b0319166001600160a01b0383169081179091556040519081527fd1a6a14209a385a964d036e404cb5cfb71f4000cdb03c9366292430787261be69060200160405180910390a150565b6126b261522c565b60005b6003548110156119ec576000600382815481106126d4576126d4615b41565b906000526020600020906006020160405180610100016040529081600082015481526020016001820160009054906101000a90046001600160a01b03166001600160a01b03166001600160a01b0316815260200160028201805461273790615b86565b80601f016020809104026020016040519081016040528092919081815260200182805461276390615b86565b80156127b05780601f10612785576101008083540402835291602001916127b0565b820191906000526020600020905b81548152906001019060200180831161279357829003601f168201915b505050505081526020016003820180546127c990615b86565b80601f01602080910402602001604051908101604052809291908181526020018280546127f590615b86565b80156128425780601f1061281757610100808354040283529160200191612842565b820191906000526020600020905b81548152906001019060200180831161282557829003601f168201915b5050509183525050600482015460ff808216151560208085019190915261010083048216151560408501526201000090920416151560608301526005909201546080909101528101519091506001600160a01b038086169116036128a7579392505050565b50806128b281615b6d565b9150506126b5565b600a54600e546040805163313ce56760e01b81529051429283926000926001600160a01b039092169163313ce567916004808201926020929091908290030181865afa15801561290e573d6000803e3d6000fd5b505050506040513d601f19601f820116820180604052508101906129329190615dae565b61293d90600a615eaf565b6129479088615d50565b604080516102208101825286815233602082019081529181018d8152606082018d9052608082018c905260a0820184905260c0820187905260e0820186905261010082018a905260006101208301819052891515610140840152610160830181905261018083018190526101a083018190526101c083018190526101e08301819052610200830181905260048054600181018255915282517f8a35acfbc15ff81a39ae7d344fd709f28e8600b4aa8c65c6b64bfe7fe36bd19b600e90920291820190815593517f8a35acfbc15ff81a39ae7d344fd709f28e8600b4aa8c65c6b64bfe7fe36bd19c820180546001600160a01b0319166001600160a01b03909216919091179055905193945090927f8a35acfbc15ff81a39ae7d344fd709f28e8600b4aa8c65c6b64bfe7fe36bd19d90910190612a839082615c91565b5060608201516003820190612a989082615c91565b5060808201516004820190612aad9082615c91565b5060a0820151600582015560c0820151600682015560e082015160078201556101008083015160088301556101208301516009830180546101408601516101608701511515620100000262ff000019911515860261ff0019951515861661ffff1994851617179190911617909155610180850151600a808601919091556101a0860151600b860180546101c0890151151590960291151590941694909216939093171790556101e0830151600c83015561020090920151600d909101558054906000612b7883615b6d565b919050555050505050505050505050565b6060600080612b9784611bb2565b6001600160401b03811115612bae57612bae6152a7565b604051908082528060200260200182016040528015612be757816020015b612bd461522c565b815260200190600190039081612bcc5790505b50905060005b60055481101561070e57600060058281548110612c0c57612c0c615b41565b60009182526020918290206040805160e081018252600790930290910180548352600181015493830184905260028101546001600160a01b03169183019190915260038101546060830152600481015460ff1615156080830152600581015460a08301526006015460c08201529150869003612cc1576000612c9182604001516126aa565b905080848681518110612ca657612ca6615b41565b60200260200101819052508480612cbc90615b6d565b955050505b5080612ccc81615b6d565b915050612bed565b60088054612ce190615b86565b80601f0160208091040260200160405190810160405280929190818152602001828054612d0d90615b86565b8015612d5a5780601f10612d2f57610100808354040283529160200191612d5a565b820191906000526020600020905b815481529060010190602001808311612d3d57829003601f168201915b505050505081565b612d6a615195565b60005b600454811015610b2f57600060048281548110612d8c57612d8c615b41565b90600052602060002090600e020160405180610220016040529081600082015481526020016001820160009054906101000a90046001600160a01b03166001600160a01b03166001600160a01b03168152602001600282018054612def90615b86565b80601f0160208091040260200160405190810160405280929190818152602001828054612e1b90615b86565b8015612e685780601f10612e3d57610100808354040283529160200191612e68565b820191906000526020600020905b815481529060010190602001808311612e4b57829003601f168201915b50505050508152602001600382018054612e8190615b86565b80601f0160208091040260200160405190810160405280929190818152602001828054612ead90615b86565b8015612efa5780601f10612ecf57610100808354040283529160200191612efa565b820191906000526020600020905b815481529060010190602001808311612edd57829003601f168201915b50505050508152602001600482018054612f1390615b86565b80601f0160208091040260200160405190810160405280929190818152602001828054612f3f90615b86565b8015612f8c5780601f10612f6157610100808354040283529160200191612f8c565b820191906000526020600020905b815481529060010190602001808311612f6f57829003601f168201915b505050918352505060058201546020820152600682015460408201526007820154606082015260088201546080820152600982015460ff808216151560a08401526101008083048216151560c0850152620100009092048116151560e0840152600a84015482840152600b840154808216151561012085015291909104161515610140820152600c820154610160820152600d9091015461018090910152805190915084900361303d579392505050565b508061304881615b6d565b915050612d6d565b60008061305c336126aa565b90508060a0015161314e57805160016080830152600380548391908390811061308757613087615b41565b6000918252602091829020835160069290920201908155908201516001820180546001600160a01b0319166001600160a01b03909216919091179055604082015160028201906130d79082615c91565b50606082015160038201906130ec9082615c91565b50608082015160048201805460a085015160c08601511515620100000262ff0000199115156101000261ff00199515159590951661ffff1990931692909217939093179290921691909117905560e09091015160059091015550600192915050565b600091505090565b60006004828154811061316b5761316b615b41565b90600052602060002090600e020160405180610220016040529081600082015481526020016001820160009054906101000a90046001600160a01b03166001600160a01b03166001600160a01b031681526020016002820180546131ce90615b86565b80601f01602080910402602001604051908101604052809291908181526020018280546131fa90615b86565b80156132475780601f1061321c57610100808354040283529160200191613247565b820191906000526020600020905b81548152906001019060200180831161322a57829003601f168201915b5050505050815260200160038201805461326090615b86565b80601f016020809104026020016040519081016040528092919081815260200182805461328c90615b86565b80156132d95780601f106132ae576101008083540402835291602001916132d9565b820191906000526020600020905b8154815290600101906020018083116132bc57829003601f168201915b505050505081526020016004820180546132f290615b86565b80601f016020809104026020016040519081016040528092919081815260200182805461331e90615b86565b801561336b5780601f106133405761010080835404028352916020019161336b565b820191906000526020600020905b81548152906001019060200180831161334e57829003601f168201915b505050918352505060058201546020820152600682015460408201526007820154606082015260088201546080820152600982015460ff808216151560a08401526101008083048216151560c0850152620100009092048116151560e0840152600a84015482840152600b840154808216151561012085015291909104161515610140820152600c820154610160820152600d9091015461018090910152905060006134168361165c565b9050801561345e5760405162461bcd60e51b81526020600482015260156024820152745469636b657420616c72656164792065786973747360581b6044820152606401610824565b600b80546040805160e081018252828152602081018781523392820192835260a0878101516060840190815260006080850181815292850181815260c086018281526005805460018101825590845296517f036b6384b5eca791c62761152d0c79bb0604c104a5fb6f4eb0703f3154bb3db060079098029788015594517f036b6384b5eca791c62761152d0c79bb0604c104a5fb6f4eb0703f3154bb3db187015595517f036b6384b5eca791c62761152d0c79bb0604c104a5fb6f4eb0703f3154bb3db2860180546001600160a01b0319166001600160a01b0390921691909117905590517f036b6384b5eca791c62761152d0c79bb0604c104a5fb6f4eb0703f3154bb3db385015590517f036b6384b5eca791c62761152d0c79bb0604c104a5fb6f4eb0703f3154bb3db48401805460ff191691151591909117905592517f036b6384b5eca791c62761152d0c79bb0604c104a5fb6f4eb0703f3154bb3db5830155517f036b6384b5eca791c62761152d0c79bb0604c104a5fb6f4eb0703f3154bb3db69091015582549192906135f583615b6d565b919050555050505050565b600080805b6004548110156116555760006004828154811061362457613624615b41565b90600052602060002090600e020160405180610220016040529081600082015481526020016001820160009054906101000a90046001600160a01b03166001600160a01b03166001600160a01b0316815260200160028201805461368790615b86565b80601f01602080910402602001604051908101604052809291908181526020018280546136b390615b86565b80156137005780601f106136d557610100808354040283529160200191613700565b820191906000526020600020905b8154815290600101906020018083116136e357829003601f168201915b5050505050815260200160038201805461371990615b86565b80601f016020809104026020016040519081016040528092919081815260200182805461374590615b86565b80156137925780601f1061376757610100808354040283529160200191613792565b820191906000526020600020905b81548152906001019060200180831161377557829003601f168201915b505050505081526020016004820180546137ab90615b86565b80601f01602080910402602001604051908101604052809291908181526020018280546137d790615b86565b80156138245780601f106137f957610100808354040283529160200191613824565b820191906000526020600020905b81548152906001019060200180831161380757829003601f168201915b50505091835250506005820154602080830191909152600683015460408301526007830154606083015260088301546080830152600983015460ff808216151560a08501526101008083048216151560c0860152620100009092048116151560e0850152600a85015482850152600b850154808216151561012086015291909104161515610140830152600c830154610160830152600d90920154610180909101528101519091506001600160a01b038087169116036138ec57826138e881615b6d565b9350505b50806138f781615b6d565b915050613605565b600080805b600454811015613bf15760006004828154811061392357613923615b41565b90600052602060002090600e020160405180610220016040529081600082015481526020016001820160009054906101000a90046001600160a01b03166001600160a01b03166001600160a01b0316815260200160028201805461398690615b86565b80601f01602080910402602001604051908101604052809291908181526020018280546139b290615b86565b80156139ff5780601f106139d4576101008083540402835291602001916139ff565b820191906000526020600020905b8154815290600101906020018083116139e257829003601f168201915b50505050508152602001600382018054613a1890615b86565b80601f0160208091040260200160405190810160405280929190818152602001828054613a4490615b86565b8015613a915780601f10613a6657610100808354040283529160200191613a91565b820191906000526020600020905b815481529060010190602001808311613a7457829003601f168201915b50505050508152602001600482018054613aaa90615b86565b80601f0160208091040260200160405190810160405280929190818152602001828054613ad690615b86565b8015613b235780601f10613af857610100808354040283529160200191613b23565b820191906000526020600020905b815481529060010190602001808311613b0657829003601f168201915b505050918352505060058201546020820152600682015460408201526007820154606082015260088201546080820152600982015460ff808216151560a08401526101008083048216151560c0850152620100009092048116151560e0840152600a84015482840152600b84015480821615156101208501529190910416151561014080830191909152600c830154610160830152600d909201546101809091015281015190915015613bde5782613bda81615b6d565b9350505b5080613be981615b6d565b915050613904565b50919050565b613bff615195565b6000613c0a83612d62565b600161014082015260048054919250829185908110613c2b57613c2b615b41565b60009182526020918290208351600e9290920201908155908201516001820180546001600160a01b0319166001600160a01b0390921691909117905560408201516002820190613c7b9082615c91565b5060608201516003820190613c909082615c91565b5060808201516004820190613ca59082615c91565b5060a0820151600582015560c0820151600682015560e082015160078201556101008083015160088301556101208301516009830180546101408601516101608701511515620100000262ff000019911515860261ff0019951515861661ffff1994851617179190911617909155610180850151600a8501556101a0850151600b850180546101c0880151151590950291151590931693909116929092179190911790556101e0820151600c82015561020090910151600d9091015592915050565b613d6f614948565b613d788161499d565b50565b600080613d87836105ce565b905060005b8151811015613ddd576000828281518110613da957613da9615b41565b6020026020010151905085816020015103613dca5760019350505050611ea6565b5080613dd581615b6d565b915050613d8c565b506000949350505050565b600082806020019051810190613dfe9190615c32565b9050600060038281548110613e1557613e15615b41565b906000526020600020906006020160405180610100016040529081600082015481526020016001820160009054906101000a90046001600160a01b03166001600160a01b03166001600160a01b03168152602001600282018054613e7890615b86565b80601f0160208091040260200160405190810160405280929190818152602001828054613ea490615b86565b8015613ef15780601f10613ec657610100808354040283529160200191613ef1565b820191906000526020600020905b815481529060010190602001808311613ed457829003601f168201915b50505050508152602001600382018054613f0a90615b86565b80601f0160208091040260200160405190810160405280929190818152602001828054613f3690615b86565b8015613f835780601f10613f5857610100808354040283529160200191613f83565b820191906000526020600020905b815481529060010190602001808311613f6657829003601f168201915b5050509183525050600482015460ff80821615156020840152610100820481161515604084015262010000909104161515606082015260059091015460809091015260a08101519091506140b557600160c082015260e081018590526003805482919084908110613ff657613ff6615b41565b6000918252602091829020835160069290920201908155908201516001820180546001600160a01b0319166001600160a01b03909216919091179055604082015160028201906140469082615c91565b506060820151600382019061405b9082615c91565b50608082015160048201805460a085015160c08601511515620100000262ff0000199115156101000261ff00199515159590951661ffff1990931692909217939093179290921691909117905560e0909101516005909101555b60086140c18482615c91565b505050505050565b60006140d48461083d565b90508061012001516141055780516141039084846000816140f7576140f7615b41565b90506020020135614a46565b505b600061411085610716565b905080608001516125b15780516140c190858560008161413257614132615b41565b90506020020135614bbe565b60607f92fd13387c7fe7befbc38d303d6468778fb9731bc4583f17d92989c6fcfdeaaa8260405160240161417791511515815260200190565b60408051601f198184030181529190526020810180516001600160e01b03166001600160e01b03199093169290921790915292915050565b6141b7615195565b60006141c284612d62565b90506000600a8260a001516141d79190615d7d565b60016101608401524260e084015261018083018190526101e083018590526004805491925083918790811061420e5761420e615b41565b60009182526020918290208351600e9290920201908155908201516001820180546001600160a01b0319166001600160a01b039092169190911790556040820151600282019061425e9082615c91565b50606082015160038201906142739082615c91565b50608082015160048201906142889082615c91565b5060a0820151600582015560c0820151600682015560e082015160078201556101008083015160088301556101208301516009830180546101408601516101608701511515620100000262ff000019911515860261ff0019951515861661ffff1994851617179190911617909155610180850151600a8501556101a0850151600b850180546101c0880151151590950291151590931693909116929092179190911790556101e0820151600c82015561020090910151600d9091015550905092915050565b61435a8260008084614c5d565b5050565b80516000036143805760405163e889636f60e01b815260040160405180910390fd5b60016020830152608090910152565b600061439c610100614cdb565b90506143cf604051806040016040528060068152602001651cdb1bdd125160d21b81525082614cfc90919063ffffffff16565b6143dc8160ff8516614d15565b6040805180820190915260078152663b32b939b4b7b760c91b6020820152614405908290614cfc565b61440f8183614d15565b6002602085015251516080909301929092525050565b80516000036144475760405163fe936cb760e01b815260040160405180910390fd5b60a090910152565b80516000036144715760405163fe936cb760e01b815260040160405180910390fd5b60c090910152565b60606000614488610100614cdb565b90506144c16040518060400160405280600c81526020016b31b7b232a637b1b0ba34b7b760a11b81525082614cfc90919063ffffffff16565b82516144df9060028111156144d8576144d8615ebe565b8290614d21565b6040805180820190915260088152676c616e677561676560c01b6020820152614509908290614cfc565b60408301516145209080156144d8576144d8615ebe565b604080518082019091526006815265736f7572636560d01b6020820152614548908290614cfc565b6060830151614558908290614cfc565b60a083015151156145ec576040805180820190915260048152636172677360e01b6020820152614589908290614cfc565b61459281614d5a565b60005b8360a00151518110156145e2576145d28460a0015182815181106145bb576145bb615b41565b602002602001015183614cfc90919063ffffffff16565b6145db81615b6d565b9050614595565b506145ec81614d7e565b608083015151156146b05760008360200151600281111561460f5761460f615ebe565b0361462d5760405163a80d31f760e01b815260040160405180910390fd5b60408051808201909152600f81526e39b2b1b932ba39a637b1b0ba34b7b760891b602082015261465e908290614cfc565b614677836020015160028111156144d8576144d8615ebe565b6040805180820190915260078152667365637265747360c81b60208201526146a0908290614cfc565b60808301516146b0908290614d9c565b60c083015151156147495760408051808201909152600981526862797465734172677360b81b60208201526146e6908290614cfc565b6146ef81614d5a565b60005b8360c001515181101561473f5761472f8460c00151828151811061471857614718615b41565b602002602001015183614d9c90919063ffffffff16565b61473881615b6d565b90506146f2565b5061474981614d7e565b515192915050565b6000807f00000000000000000000000000000000000000000000000000000000000000006001600160a01b031663461d27628688600188886040518663ffffffff1660e01b81526004016147a9959493929190615ed4565b6020604051808303816000875af11580156147c8573d6000803e3d6000fd5b505050506040513d601f19601f820116820180604052508101906147ec9190615c32565b60405190915081907f1131472297a800fee664d1d89cfa8f7676ff07189ecc53f80bbb5f4969099db890600090a295945050505050565b61482b61514d565b60006005848154811061484057614840615b41565b60009182526020918290206040805160e08101825260079093029091018054835260018101549383019390935260028301546001600160a01b03169082015260038201546060820152600482015460ff161515608082015260069091015460c082015260a08101849052600580549192508291869081106148c3576148c3615b41565b600091825260209182902083516007929092020190815590820151600182015560408201516002820180546001600160a01b0319166001600160a01b0390921691909117905560608201516003820155608082015160048201805460ff191691151591909117905560a0820151600582015560c0909101516006909101559392505050565b6000546001600160a01b0316331461499b5760405162461bcd60e51b815260206004820152601660248201527527b7363c9031b0b63630b1363290313c9037bbb732b960511b6044820152606401610824565b565b336001600160a01b038216036149f55760405162461bcd60e51b815260206004820152601760248201527f43616e6e6f74207472616e7366657220746f2073656c660000000000000000006044820152606401610824565b600180546001600160a01b0319166001600160a01b0383811691821790925560008054604051929316917fed8889f560326eb138920d842192f0eb3dd22b4f139c87a2c57538e05bae12789190a350565b614a4e615195565b6000614a5984612d62565b4260e0820152610200810184905260048054919250829186908110614a8057614a80615b41565b60009182526020918290208351600e9290920201908155908201516001820180546001600160a01b0319166001600160a01b0390921691909117905560408201516002820190614ad09082615c91565b5060608201516003820190614ae59082615c91565b5060808201516004820190614afa9082615c91565b5060a0820151600582015560c0820151600682015560e082015160078201556101008083015160088301556101208301516009830180546101408601516101608701511515620100000262ff000019911515860261ff0019951515861661ffff1994851617179190911617909155610180850151600a8501556101a0850151600b850180546101c0880151151590950291151590931693909116929092179190911790556101e0820151600c82015561020090910151600d90910155905092915050565b614bc661514d565b600060058481548110614bdb57614bdb615b41565b60009182526020918290206040805160e08101825260079093029091018054835260018101549383019390935260028301546001600160a01b03169082015260038201546060820152600482015460ff161515608082015260059182015460a082015260c081018590528154909250829190869081106148c3576148c3615b41565b8051600003614c7f576040516322ce3edd60e01b815260040160405180910390fd5b83836002811115614c9257614c92615ebe565b90816002811115614ca557614ca5615ebe565b90525060408401828015614cbb57614cbb615ebe565b90818015614ccb57614ccb615ebe565b9052506060909301929092525050565b614ce3615272565b8051614cef9083614da9565b5060006020820152919050565b614d098260038351614e20565b81516108389082614f3f565b61435a82600083614e20565b8151614d2e9060c2614f60565b5061435a8282604051602001614d4691815260200190565b604051602081830303815290604052614d9c565b614d65816004614fc9565b600181602001818151614d789190615bba565b90525050565b614d89816007614fc9565b600181602001818151614d789190615f1d565b614d098260028351614e20565b604080518082019091526060815260006020820152614dc9602083615f30565b15614df157614dd9602083615f30565b614de4906020615f1d565b614dee9083615bba565b91505b602080840183905260405180855260008152908184010181811015614e1557600080fd5b604052509192915050565b6017816001600160401b031611614e4c578251614e469060e0600585901b168317614f60565b50505050565b60ff816001600160401b031611614e8c578251614e74906018611fe0600586901b1617614f60565b508251614e46906001600160401b0383166001614fe0565b61ffff816001600160401b031611614ecd578251614eb5906019611fe0600586901b1617614f60565b508251614e46906001600160401b0383166002614fe0565b63ffffffff816001600160401b031611614f10578251614ef890601a611fe0600586901b1617614f60565b508251614e46906001600160401b0383166004614fe0565b8251614f2790601b611fe0600586901b1617614f60565b508251614e46906001600160401b0383166008614fe0565b60408051808201909152606081526000602082015261121a83838451615065565b6040805180820190915260608152600060208201528251516000614f85826001615bba565b905084602001518210614fa657614fa685614fa1836002615d50565b615136565b8451602083820101858153508051821115614fbf578181525b5093949350505050565b815161083890601f611fe0600585901b1617614f60565b60408051808201909152606081526000602082015283515160006150048285615bba565b905085602001518111156150215761502186614fa1836002615d50565b6000600161503186610100615f44565b61503b9190615f1d565b90508651828101878319825116178152508051831115615059578281525b50959695505050505050565b604080518082019091526060815260006020820152825182111561508857600080fd5b83515160006150978483615bba565b905085602001518111156150b4576150b486614fa1836002615d50565b8551805183820160200191600091808511156150ce578482525b505050602086015b6020861061510e57805182526150ed602083615bba565b91506150fa602082615bba565b9050615107602087615f1d565b95506150d6565b51815160001960208890036101000a0190811690199190911617905250849150509392505050565b81516151428383614da9565b50614e468382614f3f565b6040518060e00160405280600081526020016000815260200160006001600160a01b031681526020016000815260200160001515815260200160008152602001600081525090565b6040518061022001604052806000815260200160006001600160a01b03168152602001606081526020016060815260200160608152602001600081526020016000815260200160008152602001600081526020016000151581526020016000151581526020016000151581526020016000815260200160001515815260200160001515815260200160008152602001600081525090565b60408051610100810182526000808252602082018190526060928201839052828201929092526080810182905260a0810182905260c0810182905260e081019190915290565b604051806040016040528061529a604051806040016040528060608152602001600081525090565b8152602001600081525090565b634e487b7160e01b600052604160045260246000fd5b604051601f8201601f191681016001600160401b03811182821017156152e5576152e56152a7565b604052919050565b600082601f8301126152fe57600080fd5b81356001600160401b03811115615317576153176152a7565b61532a601f8201601f19166020016152bd565b81815284602083860101111561533f57600080fd5b816020850160208301376000918101602001919091529392505050565b60008060006060848603121561537157600080fd5b8335925060208401356001600160401b038082111561538f57600080fd5b61539b878388016152ed565b935060408601359150808211156153b157600080fd5b506153be868287016152ed565b9150509250925092565b80356001600160a01b03811681146153df57600080fd5b919050565b6000602082840312156153f657600080fd5b61121a826153c8565b80518252602080820151908301526040808201516001600160a01b0316908301526060808201519083015260808082015115159083015260a0808201519083015260c090810151910152565b6020808252825182820181905260009190848201906040850190845b8181101561548d5761547a8385516153ff565b9284019260e09290920191600101615467565b50909695505050505050565b6000602082840312156154ab57600080fd5b5035919050565b60e08101611ea682846153ff565b6000806000604084860312156154d557600080fd5b8335925060208401356001600160401b03808211156154f357600080fd5b818601915086601f83011261550757600080fd5b81358181111561551657600080fd5b8760208260051b850101111561552b57600080fd5b6020830194508093505050509250925092565b6000815180845260005b8181101561556457602081850181015186830182015201615548565b506000602082860101526020601f19601f83011685010191505092915050565b60006102208251845260208301516155a760208601826001600160a01b03169052565b5060408301518160408601526155bf8286018261553e565b915050606083015184820360608601526155d9828261553e565b915050608083015184820360808601526155f3828261553e565b91505060a083015160a085015260c083015160c085015260e083015160e0850152610100808401518186015250610120808401516156348287018215159052565b5050610140838101511515908501526101608084015115159085015261018080840151908501526101a0808401511515908501526101c0808401511515908501526101e080840151908501526102009283015192909301919091525090565b60208152600061121a6020830184615584565b6000602080830181845280855180835260408601915060408160051b870101925083870160005b828110156156fb57603f198886030184526156e9858351615584565b945092850192908501906001016156cd565b5092979650505050505050565b60ff81168114613d7857600080fd5b80356153df81615708565b80356001600160401b03811681146153df57600080fd5b600082601f83011261574a57600080fd5b813560206001600160401b0380831115615766576157666152a7565b8260051b6157758382016152bd565b938452858101830193838101908886111561578f57600080fd5b84880192505b858310156157cb578235848111156157ad5760008081fd5b6157bb8a87838c01016152ed565b8352509184019190840190615795565b98975050505050505050565b803563ffffffff811681146153df57600080fd5b60008060008060008060008060006101208a8c03121561580a57600080fd5b89356001600160401b038082111561582157600080fd5b61582d8d838e016152ed565b9a5060208c013591508082111561584357600080fd5b61584f8d838e016152ed565b995061585d60408d01615717565b985061586b60608d01615722565b975060808c013591508082111561588157600080fd5b61588d8d838e01615739565b965060a08c01359150808211156158a357600080fd5b506158b08c828d01615739565b9450506158bf60c08b01615722565b92506158cd60e08b016157d7565b91506101008a013590509295985092959850929598565b60006101008251845260018060a01b03602084015116602085015260408301518160408601526159168286018261553e565b91505060608301518482036060860152615930828261553e565b91505060808301511515608085015260a083015161595260a086018215159052565b5060c083015161596660c086018215159052565b5060e083015160e08501528091505092915050565b60208152600061121a60208301846158e4565b600080604083850312156159a157600080fd5b82356001600160401b03808211156159b857600080fd5b6159c4868387016152ed565b935060208501359150808211156159da57600080fd5b506159e7858286016152ed565b9150509250929050565b8015158114613d7857600080fd5b60008060008060008060c08789031215615a1857600080fd5b86356001600160401b0380821115615a2f57600080fd5b615a3b8a838b016152ed565b97506020890135915080821115615a5157600080fd5b615a5d8a838b016152ed565b96506040890135915080821115615a7357600080fd5b50615a8089828a016152ed565b945050606087013592506080870135915060a0870135615a9f816159f1565b809150509295509295509295565b6000602080830181845280855180835260408601915060408160051b870101925083870160005b828110156156fb57603f19888603018452615af08583516158e4565b94509285019290850190600101615ad4565b60208152600061121a602083018461553e565b60008060408385031215615b2857600080fd5b82359150615b38602084016153c8565b90509250929050565b634e487b7160e01b600052603260045260246000fd5b634e487b7160e01b600052601160045260246000fd5b600060018201615b7f57615b7f615b57565b5060010190565b600181811c90821680615b9a57607f821691505b602082108103613bf157634e487b7160e01b600052602260045260246000fd5b80820180821115611ea657611ea6615b57565b60208152815160208201526020820151604082015261ffff60408301511660608201526000606083015163ffffffff80821660808501528060808601511660a0850152505060a083015160c080840152615c2a60e084018261553e565b949350505050565b600060208284031215615c4457600080fd5b5051919050565b601f82111561083857600081815260208120601f850160051c81016020861015615c725750805b601f850160051c820191505b818110156140c157828155600101615c7e565b81516001600160401b03811115615caa57615caa6152a7565b615cbe81615cb88454615b86565b84615c4b565b602080601f831160018114615cf35760008415615cdb5750858301515b600019600386901b1c1916600185901b1785556140c1565b600085815260208120601f198616915b82811015615d2257888601518255948401946001909101908401615d03565b5085821015615d405787850151600019600388901b60f8161c191681555b5050505050600190811b01905550565b8082028115828204841417611ea657611ea6615b57565b634e487b7160e01b600052601260045260246000fd5b600082615d8c57615d8c615d67565b500490565b600060208284031215615da357600080fd5b815161121a816159f1565b600060208284031215615dc057600080fd5b815161121a81615708565b600181815b80851115615e06578160001904821115615dec57615dec615b57565b80851615615df957918102915b93841c9390800290615dd0565b509250929050565b600082615e1d57506001611ea6565b81615e2a57506000611ea6565b8160018114615e405760028114615e4a57615e66565b6001915050611ea6565b60ff841115615e5b57615e5b615b57565b50506001821b611ea6565b5060208310610133831016604e8410600b8410161715615e89575081810a611ea6565b615e938383615dcb565b8060001904821115615ea757615ea7615b57565b029392505050565b600061121a60ff841683615e0e565b634e487b7160e01b600052602160045260246000fd5b6001600160401b038616815260a060208201526000615ef660a083018761553e565b61ffff9590951660408301525063ffffffff92909216606083015260809091015292915050565b81810381811115611ea657611ea6615b57565b600082615f3f57615f3f615d67565b500690565b600061121a8383615e0e56fea264697066735822122097a5a638105d926922cef67b6e156b99a0958c21724a01f1c7a716be1f967fd264736f6c63430008130033",
			"opcodes": "PUSH1 0xC0 PUSH1 0x40 MSTORE PUSH1 0xE DUP1 SLOAD PUSH1 0x1 PUSH1 0x1 PUSH1 0xA0 SHL SUB NOT SWAP1 DUP2 AND PUSH20 0x5425890298AED601595A70AB815C96711A31BC65 OR SWAP1 SWAP2 SSTORE PUSH1 0xF DUP1 SLOAD DUP3 AND PUSH20 0xB9D5D9136855F6FEC3C0993FEE6E9CE8A297846 OR SWAP1 SSTORE PUSH1 0x10 DUP1 SLOAD DUP3 AND PUSH20 0x5C210EF41CD1A72DE73BF76EC39637BB0D3D7BEE OR SWAP1 SSTORE PUSH1 0x11 DUP1 SLOAD SWAP1 SWAP2 AND PUSH20 0xA9D587A00A31A52ED70D6026794A8FC5E2F5DCB0 OR SWAP1 SSTORE PUSH32 0xC799BD1E3BD4D1A41CD4968997A4E03DFD2A3C7C04B695881138580163F42887 PUSH1 0x12 SSTORE CALLVALUE DUP1 ISZERO PUSH3 0xB9 JUMPI PUSH1 0x0 DUP1 REVERT JUMPDEST POP PUSH1 0x40 MLOAD PUSH3 0x6280 CODESIZE SUB DUP1 PUSH3 0x6280 DUP4 CODECOPY DUP2 ADD PUSH1 0x40 DUP2 SWAP1 MSTORE PUSH3 0xDC SWAP2 PUSH3 0x28A JUMP JUMPDEST PUSH1 0x10 SLOAD PUSH1 0x11 SLOAD PUSH1 0x1 PUSH1 0x1 PUSH1 0xA0 SHL SUB SWAP1 DUP2 AND PUSH1 0x80 MSTORE AND CALLER DUP1 PUSH1 0x0 DUP2 PUSH3 0x148 JUMPI PUSH1 0x40 MLOAD PUSH3 0x461BCD PUSH1 0xE5 SHL DUP2 MSTORE PUSH1 0x20 PUSH1 0x4 DUP3 ADD MSTORE PUSH1 0x18 PUSH1 0x24 DUP3 ADD MSTORE PUSH32 0x43616E6E6F7420736574206F776E657220746F207A65726F0000000000000000 PUSH1 0x44 DUP3 ADD MSTORE PUSH1 0x64 ADD JUMPDEST PUSH1 0x40 MLOAD DUP1 SWAP2 SUB SWAP1 REVERT JUMPDEST PUSH1 0x0 DUP1 SLOAD PUSH1 0x1 PUSH1 0x1 PUSH1 0xA0 SHL SUB NOT AND PUSH1 0x1 PUSH1 0x1 PUSH1 0xA0 SHL SUB DUP5 DUP2 AND SWAP2 SWAP1 SWAP2 OR SWAP1 SWAP2 SSTORE DUP2 AND ISZERO PUSH3 0x17B JUMPI PUSH3 0x17B DUP2 PUSH3 0x1DF JUMP JUMPDEST POP POP POP PUSH1 0x1 PUSH1 0x1 PUSH1 0xA0 SHL SUB DUP2 AND PUSH3 0x1A6 JUMPI PUSH1 0x40 MLOAD PUSH4 0xD92E233D PUSH1 0xE0 SHL DUP2 MSTORE PUSH1 0x4 ADD PUSH1 0x40 MLOAD DUP1 SWAP2 SUB SWAP1 REVERT JUMPDEST PUSH1 0x2 DUP1 SLOAD PUSH1 0x1 PUSH1 0x1 PUSH1 0xA0 SHL SUB SWAP3 DUP4 AND PUSH1 0x1 PUSH1 0x1 PUSH1 0xA0 SHL SUB NOT SWAP2 DUP3 AND OR SWAP1 SWAP2 SSTORE PUSH1 0x7 DUP1 SLOAD SWAP5 SWAP1 SWAP3 AND SWAP4 AND SWAP3 SWAP1 SWAP3 OR SWAP1 SWAP2 SSTORE PUSH1 0xA0 MSTORE PUSH3 0x2C6 JUMP JUMPDEST CALLER PUSH1 0x1 PUSH1 0x1 PUSH1 0xA0 SHL SUB DUP3 AND SUB PUSH3 0x239 JUMPI PUSH1 0x40 MLOAD PUSH3 0x461BCD PUSH1 0xE5 SHL DUP2 MSTORE PUSH1 0x20 PUSH1 0x4 DUP3 ADD MSTORE PUSH1 0x17 PUSH1 0x24 DUP3 ADD MSTORE PUSH32 0x43616E6E6F74207472616E7366657220746F2073656C66000000000000000000 PUSH1 0x44 DUP3 ADD MSTORE PUSH1 0x64 ADD PUSH3 0x13F JUMP JUMPDEST PUSH1 0x1 DUP1 SLOAD PUSH1 0x1 PUSH1 0x1 PUSH1 0xA0 SHL SUB NOT AND PUSH1 0x1 PUSH1 0x1 PUSH1 0xA0 SHL SUB DUP4 DUP2 AND SWAP2 DUP3 OR SWAP1 SWAP3 SSTORE PUSH1 0x0 DUP1 SLOAD PUSH1 0x40 MLOAD SWAP3 SWAP4 AND SWAP2 PUSH32 0xED8889F560326EB138920D842192F0EB3DD22B4F139C87A2C57538E05BAE1278 SWAP2 SWAP1 LOG3 POP JUMP JUMPDEST PUSH1 0x0 DUP1 PUSH1 0x40 DUP4 DUP6 SUB SLT ISZERO PUSH3 0x29E JUMPI PUSH1 0x0 DUP1 REVERT JUMPDEST DUP3 MLOAD PUSH1 0x1 PUSH1 0x1 PUSH1 0xA0 SHL SUB DUP2 AND DUP2 EQ PUSH3 0x2B6 JUMPI PUSH1 0x0 DUP1 REVERT JUMPDEST PUSH1 0x20 SWAP4 SWAP1 SWAP4 ADD MLOAD SWAP3 SWAP5 SWAP3 SWAP4 POP POP POP JUMP JUMPDEST PUSH1 0x80 MLOAD PUSH1 0xA0 MLOAD PUSH2 0x5F86 PUSH3 0x2FA PUSH1 0x0 CODECOPY PUSH1 0x0 DUP2 DUP2 PUSH2 0x1141 ADD MSTORE PUSH2 0x1AD9 ADD MSTORE PUSH1 0x0 DUP2 DUP2 PUSH2 0x555 ADD MSTORE PUSH2 0x4756 ADD MSTORE PUSH2 0x5F86 PUSH1 0x0 RETURN INVALID PUSH1 0x80 PUSH1 0x40 MSTORE CALLVALUE DUP1 ISZERO PUSH2 0x10 JUMPI PUSH1 0x0 DUP1 REVERT JUMPDEST POP PUSH1 0x4 CALLDATASIZE LT PUSH2 0x227 JUMPI PUSH1 0x0 CALLDATALOAD PUSH1 0xE0 SHR DUP1 PUSH4 0x79BA5097 GT PUSH2 0x130 JUMPI DUP1 PUSH4 0xAD395C14 GT PUSH2 0xB8 JUMPI DUP1 PUSH4 0xC5B84029 GT PUSH2 0x7C JUMPI DUP1 PUSH4 0xC5B84029 EQ PUSH2 0x4F6 JUMPI DUP1 PUSH4 0xCEE34E7B EQ PUSH2 0x509 JUMPI DUP1 PUSH4 0xCFD9F3DA EQ PUSH2 0x511 JUMPI DUP1 PUSH4 0xF2FDE38B EQ PUSH2 0x524 JUMPI DUP1 PUSH4 0xF5CAA96B EQ PUSH2 0x537 JUMPI PUSH1 0x0 DUP1 REVERT JUMPDEST DUP1 PUSH4 0xAD395C14 EQ PUSH2 0x493 JUMPI DUP1 PUSH4 0xB07C7E6C EQ PUSH2 0x4B3 JUMPI DUP1 PUSH4 0xB98079BC EQ PUSH2 0x4C8 JUMPI DUP1 PUSH4 0xC081EE70 EQ PUSH2 0x4DB JUMPI DUP1 PUSH4 0xC0F555F0 EQ PUSH2 0x4E3 JUMPI PUSH1 0x0 DUP1 REVERT JUMPDEST DUP1 PUSH4 0x8EA98117 GT PUSH2 0xFF JUMPI DUP1 PUSH4 0x8EA98117 EQ PUSH2 0x434 JUMPI DUP1 PUSH4 0x9720807C EQ PUSH2 0x447 JUMPI DUP1 PUSH4 0x99BB6B08 EQ PUSH2 0x45A JUMPI DUP1 PUSH4 0x9ECCACF6 EQ PUSH2 0x46D JUMPI DUP1 PUSH4 0xABDA7405 EQ PUSH2 0x480 JUMPI PUSH1 0x0 DUP1 REVERT JUMPDEST DUP1 PUSH4 0x79BA5097 EQ PUSH2 0x3E1 JUMPI DUP1 PUSH4 0x87B162B5 EQ PUSH2 0x3E9 JUMPI DUP1 PUSH4 0x89EE68BF EQ PUSH2 0x3FC JUMPI DUP1 PUSH4 0x8DA5CB5B EQ PUSH2 0x40F JUMPI PUSH1 0x0 DUP1 REVERT JUMPDEST DUP1 PUSH4 0x4DFF247F GT PUSH2 0x1B3 JUMPI DUP1 PUSH4 0x666AC2FB GT PUSH2 0x182 JUMPI DUP1 PUSH4 0x666AC2FB EQ PUSH2 0x375 JUMPI DUP1 PUSH4 0x6ED6DA9E EQ PUSH2 0x388 JUMPI DUP1 PUSH4 0x7354A25F EQ PUSH2 0x3A8 JUMPI DUP1 PUSH4 0x767A5867 EQ PUSH2 0x3BB JUMPI DUP1 PUSH4 0x76F8CBD5 EQ PUSH2 0x3CE JUMPI PUSH1 0x0 DUP1 REVERT JUMPDEST DUP1 PUSH4 0x4DFF247F EQ PUSH2 0x334 JUMPI DUP1 PUSH4 0x52A81EEB EQ PUSH2 0x347 JUMPI DUP1 PUSH4 0x5D3EE0EE EQ PUSH2 0x35A JUMPI DUP1 PUSH4 0x63FF89C7 EQ PUSH2 0x362 JUMPI PUSH1 0x0 DUP1 REVERT JUMPDEST DUP1 PUSH4 0x22B1185E GT PUSH2 0x1FA JUMPI DUP1 PUSH4 0x22B1185E EQ PUSH2 0x29D JUMPI DUP1 PUSH4 0x235B3A3D EQ PUSH2 0x2BD JUMPI DUP1 PUSH4 0x24C67B03 EQ PUSH2 0x2D0 JUMPI DUP1 PUSH4 0x3B902AFE EQ PUSH2 0x2F3 JUMPI DUP1 PUSH4 0x4591B666 EQ PUSH2 0x313 JUMPI PUSH1 0x0 DUP1 REVERT JUMPDEST DUP1 PUSH4 0xCA76175 EQ PUSH2 0x22C JUMPI DUP1 PUSH4 0x184B0938 EQ PUSH2 0x241 JUMPI DUP1 PUSH4 0x19867063 EQ PUSH2 0x26A JUMPI DUP1 PUSH4 0x1FE543E3 EQ PUSH2 0x28A JUMPI JUMPDEST PUSH1 0x0 DUP1 REVERT JUMPDEST PUSH2 0x23F PUSH2 0x23A CALLDATASIZE PUSH1 0x4 PUSH2 0x535C JUMP JUMPDEST PUSH2 0x54A JUMP JUMPDEST STOP JUMPDEST PUSH2 0x254 PUSH2 0x24F CALLDATASIZE PUSH1 0x4 PUSH2 0x53E4 JUMP JUMPDEST PUSH2 0x5CE JUMP JUMPDEST PUSH1 0x40 MLOAD PUSH2 0x261 SWAP2 SWAP1 PUSH2 0x544B JUMP JUMPDEST PUSH1 0x40 MLOAD DUP1 SWAP2 SUB SWAP1 RETURN JUMPDEST PUSH2 0x27D PUSH2 0x278 CALLDATASIZE PUSH1 0x4 PUSH2 0x5499 JUMP JUMPDEST PUSH2 0x716 JUMP JUMPDEST PUSH1 0x40 MLOAD PUSH2 0x261 SWAP2 SWAP1 PUSH2 0x54B2 JUMP JUMPDEST PUSH2 0x23F PUSH2 0x298 CALLDATASIZE PUSH1 0x4 PUSH2 0x54C0 JUMP JUMPDEST PUSH2 0x7E8 JUMP JUMPDEST PUSH2 0x2B0 PUSH2 0x2AB CALLDATASIZE PUSH1 0x4 PUSH2 0x5499 JUMP JUMPDEST PUSH2 0x83D JUMP JUMPDEST PUSH1 0x40 MLOAD PUSH2 0x261 SWAP2 SWAP1 PUSH2 0x5693 JUMP JUMPDEST PUSH2 0x254 PUSH2 0x2CB CALLDATASIZE PUSH1 0x4 PUSH2 0x5499 JUMP JUMPDEST PUSH2 0xB46 JUMP JUMPDEST PUSH2 0x2E3 PUSH2 0x2DE CALLDATASIZE PUSH1 0x4 PUSH2 0x5499 JUMP JUMPDEST PUSH2 0xC8B JUMP JUMPDEST PUSH1 0x40 MLOAD SWAP1 ISZERO ISZERO DUP2 MSTORE PUSH1 0x20 ADD PUSH2 0x261 JUMP JUMPDEST PUSH2 0x306 PUSH2 0x301 CALLDATASIZE PUSH1 0x4 PUSH2 0x53E4 JUMP JUMPDEST PUSH2 0xD40 JUMP JUMPDEST PUSH1 0x40 MLOAD PUSH2 0x261 SWAP2 SWAP1 PUSH2 0x56A6 JUMP JUMPDEST PUSH2 0x326 PUSH2 0x321 CALLDATASIZE PUSH1 0x4 PUSH2 0x5499 JUMP JUMPDEST PUSH2 0x10BD JUMP JUMPDEST PUSH1 0x40 MLOAD SWAP1 DUP2 MSTORE PUSH1 0x20 ADD PUSH2 0x261 JUMP JUMPDEST PUSH2 0x2B0 PUSH2 0x342 CALLDATASIZE PUSH1 0x4 PUSH2 0x5499 JUMP JUMPDEST PUSH2 0x1125 JUMP JUMPDEST PUSH2 0x326 PUSH2 0x355 CALLDATASIZE PUSH1 0x4 PUSH2 0x57EB JUMP JUMPDEST PUSH2 0x1221 JUMP JUMPDEST PUSH2 0x306 PUSH2 0x12E6 JUMP JUMPDEST PUSH2 0x2E3 PUSH2 0x370 CALLDATASIZE PUSH1 0x4 PUSH2 0x5499 JUMP JUMPDEST PUSH2 0x165C JUMP JUMPDEST PUSH2 0x326 PUSH2 0x383 CALLDATASIZE PUSH1 0x4 PUSH2 0x53E4 JUMP JUMPDEST PUSH2 0x172A JUMP JUMPDEST PUSH2 0x39B PUSH2 0x396 CALLDATASIZE PUSH1 0x4 PUSH2 0x5499 JUMP JUMPDEST PUSH2 0x17EC JUMP JUMPDEST PUSH1 0x40 MLOAD PUSH2 0x261 SWAP2 SWAP1 PUSH2 0x597B JUMP JUMPDEST PUSH2 0x326 PUSH2 0x3B6 CALLDATASIZE PUSH1 0x4 PUSH2 0x5499 JUMP JUMPDEST PUSH2 0x1A02 JUMP JUMPDEST PUSH2 0x27D PUSH2 0x3C9 CALLDATASIZE PUSH1 0x4 PUSH2 0x5499 JUMP JUMPDEST PUSH2 0x1ABD JUMP JUMPDEST PUSH2 0x326 PUSH2 0x3DC CALLDATASIZE PUSH1 0x4 PUSH2 0x5499 JUMP JUMPDEST PUSH2 0x1BB2 JUMP JUMPDEST PUSH2 0x23F PUSH2 0x1C6D JUMP JUMPDEST PUSH2 0x39B PUSH2 0x3F7 CALLDATASIZE PUSH1 0x4 PUSH2 0x598E JUMP JUMPDEST PUSH2 0x1D17 JUMP JUMPDEST PUSH2 0x23F PUSH2 0x40A CALLDATASIZE PUSH1 0x4 PUSH2 0x5499 JUMP JUMPDEST PUSH2 0x1EAC JUMP JUMPDEST PUSH1 0x0 SLOAD PUSH1 0x1 PUSH1 0x1 PUSH1 0xA0 SHL SUB AND JUMPDEST PUSH1 0x40 MLOAD PUSH1 0x1 PUSH1 0x1 PUSH1 0xA0 SHL SUB SWAP1 SWAP2 AND DUP2 MSTORE PUSH1 0x20 ADD PUSH2 0x261 JUMP JUMPDEST PUSH2 0x23F PUSH2 0x442 CALLDATASIZE PUSH1 0x4 PUSH2 0x53E4 JUMP JUMPDEST PUSH2 0x25B8 JUMP JUMPDEST PUSH1 0x7 SLOAD PUSH2 0x41C SWAP1 PUSH1 0x1 PUSH1 0x1 PUSH1 0xA0 SHL SUB AND DUP2 JUMP JUMPDEST PUSH2 0x39B PUSH2 0x468 CALLDATASIZE PUSH1 0x4 PUSH2 0x53E4 JUMP JUMPDEST PUSH2 0x26AA JUMP JUMPDEST PUSH1 0x2 SLOAD PUSH2 0x41C SWAP1 PUSH1 0x1 PUSH1 0x1 PUSH1 0xA0 SHL SUB AND DUP2 JUMP JUMPDEST PUSH2 0x23F PUSH2 0x48E CALLDATASIZE PUSH1 0x4 PUSH2 0x59FF JUMP JUMPDEST PUSH2 0x28BA JUMP JUMPDEST PUSH2 0x4A6 PUSH2 0x4A1 CALLDATASIZE PUSH1 0x4 PUSH2 0x5499 JUMP JUMPDEST PUSH2 0x2B89 JUMP JUMPDEST PUSH1 0x40 MLOAD PUSH2 0x261 SWAP2 SWAP1 PUSH2 0x5AAD JUMP JUMPDEST PUSH2 0x4BB PUSH2 0x2CD4 JUMP JUMPDEST PUSH1 0x40 MLOAD PUSH2 0x261 SWAP2 SWAP1 PUSH2 0x5B02 JUMP JUMPDEST PUSH2 0x2B0 PUSH2 0x4D6 CALLDATASIZE PUSH1 0x4 PUSH2 0x5499 JUMP JUMPDEST PUSH2 0x2D62 JUMP JUMPDEST PUSH2 0x2E3 PUSH2 0x3050 JUMP JUMPDEST PUSH2 0x23F PUSH2 0x4F1 CALLDATASIZE PUSH1 0x4 PUSH2 0x5499 JUMP JUMPDEST PUSH2 0x3156 JUMP JUMPDEST PUSH2 0x326 PUSH2 0x504 CALLDATASIZE PUSH1 0x4 PUSH2 0x53E4 JUMP JUMPDEST PUSH2 0x3600 JUMP JUMPDEST PUSH2 0x326 PUSH2 0x38FF JUMP JUMPDEST PUSH2 0x2B0 PUSH2 0x51F CALLDATASIZE PUSH1 0x4 PUSH2 0x5499 JUMP JUMPDEST PUSH2 0x3BF7 JUMP JUMPDEST PUSH2 0x23F PUSH2 0x532 CALLDATASIZE PUSH1 0x4 PUSH2 0x53E4 JUMP JUMPDEST PUSH2 0x3D67 JUMP JUMPDEST PUSH2 0x2E3 PUSH2 0x545 CALLDATASIZE PUSH1 0x4 PUSH2 0x5B15 JUMP JUMPDEST PUSH2 0x3D7B JUMP JUMPDEST CALLER PUSH1 0x1 PUSH1 0x1 PUSH1 0xA0 SHL SUB PUSH32 0x0 AND EQ PUSH2 0x593 JUMPI PUSH1 0x40 MLOAD PUSH4 0xC6829F83 PUSH1 0xE0 SHL DUP2 MSTORE PUSH1 0x4 ADD PUSH1 0x40 MLOAD DUP1 SWAP2 SUB SWAP1 REVERT JUMPDEST PUSH2 0x59E DUP4 DUP4 DUP4 PUSH2 0x3DE8 JUMP JUMPDEST PUSH1 0x40 MLOAD DUP4 SWAP1 PUSH32 0x85E1543BF2F84FE80C6BADBCE3648C8539AD1DF4D2B3D822938CA0538BE727E6 SWAP1 PUSH1 0x0 SWAP1 LOG2 POP POP POP JUMP JUMPDEST PUSH1 0x60 PUSH1 0x0 DUP1 PUSH2 0x5DC DUP5 PUSH2 0x172A JUMP JUMPDEST PUSH1 0x1 PUSH1 0x1 PUSH1 0x40 SHL SUB DUP2 GT ISZERO PUSH2 0x5F3 JUMPI PUSH2 0x5F3 PUSH2 0x52A7 JUMP JUMPDEST PUSH1 0x40 MLOAD SWAP1 DUP1 DUP3 MSTORE DUP1 PUSH1 0x20 MUL PUSH1 0x20 ADD DUP3 ADD PUSH1 0x40 MSTORE DUP1 ISZERO PUSH2 0x62C JUMPI DUP2 PUSH1 0x20 ADD JUMPDEST PUSH2 0x619 PUSH2 0x514D JUMP JUMPDEST DUP2 MSTORE PUSH1 0x20 ADD SWAP1 PUSH1 0x1 SWAP1 SUB SWAP1 DUP2 PUSH2 0x611 JUMPI SWAP1 POP JUMPDEST POP SWAP1 POP PUSH1 0x0 JUMPDEST PUSH1 0x5 SLOAD DUP2 LT ISZERO PUSH2 0x70E JUMPI PUSH1 0x0 PUSH1 0x5 DUP3 DUP2 SLOAD DUP2 LT PUSH2 0x651 JUMPI PUSH2 0x651 PUSH2 0x5B41 JUMP JUMPDEST PUSH1 0x0 SWAP2 DUP3 MSTORE PUSH1 0x20 SWAP2 DUP3 SWAP1 KECCAK256 PUSH1 0x40 DUP1 MLOAD PUSH1 0xE0 DUP2 ADD DUP3 MSTORE PUSH1 0x7 SWAP1 SWAP4 MUL SWAP1 SWAP2 ADD DUP1 SLOAD DUP4 MSTORE PUSH1 0x1 DUP2 ADD SLOAD SWAP4 DUP4 ADD SWAP4 SWAP1 SWAP4 MSTORE PUSH1 0x2 DUP4 ADD SLOAD PUSH1 0x1 PUSH1 0x1 PUSH1 0xA0 SHL SUB SWAP1 DUP2 AND SWAP2 DUP4 ADD DUP3 SWAP1 MSTORE PUSH1 0x3 DUP5 ADD SLOAD PUSH1 0x60 DUP5 ADD MSTORE PUSH1 0x4 DUP5 ADD SLOAD PUSH1 0xFF AND ISZERO ISZERO PUSH1 0x80 DUP5 ADD MSTORE PUSH1 0x5 DUP5 ADD SLOAD PUSH1 0xA0 DUP5 ADD MSTORE PUSH1 0x6 SWAP1 SWAP4 ADD SLOAD PUSH1 0xC0 DUP4 ADD MSTORE SWAP1 SWAP3 POP SWAP1 DUP8 AND SWAP1 SUB PUSH2 0x6FB JUMPI DUP1 DUP4 DUP6 DUP2 MLOAD DUP2 LT PUSH2 0x6E1 JUMPI PUSH2 0x6E1 PUSH2 0x5B41 JUMP JUMPDEST PUSH1 0x20 MUL PUSH1 0x20 ADD ADD DUP2 SWAP1 MSTORE POP DUP4 DUP1 PUSH2 0x6F7 SWAP1 PUSH2 0x5B6D JUMP JUMPDEST SWAP5 POP POP JUMPDEST POP DUP1 PUSH2 0x706 DUP2 PUSH2 0x5B6D JUMP JUMPDEST SWAP2 POP POP PUSH2 0x632 JUMP JUMPDEST POP SWAP4 SWAP3 POP POP POP JUMP JUMPDEST PUSH2 0x71E PUSH2 0x514D JUMP JUMPDEST PUSH1 0x0 JUMPDEST PUSH1 0x5 SLOAD DUP2 LT ISZERO PUSH2 0x7D2 JUMPI PUSH1 0x0 PUSH1 0x5 DUP3 DUP2 SLOAD DUP2 LT PUSH2 0x740 JUMPI PUSH2 0x740 PUSH2 0x5B41 JUMP JUMPDEST PUSH1 0x0 SWAP2 DUP3 MSTORE PUSH1 0x20 SWAP2 DUP3 SWAP1 KECCAK256 PUSH1 0x40 DUP1 MLOAD PUSH1 0xE0 DUP2 ADD DUP3 MSTORE PUSH1 0x7 SWAP1 SWAP4 MUL SWAP1 SWAP2 ADD DUP1 SLOAD DUP4 MSTORE PUSH1 0x1 DUP2 ADD SLOAD SWAP4 DUP4 ADD SWAP4 SWAP1 SWAP4 MSTORE PUSH1 0x2 DUP4 ADD SLOAD PUSH1 0x1 PUSH1 0x1 PUSH1 0xA0 SHL SUB AND SWAP1 DUP3 ADD MSTORE PUSH1 0x3 DUP3 ADD SLOAD PUSH1 0x60 DUP3 ADD MSTORE PUSH1 0x4 DUP3 ADD SLOAD PUSH1 0xFF AND ISZERO ISZERO PUSH1 0x80 DUP3 ADD MSTORE PUSH1 0x5 DUP3 ADD SLOAD PUSH1 0xA0 DUP3 ADD DUP2 SWAP1 MSTORE PUSH1 0x6 SWAP1 SWAP3 ADD SLOAD PUSH1 0xC0 DUP3 ADD MSTORE SWAP2 POP DUP5 SWAP1 SUB PUSH2 0x7BF JUMPI SWAP4 SWAP3 POP POP POP JUMP JUMPDEST POP DUP1 PUSH2 0x7CA DUP2 PUSH2 0x5B6D JUMP JUMPDEST SWAP2 POP POP PUSH2 0x721 JUMP JUMPDEST POP PUSH2 0x7DB PUSH2 0x514D JUMP JUMPDEST PUSH1 0x1 PUSH1 0x80 DUP3 ADD MSTORE SWAP3 SWAP2 POP POP JUMP JUMPDEST PUSH1 0x2 SLOAD PUSH1 0x1 PUSH1 0x1 PUSH1 0xA0 SHL SUB AND CALLER EQ PUSH2 0x82D JUMPI PUSH1 0x2 SLOAD PUSH1 0x40 MLOAD PUSH4 0x73E64FD PUSH1 0xE2 SHL DUP2 MSTORE CALLER PUSH1 0x4 DUP3 ADD MSTORE PUSH1 0x1 PUSH1 0x1 PUSH1 0xA0 SHL SUB SWAP1 SWAP2 AND PUSH1 0x24 DUP3 ADD MSTORE PUSH1 0x44 ADD JUMPDEST PUSH1 0x40 MLOAD DUP1 SWAP2 SUB SWAP1 REVERT JUMPDEST PUSH2 0x838 DUP4 DUP4 DUP4 PUSH2 0x40C9 JUMP JUMPDEST POP POP POP JUMP JUMPDEST PUSH2 0x845 PUSH2 0x5195 JUMP JUMPDEST PUSH1 0x0 JUMPDEST PUSH1 0x4 SLOAD DUP2 LT ISZERO PUSH2 0xB2F JUMPI PUSH1 0x0 PUSH1 0x4 DUP3 DUP2 SLOAD DUP2 LT PUSH2 0x867 JUMPI PUSH2 0x867 PUSH2 0x5B41 JUMP JUMPDEST SWAP1 PUSH1 0x0 MSTORE PUSH1 0x20 PUSH1 0x0 KECCAK256 SWAP1 PUSH1 0xE MUL ADD PUSH1 0x40 MLOAD DUP1 PUSH2 0x220 ADD PUSH1 0x40 MSTORE SWAP1 DUP2 PUSH1 0x0 DUP3 ADD SLOAD DUP2 MSTORE PUSH1 0x20 ADD PUSH1 0x1 DUP3 ADD PUSH1 0x0 SWAP1 SLOAD SWAP1 PUSH2 0x100 EXP SWAP1 DIV PUSH1 0x1 PUSH1 0x1 PUSH1 0xA0 SHL SUB AND PUSH1 0x1 PUSH1 0x1 PUSH1 0xA0 SHL SUB AND PUSH1 0x1 PUSH1 0x1 PUSH1 0xA0 SHL SUB AND DUP2 MSTORE PUSH1 0x20 ADD PUSH1 0x2 DUP3 ADD DUP1 SLOAD PUSH2 0x8CA SWAP1 PUSH2 0x5B86 JUMP JUMPDEST DUP1 PUSH1 0x1F ADD PUSH1 0x20 DUP1 SWAP2 DIV MUL PUSH1 0x20 ADD PUSH1 0x40 MLOAD SWAP1 DUP2 ADD PUSH1 0x40 MSTORE DUP1 SWAP3 SWAP2 SWAP1 DUP2 DUP2 MSTORE PUSH1 0x20 ADD DUP3 DUP1 SLOAD PUSH2 0x8F6 SWAP1 PUSH2 0x5B86 JUMP JUMPDEST DUP1 ISZERO PUSH2 0x943 JUMPI DUP1 PUSH1 0x1F LT PUSH2 0x918 JUMPI PUSH2 0x100 DUP1 DUP4 SLOAD DIV MUL DUP4 MSTORE SWAP2 PUSH1 0x20 ADD SWAP2 PUSH2 0x943 JUMP JUMPDEST DUP3 ADD SWAP2 SWAP1 PUSH1 0x0 MSTORE PUSH1 0x20 PUSH1 0x0 KECCAK256 SWAP1 JUMPDEST DUP2 SLOAD DUP2 MSTORE SWAP1 PUSH1 0x1 ADD SWAP1 PUSH1 0x20 ADD DUP1 DUP4 GT PUSH2 0x926 JUMPI DUP3 SWAP1 SUB PUSH1 0x1F AND DUP3 ADD SWAP2 JUMPDEST POP POP POP POP POP DUP2 MSTORE PUSH1 0x20 ADD PUSH1 0x3 DUP3 ADD DUP1 SLOAD PUSH2 0x95C SWAP1 PUSH2 0x5B86 JUMP JUMPDEST DUP1 PUSH1 0x1F ADD PUSH1 0x20 DUP1 SWAP2 DIV MUL PUSH1 0x20 ADD PUSH1 0x40 MLOAD SWAP1 DUP2 ADD PUSH1 0x40 MSTORE DUP1 SWAP3 SWAP2 SWAP1 DUP2 DUP2 MSTORE PUSH1 0x20 ADD DUP3 DUP1 SLOAD PUSH2 0x988 SWAP1 PUSH2 0x5B86 JUMP JUMPDEST DUP1 ISZERO PUSH2 0x9D5 JUMPI DUP1 PUSH1 0x1F LT PUSH2 0x9AA JUMPI PUSH2 0x100 DUP1 DUP4 SLOAD DIV MUL DUP4 MSTORE SWAP2 PUSH1 0x20 ADD SWAP2 PUSH2 0x9D5 JUMP JUMPDEST DUP3 ADD SWAP2 SWAP1 PUSH1 0x0 MSTORE PUSH1 0x20 PUSH1 0x0 KECCAK256 SWAP1 JUMPDEST DUP2 SLOAD DUP2 MSTORE SWAP1 PUSH1 0x1 ADD SWAP1 PUSH1 0x20 ADD DUP1 DUP4 GT PUSH2 0x9B8 JUMPI DUP3 SWAP1 SUB PUSH1 0x1F AND DUP3 ADD SWAP2 JUMPDEST POP POP POP POP POP DUP2 MSTORE PUSH1 0x20 ADD PUSH1 0x4 DUP3 ADD DUP1 SLOAD PUSH2 0x9EE SWAP1 PUSH2 0x5B86 JUMP JUMPDEST DUP1 PUSH1 0x1F ADD PUSH1 0x20 DUP1 SWAP2 DIV MUL PUSH1 0x20 ADD PUSH1 0x40 MLOAD SWAP1 DUP2 ADD PUSH1 0x40 MSTORE DUP1 SWAP3 SWAP2 SWAP1 DUP2 DUP2 MSTORE PUSH1 0x20 ADD DUP3 DUP1 SLOAD PUSH2 0xA1A SWAP1 PUSH2 0x5B86 JUMP JUMPDEST DUP1 ISZERO PUSH2 0xA67 JUMPI DUP1 PUSH1 0x1F LT PUSH2 0xA3C JUMPI PUSH2 0x100 DUP1 DUP4 SLOAD DIV MUL DUP4 MSTORE SWAP2 PUSH1 0x20 ADD SWAP2 PUSH2 0xA67 JUMP JUMPDEST DUP3 ADD SWAP2 SWAP1 PUSH1 0x0 MSTORE PUSH1 0x20 PUSH1 0x0 KECCAK256 SWAP1 JUMPDEST DUP2 SLOAD DUP2 MSTORE SWAP1 PUSH1 0x1 ADD SWAP1 PUSH1 0x20 ADD DUP1 DUP4 GT PUSH2 0xA4A JUMPI DUP3 SWAP1 SUB PUSH1 0x1F AND DUP3 ADD SWAP2 JUMPDEST POP POP POP SWAP2 DUP4 MSTORE POP POP PUSH1 0x5 DUP3 ADD SLOAD PUSH1 0x20 DUP3 ADD MSTORE PUSH1 0x6 DUP3 ADD SLOAD PUSH1 0x40 DUP3 ADD MSTORE PUSH1 0x7 DUP3 ADD SLOAD PUSH1 0x60 DUP3 ADD MSTORE PUSH1 0x8 DUP3 ADD SLOAD PUSH1 0x80 DUP3 ADD MSTORE PUSH1 0x9 DUP3 ADD SLOAD PUSH1 0xFF DUP1 DUP3 AND ISZERO ISZERO PUSH1 0xA0 DUP5 ADD MSTORE PUSH2 0x100 DUP1 DUP4 DIV DUP3 AND ISZERO ISZERO PUSH1 0xC0 DUP6 ADD MSTORE PUSH3 0x10000 SWAP1 SWAP3 DIV DUP2 AND ISZERO ISZERO PUSH1 0xE0 DUP5 ADD MSTORE PUSH1 0xA DUP5 ADD SLOAD DUP3 DUP5 ADD MSTORE PUSH1 0xB DUP5 ADD SLOAD DUP1 DUP3 AND ISZERO ISZERO PUSH2 0x120 DUP6 ADD MSTORE SWAP2 SWAP1 SWAP2 DIV AND ISZERO ISZERO PUSH2 0x140 DUP3 ADD MSTORE PUSH1 0xC DUP3 ADD SLOAD PUSH2 0x160 DUP3 ADD MSTORE PUSH1 0xD SWAP1 SWAP2 ADD SLOAD PUSH2 0x180 SWAP1 SWAP2 ADD MSTORE PUSH2 0x1E0 DUP2 ADD MLOAD SWAP1 SWAP2 POP DUP5 SWAP1 SUB PUSH2 0xB1C JUMPI SWAP4 SWAP3 POP POP POP JUMP JUMPDEST POP DUP1 PUSH2 0xB27 DUP2 PUSH2 0x5B6D JUMP JUMPDEST SWAP2 POP POP PUSH2 0x848 JUMP JUMPDEST POP PUSH2 0xB38 PUSH2 0x5195 JUMP JUMPDEST PUSH1 0x1 PUSH2 0x120 DUP3 ADD MSTORE SWAP3 SWAP2 POP POP JUMP JUMPDEST PUSH1 0x60 PUSH1 0x0 DUP1 PUSH2 0xB54 DUP5 PUSH2 0x1A02 JUMP JUMPDEST SWAP1 POP PUSH1 0x0 DUP2 PUSH1 0x1 PUSH1 0x1 PUSH1 0x40 SHL SUB DUP2 GT ISZERO PUSH2 0xB70 JUMPI PUSH2 0xB70 PUSH2 0x52A7 JUMP JUMPDEST PUSH1 0x40 MLOAD SWAP1 DUP1 DUP3 MSTORE DUP1 PUSH1 0x20 MUL PUSH1 0x20 ADD DUP3 ADD PUSH1 0x40 MSTORE DUP1 ISZERO PUSH2 0xBA9 JUMPI DUP2 PUSH1 0x20 ADD JUMPDEST PUSH2 0xB96 PUSH2 0x514D JUMP JUMPDEST DUP2 MSTORE PUSH1 0x20 ADD SWAP1 PUSH1 0x1 SWAP1 SUB SWAP1 DUP2 PUSH2 0xB8E JUMPI SWAP1 POP JUMPDEST POP SWAP1 POP PUSH1 0x0 JUMPDEST DUP3 DUP2 LT ISZERO PUSH2 0xC82 JUMPI PUSH1 0x0 PUSH1 0x5 DUP3 DUP2 SLOAD DUP2 LT PUSH2 0xBCC JUMPI PUSH2 0xBCC PUSH2 0x5B41 JUMP JUMPDEST PUSH1 0x0 SWAP2 DUP3 MSTORE PUSH1 0x20 SWAP2 DUP3 SWAP1 KECCAK256 PUSH1 0x40 DUP1 MLOAD PUSH1 0xE0 DUP2 ADD DUP3 MSTORE PUSH1 0x7 SWAP1 SWAP4 MUL SWAP1 SWAP2 ADD DUP1 SLOAD DUP4 MSTORE PUSH1 0x1 DUP2 ADD SLOAD SWAP4 DUP4 ADD DUP5 SWAP1 MSTORE PUSH1 0x2 DUP2 ADD SLOAD PUSH1 0x1 PUSH1 0x1 PUSH1 0xA0 SHL SUB AND SWAP2 DUP4 ADD SWAP2 SWAP1 SWAP2 MSTORE PUSH1 0x3 DUP2 ADD SLOAD PUSH1 0x60 DUP4 ADD MSTORE PUSH1 0x4 DUP2 ADD SLOAD PUSH1 0xFF AND ISZERO ISZERO PUSH1 0x80 DUP4 ADD MSTORE PUSH1 0x5 DUP2 ADD SLOAD PUSH1 0xA0 DUP4 ADD MSTORE PUSH1 0x6 ADD SLOAD PUSH1 0xC0 DUP3 ADD MSTORE SWAP2 POP DUP8 SWAP1 SUB PUSH2 0xC6F JUMPI DUP1 DUP4 DUP7 DUP2 MLOAD DUP2 LT PUSH2 0xC55 JUMPI PUSH2 0xC55 PUSH2 0x5B41 JUMP JUMPDEST PUSH1 0x20 MUL PUSH1 0x20 ADD ADD DUP2 SWAP1 MSTORE POP DUP5 DUP1 PUSH2 0xC6B SWAP1 PUSH2 0x5B6D JUMP JUMPDEST SWAP6 POP POP JUMPDEST POP DUP1 PUSH2 0xC7A DUP2 PUSH2 0x5B6D JUMP JUMPDEST SWAP2 POP POP PUSH2 0xBAF JUMP JUMPDEST POP SWAP5 SWAP4 POP POP POP POP JUMP JUMPDEST PUSH1 0x0 DUP1 JUMPDEST PUSH1 0x6 SLOAD DUP2 LT ISZERO PUSH2 0xD37 JUMPI PUSH1 0x0 PUSH1 0x6 DUP3 DUP2 SLOAD DUP2 LT PUSH2 0xCAE JUMPI PUSH2 0xCAE PUSH2 0x5B41 JUMP JUMPDEST PUSH1 0x0 SWAP2 DUP3 MSTORE PUSH1 0x20 SWAP2 DUP3 SWAP1 KECCAK256 PUSH1 0x40 DUP1 MLOAD PUSH1 0xC0 DUP2 ADD DUP3 MSTORE PUSH1 0x6 SWAP1 SWAP4 MUL SWAP1 SWAP2 ADD DUP1 SLOAD DUP4 MSTORE PUSH1 0x1 DUP2 ADD SLOAD SWAP4 DUP4 ADD DUP5 SWAP1 MSTORE PUSH1 0x2 DUP2 ADD SLOAD PUSH1 0x1 PUSH1 0x1 PUSH1 0xA0 SHL SUB AND SWAP2 DUP4 ADD SWAP2 SWAP1 SWAP2 MSTORE PUSH1 0x3 DUP2 ADD SLOAD PUSH1 0x60 DUP4 ADD MSTORE PUSH1 0x4 DUP2 ADD SLOAD PUSH1 0x80 DUP4 ADD MSTORE PUSH1 0x5 ADD SLOAD PUSH1 0xFF AND ISZERO ISZERO PUSH1 0xA0 DUP3 ADD MSTORE SWAP2 POP DUP5 SWAP1 SUB PUSH2 0xD24 JUMPI POP PUSH1 0x1 SWAP4 SWAP3 POP POP POP JUMP JUMPDEST POP DUP1 PUSH2 0xD2F DUP2 PUSH2 0x5B6D JUMP JUMPDEST SWAP2 POP POP PUSH2 0xC8F JUMP JUMPDEST POP PUSH1 0x0 SWAP3 SWAP2 POP POP JUMP JUMPDEST PUSH1 0x60 PUSH1 0x0 DUP1 PUSH2 0xD4E DUP5 PUSH2 0x3600 JUMP JUMPDEST PUSH1 0x1 PUSH1 0x1 PUSH1 0x40 SHL SUB DUP2 GT ISZERO PUSH2 0xD65 JUMPI PUSH2 0xD65 PUSH2 0x52A7 JUMP JUMPDEST PUSH1 0x40 MLOAD SWAP1 DUP1 DUP3 MSTORE DUP1 PUSH1 0x20 MUL PUSH1 0x20 ADD DUP3 ADD PUSH1 0x40 MSTORE DUP1 ISZERO PUSH2 0xD9E JUMPI DUP2 PUSH1 0x20 ADD JUMPDEST PUSH2 0xD8B PUSH2 0x5195 JUMP JUMPDEST DUP2 MSTORE PUSH1 0x20 ADD SWAP1 PUSH1 0x1 SWAP1 SUB SWAP1 DUP2 PUSH2 0xD83 JUMPI SWAP1 POP JUMPDEST POP SWAP1 POP PUSH1 0x0 JUMPDEST PUSH1 0x4 SLOAD DUP2 LT ISZERO PUSH2 0x70E JUMPI PUSH1 0x0 PUSH1 0x4 DUP3 DUP2 SLOAD DUP2 LT PUSH2 0xDC3 JUMPI PUSH2 0xDC3 PUSH2 0x5B41 JUMP JUMPDEST SWAP1 PUSH1 0x0 MSTORE PUSH1 0x20 PUSH1 0x0 KECCAK256 SWAP1 PUSH1 0xE MUL ADD PUSH1 0x40 MLOAD DUP1 PUSH2 0x220 ADD PUSH1 0x40 MSTORE SWAP1 DUP2 PUSH1 0x0 DUP3 ADD SLOAD DUP2 MSTORE PUSH1 0x20 ADD PUSH1 0x1 DUP3 ADD PUSH1 0x0 SWAP1 SLOAD SWAP1 PUSH2 0x100 EXP SWAP1 DIV PUSH1 0x1 PUSH1 0x1 PUSH1 0xA0 SHL SUB AND PUSH1 0x1 PUSH1 0x1 PUSH1 0xA0 SHL SUB AND PUSH1 0x1 PUSH1 0x1 PUSH1 0xA0 SHL SUB AND DUP2 MSTORE PUSH1 0x20 ADD PUSH1 0x2 DUP3 ADD DUP1 SLOAD PUSH2 0xE26 SWAP1 PUSH2 0x5B86 JUMP JUMPDEST DUP1 PUSH1 0x1F ADD PUSH1 0x20 DUP1 SWAP2 DIV MUL PUSH1 0x20 ADD PUSH1 0x40 MLOAD SWAP1 DUP2 ADD PUSH1 0x40 MSTORE DUP1 SWAP3 SWAP2 SWAP1 DUP2 DUP2 MSTORE PUSH1 0x20 ADD DUP3 DUP1 SLOAD PUSH2 0xE52 SWAP1 PUSH2 0x5B86 JUMP JUMPDEST DUP1 ISZERO PUSH2 0xE9F JUMPI DUP1 PUSH1 0x1F LT PUSH2 0xE74 JUMPI PUSH2 0x100 DUP1 DUP4 SLOAD DIV MUL DUP4 MSTORE SWAP2 PUSH1 0x20 ADD SWAP2 PUSH2 0xE9F JUMP JUMPDEST DUP3 ADD SWAP2 SWAP1 PUSH1 0x0 MSTORE PUSH1 0x20 PUSH1 0x0 KECCAK256 SWAP1 JUMPDEST DUP2 SLOAD DUP2 MSTORE SWAP1 PUSH1 0x1 ADD SWAP1 PUSH1 0x20 ADD DUP1 DUP4 GT PUSH2 0xE82 JUMPI DUP3 SWAP1 SUB PUSH1 0x1F AND DUP3 ADD SWAP2 JUMPDEST POP POP POP POP POP DUP2 MSTORE PUSH1 0x20 ADD PUSH1 0x3 DUP3 ADD DUP1 SLOAD PUSH2 0xEB8 SWAP1 PUSH2 0x5B86 JUMP JUMPDEST DUP1 PUSH1 0x1F ADD PUSH1 0x20 DUP1 SWAP2 DIV MUL PUSH1 0x20 ADD PUSH1 0x40 MLOAD SWAP1 DUP2 ADD PUSH1 0x40 MSTORE DUP1 SWAP3 SWAP2 SWAP1 DUP2 DUP2 MSTORE PUSH1 0x20 ADD DUP3 DUP1 SLOAD PUSH2 0xEE4 SWAP1 PUSH2 0x5B86 JUMP JUMPDEST DUP1 ISZERO PUSH2 0xF31 JUMPI DUP1 PUSH1 0x1F LT PUSH2 0xF06 JUMPI PUSH2 0x100 DUP1 DUP4 SLOAD DIV MUL DUP4 MSTORE SWAP2 PUSH1 0x20 ADD SWAP2 PUSH2 0xF31 JUMP JUMPDEST DUP3 ADD SWAP2 SWAP1 PUSH1 0x0 MSTORE PUSH1 0x20 PUSH1 0x0 KECCAK256 SWAP1 JUMPDEST DUP2 SLOAD DUP2 MSTORE SWAP1 PUSH1 0x1 ADD SWAP1 PUSH1 0x20 ADD DUP1 DUP4 GT PUSH2 0xF14 JUMPI DUP3 SWAP1 SUB PUSH1 0x1F AND DUP3 ADD SWAP2 JUMPDEST POP POP POP POP POP DUP2 MSTORE PUSH1 0x20 ADD PUSH1 0x4 DUP3 ADD DUP1 SLOAD PUSH2 0xF4A SWAP1 PUSH2 0x5B86 JUMP JUMPDEST DUP1 PUSH1 0x1F ADD PUSH1 0x20 DUP1 SWAP2 DIV MUL PUSH1 0x20 ADD PUSH1 0x40 MLOAD SWAP1 DUP2 ADD PUSH1 0x40 MSTORE DUP1 SWAP3 SWAP2 SWAP1 DUP2 DUP2 MSTORE PUSH1 0x20 ADD DUP3 DUP1 SLOAD PUSH2 0xF76 SWAP1 PUSH2 0x5B86 JUMP JUMPDEST DUP1 ISZERO PUSH2 0xFC3 JUMPI DUP1 PUSH1 0x1F LT PUSH2 0xF98 JUMPI PUSH2 0x100 DUP1 DUP4 SLOAD DIV MUL DUP4 MSTORE SWAP2 PUSH1 0x20 ADD SWAP2 PUSH2 0xFC3 JUMP JUMPDEST DUP3 ADD SWAP2 SWAP1 PUSH1 0x0 MSTORE PUSH1 0x20 PUSH1 0x0 KECCAK256 SWAP1 JUMPDEST DUP2 SLOAD DUP2 MSTORE SWAP1 PUSH1 0x1 ADD SWAP1 PUSH1 0x20 ADD DUP1 DUP4 GT PUSH2 0xFA6 JUMPI DUP3 SWAP1 SUB PUSH1 0x1F AND DUP3 ADD SWAP2 JUMPDEST POP POP POP SWAP2 DUP4 MSTORE POP POP PUSH1 0x5 DUP3 ADD SLOAD PUSH1 0x20 DUP1 DUP4 ADD SWAP2 SWAP1 SWAP2 MSTORE PUSH1 0x6 DUP4 ADD SLOAD PUSH1 0x40 DUP4 ADD MSTORE PUSH1 0x7 DUP4 ADD SLOAD PUSH1 0x60 DUP4 ADD MSTORE PUSH1 0x8 DUP4 ADD SLOAD PUSH1 0x80 DUP4 ADD MSTORE PUSH1 0x9 DUP4 ADD SLOAD PUSH1 0xFF DUP1 DUP3 AND ISZERO ISZERO PUSH1 0xA0 DUP6 ADD MSTORE PUSH2 0x100 DUP1 DUP4 DIV DUP3 AND ISZERO ISZERO PUSH1 0xC0 DUP7 ADD MSTORE PUSH3 0x10000 SWAP1 SWAP3 DIV DUP2 AND ISZERO ISZERO PUSH1 0xE0 DUP6 ADD MSTORE PUSH1 0xA DUP6 ADD SLOAD DUP3 DUP6 ADD MSTORE PUSH1 0xB DUP6 ADD SLOAD DUP1 DUP3 AND ISZERO ISZERO PUSH2 0x120 DUP7 ADD MSTORE SWAP2 SWAP1 SWAP2 DIV AND ISZERO ISZERO PUSH2 0x140 DUP4 ADD MSTORE PUSH1 0xC DUP4 ADD SLOAD PUSH2 0x160 DUP4 ADD MSTORE PUSH1 0xD SWAP1 SWAP3 ADD SLOAD PUSH2 0x180 SWAP1 SWAP2 ADD MSTORE DUP2 ADD MLOAD SWAP1 SWAP2 POP PUSH1 0x1 PUSH1 0x1 PUSH1 0xA0 SHL SUB DUP1 DUP9 AND SWAP2 AND SUB PUSH2 0x10AA JUMPI DUP1 DUP4 DUP6 DUP2 MLOAD DUP2 LT PUSH2 0x1090 JUMPI PUSH2 0x1090 PUSH2 0x5B41 JUMP JUMPDEST PUSH1 0x20 MUL PUSH1 0x20 ADD ADD DUP2 SWAP1 MSTORE POP DUP4 DUP1 PUSH2 0x10A6 SWAP1 PUSH2 0x5B6D JUMP JUMPDEST SWAP5 POP POP JUMPDEST POP DUP1 PUSH2 0x10B5 DUP2 PUSH2 0x5B6D JUMP JUMPDEST SWAP2 POP POP PUSH2 0xDA4 JUMP JUMPDEST PUSH1 0x0 DUP1 DUP1 PUSH2 0x10CA DUP5 PUSH2 0xB46 JUMP JUMPDEST SWAP1 POP PUSH1 0x0 JUMPDEST DUP2 MLOAD DUP2 LT ISZERO PUSH2 0x111C JUMPI PUSH1 0x0 DUP3 DUP3 DUP2 MLOAD DUP2 LT PUSH2 0x10EC JUMPI PUSH2 0x10EC PUSH2 0x5B41 JUMP JUMPDEST PUSH1 0x20 MUL PUSH1 0x20 ADD ADD MLOAD SWAP1 POP DUP1 PUSH1 0x60 ADD MLOAD DUP5 PUSH2 0x1106 SWAP2 SWAP1 PUSH2 0x5BBA JUMP JUMPDEST SWAP4 POP POP DUP1 DUP1 PUSH2 0x1114 SWAP1 PUSH2 0x5B6D JUMP JUMPDEST SWAP2 POP POP PUSH2 0x10CF JUMP JUMPDEST POP SWAP1 SWAP4 SWAP3 POP POP POP JUMP JUMPDEST PUSH2 0x112D PUSH2 0x5195 JUMP JUMPDEST PUSH1 0x2 SLOAD PUSH1 0x40 DUP1 MLOAD PUSH1 0xC0 DUP2 ADD DUP3 MSTORE PUSH1 0x12 SLOAD DUP2 MSTORE PUSH32 0x0 PUSH1 0x20 DUP1 DUP4 ADD SWAP2 SWAP1 SWAP2 MSTORE PUSH1 0x1 DUP3 DUP5 ADD DUP2 SWAP1 MSTORE PUSH3 0x186A0 PUSH1 0x60 DUP5 ADD MSTORE PUSH1 0x80 DUP4 ADD MSTORE DUP3 MLOAD SWAP1 DUP2 ADD SWAP1 SWAP3 MSTORE PUSH1 0x0 DUP1 DUP4 MSTORE SWAP3 PUSH1 0x1 PUSH1 0x1 PUSH1 0xA0 SHL SUB AND SWAP2 PUSH4 0x9B1C385E SWAP2 SWAP1 PUSH1 0xA0 DUP3 ADD SWAP1 PUSH2 0x11AC SWAP1 PUSH2 0x413E JUMP JUMPDEST DUP2 MSTORE POP PUSH1 0x40 MLOAD DUP3 PUSH4 0xFFFFFFFF AND PUSH1 0xE0 SHL DUP2 MSTORE PUSH1 0x4 ADD PUSH2 0x11CB SWAP2 SWAP1 PUSH2 0x5BCD JUMP JUMPDEST PUSH1 0x20 PUSH1 0x40 MLOAD DUP1 DUP4 SUB DUP2 PUSH1 0x0 DUP8 GAS CALL ISZERO DUP1 ISZERO PUSH2 0x11EA JUMPI RETURNDATASIZE PUSH1 0x0 DUP1 RETURNDATACOPY RETURNDATASIZE PUSH1 0x0 REVERT JUMPDEST POP POP POP POP PUSH1 0x40 MLOAD RETURNDATASIZE PUSH1 0x1F NOT PUSH1 0x1F DUP3 ADD AND DUP3 ADD DUP1 PUSH1 0x40 MSTORE POP DUP2 ADD SWAP1 PUSH2 0x120E SWAP2 SWAP1 PUSH2 0x5C32 JUMP JUMPDEST SWAP1 POP PUSH2 0x121A DUP4 DUP3 PUSH2 0x41AF JUMP JUMPDEST SWAP4 SWAP3 POP POP POP JUMP JUMPDEST PUSH1 0x0 PUSH2 0x1264 PUSH1 0x40 DUP1 MLOAD PUSH1 0xE0 DUP2 ADD SWAP1 SWAP2 MSTORE DUP1 PUSH1 0x0 DUP2 MSTORE PUSH1 0x20 ADD PUSH1 0x0 DUP2 MSTORE PUSH1 0x20 ADD PUSH1 0x0 DUP2 MSTORE PUSH1 0x20 ADD PUSH1 0x60 DUP2 MSTORE PUSH1 0x20 ADD PUSH1 0x60 DUP2 MSTORE PUSH1 0x20 ADD PUSH1 0x60 DUP2 MSTORE PUSH1 0x20 ADD PUSH1 0x60 DUP2 MSTORE POP SWAP1 JUMP JUMPDEST PUSH2 0x126E DUP2 DUP13 PUSH2 0x434D JUMP JUMPDEST DUP10 MLOAD ISZERO PUSH2 0x1284 JUMPI PUSH2 0x127F DUP2 DUP12 PUSH2 0x435E JUMP JUMPDEST PUSH2 0x129E JUMP JUMPDEST PUSH1 0x1 PUSH1 0x1 PUSH1 0x40 SHL SUB DUP9 AND ISZERO PUSH2 0x129E JUMPI PUSH2 0x129E DUP2 DUP11 DUP11 PUSH2 0x438F JUMP JUMPDEST DUP7 MLOAD ISZERO PUSH2 0x12AF JUMPI PUSH2 0x12AF DUP2 DUP9 PUSH2 0x4425 JUMP JUMPDEST DUP6 MLOAD ISZERO PUSH2 0x12C0 JUMPI PUSH2 0x12C0 DUP2 DUP8 PUSH2 0x444F JUMP JUMPDEST PUSH1 0x0 PUSH2 0x12D6 PUSH2 0x12CE DUP4 PUSH2 0x4479 JUMP JUMPDEST DUP8 DUP8 DUP8 PUSH2 0x4751 JUMP JUMPDEST SWAP13 SWAP12 POP POP POP POP POP POP POP POP POP POP POP POP JUMP JUMPDEST PUSH1 0x60 PUSH1 0x0 DUP1 PUSH2 0x12F3 PUSH2 0x38FF JUMP JUMPDEST PUSH1 0x1 PUSH1 0x1 PUSH1 0x40 SHL SUB DUP2 GT ISZERO PUSH2 0x130A JUMPI PUSH2 0x130A PUSH2 0x52A7 JUMP JUMPDEST PUSH1 0x40 MLOAD SWAP1 DUP1 DUP3 MSTORE DUP1 PUSH1 0x20 MUL PUSH1 0x20 ADD DUP3 ADD PUSH1 0x40 MSTORE DUP1 ISZERO PUSH2 0x1343 JUMPI DUP2 PUSH1 0x20 ADD JUMPDEST PUSH2 0x1330 PUSH2 0x5195 JUMP JUMPDEST DUP2 MSTORE PUSH1 0x20 ADD SWAP1 PUSH1 0x1 SWAP1 SUB SWAP1 DUP2 PUSH2 0x1328 JUMPI SWAP1 POP JUMPDEST POP SWAP1 POP PUSH1 0x0 JUMPDEST PUSH1 0x4 SLOAD DUP2 LT ISZERO PUSH2 0x1655 JUMPI PUSH1 0x0 PUSH1 0x4 DUP3 DUP2 SLOAD DUP2 LT PUSH2 0x1368 JUMPI PUSH2 0x1368 PUSH2 0x5B41 JUMP JUMPDEST SWAP1 PUSH1 0x0 MSTORE PUSH1 0x20 PUSH1 0x0 KECCAK256 SWAP1 PUSH1 0xE MUL ADD PUSH1 0x40 MLOAD DUP1 PUSH2 0x220 ADD PUSH1 0x40 MSTORE SWAP1 DUP2 PUSH1 0x0 DUP3 ADD SLOAD DUP2 MSTORE PUSH1 0x20 ADD PUSH1 0x1 DUP3 ADD PUSH1 0x0 SWAP1 SLOAD SWAP1 PUSH2 0x100 EXP SWAP1 DIV PUSH1 0x1 PUSH1 0x1 PUSH1 0xA0 SHL SUB AND PUSH1 0x1 PUSH1 0x1 PUSH1 0xA0 SHL SUB AND PUSH1 0x1 PUSH1 0x1 PUSH1 0xA0 SHL SUB AND DUP2 MSTORE PUSH1 0x20 ADD PUSH1 0x2 DUP3 ADD DUP1 SLOAD PUSH2 0x13CB SWAP1 PUSH2 0x5B86 JUMP JUMPDEST DUP1 PUSH1 0x1F ADD PUSH1 0x20 DUP1 SWAP2 DIV MUL PUSH1 0x20 ADD PUSH1 0x40 MLOAD SWAP1 DUP2 ADD PUSH1 0x40 MSTORE DUP1 SWAP3 SWAP2 SWAP1 DUP2 DUP2 MSTORE PUSH1 0x20 ADD DUP3 DUP1 SLOAD PUSH2 0x13F7 SWAP1 PUSH2 0x5B86 JUMP JUMPDEST DUP1 ISZERO PUSH2 0x1444 JUMPI DUP1 PUSH1 0x1F LT PUSH2 0x1419 JUMPI PUSH2 0x100 DUP1 DUP4 SLOAD DIV MUL DUP4 MSTORE SWAP2 PUSH1 0x20 ADD SWAP2 PUSH2 0x1444 JUMP JUMPDEST DUP3 ADD SWAP2 SWAP1 PUSH1 0x0 MSTORE PUSH1 0x20 PUSH1 0x0 KECCAK256 SWAP1 JUMPDEST DUP2 SLOAD DUP2 MSTORE SWAP1 PUSH1 0x1 ADD SWAP1 PUSH1 0x20 ADD DUP1 DUP4 GT PUSH2 0x1427 JUMPI DUP3 SWAP1 SUB PUSH1 0x1F AND DUP3 ADD SWAP2 JUMPDEST POP POP POP POP POP DUP2 MSTORE PUSH1 0x20 ADD PUSH1 0x3 DUP3 ADD DUP1 SLOAD PUSH2 0x145D SWAP1 PUSH2 0x5B86 JUMP JUMPDEST DUP1 PUSH1 0x1F ADD PUSH1 0x20 DUP1 SWAP2 DIV MUL PUSH1 0x20 ADD PUSH1 0x40 MLOAD SWAP1 DUP2 ADD PUSH1 0x40 MSTORE DUP1 SWAP3 SWAP2 SWAP1 DUP2 DUP2 MSTORE PUSH1 0x20 ADD DUP3 DUP1 SLOAD PUSH2 0x1489 SWAP1 PUSH2 0x5B86 JUMP JUMPDEST DUP1 ISZERO PUSH2 0x14D6 JUMPI DUP1 PUSH1 0x1F LT PUSH2 0x14AB JUMPI PUSH2 0x100 DUP1 DUP4 SLOAD DIV MUL DUP4 MSTORE SWAP2 PUSH1 0x20 ADD SWAP2 PUSH2 0x14D6 JUMP JUMPDEST DUP3 ADD SWAP2 SWAP1 PUSH1 0x0 MSTORE PUSH1 0x20 PUSH1 0x0 KECCAK256 SWAP1 JUMPDEST DUP2 SLOAD DUP2 MSTORE SWAP1 PUSH1 0x1 ADD SWAP1 PUSH1 0x20 ADD DUP1 DUP4 GT PUSH2 0x14B9 JUMPI DUP3 SWAP1 SUB PUSH1 0x1F AND DUP3 ADD SWAP2 JUMPDEST POP POP POP POP POP DUP2 MSTORE PUSH1 0x20 ADD PUSH1 0x4 DUP3 ADD DUP1 SLOAD PUSH2 0x14EF SWAP1 PUSH2 0x5B86 JUMP JUMPDEST DUP1 PUSH1 0x1F ADD PUSH1 0x20 DUP1 SWAP2 DIV MUL PUSH1 0x20 ADD PUSH1 0x40 MLOAD SWAP1 DUP2 ADD PUSH1 0x40 MSTORE DUP1 SWAP3 SWAP2 SWAP1 DUP2 DUP2 MSTORE PUSH1 0x20 ADD DUP3 DUP1 SLOAD PUSH2 0x151B SWAP1 PUSH2 0x5B86 JUMP JUMPDEST DUP1 ISZERO PUSH2 0x1568 JUMPI DUP1 PUSH1 0x1F LT PUSH2 0x153D JUMPI PUSH2 0x100 DUP1 DUP4 SLOAD DIV MUL DUP4 MSTORE SWAP2 PUSH1 0x20 ADD SWAP2 PUSH2 0x1568 JUMP JUMPDEST DUP3 ADD SWAP2 SWAP1 PUSH1 0x0 MSTORE PUSH1 0x20 PUSH1 0x0 KECCAK256 SWAP1 JUMPDEST DUP2 SLOAD DUP2 MSTORE SWAP1 PUSH1 0x1 ADD SWAP1 PUSH1 0x20 ADD DUP1 DUP4 GT PUSH2 0x154B JUMPI DUP3 SWAP1 SUB PUSH1 0x1F AND DUP3 ADD SWAP2 JUMPDEST POP POP POP SWAP2 DUP4 MSTORE POP POP PUSH1 0x5 DUP3 ADD SLOAD PUSH1 0x20 DUP3 ADD MSTORE PUSH1 0x6 DUP3 ADD SLOAD PUSH1 0x40 DUP3 ADD MSTORE PUSH1 0x7 DUP3 ADD SLOAD PUSH1 0x60 DUP3 ADD MSTORE PUSH1 0x8 DUP3 ADD SLOAD PUSH1 0x80 DUP3 ADD MSTORE PUSH1 0x9 DUP3 ADD SLOAD PUSH1 0xFF DUP1 DUP3 AND ISZERO ISZERO PUSH1 0xA0 DUP5 ADD MSTORE PUSH2 0x100 DUP1 DUP4 DIV DUP3 AND ISZERO ISZERO PUSH1 0xC0 DUP6 ADD MSTORE PUSH3 0x10000 SWAP1 SWAP3 DIV DUP2 AND ISZERO ISZERO PUSH1 0xE0 DUP5 ADD MSTORE PUSH1 0xA DUP5 ADD SLOAD DUP3 DUP5 ADD MSTORE PUSH1 0xB DUP5 ADD SLOAD DUP1 DUP3 AND ISZERO ISZERO PUSH2 0x120 DUP6 ADD MSTORE SWAP2 SWAP1 SWAP2 DIV AND ISZERO ISZERO PUSH2 0x140 DUP1 DUP4 ADD SWAP2 SWAP1 SWAP2 MSTORE PUSH1 0xC DUP4 ADD SLOAD PUSH2 0x160 DUP4 ADD MSTORE PUSH1 0xD SWAP1 SWAP3 ADD SLOAD PUSH2 0x180 SWAP1 SWAP2 ADD MSTORE DUP2 ADD MLOAD SWAP1 SWAP2 POP ISZERO PUSH2 0x1642 JUMPI DUP1 DUP4 DUP6 DUP2 MLOAD DUP2 LT PUSH2 0x1628 JUMPI PUSH2 0x1628 PUSH2 0x5B41 JUMP JUMPDEST PUSH1 0x20 MUL PUSH1 0x20 ADD ADD DUP2 SWAP1 MSTORE POP DUP4 DUP1 PUSH2 0x163E SWAP1 PUSH2 0x5B6D JUMP JUMPDEST SWAP5 POP POP JUMPDEST POP DUP1 PUSH2 0x164D DUP2 PUSH2 0x5B6D JUMP JUMPDEST SWAP2 POP POP PUSH2 0x1349 JUMP JUMPDEST POP SWAP3 SWAP2 POP POP JUMP JUMPDEST PUSH1 0x0 DUP1 JUMPDEST PUSH1 0x5 SLOAD DUP2 LT ISZERO PUSH2 0xD37 JUMPI PUSH1 0x0 PUSH1 0x5 DUP3 DUP2 SLOAD DUP2 LT PUSH2 0x167F JUMPI PUSH2 0x167F PUSH2 0x5B41 JUMP JUMPDEST PUSH1 0x0 SWAP2 DUP3 MSTORE PUSH1 0x20 SWAP2 DUP3 SWAP1 KECCAK256 PUSH1 0x40 DUP1 MLOAD PUSH1 0xE0 DUP2 ADD DUP3 MSTORE PUSH1 0x7 SWAP1 SWAP4 MUL SWAP1 SWAP2 ADD DUP1 SLOAD DUP4 MSTORE PUSH1 0x1 DUP2 ADD SLOAD SWAP4 DUP4 ADD DUP5 SWAP1 MSTORE PUSH1 0x2 DUP2 ADD SLOAD PUSH1 0x1 PUSH1 0x1 PUSH1 0xA0 SHL SUB AND SWAP2 DUP4 ADD SWAP2 SWAP1 SWAP2 MSTORE PUSH1 0x3 DUP2 ADD SLOAD PUSH1 0x60 DUP4 ADD MSTORE PUSH1 0x4 DUP2 ADD SLOAD PUSH1 0xFF AND ISZERO ISZERO PUSH1 0x80 DUP4 ADD MSTORE PUSH1 0x5 DUP2 ADD SLOAD PUSH1 0xA0 DUP4 ADD MSTORE PUSH1 0x6 ADD SLOAD PUSH1 0xC0 DUP3 ADD MSTORE SWAP2 POP DUP5 EQ DUP1 ISZERO PUSH2 0x1708 JUMPI POP PUSH1 0x40 DUP2 ADD MLOAD PUSH1 0x1 PUSH1 0x1 PUSH1 0xA0 SHL SUB AND CALLER EQ JUMPDEST ISZERO PUSH2 0x1717 JUMPI POP PUSH1 0x1 SWAP4 SWAP3 POP POP POP JUMP JUMPDEST POP DUP1 PUSH2 0x1722 DUP2 PUSH2 0x5B6D JUMP JUMPDEST SWAP2 POP POP PUSH2 0x1660 JUMP JUMPDEST PUSH1 0x0 DUP1 DUP1 JUMPDEST PUSH1 0x5 SLOAD DUP2 LT ISZERO PUSH2 0x1655 JUMPI PUSH1 0x0 PUSH1 0x5 DUP3 DUP2 SLOAD DUP2 LT PUSH2 0x174E JUMPI PUSH2 0x174E PUSH2 0x5B41 JUMP JUMPDEST PUSH1 0x0 SWAP2 DUP3 MSTORE PUSH1 0x20 SWAP2 DUP3 SWAP1 KECCAK256 PUSH1 0x40 DUP1 MLOAD PUSH1 0xE0 DUP2 ADD DUP3 MSTORE PUSH1 0x7 SWAP1 SWAP4 MUL SWAP1 SWAP2 ADD DUP1 SLOAD DUP4 MSTORE PUSH1 0x1 DUP2 ADD SLOAD SWAP4 DUP4 ADD SWAP4 SWAP1 SWAP4 MSTORE PUSH1 0x2 DUP4 ADD SLOAD PUSH1 0x1 PUSH1 0x1 PUSH1 0xA0 SHL SUB SWAP1 DUP2 AND SWAP2 DUP4 ADD DUP3 SWAP1 MSTORE PUSH1 0x3 DUP5 ADD SLOAD PUSH1 0x60 DUP5 ADD MSTORE PUSH1 0x4 DUP5 ADD SLOAD PUSH1 0xFF AND ISZERO ISZERO PUSH1 0x80 DUP5 ADD MSTORE PUSH1 0x5 DUP5 ADD SLOAD PUSH1 0xA0 DUP5 ADD MSTORE PUSH1 0x6 SWAP1 SWAP4 ADD SLOAD PUSH1 0xC0 DUP4 ADD MSTORE SWAP1 SWAP3 POP SWAP1 DUP7 AND SWAP1 SUB PUSH2 0x17D9 JUMPI DUP3 PUSH2 0x17D5 DUP2 PUSH2 0x5B6D JUMP JUMPDEST SWAP4 POP POP JUMPDEST POP DUP1 PUSH2 0x17E4 DUP2 PUSH2 0x5B6D JUMP JUMPDEST SWAP2 POP POP PUSH2 0x172F JUMP JUMPDEST PUSH2 0x17F4 PUSH2 0x522C JUMP JUMPDEST PUSH1 0x0 JUMPDEST PUSH1 0x3 SLOAD DUP2 LT ISZERO PUSH2 0x19EC JUMPI PUSH1 0x0 PUSH1 0x3 DUP3 DUP2 SLOAD DUP2 LT PUSH2 0x1816 JUMPI PUSH2 0x1816 PUSH2 0x5B41 JUMP JUMPDEST SWAP1 PUSH1 0x0 MSTORE PUSH1 0x20 PUSH1 0x0 KECCAK256 SWAP1 PUSH1 0x6 MUL ADD PUSH1 0x40 MLOAD DUP1 PUSH2 0x100 ADD PUSH1 0x40 MSTORE SWAP1 DUP2 PUSH1 0x0 DUP3 ADD SLOAD DUP2 MSTORE PUSH1 0x20 ADD PUSH1 0x1 DUP3 ADD PUSH1 0x0 SWAP1 SLOAD SWAP1 PUSH2 0x100 EXP SWAP1 DIV PUSH1 0x1 PUSH1 0x1 PUSH1 0xA0 SHL SUB AND PUSH1 0x1 PUSH1 0x1 PUSH1 0xA0 SHL SUB AND PUSH1 0x1 PUSH1 0x1 PUSH1 0xA0 SHL SUB AND DUP2 MSTORE PUSH1 0x20 ADD PUSH1 0x2 DUP3 ADD DUP1 SLOAD PUSH2 0x1879 SWAP1 PUSH2 0x5B86 JUMP JUMPDEST DUP1 PUSH1 0x1F ADD PUSH1 0x20 DUP1 SWAP2 DIV MUL PUSH1 0x20 ADD PUSH1 0x40 MLOAD SWAP1 DUP2 ADD PUSH1 0x40 MSTORE DUP1 SWAP3 SWAP2 SWAP1 DUP2 DUP2 MSTORE PUSH1 0x20 ADD DUP3 DUP1 SLOAD PUSH2 0x18A5 SWAP1 PUSH2 0x5B86 JUMP JUMPDEST DUP1 ISZERO PUSH2 0x18F2 JUMPI DUP1 PUSH1 0x1F LT PUSH2 0x18C7 JUMPI PUSH2 0x100 DUP1 DUP4 SLOAD DIV MUL DUP4 MSTORE SWAP2 PUSH1 0x20 ADD SWAP2 PUSH2 0x18F2 JUMP JUMPDEST DUP3 ADD SWAP2 SWAP1 PUSH1 0x0 MSTORE PUSH1 0x20 PUSH1 0x0 KECCAK256 SWAP1 JUMPDEST DUP2 SLOAD DUP2 MSTORE SWAP1 PUSH1 0x1 ADD SWAP1 PUSH1 0x20 ADD DUP1 DUP4 GT PUSH2 0x18D5 JUMPI DUP3 SWAP1 SUB PUSH1 0x1F AND DUP3 ADD SWAP2 JUMPDEST POP POP POP POP POP DUP2 MSTORE PUSH1 0x20 ADD PUSH1 0x3 DUP3 ADD DUP1 SLOAD PUSH2 0x190B SWAP1 PUSH2 0x5B86 JUMP JUMPDEST DUP1 PUSH1 0x1F ADD PUSH1 0x20 DUP1 SWAP2 DIV MUL PUSH1 0x20 ADD PUSH1 0x40 MLOAD SWAP1 DUP2 ADD PUSH1 0x40 MSTORE DUP1 SWAP3 SWAP2 SWAP1 DUP2 DUP2 MSTORE PUSH1 0x20 ADD DUP3 DUP1 SLOAD PUSH2 0x1937 SWAP1 PUSH2 0x5B86 JUMP JUMPDEST DUP1 ISZERO PUSH2 0x1984 JUMPI DUP1 PUSH1 0x1F LT PUSH2 0x1959 JUMPI PUSH2 0x100 DUP1 DUP4 SLOAD DIV MUL DUP4 MSTORE SWAP2 PUSH1 0x20 ADD SWAP2 PUSH2 0x1984 JUMP JUMPDEST DUP3 ADD SWAP2 SWAP1 PUSH1 0x0 MSTORE PUSH1 0x20 PUSH1 0x0 KECCAK256 SWAP1 JUMPDEST DUP2 SLOAD DUP2 MSTORE SWAP1 PUSH1 0x1 ADD SWAP1 PUSH1 0x20 ADD DUP1 DUP4 GT PUSH2 0x1967 JUMPI DUP3 SWAP1 SUB PUSH1 0x1F AND DUP3 ADD SWAP2 JUMPDEST POP POP POP SWAP2 DUP4 MSTORE POP POP PUSH1 0x4 DUP3 ADD SLOAD PUSH1 0xFF DUP1 DUP3 AND ISZERO ISZERO PUSH1 0x20 DUP5 ADD MSTORE PUSH2 0x100 DUP3 DIV DUP2 AND ISZERO ISZERO PUSH1 0x40 DUP5 ADD MSTORE PUSH3 0x10000 SWAP1 SWAP2 DIV AND ISZERO ISZERO PUSH1 0x60 DUP3 ADD MSTORE PUSH1 0x5 SWAP1 SWAP2 ADD SLOAD PUSH1 0x80 SWAP1 SWAP2 ADD MSTORE DUP1 MLOAD SWAP1 SWAP2 POP DUP5 SWAP1 SUB PUSH2 0x19D9 JUMPI SWAP4 SWAP3 POP POP POP JUMP JUMPDEST POP DUP1 PUSH2 0x19E4 DUP2 PUSH2 0x5B6D JUMP JUMPDEST SWAP2 POP POP PUSH2 0x17F7 JUMP JUMPDEST POP PUSH2 0x19F5 PUSH2 0x522C JUMP JUMPDEST PUSH1 0x1 PUSH1 0xA0 DUP3 ADD MSTORE SWAP3 SWAP2 POP POP JUMP JUMPDEST PUSH1 0x0 DUP1 DUP1 JUMPDEST PUSH1 0x5 SLOAD DUP2 LT ISZERO PUSH2 0x1655 JUMPI PUSH1 0x0 PUSH1 0x5 DUP3 DUP2 SLOAD DUP2 LT PUSH2 0x1A26 JUMPI PUSH2 0x1A26 PUSH2 0x5B41 JUMP JUMPDEST PUSH1 0x0 SWAP2 DUP3 MSTORE PUSH1 0x20 SWAP2 DUP3 SWAP1 KECCAK256 PUSH1 0x40 DUP1 MLOAD PUSH1 0xE0 DUP2 ADD DUP3 MSTORE PUSH1 0x7 SWAP1 SWAP4 MUL SWAP1 SWAP2 ADD DUP1 SLOAD DUP4 MSTORE PUSH1 0x1 DUP2 ADD SLOAD SWAP4 DUP4 ADD DUP5 SWAP1 MSTORE PUSH1 0x2 DUP2 ADD SLOAD PUSH1 0x1 PUSH1 0x1 PUSH1 0xA0 SHL SUB AND SWAP2 DUP4 ADD SWAP2 SWAP1 SWAP2 MSTORE PUSH1 0x3 DUP2 ADD SLOAD PUSH1 0x60 DUP4 ADD MSTORE PUSH1 0x4 DUP2 ADD SLOAD PUSH1 0xFF AND ISZERO ISZERO PUSH1 0x80 DUP4 ADD MSTORE PUSH1 0x5 DUP2 ADD SLOAD PUSH1 0xA0 DUP4 ADD MSTORE PUSH1 0x6 ADD SLOAD PUSH1 0xC0 DUP3 ADD MSTORE SWAP2 POP DUP6 SWAP1 SUB PUSH2 0x1AAA JUMPI DUP3 PUSH2 0x1AA6 DUP2 PUSH2 0x5B6D JUMP JUMPDEST SWAP4 POP POP JUMPDEST POP DUP1 PUSH2 0x1AB5 DUP2 PUSH2 0x5B6D JUMP JUMPDEST SWAP2 POP POP PUSH2 0x1A07 JUMP JUMPDEST PUSH2 0x1AC5 PUSH2 0x514D JUMP JUMPDEST PUSH1 0x2 SLOAD PUSH1 0x40 DUP1 MLOAD PUSH1 0xC0 DUP2 ADD DUP3 MSTORE PUSH1 0x12 SLOAD DUP2 MSTORE PUSH32 0x0 PUSH1 0x20 DUP1 DUP4 ADD SWAP2 SWAP1 SWAP2 MSTORE PUSH1 0x1 DUP3 DUP5 ADD DUP2 SWAP1 MSTORE PUSH3 0x186A0 PUSH1 0x60 DUP5 ADD MSTORE PUSH1 0x80 DUP4 ADD MSTORE DUP3 MLOAD SWAP1 DUP2 ADD SWAP1 SWAP3 MSTORE PUSH1 0x0 DUP1 DUP4 MSTORE SWAP3 PUSH1 0x1 PUSH1 0x1 PUSH1 0xA0 SHL SUB AND SWAP2 PUSH4 0x9B1C385E SWAP2 SWAP1 PUSH1 0xA0 DUP3 ADD SWAP1 PUSH2 0x1B44 SWAP1 PUSH2 0x413E JUMP JUMPDEST DUP2 MSTORE POP PUSH1 0x40 MLOAD DUP3 PUSH4 0xFFFFFFFF AND PUSH1 0xE0 SHL DUP2 MSTORE PUSH1 0x4 ADD PUSH2 0x1B63 SWAP2 SWAP1 PUSH2 0x5BCD JUMP JUMPDEST PUSH1 0x20 PUSH1 0x40 MLOAD DUP1 DUP4 SUB DUP2 PUSH1 0x0 DUP8 GAS CALL ISZERO DUP1 ISZERO PUSH2 0x1B82 JUMPI RETURNDATASIZE PUSH1 0x0 DUP1 RETURNDATACOPY RETURNDATASIZE PUSH1 0x0 REVERT JUMPDEST POP POP POP POP PUSH1 0x40 MLOAD RETURNDATASIZE PUSH1 0x1F NOT PUSH1 0x1F DUP3 ADD AND DUP3 ADD DUP1 PUSH1 0x40 MSTORE POP DUP2 ADD SWAP1 PUSH2 0x1BA6 SWAP2 SWAP1 PUSH2 0x5C32 JUMP JUMPDEST SWAP1 POP PUSH2 0x121A DUP4 DUP3 PUSH2 0x4823 JUMP JUMPDEST PUSH1 0x0 DUP1 DUP1 JUMPDEST PUSH1 0x5 SLOAD DUP2 LT ISZERO PUSH2 0x1655 JUMPI PUSH1 0x0 PUSH1 0x5 DUP3 DUP2 SLOAD DUP2 LT PUSH2 0x1BD6 JUMPI PUSH2 0x1BD6 PUSH2 0x5B41 JUMP JUMPDEST PUSH1 0x0 SWAP2 DUP3 MSTORE PUSH1 0x20 SWAP2 DUP3 SWAP1 KECCAK256 PUSH1 0x40 DUP1 MLOAD PUSH1 0xE0 DUP2 ADD DUP3 MSTORE PUSH1 0x7 SWAP1 SWAP4 MUL SWAP1 SWAP2 ADD DUP1 SLOAD DUP4 MSTORE PUSH1 0x1 DUP2 ADD SLOAD SWAP4 DUP4 ADD DUP5 SWAP1 MSTORE PUSH1 0x2 DUP2 ADD SLOAD PUSH1 0x1 PUSH1 0x1 PUSH1 0xA0 SHL SUB AND SWAP2 DUP4 ADD SWAP2 SWAP1 SWAP2 MSTORE PUSH1 0x3 DUP2 ADD SLOAD PUSH1 0x60 DUP4 ADD MSTORE PUSH1 0x4 DUP2 ADD SLOAD PUSH1 0xFF AND ISZERO ISZERO PUSH1 0x80 DUP4 ADD MSTORE PUSH1 0x5 DUP2 ADD SLOAD PUSH1 0xA0 DUP4 ADD MSTORE PUSH1 0x6 ADD SLOAD PUSH1 0xC0 DUP3 ADD MSTORE SWAP2 POP DUP6 SWAP1 SUB PUSH2 0x1C5A JUMPI DUP3 PUSH2 0x1C56 DUP2 PUSH2 0x5B6D JUMP JUMPDEST SWAP4 POP POP JUMPDEST POP DUP1 PUSH2 0x1C65 DUP2 PUSH2 0x5B6D JUMP JUMPDEST SWAP2 POP POP PUSH2 0x1BB7 JUMP JUMPDEST PUSH1 0x1 SLOAD PUSH1 0x1 PUSH1 0x1 PUSH1 0xA0 SHL SUB AND CALLER EQ PUSH2 0x1CC0 JUMPI PUSH1 0x40 MLOAD PUSH3 0x461BCD PUSH1 0xE5 SHL DUP2 MSTORE PUSH1 0x20 PUSH1 0x4 DUP3 ADD MSTORE PUSH1 0x16 PUSH1 0x24 DUP3 ADD MSTORE PUSH22 0x26BAB9BA10313290383937B837B9B2B21037BBB732B9 PUSH1 0x51 SHL PUSH1 0x44 DUP3 ADD MSTORE PUSH1 0x64 ADD PUSH2 0x824 JUMP JUMPDEST PUSH1 0x0 DUP1 SLOAD CALLER PUSH1 0x1 PUSH1 0x1 PUSH1 0xA0 SHL SUB NOT DUP1 DUP4 AND DUP3 OR DUP5 SSTORE PUSH1 0x1 DUP1 SLOAD SWAP1 SWAP2 AND SWAP1 SSTORE PUSH1 0x40 MLOAD PUSH1 0x1 PUSH1 0x1 PUSH1 0xA0 SHL SUB SWAP1 SWAP3 AND SWAP3 SWAP1 SWAP2 DUP4 SWAP2 PUSH32 0x8BE0079C531659141344CD1FD0A4F28419497F9722A3DAAFE3B4186F6B6457E0 SWAP2 LOG3 POP JUMP JUMPDEST PUSH2 0x1D1F PUSH2 0x522C JUMP JUMPDEST PUSH1 0x9 SLOAD PUSH1 0x40 DUP1 MLOAD PUSH2 0x100 DUP2 ADD DUP3 MSTORE DUP3 DUP2 MSTORE CALLER PUSH1 0x20 DUP3 ADD SWAP1 DUP2 MSTORE SWAP2 DUP2 ADD DUP7 DUP2 MSTORE PUSH1 0x60 DUP3 ADD DUP7 SWAP1 MSTORE PUSH1 0x0 PUSH1 0x80 DUP4 ADD DUP2 SWAP1 MSTORE PUSH1 0xA0 DUP4 ADD DUP2 SWAP1 MSTORE PUSH1 0xC0 DUP4 ADD DUP2 SWAP1 MSTORE PUSH1 0xE0 DUP4 ADD DUP2 SWAP1 MSTORE PUSH1 0x3 DUP1 SLOAD PUSH1 0x1 DUP2 ADD DUP3 SSTORE SWAP2 MSTORE DUP3 MLOAD PUSH32 0xC2575A0E9E593C00F959F8C92F12DB2869C3395A3B0502D05E2516446F71F85B PUSH1 0x6 SWAP1 SWAP3 MUL SWAP2 DUP3 ADD SWAP1 DUP2 SSTORE SWAP4 MLOAD PUSH32 0xC2575A0E9E593C00F959F8C92F12DB2869C3395A3B0502D05E2516446F71F85C DUP3 ADD DUP1 SLOAD PUSH1 0x1 PUSH1 0x1 PUSH1 0xA0 SHL SUB NOT AND PUSH1 0x1 PUSH1 0x1 PUSH1 0xA0 SHL SUB SWAP1 SWAP3 AND SWAP2 SWAP1 SWAP2 OR SWAP1 SSTORE SWAP1 MLOAD SWAP2 SWAP3 SWAP2 PUSH32 0xC2575A0E9E593C00F959F8C92F12DB2869C3395A3B0502D05E2516446F71F85D SWAP1 SWAP2 ADD SWAP1 PUSH2 0x1E13 SWAP1 DUP3 PUSH2 0x5C91 JUMP JUMPDEST POP PUSH1 0x60 DUP3 ADD MLOAD PUSH1 0x3 DUP3 ADD SWAP1 PUSH2 0x1E28 SWAP1 DUP3 PUSH2 0x5C91 JUMP JUMPDEST POP PUSH1 0x80 DUP3 ADD MLOAD PUSH1 0x4 DUP3 ADD DUP1 SLOAD PUSH1 0xA0 DUP6 ADD MLOAD PUSH1 0xC0 DUP7 ADD MLOAD ISZERO ISZERO PUSH3 0x10000 MUL PUSH3 0xFF0000 NOT SWAP2 ISZERO ISZERO PUSH2 0x100 MUL PUSH2 0xFF00 NOT SWAP6 ISZERO ISZERO SWAP6 SWAP1 SWAP6 AND PUSH2 0xFFFF NOT SWAP1 SWAP4 AND SWAP3 SWAP1 SWAP3 OR SWAP4 SWAP1 SWAP4 OR SWAP3 SWAP1 SWAP3 AND SWAP2 SWAP1 SWAP2 OR SWAP1 SSTORE PUSH1 0xE0 SWAP1 SWAP2 ADD MLOAD PUSH1 0x5 SWAP1 SWAP2 ADD SSTORE PUSH1 0x9 DUP1 SLOAD SWAP1 PUSH1 0x0 PUSH2 0x1E91 DUP4 PUSH2 0x5B6D JUMP JUMPDEST SWAP2 SWAP1 POP SSTORE POP PUSH1 0x0 PUSH2 0x1EA1 DUP3 PUSH2 0x17EC JUMP JUMPDEST SWAP3 POP POP POP JUMPDEST SWAP3 SWAP2 POP POP JUMP JUMPDEST PUSH1 0x0 PUSH1 0x4 DUP3 DUP2 SLOAD DUP2 LT PUSH2 0x1EC1 JUMPI PUSH2 0x1EC1 PUSH2 0x5B41 JUMP JUMPDEST SWAP1 PUSH1 0x0 MSTORE PUSH1 0x20 PUSH1 0x0 KECCAK256 SWAP1 PUSH1 0xE MUL ADD PUSH1 0x40 MLOAD DUP1 PUSH2 0x220 ADD PUSH1 0x40 MSTORE SWAP1 DUP2 PUSH1 0x0 DUP3 ADD SLOAD DUP2 MSTORE PUSH1 0x20 ADD PUSH1 0x1 DUP3 ADD PUSH1 0x0 SWAP1 SLOAD SWAP1 PUSH2 0x100 EXP SWAP1 DIV PUSH1 0x1 PUSH1 0x1 PUSH1 0xA0 SHL SUB AND PUSH1 0x1 PUSH1 0x1 PUSH1 0xA0 SHL SUB AND PUSH1 0x1 PUSH1 0x1 PUSH1 0xA0 SHL SUB AND DUP2 MSTORE PUSH1 0x20 ADD PUSH1 0x2 DUP3 ADD DUP1 SLOAD PUSH2 0x1F24 SWAP1 PUSH2 0x5B86 JUMP JUMPDEST DUP1 PUSH1 0x1F ADD PUSH1 0x20 DUP1 SWAP2 DIV MUL PUSH1 0x20 ADD PUSH1 0x40 MLOAD SWAP1 DUP2 ADD PUSH1 0x40 MSTORE DUP1 SWAP3 SWAP2 SWAP1 DUP2 DUP2 MSTORE PUSH1 0x20 ADD DUP3 DUP1 SLOAD PUSH2 0x1F50 SWAP1 PUSH2 0x5B86 JUMP JUMPDEST DUP1 ISZERO PUSH2 0x1F9D JUMPI DUP1 PUSH1 0x1F LT PUSH2 0x1F72 JUMPI PUSH2 0x100 DUP1 DUP4 SLOAD DIV MUL DUP4 MSTORE SWAP2 PUSH1 0x20 ADD SWAP2 PUSH2 0x1F9D JUMP JUMPDEST DUP3 ADD SWAP2 SWAP1 PUSH1 0x0 MSTORE PUSH1 0x20 PUSH1 0x0 KECCAK256 SWAP1 JUMPDEST DUP2 SLOAD DUP2 MSTORE SWAP1 PUSH1 0x1 ADD SWAP1 PUSH1 0x20 ADD DUP1 DUP4 GT PUSH2 0x1F80 JUMPI DUP3 SWAP1 SUB PUSH1 0x1F AND DUP3 ADD SWAP2 JUMPDEST POP POP POP POP POP DUP2 MSTORE PUSH1 0x20 ADD PUSH1 0x3 DUP3 ADD DUP1 SLOAD PUSH2 0x1FB6 SWAP1 PUSH2 0x5B86 JUMP JUMPDEST DUP1 PUSH1 0x1F ADD PUSH1 0x20 DUP1 SWAP2 DIV MUL PUSH1 0x20 ADD PUSH1 0x40 MLOAD SWAP1 DUP2 ADD PUSH1 0x40 MSTORE DUP1 SWAP3 SWAP2 SWAP1 DUP2 DUP2 MSTORE PUSH1 0x20 ADD DUP3 DUP1 SLOAD PUSH2 0x1FE2 SWAP1 PUSH2 0x5B86 JUMP JUMPDEST DUP1 ISZERO PUSH2 0x202F JUMPI DUP1 PUSH1 0x1F LT PUSH2 0x2004 JUMPI PUSH2 0x100 DUP1 DUP4 SLOAD DIV MUL DUP4 MSTORE SWAP2 PUSH1 0x20 ADD SWAP2 PUSH2 0x202F JUMP JUMPDEST DUP3 ADD SWAP2 SWAP1 PUSH1 0x0 MSTORE PUSH1 0x20 PUSH1 0x0 KECCAK256 SWAP1 JUMPDEST DUP2 SLOAD DUP2 MSTORE SWAP1 PUSH1 0x1 ADD SWAP1 PUSH1 0x20 ADD DUP1 DUP4 GT PUSH2 0x2012 JUMPI DUP3 SWAP1 SUB PUSH1 0x1F AND DUP3 ADD SWAP2 JUMPDEST POP POP POP POP POP DUP2 MSTORE PUSH1 0x20 ADD PUSH1 0x4 DUP3 ADD DUP1 SLOAD PUSH2 0x2048 SWAP1 PUSH2 0x5B86 JUMP JUMPDEST DUP1 PUSH1 0x1F ADD PUSH1 0x20 DUP1 SWAP2 DIV MUL PUSH1 0x20 ADD PUSH1 0x40 MLOAD SWAP1 DUP2 ADD PUSH1 0x40 MSTORE DUP1 SWAP3 SWAP2 SWAP1 DUP2 DUP2 MSTORE PUSH1 0x20 ADD DUP3 DUP1 SLOAD PUSH2 0x2074 SWAP1 PUSH2 0x5B86 JUMP JUMPDEST DUP1 ISZERO PUSH2 0x20C1 JUMPI DUP1 PUSH1 0x1F LT PUSH2 0x2096 JUMPI PUSH2 0x100 DUP1 DUP4 SLOAD DIV MUL DUP4 MSTORE SWAP2 PUSH1 0x20 ADD SWAP2 PUSH2 0x20C1 JUMP JUMPDEST DUP3 ADD SWAP2 SWAP1 PUSH1 0x0 MSTORE PUSH1 0x20 PUSH1 0x0 KECCAK256 SWAP1 JUMPDEST DUP2 SLOAD DUP2 MSTORE SWAP1 PUSH1 0x1 ADD SWAP1 PUSH1 0x20 ADD DUP1 DUP4 GT PUSH2 0x20A4 JUMPI DUP3 SWAP1 SUB PUSH1 0x1F AND DUP3 ADD SWAP2 JUMPDEST POP POP POP SWAP2 DUP4 MSTORE POP POP PUSH1 0x5 DUP3 ADD SLOAD PUSH1 0x20 DUP3 ADD MSTORE PUSH1 0x6 DUP3 ADD SLOAD PUSH1 0x40 DUP3 ADD MSTORE PUSH1 0x7 DUP3 ADD SLOAD PUSH1 0x60 DUP3 ADD MSTORE PUSH1 0x8 DUP3 ADD SLOAD PUSH1 0x80 DUP3 ADD MSTORE PUSH1 0x9 DUP3 ADD SLOAD PUSH1 0xFF DUP1 DUP3 AND ISZERO ISZERO PUSH1 0xA0 DUP5 ADD MSTORE PUSH2 0x100 DUP1 DUP4 DIV DUP3 AND ISZERO ISZERO PUSH1 0xC0 DUP6 ADD MSTORE PUSH3 0x10000 SWAP1 SWAP3 DIV DUP2 AND ISZERO ISZERO PUSH1 0xE0 DUP5 ADD MSTORE PUSH1 0xA DUP5 ADD SLOAD DUP3 DUP5 ADD MSTORE PUSH1 0xB DUP5 ADD SLOAD DUP1 DUP3 AND ISZERO ISZERO PUSH2 0x120 DUP6 ADD MSTORE SWAP2 SWAP1 SWAP2 DIV AND ISZERO ISZERO PUSH2 0x140 DUP3 ADD MSTORE PUSH1 0xC DUP3 ADD SLOAD PUSH2 0x160 DUP3 ADD MSTORE PUSH1 0xD SWAP1 SWAP2 ADD SLOAD PUSH2 0x180 SWAP1 SWAP2 ADD MSTORE SWAP1 POP PUSH1 0x0 DUP1 PUSH2 0x216D DUP5 PUSH2 0x10BD JUMP JUMPDEST SWAP1 POP PUSH1 0x64 PUSH2 0x217C DUP3 PUSH1 0x50 PUSH2 0x5D50 JUMP JUMPDEST PUSH2 0x2186 SWAP2 SWAP1 PUSH2 0x5D7D JUMP JUMPDEST PUSH2 0x2190 SWAP1 DUP4 PUSH2 0x5BBA JUMP JUMPDEST SWAP2 POP DUP3 PUSH2 0x160 ADD MLOAD ISZERO PUSH2 0x21B0 JUMPI PUSH2 0x180 DUP4 ADD MLOAD PUSH2 0x21AD SWAP1 DUP4 PUSH2 0x5BBA JUMP JUMPDEST SWAP2 POP JUMPDEST PUSH1 0xE SLOAD PUSH1 0x20 DUP5 ADD MLOAD PUSH1 0x40 MLOAD PUSH4 0xA9059CBB PUSH1 0xE0 SHL DUP2 MSTORE PUSH1 0x1 PUSH1 0x1 PUSH1 0xA0 SHL SUB SWAP2 DUP3 AND PUSH1 0x4 DUP3 ADD MSTORE PUSH1 0x24 DUP2 ADD DUP6 SWAP1 MSTORE PUSH1 0x0 SWAP3 SWAP2 SWAP1 SWAP2 AND SWAP1 PUSH4 0xA9059CBB SWAP1 PUSH1 0x44 ADD PUSH1 0x20 PUSH1 0x40 MLOAD DUP1 DUP4 SUB DUP2 PUSH1 0x0 DUP8 GAS CALL ISZERO DUP1 ISZERO PUSH2 0x220C JUMPI RETURNDATASIZE PUSH1 0x0 DUP1 RETURNDATACOPY RETURNDATASIZE PUSH1 0x0 REVERT JUMPDEST POP POP POP POP PUSH1 0x40 MLOAD RETURNDATASIZE PUSH1 0x1F NOT PUSH1 0x1F DUP3 ADD AND DUP3 ADD DUP1 PUSH1 0x40 MSTORE POP DUP2 ADD SWAP1 PUSH2 0x2230 SWAP2 SWAP1 PUSH2 0x5D91 JUMP JUMPDEST SWAP1 POP DUP1 ISZERO PUSH2 0x25B1 JUMPI PUSH1 0x0 PUSH1 0x64 PUSH2 0x2247 DUP5 PUSH1 0x14 PUSH2 0x5D50 JUMP JUMPDEST PUSH2 0x2251 SWAP2 SWAP1 PUSH2 0x5D7D JUMP JUMPDEST PUSH1 0xE SLOAD PUSH1 0x7 SLOAD PUSH1 0x40 MLOAD PUSH4 0xA9059CBB PUSH1 0xE0 SHL DUP2 MSTORE PUSH1 0x1 PUSH1 0x1 PUSH1 0xA0 SHL SUB SWAP2 DUP3 AND PUSH1 0x4 DUP3 ADD MSTORE PUSH1 0x24 DUP2 ADD DUP5 SWAP1 MSTORE SWAP3 SWAP4 POP PUSH1 0x0 SWAP3 SWAP2 AND SWAP1 PUSH4 0xA9059CBB SWAP1 PUSH1 0x44 ADD PUSH1 0x20 PUSH1 0x40 MLOAD DUP1 DUP4 SUB DUP2 PUSH1 0x0 DUP8 GAS CALL ISZERO DUP1 ISZERO PUSH2 0x22AC JUMPI RETURNDATASIZE PUSH1 0x0 DUP1 RETURNDATACOPY RETURNDATASIZE PUSH1 0x0 REVERT JUMPDEST POP POP POP POP PUSH1 0x40 MLOAD RETURNDATASIZE PUSH1 0x1F NOT PUSH1 0x1F DUP3 ADD AND DUP3 ADD DUP1 PUSH1 0x40 MSTORE POP DUP2 ADD SWAP1 PUSH2 0x22D0 SWAP2 SWAP1 PUSH2 0x5D91 JUMP JUMPDEST SWAP1 POP DUP1 ISZERO PUSH2 0x25AE JUMPI PUSH1 0x1 PUSH2 0x1A0 DUP8 ADD DUP2 SWAP1 MSTORE PUSH2 0x1C0 DUP8 ADD MSTORE PUSH1 0x4 DUP1 SLOAD DUP8 SWAP2 SWAP1 DUP10 SWAP1 DUP2 LT PUSH2 0x22FF JUMPI PUSH2 0x22FF PUSH2 0x5B41 JUMP JUMPDEST PUSH1 0x0 SWAP2 DUP3 MSTORE PUSH1 0x20 SWAP2 DUP3 SWAP1 KECCAK256 DUP4 MLOAD PUSH1 0xE SWAP3 SWAP1 SWAP3 MUL ADD SWAP1 DUP2 SSTORE SWAP1 DUP3 ADD MLOAD PUSH1 0x1 DUP3 ADD DUP1 SLOAD PUSH1 0x1 PUSH1 0x1 PUSH1 0xA0 SHL SUB NOT AND PUSH1 0x1 PUSH1 0x1 PUSH1 0xA0 SHL SUB SWAP1 SWAP3 AND SWAP2 SWAP1 SWAP2 OR SWAP1 SSTORE PUSH1 0x40 DUP3 ADD MLOAD PUSH1 0x2 DUP3 ADD SWAP1 PUSH2 0x234F SWAP1 DUP3 PUSH2 0x5C91 JUMP JUMPDEST POP PUSH1 0x60 DUP3 ADD MLOAD PUSH1 0x3 DUP3 ADD SWAP1 PUSH2 0x2364 SWAP1 DUP3 PUSH2 0x5C91 JUMP JUMPDEST POP PUSH1 0x80 DUP3 ADD MLOAD PUSH1 0x4 DUP3 ADD SWAP1 PUSH2 0x2379 SWAP1 DUP3 PUSH2 0x5C91 JUMP JUMPDEST POP PUSH1 0xA0 DUP3 DUP2 ADD MLOAD PUSH1 0x5 DUP4 ADD SSTORE PUSH1 0xC0 DUP1 DUP5 ADD MLOAD PUSH1 0x6 DUP1 DUP6 ADD SWAP2 SWAP1 SWAP2 SSTORE PUSH1 0xE0 DUP6 ADD MLOAD PUSH1 0x7 DUP6 ADD SSTORE PUSH2 0x100 DUP1 DUP7 ADD MLOAD PUSH1 0x8 DUP7 ADD SSTORE PUSH2 0x120 DUP7 ADD MLOAD PUSH1 0x9 DUP7 ADD DUP1 SLOAD PUSH2 0x140 DUP10 ADD MLOAD PUSH2 0x160 DUP11 ADD MLOAD ISZERO ISZERO PUSH3 0x10000 MUL PUSH3 0xFF0000 NOT SWAP2 ISZERO ISZERO DUP7 MUL PUSH2 0xFF00 NOT SWAP6 ISZERO ISZERO DUP7 AND PUSH2 0xFFFF NOT SWAP5 DUP6 AND OR OR SWAP2 SWAP1 SWAP2 AND OR SWAP1 SWAP2 SSTORE PUSH2 0x180 DUP9 ADD MLOAD PUSH1 0xA DUP9 ADD SSTORE PUSH2 0x1A0 DUP9 ADD MLOAD PUSH1 0xB DUP9 ADD DUP1 SLOAD PUSH2 0x1C0 DUP12 ADD MLOAD ISZERO ISZERO SWAP1 SWAP6 MUL SWAP2 ISZERO ISZERO SWAP1 SWAP4 AND SWAP4 SWAP1 SWAP2 AND SWAP3 SWAP1 SWAP3 OR SWAP2 SWAP1 SWAP2 OR SWAP1 SSTORE PUSH2 0x1E0 DUP6 ADD MLOAD PUSH1 0xC DUP1 DUP7 ADD SWAP2 SWAP1 SWAP2 SSTORE PUSH2 0x200 SWAP1 SWAP6 ADD MLOAD PUSH1 0xD SWAP1 SWAP5 ADD SWAP4 SWAP1 SWAP4 SSTORE DUP4 SLOAD PUSH1 0x40 DUP1 MLOAD SWAP3 DUP4 ADD DUP2 MSTORE DUP2 DUP4 MSTORE PUSH1 0x20 DUP4 ADD DUP14 DUP2 MSTORE CALLER SWAP2 DUP5 ADD SWAP2 DUP3 MSTORE PUSH1 0x60 DUP5 ADD DUP13 DUP2 MSTORE TIMESTAMP PUSH1 0x80 DUP7 ADD SWAP1 DUP2 MSTORE PUSH1 0x0 SWAP7 DUP7 ADD DUP8 DUP2 MSTORE DUP9 SLOAD PUSH1 0x1 DUP2 ADD DUP11 SSTORE DUP10 DUP10 MSTORE SWAP7 MLOAD SWAP7 SWAP1 SWAP9 MUL PUSH32 0xF652222313E28459528D920B65115C16C04F3EFC82AAEDC97BE59F3F377C0D3F DUP2 ADD SWAP7 SWAP1 SWAP7 SSTORE SWAP2 MLOAD PUSH32 0xF652222313E28459528D920B65115C16C04F3EFC82AAEDC97BE59F3F377C0D40 DUP7 ADD SSTORE SWAP2 MLOAD PUSH32 0xF652222313E28459528D920B65115C16C04F3EFC82AAEDC97BE59F3F377C0D41 DUP6 ADD DUP1 SLOAD PUSH1 0x1 PUSH1 0x1 PUSH1 0xA0 SHL SUB SWAP1 SWAP3 AND PUSH1 0x1 PUSH1 0x1 PUSH1 0xA0 SHL SUB NOT SWAP1 SWAP3 AND SWAP2 SWAP1 SWAP2 OR SWAP1 SSTORE SWAP1 MLOAD PUSH32 0xF652222313E28459528D920B65115C16C04F3EFC82AAEDC97BE59F3F377C0D42 DUP5 ADD SSTORE MLOAD PUSH32 0xF652222313E28459528D920B65115C16C04F3EFC82AAEDC97BE59F3F377C0D43 DUP4 ADD SSTORE SWAP3 MLOAD PUSH32 0xF652222313E28459528D920B65115C16C04F3EFC82AAEDC97BE59F3F377C0D44 SWAP1 SWAP2 ADD DUP1 SLOAD SWAP2 ISZERO ISZERO PUSH1 0xFF NOT SWAP1 SWAP3 AND SWAP2 SWAP1 SWAP2 OR SWAP1 SSTORE DUP3 SLOAD SWAP2 SWAP3 SWAP1 PUSH2 0x25A7 DUP4 PUSH2 0x5B6D JUMP JUMPDEST SWAP2 SWAP1 POP SSTORE POP POP JUMPDEST POP POP JUMPDEST POP POP POP POP POP JUMP JUMPDEST PUSH1 0x0 SLOAD PUSH1 0x1 PUSH1 0x1 PUSH1 0xA0 SHL SUB AND CALLER EQ DUP1 ISZERO SWAP1 PUSH2 0x25DE JUMPI POP PUSH1 0x2 SLOAD PUSH1 0x1 PUSH1 0x1 PUSH1 0xA0 SHL SUB AND CALLER EQ ISZERO JUMPDEST ISZERO PUSH2 0x262F JUMPI CALLER PUSH2 0x25F6 PUSH1 0x0 SLOAD PUSH1 0x1 PUSH1 0x1 PUSH1 0xA0 SHL SUB AND SWAP1 JUMP JUMPDEST PUSH1 0x2 SLOAD PUSH1 0x40 MLOAD PUSH4 0x61DB9C1 PUSH1 0xE0 SHL DUP2 MSTORE PUSH1 0x1 PUSH1 0x1 PUSH1 0xA0 SHL SUB SWAP4 DUP5 AND PUSH1 0x4 DUP3 ADD MSTORE SWAP2 DUP4 AND PUSH1 0x24 DUP4 ADD MSTORE SWAP2 SWAP1 SWAP2 AND PUSH1 0x44 DUP3 ADD MSTORE PUSH1 0x64 ADD PUSH2 0x824 JUMP JUMPDEST PUSH1 0x1 PUSH1 0x1 PUSH1 0xA0 SHL SUB DUP2 AND PUSH2 0x2656 JUMPI PUSH1 0x40 MLOAD PUSH4 0xD92E233D PUSH1 0xE0 SHL DUP2 MSTORE PUSH1 0x4 ADD PUSH1 0x40 MLOAD DUP1 SWAP2 SUB SWAP1 REVERT JUMPDEST PUSH1 0x2 DUP1 SLOAD PUSH1 0x1 PUSH1 0x1 PUSH1 0xA0 SHL SUB NOT AND PUSH1 0x1 PUSH1 0x1 PUSH1 0xA0 SHL SUB DUP4 AND SWAP1 DUP2 OR SWAP1 SWAP2 SSTORE PUSH1 0x40 MLOAD SWAP1 DUP2 MSTORE PUSH32 0xD1A6A14209A385A964D036E404CB5CFB71F4000CDB03C9366292430787261BE6 SWAP1 PUSH1 0x20 ADD PUSH1 0x40 MLOAD DUP1 SWAP2 SUB SWAP1 LOG1 POP JUMP JUMPDEST PUSH2 0x26B2 PUSH2 0x522C JUMP JUMPDEST PUSH1 0x0 JUMPDEST PUSH1 0x3 SLOAD DUP2 LT ISZERO PUSH2 0x19EC JUMPI PUSH1 0x0 PUSH1 0x3 DUP3 DUP2 SLOAD DUP2 LT PUSH2 0x26D4 JUMPI PUSH2 0x26D4 PUSH2 0x5B41 JUMP JUMPDEST SWAP1 PUSH1 0x0 MSTORE PUSH1 0x20 PUSH1 0x0 KECCAK256 SWAP1 PUSH1 0x6 MUL ADD PUSH1 0x40 MLOAD DUP1 PUSH2 0x100 ADD PUSH1 0x40 MSTORE SWAP1 DUP2 PUSH1 0x0 DUP3 ADD SLOAD DUP2 MSTORE PUSH1 0x20 ADD PUSH1 0x1 DUP3 ADD PUSH1 0x0 SWAP1 SLOAD SWAP1 PUSH2 0x100 EXP SWAP1 DIV PUSH1 0x1 PUSH1 0x1 PUSH1 0xA0 SHL SUB AND PUSH1 0x1 PUSH1 0x1 PUSH1 0xA0 SHL SUB AND PUSH1 0x1 PUSH1 0x1 PUSH1 0xA0 SHL SUB AND DUP2 MSTORE PUSH1 0x20 ADD PUSH1 0x2 DUP3 ADD DUP1 SLOAD PUSH2 0x2737 SWAP1 PUSH2 0x5B86 JUMP JUMPDEST DUP1 PUSH1 0x1F ADD PUSH1 0x20 DUP1 SWAP2 DIV MUL PUSH1 0x20 ADD PUSH1 0x40 MLOAD SWAP1 DUP2 ADD PUSH1 0x40 MSTORE DUP1 SWAP3 SWAP2 SWAP1 DUP2 DUP2 MSTORE PUSH1 0x20 ADD DUP3 DUP1 SLOAD PUSH2 0x2763 SWAP1 PUSH2 0x5B86 JUMP JUMPDEST DUP1 ISZERO PUSH2 0x27B0 JUMPI DUP1 PUSH1 0x1F LT PUSH2 0x2785 JUMPI PUSH2 0x100 DUP1 DUP4 SLOAD DIV MUL DUP4 MSTORE SWAP2 PUSH1 0x20 ADD SWAP2 PUSH2 0x27B0 JUMP JUMPDEST DUP3 ADD SWAP2 SWAP1 PUSH1 0x0 MSTORE PUSH1 0x20 PUSH1 0x0 KECCAK256 SWAP1 JUMPDEST DUP2 SLOAD DUP2 MSTORE SWAP1 PUSH1 0x1 ADD SWAP1 PUSH1 0x20 ADD DUP1 DUP4 GT PUSH2 0x2793 JUMPI DUP3 SWAP1 SUB PUSH1 0x1F AND DUP3 ADD SWAP2 JUMPDEST POP POP POP POP POP DUP2 MSTORE PUSH1 0x20 ADD PUSH1 0x3 DUP3 ADD DUP1 SLOAD PUSH2 0x27C9 SWAP1 PUSH2 0x5B86 JUMP JUMPDEST DUP1 PUSH1 0x1F ADD PUSH1 0x20 DUP1 SWAP2 DIV MUL PUSH1 0x20 ADD PUSH1 0x40 MLOAD SWAP1 DUP2 ADD PUSH1 0x40 MSTORE DUP1 SWAP3 SWAP2 SWAP1 DUP2 DUP2 MSTORE PUSH1 0x20 ADD DUP3 DUP1 SLOAD PUSH2 0x27F5 SWAP1 PUSH2 0x5B86 JUMP JUMPDEST DUP1 ISZERO PUSH2 0x2842 JUMPI DUP1 PUSH1 0x1F LT PUSH2 0x2817 JUMPI PUSH2 0x100 DUP1 DUP4 SLOAD DIV MUL DUP4 MSTORE SWAP2 PUSH1 0x20 ADD SWAP2 PUSH2 0x2842 JUMP JUMPDEST DUP3 ADD SWAP2 SWAP1 PUSH1 0x0 MSTORE PUSH1 0x20 PUSH1 0x0 KECCAK256 SWAP1 JUMPDEST DUP2 SLOAD DUP2 MSTORE SWAP1 PUSH1 0x1 ADD SWAP1 PUSH1 0x20 ADD DUP1 DUP4 GT PUSH2 0x2825 JUMPI DUP3 SWAP1 SUB PUSH1 0x1F AND DUP3 ADD SWAP2 JUMPDEST POP POP POP SWAP2 DUP4 MSTORE POP POP PUSH1 0x4 DUP3 ADD SLOAD PUSH1 0xFF DUP1 DUP3 AND ISZERO ISZERO PUSH1 0x20 DUP1 DUP6 ADD SWAP2 SWAP1 SWAP2 MSTORE PUSH2 0x100 DUP4 DIV DUP3 AND ISZERO ISZERO PUSH1 0x40 DUP6 ADD MSTORE PUSH3 0x10000 SWAP1 SWAP3 DIV AND ISZERO ISZERO PUSH1 0x60 DUP4 ADD MSTORE PUSH1 0x5 SWAP1 SWAP3 ADD SLOAD PUSH1 0x80 SWAP1 SWAP2 ADD MSTORE DUP2 ADD MLOAD SWAP1 SWAP2 POP PUSH1 0x1 PUSH1 0x1 PUSH1 0xA0 SHL SUB DUP1 DUP7 AND SWAP2 AND SUB PUSH2 0x28A7 JUMPI SWAP4 SWAP3 POP POP POP JUMP JUMPDEST POP DUP1 PUSH2 0x28B2 DUP2 PUSH2 0x5B6D JUMP JUMPDEST SWAP2 POP POP PUSH2 0x26B5 JUMP JUMPDEST PUSH1 0xA SLOAD PUSH1 0xE SLOAD PUSH1 0x40 DUP1 MLOAD PUSH4 0x313CE567 PUSH1 0xE0 SHL DUP2 MSTORE SWAP1 MLOAD TIMESTAMP SWAP3 DUP4 SWAP3 PUSH1 0x0 SWAP3 PUSH1 0x1 PUSH1 0x1 PUSH1 0xA0 SHL SUB SWAP1 SWAP3 AND SWAP2 PUSH4 0x313CE567 SWAP2 PUSH1 0x4 DUP1 DUP3 ADD SWAP3 PUSH1 0x20 SWAP3 SWAP1 SWAP2 SWAP1 DUP3 SWAP1 SUB ADD DUP2 DUP7 GAS STATICCALL ISZERO DUP1 ISZERO PUSH2 0x290E JUMPI RETURNDATASIZE PUSH1 0x0 DUP1 RETURNDATACOPY RETURNDATASIZE PUSH1 0x0 REVERT JUMPDEST POP POP POP POP PUSH1 0x40 MLOAD RETURNDATASIZE PUSH1 0x1F NOT PUSH1 0x1F DUP3 ADD AND DUP3 ADD DUP1 PUSH1 0x40 MSTORE POP DUP2 ADD SWAP1 PUSH2 0x2932 SWAP2 SWAP1 PUSH2 0x5DAE JUMP JUMPDEST PUSH2 0x293D SWAP1 PUSH1 0xA PUSH2 0x5EAF JUMP JUMPDEST PUSH2 0x2947 SWAP1 DUP9 PUSH2 0x5D50 JUMP JUMPDEST PUSH1 0x40 DUP1 MLOAD PUSH2 0x220 DUP2 ADD DUP3 MSTORE DUP7 DUP2 MSTORE CALLER PUSH1 0x20 DUP3 ADD SWAP1 DUP2 MSTORE SWAP2 DUP2 ADD DUP14 DUP2 MSTORE PUSH1 0x60 DUP3 ADD DUP14 SWAP1 MSTORE PUSH1 0x80 DUP3 ADD DUP13 SWAP1 MSTORE PUSH1 0xA0 DUP3 ADD DUP5 SWAP1 MSTORE PUSH1 0xC0 DUP3 ADD DUP8 SWAP1 MSTORE PUSH1 0xE0 DUP3 ADD DUP7 SWAP1 MSTORE PUSH2 0x100 DUP3 ADD DUP11 SWAP1 MSTORE PUSH1 0x0 PUSH2 0x120 DUP4 ADD DUP2 SWAP1 MSTORE DUP10 ISZERO ISZERO PUSH2 0x140 DUP5 ADD MSTORE PUSH2 0x160 DUP4 ADD DUP2 SWAP1 MSTORE PUSH2 0x180 DUP4 ADD DUP2 SWAP1 MSTORE PUSH2 0x1A0 DUP4 ADD DUP2 SWAP1 MSTORE PUSH2 0x1C0 DUP4 ADD DUP2 SWAP1 MSTORE PUSH2 0x1E0 DUP4 ADD DUP2 SWAP1 MSTORE PUSH2 0x200 DUP4 ADD DUP2 SWAP1 MSTORE PUSH1 0x4 DUP1 SLOAD PUSH1 0x1 DUP2 ADD DUP3 SSTORE SWAP2 MSTORE DUP3 MLOAD PUSH32 0x8A35ACFBC15FF81A39AE7D344FD709F28E8600B4AA8C65C6B64BFE7FE36BD19B PUSH1 0xE SWAP1 SWAP3 MUL SWAP2 DUP3 ADD SWAP1 DUP2 SSTORE SWAP4 MLOAD PUSH32 0x8A35ACFBC15FF81A39AE7D344FD709F28E8600B4AA8C65C6B64BFE7FE36BD19C DUP3 ADD DUP1 SLOAD PUSH1 0x1 PUSH1 0x1 PUSH1 0xA0 SHL SUB NOT AND PUSH1 0x1 PUSH1 0x1 PUSH1 0xA0 SHL SUB SWAP1 SWAP3 AND SWAP2 SWAP1 SWAP2 OR SWAP1 SSTORE SWAP1 MLOAD SWAP4 SWAP5 POP SWAP1 SWAP3 PUSH32 0x8A35ACFBC15FF81A39AE7D344FD709F28E8600B4AA8C65C6B64BFE7FE36BD19D SWAP1 SWAP2 ADD SWAP1 PUSH2 0x2A83 SWAP1 DUP3 PUSH2 0x5C91 JUMP JUMPDEST POP PUSH1 0x60 DUP3 ADD MLOAD PUSH1 0x3 DUP3 ADD SWAP1 PUSH2 0x2A98 SWAP1 DUP3 PUSH2 0x5C91 JUMP JUMPDEST POP PUSH1 0x80 DUP3 ADD MLOAD PUSH1 0x4 DUP3 ADD SWAP1 PUSH2 0x2AAD SWAP1 DUP3 PUSH2 0x5C91 JUMP JUMPDEST POP PUSH1 0xA0 DUP3 ADD MLOAD PUSH1 0x5 DUP3 ADD SSTORE PUSH1 0xC0 DUP3 ADD MLOAD PUSH1 0x6 DUP3 ADD SSTORE PUSH1 0xE0 DUP3 ADD MLOAD PUSH1 0x7 DUP3 ADD SSTORE PUSH2 0x100 DUP1 DUP4 ADD MLOAD PUSH1 0x8 DUP4 ADD SSTORE PUSH2 0x120 DUP4 ADD MLOAD PUSH1 0x9 DUP4 ADD DUP1 SLOAD PUSH2 0x140 DUP7 ADD MLOAD PUSH2 0x160 DUP8 ADD MLOAD ISZERO ISZERO PUSH3 0x10000 MUL PUSH3 0xFF0000 NOT SWAP2 ISZERO ISZERO DUP7 MUL PUSH2 0xFF00 NOT SWAP6 ISZERO ISZERO DUP7 AND PUSH2 0xFFFF NOT SWAP5 DUP6 AND OR OR SWAP2 SWAP1 SWAP2 AND OR SWAP1 SWAP2 SSTORE PUSH2 0x180 DUP6 ADD MLOAD PUSH1 0xA DUP1 DUP7 ADD SWAP2 SWAP1 SWAP2 SSTORE PUSH2 0x1A0 DUP7 ADD MLOAD PUSH1 0xB DUP7 ADD DUP1 SLOAD PUSH2 0x1C0 DUP10 ADD MLOAD ISZERO ISZERO SWAP1 SWAP7 MUL SWAP2 ISZERO ISZERO SWAP1 SWAP5 AND SWAP5 SWAP1 SWAP3 AND SWAP4 SWAP1 SWAP4 OR OR SWAP1 SSTORE PUSH2 0x1E0 DUP4 ADD MLOAD PUSH1 0xC DUP4 ADD SSTORE PUSH2 0x200 SWAP1 SWAP3 ADD MLOAD PUSH1 0xD SWAP1 SWAP2 ADD SSTORE DUP1 SLOAD SWAP1 PUSH1 0x0 PUSH2 0x2B78 DUP4 PUSH2 0x5B6D JUMP JUMPDEST SWAP2 SWAP1 POP SSTORE POP POP POP POP POP POP POP POP POP POP POP JUMP JUMPDEST PUSH1 0x60 PUSH1 0x0 DUP1 PUSH2 0x2B97 DUP5 PUSH2 0x1BB2 JUMP JUMPDEST PUSH1 0x1 PUSH1 0x1 PUSH1 0x40 SHL SUB DUP2 GT ISZERO PUSH2 0x2BAE JUMPI PUSH2 0x2BAE PUSH2 0x52A7 JUMP JUMPDEST PUSH1 0x40 MLOAD SWAP1 DUP1 DUP3 MSTORE DUP1 PUSH1 0x20 MUL PUSH1 0x20 ADD DUP3 ADD PUSH1 0x40 MSTORE DUP1 ISZERO PUSH2 0x2BE7 JUMPI DUP2 PUSH1 0x20 ADD JUMPDEST PUSH2 0x2BD4 PUSH2 0x522C JUMP JUMPDEST DUP2 MSTORE PUSH1 0x20 ADD SWAP1 PUSH1 0x1 SWAP1 SUB SWAP1 DUP2 PUSH2 0x2BCC JUMPI SWAP1 POP JUMPDEST POP SWAP1 POP PUSH1 0x0 JUMPDEST PUSH1 0x5 SLOAD DUP2 LT ISZERO PUSH2 0x70E JUMPI PUSH1 0x0 PUSH1 0x5 DUP3 DUP2 SLOAD DUP2 LT PUSH2 0x2C0C JUMPI PUSH2 0x2C0C PUSH2 0x5B41 JUMP JUMPDEST PUSH1 0x0 SWAP2 DUP3 MSTORE PUSH1 0x20 SWAP2 DUP3 SWAP1 KECCAK256 PUSH1 0x40 DUP1 MLOAD PUSH1 0xE0 DUP2 ADD DUP3 MSTORE PUSH1 0x7 SWAP1 SWAP4 MUL SWAP1 SWAP2 ADD DUP1 SLOAD DUP4 MSTORE PUSH1 0x1 DUP2 ADD SLOAD SWAP4 DUP4 ADD DUP5 SWAP1 MSTORE PUSH1 0x2 DUP2 ADD SLOAD PUSH1 0x1 PUSH1 0x1 PUSH1 0xA0 SHL SUB AND SWAP2 DUP4 ADD SWAP2 SWAP1 SWAP2 MSTORE PUSH1 0x3 DUP2 ADD SLOAD PUSH1 0x60 DUP4 ADD MSTORE PUSH1 0x4 DUP2 ADD SLOAD PUSH1 0xFF AND ISZERO ISZERO PUSH1 0x80 DUP4 ADD MSTORE PUSH1 0x5 DUP2 ADD SLOAD PUSH1 0xA0 DUP4 ADD MSTORE PUSH1 0x6 ADD SLOAD PUSH1 0xC0 DUP3 ADD MSTORE SWAP2 POP DUP7 SWAP1 SUB PUSH2 0x2CC1 JUMPI PUSH1 0x0 PUSH2 0x2C91 DUP3 PUSH1 0x40 ADD MLOAD PUSH2 0x26AA JUMP JUMPDEST SWAP1 POP DUP1 DUP5 DUP7 DUP2 MLOAD DUP2 LT PUSH2 0x2CA6 JUMPI PUSH2 0x2CA6 PUSH2 0x5B41 JUMP JUMPDEST PUSH1 0x20 MUL PUSH1 0x20 ADD ADD DUP2 SWAP1 MSTORE POP DUP5 DUP1 PUSH2 0x2CBC SWAP1 PUSH2 0x5B6D JUMP JUMPDEST SWAP6 POP POP POP JUMPDEST POP DUP1 PUSH2 0x2CCC DUP2 PUSH2 0x5B6D JUMP JUMPDEST SWAP2 POP POP PUSH2 0x2BED JUMP JUMPDEST PUSH1 0x8 DUP1 SLOAD PUSH2 0x2CE1 SWAP1 PUSH2 0x5B86 JUMP JUMPDEST DUP1 PUSH1 0x1F ADD PUSH1 0x20 DUP1 SWAP2 DIV MUL PUSH1 0x20 ADD PUSH1 0x40 MLOAD SWAP1 DUP2 ADD PUSH1 0x40 MSTORE DUP1 SWAP3 SWAP2 SWAP1 DUP2 DUP2 MSTORE PUSH1 0x20 ADD DUP3 DUP1 SLOAD PUSH2 0x2D0D SWAP1 PUSH2 0x5B86 JUMP JUMPDEST DUP1 ISZERO PUSH2 0x2D5A JUMPI DUP1 PUSH1 0x1F LT PUSH2 0x2D2F JUMPI PUSH2 0x100 DUP1 DUP4 SLOAD DIV MUL DUP4 MSTORE SWAP2 PUSH1 0x20 ADD SWAP2 PUSH2 0x2D5A JUMP JUMPDEST DUP3 ADD SWAP2 SWAP1 PUSH1 0x0 MSTORE PUSH1 0x20 PUSH1 0x0 KECCAK256 SWAP1 JUMPDEST DUP2 SLOAD DUP2 MSTORE SWAP1 PUSH1 0x1 ADD SWAP1 PUSH1 0x20 ADD DUP1 DUP4 GT PUSH2 0x2D3D JUMPI DUP3 SWAP1 SUB PUSH1 0x1F AND DUP3 ADD SWAP2 JUMPDEST POP POP POP POP POP DUP2 JUMP JUMPDEST PUSH2 0x2D6A PUSH2 0x5195 JUMP JUMPDEST PUSH1 0x0 JUMPDEST PUSH1 0x4 SLOAD DUP2 LT ISZERO PUSH2 0xB2F JUMPI PUSH1 0x0 PUSH1 0x4 DUP3 DUP2 SLOAD DUP2 LT PUSH2 0x2D8C JUMPI PUSH2 0x2D8C PUSH2 0x5B41 JUMP JUMPDEST SWAP1 PUSH1 0x0 MSTORE PUSH1 0x20 PUSH1 0x0 KECCAK256 SWAP1 PUSH1 0xE MUL ADD PUSH1 0x40 MLOAD DUP1 PUSH2 0x220 ADD PUSH1 0x40 MSTORE SWAP1 DUP2 PUSH1 0x0 DUP3 ADD SLOAD DUP2 MSTORE PUSH1 0x20 ADD PUSH1 0x1 DUP3 ADD PUSH1 0x0 SWAP1 SLOAD SWAP1 PUSH2 0x100 EXP SWAP1 DIV PUSH1 0x1 PUSH1 0x1 PUSH1 0xA0 SHL SUB AND PUSH1 0x1 PUSH1 0x1 PUSH1 0xA0 SHL SUB AND PUSH1 0x1 PUSH1 0x1 PUSH1 0xA0 SHL SUB AND DUP2 MSTORE PUSH1 0x20 ADD PUSH1 0x2 DUP3 ADD DUP1 SLOAD PUSH2 0x2DEF SWAP1 PUSH2 0x5B86 JUMP JUMPDEST DUP1 PUSH1 0x1F ADD PUSH1 0x20 DUP1 SWAP2 DIV MUL PUSH1 0x20 ADD PUSH1 0x40 MLOAD SWAP1 DUP2 ADD PUSH1 0x40 MSTORE DUP1 SWAP3 SWAP2 SWAP1 DUP2 DUP2 MSTORE PUSH1 0x20 ADD DUP3 DUP1 SLOAD PUSH2 0x2E1B SWAP1 PUSH2 0x5B86 JUMP JUMPDEST DUP1 ISZERO PUSH2 0x2E68 JUMPI DUP1 PUSH1 0x1F LT PUSH2 0x2E3D JUMPI PUSH2 0x100 DUP1 DUP4 SLOAD DIV MUL DUP4 MSTORE SWAP2 PUSH1 0x20 ADD SWAP2 PUSH2 0x2E68 JUMP JUMPDEST DUP3 ADD SWAP2 SWAP1 PUSH1 0x0 MSTORE PUSH1 0x20 PUSH1 0x0 KECCAK256 SWAP1 JUMPDEST DUP2 SLOAD DUP2 MSTORE SWAP1 PUSH1 0x1 ADD SWAP1 PUSH1 0x20 ADD DUP1 DUP4 GT PUSH2 0x2E4B JUMPI DUP3 SWAP1 SUB PUSH1 0x1F AND DUP3 ADD SWAP2 JUMPDEST POP POP POP POP POP DUP2 MSTORE PUSH1 0x20 ADD PUSH1 0x3 DUP3 ADD DUP1 SLOAD PUSH2 0x2E81 SWAP1 PUSH2 0x5B86 JUMP JUMPDEST DUP1 PUSH1 0x1F ADD PUSH1 0x20 DUP1 SWAP2 DIV MUL PUSH1 0x20 ADD PUSH1 0x40 MLOAD SWAP1 DUP2 ADD PUSH1 0x40 MSTORE DUP1 SWAP3 SWAP2 SWAP1 DUP2 DUP2 MSTORE PUSH1 0x20 ADD DUP3 DUP1 SLOAD PUSH2 0x2EAD SWAP1 PUSH2 0x5B86 JUMP JUMPDEST DUP1 ISZERO PUSH2 0x2EFA JUMPI DUP1 PUSH1 0x1F LT PUSH2 0x2ECF JUMPI PUSH2 0x100 DUP1 DUP4 SLOAD DIV MUL DUP4 MSTORE SWAP2 PUSH1 0x20 ADD SWAP2 PUSH2 0x2EFA JUMP JUMPDEST DUP3 ADD SWAP2 SWAP1 PUSH1 0x0 MSTORE PUSH1 0x20 PUSH1 0x0 KECCAK256 SWAP1 JUMPDEST DUP2 SLOAD DUP2 MSTORE SWAP1 PUSH1 0x1 ADD SWAP1 PUSH1 0x20 ADD DUP1 DUP4 GT PUSH2 0x2EDD JUMPI DUP3 SWAP1 SUB PUSH1 0x1F AND DUP3 ADD SWAP2 JUMPDEST POP POP POP POP POP DUP2 MSTORE PUSH1 0x20 ADD PUSH1 0x4 DUP3 ADD DUP1 SLOAD PUSH2 0x2F13 SWAP1 PUSH2 0x5B86 JUMP JUMPDEST DUP1 PUSH1 0x1F ADD PUSH1 0x20 DUP1 SWAP2 DIV MUL PUSH1 0x20 ADD PUSH1 0x40 MLOAD SWAP1 DUP2 ADD PUSH1 0x40 MSTORE DUP1 SWAP3 SWAP2 SWAP1 DUP2 DUP2 MSTORE PUSH1 0x20 ADD DUP3 DUP1 SLOAD PUSH2 0x2F3F SWAP1 PUSH2 0x5B86 JUMP JUMPDEST DUP1 ISZERO PUSH2 0x2F8C JUMPI DUP1 PUSH1 0x1F LT PUSH2 0x2F61 JUMPI PUSH2 0x100 DUP1 DUP4 SLOAD DIV MUL DUP4 MSTORE SWAP2 PUSH1 0x20 ADD SWAP2 PUSH2 0x2F8C JUMP JUMPDEST DUP3 ADD SWAP2 SWAP1 PUSH1 0x0 MSTORE PUSH1 0x20 PUSH1 0x0 KECCAK256 SWAP1 JUMPDEST DUP2 SLOAD DUP2 MSTORE SWAP1 PUSH1 0x1 ADD SWAP1 PUSH1 0x20 ADD DUP1 DUP4 GT PUSH2 0x2F6F JUMPI DUP3 SWAP1 SUB PUSH1 0x1F AND DUP3 ADD SWAP2 JUMPDEST POP POP POP SWAP2 DUP4 MSTORE POP POP PUSH1 0x5 DUP3 ADD SLOAD PUSH1 0x20 DUP3 ADD MSTORE PUSH1 0x6 DUP3 ADD SLOAD PUSH1 0x40 DUP3 ADD MSTORE PUSH1 0x7 DUP3 ADD SLOAD PUSH1 0x60 DUP3 ADD MSTORE PUSH1 0x8 DUP3 ADD SLOAD PUSH1 0x80 DUP3 ADD MSTORE PUSH1 0x9 DUP3 ADD SLOAD PUSH1 0xFF DUP1 DUP3 AND ISZERO ISZERO PUSH1 0xA0 DUP5 ADD MSTORE PUSH2 0x100 DUP1 DUP4 DIV DUP3 AND ISZERO ISZERO PUSH1 0xC0 DUP6 ADD MSTORE PUSH3 0x10000 SWAP1 SWAP3 DIV DUP2 AND ISZERO ISZERO PUSH1 0xE0 DUP5 ADD MSTORE PUSH1 0xA DUP5 ADD SLOAD DUP3 DUP5 ADD MSTORE PUSH1 0xB DUP5 ADD SLOAD DUP1 DUP3 AND ISZERO ISZERO PUSH2 0x120 DUP6 ADD MSTORE SWAP2 SWAP1 SWAP2 DIV AND ISZERO ISZERO PUSH2 0x140 DUP3 ADD MSTORE PUSH1 0xC DUP3 ADD SLOAD PUSH2 0x160 DUP3 ADD MSTORE PUSH1 0xD SWAP1 SWAP2 ADD SLOAD PUSH2 0x180 SWAP1 SWAP2 ADD MSTORE DUP1 MLOAD SWAP1 SWAP2 POP DUP5 SWAP1 SUB PUSH2 0x303D JUMPI SWAP4 SWAP3 POP POP POP JUMP JUMPDEST POP DUP1 PUSH2 0x3048 DUP2 PUSH2 0x5B6D JUMP JUMPDEST SWAP2 POP POP PUSH2 0x2D6D JUMP JUMPDEST PUSH1 0x0 DUP1 PUSH2 0x305C CALLER PUSH2 0x26AA JUMP JUMPDEST SWAP1 POP DUP1 PUSH1 0xA0 ADD MLOAD PUSH2 0x314E JUMPI DUP1 MLOAD PUSH1 0x1 PUSH1 0x80 DUP4 ADD MSTORE PUSH1 0x3 DUP1 SLOAD DUP4 SWAP2 SWAP1 DUP4 SWAP1 DUP2 LT PUSH2 0x3087 JUMPI PUSH2 0x3087 PUSH2 0x5B41 JUMP JUMPDEST PUSH1 0x0 SWAP2 DUP3 MSTORE PUSH1 0x20 SWAP2 DUP3 SWAP1 KECCAK256 DUP4 MLOAD PUSH1 0x6 SWAP3 SWAP1 SWAP3 MUL ADD SWAP1 DUP2 SSTORE SWAP1 DUP3 ADD MLOAD PUSH1 0x1 DUP3 ADD DUP1 SLOAD PUSH1 0x1 PUSH1 0x1 PUSH1 0xA0 SHL SUB NOT AND PUSH1 0x1 PUSH1 0x1 PUSH1 0xA0 SHL SUB SWAP1 SWAP3 AND SWAP2 SWAP1 SWAP2 OR SWAP1 SSTORE PUSH1 0x40 DUP3 ADD MLOAD PUSH1 0x2 DUP3 ADD SWAP1 PUSH2 0x30D7 SWAP1 DUP3 PUSH2 0x5C91 JUMP JUMPDEST POP PUSH1 0x60 DUP3 ADD MLOAD PUSH1 0x3 DUP3 ADD SWAP1 PUSH2 0x30EC SWAP1 DUP3 PUSH2 0x5C91 JUMP JUMPDEST POP PUSH1 0x80 DUP3 ADD MLOAD PUSH1 0x4 DUP3 ADD DUP1 SLOAD PUSH1 0xA0 DUP6 ADD MLOAD PUSH1 0xC0 DUP7 ADD MLOAD ISZERO ISZERO PUSH3 0x10000 MUL PUSH3 0xFF0000 NOT SWAP2 ISZERO ISZERO PUSH2 0x100 MUL PUSH2 0xFF00 NOT SWAP6 ISZERO ISZERO SWAP6 SWAP1 SWAP6 AND PUSH2 0xFFFF NOT SWAP1 SWAP4 AND SWAP3 SWAP1 SWAP3 OR SWAP4 SWAP1 SWAP4 OR SWAP3 SWAP1 SWAP3 AND SWAP2 SWAP1 SWAP2 OR SWAP1 SSTORE PUSH1 0xE0 SWAP1 SWAP2 ADD MLOAD PUSH1 0x5 SWAP1 SWAP2 ADD SSTORE POP PUSH1 0x1 SWAP3 SWAP2 POP POP JUMP JUMPDEST PUSH1 0x0 SWAP2 POP POP SWAP1 JUMP JUMPDEST PUSH1 0x0 PUSH1 0x4 DUP3 DUP2 SLOAD DUP2 LT PUSH2 0x316B JUMPI PUSH2 0x316B PUSH2 0x5B41 JUMP JUMPDEST SWAP1 PUSH1 0x0 MSTORE PUSH1 0x20 PUSH1 0x0 KECCAK256 SWAP1 PUSH1 0xE MUL ADD PUSH1 0x40 MLOAD DUP1 PUSH2 0x220 ADD PUSH1 0x40 MSTORE SWAP1 DUP2 PUSH1 0x0 DUP3 ADD SLOAD DUP2 MSTORE PUSH1 0x20 ADD PUSH1 0x1 DUP3 ADD PUSH1 0x0 SWAP1 SLOAD SWAP1 PUSH2 0x100 EXP SWAP1 DIV PUSH1 0x1 PUSH1 0x1 PUSH1 0xA0 SHL SUB AND PUSH1 0x1 PUSH1 0x1 PUSH1 0xA0 SHL SUB AND PUSH1 0x1 PUSH1 0x1 PUSH1 0xA0 SHL SUB AND DUP2 MSTORE PUSH1 0x20 ADD PUSH1 0x2 DUP3 ADD DUP1 SLOAD PUSH2 0x31CE SWAP1 PUSH2 0x5B86 JUMP JUMPDEST DUP1 PUSH1 0x1F ADD PUSH1 0x20 DUP1 SWAP2 DIV MUL PUSH1 0x20 ADD PUSH1 0x40 MLOAD SWAP1 DUP2 ADD PUSH1 0x40 MSTORE DUP1 SWAP3 SWAP2 SWAP1 DUP2 DUP2 MSTORE PUSH1 0x20 ADD DUP3 DUP1 SLOAD PUSH2 0x31FA SWAP1 PUSH2 0x5B86 JUMP JUMPDEST DUP1 ISZERO PUSH2 0x3247 JUMPI DUP1 PUSH1 0x1F LT PUSH2 0x321C JUMPI PUSH2 0x100 DUP1 DUP4 SLOAD DIV MUL DUP4 MSTORE SWAP2 PUSH1 0x20 ADD SWAP2 PUSH2 0x3247 JUMP JUMPDEST DUP3 ADD SWAP2 SWAP1 PUSH1 0x0 MSTORE PUSH1 0x20 PUSH1 0x0 KECCAK256 SWAP1 JUMPDEST DUP2 SLOAD DUP2 MSTORE SWAP1 PUSH1 0x1 ADD SWAP1 PUSH1 0x20 ADD DUP1 DUP4 GT PUSH2 0x322A JUMPI DUP3 SWAP1 SUB PUSH1 0x1F AND DUP3 ADD SWAP2 JUMPDEST POP POP POP POP POP DUP2 MSTORE PUSH1 0x20 ADD PUSH1 0x3 DUP3 ADD DUP1 SLOAD PUSH2 0x3260 SWAP1 PUSH2 0x5B86 JUMP JUMPDEST DUP1 PUSH1 0x1F ADD PUSH1 0x20 DUP1 SWAP2 DIV MUL PUSH1 0x20 ADD PUSH1 0x40 MLOAD SWAP1 DUP2 ADD PUSH1 0x40 MSTORE DUP1 SWAP3 SWAP2 SWAP1 DUP2 DUP2 MSTORE PUSH1 0x20 ADD DUP3 DUP1 SLOAD PUSH2 0x328C SWAP1 PUSH2 0x5B86 JUMP JUMPDEST DUP1 ISZERO PUSH2 0x32D9 JUMPI DUP1 PUSH1 0x1F LT PUSH2 0x32AE JUMPI PUSH2 0x100 DUP1 DUP4 SLOAD DIV MUL DUP4 MSTORE SWAP2 PUSH1 0x20 ADD SWAP2 PUSH2 0x32D9 JUMP JUMPDEST DUP3 ADD SWAP2 SWAP1 PUSH1 0x0 MSTORE PUSH1 0x20 PUSH1 0x0 KECCAK256 SWAP1 JUMPDEST DUP2 SLOAD DUP2 MSTORE SWAP1 PUSH1 0x1 ADD SWAP1 PUSH1 0x20 ADD DUP1 DUP4 GT PUSH2 0x32BC JUMPI DUP3 SWAP1 SUB PUSH1 0x1F AND DUP3 ADD SWAP2 JUMPDEST POP POP POP POP POP DUP2 MSTORE PUSH1 0x20 ADD PUSH1 0x4 DUP3 ADD DUP1 SLOAD PUSH2 0x32F2 SWAP1 PUSH2 0x5B86 JUMP JUMPDEST DUP1 PUSH1 0x1F ADD PUSH1 0x20 DUP1 SWAP2 DIV MUL PUSH1 0x20 ADD PUSH1 0x40 MLOAD SWAP1 DUP2 ADD PUSH1 0x40 MSTORE DUP1 SWAP3 SWAP2 SWAP1 DUP2 DUP2 MSTORE PUSH1 0x20 ADD DUP3 DUP1 SLOAD PUSH2 0x331E SWAP1 PUSH2 0x5B86 JUMP JUMPDEST DUP1 ISZERO PUSH2 0x336B JUMPI DUP1 PUSH1 0x1F LT PUSH2 0x3340 JUMPI PUSH2 0x100 DUP1 DUP4 SLOAD DIV MUL DUP4 MSTORE SWAP2 PUSH1 0x20 ADD SWAP2 PUSH2 0x336B JUMP JUMPDEST DUP3 ADD SWAP2 SWAP1 PUSH1 0x0 MSTORE PUSH1 0x20 PUSH1 0x0 KECCAK256 SWAP1 JUMPDEST DUP2 SLOAD DUP2 MSTORE SWAP1 PUSH1 0x1 ADD SWAP1 PUSH1 0x20 ADD DUP1 DUP4 GT PUSH2 0x334E JUMPI DUP3 SWAP1 SUB PUSH1 0x1F AND DUP3 ADD SWAP2 JUMPDEST POP POP POP SWAP2 DUP4 MSTORE POP POP PUSH1 0x5 DUP3 ADD SLOAD PUSH1 0x20 DUP3 ADD MSTORE PUSH1 0x6 DUP3 ADD SLOAD PUSH1 0x40 DUP3 ADD MSTORE PUSH1 0x7 DUP3 ADD SLOAD PUSH1 0x60 DUP3 ADD MSTORE PUSH1 0x8 DUP3 ADD SLOAD PUSH1 0x80 DUP3 ADD MSTORE PUSH1 0x9 DUP3 ADD SLOAD PUSH1 0xFF DUP1 DUP3 AND ISZERO ISZERO PUSH1 0xA0 DUP5 ADD MSTORE PUSH2 0x100 DUP1 DUP4 DIV DUP3 AND ISZERO ISZERO PUSH1 0xC0 DUP6 ADD MSTORE PUSH3 0x10000 SWAP1 SWAP3 DIV DUP2 AND ISZERO ISZERO PUSH1 0xE0 DUP5 ADD MSTORE PUSH1 0xA DUP5 ADD SLOAD DUP3 DUP5 ADD MSTORE PUSH1 0xB DUP5 ADD SLOAD DUP1 DUP3 AND ISZERO ISZERO PUSH2 0x120 DUP6 ADD MSTORE SWAP2 SWAP1 SWAP2 DIV AND ISZERO ISZERO PUSH2 0x140 DUP3 ADD MSTORE PUSH1 0xC DUP3 ADD SLOAD PUSH2 0x160 DUP3 ADD MSTORE PUSH1 0xD SWAP1 SWAP2 ADD SLOAD PUSH2 0x180 SWAP1 SWAP2 ADD MSTORE SWAP1 POP PUSH1 0x0 PUSH2 0x3416 DUP4 PUSH2 0x165C JUMP JUMPDEST SWAP1 POP DUP1 ISZERO PUSH2 0x345E JUMPI PUSH1 0x40 MLOAD PUSH3 0x461BCD PUSH1 0xE5 SHL DUP2 MSTORE PUSH1 0x20 PUSH1 0x4 DUP3 ADD MSTORE PUSH1 0x15 PUSH1 0x24 DUP3 ADD MSTORE PUSH21 0x5469636B657420616C726561647920657869737473 PUSH1 0x58 SHL PUSH1 0x44 DUP3 ADD MSTORE PUSH1 0x64 ADD PUSH2 0x824 JUMP JUMPDEST PUSH1 0xB DUP1 SLOAD PUSH1 0x40 DUP1 MLOAD PUSH1 0xE0 DUP2 ADD DUP3 MSTORE DUP3 DUP2 MSTORE PUSH1 0x20 DUP2 ADD DUP8 DUP2 MSTORE CALLER SWAP3 DUP3 ADD SWAP3 DUP4 MSTORE PUSH1 0xA0 DUP8 DUP2 ADD MLOAD PUSH1 0x60 DUP5 ADD SWAP1 DUP2 MSTORE PUSH1 0x0 PUSH1 0x80 DUP6 ADD DUP2 DUP2 MSTORE SWAP3 DUP6 ADD DUP2 DUP2 MSTORE PUSH1 0xC0 DUP7 ADD DUP3 DUP2 MSTORE PUSH1 0x5 DUP1 SLOAD PUSH1 0x1 DUP2 ADD DUP3 SSTORE SWAP1 DUP5 MSTORE SWAP7 MLOAD PUSH32 0x36B6384B5ECA791C62761152D0C79BB0604C104A5FB6F4EB0703F3154BB3DB0 PUSH1 0x7 SWAP1 SWAP9 MUL SWAP8 DUP9 ADD SSTORE SWAP5 MLOAD PUSH32 0x36B6384B5ECA791C62761152D0C79BB0604C104A5FB6F4EB0703F3154BB3DB1 DUP8 ADD SSTORE SWAP6 MLOAD PUSH32 0x36B6384B5ECA791C62761152D0C79BB0604C104A5FB6F4EB0703F3154BB3DB2 DUP7 ADD DUP1 SLOAD PUSH1 0x1 PUSH1 0x1 PUSH1 0xA0 SHL SUB NOT AND PUSH1 0x1 PUSH1 0x1 PUSH1 0xA0 SHL SUB SWAP1 SWAP3 AND SWAP2 SWAP1 SWAP2 OR SWAP1 SSTORE SWAP1 MLOAD PUSH32 0x36B6384B5ECA791C62761152D0C79BB0604C104A5FB6F4EB0703F3154BB3DB3 DUP6 ADD SSTORE SWAP1 MLOAD PUSH32 0x36B6384B5ECA791C62761152D0C79BB0604C104A5FB6F4EB0703F3154BB3DB4 DUP5 ADD DUP1 SLOAD PUSH1 0xFF NOT AND SWAP2 ISZERO ISZERO SWAP2 SWAP1 SWAP2 OR SWAP1 SSTORE SWAP3 MLOAD PUSH32 0x36B6384B5ECA791C62761152D0C79BB0604C104A5FB6F4EB0703F3154BB3DB5 DUP4 ADD SSTORE MLOAD PUSH32 0x36B6384B5ECA791C62761152D0C79BB0604C104A5FB6F4EB0703F3154BB3DB6 SWAP1 SWAP2 ADD SSTORE DUP3 SLOAD SWAP2 SWAP3 SWAP1 PUSH2 0x35F5 DUP4 PUSH2 0x5B6D JUMP JUMPDEST SWAP2 SWAP1 POP SSTORE POP POP POP POP POP JUMP JUMPDEST PUSH1 0x0 DUP1 DUP1 JUMPDEST PUSH1 0x4 SLOAD DUP2 LT ISZERO PUSH2 0x1655 JUMPI PUSH1 0x0 PUSH1 0x4 DUP3 DUP2 SLOAD DUP2 LT PUSH2 0x3624 JUMPI PUSH2 0x3624 PUSH2 0x5B41 JUMP JUMPDEST SWAP1 PUSH1 0x0 MSTORE PUSH1 0x20 PUSH1 0x0 KECCAK256 SWAP1 PUSH1 0xE MUL ADD PUSH1 0x40 MLOAD DUP1 PUSH2 0x220 ADD PUSH1 0x40 MSTORE SWAP1 DUP2 PUSH1 0x0 DUP3 ADD SLOAD DUP2 MSTORE PUSH1 0x20 ADD PUSH1 0x1 DUP3 ADD PUSH1 0x0 SWAP1 SLOAD SWAP1 PUSH2 0x100 EXP SWAP1 DIV PUSH1 0x1 PUSH1 0x1 PUSH1 0xA0 SHL SUB AND PUSH1 0x1 PUSH1 0x1 PUSH1 0xA0 SHL SUB AND PUSH1 0x1 PUSH1 0x1 PUSH1 0xA0 SHL SUB AND DUP2 MSTORE PUSH1 0x20 ADD PUSH1 0x2 DUP3 ADD DUP1 SLOAD PUSH2 0x3687 SWAP1 PUSH2 0x5B86 JUMP JUMPDEST DUP1 PUSH1 0x1F ADD PUSH1 0x20 DUP1 SWAP2 DIV MUL PUSH1 0x20 ADD PUSH1 0x40 MLOAD SWAP1 DUP2 ADD PUSH1 0x40 MSTORE DUP1 SWAP3 SWAP2 SWAP1 DUP2 DUP2 MSTORE PUSH1 0x20 ADD DUP3 DUP1 SLOAD PUSH2 0x36B3 SWAP1 PUSH2 0x5B86 JUMP JUMPDEST DUP1 ISZERO PUSH2 0x3700 JUMPI DUP1 PUSH1 0x1F LT PUSH2 0x36D5 JUMPI PUSH2 0x100 DUP1 DUP4 SLOAD DIV MUL DUP4 MSTORE SWAP2 PUSH1 0x20 ADD SWAP2 PUSH2 0x3700 JUMP JUMPDEST DUP3 ADD SWAP2 SWAP1 PUSH1 0x0 MSTORE PUSH1 0x20 PUSH1 0x0 KECCAK256 SWAP1 JUMPDEST DUP2 SLOAD DUP2 MSTORE SWAP1 PUSH1 0x1 ADD SWAP1 PUSH1 0x20 ADD DUP1 DUP4 GT PUSH2 0x36E3 JUMPI DUP3 SWAP1 SUB PUSH1 0x1F AND DUP3 ADD SWAP2 JUMPDEST POP POP POP POP POP DUP2 MSTORE PUSH1 0x20 ADD PUSH1 0x3 DUP3 ADD DUP1 SLOAD PUSH2 0x3719 SWAP1 PUSH2 0x5B86 JUMP JUMPDEST DUP1 PUSH1 0x1F ADD PUSH1 0x20 DUP1 SWAP2 DIV MUL PUSH1 0x20 ADD PUSH1 0x40 MLOAD SWAP1 DUP2 ADD PUSH1 0x40 MSTORE DUP1 SWAP3 SWAP2 SWAP1 DUP2 DUP2 MSTORE PUSH1 0x20 ADD DUP3 DUP1 SLOAD PUSH2 0x3745 SWAP1 PUSH2 0x5B86 JUMP JUMPDEST DUP1 ISZERO PUSH2 0x3792 JUMPI DUP1 PUSH1 0x1F LT PUSH2 0x3767 JUMPI PUSH2 0x100 DUP1 DUP4 SLOAD DIV MUL DUP4 MSTORE SWAP2 PUSH1 0x20 ADD SWAP2 PUSH2 0x3792 JUMP JUMPDEST DUP3 ADD SWAP2 SWAP1 PUSH1 0x0 MSTORE PUSH1 0x20 PUSH1 0x0 KECCAK256 SWAP1 JUMPDEST DUP2 SLOAD DUP2 MSTORE SWAP1 PUSH1 0x1 ADD SWAP1 PUSH1 0x20 ADD DUP1 DUP4 GT PUSH2 0x3775 JUMPI DUP3 SWAP1 SUB PUSH1 0x1F AND DUP3 ADD SWAP2 JUMPDEST POP POP POP POP POP DUP2 MSTORE PUSH1 0x20 ADD PUSH1 0x4 DUP3 ADD DUP1 SLOAD PUSH2 0x37AB SWAP1 PUSH2 0x5B86 JUMP JUMPDEST DUP1 PUSH1 0x1F ADD PUSH1 0x20 DUP1 SWAP2 DIV MUL PUSH1 0x20 ADD PUSH1 0x40 MLOAD SWAP1 DUP2 ADD PUSH1 0x40 MSTORE DUP1 SWAP3 SWAP2 SWAP1 DUP2 DUP2 MSTORE PUSH1 0x20 ADD DUP3 DUP1 SLOAD PUSH2 0x37D7 SWAP1 PUSH2 0x5B86 JUMP JUMPDEST DUP1 ISZERO PUSH2 0x3824 JUMPI DUP1 PUSH1 0x1F LT PUSH2 0x37F9 JUMPI PUSH2 0x100 DUP1 DUP4 SLOAD DIV MUL DUP4 MSTORE SWAP2 PUSH1 0x20 ADD SWAP2 PUSH2 0x3824 JUMP JUMPDEST DUP3 ADD SWAP2 SWAP1 PUSH1 0x0 MSTORE PUSH1 0x20 PUSH1 0x0 KECCAK256 SWAP1 JUMPDEST DUP2 SLOAD DUP2 MSTORE SWAP1 PUSH1 0x1 ADD SWAP1 PUSH1 0x20 ADD DUP1 DUP4 GT PUSH2 0x3807 JUMPI DUP3 SWAP1 SUB PUSH1 0x1F AND DUP3 ADD SWAP2 JUMPDEST POP POP POP SWAP2 DUP4 MSTORE POP POP PUSH1 0x5 DUP3 ADD SLOAD PUSH1 0x20 DUP1 DUP4 ADD SWAP2 SWAP1 SWAP2 MSTORE PUSH1 0x6 DUP4 ADD SLOAD PUSH1 0x40 DUP4 ADD MSTORE PUSH1 0x7 DUP4 ADD SLOAD PUSH1 0x60 DUP4 ADD MSTORE PUSH1 0x8 DUP4 ADD SLOAD PUSH1 0x80 DUP4 ADD MSTORE PUSH1 0x9 DUP4 ADD SLOAD PUSH1 0xFF DUP1 DUP3 AND ISZERO ISZERO PUSH1 0xA0 DUP6 ADD MSTORE PUSH2 0x100 DUP1 DUP4 DIV DUP3 AND ISZERO ISZERO PUSH1 0xC0 DUP7 ADD MSTORE PUSH3 0x10000 SWAP1 SWAP3 DIV DUP2 AND ISZERO ISZERO PUSH1 0xE0 DUP6 ADD MSTORE PUSH1 0xA DUP6 ADD SLOAD DUP3 DUP6 ADD MSTORE PUSH1 0xB DUP6 ADD SLOAD DUP1 DUP3 AND ISZERO ISZERO PUSH2 0x120 DUP7 ADD MSTORE SWAP2 SWAP1 SWAP2 DIV AND ISZERO ISZERO PUSH2 0x140 DUP4 ADD MSTORE PUSH1 0xC DUP4 ADD SLOAD PUSH2 0x160 DUP4 ADD MSTORE PUSH1 0xD SWAP1 SWAP3 ADD SLOAD PUSH2 0x180 SWAP1 SWAP2 ADD MSTORE DUP2 ADD MLOAD SWAP1 SWAP2 POP PUSH1 0x1 PUSH1 0x1 PUSH1 0xA0 SHL SUB DUP1 DUP8 AND SWAP2 AND SUB PUSH2 0x38EC JUMPI DUP3 PUSH2 0x38E8 DUP2 PUSH2 0x5B6D JUMP JUMPDEST SWAP4 POP POP JUMPDEST POP DUP1 PUSH2 0x38F7 DUP2 PUSH2 0x5B6D JUMP JUMPDEST SWAP2 POP POP PUSH2 0x3605 JUMP JUMPDEST PUSH1 0x0 DUP1 DUP1 JUMPDEST PUSH1 0x4 SLOAD DUP2 LT ISZERO PUSH2 0x3BF1 JUMPI PUSH1 0x0 PUSH1 0x4 DUP3 DUP2 SLOAD DUP2 LT PUSH2 0x3923 JUMPI PUSH2 0x3923 PUSH2 0x5B41 JUMP JUMPDEST SWAP1 PUSH1 0x0 MSTORE PUSH1 0x20 PUSH1 0x0 KECCAK256 SWAP1 PUSH1 0xE MUL ADD PUSH1 0x40 MLOAD DUP1 PUSH2 0x220 ADD PUSH1 0x40 MSTORE SWAP1 DUP2 PUSH1 0x0 DUP3 ADD SLOAD DUP2 MSTORE PUSH1 0x20 ADD PUSH1 0x1 DUP3 ADD PUSH1 0x0 SWAP1 SLOAD SWAP1 PUSH2 0x100 EXP SWAP1 DIV PUSH1 0x1 PUSH1 0x1 PUSH1 0xA0 SHL SUB AND PUSH1 0x1 PUSH1 0x1 PUSH1 0xA0 SHL SUB AND PUSH1 0x1 PUSH1 0x1 PUSH1 0xA0 SHL SUB AND DUP2 MSTORE PUSH1 0x20 ADD PUSH1 0x2 DUP3 ADD DUP1 SLOAD PUSH2 0x3986 SWAP1 PUSH2 0x5B86 JUMP JUMPDEST DUP1 PUSH1 0x1F ADD PUSH1 0x20 DUP1 SWAP2 DIV MUL PUSH1 0x20 ADD PUSH1 0x40 MLOAD SWAP1 DUP2 ADD PUSH1 0x40 MSTORE DUP1 SWAP3 SWAP2 SWAP1 DUP2 DUP2 MSTORE PUSH1 0x20 ADD DUP3 DUP1 SLOAD PUSH2 0x39B2 SWAP1 PUSH2 0x5B86 JUMP JUMPDEST DUP1 ISZERO PUSH2 0x39FF JUMPI DUP1 PUSH1 0x1F LT PUSH2 0x39D4 JUMPI PUSH2 0x100 DUP1 DUP4 SLOAD DIV MUL DUP4 MSTORE SWAP2 PUSH1 0x20 ADD SWAP2 PUSH2 0x39FF JUMP JUMPDEST DUP3 ADD SWAP2 SWAP1 PUSH1 0x0 MSTORE PUSH1 0x20 PUSH1 0x0 KECCAK256 SWAP1 JUMPDEST DUP2 SLOAD DUP2 MSTORE SWAP1 PUSH1 0x1 ADD SWAP1 PUSH1 0x20 ADD DUP1 DUP4 GT PUSH2 0x39E2 JUMPI DUP3 SWAP1 SUB PUSH1 0x1F AND DUP3 ADD SWAP2 JUMPDEST POP POP POP POP POP DUP2 MSTORE PUSH1 0x20 ADD PUSH1 0x3 DUP3 ADD DUP1 SLOAD PUSH2 0x3A18 SWAP1 PUSH2 0x5B86 JUMP JUMPDEST DUP1 PUSH1 0x1F ADD PUSH1 0x20 DUP1 SWAP2 DIV MUL PUSH1 0x20 ADD PUSH1 0x40 MLOAD SWAP1 DUP2 ADD PUSH1 0x40 MSTORE DUP1 SWAP3 SWAP2 SWAP1 DUP2 DUP2 MSTORE PUSH1 0x20 ADD DUP3 DUP1 SLOAD PUSH2 0x3A44 SWAP1 PUSH2 0x5B86 JUMP JUMPDEST DUP1 ISZERO PUSH2 0x3A91 JUMPI DUP1 PUSH1 0x1F LT PUSH2 0x3A66 JUMPI PUSH2 0x100 DUP1 DUP4 SLOAD DIV MUL DUP4 MSTORE SWAP2 PUSH1 0x20 ADD SWAP2 PUSH2 0x3A91 JUMP JUMPDEST DUP3 ADD SWAP2 SWAP1 PUSH1 0x0 MSTORE PUSH1 0x20 PUSH1 0x0 KECCAK256 SWAP1 JUMPDEST DUP2 SLOAD DUP2 MSTORE SWAP1 PUSH1 0x1 ADD SWAP1 PUSH1 0x20 ADD DUP1 DUP4 GT PUSH2 0x3A74 JUMPI DUP3 SWAP1 SUB PUSH1 0x1F AND DUP3 ADD SWAP2 JUMPDEST POP POP POP POP POP DUP2 MSTORE PUSH1 0x20 ADD PUSH1 0x4 DUP3 ADD DUP1 SLOAD PUSH2 0x3AAA SWAP1 PUSH2 0x5B86 JUMP JUMPDEST DUP1 PUSH1 0x1F ADD PUSH1 0x20 DUP1 SWAP2 DIV MUL PUSH1 0x20 ADD PUSH1 0x40 MLOAD SWAP1 DUP2 ADD PUSH1 0x40 MSTORE DUP1 SWAP3 SWAP2 SWAP1 DUP2 DUP2 MSTORE PUSH1 0x20 ADD DUP3 DUP1 SLOAD PUSH2 0x3AD6 SWAP1 PUSH2 0x5B86 JUMP JUMPDEST DUP1 ISZERO PUSH2 0x3B23 JUMPI DUP1 PUSH1 0x1F LT PUSH2 0x3AF8 JUMPI PUSH2 0x100 DUP1 DUP4 SLOAD DIV MUL DUP4 MSTORE SWAP2 PUSH1 0x20 ADD SWAP2 PUSH2 0x3B23 JUMP JUMPDEST DUP3 ADD SWAP2 SWAP1 PUSH1 0x0 MSTORE PUSH1 0x20 PUSH1 0x0 KECCAK256 SWAP1 JUMPDEST DUP2 SLOAD DUP2 MSTORE SWAP1 PUSH1 0x1 ADD SWAP1 PUSH1 0x20 ADD DUP1 DUP4 GT PUSH2 0x3B06 JUMPI DUP3 SWAP1 SUB PUSH1 0x1F AND DUP3 ADD SWAP2 JUMPDEST POP POP POP SWAP2 DUP4 MSTORE POP POP PUSH1 0x5 DUP3 ADD SLOAD PUSH1 0x20 DUP3 ADD MSTORE PUSH1 0x6 DUP3 ADD SLOAD PUSH1 0x40 DUP3 ADD MSTORE PUSH1 0x7 DUP3 ADD SLOAD PUSH1 0x60 DUP3 ADD MSTORE PUSH1 0x8 DUP3 ADD SLOAD PUSH1 0x80 DUP3 ADD MSTORE PUSH1 0x9 DUP3 ADD SLOAD PUSH1 0xFF DUP1 DUP3 AND ISZERO ISZERO PUSH1 0xA0 DUP5 ADD MSTORE PUSH2 0x100 DUP1 DUP4 DIV DUP3 AND ISZERO ISZERO PUSH1 0xC0 DUP6 ADD MSTORE PUSH3 0x10000 SWAP1 SWAP3 DIV DUP2 AND ISZERO ISZERO PUSH1 0xE0 DUP5 ADD MSTORE PUSH1 0xA DUP5 ADD SLOAD DUP3 DUP5 ADD MSTORE PUSH1 0xB DUP5 ADD SLOAD DUP1 DUP3 AND ISZERO ISZERO PUSH2 0x120 DUP6 ADD MSTORE SWAP2 SWAP1 SWAP2 DIV AND ISZERO ISZERO PUSH2 0x140 DUP1 DUP4 ADD SWAP2 SWAP1 SWAP2 MSTORE PUSH1 0xC DUP4 ADD SLOAD PUSH2 0x160 DUP4 ADD MSTORE PUSH1 0xD SWAP1 SWAP3 ADD SLOAD PUSH2 0x180 SWAP1 SWAP2 ADD MSTORE DUP2 ADD MLOAD SWAP1 SWAP2 POP ISZERO PUSH2 0x3BDE JUMPI DUP3 PUSH2 0x3BDA DUP2 PUSH2 0x5B6D JUMP JUMPDEST SWAP4 POP POP JUMPDEST POP DUP1 PUSH2 0x3BE9 DUP2 PUSH2 0x5B6D JUMP JUMPDEST SWAP2 POP POP PUSH2 0x3904 JUMP JUMPDEST POP SWAP2 SWAP1 POP JUMP JUMPDEST PUSH2 0x3BFF PUSH2 0x5195 JUMP JUMPDEST PUSH1 0x0 PUSH2 0x3C0A DUP4 PUSH2 0x2D62 JUMP JUMPDEST PUSH1 0x1 PUSH2 0x140 DUP3 ADD MSTORE PUSH1 0x4 DUP1 SLOAD SWAP2 SWAP3 POP DUP3 SWAP2 DUP6 SWAP1 DUP2 LT PUSH2 0x3C2B JUMPI PUSH2 0x3C2B PUSH2 0x5B41 JUMP JUMPDEST PUSH1 0x0 SWAP2 DUP3 MSTORE PUSH1 0x20 SWAP2 DUP3 SWAP1 KECCAK256 DUP4 MLOAD PUSH1 0xE SWAP3 SWAP1 SWAP3 MUL ADD SWAP1 DUP2 SSTORE SWAP1 DUP3 ADD MLOAD PUSH1 0x1 DUP3 ADD DUP1 SLOAD PUSH1 0x1 PUSH1 0x1 PUSH1 0xA0 SHL SUB NOT AND PUSH1 0x1 PUSH1 0x1 PUSH1 0xA0 SHL SUB SWAP1 SWAP3 AND SWAP2 SWAP1 SWAP2 OR SWAP1 SSTORE PUSH1 0x40 DUP3 ADD MLOAD PUSH1 0x2 DUP3 ADD SWAP1 PUSH2 0x3C7B SWAP1 DUP3 PUSH2 0x5C91 JUMP JUMPDEST POP PUSH1 0x60 DUP3 ADD MLOAD PUSH1 0x3 DUP3 ADD SWAP1 PUSH2 0x3C90 SWAP1 DUP3 PUSH2 0x5C91 JUMP JUMPDEST POP PUSH1 0x80 DUP3 ADD MLOAD PUSH1 0x4 DUP3 ADD SWAP1 PUSH2 0x3CA5 SWAP1 DUP3 PUSH2 0x5C91 JUMP JUMPDEST POP PUSH1 0xA0 DUP3 ADD MLOAD PUSH1 0x5 DUP3 ADD SSTORE PUSH1 0xC0 DUP3 ADD MLOAD PUSH1 0x6 DUP3 ADD SSTORE PUSH1 0xE0 DUP3 ADD MLOAD PUSH1 0x7 DUP3 ADD SSTORE PUSH2 0x100 DUP1 DUP4 ADD MLOAD PUSH1 0x8 DUP4 ADD SSTORE PUSH2 0x120 DUP4 ADD MLOAD PUSH1 0x9 DUP4 ADD DUP1 SLOAD PUSH2 0x140 DUP7 ADD MLOAD PUSH2 0x160 DUP8 ADD MLOAD ISZERO ISZERO PUSH3 0x10000 MUL PUSH3 0xFF0000 NOT SWAP2 ISZERO ISZERO DUP7 MUL PUSH2 0xFF00 NOT SWAP6 ISZERO ISZERO DUP7 AND PUSH2 0xFFFF NOT SWAP5 DUP6 AND OR OR SWAP2 SWAP1 SWAP2 AND OR SWAP1 SWAP2 SSTORE PUSH2 0x180 DUP6 ADD MLOAD PUSH1 0xA DUP6 ADD SSTORE PUSH2 0x1A0 DUP6 ADD MLOAD PUSH1 0xB DUP6 ADD DUP1 SLOAD PUSH2 0x1C0 DUP9 ADD MLOAD ISZERO ISZERO SWAP1 SWAP6 MUL SWAP2 ISZERO ISZERO SWAP1 SWAP4 AND SWAP4 SWAP1 SWAP2 AND SWAP3 SWAP1 SWAP3 OR SWAP2 SWAP1 SWAP2 OR SWAP1 SSTORE PUSH2 0x1E0 DUP3 ADD MLOAD PUSH1 0xC DUP3 ADD SSTORE PUSH2 0x200 SWAP1 SWAP2 ADD MLOAD PUSH1 0xD SWAP1 SWAP2 ADD SSTORE SWAP3 SWAP2 POP POP JUMP JUMPDEST PUSH2 0x3D6F PUSH2 0x4948 JUMP JUMPDEST PUSH2 0x3D78 DUP2 PUSH2 0x499D JUMP JUMPDEST POP JUMP JUMPDEST PUSH1 0x0 DUP1 PUSH2 0x3D87 DUP4 PUSH2 0x5CE JUMP JUMPDEST SWAP1 POP PUSH1 0x0 JUMPDEST DUP2 MLOAD DUP2 LT ISZERO PUSH2 0x3DDD JUMPI PUSH1 0x0 DUP3 DUP3 DUP2 MLOAD DUP2 LT PUSH2 0x3DA9 JUMPI PUSH2 0x3DA9 PUSH2 0x5B41 JUMP JUMPDEST PUSH1 0x20 MUL PUSH1 0x20 ADD ADD MLOAD SWAP1 POP DUP6 DUP2 PUSH1 0x20 ADD MLOAD SUB PUSH2 0x3DCA JUMPI PUSH1 0x1 SWAP4 POP POP POP POP PUSH2 0x1EA6 JUMP JUMPDEST POP DUP1 PUSH2 0x3DD5 DUP2 PUSH2 0x5B6D JUMP JUMPDEST SWAP2 POP POP PUSH2 0x3D8C JUMP JUMPDEST POP PUSH1 0x0 SWAP5 SWAP4 POP POP POP POP JUMP JUMPDEST PUSH1 0x0 DUP3 DUP1 PUSH1 0x20 ADD SWAP1 MLOAD DUP2 ADD SWAP1 PUSH2 0x3DFE SWAP2 SWAP1 PUSH2 0x5C32 JUMP JUMPDEST SWAP1 POP PUSH1 0x0 PUSH1 0x3 DUP3 DUP2 SLOAD DUP2 LT PUSH2 0x3E15 JUMPI PUSH2 0x3E15 PUSH2 0x5B41 JUMP JUMPDEST SWAP1 PUSH1 0x0 MSTORE PUSH1 0x20 PUSH1 0x0 KECCAK256 SWAP1 PUSH1 0x6 MUL ADD PUSH1 0x40 MLOAD DUP1 PUSH2 0x100 ADD PUSH1 0x40 MSTORE SWAP1 DUP2 PUSH1 0x0 DUP3 ADD SLOAD DUP2 MSTORE PUSH1 0x20 ADD PUSH1 0x1 DUP3 ADD PUSH1 0x0 SWAP1 SLOAD SWAP1 PUSH2 0x100 EXP SWAP1 DIV PUSH1 0x1 PUSH1 0x1 PUSH1 0xA0 SHL SUB AND PUSH1 0x1 PUSH1 0x1 PUSH1 0xA0 SHL SUB AND PUSH1 0x1 PUSH1 0x1 PUSH1 0xA0 SHL SUB AND DUP2 MSTORE PUSH1 0x20 ADD PUSH1 0x2 DUP3 ADD DUP1 SLOAD PUSH2 0x3E78 SWAP1 PUSH2 0x5B86 JUMP JUMPDEST DUP1 PUSH1 0x1F ADD PUSH1 0x20 DUP1 SWAP2 DIV MUL PUSH1 0x20 ADD PUSH1 0x40 MLOAD SWAP1 DUP2 ADD PUSH1 0x40 MSTORE DUP1 SWAP3 SWAP2 SWAP1 DUP2 DUP2 MSTORE PUSH1 0x20 ADD DUP3 DUP1 SLOAD PUSH2 0x3EA4 SWAP1 PUSH2 0x5B86 JUMP JUMPDEST DUP1 ISZERO PUSH2 0x3EF1 JUMPI DUP1 PUSH1 0x1F LT PUSH2 0x3EC6 JUMPI PUSH2 0x100 DUP1 DUP4 SLOAD DIV MUL DUP4 MSTORE SWAP2 PUSH1 0x20 ADD SWAP2 PUSH2 0x3EF1 JUMP JUMPDEST DUP3 ADD SWAP2 SWAP1 PUSH1 0x0 MSTORE PUSH1 0x20 PUSH1 0x0 KECCAK256 SWAP1 JUMPDEST DUP2 SLOAD DUP2 MSTORE SWAP1 PUSH1 0x1 ADD SWAP1 PUSH1 0x20 ADD DUP1 DUP4 GT PUSH2 0x3ED4 JUMPI DUP3 SWAP1 SUB PUSH1 0x1F AND DUP3 ADD SWAP2 JUMPDEST POP POP POP POP POP DUP2 MSTORE PUSH1 0x20 ADD PUSH1 0x3 DUP3 ADD DUP1 SLOAD PUSH2 0x3F0A SWAP1 PUSH2 0x5B86 JUMP JUMPDEST DUP1 PUSH1 0x1F ADD PUSH1 0x20 DUP1 SWAP2 DIV MUL PUSH1 0x20 ADD PUSH1 0x40 MLOAD SWAP1 DUP2 ADD PUSH1 0x40 MSTORE DUP1 SWAP3 SWAP2 SWAP1 DUP2 DUP2 MSTORE PUSH1 0x20 ADD DUP3 DUP1 SLOAD PUSH2 0x3F36 SWAP1 PUSH2 0x5B86 JUMP JUMPDEST DUP1 ISZERO PUSH2 0x3F83 JUMPI DUP1 PUSH1 0x1F LT PUSH2 0x3F58 JUMPI PUSH2 0x100 DUP1 DUP4 SLOAD DIV MUL DUP4 MSTORE SWAP2 PUSH1 0x20 ADD SWAP2 PUSH2 0x3F83 JUMP JUMPDEST DUP3 ADD SWAP2 SWAP1 PUSH1 0x0 MSTORE PUSH1 0x20 PUSH1 0x0 KECCAK256 SWAP1 JUMPDEST DUP2 SLOAD DUP2 MSTORE SWAP1 PUSH1 0x1 ADD SWAP1 PUSH1 0x20 ADD DUP1 DUP4 GT PUSH2 0x3F66 JUMPI DUP3 SWAP1 SUB PUSH1 0x1F AND DUP3 ADD SWAP2 JUMPDEST POP POP POP SWAP2 DUP4 MSTORE POP POP PUSH1 0x4 DUP3 ADD SLOAD PUSH1 0xFF DUP1 DUP3 AND ISZERO ISZERO PUSH1 0x20 DUP5 ADD MSTORE PUSH2 0x100 DUP3 DIV DUP2 AND ISZERO ISZERO PUSH1 0x40 DUP5 ADD MSTORE PUSH3 0x10000 SWAP1 SWAP2 DIV AND ISZERO ISZERO PUSH1 0x60 DUP3 ADD MSTORE PUSH1 0x5 SWAP1 SWAP2 ADD SLOAD PUSH1 0x80 SWAP1 SWAP2 ADD MSTORE PUSH1 0xA0 DUP2 ADD MLOAD SWAP1 SWAP2 POP PUSH2 0x40B5 JUMPI PUSH1 0x1 PUSH1 0xC0 DUP3 ADD MSTORE PUSH1 0xE0 DUP2 ADD DUP6 SWAP1 MSTORE PUSH1 0x3 DUP1 SLOAD DUP3 SWAP2 SWAP1 DUP5 SWAP1 DUP2 LT PUSH2 0x3FF6 JUMPI PUSH2 0x3FF6 PUSH2 0x5B41 JUMP JUMPDEST PUSH1 0x0 SWAP2 DUP3 MSTORE PUSH1 0x20 SWAP2 DUP3 SWAP1 KECCAK256 DUP4 MLOAD PUSH1 0x6 SWAP3 SWAP1 SWAP3 MUL ADD SWAP1 DUP2 SSTORE SWAP1 DUP3 ADD MLOAD PUSH1 0x1 DUP3 ADD DUP1 SLOAD PUSH1 0x1 PUSH1 0x1 PUSH1 0xA0 SHL SUB NOT AND PUSH1 0x1 PUSH1 0x1 PUSH1 0xA0 SHL SUB SWAP1 SWAP3 AND SWAP2 SWAP1 SWAP2 OR SWAP1 SSTORE PUSH1 0x40 DUP3 ADD MLOAD PUSH1 0x2 DUP3 ADD SWAP1 PUSH2 0x4046 SWAP1 DUP3 PUSH2 0x5C91 JUMP JUMPDEST POP PUSH1 0x60 DUP3 ADD MLOAD PUSH1 0x3 DUP3 ADD SWAP1 PUSH2 0x405B SWAP1 DUP3 PUSH2 0x5C91 JUMP JUMPDEST POP PUSH1 0x80 DUP3 ADD MLOAD PUSH1 0x4 DUP3 ADD DUP1 SLOAD PUSH1 0xA0 DUP6 ADD MLOAD PUSH1 0xC0 DUP7 ADD MLOAD ISZERO ISZERO PUSH3 0x10000 MUL PUSH3 0xFF0000 NOT SWAP2 ISZERO ISZERO PUSH2 0x100 MUL PUSH2 0xFF00 NOT SWAP6 ISZERO ISZERO SWAP6 SWAP1 SWAP6 AND PUSH2 0xFFFF NOT SWAP1 SWAP4 AND SWAP3 SWAP1 SWAP3 OR SWAP4 SWAP1 SWAP4 OR SWAP3 SWAP1 SWAP3 AND SWAP2 SWAP1 SWAP2 OR SWAP1 SSTORE PUSH1 0xE0 SWAP1 SWAP2 ADD MLOAD PUSH1 0x5 SWAP1 SWAP2 ADD SSTORE JUMPDEST PUSH1 0x8 PUSH2 0x40C1 DUP5 DUP3 PUSH2 0x5C91 JUMP JUMPDEST POP POP POP POP POP POP JUMP JUMPDEST PUSH1 0x0 PUSH2 0x40D4 DUP5 PUSH2 0x83D JUMP JUMPDEST SWAP1 POP DUP1 PUSH2 0x120 ADD MLOAD PUSH2 0x4105 JUMPI DUP1 MLOAD PUSH2 0x4103 SWAP1 DUP5 DUP5 PUSH1 0x0 DUP2 PUSH2 0x40F7 JUMPI PUSH2 0x40F7 PUSH2 0x5B41 JUMP JUMPDEST SWAP1 POP PUSH1 0x20 MUL ADD CALLDATALOAD PUSH2 0x4A46 JUMP JUMPDEST POP JUMPDEST PUSH1 0x0 PUSH2 0x4110 DUP6 PUSH2 0x716 JUMP JUMPDEST SWAP1 POP DUP1 PUSH1 0x80 ADD MLOAD PUSH2 0x25B1 JUMPI DUP1 MLOAD PUSH2 0x40C1 SWAP1 DUP6 DUP6 PUSH1 0x0 DUP2 PUSH2 0x4132 JUMPI PUSH2 0x4132 PUSH2 0x5B41 JUMP JUMPDEST SWAP1 POP PUSH1 0x20 MUL ADD CALLDATALOAD PUSH2 0x4BBE JUMP JUMPDEST PUSH1 0x60 PUSH32 0x92FD13387C7FE7BEFBC38D303D6468778FB9731BC4583F17D92989C6FCFDEAAA DUP3 PUSH1 0x40 MLOAD PUSH1 0x24 ADD PUSH2 0x4177 SWAP2 MLOAD ISZERO ISZERO DUP2 MSTORE PUSH1 0x20 ADD SWAP1 JUMP JUMPDEST PUSH1 0x40 DUP1 MLOAD PUSH1 0x1F NOT DUP2 DUP5 SUB ADD DUP2 MSTORE SWAP2 SWAP1 MSTORE PUSH1 0x20 DUP2 ADD DUP1 MLOAD PUSH1 0x1 PUSH1 0x1 PUSH1 0xE0 SHL SUB AND PUSH1 0x1 PUSH1 0x1 PUSH1 0xE0 SHL SUB NOT SWAP1 SWAP4 AND SWAP3 SWAP1 SWAP3 OR SWAP1 SWAP2 MSTORE SWAP3 SWAP2 POP POP JUMP JUMPDEST PUSH2 0x41B7 PUSH2 0x5195 JUMP JUMPDEST PUSH1 0x0 PUSH2 0x41C2 DUP5 PUSH2 0x2D62 JUMP JUMPDEST SWAP1 POP PUSH1 0x0 PUSH1 0xA DUP3 PUSH1 0xA0 ADD MLOAD PUSH2 0x41D7 SWAP2 SWAP1 PUSH2 0x5D7D JUMP JUMPDEST PUSH1 0x1 PUSH2 0x160 DUP5 ADD MSTORE TIMESTAMP PUSH1 0xE0 DUP5 ADD MSTORE PUSH2 0x180 DUP4 ADD DUP2 SWAP1 MSTORE PUSH2 0x1E0 DUP4 ADD DUP6 SWAP1 MSTORE PUSH1 0x4 DUP1 SLOAD SWAP2 SWAP3 POP DUP4 SWAP2 DUP8 SWAP1 DUP2 LT PUSH2 0x420E JUMPI PUSH2 0x420E PUSH2 0x5B41 JUMP JUMPDEST PUSH1 0x0 SWAP2 DUP3 MSTORE PUSH1 0x20 SWAP2 DUP3 SWAP1 KECCAK256 DUP4 MLOAD PUSH1 0xE SWAP3 SWAP1 SWAP3 MUL ADD SWAP1 DUP2 SSTORE SWAP1 DUP3 ADD MLOAD PUSH1 0x1 DUP3 ADD DUP1 SLOAD PUSH1 0x1 PUSH1 0x1 PUSH1 0xA0 SHL SUB NOT AND PUSH1 0x1 PUSH1 0x1 PUSH1 0xA0 SHL SUB SWAP1 SWAP3 AND SWAP2 SWAP1 SWAP2 OR SWAP1 SSTORE PUSH1 0x40 DUP3 ADD MLOAD PUSH1 0x2 DUP3 ADD SWAP1 PUSH2 0x425E SWAP1 DUP3 PUSH2 0x5C91 JUMP JUMPDEST POP PUSH1 0x60 DUP3 ADD MLOAD PUSH1 0x3 DUP3 ADD SWAP1 PUSH2 0x4273 SWAP1 DUP3 PUSH2 0x5C91 JUMP JUMPDEST POP PUSH1 0x80 DUP3 ADD MLOAD PUSH1 0x4 DUP3 ADD SWAP1 PUSH2 0x4288 SWAP1 DUP3 PUSH2 0x5C91 JUMP JUMPDEST POP PUSH1 0xA0 DUP3 ADD MLOAD PUSH1 0x5 DUP3 ADD SSTORE PUSH1 0xC0 DUP3 ADD MLOAD PUSH1 0x6 DUP3 ADD SSTORE PUSH1 0xE0 DUP3 ADD MLOAD PUSH1 0x7 DUP3 ADD SSTORE PUSH2 0x100 DUP1 DUP4 ADD MLOAD PUSH1 0x8 DUP4 ADD SSTORE PUSH2 0x120 DUP4 ADD MLOAD PUSH1 0x9 DUP4 ADD DUP1 SLOAD PUSH2 0x140 DUP7 ADD MLOAD PUSH2 0x160 DUP8 ADD MLOAD ISZERO ISZERO PUSH3 0x10000 MUL PUSH3 0xFF0000 NOT SWAP2 ISZERO ISZERO DUP7 MUL PUSH2 0xFF00 NOT SWAP6 ISZERO ISZERO DUP7 AND PUSH2 0xFFFF NOT SWAP5 DUP6 AND OR OR SWAP2 SWAP1 SWAP2 AND OR SWAP1 SWAP2 SSTORE PUSH2 0x180 DUP6 ADD MLOAD PUSH1 0xA DUP6 ADD SSTORE PUSH2 0x1A0 DUP6 ADD MLOAD PUSH1 0xB DUP6 ADD DUP1 SLOAD PUSH2 0x1C0 DUP9 ADD MLOAD ISZERO ISZERO SWAP1 SWAP6 MUL SWAP2 ISZERO ISZERO SWAP1 SWAP4 AND SWAP4 SWAP1 SWAP2 AND SWAP3 SWAP1 SWAP3 OR SWAP2 SWAP1 SWAP2 OR SWAP1 SSTORE PUSH2 0x1E0 DUP3 ADD MLOAD PUSH1 0xC DUP3 ADD SSTORE PUSH2 0x200 SWAP1 SWAP2 ADD MLOAD PUSH1 0xD SWAP1 SWAP2 ADD SSTORE POP SWAP1 POP SWAP3 SWAP2 POP POP JUMP JUMPDEST PUSH2 0x435A DUP3 PUSH1 0x0 DUP1 DUP5 PUSH2 0x4C5D JUMP JUMPDEST POP POP JUMP JUMPDEST DUP1 MLOAD PUSH1 0x0 SUB PUSH2 0x4380 JUMPI PUSH1 0x40 MLOAD PUSH4 0xE889636F PUSH1 0xE0 SHL DUP2 MSTORE PUSH1 0x4 ADD PUSH1 0x40 MLOAD DUP1 SWAP2 SUB SWAP1 REVERT JUMPDEST PUSH1 0x1 PUSH1 0x20 DUP4 ADD MSTORE PUSH1 0x80 SWAP1 SWAP2 ADD MSTORE JUMP JUMPDEST PUSH1 0x0 PUSH2 0x439C PUSH2 0x100 PUSH2 0x4CDB JUMP JUMPDEST SWAP1 POP PUSH2 0x43CF PUSH1 0x40 MLOAD DUP1 PUSH1 0x40 ADD PUSH1 0x40 MSTORE DUP1 PUSH1 0x6 DUP2 MSTORE PUSH1 0x20 ADD PUSH6 0x1CDB1BDD1251 PUSH1 0xD2 SHL DUP2 MSTORE POP DUP3 PUSH2 0x4CFC SWAP1 SWAP2 SWAP1 PUSH4 0xFFFFFFFF AND JUMP JUMPDEST PUSH2 0x43DC DUP2 PUSH1 0xFF DUP6 AND PUSH2 0x4D15 JUMP JUMPDEST PUSH1 0x40 DUP1 MLOAD DUP1 DUP3 ADD SWAP1 SWAP2 MSTORE PUSH1 0x7 DUP2 MSTORE PUSH7 0x3B32B939B4B7B7 PUSH1 0xC9 SHL PUSH1 0x20 DUP3 ADD MSTORE PUSH2 0x4405 SWAP1 DUP3 SWAP1 PUSH2 0x4CFC JUMP JUMPDEST PUSH2 0x440F DUP2 DUP4 PUSH2 0x4D15 JUMP JUMPDEST PUSH1 0x2 PUSH1 0x20 DUP6 ADD MSTORE MLOAD MLOAD PUSH1 0x80 SWAP1 SWAP4 ADD SWAP3 SWAP1 SWAP3 MSTORE POP POP JUMP JUMPDEST DUP1 MLOAD PUSH1 0x0 SUB PUSH2 0x4447 JUMPI PUSH1 0x40 MLOAD PUSH4 0xFE936CB7 PUSH1 0xE0 SHL DUP2 MSTORE PUSH1 0x4 ADD PUSH1 0x40 MLOAD DUP1 SWAP2 SUB SWAP1 REVERT JUMPDEST PUSH1 0xA0 SWAP1 SWAP2 ADD MSTORE JUMP JUMPDEST DUP1 MLOAD PUSH1 0x0 SUB PUSH2 0x4471 JUMPI PUSH1 0x40 MLOAD PUSH4 0xFE936CB7 PUSH1 0xE0 SHL DUP2 MSTORE PUSH1 0x4 ADD PUSH1 0x40 MLOAD DUP1 SWAP2 SUB SWAP1 REVERT JUMPDEST PUSH1 0xC0 SWAP1 SWAP2 ADD MSTORE JUMP JUMPDEST PUSH1 0x60 PUSH1 0x0 PUSH2 0x4488 PUSH2 0x100 PUSH2 0x4CDB JUMP JUMPDEST SWAP1 POP PUSH2 0x44C1 PUSH1 0x40 MLOAD DUP1 PUSH1 0x40 ADD PUSH1 0x40 MSTORE DUP1 PUSH1 0xC DUP2 MSTORE PUSH1 0x20 ADD PUSH12 0x31B7B232A637B1B0BA34B7B7 PUSH1 0xA1 SHL DUP2 MSTORE POP DUP3 PUSH2 0x4CFC SWAP1 SWAP2 SWAP1 PUSH4 0xFFFFFFFF AND JUMP JUMPDEST DUP3 MLOAD PUSH2 0x44DF SWAP1 PUSH1 0x2 DUP2 GT ISZERO PUSH2 0x44D8 JUMPI PUSH2 0x44D8 PUSH2 0x5EBE JUMP JUMPDEST DUP3 SWAP1 PUSH2 0x4D21 JUMP JUMPDEST PUSH1 0x40 DUP1 MLOAD DUP1 DUP3 ADD SWAP1 SWAP2 MSTORE PUSH1 0x8 DUP2 MSTORE PUSH8 0x6C616E6775616765 PUSH1 0xC0 SHL PUSH1 0x20 DUP3 ADD MSTORE PUSH2 0x4509 SWAP1 DUP3 SWAP1 PUSH2 0x4CFC JUMP JUMPDEST PUSH1 0x40 DUP4 ADD MLOAD PUSH2 0x4520 SWAP1 DUP1 ISZERO PUSH2 0x44D8 JUMPI PUSH2 0x44D8 PUSH2 0x5EBE JUMP JUMPDEST PUSH1 0x40 DUP1 MLOAD DUP1 DUP3 ADD SWAP1 SWAP2 MSTORE PUSH1 0x6 DUP2 MSTORE PUSH6 0x736F75726365 PUSH1 0xD0 SHL PUSH1 0x20 DUP3 ADD MSTORE PUSH2 0x4548 SWAP1 DUP3 SWAP1 PUSH2 0x4CFC JUMP JUMPDEST PUSH1 0x60 DUP4 ADD MLOAD PUSH2 0x4558 SWAP1 DUP3 SWAP1 PUSH2 0x4CFC JUMP JUMPDEST PUSH1 0xA0 DUP4 ADD MLOAD MLOAD ISZERO PUSH2 0x45EC JUMPI PUSH1 0x40 DUP1 MLOAD DUP1 DUP3 ADD SWAP1 SWAP2 MSTORE PUSH1 0x4 DUP2 MSTORE PUSH4 0x61726773 PUSH1 0xE0 SHL PUSH1 0x20 DUP3 ADD MSTORE PUSH2 0x4589 SWAP1 DUP3 SWAP1 PUSH2 0x4CFC JUMP JUMPDEST PUSH2 0x4592 DUP2 PUSH2 0x4D5A JUMP JUMPDEST PUSH1 0x0 JUMPDEST DUP4 PUSH1 0xA0 ADD MLOAD MLOAD DUP2 LT ISZERO PUSH2 0x45E2 JUMPI PUSH2 0x45D2 DUP5 PUSH1 0xA0 ADD MLOAD DUP3 DUP2 MLOAD DUP2 LT PUSH2 0x45BB JUMPI PUSH2 0x45BB PUSH2 0x5B41 JUMP JUMPDEST PUSH1 0x20 MUL PUSH1 0x20 ADD ADD MLOAD DUP4 PUSH2 0x4CFC SWAP1 SWAP2 SWAP1 PUSH4 0xFFFFFFFF AND JUMP JUMPDEST PUSH2 0x45DB DUP2 PUSH2 0x5B6D JUMP JUMPDEST SWAP1 POP PUSH2 0x4595 JUMP JUMPDEST POP PUSH2 0x45EC DUP2 PUSH2 0x4D7E JUMP JUMPDEST PUSH1 0x80 DUP4 ADD MLOAD MLOAD ISZERO PUSH2 0x46B0 JUMPI PUSH1 0x0 DUP4 PUSH1 0x20 ADD MLOAD PUSH1 0x2 DUP2 GT ISZERO PUSH2 0x460F JUMPI PUSH2 0x460F PUSH2 0x5EBE JUMP JUMPDEST SUB PUSH2 0x462D JUMPI PUSH1 0x40 MLOAD PUSH4 0xA80D31F7 PUSH1 0xE0 SHL DUP2 MSTORE PUSH1 0x4 ADD PUSH1 0x40 MLOAD DUP1 SWAP2 SUB SWAP1 REVERT JUMPDEST PUSH1 0x40 DUP1 MLOAD DUP1 DUP3 ADD SWAP1 SWAP2 MSTORE PUSH1 0xF DUP2 MSTORE PUSH15 0x39B2B1B932BA39A637B1B0BA34B7B7 PUSH1 0x89 SHL PUSH1 0x20 DUP3 ADD MSTORE PUSH2 0x465E SWAP1 DUP3 SWAP1 PUSH2 0x4CFC JUMP JUMPDEST PUSH2 0x4677 DUP4 PUSH1 0x20 ADD MLOAD PUSH1 0x2 DUP2 GT ISZERO PUSH2 0x44D8 JUMPI PUSH2 0x44D8 PUSH2 0x5EBE JUMP JUMPDEST PUSH1 0x40 DUP1 MLOAD DUP1 DUP3 ADD SWAP1 SWAP2 MSTORE PUSH1 0x7 DUP2 MSTORE PUSH7 0x73656372657473 PUSH1 0xC8 SHL PUSH1 0x20 DUP3 ADD MSTORE PUSH2 0x46A0 SWAP1 DUP3 SWAP1 PUSH2 0x4CFC JUMP JUMPDEST PUSH1 0x80 DUP4 ADD MLOAD PUSH2 0x46B0 SWAP1 DUP3 SWAP1 PUSH2 0x4D9C JUMP JUMPDEST PUSH1 0xC0 DUP4 ADD MLOAD MLOAD ISZERO PUSH2 0x4749 JUMPI PUSH1 0x40 DUP1 MLOAD DUP1 DUP3 ADD SWAP1 SWAP2 MSTORE PUSH1 0x9 DUP2 MSTORE PUSH9 0x627974657341726773 PUSH1 0xB8 SHL PUSH1 0x20 DUP3 ADD MSTORE PUSH2 0x46E6 SWAP1 DUP3 SWAP1 PUSH2 0x4CFC JUMP JUMPDEST PUSH2 0x46EF DUP2 PUSH2 0x4D5A JUMP JUMPDEST PUSH1 0x0 JUMPDEST DUP4 PUSH1 0xC0 ADD MLOAD MLOAD DUP2 LT ISZERO PUSH2 0x473F JUMPI PUSH2 0x472F DUP5 PUSH1 0xC0 ADD MLOAD DUP3 DUP2 MLOAD DUP2 LT PUSH2 0x4718 JUMPI PUSH2 0x4718 PUSH2 0x5B41 JUMP JUMPDEST PUSH1 0x20 MUL PUSH1 0x20 ADD ADD MLOAD DUP4 PUSH2 0x4D9C SWAP1 SWAP2 SWAP1 PUSH4 0xFFFFFFFF AND JUMP JUMPDEST PUSH2 0x4738 DUP2 PUSH2 0x5B6D JUMP JUMPDEST SWAP1 POP PUSH2 0x46F2 JUMP JUMPDEST POP PUSH2 0x4749 DUP2 PUSH2 0x4D7E JUMP JUMPDEST MLOAD MLOAD SWAP3 SWAP2 POP POP JUMP JUMPDEST PUSH1 0x0 DUP1 PUSH32 0x0 PUSH1 0x1 PUSH1 0x1 PUSH1 0xA0 SHL SUB AND PUSH4 0x461D2762 DUP7 DUP9 PUSH1 0x1 DUP9 DUP9 PUSH1 0x40 MLOAD DUP7 PUSH4 0xFFFFFFFF AND PUSH1 0xE0 SHL DUP2 MSTORE PUSH1 0x4 ADD PUSH2 0x47A9 SWAP6 SWAP5 SWAP4 SWAP3 SWAP2 SWAP1 PUSH2 0x5ED4 JUMP JUMPDEST PUSH1 0x20 PUSH1 0x40 MLOAD DUP1 DUP4 SUB DUP2 PUSH1 0x0 DUP8 GAS CALL ISZERO DUP1 ISZERO PUSH2 0x47C8 JUMPI RETURNDATASIZE PUSH1 0x0 DUP1 RETURNDATACOPY RETURNDATASIZE PUSH1 0x0 REVERT JUMPDEST POP POP POP POP PUSH1 0x40 MLOAD RETURNDATASIZE PUSH1 0x1F NOT PUSH1 0x1F DUP3 ADD AND DUP3 ADD DUP1 PUSH1 0x40 MSTORE POP DUP2 ADD SWAP1 PUSH2 0x47EC SWAP2 SWAP1 PUSH2 0x5C32 JUMP JUMPDEST PUSH1 0x40 MLOAD SWAP1 SWAP2 POP DUP2 SWAP1 PUSH32 0x1131472297A800FEE664D1D89CFA8F7676FF07189ECC53F80BBB5F4969099DB8 SWAP1 PUSH1 0x0 SWAP1 LOG2 SWAP6 SWAP5 POP POP POP POP POP JUMP JUMPDEST PUSH2 0x482B PUSH2 0x514D JUMP JUMPDEST PUSH1 0x0 PUSH1 0x5 DUP5 DUP2 SLOAD DUP2 LT PUSH2 0x4840 JUMPI PUSH2 0x4840 PUSH2 0x5B41 JUMP JUMPDEST PUSH1 0x0 SWAP2 DUP3 MSTORE PUSH1 0x20 SWAP2 DUP3 SWAP1 KECCAK256 PUSH1 0x40 DUP1 MLOAD PUSH1 0xE0 DUP2 ADD DUP3 MSTORE PUSH1 0x7 SWAP1 SWAP4 MUL SWAP1 SWAP2 ADD DUP1 SLOAD DUP4 MSTORE PUSH1 0x1 DUP2 ADD SLOAD SWAP4 DUP4 ADD SWAP4 SWAP1 SWAP4 MSTORE PUSH1 0x2 DUP4 ADD SLOAD PUSH1 0x1 PUSH1 0x1 PUSH1 0xA0 SHL SUB AND SWAP1 DUP3 ADD MSTORE PUSH1 0x3 DUP3 ADD SLOAD PUSH1 0x60 DUP3 ADD MSTORE PUSH1 0x4 DUP3 ADD SLOAD PUSH1 0xFF AND ISZERO ISZERO PUSH1 0x80 DUP3 ADD MSTORE PUSH1 0x6 SWAP1 SWAP2 ADD SLOAD PUSH1 0xC0 DUP3 ADD MSTORE PUSH1 0xA0 DUP2 ADD DUP5 SWAP1 MSTORE PUSH1 0x5 DUP1 SLOAD SWAP2 SWAP3 POP DUP3 SWAP2 DUP7 SWAP1 DUP2 LT PUSH2 0x48C3 JUMPI PUSH2 0x48C3 PUSH2 0x5B41 JUMP JUMPDEST PUSH1 0x0 SWAP2 DUP3 MSTORE PUSH1 0x20 SWAP2 DUP3 SWAP1 KECCAK256 DUP4 MLOAD PUSH1 0x7 SWAP3 SWAP1 SWAP3 MUL ADD SWAP1 DUP2 SSTORE SWAP1 DUP3 ADD MLOAD PUSH1 0x1 DUP3 ADD SSTORE PUSH1 0x40 DUP3 ADD MLOAD PUSH1 0x2 DUP3 ADD DUP1 SLOAD PUSH1 0x1 PUSH1 0x1 PUSH1 0xA0 SHL SUB NOT AND PUSH1 0x1 PUSH1 0x1 PUSH1 0xA0 SHL SUB SWAP1 SWAP3 AND SWAP2 SWAP1 SWAP2 OR SWAP1 SSTORE PUSH1 0x60 DUP3 ADD MLOAD PUSH1 0x3 DUP3 ADD SSTORE PUSH1 0x80 DUP3 ADD MLOAD PUSH1 0x4 DUP3 ADD DUP1 SLOAD PUSH1 0xFF NOT AND SWAP2 ISZERO ISZERO SWAP2 SWAP1 SWAP2 OR SWAP1 SSTORE PUSH1 0xA0 DUP3 ADD MLOAD PUSH1 0x5 DUP3 ADD SSTORE PUSH1 0xC0 SWAP1 SWAP2 ADD MLOAD PUSH1 0x6 SWAP1 SWAP2 ADD SSTORE SWAP4 SWAP3 POP POP POP JUMP JUMPDEST PUSH1 0x0 SLOAD PUSH1 0x1 PUSH1 0x1 PUSH1 0xA0 SHL SUB AND CALLER EQ PUSH2 0x499B JUMPI PUSH1 0x40 MLOAD PUSH3 0x461BCD PUSH1 0xE5 SHL DUP2 MSTORE PUSH1 0x20 PUSH1 0x4 DUP3 ADD MSTORE PUSH1 0x16 PUSH1 0x24 DUP3 ADD MSTORE PUSH22 0x27B7363C9031B0B63630B1363290313C9037BBB732B9 PUSH1 0x51 SHL PUSH1 0x44 DUP3 ADD MSTORE PUSH1 0x64 ADD PUSH2 0x824 JUMP JUMPDEST JUMP JUMPDEST CALLER PUSH1 0x1 PUSH1 0x1 PUSH1 0xA0 SHL SUB DUP3 AND SUB PUSH2 0x49F5 JUMPI PUSH1 0x40 MLOAD PUSH3 0x461BCD PUSH1 0xE5 SHL DUP2 MSTORE PUSH1 0x20 PUSH1 0x4 DUP3 ADD MSTORE PUSH1 0x17 PUSH1 0x24 DUP3 ADD MSTORE PUSH32 0x43616E6E6F74207472616E7366657220746F2073656C66000000000000000000 PUSH1 0x44 DUP3 ADD MSTORE PUSH1 0x64 ADD PUSH2 0x824 JUMP JUMPDEST PUSH1 0x1 DUP1 SLOAD PUSH1 0x1 PUSH1 0x1 PUSH1 0xA0 SHL SUB NOT AND PUSH1 0x1 PUSH1 0x1 PUSH1 0xA0 SHL SUB DUP4 DUP2 AND SWAP2 DUP3 OR SWAP1 SWAP3 SSTORE PUSH1 0x0 DUP1 SLOAD PUSH1 0x40 MLOAD SWAP3 SWAP4 AND SWAP2 PUSH32 0xED8889F560326EB138920D842192F0EB3DD22B4F139C87A2C57538E05BAE1278 SWAP2 SWAP1 LOG3 POP JUMP JUMPDEST PUSH2 0x4A4E PUSH2 0x5195 JUMP JUMPDEST PUSH1 0x0 PUSH2 0x4A59 DUP5 PUSH2 0x2D62 JUMP JUMPDEST TIMESTAMP PUSH1 0xE0 DUP3 ADD MSTORE PUSH2 0x200 DUP2 ADD DUP5 SWAP1 MSTORE PUSH1 0x4 DUP1 SLOAD SWAP2 SWAP3 POP DUP3 SWAP2 DUP7 SWAP1 DUP2 LT PUSH2 0x4A80 JUMPI PUSH2 0x4A80 PUSH2 0x5B41 JUMP JUMPDEST PUSH1 0x0 SWAP2 DUP3 MSTORE PUSH1 0x20 SWAP2 DUP3 SWAP1 KECCAK256 DUP4 MLOAD PUSH1 0xE SWAP3 SWAP1 SWAP3 MUL ADD SWAP1 DUP2 SSTORE SWAP1 DUP3 ADD MLOAD PUSH1 0x1 DUP3 ADD DUP1 SLOAD PUSH1 0x1 PUSH1 0x1 PUSH1 0xA0 SHL SUB NOT AND PUSH1 0x1 PUSH1 0x1 PUSH1 0xA0 SHL SUB SWAP1 SWAP3 AND SWAP2 SWAP1 SWAP2 OR SWAP1 SSTORE PUSH1 0x40 DUP3 ADD MLOAD PUSH1 0x2 DUP3 ADD SWAP1 PUSH2 0x4AD0 SWAP1 DUP3 PUSH2 0x5C91 JUMP JUMPDEST POP PUSH1 0x60 DUP3 ADD MLOAD PUSH1 0x3 DUP3 ADD SWAP1 PUSH2 0x4AE5 SWAP1 DUP3 PUSH2 0x5C91 JUMP JUMPDEST POP PUSH1 0x80 DUP3 ADD MLOAD PUSH1 0x4 DUP3 ADD SWAP1 PUSH2 0x4AFA SWAP1 DUP3 PUSH2 0x5C91 JUMP JUMPDEST POP PUSH1 0xA0 DUP3 ADD MLOAD PUSH1 0x5 DUP3 ADD SSTORE PUSH1 0xC0 DUP3 ADD MLOAD PUSH1 0x6 DUP3 ADD SSTORE PUSH1 0xE0 DUP3 ADD MLOAD PUSH1 0x7 DUP3 ADD SSTORE PUSH2 0x100 DUP1 DUP4 ADD MLOAD PUSH1 0x8 DUP4 ADD SSTORE PUSH2 0x120 DUP4 ADD MLOAD PUSH1 0x9 DUP4 ADD DUP1 SLOAD PUSH2 0x140 DUP7 ADD MLOAD PUSH2 0x160 DUP8 ADD MLOAD ISZERO ISZERO PUSH3 0x10000 MUL PUSH3 0xFF0000 NOT SWAP2 ISZERO ISZERO DUP7 MUL PUSH2 0xFF00 NOT SWAP6 ISZERO ISZERO DUP7 AND PUSH2 0xFFFF NOT SWAP5 DUP6 AND OR OR SWAP2 SWAP1 SWAP2 AND OR SWAP1 SWAP2 SSTORE PUSH2 0x180 DUP6 ADD MLOAD PUSH1 0xA DUP6 ADD SSTORE PUSH2 0x1A0 DUP6 ADD MLOAD PUSH1 0xB DUP6 ADD DUP1 SLOAD PUSH2 0x1C0 DUP9 ADD MLOAD ISZERO ISZERO SWAP1 SWAP6 MUL SWAP2 ISZERO ISZERO SWAP1 SWAP4 AND SWAP4 SWAP1 SWAP2 AND SWAP3 SWAP1 SWAP3 OR SWAP2 SWAP1 SWAP2 OR SWAP1 SSTORE PUSH2 0x1E0 DUP3 ADD MLOAD PUSH1 0xC DUP3 ADD SSTORE PUSH2 0x200 SWAP1 SWAP2 ADD MLOAD PUSH1 0xD SWAP1 SWAP2 ADD SSTORE SWAP1 POP SWAP3 SWAP2 POP POP JUMP JUMPDEST PUSH2 0x4BC6 PUSH2 0x514D JUMP JUMPDEST PUSH1 0x0 PUSH1 0x5 DUP5 DUP2 SLOAD DUP2 LT PUSH2 0x4BDB JUMPI PUSH2 0x4BDB PUSH2 0x5B41 JUMP JUMPDEST PUSH1 0x0 SWAP2 DUP3 MSTORE PUSH1 0x20 SWAP2 DUP3 SWAP1 KECCAK256 PUSH1 0x40 DUP1 MLOAD PUSH1 0xE0 DUP2 ADD DUP3 MSTORE PUSH1 0x7 SWAP1 SWAP4 MUL SWAP1 SWAP2 ADD DUP1 SLOAD DUP4 MSTORE PUSH1 0x1 DUP2 ADD SLOAD SWAP4 DUP4 ADD SWAP4 SWAP1 SWAP4 MSTORE PUSH1 0x2 DUP4 ADD SLOAD PUSH1 0x1 PUSH1 0x1 PUSH1 0xA0 SHL SUB AND SWAP1 DUP3 ADD MSTORE PUSH1 0x3 DUP3 ADD SLOAD PUSH1 0x60 DUP3 ADD MSTORE PUSH1 0x4 DUP3 ADD SLOAD PUSH1 0xFF AND ISZERO ISZERO PUSH1 0x80 DUP3 ADD MSTORE PUSH1 0x5 SWAP2 DUP3 ADD SLOAD PUSH1 0xA0 DUP3 ADD MSTORE PUSH1 0xC0 DUP2 ADD DUP6 SWAP1 MSTORE DUP2 SLOAD SWAP1 SWAP3 POP DUP3 SWAP2 SWAP1 DUP7 SWAP1 DUP2 LT PUSH2 0x48C3 JUMPI PUSH2 0x48C3 PUSH2 0x5B41 JUMP JUMPDEST DUP1 MLOAD PUSH1 0x0 SUB PUSH2 0x4C7F JUMPI PUSH1 0x40 MLOAD PUSH4 0x22CE3EDD PUSH1 0xE0 SHL DUP2 MSTORE PUSH1 0x4 ADD PUSH1 0x40 MLOAD DUP1 SWAP2 SUB SWAP1 REVERT JUMPDEST DUP4 DUP4 PUSH1 0x2 DUP2 GT ISZERO PUSH2 0x4C92 JUMPI PUSH2 0x4C92 PUSH2 0x5EBE JUMP JUMPDEST SWAP1 DUP2 PUSH1 0x2 DUP2 GT ISZERO PUSH2 0x4CA5 JUMPI PUSH2 0x4CA5 PUSH2 0x5EBE JUMP JUMPDEST SWAP1 MSTORE POP PUSH1 0x40 DUP5 ADD DUP3 DUP1 ISZERO PUSH2 0x4CBB JUMPI PUSH2 0x4CBB PUSH2 0x5EBE JUMP JUMPDEST SWAP1 DUP2 DUP1 ISZERO PUSH2 0x4CCB JUMPI PUSH2 0x4CCB PUSH2 0x5EBE JUMP JUMPDEST SWAP1 MSTORE POP PUSH1 0x60 SWAP1 SWAP4 ADD SWAP3 SWAP1 SWAP3 MSTORE POP POP JUMP JUMPDEST PUSH2 0x4CE3 PUSH2 0x5272 JUMP JUMPDEST DUP1 MLOAD PUSH2 0x4CEF SWAP1 DUP4 PUSH2 0x4DA9 JUMP JUMPDEST POP PUSH1 0x0 PUSH1 0x20 DUP3 ADD MSTORE SWAP2 SWAP1 POP JUMP JUMPDEST PUSH2 0x4D09 DUP3 PUSH1 0x3 DUP4 MLOAD PUSH2 0x4E20 JUMP JUMPDEST DUP2 MLOAD PUSH2 0x838 SWAP1 DUP3 PUSH2 0x4F3F JUMP JUMPDEST PUSH2 0x435A DUP3 PUSH1 0x0 DUP4 PUSH2 0x4E20 JUMP JUMPDEST DUP2 MLOAD PUSH2 0x4D2E SWAP1 PUSH1 0xC2 PUSH2 0x4F60 JUMP JUMPDEST POP PUSH2 0x435A DUP3 DUP3 PUSH1 0x40 MLOAD PUSH1 0x20 ADD PUSH2 0x4D46 SWAP2 DUP2 MSTORE PUSH1 0x20 ADD SWAP1 JUMP JUMPDEST PUSH1 0x40 MLOAD PUSH1 0x20 DUP2 DUP4 SUB SUB DUP2 MSTORE SWAP1 PUSH1 0x40 MSTORE PUSH2 0x4D9C JUMP JUMPDEST PUSH2 0x4D65 DUP2 PUSH1 0x4 PUSH2 0x4FC9 JUMP JUMPDEST PUSH1 0x1 DUP2 PUSH1 0x20 ADD DUP2 DUP2 MLOAD PUSH2 0x4D78 SWAP2 SWAP1 PUSH2 0x5BBA JUMP JUMPDEST SWAP1 MSTORE POP POP JUMP JUMPDEST PUSH2 0x4D89 DUP2 PUSH1 0x7 PUSH2 0x4FC9 JUMP JUMPDEST PUSH1 0x1 DUP2 PUSH1 0x20 ADD DUP2 DUP2 MLOAD PUSH2 0x4D78 SWAP2 SWAP1 PUSH2 0x5F1D JUMP JUMPDEST PUSH2 0x4D09 DUP3 PUSH1 0x2 DUP4 MLOAD PUSH2 0x4E20 JUMP JUMPDEST PUSH1 0x40 DUP1 MLOAD DUP1 DUP3 ADD SWAP1 SWAP2 MSTORE PUSH1 0x60 DUP2 MSTORE PUSH1 0x0 PUSH1 0x20 DUP3 ADD MSTORE PUSH2 0x4DC9 PUSH1 0x20 DUP4 PUSH2 0x5F30 JUMP JUMPDEST ISZERO PUSH2 0x4DF1 JUMPI PUSH2 0x4DD9 PUSH1 0x20 DUP4 PUSH2 0x5F30 JUMP JUMPDEST PUSH2 0x4DE4 SWAP1 PUSH1 0x20 PUSH2 0x5F1D JUMP JUMPDEST PUSH2 0x4DEE SWAP1 DUP4 PUSH2 0x5BBA JUMP JUMPDEST SWAP2 POP JUMPDEST PUSH1 0x20 DUP1 DUP5 ADD DUP4 SWAP1 MSTORE PUSH1 0x40 MLOAD DUP1 DUP6 MSTORE PUSH1 0x0 DUP2 MSTORE SWAP1 DUP2 DUP5 ADD ADD DUP2 DUP2 LT ISZERO PUSH2 0x4E15 JUMPI PUSH1 0x0 DUP1 REVERT JUMPDEST PUSH1 0x40 MSTORE POP SWAP2 SWAP3 SWAP2 POP POP JUMP JUMPDEST PUSH1 0x17 DUP2 PUSH1 0x1 PUSH1 0x1 PUSH1 0x40 SHL SUB AND GT PUSH2 0x4E4C JUMPI DUP3 MLOAD PUSH2 0x4E46 SWAP1 PUSH1 0xE0 PUSH1 0x5 DUP6 SWAP1 SHL AND DUP4 OR PUSH2 0x4F60 JUMP JUMPDEST POP POP POP POP JUMP JUMPDEST PUSH1 0xFF DUP2 PUSH1 0x1 PUSH1 0x1 PUSH1 0x40 SHL SUB AND GT PUSH2 0x4E8C JUMPI DUP3 MLOAD PUSH2 0x4E74 SWAP1 PUSH1 0x18 PUSH2 0x1FE0 PUSH1 0x5 DUP7 SWAP1 SHL AND OR PUSH2 0x4F60 JUMP JUMPDEST POP DUP3 MLOAD PUSH2 0x4E46 SWAP1 PUSH1 0x1 PUSH1 0x1 PUSH1 0x40 SHL SUB DUP4 AND PUSH1 0x1 PUSH2 0x4FE0 JUMP JUMPDEST PUSH2 0xFFFF DUP2 PUSH1 0x1 PUSH1 0x1 PUSH1 0x40 SHL SUB AND GT PUSH2 0x4ECD JUMPI DUP3 MLOAD PUSH2 0x4EB5 SWAP1 PUSH1 0x19 PUSH2 0x1FE0 PUSH1 0x5 DUP7 SWAP1 SHL AND OR PUSH2 0x4F60 JUMP JUMPDEST POP DUP3 MLOAD PUSH2 0x4E46 SWAP1 PUSH1 0x1 PUSH1 0x1 PUSH1 0x40 SHL SUB DUP4 AND PUSH1 0x2 PUSH2 0x4FE0 JUMP JUMPDEST PUSH4 0xFFFFFFFF DUP2 PUSH1 0x1 PUSH1 0x1 PUSH1 0x40 SHL SUB AND GT PUSH2 0x4F10 JUMPI DUP3 MLOAD PUSH2 0x4EF8 SWAP1 PUSH1 0x1A PUSH2 0x1FE0 PUSH1 0x5 DUP7 SWAP1 SHL AND OR PUSH2 0x4F60 JUMP JUMPDEST POP DUP3 MLOAD PUSH2 0x4E46 SWAP1 PUSH1 0x1 PUSH1 0x1 PUSH1 0x40 SHL SUB DUP4 AND PUSH1 0x4 PUSH2 0x4FE0 JUMP JUMPDEST DUP3 MLOAD PUSH2 0x4F27 SWAP1 PUSH1 0x1B PUSH2 0x1FE0 PUSH1 0x5 DUP7 SWAP1 SHL AND OR PUSH2 0x4F60 JUMP JUMPDEST POP DUP3 MLOAD PUSH2 0x4E46 SWAP1 PUSH1 0x1 PUSH1 0x1 PUSH1 0x40 SHL SUB DUP4 AND PUSH1 0x8 PUSH2 0x4FE0 JUMP JUMPDEST PUSH1 0x40 DUP1 MLOAD DUP1 DUP3 ADD SWAP1 SWAP2 MSTORE PUSH1 0x60 DUP2 MSTORE PUSH1 0x0 PUSH1 0x20 DUP3 ADD MSTORE PUSH2 0x121A DUP4 DUP4 DUP5 MLOAD PUSH2 0x5065 JUMP JUMPDEST PUSH1 0x40 DUP1 MLOAD DUP1 DUP3 ADD SWAP1 SWAP2 MSTORE PUSH1 0x60 DUP2 MSTORE PUSH1 0x0 PUSH1 0x20 DUP3 ADD MSTORE DUP3 MLOAD MLOAD PUSH1 0x0 PUSH2 0x4F85 DUP3 PUSH1 0x1 PUSH2 0x5BBA JUMP JUMPDEST SWAP1 POP DUP5 PUSH1 0x20 ADD MLOAD DUP3 LT PUSH2 0x4FA6 JUMPI PUSH2 0x4FA6 DUP6 PUSH2 0x4FA1 DUP4 PUSH1 0x2 PUSH2 0x5D50 JUMP JUMPDEST PUSH2 0x5136 JUMP JUMPDEST DUP5 MLOAD PUSH1 0x20 DUP4 DUP3 ADD ADD DUP6 DUP2 MSTORE8 POP DUP1 MLOAD DUP3 GT ISZERO PUSH2 0x4FBF JUMPI DUP2 DUP2 MSTORE JUMPDEST POP SWAP4 SWAP5 SWAP4 POP POP POP POP JUMP JUMPDEST DUP2 MLOAD PUSH2 0x838 SWAP1 PUSH1 0x1F PUSH2 0x1FE0 PUSH1 0x5 DUP6 SWAP1 SHL AND OR PUSH2 0x4F60 JUMP JUMPDEST PUSH1 0x40 DUP1 MLOAD DUP1 DUP3 ADD SWAP1 SWAP2 MSTORE PUSH1 0x60 DUP2 MSTORE PUSH1 0x0 PUSH1 0x20 DUP3 ADD MSTORE DUP4 MLOAD MLOAD PUSH1 0x0 PUSH2 0x5004 DUP3 DUP6 PUSH2 0x5BBA JUMP JUMPDEST SWAP1 POP DUP6 PUSH1 0x20 ADD MLOAD DUP2 GT ISZERO PUSH2 0x5021 JUMPI PUSH2 0x5021 DUP7 PUSH2 0x4FA1 DUP4 PUSH1 0x2 PUSH2 0x5D50 JUMP JUMPDEST PUSH1 0x0 PUSH1 0x1 PUSH2 0x5031 DUP7 PUSH2 0x100 PUSH2 0x5F44 JUMP JUMPDEST PUSH2 0x503B SWAP2 SWAP1 PUSH2 0x5F1D JUMP JUMPDEST SWAP1 POP DUP7 MLOAD DUP3 DUP2 ADD DUP8 DUP4 NOT DUP3 MLOAD AND OR DUP2 MSTORE POP DUP1 MLOAD DUP4 GT ISZERO PUSH2 0x5059 JUMPI DUP3 DUP2 MSTORE JUMPDEST POP SWAP6 SWAP7 SWAP6 POP POP POP POP POP POP JUMP JUMPDEST PUSH1 0x40 DUP1 MLOAD DUP1 DUP3 ADD SWAP1 SWAP2 MSTORE PUSH1 0x60 DUP2 MSTORE PUSH1 0x0 PUSH1 0x20 DUP3 ADD MSTORE DUP3 MLOAD DUP3 GT ISZERO PUSH2 0x5088 JUMPI PUSH1 0x0 DUP1 REVERT JUMPDEST DUP4 MLOAD MLOAD PUSH1 0x0 PUSH2 0x5097 DUP5 DUP4 PUSH2 0x5BBA JUMP JUMPDEST SWAP1 POP DUP6 PUSH1 0x20 ADD MLOAD DUP2 GT ISZERO PUSH2 0x50B4 JUMPI PUSH2 0x50B4 DUP7 PUSH2 0x4FA1 DUP4 PUSH1 0x2 PUSH2 0x5D50 JUMP JUMPDEST DUP6 MLOAD DUP1 MLOAD DUP4 DUP3 ADD PUSH1 0x20 ADD SWAP2 PUSH1 0x0 SWAP2 DUP1 DUP6 GT ISZERO PUSH2 0x50CE JUMPI DUP5 DUP3 MSTORE JUMPDEST POP POP POP PUSH1 0x20 DUP7 ADD JUMPDEST PUSH1 0x20 DUP7 LT PUSH2 0x510E JUMPI DUP1 MLOAD DUP3 MSTORE PUSH2 0x50ED PUSH1 0x20 DUP4 PUSH2 0x5BBA JUMP JUMPDEST SWAP2 POP PUSH2 0x50FA PUSH1 0x20 DUP3 PUSH2 0x5BBA JUMP JUMPDEST SWAP1 POP PUSH2 0x5107 PUSH1 0x20 DUP8 PUSH2 0x5F1D JUMP JUMPDEST SWAP6 POP PUSH2 0x50D6 JUMP JUMPDEST MLOAD DUP2 MLOAD PUSH1 0x0 NOT PUSH1 0x20 DUP9 SWAP1 SUB PUSH2 0x100 EXP ADD SWAP1 DUP2 AND SWAP1 NOT SWAP2 SWAP1 SWAP2 AND OR SWAP1 MSTORE POP DUP5 SWAP2 POP POP SWAP4 SWAP3 POP POP POP JUMP JUMPDEST DUP2 MLOAD PUSH2 0x5142 DUP4 DUP4 PUSH2 0x4DA9 JUMP JUMPDEST POP PUSH2 0x4E46 DUP4 DUP3 PUSH2 0x4F3F JUMP JUMPDEST PUSH1 0x40 MLOAD DUP1 PUSH1 0xE0 ADD PUSH1 0x40 MSTORE DUP1 PUSH1 0x0 DUP2 MSTORE PUSH1 0x20 ADD PUSH1 0x0 DUP2 MSTORE PUSH1 0x20 ADD PUSH1 0x0 PUSH1 0x1 PUSH1 0x1 PUSH1 0xA0 SHL SUB AND DUP2 MSTORE PUSH1 0x20 ADD PUSH1 0x0 DUP2 MSTORE PUSH1 0x20 ADD PUSH1 0x0 ISZERO ISZERO DUP2 MSTORE PUSH1 0x20 ADD PUSH1 0x0 DUP2 MSTORE PUSH1 0x20 ADD PUSH1 0x0 DUP2 MSTORE POP SWAP1 JUMP JUMPDEST PUSH1 0x40 MLOAD DUP1 PUSH2 0x220 ADD PUSH1 0x40 MSTORE DUP1 PUSH1 0x0 DUP2 MSTORE PUSH1 0x20 ADD PUSH1 0x0 PUSH1 0x1 PUSH1 0x1 PUSH1 0xA0 SHL SUB AND DUP2 MSTORE PUSH1 0x20 ADD PUSH1 0x60 DUP2 MSTORE PUSH1 0x20 ADD PUSH1 0x60 DUP2 MSTORE PUSH1 0x20 ADD PUSH1 0x60 DUP2 MSTORE PUSH1 0x20 ADD PUSH1 0x0 DUP2 MSTORE PUSH1 0x20 ADD PUSH1 0x0 DUP2 MSTORE PUSH1 0x20 ADD PUSH1 0x0 DUP2 MSTORE PUSH1 0x20 ADD PUSH1 0x0 DUP2 MSTORE PUSH1 0x20 ADD PUSH1 0x0 ISZERO ISZERO DUP2 MSTORE PUSH1 0x20 ADD PUSH1 0x0 ISZERO ISZERO DUP2 MSTORE PUSH1 0x20 ADD PUSH1 0x0 ISZERO ISZERO DUP2 MSTORE PUSH1 0x20 ADD PUSH1 0x0 DUP2 MSTORE PUSH1 0x20 ADD PUSH1 0x0 ISZERO ISZERO DUP2 MSTORE PUSH1 0x20 ADD PUSH1 0x0 ISZERO ISZERO DUP2 MSTORE PUSH1 0x20 ADD PUSH1 0x0 DUP2 MSTORE PUSH1 0x20 ADD PUSH1 0x0 DUP2 MSTORE POP SWAP1 JUMP JUMPDEST PUSH1 0x40 DUP1 MLOAD PUSH2 0x100 DUP2 ADD DUP3 MSTORE PUSH1 0x0 DUP1 DUP3 MSTORE PUSH1 0x20 DUP3 ADD DUP2 SWAP1 MSTORE PUSH1 0x60 SWAP3 DUP3 ADD DUP4 SWAP1 MSTORE DUP3 DUP3 ADD SWAP3 SWAP1 SWAP3 MSTORE PUSH1 0x80 DUP2 ADD DUP3 SWAP1 MSTORE PUSH1 0xA0 DUP2 ADD DUP3 SWAP1 MSTORE PUSH1 0xC0 DUP2 ADD DUP3 SWAP1 MSTORE PUSH1 0xE0 DUP2 ADD SWAP2 SWAP1 SWAP2 MSTORE SWAP1 JUMP JUMPDEST PUSH1 0x40 MLOAD DUP1 PUSH1 0x40 ADD PUSH1 0x40 MSTORE DUP1 PUSH2 0x529A PUSH1 0x40 MLOAD DUP1 PUSH1 0x40 ADD PUSH1 0x40 MSTORE DUP1 PUSH1 0x60 DUP2 MSTORE PUSH1 0x20 ADD PUSH1 0x0 DUP2 MSTORE POP SWAP1 JUMP JUMPDEST DUP2 MSTORE PUSH1 0x20 ADD PUSH1 0x0 DUP2 MSTORE POP SWAP1 JUMP JUMPDEST PUSH4 0x4E487B71 PUSH1 0xE0 SHL PUSH1 0x0 MSTORE PUSH1 0x41 PUSH1 0x4 MSTORE PUSH1 0x24 PUSH1 0x0 REVERT JUMPDEST PUSH1 0x40 MLOAD PUSH1 0x1F DUP3 ADD PUSH1 0x1F NOT AND DUP2 ADD PUSH1 0x1 PUSH1 0x1 PUSH1 0x40 SHL SUB DUP2 GT DUP3 DUP3 LT OR ISZERO PUSH2 0x52E5 JUMPI PUSH2 0x52E5 PUSH2 0x52A7 JUMP JUMPDEST PUSH1 0x40 MSTORE SWAP2 SWAP1 POP JUMP JUMPDEST PUSH1 0x0 DUP3 PUSH1 0x1F DUP4 ADD SLT PUSH2 0x52FE JUMPI PUSH1 0x0 DUP1 REVERT JUMPDEST DUP2 CALLDATALOAD PUSH1 0x1 PUSH1 0x1 PUSH1 0x40 SHL SUB DUP2 GT ISZERO PUSH2 0x5317 JUMPI PUSH2 0x5317 PUSH2 0x52A7 JUMP JUMPDEST PUSH2 0x532A PUSH1 0x1F DUP3 ADD PUSH1 0x1F NOT AND PUSH1 0x20 ADD PUSH2 0x52BD JUMP JUMPDEST DUP2 DUP2 MSTORE DUP5 PUSH1 0x20 DUP4 DUP7 ADD ADD GT ISZERO PUSH2 0x533F JUMPI PUSH1 0x0 DUP1 REVERT JUMPDEST DUP2 PUSH1 0x20 DUP6 ADD PUSH1 0x20 DUP4 ADD CALLDATACOPY PUSH1 0x0 SWAP2 DUP2 ADD PUSH1 0x20 ADD SWAP2 SWAP1 SWAP2 MSTORE SWAP4 SWAP3 POP POP POP JUMP JUMPDEST PUSH1 0x0 DUP1 PUSH1 0x0 PUSH1 0x60 DUP5 DUP7 SUB SLT ISZERO PUSH2 0x5371 JUMPI PUSH1 0x0 DUP1 REVERT JUMPDEST DUP4 CALLDATALOAD SWAP3 POP PUSH1 0x20 DUP5 ADD CALLDATALOAD PUSH1 0x1 PUSH1 0x1 PUSH1 0x40 SHL SUB DUP1 DUP3 GT ISZERO PUSH2 0x538F JUMPI PUSH1 0x0 DUP1 REVERT JUMPDEST PUSH2 0x539B DUP8 DUP4 DUP9 ADD PUSH2 0x52ED JUMP JUMPDEST SWAP4 POP PUSH1 0x40 DUP7 ADD CALLDATALOAD SWAP2 POP DUP1 DUP3 GT ISZERO PUSH2 0x53B1 JUMPI PUSH1 0x0 DUP1 REVERT JUMPDEST POP PUSH2 0x53BE DUP7 DUP3 DUP8 ADD PUSH2 0x52ED JUMP JUMPDEST SWAP2 POP POP SWAP3 POP SWAP3 POP SWAP3 JUMP JUMPDEST DUP1 CALLDATALOAD PUSH1 0x1 PUSH1 0x1 PUSH1 0xA0 SHL SUB DUP2 AND DUP2 EQ PUSH2 0x53DF JUMPI PUSH1 0x0 DUP1 REVERT JUMPDEST SWAP2 SWAP1 POP JUMP JUMPDEST PUSH1 0x0 PUSH1 0x20 DUP3 DUP5 SUB SLT ISZERO PUSH2 0x53F6 JUMPI PUSH1 0x0 DUP1 REVERT JUMPDEST PUSH2 0x121A DUP3 PUSH2 0x53C8 JUMP JUMPDEST DUP1 MLOAD DUP3 MSTORE PUSH1 0x20 DUP1 DUP3 ADD MLOAD SWAP1 DUP4 ADD MSTORE PUSH1 0x40 DUP1 DUP3 ADD MLOAD PUSH1 0x1 PUSH1 0x1 PUSH1 0xA0 SHL SUB AND SWAP1 DUP4 ADD MSTORE PUSH1 0x60 DUP1 DUP3 ADD MLOAD SWAP1 DUP4 ADD MSTORE PUSH1 0x80 DUP1 DUP3 ADD MLOAD ISZERO ISZERO SWAP1 DUP4 ADD MSTORE PUSH1 0xA0 DUP1 DUP3 ADD MLOAD SWAP1 DUP4 ADD MSTORE PUSH1 0xC0 SWAP1 DUP2 ADD MLOAD SWAP2 ADD MSTORE JUMP JUMPDEST PUSH1 0x20 DUP1 DUP3 MSTORE DUP3 MLOAD DUP3 DUP3 ADD DUP2 SWAP1 MSTORE PUSH1 0x0 SWAP2 SWAP1 DUP5 DUP3 ADD SWAP1 PUSH1 0x40 DUP6 ADD SWAP1 DUP5 JUMPDEST DUP2 DUP2 LT ISZERO PUSH2 0x548D JUMPI PUSH2 0x547A DUP4 DUP6 MLOAD PUSH2 0x53FF JUMP JUMPDEST SWAP3 DUP5 ADD SWAP3 PUSH1 0xE0 SWAP3 SWAP1 SWAP3 ADD SWAP2 PUSH1 0x1 ADD PUSH2 0x5467 JUMP JUMPDEST POP SWAP1 SWAP7 SWAP6 POP POP POP POP POP POP JUMP JUMPDEST PUSH1 0x0 PUSH1 0x20 DUP3 DUP5 SUB SLT ISZERO PUSH2 0x54AB JUMPI PUSH1 0x0 DUP1 REVERT JUMPDEST POP CALLDATALOAD SWAP2 SWAP1 POP JUMP JUMPDEST PUSH1 0xE0 DUP2 ADD PUSH2 0x1EA6 DUP3 DUP5 PUSH2 0x53FF JUMP JUMPDEST PUSH1 0x0 DUP1 PUSH1 0x0 PUSH1 0x40 DUP5 DUP7 SUB SLT ISZERO PUSH2 0x54D5 JUMPI PUSH1 0x0 DUP1 REVERT JUMPDEST DUP4 CALLDATALOAD SWAP3 POP PUSH1 0x20 DUP5 ADD CALLDATALOAD PUSH1 0x1 PUSH1 0x1 PUSH1 0x40 SHL SUB DUP1 DUP3 GT ISZERO PUSH2 0x54F3 JUMPI PUSH1 0x0 DUP1 REVERT JUMPDEST DUP2 DUP7 ADD SWAP2 POP DUP7 PUSH1 0x1F DUP4 ADD SLT PUSH2 0x5507 JUMPI PUSH1 0x0 DUP1 REVERT JUMPDEST DUP2 CALLDATALOAD DUP2 DUP2 GT ISZERO PUSH2 0x5516 JUMPI PUSH1 0x0 DUP1 REVERT JUMPDEST DUP8 PUSH1 0x20 DUP3 PUSH1 0x5 SHL DUP6 ADD ADD GT ISZERO PUSH2 0x552B JUMPI PUSH1 0x0 DUP1 REVERT JUMPDEST PUSH1 0x20 DUP4 ADD SWAP5 POP DUP1 SWAP4 POP POP POP POP SWAP3 POP SWAP3 POP SWAP3 JUMP JUMPDEST PUSH1 0x0 DUP2 MLOAD DUP1 DUP5 MSTORE PUSH1 0x0 JUMPDEST DUP2 DUP2 LT ISZERO PUSH2 0x5564 JUMPI PUSH1 0x20 DUP2 DUP6 ADD DUP2 ADD MLOAD DUP7 DUP4 ADD DUP3 ADD MSTORE ADD PUSH2 0x5548 JUMP JUMPDEST POP PUSH1 0x0 PUSH1 0x20 DUP3 DUP7 ADD ADD MSTORE PUSH1 0x20 PUSH1 0x1F NOT PUSH1 0x1F DUP4 ADD AND DUP6 ADD ADD SWAP2 POP POP SWAP3 SWAP2 POP POP JUMP JUMPDEST PUSH1 0x0 PUSH2 0x220 DUP3 MLOAD DUP5 MSTORE PUSH1 0x20 DUP4 ADD MLOAD PUSH2 0x55A7 PUSH1 0x20 DUP7 ADD DUP3 PUSH1 0x1 PUSH1 0x1 PUSH1 0xA0 SHL SUB AND SWAP1 MSTORE JUMP JUMPDEST POP PUSH1 0x40 DUP4 ADD MLOAD DUP2 PUSH1 0x40 DUP7 ADD MSTORE PUSH2 0x55BF DUP3 DUP7 ADD DUP3 PUSH2 0x553E JUMP JUMPDEST SWAP2 POP POP PUSH1 0x60 DUP4 ADD MLOAD DUP5 DUP3 SUB PUSH1 0x60 DUP7 ADD MSTORE PUSH2 0x55D9 DUP3 DUP3 PUSH2 0x553E JUMP JUMPDEST SWAP2 POP POP PUSH1 0x80 DUP4 ADD MLOAD DUP5 DUP3 SUB PUSH1 0x80 DUP7 ADD MSTORE PUSH2 0x55F3 DUP3 DUP3 PUSH2 0x553E JUMP JUMPDEST SWAP2 POP POP PUSH1 0xA0 DUP4 ADD MLOAD PUSH1 0xA0 DUP6 ADD MSTORE PUSH1 0xC0 DUP4 ADD MLOAD PUSH1 0xC0 DUP6 ADD MSTORE PUSH1 0xE0 DUP4 ADD MLOAD PUSH1 0xE0 DUP6 ADD MSTORE PUSH2 0x100 DUP1 DUP5 ADD MLOAD DUP2 DUP7 ADD MSTORE POP PUSH2 0x120 DUP1 DUP5 ADD MLOAD PUSH2 0x5634 DUP3 DUP8 ADD DUP3 ISZERO ISZERO SWAP1 MSTORE JUMP JUMPDEST POP POP PUSH2 0x140 DUP4 DUP2 ADD MLOAD ISZERO ISZERO SWAP1 DUP6 ADD MSTORE PUSH2 0x160 DUP1 DUP5 ADD MLOAD ISZERO ISZERO SWAP1 DUP6 ADD MSTORE PUSH2 0x180 DUP1 DUP5 ADD MLOAD SWAP1 DUP6 ADD MSTORE PUSH2 0x1A0 DUP1 DUP5 ADD MLOAD ISZERO ISZERO SWAP1 DUP6 ADD MSTORE PUSH2 0x1C0 DUP1 DUP5 ADD MLOAD ISZERO ISZERO SWAP1 DUP6 ADD MSTORE PUSH2 0x1E0 DUP1 DUP5 ADD MLOAD SWAP1 DUP6 ADD MSTORE PUSH2 0x200 SWAP3 DUP4 ADD MLOAD SWAP3 SWAP1 SWAP4 ADD SWAP2 SWAP1 SWAP2 MSTORE POP SWAP1 JUMP JUMPDEST PUSH1 0x20 DUP2 MSTORE PUSH1 0x0 PUSH2 0x121A PUSH1 0x20 DUP4 ADD DUP5 PUSH2 0x5584 JUMP JUMPDEST PUSH1 0x0 PUSH1 0x20 DUP1 DUP4 ADD DUP2 DUP5 MSTORE DUP1 DUP6 MLOAD DUP1 DUP4 MSTORE PUSH1 0x40 DUP7 ADD SWAP2 POP PUSH1 0x40 DUP2 PUSH1 0x5 SHL DUP8 ADD ADD SWAP3 POP DUP4 DUP8 ADD PUSH1 0x0 JUMPDEST DUP3 DUP2 LT ISZERO PUSH2 0x56FB JUMPI PUSH1 0x3F NOT DUP9 DUP7 SUB ADD DUP5 MSTORE PUSH2 0x56E9 DUP6 DUP4 MLOAD PUSH2 0x5584 JUMP JUMPDEST SWAP5 POP SWAP3 DUP6 ADD SWAP3 SWAP1 DUP6 ADD SWAP1 PUSH1 0x1 ADD PUSH2 0x56CD JUMP JUMPDEST POP SWAP3 SWAP8 SWAP7 POP POP POP POP POP POP POP JUMP JUMPDEST PUSH1 0xFF DUP2 AND DUP2 EQ PUSH2 0x3D78 JUMPI PUSH1 0x0 DUP1 REVERT JUMPDEST DUP1 CALLDATALOAD PUSH2 0x53DF DUP2 PUSH2 0x5708 JUMP JUMPDEST DUP1 CALLDATALOAD PUSH1 0x1 PUSH1 0x1 PUSH1 0x40 SHL SUB DUP2 AND DUP2 EQ PUSH2 0x53DF JUMPI PUSH1 0x0 DUP1 REVERT JUMPDEST PUSH1 0x0 DUP3 PUSH1 0x1F DUP4 ADD SLT PUSH2 0x574A JUMPI PUSH1 0x0 DUP1 REVERT JUMPDEST DUP2 CALLDATALOAD PUSH1 0x20 PUSH1 0x1 PUSH1 0x1 PUSH1 0x40 SHL SUB DUP1 DUP4 GT ISZERO PUSH2 0x5766 JUMPI PUSH2 0x5766 PUSH2 0x52A7 JUMP JUMPDEST DUP3 PUSH1 0x5 SHL PUSH2 0x5775 DUP4 DUP3 ADD PUSH2 0x52BD JUMP JUMPDEST SWAP4 DUP5 MSTORE DUP6 DUP2 ADD DUP4 ADD SWAP4 DUP4 DUP2 ADD SWAP1 DUP9 DUP7 GT ISZERO PUSH2 0x578F JUMPI PUSH1 0x0 DUP1 REVERT JUMPDEST DUP5 DUP9 ADD SWAP3 POP JUMPDEST DUP6 DUP4 LT ISZERO PUSH2 0x57CB JUMPI DUP3 CALLDATALOAD DUP5 DUP2 GT ISZERO PUSH2 0x57AD JUMPI PUSH1 0x0 DUP1 DUP2 REVERT JUMPDEST PUSH2 0x57BB DUP11 DUP8 DUP4 DUP13 ADD ADD PUSH2 0x52ED JUMP JUMPDEST DUP4 MSTORE POP SWAP2 DUP5 ADD SWAP2 SWAP1 DUP5 ADD SWAP1 PUSH2 0x5795 JUMP JUMPDEST SWAP9 SWAP8 POP POP POP POP POP POP POP POP JUMP JUMPDEST DUP1 CALLDATALOAD PUSH4 0xFFFFFFFF DUP2 AND DUP2 EQ PUSH2 0x53DF JUMPI PUSH1 0x0 DUP1 REVERT JUMPDEST PUSH1 0x0 DUP1 PUSH1 0x0 DUP1 PUSH1 0x0 DUP1 PUSH1 0x0 DUP1 PUSH1 0x0 PUSH2 0x120 DUP11 DUP13 SUB SLT ISZERO PUSH2 0x580A JUMPI PUSH1 0x0 DUP1 REVERT JUMPDEST DUP10 CALLDATALOAD PUSH1 0x1 PUSH1 0x1 PUSH1 0x40 SHL SUB DUP1 DUP3 GT ISZERO PUSH2 0x5821 JUMPI PUSH1 0x0 DUP1 REVERT JUMPDEST PUSH2 0x582D DUP14 DUP4 DUP15 ADD PUSH2 0x52ED JUMP JUMPDEST SWAP11 POP PUSH1 0x20 DUP13 ADD CALLDATALOAD SWAP2 POP DUP1 DUP3 GT ISZERO PUSH2 0x5843 JUMPI PUSH1 0x0 DUP1 REVERT JUMPDEST PUSH2 0x584F DUP14 DUP4 DUP15 ADD PUSH2 0x52ED JUMP JUMPDEST SWAP10 POP PUSH2 0x585D PUSH1 0x40 DUP14 ADD PUSH2 0x5717 JUMP JUMPDEST SWAP9 POP PUSH2 0x586B PUSH1 0x60 DUP14 ADD PUSH2 0x5722 JUMP JUMPDEST SWAP8 POP PUSH1 0x80 DUP13 ADD CALLDATALOAD SWAP2 POP DUP1 DUP3 GT ISZERO PUSH2 0x5881 JUMPI PUSH1 0x0 DUP1 REVERT JUMPDEST PUSH2 0x588D DUP14 DUP4 DUP15 ADD PUSH2 0x5739 JUMP JUMPDEST SWAP7 POP PUSH1 0xA0 DUP13 ADD CALLDATALOAD SWAP2 POP DUP1 DUP3 GT ISZERO PUSH2 0x58A3 JUMPI PUSH1 0x0 DUP1 REVERT JUMPDEST POP PUSH2 0x58B0 DUP13 DUP3 DUP14 ADD PUSH2 0x5739 JUMP JUMPDEST SWAP5 POP POP PUSH2 0x58BF PUSH1 0xC0 DUP12 ADD PUSH2 0x5722 JUMP JUMPDEST SWAP3 POP PUSH2 0x58CD PUSH1 0xE0 DUP12 ADD PUSH2 0x57D7 JUMP JUMPDEST SWAP2 POP PUSH2 0x100 DUP11 ADD CALLDATALOAD SWAP1 POP SWAP3 SWAP6 SWAP9 POP SWAP3 SWAP6 SWAP9 POP SWAP3 SWAP6 SWAP9 JUMP JUMPDEST PUSH1 0x0 PUSH2 0x100 DUP3 MLOAD DUP5 MSTORE PUSH1 0x1 DUP1 PUSH1 0xA0 SHL SUB PUSH1 0x20 DUP5 ADD MLOAD AND PUSH1 0x20 DUP6 ADD MSTORE PUSH1 0x40 DUP4 ADD MLOAD DUP2 PUSH1 0x40 DUP7 ADD MSTORE PUSH2 0x5916 DUP3 DUP7 ADD DUP3 PUSH2 0x553E JUMP JUMPDEST SWAP2 POP POP PUSH1 0x60 DUP4 ADD MLOAD DUP5 DUP3 SUB PUSH1 0x60 DUP7 ADD MSTORE PUSH2 0x5930 DUP3 DUP3 PUSH2 0x553E JUMP JUMPDEST SWAP2 POP POP PUSH1 0x80 DUP4 ADD MLOAD ISZERO ISZERO PUSH1 0x80 DUP6 ADD MSTORE PUSH1 0xA0 DUP4 ADD MLOAD PUSH2 0x5952 PUSH1 0xA0 DUP7 ADD DUP3 ISZERO ISZERO SWAP1 MSTORE JUMP JUMPDEST POP PUSH1 0xC0 DUP4 ADD MLOAD PUSH2 0x5966 PUSH1 0xC0 DUP7 ADD DUP3 ISZERO ISZERO SWAP1 MSTORE JUMP JUMPDEST POP PUSH1 0xE0 DUP4 ADD MLOAD PUSH1 0xE0 DUP6 ADD MSTORE DUP1 SWAP2 POP POP SWAP3 SWAP2 POP POP JUMP JUMPDEST PUSH1 0x20 DUP2 MSTORE PUSH1 0x0 PUSH2 0x121A PUSH1 0x20 DUP4 ADD DUP5 PUSH2 0x58E4 JUMP JUMPDEST PUSH1 0x0 DUP1 PUSH1 0x40 DUP4 DUP6 SUB SLT ISZERO PUSH2 0x59A1 JUMPI PUSH1 0x0 DUP1 REVERT JUMPDEST DUP3 CALLDATALOAD PUSH1 0x1 PUSH1 0x1 PUSH1 0x40 SHL SUB DUP1 DUP3 GT ISZERO PUSH2 0x59B8 JUMPI PUSH1 0x0 DUP1 REVERT JUMPDEST PUSH2 0x59C4 DUP7 DUP4 DUP8 ADD PUSH2 0x52ED JUMP JUMPDEST SWAP4 POP PUSH1 0x20 DUP6 ADD CALLDATALOAD SWAP2 POP DUP1 DUP3 GT ISZERO PUSH2 0x59DA JUMPI PUSH1 0x0 DUP1 REVERT JUMPDEST POP PUSH2 0x59E7 DUP6 DUP3 DUP7 ADD PUSH2 0x52ED JUMP JUMPDEST SWAP2 POP POP SWAP3 POP SWAP3 SWAP1 POP JUMP JUMPDEST DUP1 ISZERO ISZERO DUP2 EQ PUSH2 0x3D78 JUMPI PUSH1 0x0 DUP1 REVERT JUMPDEST PUSH1 0x0 DUP1 PUSH1 0x0 DUP1 PUSH1 0x0 DUP1 PUSH1 0xC0 DUP8 DUP10 SUB SLT ISZERO PUSH2 0x5A18 JUMPI PUSH1 0x0 DUP1 REVERT JUMPDEST DUP7 CALLDATALOAD PUSH1 0x1 PUSH1 0x1 PUSH1 0x40 SHL SUB DUP1 DUP3 GT ISZERO PUSH2 0x5A2F JUMPI PUSH1 0x0 DUP1 REVERT JUMPDEST PUSH2 0x5A3B DUP11 DUP4 DUP12 ADD PUSH2 0x52ED JUMP JUMPDEST SWAP8 POP PUSH1 0x20 DUP10 ADD CALLDATALOAD SWAP2 POP DUP1 DUP3 GT ISZERO PUSH2 0x5A51 JUMPI PUSH1 0x0 DUP1 REVERT JUMPDEST PUSH2 0x5A5D DUP11 DUP4 DUP12 ADD PUSH2 0x52ED JUMP JUMPDEST SWAP7 POP PUSH1 0x40 DUP10 ADD CALLDATALOAD SWAP2 POP DUP1 DUP3 GT ISZERO PUSH2 0x5A73 JUMPI PUSH1 0x0 DUP1 REVERT JUMPDEST POP PUSH2 0x5A80 DUP10 DUP3 DUP11 ADD PUSH2 0x52ED JUMP JUMPDEST SWAP5 POP POP PUSH1 0x60 DUP8 ADD CALLDATALOAD SWAP3 POP PUSH1 0x80 DUP8 ADD CALLDATALOAD SWAP2 POP PUSH1 0xA0 DUP8 ADD CALLDATALOAD PUSH2 0x5A9F DUP2 PUSH2 0x59F1 JUMP JUMPDEST DUP1 SWAP2 POP POP SWAP3 SWAP6 POP SWAP3 SWAP6 POP SWAP3 SWAP6 JUMP JUMPDEST PUSH1 0x0 PUSH1 0x20 DUP1 DUP4 ADD DUP2 DUP5 MSTORE DUP1 DUP6 MLOAD DUP1 DUP4 MSTORE PUSH1 0x40 DUP7 ADD SWAP2 POP PUSH1 0x40 DUP2 PUSH1 0x5 SHL DUP8 ADD ADD SWAP3 POP DUP4 DUP8 ADD PUSH1 0x0 JUMPDEST DUP3 DUP2 LT ISZERO PUSH2 0x56FB JUMPI PUSH1 0x3F NOT DUP9 DUP7 SUB ADD DUP5 MSTORE PUSH2 0x5AF0 DUP6 DUP4 MLOAD PUSH2 0x58E4 JUMP JUMPDEST SWAP5 POP SWAP3 DUP6 ADD SWAP3 SWAP1 DUP6 ADD SWAP1 PUSH1 0x1 ADD PUSH2 0x5AD4 JUMP JUMPDEST PUSH1 0x20 DUP2 MSTORE PUSH1 0x0 PUSH2 0x121A PUSH1 0x20 DUP4 ADD DUP5 PUSH2 0x553E JUMP JUMPDEST PUSH1 0x0 DUP1 PUSH1 0x40 DUP4 DUP6 SUB SLT ISZERO PUSH2 0x5B28 JUMPI PUSH1 0x0 DUP1 REVERT JUMPDEST DUP3 CALLDATALOAD SWAP2 POP PUSH2 0x5B38 PUSH1 0x20 DUP5 ADD PUSH2 0x53C8 JUMP JUMPDEST SWAP1 POP SWAP3 POP SWAP3 SWAP1 POP JUMP JUMPDEST PUSH4 0x4E487B71 PUSH1 0xE0 SHL PUSH1 0x0 MSTORE PUSH1 0x32 PUSH1 0x4 MSTORE PUSH1 0x24 PUSH1 0x0 REVERT JUMPDEST PUSH4 0x4E487B71 PUSH1 0xE0 SHL PUSH1 0x0 MSTORE PUSH1 0x11 PUSH1 0x4 MSTORE PUSH1 0x24 PUSH1 0x0 REVERT JUMPDEST PUSH1 0x0 PUSH1 0x1 DUP3 ADD PUSH2 0x5B7F JUMPI PUSH2 0x5B7F PUSH2 0x5B57 JUMP JUMPDEST POP PUSH1 0x1 ADD SWAP1 JUMP JUMPDEST PUSH1 0x1 DUP2 DUP2 SHR SWAP1 DUP3 AND DUP1 PUSH2 0x5B9A JUMPI PUSH1 0x7F DUP3 AND SWAP2 POP JUMPDEST PUSH1 0x20 DUP3 LT DUP2 SUB PUSH2 0x3BF1 JUMPI PUSH4 0x4E487B71 PUSH1 0xE0 SHL PUSH1 0x0 MSTORE PUSH1 0x22 PUSH1 0x4 MSTORE PUSH1 0x24 PUSH1 0x0 REVERT JUMPDEST DUP1 DUP3 ADD DUP1 DUP3 GT ISZERO PUSH2 0x1EA6 JUMPI PUSH2 0x1EA6 PUSH2 0x5B57 JUMP JUMPDEST PUSH1 0x20 DUP2 MSTORE DUP2 MLOAD PUSH1 0x20 DUP3 ADD MSTORE PUSH1 0x20 DUP3 ADD MLOAD PUSH1 0x40 DUP3 ADD MSTORE PUSH2 0xFFFF PUSH1 0x40 DUP4 ADD MLOAD AND PUSH1 0x60 DUP3 ADD MSTORE PUSH1 0x0 PUSH1 0x60 DUP4 ADD MLOAD PUSH4 0xFFFFFFFF DUP1 DUP3 AND PUSH1 0x80 DUP6 ADD MSTORE DUP1 PUSH1 0x80 DUP7 ADD MLOAD AND PUSH1 0xA0 DUP6 ADD MSTORE POP POP PUSH1 0xA0 DUP4 ADD MLOAD PUSH1 0xC0 DUP1 DUP5 ADD MSTORE PUSH2 0x5C2A PUSH1 0xE0 DUP5 ADD DUP3 PUSH2 0x553E JUMP JUMPDEST SWAP5 SWAP4 POP POP POP POP JUMP JUMPDEST PUSH1 0x0 PUSH1 0x20 DUP3 DUP5 SUB SLT ISZERO PUSH2 0x5C44 JUMPI PUSH1 0x0 DUP1 REVERT JUMPDEST POP MLOAD SWAP2 SWAP1 POP JUMP JUMPDEST PUSH1 0x1F DUP3 GT ISZERO PUSH2 0x838 JUMPI PUSH1 0x0 DUP2 DUP2 MSTORE PUSH1 0x20 DUP2 KECCAK256 PUSH1 0x1F DUP6 ADD PUSH1 0x5 SHR DUP2 ADD PUSH1 0x20 DUP7 LT ISZERO PUSH2 0x5C72 JUMPI POP DUP1 JUMPDEST PUSH1 0x1F DUP6 ADD PUSH1 0x5 SHR DUP3 ADD SWAP2 POP JUMPDEST DUP2 DUP2 LT ISZERO PUSH2 0x40C1 JUMPI DUP3 DUP2 SSTORE PUSH1 0x1 ADD PUSH2 0x5C7E JUMP JUMPDEST DUP2 MLOAD PUSH1 0x1 PUSH1 0x1 PUSH1 0x40 SHL SUB DUP2 GT ISZERO PUSH2 0x5CAA JUMPI PUSH2 0x5CAA PUSH2 0x52A7 JUMP JUMPDEST PUSH2 0x5CBE DUP2 PUSH2 0x5CB8 DUP5 SLOAD PUSH2 0x5B86 JUMP JUMPDEST DUP5 PUSH2 0x5C4B JUMP JUMPDEST PUSH1 0x20 DUP1 PUSH1 0x1F DUP4 GT PUSH1 0x1 DUP2 EQ PUSH2 0x5CF3 JUMPI PUSH1 0x0 DUP5 ISZERO PUSH2 0x5CDB JUMPI POP DUP6 DUP4 ADD MLOAD JUMPDEST PUSH1 0x0 NOT PUSH1 0x3 DUP7 SWAP1 SHL SHR NOT AND PUSH1 0x1 DUP6 SWAP1 SHL OR DUP6 SSTORE PUSH2 0x40C1 JUMP JUMPDEST PUSH1 0x0 DUP6 DUP2 MSTORE PUSH1 0x20 DUP2 KECCAK256 PUSH1 0x1F NOT DUP7 AND SWAP2 JUMPDEST DUP3 DUP2 LT ISZERO PUSH2 0x5D22 JUMPI DUP9 DUP7 ADD MLOAD DUP3 SSTORE SWAP5 DUP5 ADD SWAP5 PUSH1 0x1 SWAP1 SWAP2 ADD SWAP1 DUP5 ADD PUSH2 0x5D03 JUMP JUMPDEST POP DUP6 DUP3 LT ISZERO PUSH2 0x5D40 JUMPI DUP8 DUP6 ADD MLOAD PUSH1 0x0 NOT PUSH1 0x3 DUP9 SWAP1 SHL PUSH1 0xF8 AND SHR NOT AND DUP2 SSTORE JUMPDEST POP POP POP POP POP PUSH1 0x1 SWAP1 DUP2 SHL ADD SWAP1 SSTORE POP JUMP JUMPDEST DUP1 DUP3 MUL DUP2 ISZERO DUP3 DUP3 DIV DUP5 EQ OR PUSH2 0x1EA6 JUMPI PUSH2 0x1EA6 PUSH2 0x5B57 JUMP JUMPDEST PUSH4 0x4E487B71 PUSH1 0xE0 SHL PUSH1 0x0 MSTORE PUSH1 0x12 PUSH1 0x4 MSTORE PUSH1 0x24 PUSH1 0x0 REVERT JUMPDEST PUSH1 0x0 DUP3 PUSH2 0x5D8C JUMPI PUSH2 0x5D8C PUSH2 0x5D67 JUMP JUMPDEST POP DIV SWAP1 JUMP JUMPDEST PUSH1 0x0 PUSH1 0x20 DUP3 DUP5 SUB SLT ISZERO PUSH2 0x5DA3 JUMPI PUSH1 0x0 DUP1 REVERT JUMPDEST DUP2 MLOAD PUSH2 0x121A DUP2 PUSH2 0x59F1 JUMP JUMPDEST PUSH1 0x0 PUSH1 0x20 DUP3 DUP5 SUB SLT ISZERO PUSH2 0x5DC0 JUMPI PUSH1 0x0 DUP1 REVERT JUMPDEST DUP2 MLOAD PUSH2 0x121A DUP2 PUSH2 0x5708 JUMP JUMPDEST PUSH1 0x1 DUP2 DUP2 JUMPDEST DUP1 DUP6 GT ISZERO PUSH2 0x5E06 JUMPI DUP2 PUSH1 0x0 NOT DIV DUP3 GT ISZERO PUSH2 0x5DEC JUMPI PUSH2 0x5DEC PUSH2 0x5B57 JUMP JUMPDEST DUP1 DUP6 AND ISZERO PUSH2 0x5DF9 JUMPI SWAP2 DUP2 MUL SWAP2 JUMPDEST SWAP4 DUP5 SHR SWAP4 SWAP1 DUP1 MUL SWAP1 PUSH2 0x5DD0 JUMP JUMPDEST POP SWAP3 POP SWAP3 SWAP1 POP JUMP JUMPDEST PUSH1 0x0 DUP3 PUSH2 0x5E1D JUMPI POP PUSH1 0x1 PUSH2 0x1EA6 JUMP JUMPDEST DUP2 PUSH2 0x5E2A JUMPI POP PUSH1 0x0 PUSH2 0x1EA6 JUMP JUMPDEST DUP2 PUSH1 0x1 DUP2 EQ PUSH2 0x5E40 JUMPI PUSH1 0x2 DUP2 EQ PUSH2 0x5E4A JUMPI PUSH2 0x5E66 JUMP JUMPDEST PUSH1 0x1 SWAP2 POP POP PUSH2 0x1EA6 JUMP JUMPDEST PUSH1 0xFF DUP5 GT ISZERO PUSH2 0x5E5B JUMPI PUSH2 0x5E5B PUSH2 0x5B57 JUMP JUMPDEST POP POP PUSH1 0x1 DUP3 SHL PUSH2 0x1EA6 JUMP JUMPDEST POP PUSH1 0x20 DUP4 LT PUSH2 0x133 DUP4 LT AND PUSH1 0x4E DUP5 LT PUSH1 0xB DUP5 LT AND OR ISZERO PUSH2 0x5E89 JUMPI POP DUP2 DUP2 EXP PUSH2 0x1EA6 JUMP JUMPDEST PUSH2 0x5E93 DUP4 DUP4 PUSH2 0x5DCB JUMP JUMPDEST DUP1 PUSH1 0x0 NOT DIV DUP3 GT ISZERO PUSH2 0x5EA7 JUMPI PUSH2 0x5EA7 PUSH2 0x5B57 JUMP JUMPDEST MUL SWAP4 SWAP3 POP POP POP JUMP JUMPDEST PUSH1 0x0 PUSH2 0x121A PUSH1 0xFF DUP5 AND DUP4 PUSH2 0x5E0E JUMP JUMPDEST PUSH4 0x4E487B71 PUSH1 0xE0 SHL PUSH1 0x0 MSTORE PUSH1 0x21 PUSH1 0x4 MSTORE PUSH1 0x24 PUSH1 0x0 REVERT JUMPDEST PUSH1 0x1 PUSH1 0x1 PUSH1 0x40 SHL SUB DUP7 AND DUP2 MSTORE PUSH1 0xA0 PUSH1 0x20 DUP3 ADD MSTORE PUSH1 0x0 PUSH2 0x5EF6 PUSH1 0xA0 DUP4 ADD DUP8 PUSH2 0x553E JUMP JUMPDEST PUSH2 0xFFFF SWAP6 SWAP1 SWAP6 AND PUSH1 0x40 DUP4 ADD MSTORE POP PUSH4 0xFFFFFFFF SWAP3 SWAP1 SWAP3 AND PUSH1 0x60 DUP4 ADD MSTORE PUSH1 0x80 SWAP1 SWAP2 ADD MSTORE SWAP3 SWAP2 POP POP JUMP JUMPDEST DUP2 DUP2 SUB DUP2 DUP2 GT ISZERO PUSH2 0x1EA6 JUMPI PUSH2 0x1EA6 PUSH2 0x5B57 JUMP JUMPDEST PUSH1 0x0 DUP3 PUSH2 0x5F3F JUMPI PUSH2 0x5F3F PUSH2 0x5D67 JUMP JUMPDEST POP MOD SWAP1 JUMP JUMPDEST PUSH1 0x0 PUSH2 0x121A DUP4 DUP4 PUSH2 0x5E0E JUMP INVALID LOG2 PUSH5 0x6970667358 0x22 SLT KECCAK256 SWAP8 0xA5 0xA6 CODESIZE LT 0x5D SWAP3 PUSH10 0x22CEF67B6E156B99A095 DUP13 0x21 PUSH19 0x4A01F1C7A716BE1F967FD264736F6C63430008 SGT STOP CALLER "
		},
		"gasEstimates": {
			"creation": {
				"codeDepositCost": "4890800",
				"executionCost": "infinite",
				"totalCost": "infinite"
			},
			"external": {
				"acceptOwnership()": "52345",
				"checkIfEventIsAlreadyPaidOut(uint256)": "infinite",
				"checkIfTicketOfUserForThisEventExists(uint256)": "infinite",
				"checkIfUserAlreadyHasTicket(uint256,address)": "infinite",
				"createEvent(string,string,string,uint256,uint256,bool)": "infinite",
				"createTicketForUser(uint256)": "infinite",
				"createUser(string,string)": "infinite",
				"getAllEventsCreatedByUser(address)": "infinite",
				"getAllPublishedEvents()": "infinite",
				"getAllTicketsOfEvent(uint256)": "infinite",
				"getAllTicketsOfUser(address)": "infinite",
				"getEventAttendees(uint256)": "infinite",
				"getEventById(uint256)": "infinite",
				"getEventByVerificationRequestId(uint256)": "infinite",
				"getNumberOfAllPublishedEvents()": "infinite",
				"getNumberOfTicketsOfEvent(uint256)": "infinite",
				"getNumberOfTicketsOfUser(address)": "infinite",
				"getTicketByVerificationRequestId(uint256)": "infinite",
				"getTotalAmountPaidToEventInEthers(uint256)": "infinite",
				"getTotalNumberOfAllEventsCreatedByUser(address)": "infinite",
				"getTotalNumberOfTicketsOfEvent(uint256)": "infinite",
				"getUserById(uint256)": "infinite",
				"getUserByWalletAddress(address)": "infinite",
				"handleOracleFulfillment(bytes32,bytes,bytes)": "infinite",
				"lastFunctionsError()": "infinite",
				"makeCreatingUser()": "infinite",
				"owner()": "2432",
				"processPayout(uint256)": "infinite",
				"publishEvent(uint256)": "infinite",
				"rawFulfillRandomWords(uint256,uint256[])": "infinite",
				"s_vrfCoordinator()": "2448",
				"sendRequest(string,bytes,uint8,uint64,string[],bytes[],uint64,uint32,bytes32)": "infinite",
				"setCoordinator(address)": "30001",
				"stekcitBMOwnerAddress()": "2404",
				"transferOwnership(address)": "30546",
				"verifyEventAndSetVerificationRequestId(uint256)": "infinite",
				"verifyTicketAndSetVerificationRequestId(uint256)": "infinite"
			},
			"internal": {
				"fulfillRandomWords(uint256,uint256[] calldata)": "infinite",
				"fulfillRequest(bytes32,bytes memory,bytes memory)": "infinite",
				"setVerificationIdForEvent(uint256,uint256)": "infinite",
				"setVerificationIdForTicket(uint256,uint256)": "infinite",
				"setVerificationRequestIdForEvent(uint256,uint256)": "infinite",
				"setVerificationRequestIdForTicket(uint256,uint256)": "infinite"
			}
		},
		"methodIdentifiers": {
			"acceptOwnership()": "79ba5097",
			"checkIfEventIsAlreadyPaidOut(uint256)": "24c67b03",
			"checkIfTicketOfUserForThisEventExists(uint256)": "63ff89c7",
			"checkIfUserAlreadyHasTicket(uint256,address)": "f5caa96b",
			"createEvent(string,string,string,uint256,uint256,bool)": "abda7405",
			"createTicketForUser(uint256)": "c0f555f0",
			"createUser(string,string)": "87b162b5",
			"getAllEventsCreatedByUser(address)": "3b902afe",
			"getAllPublishedEvents()": "5d3ee0ee",
			"getAllTicketsOfEvent(uint256)": "235b3a3d",
			"getAllTicketsOfUser(address)": "184b0938",
			"getEventAttendees(uint256)": "ad395c14",
			"getEventById(uint256)": "b98079bc",
			"getEventByVerificationRequestId(uint256)": "22b1185e",
			"getNumberOfAllPublishedEvents()": "cee34e7b",
			"getNumberOfTicketsOfEvent(uint256)": "7354a25f",
			"getNumberOfTicketsOfUser(address)": "666ac2fb",
			"getTicketByVerificationRequestId(uint256)": "19867063",
			"getTotalAmountPaidToEventInEthers(uint256)": "4591b666",
			"getTotalNumberOfAllEventsCreatedByUser(address)": "c5b84029",
			"getTotalNumberOfTicketsOfEvent(uint256)": "76f8cbd5",
			"getUserById(uint256)": "6ed6da9e",
			"getUserByWalletAddress(address)": "99bb6b08",
			"handleOracleFulfillment(bytes32,bytes,bytes)": "0ca76175",
			"lastFunctionsError()": "b07c7e6c",
			"makeCreatingUser()": "c081ee70",
			"owner()": "8da5cb5b",
			"processPayout(uint256)": "89ee68bf",
			"publishEvent(uint256)": "cfd9f3da",
			"rawFulfillRandomWords(uint256,uint256[])": "1fe543e3",
			"s_vrfCoordinator()": "9eccacf6",
			"sendRequest(string,bytes,uint8,uint64,string[],bytes[],uint64,uint32,bytes32)": "52a81eeb",
			"setCoordinator(address)": "8ea98117",
			"stekcitBMOwnerAddress()": "9720807c",
			"transferOwnership(address)": "f2fde38b",
			"verifyEventAndSetVerificationRequestId(uint256)": "4dff247f",
			"verifyTicketAndSetVerificationRequestId(uint256)": "767a5867"
		}
	},
	"abi": [
		{
			"inputs": [
				{
					"internalType": "address",
					"name": "_stekcitBMOwnerAddress",
					"type": "address"
				},
				{
					"internalType": "uint256",
					"name": "_vrfV2SubscriptionId",
					"type": "uint256"
				}
			],
			"stateMutability": "nonpayable",
			"type": "constructor"
		},
		{
			"inputs": [],
			"name": "EmptyArgs",
			"type": "error"
		},
		{
			"inputs": [],
			"name": "EmptySecrets",
			"type": "error"
		},
		{
			"inputs": [],
			"name": "EmptySource",
			"type": "error"
		},
		{
			"inputs": [],
			"name": "NoInlineSecrets",
			"type": "error"
		},
		{
			"inputs": [
				{
					"internalType": "address",
					"name": "have",
					"type": "address"
				},
				{
					"internalType": "address",
					"name": "want",
					"type": "address"
				}
			],
			"name": "OnlyCoordinatorCanFulfill",
			"type": "error"
		},
		{
			"inputs": [
				{
					"internalType": "address",
					"name": "have",
					"type": "address"
				},
				{
					"internalType": "address",
					"name": "owner",
					"type": "address"
				},
				{
					"internalType": "address",
					"name": "coordinator",
					"type": "address"
				}
			],
			"name": "OnlyOwnerOrCoordinator",
			"type": "error"
		},
		{
			"inputs": [],
			"name": "OnlyRouterCanFulfill",
			"type": "error"
		},
		{
			"inputs": [],
			"name": "ZeroAddress",
			"type": "error"
		},
		{
			"anonymous": false,
			"inputs": [
				{
					"indexed": false,
					"internalType": "address",
					"name": "vrfCoordinator",
					"type": "address"
				}
			],
			"name": "CoordinatorSet",
			"type": "event"
		},
		{
			"anonymous": false,
			"inputs": [
				{
					"indexed": true,
					"internalType": "address",
					"name": "from",
					"type": "address"
				},
				{
					"indexed": true,
					"internalType": "address",
					"name": "to",
					"type": "address"
				}
			],
			"name": "OwnershipTransferRequested",
			"type": "event"
		},
		{
			"anonymous": false,
			"inputs": [
				{
					"indexed": true,
					"internalType": "address",
					"name": "from",
					"type": "address"
				},
				{
					"indexed": true,
					"internalType": "address",
					"name": "to",
					"type": "address"
				}
			],
			"name": "OwnershipTransferred",
			"type": "event"
		},
		{
			"anonymous": false,
			"inputs": [
				{
					"indexed": true,
					"internalType": "bytes32",
					"name": "id",
					"type": "bytes32"
				}
			],
			"name": "RequestFulfilled",
			"type": "event"
		},
		{
			"anonymous": false,
			"inputs": [
				{
					"indexed": true,
					"internalType": "bytes32",
					"name": "id",
					"type": "bytes32"
				}
			],
			"name": "RequestSent",
			"type": "event"
		},
		{
			"inputs": [],
			"name": "acceptOwnership",
			"outputs": [],
			"stateMutability": "nonpayable",
			"type": "function"
		},
		{
			"inputs": [
				{
					"internalType": "uint256",
					"name": "_eventId",
					"type": "uint256"
				}
			],
			"name": "checkIfEventIsAlreadyPaidOut",
			"outputs": [
				{
					"internalType": "bool",
					"name": "",
					"type": "bool"
				}
			],
			"stateMutability": "view",
			"type": "function"
		},
		{
			"inputs": [
				{
					"internalType": "uint256",
					"name": "_eventId",
					"type": "uint256"
				}
			],
			"name": "checkIfTicketOfUserForThisEventExists",
			"outputs": [
				{
					"internalType": "bool",
					"name": "",
					"type": "bool"
				}
			],
			"stateMutability": "view",
			"type": "function"
		},
		{
			"inputs": [
				{
					"internalType": "uint256",
					"name": "_eventId",
					"type": "uint256"
				},
				{
					"internalType": "address",
					"name": "_walletAddress",
					"type": "address"
				}
			],
			"name": "checkIfUserAlreadyHasTicket",
			"outputs": [
				{
					"internalType": "bool",
					"name": "",
					"type": "bool"
				}
			],
			"stateMutability": "view",
			"type": "function"
		},
		{
			"inputs": [
				{
					"internalType": "string",
					"name": "_title",
					"type": "string"
				},
				{
					"internalType": "string",
					"name": "_description",
					"type": "string"
				},
				{
					"internalType": "string",
					"name": "_link",
					"type": "string"
				},
				{
					"internalType": "uint256",
					"name": "_amount",
					"type": "uint256"
				},
				{
					"internalType": "uint256",
					"name": "_dateAndTime",
					"type": "uint256"
				},
				{
					"internalType": "bool",
					"name": "_forImmediatePublishing",
					"type": "bool"
				}
			],
			"name": "createEvent",
			"outputs": [],
			"stateMutability": "nonpayable",
			"type": "function"
		},
		{
			"inputs": [
				{
					"internalType": "uint256",
					"name": "_eventId",
					"type": "uint256"
				}
			],
			"name": "createTicketForUser",
			"outputs": [],
			"stateMutability": "nonpayable",
			"type": "function"
		},
		{
			"inputs": [
				{
					"internalType": "string",
					"name": "_username",
					"type": "string"
				},
				{
					"internalType": "string",
					"name": "_emailAddress",
					"type": "string"
				}
			],
			"name": "createUser",
			"outputs": [
				{
					"components": [
						{
							"internalType": "uint256",
							"name": "id",
							"type": "uint256"
						},
						{
							"internalType": "address",
							"name": "walletAddress",
							"type": "address"
						},
						{
							"internalType": "string",
							"name": "username",
							"type": "string"
						},
						{
							"internalType": "string",
							"name": "emailAddress",
							"type": "string"
						},
						{
							"internalType": "bool",
							"name": "isCreatingUser",
							"type": "bool"
						},
						{
							"internalType": "bool",
							"name": "isBlank",
							"type": "bool"
						},
						{
							"internalType": "bool",
							"name": "isWelcomeEmailSent",
							"type": "bool"
						},
						{
							"internalType": "bytes32",
							"name": "welcomeEmailVerificationId",
							"type": "bytes32"
						}
					],
					"internalType": "struct StekcitUser",
					"name": "",
					"type": "tuple"
				}
			],
			"stateMutability": "nonpayable",
			"type": "function"
		},
		{
			"inputs": [
				{
					"internalType": "address",
					"name": "_walletAddress",
					"type": "address"
				}
			],
			"name": "getAllEventsCreatedByUser",
			"outputs": [
				{
					"components": [
						{
							"internalType": "uint256",
							"name": "id",
							"type": "uint256"
						},
						{
							"internalType": "address",
							"name": "creatingUserWalletAddress",
							"type": "address"
						},
						{
							"internalType": "string",
							"name": "title",
							"type": "string"
						},
						{
							"internalType": "string",
							"name": "description",
							"type": "string"
						},
						{
							"internalType": "string",
							"name": "link",
							"type": "string"
						},
						{
							"internalType": "uint256",
							"name": "amountInEthers",
							"type": "uint256"
						},
						{
							"internalType": "uint256",
							"name": "createdAt",
							"type": "uint256"
						},
						{
							"internalType": "uint256",
							"name": "updatedAt",
							"type": "uint256"
						},
						{
							"internalType": "uint256",
							"name": "dateAndTime",
							"type": "uint256"
						},
						{
							"internalType": "bool",
							"name": "isBlank",
							"type": "bool"
						},
						{
							"internalType": "bool",
							"name": "isPublished",
							"type": "bool"
						},
						{
							"internalType": "bool",
							"name": "isVerified",
							"type": "bool"
						},
						{
							"internalType": "uint256",
							"name": "verificationAmountInEthers",
							"type": "uint256"
						},
						{
							"internalType": "bool",
							"name": "isEnded",
							"type": "bool"
						},
						{
							"internalType": "bool",
							"name": "isPaidOut",
							"type": "bool"
						},
						{
							"internalType": "uint256",
							"name": "verificationRequestId",
							"type": "uint256"
						},
						{
							"internalType": "uint256",
							"name": "verificationId",
							"type": "uint256"
						}
					],
					"internalType": "struct StekcitEvent[]",
					"name": "",
					"type": "tuple[]"
				}
			],
			"stateMutability": "view",
			"type": "function"
		},
		{
			"inputs": [],
			"name": "getAllPublishedEvents",
			"outputs": [
				{
					"components": [
						{
							"internalType": "uint256",
							"name": "id",
							"type": "uint256"
						},
						{
							"internalType": "address",
							"name": "creatingUserWalletAddress",
							"type": "address"
						},
						{
							"internalType": "string",
							"name": "title",
							"type": "string"
						},
						{
							"internalType": "string",
							"name": "description",
							"type": "string"
						},
						{
							"internalType": "string",
							"name": "link",
							"type": "string"
						},
						{
							"internalType": "uint256",
							"name": "amountInEthers",
							"type": "uint256"
						},
						{
							"internalType": "uint256",
							"name": "createdAt",
							"type": "uint256"
						},
						{
							"internalType": "uint256",
							"name": "updatedAt",
							"type": "uint256"
						},
						{
							"internalType": "uint256",
							"name": "dateAndTime",
							"type": "uint256"
						},
						{
							"internalType": "bool",
							"name": "isBlank",
							"type": "bool"
						},
						{
							"internalType": "bool",
							"name": "isPublished",
							"type": "bool"
						},
						{
							"internalType": "bool",
							"name": "isVerified",
							"type": "bool"
						},
						{
							"internalType": "uint256",
							"name": "verificationAmountInEthers",
							"type": "uint256"
						},
						{
							"internalType": "bool",
							"name": "isEnded",
							"type": "bool"
						},
						{
							"internalType": "bool",
							"name": "isPaidOut",
							"type": "bool"
						},
						{
							"internalType": "uint256",
							"name": "verificationRequestId",
							"type": "uint256"
						},
						{
							"internalType": "uint256",
							"name": "verificationId",
							"type": "uint256"
						}
					],
					"internalType": "struct StekcitEvent[]",
					"name": "",
					"type": "tuple[]"
				}
			],
			"stateMutability": "view",
			"type": "function"
		},
		{
			"inputs": [
				{
					"internalType": "uint256",
					"name": "_eventId",
					"type": "uint256"
				}
			],
			"name": "getAllTicketsOfEvent",
			"outputs": [
				{
					"components": [
						{
							"internalType": "uint256",
							"name": "id",
							"type": "uint256"
						},
						{
							"internalType": "uint256",
							"name": "eventId",
							"type": "uint256"
						},
						{
							"internalType": "address",
							"name": "attendingUserWalletAddress",
							"type": "address"
						},
						{
							"internalType": "uint256",
							"name": "amountPaidInEthers",
							"type": "uint256"
						},
						{
							"internalType": "bool",
							"name": "isBlank",
							"type": "bool"
						},
						{
							"internalType": "uint256",
							"name": "verificationRequestId",
							"type": "uint256"
						},
						{
							"internalType": "uint256",
							"name": "verificationId",
							"type": "uint256"
						}
					],
					"internalType": "struct StekcitTicket[]",
					"name": "",
					"type": "tuple[]"
				}
			],
			"stateMutability": "view",
			"type": "function"
		},
		{
			"inputs": [
				{
					"internalType": "address",
					"name": "_walletAddress",
					"type": "address"
				}
			],
			"name": "getAllTicketsOfUser",
			"outputs": [
				{
					"components": [
						{
							"internalType": "uint256",
							"name": "id",
							"type": "uint256"
						},
						{
							"internalType": "uint256",
							"name": "eventId",
							"type": "uint256"
						},
						{
							"internalType": "address",
							"name": "attendingUserWalletAddress",
							"type": "address"
						},
						{
							"internalType": "uint256",
							"name": "amountPaidInEthers",
							"type": "uint256"
						},
						{
							"internalType": "bool",
							"name": "isBlank",
							"type": "bool"
						},
						{
							"internalType": "uint256",
							"name": "verificationRequestId",
							"type": "uint256"
						},
						{
							"internalType": "uint256",
							"name": "verificationId",
							"type": "uint256"
						}
					],
					"internalType": "struct StekcitTicket[]",
					"name": "",
					"type": "tuple[]"
				}
			],
			"stateMutability": "view",
			"type": "function"
		},
		{
			"inputs": [
				{
					"internalType": "uint256",
					"name": "_eventId",
					"type": "uint256"
				}
			],
			"name": "getEventAttendees",
			"outputs": [
				{
					"components": [
						{
							"internalType": "uint256",
							"name": "id",
							"type": "uint256"
						},
						{
							"internalType": "address",
							"name": "walletAddress",
							"type": "address"
						},
						{
							"internalType": "string",
							"name": "username",
							"type": "string"
						},
						{
							"internalType": "string",
							"name": "emailAddress",
							"type": "string"
						},
						{
							"internalType": "bool",
							"name": "isCreatingUser",
							"type": "bool"
						},
						{
							"internalType": "bool",
							"name": "isBlank",
							"type": "bool"
						},
						{
							"internalType": "bool",
							"name": "isWelcomeEmailSent",
							"type": "bool"
						},
						{
							"internalType": "bytes32",
							"name": "welcomeEmailVerificationId",
							"type": "bytes32"
						}
					],
					"internalType": "struct StekcitUser[]",
					"name": "",
					"type": "tuple[]"
				}
			],
			"stateMutability": "view",
			"type": "function"
		},
		{
			"inputs": [
				{
					"internalType": "uint256",
					"name": "_eventId",
					"type": "uint256"
				}
			],
			"name": "getEventById",
			"outputs": [
				{
					"components": [
						{
							"internalType": "uint256",
							"name": "id",
							"type": "uint256"
						},
						{
							"internalType": "address",
							"name": "creatingUserWalletAddress",
							"type": "address"
						},
						{
							"internalType": "string",
							"name": "title",
							"type": "string"
						},
						{
							"internalType": "string",
							"name": "description",
							"type": "string"
						},
						{
							"internalType": "string",
							"name": "link",
							"type": "string"
						},
						{
							"internalType": "uint256",
							"name": "amountInEthers",
							"type": "uint256"
						},
						{
							"internalType": "uint256",
							"name": "createdAt",
							"type": "uint256"
						},
						{
							"internalType": "uint256",
							"name": "updatedAt",
							"type": "uint256"
						},
						{
							"internalType": "uint256",
							"name": "dateAndTime",
							"type": "uint256"
						},
						{
							"internalType": "bool",
							"name": "isBlank",
							"type": "bool"
						},
						{
							"internalType": "bool",
							"name": "isPublished",
							"type": "bool"
						},
						{
							"internalType": "bool",
							"name": "isVerified",
							"type": "bool"
						},
						{
							"internalType": "uint256",
							"name": "verificationAmountInEthers",
							"type": "uint256"
						},
						{
							"internalType": "bool",
							"name": "isEnded",
							"type": "bool"
						},
						{
							"internalType": "bool",
							"name": "isPaidOut",
							"type": "bool"
						},
						{
							"internalType": "uint256",
							"name": "verificationRequestId",
							"type": "uint256"
						},
						{
							"internalType": "uint256",
							"name": "verificationId",
							"type": "uint256"
						}
					],
					"internalType": "struct StekcitEvent",
					"name": "",
					"type": "tuple"
				}
			],
			"stateMutability": "view",
			"type": "function"
		},
		{
			"inputs": [
				{
					"internalType": "uint256",
					"name": "_verificationRequestId",
					"type": "uint256"
				}
			],
			"name": "getEventByVerificationRequestId",
			"outputs": [
				{
					"components": [
						{
							"internalType": "uint256",
							"name": "id",
							"type": "uint256"
						},
						{
							"internalType": "address",
							"name": "creatingUserWalletAddress",
							"type": "address"
						},
						{
							"internalType": "string",
							"name": "title",
							"type": "string"
						},
						{
							"internalType": "string",
							"name": "description",
							"type": "string"
						},
						{
							"internalType": "string",
							"name": "link",
							"type": "string"
						},
						{
							"internalType": "uint256",
							"name": "amountInEthers",
							"type": "uint256"
						},
						{
							"internalType": "uint256",
							"name": "createdAt",
							"type": "uint256"
						},
						{
							"internalType": "uint256",
							"name": "updatedAt",
							"type": "uint256"
						},
						{
							"internalType": "uint256",
							"name": "dateAndTime",
							"type": "uint256"
						},
						{
							"internalType": "bool",
							"name": "isBlank",
							"type": "bool"
						},
						{
							"internalType": "bool",
							"name": "isPublished",
							"type": "bool"
						},
						{
							"internalType": "bool",
							"name": "isVerified",
							"type": "bool"
						},
						{
							"internalType": "uint256",
							"name": "verificationAmountInEthers",
							"type": "uint256"
						},
						{
							"internalType": "bool",
							"name": "isEnded",
							"type": "bool"
						},
						{
							"internalType": "bool",
							"name": "isPaidOut",
							"type": "bool"
						},
						{
							"internalType": "uint256",
							"name": "verificationRequestId",
							"type": "uint256"
						},
						{
							"internalType": "uint256",
							"name": "verificationId",
							"type": "uint256"
						}
					],
					"internalType": "struct StekcitEvent",
					"name": "",
					"type": "tuple"
				}
			],
			"stateMutability": "view",
			"type": "function"
		},
		{
			"inputs": [],
			"name": "getNumberOfAllPublishedEvents",
			"outputs": [
				{
					"internalType": "uint256",
					"name": "",
					"type": "uint256"
				}
			],
			"stateMutability": "view",
			"type": "function"
		},
		{
			"inputs": [
				{
					"internalType": "uint256",
					"name": "_eventId",
					"type": "uint256"
				}
			],
			"name": "getNumberOfTicketsOfEvent",
			"outputs": [
				{
					"internalType": "uint256",
					"name": "",
					"type": "uint256"
				}
			],
			"stateMutability": "view",
			"type": "function"
		},
		{
			"inputs": [
				{
					"internalType": "address",
					"name": "_walletAddress",
					"type": "address"
				}
			],
			"name": "getNumberOfTicketsOfUser",
			"outputs": [
				{
					"internalType": "uint256",
					"name": "",
					"type": "uint256"
				}
			],
			"stateMutability": "view",
			"type": "function"
		},
		{
			"inputs": [
				{
					"internalType": "uint256",
					"name": "_verificationRequestId",
					"type": "uint256"
				}
			],
			"name": "getTicketByVerificationRequestId",
			"outputs": [
				{
					"components": [
						{
							"internalType": "uint256",
							"name": "id",
							"type": "uint256"
						},
						{
							"internalType": "uint256",
							"name": "eventId",
							"type": "uint256"
						},
						{
							"internalType": "address",
							"name": "attendingUserWalletAddress",
							"type": "address"
						},
						{
							"internalType": "uint256",
							"name": "amountPaidInEthers",
							"type": "uint256"
						},
						{
							"internalType": "bool",
							"name": "isBlank",
							"type": "bool"
						},
						{
							"internalType": "uint256",
							"name": "verificationRequestId",
							"type": "uint256"
						},
						{
							"internalType": "uint256",
							"name": "verificationId",
							"type": "uint256"
						}
					],
					"internalType": "struct StekcitTicket",
					"name": "",
					"type": "tuple"
				}
			],
			"stateMutability": "view",
			"type": "function"
		},
		{
			"inputs": [
				{
					"internalType": "uint256",
					"name": "_eventId",
					"type": "uint256"
				}
			],
			"name": "getTotalAmountPaidToEventInEthers",
			"outputs": [
				{
					"internalType": "uint256",
					"name": "",
					"type": "uint256"
				}
			],
			"stateMutability": "view",
			"type": "function"
		},
		{
			"inputs": [
				{
					"internalType": "address",
					"name": "_walletAddress",
					"type": "address"
				}
			],
			"name": "getTotalNumberOfAllEventsCreatedByUser",
			"outputs": [
				{
					"internalType": "uint256",
					"name": "",
					"type": "uint256"
				}
			],
			"stateMutability": "view",
			"type": "function"
		},
		{
			"inputs": [
				{
					"internalType": "uint256",
					"name": "_eventId",
					"type": "uint256"
				}
			],
			"name": "getTotalNumberOfTicketsOfEvent",
			"outputs": [
				{
					"internalType": "uint256",
					"name": "",
					"type": "uint256"
				}
			],
			"stateMutability": "view",
			"type": "function"
		},
		{
			"inputs": [
				{
					"internalType": "uint256",
					"name": "_userId",
					"type": "uint256"
				}
			],
			"name": "getUserById",
			"outputs": [
				{
					"components": [
						{
							"internalType": "uint256",
							"name": "id",
							"type": "uint256"
						},
						{
							"internalType": "address",
							"name": "walletAddress",
							"type": "address"
						},
						{
							"internalType": "string",
							"name": "username",
							"type": "string"
						},
						{
							"internalType": "string",
							"name": "emailAddress",
							"type": "string"
						},
						{
							"internalType": "bool",
							"name": "isCreatingUser",
							"type": "bool"
						},
						{
							"internalType": "bool",
							"name": "isBlank",
							"type": "bool"
						},
						{
							"internalType": "bool",
							"name": "isWelcomeEmailSent",
							"type": "bool"
						},
						{
							"internalType": "bytes32",
							"name": "welcomeEmailVerificationId",
							"type": "bytes32"
						}
					],
					"internalType": "struct StekcitUser",
					"name": "",
					"type": "tuple"
				}
			],
			"stateMutability": "view",
			"type": "function"
		},
		{
			"inputs": [
				{
					"internalType": "address",
					"name": "_walletAddress",
					"type": "address"
				}
			],
			"name": "getUserByWalletAddress",
			"outputs": [
				{
					"components": [
						{
							"internalType": "uint256",
							"name": "id",
							"type": "uint256"
						},
						{
							"internalType": "address",
							"name": "walletAddress",
							"type": "address"
						},
						{
							"internalType": "string",
							"name": "username",
							"type": "string"
						},
						{
							"internalType": "string",
							"name": "emailAddress",
							"type": "string"
						},
						{
							"internalType": "bool",
							"name": "isCreatingUser",
							"type": "bool"
						},
						{
							"internalType": "bool",
							"name": "isBlank",
							"type": "bool"
						},
						{
							"internalType": "bool",
							"name": "isWelcomeEmailSent",
							"type": "bool"
						},
						{
							"internalType": "bytes32",
							"name": "welcomeEmailVerificationId",
							"type": "bytes32"
						}
					],
					"internalType": "struct StekcitUser",
					"name": "",
					"type": "tuple"
				}
			],
			"stateMutability": "view",
			"type": "function"
		},
		{
			"inputs": [
				{
					"internalType": "bytes32",
					"name": "requestId",
					"type": "bytes32"
				},
				{
					"internalType": "bytes",
					"name": "response",
					"type": "bytes"
				},
				{
					"internalType": "bytes",
					"name": "err",
					"type": "bytes"
				}
			],
			"name": "handleOracleFulfillment",
			"outputs": [],
			"stateMutability": "nonpayable",
			"type": "function"
		},
		{
			"inputs": [],
			"name": "lastFunctionsError",
			"outputs": [
				{
					"internalType": "bytes",
					"name": "",
					"type": "bytes"
				}
			],
			"stateMutability": "view",
			"type": "function"
		},
		{
			"inputs": [],
			"name": "makeCreatingUser",
			"outputs": [
				{
					"internalType": "bool",
					"name": "",
					"type": "bool"
				}
			],
			"stateMutability": "nonpayable",
			"type": "function"
		},
		{
			"inputs": [],
			"name": "owner",
			"outputs": [
				{
					"internalType": "address",
					"name": "",
					"type": "address"
				}
			],
			"stateMutability": "view",
			"type": "function"
		},
		{
			"inputs": [
				{
					"internalType": "uint256",
					"name": "_eventId",
					"type": "uint256"
				}
			],
			"name": "processPayout",
			"outputs": [],
			"stateMutability": "nonpayable",
			"type": "function"
		},
		{
			"inputs": [
				{
					"internalType": "uint256",
					"name": "_eventId",
					"type": "uint256"
				}
			],
			"name": "publishEvent",
			"outputs": [
				{
					"components": [
						{
							"internalType": "uint256",
							"name": "id",
							"type": "uint256"
						},
						{
							"internalType": "address",
							"name": "creatingUserWalletAddress",
							"type": "address"
						},
						{
							"internalType": "string",
							"name": "title",
							"type": "string"
						},
						{
							"internalType": "string",
							"name": "description",
							"type": "string"
						},
						{
							"internalType": "string",
							"name": "link",
							"type": "string"
						},
						{
							"internalType": "uint256",
							"name": "amountInEthers",
							"type": "uint256"
						},
						{
							"internalType": "uint256",
							"name": "createdAt",
							"type": "uint256"
						},
						{
							"internalType": "uint256",
							"name": "updatedAt",
							"type": "uint256"
						},
						{
							"internalType": "uint256",
							"name": "dateAndTime",
							"type": "uint256"
						},
						{
							"internalType": "bool",
							"name": "isBlank",
							"type": "bool"
						},
						{
							"internalType": "bool",
							"name": "isPublished",
							"type": "bool"
						},
						{
							"internalType": "bool",
							"name": "isVerified",
							"type": "bool"
						},
						{
							"internalType": "uint256",
							"name": "verificationAmountInEthers",
							"type": "uint256"
						},
						{
							"internalType": "bool",
							"name": "isEnded",
							"type": "bool"
						},
						{
							"internalType": "bool",
							"name": "isPaidOut",
							"type": "bool"
						},
						{
							"internalType": "uint256",
							"name": "verificationRequestId",
							"type": "uint256"
						},
						{
							"internalType": "uint256",
							"name": "verificationId",
							"type": "uint256"
						}
					],
					"internalType": "struct StekcitEvent",
					"name": "",
					"type": "tuple"
				}
			],
			"stateMutability": "nonpayable",
			"type": "function"
		},
		{
			"inputs": [
				{
					"internalType": "uint256",
					"name": "requestId",
					"type": "uint256"
				},
				{
					"internalType": "uint256[]",
					"name": "randomWords",
					"type": "uint256[]"
				}
			],
			"name": "rawFulfillRandomWords",
			"outputs": [],
			"stateMutability": "nonpayable",
			"type": "function"
		},
		{
			"inputs": [],
			"name": "s_vrfCoordinator",
			"outputs": [
				{
					"internalType": "contract IVRFCoordinatorV2Plus",
					"name": "",
					"type": "address"
				}
			],
			"stateMutability": "view",
			"type": "function"
		},
		{
			"inputs": [
				{
					"internalType": "string",
					"name": "source",
					"type": "string"
				},
				{
					"internalType": "bytes",
					"name": "encryptedSecretsUrls",
					"type": "bytes"
				},
				{
					"internalType": "uint8",
					"name": "donHostedSecretsSlotID",
					"type": "uint8"
				},
				{
					"internalType": "uint64",
					"name": "donHostedSecretsVersion",
					"type": "uint64"
				},
				{
					"internalType": "string[]",
					"name": "args",
					"type": "string[]"
				},
				{
					"internalType": "bytes[]",
					"name": "bytesArgs",
					"type": "bytes[]"
				},
				{
					"internalType": "uint64",
					"name": "subscriptionId",
					"type": "uint64"
				},
				{
					"internalType": "uint32",
					"name": "gasLimit",
					"type": "uint32"
				},
				{
					"internalType": "bytes32",
					"name": "donID",
					"type": "bytes32"
				}
			],
			"name": "sendRequest",
			"outputs": [
				{
					"internalType": "bytes32",
					"name": "",
					"type": "bytes32"
				}
			],
			"stateMutability": "nonpayable",
			"type": "function"
		},
		{
			"inputs": [
				{
					"internalType": "address",
					"name": "_vrfCoordinator",
					"type": "address"
				}
			],
			"name": "setCoordinator",
			"outputs": [],
			"stateMutability": "nonpayable",
			"type": "function"
		},
		{
			"inputs": [],
			"name": "stekcitBMOwnerAddress",
			"outputs": [
				{
					"internalType": "address",
					"name": "",
					"type": "address"
				}
			],
			"stateMutability": "view",
			"type": "function"
		},
		{
			"inputs": [
				{
					"internalType": "address",
					"name": "to",
					"type": "address"
				}
			],
			"name": "transferOwnership",
			"outputs": [],
			"stateMutability": "nonpayable",
			"type": "function"
		},
		{
			"inputs": [
				{
					"internalType": "uint256",
					"name": "_eventId",
					"type": "uint256"
				}
			],
			"name": "verifyEventAndSetVerificationRequestId",
			"outputs": [
				{
					"components": [
						{
							"internalType": "uint256",
							"name": "id",
							"type": "uint256"
						},
						{
							"internalType": "address",
							"name": "creatingUserWalletAddress",
							"type": "address"
						},
						{
							"internalType": "string",
							"name": "title",
							"type": "string"
						},
						{
							"internalType": "string",
							"name": "description",
							"type": "string"
						},
						{
							"internalType": "string",
							"name": "link",
							"type": "string"
						},
						{
							"internalType": "uint256",
							"name": "amountInEthers",
							"type": "uint256"
						},
						{
							"internalType": "uint256",
							"name": "createdAt",
							"type": "uint256"
						},
						{
							"internalType": "uint256",
							"name": "updatedAt",
							"type": "uint256"
						},
						{
							"internalType": "uint256",
							"name": "dateAndTime",
							"type": "uint256"
						},
						{
							"internalType": "bool",
							"name": "isBlank",
							"type": "bool"
						},
						{
							"internalType": "bool",
							"name": "isPublished",
							"type": "bool"
						},
						{
							"internalType": "bool",
							"name": "isVerified",
							"type": "bool"
						},
						{
							"internalType": "uint256",
							"name": "verificationAmountInEthers",
							"type": "uint256"
						},
						{
							"internalType": "bool",
							"name": "isEnded",
							"type": "bool"
						},
						{
							"internalType": "bool",
							"name": "isPaidOut",
							"type": "bool"
						},
						{
							"internalType": "uint256",
							"name": "verificationRequestId",
							"type": "uint256"
						},
						{
							"internalType": "uint256",
							"name": "verificationId",
							"type": "uint256"
						}
					],
					"internalType": "struct StekcitEvent",
					"name": "",
					"type": "tuple"
				}
			],
			"stateMutability": "nonpayable",
			"type": "function"
		},
		{
			"inputs": [
				{
					"internalType": "uint256",
					"name": "_ticketId",
					"type": "uint256"
				}
			],
			"name": "verifyTicketAndSetVerificationRequestId",
			"outputs": [
				{
					"components": [
						{
							"internalType": "uint256",
							"name": "id",
							"type": "uint256"
						},
						{
							"internalType": "uint256",
							"name": "eventId",
							"type": "uint256"
						},
						{
							"internalType": "address",
							"name": "attendingUserWalletAddress",
							"type": "address"
						},
						{
							"internalType": "uint256",
							"name": "amountPaidInEthers",
							"type": "uint256"
						},
						{
							"internalType": "bool",
							"name": "isBlank",
							"type": "bool"
						},
						{
							"internalType": "uint256",
							"name": "verificationRequestId",
							"type": "uint256"
						},
						{
							"internalType": "uint256",
							"name": "verificationId",
							"type": "uint256"
						}
					],
					"internalType": "struct StekcitTicket",
					"name": "",
					"type": "tuple"
				}
			],
			"stateMutability": "nonpayable",
			"type": "function"
		}
	]
}