{
	"data": {
		"bytecode": {
			"linkReferences": {},
			"object": "6080604052600980546001600160a01b03191673874069fa1eb16d44d622f2e0ca25eea172369bc11790553480156200003757600080fd5b50604051620046aa380380620046aa8339810160408190526200005a9162000080565b600480546001600160a01b0319166001600160a01b0392909216919091179055620000b2565b6000602082840312156200009357600080fd5b81516001600160a01b0381168114620000ab57600080fd5b9392505050565b6145e880620000c26000396000f3fe608060405234801561001057600080fd5b50600436106101fb5760003560e01c806376f8cbd51161011a578063c5b84029116100ad578063d011287d1161007c578063d011287d146104d9578063d903708b146104ec578063e5b16b4c146104ff578063ea42e48614610512578063f5caa96b1461052557600080fd5b8063c5b8402914610498578063c89e9666146104ab578063cee34e7b146104be578063cfd9f3da146104c657600080fd5b806399bb6b08116100e957806399bb6b081461043f578063ad395c1414610452578063b98079bc14610472578063bb72caef1461048557600080fd5b806376f8cbd5146103db57806389ee68bf146103ee5780639371de2b146104015780639720807c1461041457600080fd5b80634ceb48fd1161019257806371ffeffe1161016157806371ffeffe1461038f5780637354a25f146103a25780637370f6cc146103b557806375362943146103c857600080fd5b80634ceb48fd146102ef5780635d3ee0ee1461030f57806365212f7014610317578063666ac2fb1461037c57600080fd5b806325299d67116101ce57806325299d671461027c57806325fb0d551461029c57806327b7aabc146102bc5780633b902afe146102cf57600080fd5b80630c6c56f914610200578063184b093814610226578063235b3a3d1461024657806324c67b0314610259575b600080fd5b61021361020e366004613dfb565b610538565b6040519081526020015b60405180910390f35b610239610234366004613dfb565b6105c2565b60405161021d9190614257565b610239610254366004613f68565b6106e8565b61026c610267366004613f68565b61080b565b604051901515815260200161021d565b61028f61028a366004613e8a565b6108f5565b60405161021d919061436e565b6102af6102aa366004613fc6565b610b3f565b60405161021d9190614381565b6102af6102ca366004613f68565b610c5e565b6102e26102dd366004613dfb565b610cc9565b60405161021d91906141f5565b6103026102fd366004613e16565b611029565b60405161021d91906143b5565b6102e26111b7565b61032a610325366004613f68565b61150c565b60405161021d919081518152602080830151908201526040808301516001600160a01b031690820152606080830151908201526080808301519082015260a09182015115159181019190915260c00190565b61021361038a366004613dfb565b611590565b61026c61039d366004613dfb565b61162f565b6102136103b0366004613f68565b61178d565b61026c6103c3366004613f68565b611825565b61026c6103d6366004613f9a565b611949565b6102136103e9366004613f68565b611c17565b61032a6103fc366004613f68565b611eef565b61026c61040f366004613dfb565b6124db565b600454610427906001600160a01b031681565b6040516001600160a01b03909116815260200161021d565b61030261044d366004613dfb565b6126e8565b610465610460366004613f68565b6128f8565b60405161021d91906142cc565b61028f610480366004613f68565b612a21565b61032a610493366004613ffb565b612d0f565b6102136104a6366004613dfb565b612ea5565b6103026104b9366004613f68565b61318e565b610213613374565b61028f6104d4366004613f68565b61364b565b61026c6104e7366004613f68565b6137b5565b61028f6104fa366004613f68565b61388b565b61021361050d366004613f68565b613a25565b61026c610520366004613f68565b613a8d565b61026c610533366004613f9a565b613b12565b600954604051636eb1769f60e11b81526001600160a01b038381166004830152306024830152600092169063dd62ed3e9060440160206040518083038186803b15801561058457600080fd5b505afa158015610598573d6000803e3d6000fd5b505050506040513d601f19601f820116820180604052508101906105bc9190613f81565b92915050565b60606000806105d084611590565b67ffffffffffffffff8111156105e8576105e861458b565b60405190808252806020026020018201604052801561062157816020015b61060e613b80565b8152602001906001900390816106065790505b50905060005b6002548110156106e05760006002828154811061064657610646614575565b60009182526020918290206040805160808101825260049093029091018054835260018101549383019390935260028301546001600160a01b03908116918301829052600390930154606083015290925090871614156106cd57808385815181106106b3576106b3614575565b602002602001018190525083806106c990614544565b9450505b50806106d881614544565b915050610627565b509392505050565b60606000806106f68461178d565b905060008167ffffffffffffffff8111156107135761071361458b565b60405190808252806020026020018201604052801561074c57816020015b610739613b80565b8152602001906001900390816107315790505b50905060005b828110156108025760006002828154811061076f5761076f614575565b600091825260209182902060408051608081018252600490930290910180548352600181015493830184905260028101546001600160a01b03169183019190915260030154606082015291508714156107ef57808386815181106107d5576107d5614575565b602002602001018190525084806107eb90614544565b9550505b50806107fa81614544565b915050610752565b50949350505050565b6000816108188133611949565b61083d5760405162461bcd60e51b815260040161083490614321565b60405180910390fd5b60005b6003548110156108e95760006003828154811061085f5761085f614575565b60009182526020918290206040805160c081018252600690930290910180548352600181015493830184905260028101546001600160a01b03169183019190915260038101546060830152600481015460808301526005015460ff16151560a082015291508514156108d6576001935050506108ef565b50806108e181614544565b915050610840565b50600091505b50919050565b6108fd613bb1565b600654604080516101e0810182528281526001600160a01b038b811660208084019182529383018c8152606084018c9052608084018b905260a084018a90524260c0850181905260e0850181905261010085018a905260006101208601819052891515610140870152610160860181905261018086018190526101a086018190526101c08601819052600180548082018255915285517fb10e2d527612073b26eecdfd717e6a320cf44b4afac2b0732d9fcbe2b7fa0cf6600c90920291820190815593517fb10e2d527612073b26eecdfd717e6a320cf44b4afac2b0732d9fcbe2b7fa0cf7820180546001600160a01b0319169190961617909455905180519195869594610a33937fb10e2d527612073b26eecdfd717e6a320cf44b4afac2b0732d9fcbe2b7fa0cf89091019290910190613c3a565b5060608201518051610a4f916003840191602090910190613c3a565b5060808201518051610a6b916004840191602090910190613c3a565b5060a0820151600582015560c082015160068083019190915560e083015160078301556101008084015160088401556101208401516009840180546101408701516101608801511515620100000262ff000019911515860261ff0019951515861661ffff1994851617179190911617909155610180860151600a8601556101a0860151600b90950180546101c0909701511515909302941515909116941693909317919091179091558054906000610b2283614544565b9190505550610b3083612a21565b9b9a5050505050505050505050565b610b47613b80565b6007805460408051608081018252828152602081018881526001600160a01b038881169383019384526060830188815260028054600181018255600091825294517f405787fa12a823e0f2b7631cc41b3ba8828b3321ca811111fa75cd3aa3bb5ace60049096029586015592517f405787fa12a823e0f2b7631cc41b3ba8828b3321ca811111fa75cd3aa3bb5acf85015593517f405787fa12a823e0f2b7631cc41b3ba8828b3321ca811111fa75cd3aa3bb5ad0840180546001600160a01b0319169190921617905591517f405787fa12a823e0f2b7631cc41b3ba8828b3321ca811111fa75cd3aa3bb5ad1909101558254919290610c4583614544565b9190505550610c5381610c5e565b9150505b9392505050565b610c66613b80565b60028281548110610c7957610c79614575565b60009182526020918290206040805160808101825260049093029091018054835260018101549383019390935260028301546001600160a01b031690820152600390910154606082015292915050565b60606000610cd683612ea5565b67ffffffffffffffff811115610cee57610cee61458b565b604051908082528060200260200182016040528015610d2757816020015b610d14613bb1565b815260200190600190039081610d0c5790505b50905060005b60015481101561102257600060018281548110610d4c57610d4c614575565b90600052602060002090600c0201604051806101e0016040529081600082015481526020016001820160009054906101000a90046001600160a01b03166001600160a01b03166001600160a01b03168152602001600282018054610daf9061450f565b80601f0160208091040260200160405190810160405280929190818152602001828054610ddb9061450f565b8015610e285780601f10610dfd57610100808354040283529160200191610e28565b820191906000526020600020905b815481529060010190602001808311610e0b57829003601f168201915b50505050508152602001600382018054610e419061450f565b80601f0160208091040260200160405190810160405280929190818152602001828054610e6d9061450f565b8015610eba5780601f10610e8f57610100808354040283529160200191610eba565b820191906000526020600020905b815481529060010190602001808311610e9d57829003601f168201915b50505050508152602001600482018054610ed39061450f565b80601f0160208091040260200160405190810160405280929190818152602001828054610eff9061450f565b8015610f4c5780601f10610f2157610100808354040283529160200191610f4c565b820191906000526020600020905b815481529060010190602001808311610f2f57829003601f168201915b50505091835250506005820154602080830191909152600683015460408301526007830154606083015260088301546080830152600983015460ff808216151560a08501526101008083048216151560c0860152620100009092048116151560e0850152600a85015482850152600b909401548085161515610120850152049092161515610140909101528101519091506001600160a01b038681169116141561100f578083838151811061100357611003614575565b60200260200101819052505b508061101a81614544565b915050610d2d565b5092915050565b611031613cbe565b600061103c856124db565b905080156110555761104d856126e8565b915050610c57565b600580546040805160c0810182528281526001600160a01b03808a1660208084019182529383018a8152606084018a905260006080850181905260a085018190528054600181018255908052845197027f290decd9548b62a8d60345a988386fc84ba6bc95484008f6362f93160ef3e563810197885591517f290decd9548b62a8d60345a988386fc84ba6bc95484008f6362f93160ef3e56483018054919094166001600160a01b03199091161790925590518051949592949293611141937f290decd9548b62a8d60345a988386fc84ba6bc95484008f6362f93160ef3e56590930192910190613c3a565b506060820151805161115d916003840191602090910190613c3a565b5060808201516004909101805460a09093015115156101000261ff00199215159290921661ffff19909316929092171790556005805490600061119f83614544565b91905055506111ad8161318e565b9695505050505050565b60606000806111c4613374565b67ffffffffffffffff8111156111dc576111dc61458b565b60405190808252806020026020018201604052801561121557816020015b611202613bb1565b8152602001906001900390816111fa5790505b50905060005b6001548110156110225760006001828154811061123a5761123a614575565b90600052602060002090600c0201604051806101e0016040529081600082015481526020016001820160009054906101000a90046001600160a01b03166001600160a01b03166001600160a01b0316815260200160028201805461129d9061450f565b80601f01602080910402602001604051908101604052809291908181526020018280546112c99061450f565b80156113165780601f106112eb57610100808354040283529160200191611316565b820191906000526020600020905b8154815290600101906020018083116112f957829003601f168201915b5050505050815260200160038201805461132f9061450f565b80601f016020809104026020016040519081016040528092919081815260200182805461135b9061450f565b80156113a85780601f1061137d576101008083540402835291602001916113a8565b820191906000526020600020905b81548152906001019060200180831161138b57829003601f168201915b505050505081526020016004820180546113c19061450f565b80601f01602080910402602001604051908101604052809291908181526020018280546113ed9061450f565b801561143a5780601f1061140f5761010080835404028352916020019161143a565b820191906000526020600020905b81548152906001019060200180831161141d57829003601f168201915b505050918352505060058201546020820152600682015460408201526007820154606082015260088201546080820152600982015460ff808216151560a08401526101008083048216151560c0850152620100009092048116151560e0840152600a84015482840152600b90930154808416151561012084015204909116151561014091820152810151909150156114f957808385815181106114df576114df614575565b602002602001018190525083806114f590614544565b9450505b508061150481614544565b91505061121b565b611514613d01565b6003828154811061152757611527614575565b60009182526020918290206040805160c08101825260069093029091018054835260018101549383019390935260028301546001600160a01b031690820152600382015460608201526004820154608082015260059091015460ff16151560a082015292915050565b600080805b600254811015611022576000600282815481106115b4576115b4614575565b60009182526020918290206040805160808101825260049093029091018054835260018101549383019390935260028301546001600160a01b039081169183018290526003909301546060830152909250908616141561161c578261161881614544565b9350505b508061162781614544565b915050611595565b600061163a336124db565b61169b5760405162461bcd60e51b815260206004820152602c60248201527f4f6e6c79204578697374696e672075736572732063616e20706572666f726d2060448201526b3a3434b99030b1ba34b7b71760a11b6064820152608401610834565b60006116a6836126e8565b90508060a001516117825780516001608083015260008054839190839081106116d1576116d1614575565b6000918252602091829020835160059290920201908155828201516001820180546001600160a01b0319166001600160a01b0390921691909117905560408301518051919261172892600285019290910190613c3a565b5060608201518051611744916003840191602090910190613c3a565b5060808201516004909101805460a09093015115156101000261ff00199215159290921661ffff199093169290921717905550600191506117889050565b60009150505b919050565b600080805b600254811015611022576000600282815481106117b1576117b1614575565b600091825260209182902060408051608081018252600490930290910180548352600181015493830184905260028101546001600160a01b0316918301919091526003015460608201529150851415611812578261180e81614544565b9350505b508061181d81614544565b915050611792565b600080600960009054906101000a90046001600160a01b03166001600160a01b031663313ce5676040518163ffffffff1660e01b815260040160206040518083038186803b15801561187657600080fd5b505afa15801561188a573d6000803e3d6000fd5b505050506040513d601f19601f820116820180604052508101906118ae919061401d565b6118b990600a614445565b6118c390846144f0565b60095460405163095ea7b360e01b8152306004820152602481018390529192506001600160a01b03169063095ea7b3906044015b602060405180830381600087803b15801561191157600080fd5b505af1158015611925573d6000803e3d6000fd5b505050506040513d601f19601f82011682018060405250810190610c579190613f4b565b6000806001848154811061195f5761195f614575565b90600052602060002090600c0201604051806101e0016040529081600082015481526020016001820160009054906101000a90046001600160a01b03166001600160a01b03166001600160a01b031681526020016002820180546119c29061450f565b80601f01602080910402602001604051908101604052809291908181526020018280546119ee9061450f565b8015611a3b5780601f10611a1057610100808354040283529160200191611a3b565b820191906000526020600020905b815481529060010190602001808311611a1e57829003601f168201915b50505050508152602001600382018054611a549061450f565b80601f0160208091040260200160405190810160405280929190818152602001828054611a809061450f565b8015611acd5780601f10611aa257610100808354040283529160200191611acd565b820191906000526020600020905b815481529060010190602001808311611ab057829003601f168201915b50505050508152602001600482018054611ae69061450f565b80601f0160208091040260200160405190810160405280929190818152602001828054611b129061450f565b8015611b5f5780601f10611b3457610100808354040283529160200191611b5f565b820191906000526020600020905b815481529060010190602001808311611b4257829003601f168201915b50505091835250506005820154602080830191909152600683015460408301526007830154606083015260088301546080830152600983015460ff808216151560a08501526101008083048216151560c0860152620100009092048116151560e0850152600a85015482850152600b909401548085161515610120850152049092161515610140909101528101519091506001600160a01b0384811691161415611c0d5760019150506105bc565b5060009392505050565b600080805b60015481101561102257600060018281548110611c3b57611c3b614575565b90600052602060002090600c0201604051806101e0016040529081600082015481526020016001820160009054906101000a90046001600160a01b03166001600160a01b03166001600160a01b03168152602001600282018054611c9e9061450f565b80601f0160208091040260200160405190810160405280929190818152602001828054611cca9061450f565b8015611d175780601f10611cec57610100808354040283529160200191611d17565b820191906000526020600020905b815481529060010190602001808311611cfa57829003601f168201915b50505050508152602001600382018054611d309061450f565b80601f0160208091040260200160405190810160405280929190818152602001828054611d5c9061450f565b8015611da95780601f10611d7e57610100808354040283529160200191611da9565b820191906000526020600020905b815481529060010190602001808311611d8c57829003601f168201915b50505050508152602001600482018054611dc29061450f565b80601f0160208091040260200160405190810160405280929190818152602001828054611dee9061450f565b8015611e3b5780601f10611e1057610100808354040283529160200191611e3b565b820191906000526020600020905b815481529060010190602001808311611e1e57829003601f168201915b505050918352505060058201546020820152600682015460408201526007820154606082015260088201546080820152600982015460ff808216151560a08401526101008083048216151560c0850152620100009092048116151560e0840152600a84015482840152600b909301548084161515610120840152049091161515610140909101528051909150851415611edc5782611ed881614544565b9350505b5080611ee781614544565b915050611c1c565b611ef7613d01565b81611f028133611949565b611f1e5760405162461bcd60e51b815260040161083490614321565b600060018481548110611f3357611f33614575565b90600052602060002090600c0201604051806101e0016040529081600082015481526020016001820160009054906101000a90046001600160a01b03166001600160a01b03166001600160a01b03168152602001600282018054611f969061450f565b80601f0160208091040260200160405190810160405280929190818152602001828054611fc29061450f565b801561200f5780601f10611fe45761010080835404028352916020019161200f565b820191906000526020600020905b815481529060010190602001808311611ff257829003601f168201915b505050505081526020016003820180546120289061450f565b80601f01602080910402602001604051908101604052809291908181526020018280546120549061450f565b80156120a15780601f10612076576101008083540402835291602001916120a1565b820191906000526020600020905b81548152906001019060200180831161208457829003601f168201915b505050505081526020016004820180546120ba9061450f565b80601f01602080910402602001604051908101604052809291908181526020018280546120e69061450f565b80156121335780601f1061210857610100808354040283529160200191612133565b820191906000526020600020905b81548152906001019060200180831161211657829003601f168201915b505050918352505060058201546020820152600682015460408201526007820154606082015260088201546080820152600982015460ff808216151560a08401526101008083048216151560c0850152620100009092048116151560e0840152600a84015482840152600b90930154808416151561012084015204909116151561014090910152905060006121c78561080b565b90506121d1613d01565b600160a082015281156121e85793506108ef915050565b60006121f387613a25565b90506000600a6122048360086144f0565b61220e91906143e0565b90506000600960009054906101000a90046001600160a01b03166001600160a01b031663313ce5676040518163ffffffff1660e01b815260040160206040518083038186803b15801561226057600080fd5b505afa158015612274573d6000803e3d6000fd5b505050506040513d601f19601f82011682018060405250810190612298919061401d565b6122a390600a614445565b6122ad90836144f0565b600954602088015160405163a9059cbb60e01b81526001600160a01b0391821660048201526024810184905292935060009291169063a9059cbb90604401602060405180830381600087803b15801561230557600080fd5b505af1158015612319573d6000803e3d6000fd5b505050506040513d601f19601f8201168201806040525081019061233d9190613f4b565b905080156124be576000600a6123548660026144f0565b61235e91906143e0565b90506000600960009054906101000a90046001600160a01b03166001600160a01b031663313ce5676040518163ffffffff1660e01b815260040160206040518083038186803b1580156123b057600080fd5b505afa1580156123c4573d6000803e3d6000fd5b505050506040513d601f19601f820116820180604052508101906123e8919061401d565b6123f390600a614445565b6123fd90836144f0565b6009546004805460405163a9059cbb60e01b81526001600160a01b0391821692810192909252602482018490529293506000929091169063a9059cbb90604401602060405180830381600087803b15801561245757600080fd5b505af115801561246b573d6000803e3d6000fd5b505050506040513d601f19601f8201168201806040525081019061248f9190613f4b565b905080156124b65760006124a38e88612d0f565b9c506108ef9a5050505050505050505050565b5050506124cd565b849850505050505050506108ef565b509298975050505050505050565b6000805b6000548110156126df5760008082815481106124fd576124fd614575565b90600052602060002090600502016040518060c0016040529081600082015481526020016001820160009054906101000a90046001600160a01b03166001600160a01b03166001600160a01b0316815260200160028201805461255f9061450f565b80601f016020809104026020016040519081016040528092919081815260200182805461258b9061450f565b80156125d85780601f106125ad576101008083540402835291602001916125d8565b820191906000526020600020905b8154815290600101906020018083116125bb57829003601f168201915b505050505081526020016003820180546125f19061450f565b80601f016020809104026020016040519081016040528092919081815260200182805461261d9061450f565b801561266a5780601f1061263f5761010080835404028352916020019161266a565b820191906000526020600020905b81548152906001019060200180831161264d57829003601f168201915b50505091835250506004919091015460ff80821615156020808501919091526101009092041615156040909201919091528101519091506001600160a01b0385811691161480156126bd57508060a00151155b156126cc575060019392505050565b50806126d781614544565b9150506124df565b50600092915050565b6126f0613cbe565b60005b6000548110156128e257600080828154811061271157612711614575565b90600052602060002090600502016040518060c0016040529081600082015481526020016001820160009054906101000a90046001600160a01b03166001600160a01b03166001600160a01b031681526020016002820180546127739061450f565b80601f016020809104026020016040519081016040528092919081815260200182805461279f9061450f565b80156127ec5780601f106127c1576101008083540402835291602001916127ec565b820191906000526020600020905b8154815290600101906020018083116127cf57829003601f168201915b505050505081526020016003820180546128059061450f565b80601f01602080910402602001604051908101604052809291908181526020018280546128319061450f565b801561287e5780601f106128535761010080835404028352916020019161287e565b820191906000526020600020905b81548152906001019060200180831161286157829003601f168201915b50505091835250506004919091015460ff80821615156020808501919091526101009092041615156040909201919091528101519091506001600160a01b03858116911614156128cf579392505050565b50806128da81614544565b9150506126f3565b506128eb613cbe565b600160a082015292915050565b606060008061290684611c17565b67ffffffffffffffff81111561291e5761291e61458b565b60405190808252806020026020018201604052801561295757816020015b612944613cbe565b81526020019060019003908161293c5790505b50905060005b6002548110156106e05760006002828154811061297c5761297c614575565b600091825260209182902060408051608081018252600490930290910180548352600181015493830184905260028101546001600160a01b0316918301919091526003015460608201529150861415612a0e5760006129de82604001516126e8565b9050808486815181106129f3576129f3614575565b60200260200101819052508480612a0990614544565b955050505b5080612a1981614544565b91505061295d565b612a29613bb1565b60005b600154811015612cf857600060018281548110612a4b57612a4b614575565b90600052602060002090600c0201604051806101e0016040529081600082015481526020016001820160009054906101000a90046001600160a01b03166001600160a01b03166001600160a01b03168152602001600282018054612aae9061450f565b80601f0160208091040260200160405190810160405280929190818152602001828054612ada9061450f565b8015612b275780601f10612afc57610100808354040283529160200191612b27565b820191906000526020600020905b815481529060010190602001808311612b0a57829003601f168201915b50505050508152602001600382018054612b409061450f565b80601f0160208091040260200160405190810160405280929190818152602001828054612b6c9061450f565b8015612bb95780601f10612b8e57610100808354040283529160200191612bb9565b820191906000526020600020905b815481529060010190602001808311612b9c57829003601f168201915b50505050508152602001600482018054612bd29061450f565b80601f0160208091040260200160405190810160405280929190818152602001828054612bfe9061450f565b8015612c4b5780601f10612c2057610100808354040283529160200191612c4b565b820191906000526020600020905b815481529060010190602001808311612c2e57829003601f168201915b505050918352505060058201546020820152600682015460408201526007820154606082015260088201546080820152600982015460ff808216151560a08401526101008083048216151560c0850152620100009092048116151560e0840152600a84015482840152600b909301548084161515610120840152049091161515610140909101528051909150841415612ce5579392505050565b5080612cf081614544565b915050612a2c565b50612d01613bb1565b600161012082015292915050565b612d17613d01565b82612d228133611949565b612d3e5760405162461bcd60e51b815260040161083490614321565b6008546040805160c0810182528281526020810187815233928201928352606082018781524260808401908152600060a0850181815260038054600181018255925294517fc2575a0e9e593c00f959f8c92f12db2869c3395a3b0502d05e2516446f71f85b60069092029182015592517fc2575a0e9e593c00f959f8c92f12db2869c3395a3b0502d05e2516446f71f85c84015593517fc2575a0e9e593c00f959f8c92f12db2869c3395a3b0502d05e2516446f71f85d830180546001600160a01b0319166001600160a01b03909216919091179055517fc2575a0e9e593c00f959f8c92f12db2869c3395a3b0502d05e2516446f71f85e82015591517fc2575a0e9e593c00f959f8c92f12db2869c3395a3b0502d05e2516446f71f85f830155517fc2575a0e9e593c00f959f8c92f12db2869c3395a3b0502d05e2516446f71f860909101805460ff1916911515919091179055612e9c8161150c565b95945050505050565b600080805b60015481101561102257600060018281548110612ec957612ec9614575565b90600052602060002090600c0201604051806101e0016040529081600082015481526020016001820160009054906101000a90046001600160a01b03166001600160a01b03166001600160a01b03168152602001600282018054612f2c9061450f565b80601f0160208091040260200160405190810160405280929190818152602001828054612f589061450f565b8015612fa55780601f10612f7a57610100808354040283529160200191612fa5565b820191906000526020600020905b815481529060010190602001808311612f8857829003601f168201915b50505050508152602001600382018054612fbe9061450f565b80601f0160208091040260200160405190810160405280929190818152602001828054612fea9061450f565b80156130375780601f1061300c57610100808354040283529160200191613037565b820191906000526020600020905b81548152906001019060200180831161301a57829003601f168201915b505050505081526020016004820180546130509061450f565b80601f016020809104026020016040519081016040528092919081815260200182805461307c9061450f565b80156130c95780601f1061309e576101008083540402835291602001916130c9565b820191906000526020600020905b8154815290600101906020018083116130ac57829003601f168201915b50505091835250506005820154602080830191909152600683015460408301526007830154606083015260088301546080830152600983015460ff808216151560a08501526101008083048216151560c0860152620100009092048116151560e0850152600a85015482850152600b909401548085161515610120850152049092161515610140909101528101519091506001600160a01b038681169116141561317b578261317781614544565b9350505b508061318681614544565b915050612eaa565b613196613cbe565b60005b6000548110156128e25760008082815481106131b7576131b7614575565b90600052602060002090600502016040518060c0016040529081600082015481526020016001820160009054906101000a90046001600160a01b03166001600160a01b03166001600160a01b031681526020016002820180546132199061450f565b80601f01602080910402602001604051908101604052809291908181526020018280546132459061450f565b80156132925780601f1061326757610100808354040283529160200191613292565b820191906000526020600020905b81548152906001019060200180831161327557829003601f168201915b505050505081526020016003820180546132ab9061450f565b80601f01602080910402602001604051908101604052809291908181526020018280546132d79061450f565b80156133245780601f106132f957610100808354040283529160200191613324565b820191906000526020600020905b81548152906001019060200180831161330757829003601f168201915b50505091835250506004919091015460ff808216151560208401526101009091041615156040909101528051909150841415613361579392505050565b508061336c81614544565b915050613199565b600080805b6001548110156108ef5760006001828154811061339857613398614575565b90600052602060002090600c0201604051806101e0016040529081600082015481526020016001820160009054906101000a90046001600160a01b03166001600160a01b03166001600160a01b031681526020016002820180546133fb9061450f565b80601f01602080910402602001604051908101604052809291908181526020018280546134279061450f565b80156134745780601f1061344957610100808354040283529160200191613474565b820191906000526020600020905b81548152906001019060200180831161345757829003601f168201915b5050505050815260200160038201805461348d9061450f565b80601f01602080910402602001604051908101604052809291908181526020018280546134b99061450f565b80156135065780601f106134db57610100808354040283529160200191613506565b820191906000526020600020905b8154815290600101906020018083116134e957829003601f168201915b5050505050815260200160048201805461351f9061450f565b80601f016020809104026020016040519081016040528092919081815260200182805461354b9061450f565b80156135985780601f1061356d57610100808354040283529160200191613598565b820191906000526020600020905b81548152906001019060200180831161357b57829003601f168201915b505050918352505060058201546020820152600682015460408201526007820154606082015260088201546080820152600982015460ff808216151560a08401526101008083048216151560c0850152620100009092048116151560e0840152600a84015482840152600b9093015480841615156101208401520490911615156101409182015281015190915015613638578261363481614544565b9350505b508061364381614544565b915050613379565b613653613bb1565b600061365e83612a21565b60016101408201819052805491925082918590811061367f5761367f614575565b60009182526020918290208351600c9290920201908155828201516001820180546001600160a01b0319166001600160a01b039092169190911790556040830151805191926136d692600285019290910190613c3a565b50606082015180516136f2916003840191602090910190613c3a565b506080820151805161370e916004840191602090910190613c3a565b5060a0820151600582015560c0820151600682015560e082015160078201556101008083015160088301556101208301516009830180546101408601516101608701511515620100000262ff000019911515860261ff0019951515861661ffff1994851617179190911617909155610180850151600a8501556101a0850151600b90940180546101c090960151151590930293151590911693169290921717905592915050565b600080600960009054906101000a90046001600160a01b03166001600160a01b031663313ce5676040518163ffffffff1660e01b815260040160206040518083038186803b15801561380657600080fd5b505afa15801561381a573d6000803e3d6000fd5b505050506040513d601f19601f8201168201806040525081019061383e919061401d565b61384990600a614445565b61385390846144f0565b600954604051633950935160e01b8152306004820152602481018390529192506001600160a01b0316906339509351906044016118f7565b613893613bb1565b600061389e83612a21565b90506000600a8260a0015160016138b591906144f0565b6138bf91906143e0565b4260e084015260016101608401819052610180840182905280549192508391869081106138ee576138ee614575565b60009182526020918290208351600c9290920201908155828201516001820180546001600160a01b0319166001600160a01b0390921691909117905560408301518051919261394592600285019290910190613c3a565b5060608201518051613961916003840191602090910190613c3a565b506080820151805161397d916004840191602090910190613c3a565b5060a0820151600582015560c0820151600682015560e082015160078201556101008083015160088301556101208301516009830180546101408601516101608701511515620100000262ff000019911515860261ff0019951515861661ffff1994851617179190911617909155610180850151600a8501556101a0850151600b90940180546101c09096015115159093029315159091169316929092171790555092915050565b60008080613a32846106e8565b905060005b8151811015613a84576000828281518110613a5457613a54614575565b60200260200101519050806060015184613a6e91906143c8565b9350508080613a7c90614544565b915050613a37565b50909392505050565b60095460405163a9059cbb60e01b8152306004820152602481018390526000916001600160a01b03169063a9059cbb90604401602060405180830381600087803b158015613ada57600080fd5b505af1158015613aee573d6000803e3d6000fd5b505050506040513d601f19601f820116820180604052508101906105bc9190613f4b565b600080613b1e836105c2565b905060005b8151811015613b75576000828281518110613b4057613b40614575565b602002602001015190508581602001511415613b6257600193505050506105bc565b5080613b6d81614544565b915050613b23565b506000949350505050565b6040518060800160405280600081526020016000815260200160006001600160a01b03168152602001600081525090565b604051806101e001604052806000815260200160006001600160a01b0316815260200160608152602001606081526020016060815260200160008152602001600081526020016000815260200160008152602001600015158152602001600015158152602001600015158152602001600081526020016000151581526020016000151581525090565b828054613c469061450f565b90600052602060002090601f016020900481019282613c685760008555613cae565b82601f10613c8157805160ff1916838001178555613cae565b82800160010185558215613cae579182015b82811115613cae578251825591602001919060010190613c93565b50613cba929150613d42565b5090565b6040518060c001604052806000815260200160006001600160a01b0316815260200160608152602001606081526020016000151581526020016000151581525090565b6040518060c00160405280600081526020016000815260200160006001600160a01b0316815260200160008152602001600081526020016000151581525090565b5b80821115613cba5760008155600101613d43565b80356001600160a01b038116811461178857600080fd5b600082601f830112613d7f57600080fd5b813567ffffffffffffffff80821115613d9a57613d9a61458b565b604051601f8301601f19908116603f01168101908282118183101715613dc257613dc261458b565b81604052838152866020858801011115613ddb57600080fd5b836020870160208301376000602085830101528094505050505092915050565b600060208284031215613e0d57600080fd5b610c5782613d57565b600080600060608486031215613e2b57600080fd5b613e3484613d57565b9250602084013567ffffffffffffffff80821115613e5157600080fd5b613e5d87838801613d6e565b93506040860135915080821115613e7357600080fd5b50613e8086828701613d6e565b9150509250925092565b600080600080600080600060e0888a031215613ea557600080fd5b613eae88613d57565b9650602088013567ffffffffffffffff80821115613ecb57600080fd5b613ed78b838c01613d6e565b975060408a0135915080821115613eed57600080fd5b613ef98b838c01613d6e565b965060608a0135915080821115613f0f57600080fd5b50613f1c8a828b01613d6e565b9450506080880135925060a0880135915060c0880135613f3b816145a1565b8091505092959891949750929550565b600060208284031215613f5d57600080fd5b8151610c57816145a1565b600060208284031215613f7a57600080fd5b5035919050565b600060208284031215613f9357600080fd5b5051919050565b60008060408385031215613fad57600080fd5b82359150613fbd60208401613d57565b90509250929050565b600080600060608486031215613fdb57600080fd5b83359250613feb60208501613d57565b9150604084013590509250925092565b6000806040838503121561400e57600080fd5b50508035926020909101359150565b60006020828403121561402f57600080fd5b815160ff81168114610c5757600080fd5b6000815180845260005b818110156140665760208185018101518683018201520161404a565b81811115614078576000602083870101525b50601f01601f19169290920160200192915050565b60006101e08251845260208301516140b060208601826001600160a01b03169052565b5060408301518160408601526140c882860182614040565b915050606083015184820360608601526140e28282614040565b915050608083015184820360808601526140fc8282614040565b91505060a083015160a085015260c083015160c085015260e083015160e08501526101008084015181860152506101208084015161413d8287018215159052565b5050610140838101511515908501526101608084015115159085015261018080840151908501526101a0808401511515908501526101c092830151151592909301919091525090565b8051825260018060a01b0360208201511660208301526000604082015160c060408501526141b760c0850182614040565b9050606083015184820360608601526141d08282614040565b91505060808301511515608085015260a0830151151560a08501528091505092915050565b6000602080830181845280855180835260408601915060408160051b870101925083870160005b8281101561424a57603f1988860301845261423885835161408d565b9450928501929085019060010161421c565b5092979650505050505050565b6020808252825182820181905260009190848201906040850190845b818110156142c0576142ad83855180518252602080820151908301526040808201516001600160a01b031690830152606090810151910152565b9284019260809290920191600101614273565b50909695505050505050565b6000602080830181845280855180835260408601915060408160051b870101925083870160005b8281101561424a57603f1988860301845261430f858351614186565b945092850192908501906001016142f3565b6020808252602d908201527f4f6e6c792061204372656174696e6720757365722063616e20706572666f726d60408201526c103a3434b99030b1ba34b7b71760991b606082015260800190565b602081526000610c57602083018461408d565b81518152602080830151908201526040808301516001600160a01b03169082015260608083015190820152608081016105bc565b602081526000610c576020830184614186565b600082198211156143db576143db61455f565b500190565b6000826143fd57634e487b7160e01b600052601260045260246000fd5b500490565b600181815b8085111561443d5781600019048211156144235761442361455f565b8085161561443057918102915b93841c9390800290614407565b509250929050565b6000610c5760ff84168360008261445e575060016105bc565b8161446b575060006105bc565b8160018114614481576002811461448b576144a7565b60019150506105bc565b60ff84111561449c5761449c61455f565b50506001821b6105bc565b5060208310610133831016604e8410600b84101617156144ca575081810a6105bc565b6144d48383614402565b80600019048211156144e8576144e861455f565b029392505050565b600081600019048311821515161561450a5761450a61455f565b500290565b600181811c9082168061452357607f821691505b602082108114156108ef57634e487b7160e01b600052602260045260246000fd5b60006000198214156145585761455861455f565b5060010190565b634e487b7160e01b600052601160045260246000fd5b634e487b7160e01b600052603260045260246000fd5b634e487b7160e01b600052604160045260246000fd5b80151581146145af57600080fd5b5056fea264697066735822122073d24c14265c096c0b483d20cbb6149fae4dec8d2905226f00538692afba553b64736f6c63430008070033",
			"opcodes": "PUSH1 0x80 PUSH1 0x40 MSTORE PUSH1 0x9 DUP1 SLOAD PUSH1 0x1 PUSH1 0x1 PUSH1 0xA0 SHL SUB NOT AND PUSH20 0x874069FA1EB16D44D622F2E0CA25EEA172369BC1 OR SWAP1 SSTORE CALLVALUE DUP1 ISZERO PUSH3 0x37 JUMPI PUSH1 0x0 DUP1 REVERT JUMPDEST POP PUSH1 0x40 MLOAD PUSH3 0x46AA CODESIZE SUB DUP1 PUSH3 0x46AA DUP4 CODECOPY DUP2 ADD PUSH1 0x40 DUP2 SWAP1 MSTORE PUSH3 0x5A SWAP2 PUSH3 0x80 JUMP JUMPDEST PUSH1 0x4 DUP1 SLOAD PUSH1 0x1 PUSH1 0x1 PUSH1 0xA0 SHL SUB NOT AND PUSH1 0x1 PUSH1 0x1 PUSH1 0xA0 SHL SUB SWAP3 SWAP1 SWAP3 AND SWAP2 SWAP1 SWAP2 OR SWAP1 SSTORE PUSH3 0xB2 JUMP JUMPDEST PUSH1 0x0 PUSH1 0x20 DUP3 DUP5 SUB SLT ISZERO PUSH3 0x93 JUMPI PUSH1 0x0 DUP1 REVERT JUMPDEST DUP2 MLOAD PUSH1 0x1 PUSH1 0x1 PUSH1 0xA0 SHL SUB DUP2 AND DUP2 EQ PUSH3 0xAB JUMPI PUSH1 0x0 DUP1 REVERT JUMPDEST SWAP4 SWAP3 POP POP POP JUMP JUMPDEST PUSH2 0x45E8 DUP1 PUSH3 0xC2 PUSH1 0x0 CODECOPY PUSH1 0x0 RETURN INVALID PUSH1 0x80 PUSH1 0x40 MSTORE CALLVALUE DUP1 ISZERO PUSH2 0x10 JUMPI PUSH1 0x0 DUP1 REVERT JUMPDEST POP PUSH1 0x4 CALLDATASIZE LT PUSH2 0x1FB JUMPI PUSH1 0x0 CALLDATALOAD PUSH1 0xE0 SHR DUP1 PUSH4 0x76F8CBD5 GT PUSH2 0x11A JUMPI DUP1 PUSH4 0xC5B84029 GT PUSH2 0xAD JUMPI DUP1 PUSH4 0xD011287D GT PUSH2 0x7C JUMPI DUP1 PUSH4 0xD011287D EQ PUSH2 0x4D9 JUMPI DUP1 PUSH4 0xD903708B EQ PUSH2 0x4EC JUMPI DUP1 PUSH4 0xE5B16B4C EQ PUSH2 0x4FF JUMPI DUP1 PUSH4 0xEA42E486 EQ PUSH2 0x512 JUMPI DUP1 PUSH4 0xF5CAA96B EQ PUSH2 0x525 JUMPI PUSH1 0x0 DUP1 REVERT JUMPDEST DUP1 PUSH4 0xC5B84029 EQ PUSH2 0x498 JUMPI DUP1 PUSH4 0xC89E9666 EQ PUSH2 0x4AB JUMPI DUP1 PUSH4 0xCEE34E7B EQ PUSH2 0x4BE JUMPI DUP1 PUSH4 0xCFD9F3DA EQ PUSH2 0x4C6 JUMPI PUSH1 0x0 DUP1 REVERT JUMPDEST DUP1 PUSH4 0x99BB6B08 GT PUSH2 0xE9 JUMPI DUP1 PUSH4 0x99BB6B08 EQ PUSH2 0x43F JUMPI DUP1 PUSH4 0xAD395C14 EQ PUSH2 0x452 JUMPI DUP1 PUSH4 0xB98079BC EQ PUSH2 0x472 JUMPI DUP1 PUSH4 0xBB72CAEF EQ PUSH2 0x485 JUMPI PUSH1 0x0 DUP1 REVERT JUMPDEST DUP1 PUSH4 0x76F8CBD5 EQ PUSH2 0x3DB JUMPI DUP1 PUSH4 0x89EE68BF EQ PUSH2 0x3EE JUMPI DUP1 PUSH4 0x9371DE2B EQ PUSH2 0x401 JUMPI DUP1 PUSH4 0x9720807C EQ PUSH2 0x414 JUMPI PUSH1 0x0 DUP1 REVERT JUMPDEST DUP1 PUSH4 0x4CEB48FD GT PUSH2 0x192 JUMPI DUP1 PUSH4 0x71FFEFFE GT PUSH2 0x161 JUMPI DUP1 PUSH4 0x71FFEFFE EQ PUSH2 0x38F JUMPI DUP1 PUSH4 0x7354A25F EQ PUSH2 0x3A2 JUMPI DUP1 PUSH4 0x7370F6CC EQ PUSH2 0x3B5 JUMPI DUP1 PUSH4 0x75362943 EQ PUSH2 0x3C8 JUMPI PUSH1 0x0 DUP1 REVERT JUMPDEST DUP1 PUSH4 0x4CEB48FD EQ PUSH2 0x2EF JUMPI DUP1 PUSH4 0x5D3EE0EE EQ PUSH2 0x30F JUMPI DUP1 PUSH4 0x65212F70 EQ PUSH2 0x317 JUMPI DUP1 PUSH4 0x666AC2FB EQ PUSH2 0x37C JUMPI PUSH1 0x0 DUP1 REVERT JUMPDEST DUP1 PUSH4 0x25299D67 GT PUSH2 0x1CE JUMPI DUP1 PUSH4 0x25299D67 EQ PUSH2 0x27C JUMPI DUP1 PUSH4 0x25FB0D55 EQ PUSH2 0x29C JUMPI DUP1 PUSH4 0x27B7AABC EQ PUSH2 0x2BC JUMPI DUP1 PUSH4 0x3B902AFE EQ PUSH2 0x2CF JUMPI PUSH1 0x0 DUP1 REVERT JUMPDEST DUP1 PUSH4 0xC6C56F9 EQ PUSH2 0x200 JUMPI DUP1 PUSH4 0x184B0938 EQ PUSH2 0x226 JUMPI DUP1 PUSH4 0x235B3A3D EQ PUSH2 0x246 JUMPI DUP1 PUSH4 0x24C67B03 EQ PUSH2 0x259 JUMPI JUMPDEST PUSH1 0x0 DUP1 REVERT JUMPDEST PUSH2 0x213 PUSH2 0x20E CALLDATASIZE PUSH1 0x4 PUSH2 0x3DFB JUMP JUMPDEST PUSH2 0x538 JUMP JUMPDEST PUSH1 0x40 MLOAD SWAP1 DUP2 MSTORE PUSH1 0x20 ADD JUMPDEST PUSH1 0x40 MLOAD DUP1 SWAP2 SUB SWAP1 RETURN JUMPDEST PUSH2 0x239 PUSH2 0x234 CALLDATASIZE PUSH1 0x4 PUSH2 0x3DFB JUMP JUMPDEST PUSH2 0x5C2 JUMP JUMPDEST PUSH1 0x40 MLOAD PUSH2 0x21D SWAP2 SWAP1 PUSH2 0x4257 JUMP JUMPDEST PUSH2 0x239 PUSH2 0x254 CALLDATASIZE PUSH1 0x4 PUSH2 0x3F68 JUMP JUMPDEST PUSH2 0x6E8 JUMP JUMPDEST PUSH2 0x26C PUSH2 0x267 CALLDATASIZE PUSH1 0x4 PUSH2 0x3F68 JUMP JUMPDEST PUSH2 0x80B JUMP JUMPDEST PUSH1 0x40 MLOAD SWAP1 ISZERO ISZERO DUP2 MSTORE PUSH1 0x20 ADD PUSH2 0x21D JUMP JUMPDEST PUSH2 0x28F PUSH2 0x28A CALLDATASIZE PUSH1 0x4 PUSH2 0x3E8A JUMP JUMPDEST PUSH2 0x8F5 JUMP JUMPDEST PUSH1 0x40 MLOAD PUSH2 0x21D SWAP2 SWAP1 PUSH2 0x436E JUMP JUMPDEST PUSH2 0x2AF PUSH2 0x2AA CALLDATASIZE PUSH1 0x4 PUSH2 0x3FC6 JUMP JUMPDEST PUSH2 0xB3F JUMP JUMPDEST PUSH1 0x40 MLOAD PUSH2 0x21D SWAP2 SWAP1 PUSH2 0x4381 JUMP JUMPDEST PUSH2 0x2AF PUSH2 0x2CA CALLDATASIZE PUSH1 0x4 PUSH2 0x3F68 JUMP JUMPDEST PUSH2 0xC5E JUMP JUMPDEST PUSH2 0x2E2 PUSH2 0x2DD CALLDATASIZE PUSH1 0x4 PUSH2 0x3DFB JUMP JUMPDEST PUSH2 0xCC9 JUMP JUMPDEST PUSH1 0x40 MLOAD PUSH2 0x21D SWAP2 SWAP1 PUSH2 0x41F5 JUMP JUMPDEST PUSH2 0x302 PUSH2 0x2FD CALLDATASIZE PUSH1 0x4 PUSH2 0x3E16 JUMP JUMPDEST PUSH2 0x1029 JUMP JUMPDEST PUSH1 0x40 MLOAD PUSH2 0x21D SWAP2 SWAP1 PUSH2 0x43B5 JUMP JUMPDEST PUSH2 0x2E2 PUSH2 0x11B7 JUMP JUMPDEST PUSH2 0x32A PUSH2 0x325 CALLDATASIZE PUSH1 0x4 PUSH2 0x3F68 JUMP JUMPDEST PUSH2 0x150C JUMP JUMPDEST PUSH1 0x40 MLOAD PUSH2 0x21D SWAP2 SWAP1 DUP2 MLOAD DUP2 MSTORE PUSH1 0x20 DUP1 DUP4 ADD MLOAD SWAP1 DUP3 ADD MSTORE PUSH1 0x40 DUP1 DUP4 ADD MLOAD PUSH1 0x1 PUSH1 0x1 PUSH1 0xA0 SHL SUB AND SWAP1 DUP3 ADD MSTORE PUSH1 0x60 DUP1 DUP4 ADD MLOAD SWAP1 DUP3 ADD MSTORE PUSH1 0x80 DUP1 DUP4 ADD MLOAD SWAP1 DUP3 ADD MSTORE PUSH1 0xA0 SWAP2 DUP3 ADD MLOAD ISZERO ISZERO SWAP2 DUP2 ADD SWAP2 SWAP1 SWAP2 MSTORE PUSH1 0xC0 ADD SWAP1 JUMP JUMPDEST PUSH2 0x213 PUSH2 0x38A CALLDATASIZE PUSH1 0x4 PUSH2 0x3DFB JUMP JUMPDEST PUSH2 0x1590 JUMP JUMPDEST PUSH2 0x26C PUSH2 0x39D CALLDATASIZE PUSH1 0x4 PUSH2 0x3DFB JUMP JUMPDEST PUSH2 0x162F JUMP JUMPDEST PUSH2 0x213 PUSH2 0x3B0 CALLDATASIZE PUSH1 0x4 PUSH2 0x3F68 JUMP JUMPDEST PUSH2 0x178D JUMP JUMPDEST PUSH2 0x26C PUSH2 0x3C3 CALLDATASIZE PUSH1 0x4 PUSH2 0x3F68 JUMP JUMPDEST PUSH2 0x1825 JUMP JUMPDEST PUSH2 0x26C PUSH2 0x3D6 CALLDATASIZE PUSH1 0x4 PUSH2 0x3F9A JUMP JUMPDEST PUSH2 0x1949 JUMP JUMPDEST PUSH2 0x213 PUSH2 0x3E9 CALLDATASIZE PUSH1 0x4 PUSH2 0x3F68 JUMP JUMPDEST PUSH2 0x1C17 JUMP JUMPDEST PUSH2 0x32A PUSH2 0x3FC CALLDATASIZE PUSH1 0x4 PUSH2 0x3F68 JUMP JUMPDEST PUSH2 0x1EEF JUMP JUMPDEST PUSH2 0x26C PUSH2 0x40F CALLDATASIZE PUSH1 0x4 PUSH2 0x3DFB JUMP JUMPDEST PUSH2 0x24DB JUMP JUMPDEST PUSH1 0x4 SLOAD PUSH2 0x427 SWAP1 PUSH1 0x1 PUSH1 0x1 PUSH1 0xA0 SHL SUB AND DUP2 JUMP JUMPDEST PUSH1 0x40 MLOAD PUSH1 0x1 PUSH1 0x1 PUSH1 0xA0 SHL SUB SWAP1 SWAP2 AND DUP2 MSTORE PUSH1 0x20 ADD PUSH2 0x21D JUMP JUMPDEST PUSH2 0x302 PUSH2 0x44D CALLDATASIZE PUSH1 0x4 PUSH2 0x3DFB JUMP JUMPDEST PUSH2 0x26E8 JUMP JUMPDEST PUSH2 0x465 PUSH2 0x460 CALLDATASIZE PUSH1 0x4 PUSH2 0x3F68 JUMP JUMPDEST PUSH2 0x28F8 JUMP JUMPDEST PUSH1 0x40 MLOAD PUSH2 0x21D SWAP2 SWAP1 PUSH2 0x42CC JUMP JUMPDEST PUSH2 0x28F PUSH2 0x480 CALLDATASIZE PUSH1 0x4 PUSH2 0x3F68 JUMP JUMPDEST PUSH2 0x2A21 JUMP JUMPDEST PUSH2 0x32A PUSH2 0x493 CALLDATASIZE PUSH1 0x4 PUSH2 0x3FFB JUMP JUMPDEST PUSH2 0x2D0F JUMP JUMPDEST PUSH2 0x213 PUSH2 0x4A6 CALLDATASIZE PUSH1 0x4 PUSH2 0x3DFB JUMP JUMPDEST PUSH2 0x2EA5 JUMP JUMPDEST PUSH2 0x302 PUSH2 0x4B9 CALLDATASIZE PUSH1 0x4 PUSH2 0x3F68 JUMP JUMPDEST PUSH2 0x318E JUMP JUMPDEST PUSH2 0x213 PUSH2 0x3374 JUMP JUMPDEST PUSH2 0x28F PUSH2 0x4D4 CALLDATASIZE PUSH1 0x4 PUSH2 0x3F68 JUMP JUMPDEST PUSH2 0x364B JUMP JUMPDEST PUSH2 0x26C PUSH2 0x4E7 CALLDATASIZE PUSH1 0x4 PUSH2 0x3F68 JUMP JUMPDEST PUSH2 0x37B5 JUMP JUMPDEST PUSH2 0x28F PUSH2 0x4FA CALLDATASIZE PUSH1 0x4 PUSH2 0x3F68 JUMP JUMPDEST PUSH2 0x388B JUMP JUMPDEST PUSH2 0x213 PUSH2 0x50D CALLDATASIZE PUSH1 0x4 PUSH2 0x3F68 JUMP JUMPDEST PUSH2 0x3A25 JUMP JUMPDEST PUSH2 0x26C PUSH2 0x520 CALLDATASIZE PUSH1 0x4 PUSH2 0x3F68 JUMP JUMPDEST PUSH2 0x3A8D JUMP JUMPDEST PUSH2 0x26C PUSH2 0x533 CALLDATASIZE PUSH1 0x4 PUSH2 0x3F9A JUMP JUMPDEST PUSH2 0x3B12 JUMP JUMPDEST PUSH1 0x9 SLOAD PUSH1 0x40 MLOAD PUSH4 0x6EB1769F PUSH1 0xE1 SHL DUP2 MSTORE PUSH1 0x1 PUSH1 0x1 PUSH1 0xA0 SHL SUB DUP4 DUP2 AND PUSH1 0x4 DUP4 ADD MSTORE ADDRESS PUSH1 0x24 DUP4 ADD MSTORE PUSH1 0x0 SWAP3 AND SWAP1 PUSH4 0xDD62ED3E SWAP1 PUSH1 0x44 ADD PUSH1 0x20 PUSH1 0x40 MLOAD DUP1 DUP4 SUB DUP2 DUP7 DUP1 EXTCODESIZE ISZERO DUP1 ISZERO PUSH2 0x584 JUMPI PUSH1 0x0 DUP1 REVERT JUMPDEST POP GAS STATICCALL ISZERO DUP1 ISZERO PUSH2 0x598 JUMPI RETURNDATASIZE PUSH1 0x0 DUP1 RETURNDATACOPY RETURNDATASIZE PUSH1 0x0 REVERT JUMPDEST POP POP POP POP PUSH1 0x40 MLOAD RETURNDATASIZE PUSH1 0x1F NOT PUSH1 0x1F DUP3 ADD AND DUP3 ADD DUP1 PUSH1 0x40 MSTORE POP DUP2 ADD SWAP1 PUSH2 0x5BC SWAP2 SWAP1 PUSH2 0x3F81 JUMP JUMPDEST SWAP3 SWAP2 POP POP JUMP JUMPDEST PUSH1 0x60 PUSH1 0x0 DUP1 PUSH2 0x5D0 DUP5 PUSH2 0x1590 JUMP JUMPDEST PUSH8 0xFFFFFFFFFFFFFFFF DUP2 GT ISZERO PUSH2 0x5E8 JUMPI PUSH2 0x5E8 PUSH2 0x458B JUMP JUMPDEST PUSH1 0x40 MLOAD SWAP1 DUP1 DUP3 MSTORE DUP1 PUSH1 0x20 MUL PUSH1 0x20 ADD DUP3 ADD PUSH1 0x40 MSTORE DUP1 ISZERO PUSH2 0x621 JUMPI DUP2 PUSH1 0x20 ADD JUMPDEST PUSH2 0x60E PUSH2 0x3B80 JUMP JUMPDEST DUP2 MSTORE PUSH1 0x20 ADD SWAP1 PUSH1 0x1 SWAP1 SUB SWAP1 DUP2 PUSH2 0x606 JUMPI SWAP1 POP JUMPDEST POP SWAP1 POP PUSH1 0x0 JUMPDEST PUSH1 0x2 SLOAD DUP2 LT ISZERO PUSH2 0x6E0 JUMPI PUSH1 0x0 PUSH1 0x2 DUP3 DUP2 SLOAD DUP2 LT PUSH2 0x646 JUMPI PUSH2 0x646 PUSH2 0x4575 JUMP JUMPDEST PUSH1 0x0 SWAP2 DUP3 MSTORE PUSH1 0x20 SWAP2 DUP3 SWAP1 KECCAK256 PUSH1 0x40 DUP1 MLOAD PUSH1 0x80 DUP2 ADD DUP3 MSTORE PUSH1 0x4 SWAP1 SWAP4 MUL SWAP1 SWAP2 ADD DUP1 SLOAD DUP4 MSTORE PUSH1 0x1 DUP2 ADD SLOAD SWAP4 DUP4 ADD SWAP4 SWAP1 SWAP4 MSTORE PUSH1 0x2 DUP4 ADD SLOAD PUSH1 0x1 PUSH1 0x1 PUSH1 0xA0 SHL SUB SWAP1 DUP2 AND SWAP2 DUP4 ADD DUP3 SWAP1 MSTORE PUSH1 0x3 SWAP1 SWAP4 ADD SLOAD PUSH1 0x60 DUP4 ADD MSTORE SWAP1 SWAP3 POP SWAP1 DUP8 AND EQ ISZERO PUSH2 0x6CD JUMPI DUP1 DUP4 DUP6 DUP2 MLOAD DUP2 LT PUSH2 0x6B3 JUMPI PUSH2 0x6B3 PUSH2 0x4575 JUMP JUMPDEST PUSH1 0x20 MUL PUSH1 0x20 ADD ADD DUP2 SWAP1 MSTORE POP DUP4 DUP1 PUSH2 0x6C9 SWAP1 PUSH2 0x4544 JUMP JUMPDEST SWAP5 POP POP JUMPDEST POP DUP1 PUSH2 0x6D8 DUP2 PUSH2 0x4544 JUMP JUMPDEST SWAP2 POP POP PUSH2 0x627 JUMP JUMPDEST POP SWAP4 SWAP3 POP POP POP JUMP JUMPDEST PUSH1 0x60 PUSH1 0x0 DUP1 PUSH2 0x6F6 DUP5 PUSH2 0x178D JUMP JUMPDEST SWAP1 POP PUSH1 0x0 DUP2 PUSH8 0xFFFFFFFFFFFFFFFF DUP2 GT ISZERO PUSH2 0x713 JUMPI PUSH2 0x713 PUSH2 0x458B JUMP JUMPDEST PUSH1 0x40 MLOAD SWAP1 DUP1 DUP3 MSTORE DUP1 PUSH1 0x20 MUL PUSH1 0x20 ADD DUP3 ADD PUSH1 0x40 MSTORE DUP1 ISZERO PUSH2 0x74C JUMPI DUP2 PUSH1 0x20 ADD JUMPDEST PUSH2 0x739 PUSH2 0x3B80 JUMP JUMPDEST DUP2 MSTORE PUSH1 0x20 ADD SWAP1 PUSH1 0x1 SWAP1 SUB SWAP1 DUP2 PUSH2 0x731 JUMPI SWAP1 POP JUMPDEST POP SWAP1 POP PUSH1 0x0 JUMPDEST DUP3 DUP2 LT ISZERO PUSH2 0x802 JUMPI PUSH1 0x0 PUSH1 0x2 DUP3 DUP2 SLOAD DUP2 LT PUSH2 0x76F JUMPI PUSH2 0x76F PUSH2 0x4575 JUMP JUMPDEST PUSH1 0x0 SWAP2 DUP3 MSTORE PUSH1 0x20 SWAP2 DUP3 SWAP1 KECCAK256 PUSH1 0x40 DUP1 MLOAD PUSH1 0x80 DUP2 ADD DUP3 MSTORE PUSH1 0x4 SWAP1 SWAP4 MUL SWAP1 SWAP2 ADD DUP1 SLOAD DUP4 MSTORE PUSH1 0x1 DUP2 ADD SLOAD SWAP4 DUP4 ADD DUP5 SWAP1 MSTORE PUSH1 0x2 DUP2 ADD SLOAD PUSH1 0x1 PUSH1 0x1 PUSH1 0xA0 SHL SUB AND SWAP2 DUP4 ADD SWAP2 SWAP1 SWAP2 MSTORE PUSH1 0x3 ADD SLOAD PUSH1 0x60 DUP3 ADD MSTORE SWAP2 POP DUP8 EQ ISZERO PUSH2 0x7EF JUMPI DUP1 DUP4 DUP7 DUP2 MLOAD DUP2 LT PUSH2 0x7D5 JUMPI PUSH2 0x7D5 PUSH2 0x4575 JUMP JUMPDEST PUSH1 0x20 MUL PUSH1 0x20 ADD ADD DUP2 SWAP1 MSTORE POP DUP5 DUP1 PUSH2 0x7EB SWAP1 PUSH2 0x4544 JUMP JUMPDEST SWAP6 POP POP JUMPDEST POP DUP1 PUSH2 0x7FA DUP2 PUSH2 0x4544 JUMP JUMPDEST SWAP2 POP POP PUSH2 0x752 JUMP JUMPDEST POP SWAP5 SWAP4 POP POP POP POP JUMP JUMPDEST PUSH1 0x0 DUP2 PUSH2 0x818 DUP2 CALLER PUSH2 0x1949 JUMP JUMPDEST PUSH2 0x83D JUMPI PUSH1 0x40 MLOAD PUSH3 0x461BCD PUSH1 0xE5 SHL DUP2 MSTORE PUSH1 0x4 ADD PUSH2 0x834 SWAP1 PUSH2 0x4321 JUMP JUMPDEST PUSH1 0x40 MLOAD DUP1 SWAP2 SUB SWAP1 REVERT JUMPDEST PUSH1 0x0 JUMPDEST PUSH1 0x3 SLOAD DUP2 LT ISZERO PUSH2 0x8E9 JUMPI PUSH1 0x0 PUSH1 0x3 DUP3 DUP2 SLOAD DUP2 LT PUSH2 0x85F JUMPI PUSH2 0x85F PUSH2 0x4575 JUMP JUMPDEST PUSH1 0x0 SWAP2 DUP3 MSTORE PUSH1 0x20 SWAP2 DUP3 SWAP1 KECCAK256 PUSH1 0x40 DUP1 MLOAD PUSH1 0xC0 DUP2 ADD DUP3 MSTORE PUSH1 0x6 SWAP1 SWAP4 MUL SWAP1 SWAP2 ADD DUP1 SLOAD DUP4 MSTORE PUSH1 0x1 DUP2 ADD SLOAD SWAP4 DUP4 ADD DUP5 SWAP1 MSTORE PUSH1 0x2 DUP2 ADD SLOAD PUSH1 0x1 PUSH1 0x1 PUSH1 0xA0 SHL SUB AND SWAP2 DUP4 ADD SWAP2 SWAP1 SWAP2 MSTORE PUSH1 0x3 DUP2 ADD SLOAD PUSH1 0x60 DUP4 ADD MSTORE PUSH1 0x4 DUP2 ADD SLOAD PUSH1 0x80 DUP4 ADD MSTORE PUSH1 0x5 ADD SLOAD PUSH1 0xFF AND ISZERO ISZERO PUSH1 0xA0 DUP3 ADD MSTORE SWAP2 POP DUP6 EQ ISZERO PUSH2 0x8D6 JUMPI PUSH1 0x1 SWAP4 POP POP POP PUSH2 0x8EF JUMP JUMPDEST POP DUP1 PUSH2 0x8E1 DUP2 PUSH2 0x4544 JUMP JUMPDEST SWAP2 POP POP PUSH2 0x840 JUMP JUMPDEST POP PUSH1 0x0 SWAP2 POP JUMPDEST POP SWAP2 SWAP1 POP JUMP JUMPDEST PUSH2 0x8FD PUSH2 0x3BB1 JUMP JUMPDEST PUSH1 0x6 SLOAD PUSH1 0x40 DUP1 MLOAD PUSH2 0x1E0 DUP2 ADD DUP3 MSTORE DUP3 DUP2 MSTORE PUSH1 0x1 PUSH1 0x1 PUSH1 0xA0 SHL SUB DUP12 DUP2 AND PUSH1 0x20 DUP1 DUP5 ADD SWAP2 DUP3 MSTORE SWAP4 DUP4 ADD DUP13 DUP2 MSTORE PUSH1 0x60 DUP5 ADD DUP13 SWAP1 MSTORE PUSH1 0x80 DUP5 ADD DUP12 SWAP1 MSTORE PUSH1 0xA0 DUP5 ADD DUP11 SWAP1 MSTORE TIMESTAMP PUSH1 0xC0 DUP6 ADD DUP2 SWAP1 MSTORE PUSH1 0xE0 DUP6 ADD DUP2 SWAP1 MSTORE PUSH2 0x100 DUP6 ADD DUP11 SWAP1 MSTORE PUSH1 0x0 PUSH2 0x120 DUP7 ADD DUP2 SWAP1 MSTORE DUP10 ISZERO ISZERO PUSH2 0x140 DUP8 ADD MSTORE PUSH2 0x160 DUP7 ADD DUP2 SWAP1 MSTORE PUSH2 0x180 DUP7 ADD DUP2 SWAP1 MSTORE PUSH2 0x1A0 DUP7 ADD DUP2 SWAP1 MSTORE PUSH2 0x1C0 DUP7 ADD DUP2 SWAP1 MSTORE PUSH1 0x1 DUP1 SLOAD DUP1 DUP3 ADD DUP3 SSTORE SWAP2 MSTORE DUP6 MLOAD PUSH32 0xB10E2D527612073B26EECDFD717E6A320CF44B4AFAC2B0732D9FCBE2B7FA0CF6 PUSH1 0xC SWAP1 SWAP3 MUL SWAP2 DUP3 ADD SWAP1 DUP2 SSTORE SWAP4 MLOAD PUSH32 0xB10E2D527612073B26EECDFD717E6A320CF44B4AFAC2B0732D9FCBE2B7FA0CF7 DUP3 ADD DUP1 SLOAD PUSH1 0x1 PUSH1 0x1 PUSH1 0xA0 SHL SUB NOT AND SWAP2 SWAP1 SWAP7 AND OR SWAP1 SWAP5 SSTORE SWAP1 MLOAD DUP1 MLOAD SWAP2 SWAP6 DUP7 SWAP6 SWAP5 PUSH2 0xA33 SWAP4 PUSH32 0xB10E2D527612073B26EECDFD717E6A320CF44B4AFAC2B0732D9FCBE2B7FA0CF8 SWAP1 SWAP2 ADD SWAP3 SWAP1 SWAP2 ADD SWAP1 PUSH2 0x3C3A JUMP JUMPDEST POP PUSH1 0x60 DUP3 ADD MLOAD DUP1 MLOAD PUSH2 0xA4F SWAP2 PUSH1 0x3 DUP5 ADD SWAP2 PUSH1 0x20 SWAP1 SWAP2 ADD SWAP1 PUSH2 0x3C3A JUMP JUMPDEST POP PUSH1 0x80 DUP3 ADD MLOAD DUP1 MLOAD PUSH2 0xA6B SWAP2 PUSH1 0x4 DUP5 ADD SWAP2 PUSH1 0x20 SWAP1 SWAP2 ADD SWAP1 PUSH2 0x3C3A JUMP JUMPDEST POP PUSH1 0xA0 DUP3 ADD MLOAD PUSH1 0x5 DUP3 ADD SSTORE PUSH1 0xC0 DUP3 ADD MLOAD PUSH1 0x6 DUP1 DUP4 ADD SWAP2 SWAP1 SWAP2 SSTORE PUSH1 0xE0 DUP4 ADD MLOAD PUSH1 0x7 DUP4 ADD SSTORE PUSH2 0x100 DUP1 DUP5 ADD MLOAD PUSH1 0x8 DUP5 ADD SSTORE PUSH2 0x120 DUP5 ADD MLOAD PUSH1 0x9 DUP5 ADD DUP1 SLOAD PUSH2 0x140 DUP8 ADD MLOAD PUSH2 0x160 DUP9 ADD MLOAD ISZERO ISZERO PUSH3 0x10000 MUL PUSH3 0xFF0000 NOT SWAP2 ISZERO ISZERO DUP7 MUL PUSH2 0xFF00 NOT SWAP6 ISZERO ISZERO DUP7 AND PUSH2 0xFFFF NOT SWAP5 DUP6 AND OR OR SWAP2 SWAP1 SWAP2 AND OR SWAP1 SWAP2 SSTORE PUSH2 0x180 DUP7 ADD MLOAD PUSH1 0xA DUP7 ADD SSTORE PUSH2 0x1A0 DUP7 ADD MLOAD PUSH1 0xB SWAP1 SWAP6 ADD DUP1 SLOAD PUSH2 0x1C0 SWAP1 SWAP8 ADD MLOAD ISZERO ISZERO SWAP1 SWAP4 MUL SWAP5 ISZERO ISZERO SWAP1 SWAP2 AND SWAP5 AND SWAP4 SWAP1 SWAP4 OR SWAP2 SWAP1 SWAP2 OR SWAP1 SWAP2 SSTORE DUP1 SLOAD SWAP1 PUSH1 0x0 PUSH2 0xB22 DUP4 PUSH2 0x4544 JUMP JUMPDEST SWAP2 SWAP1 POP SSTORE POP PUSH2 0xB30 DUP4 PUSH2 0x2A21 JUMP JUMPDEST SWAP12 SWAP11 POP POP POP POP POP POP POP POP POP POP POP JUMP JUMPDEST PUSH2 0xB47 PUSH2 0x3B80 JUMP JUMPDEST PUSH1 0x7 DUP1 SLOAD PUSH1 0x40 DUP1 MLOAD PUSH1 0x80 DUP2 ADD DUP3 MSTORE DUP3 DUP2 MSTORE PUSH1 0x20 DUP2 ADD DUP9 DUP2 MSTORE PUSH1 0x1 PUSH1 0x1 PUSH1 0xA0 SHL SUB DUP9 DUP2 AND SWAP4 DUP4 ADD SWAP4 DUP5 MSTORE PUSH1 0x60 DUP4 ADD DUP9 DUP2 MSTORE PUSH1 0x2 DUP1 SLOAD PUSH1 0x1 DUP2 ADD DUP3 SSTORE PUSH1 0x0 SWAP2 DUP3 MSTORE SWAP5 MLOAD PUSH32 0x405787FA12A823E0F2B7631CC41B3BA8828B3321CA811111FA75CD3AA3BB5ACE PUSH1 0x4 SWAP1 SWAP7 MUL SWAP6 DUP7 ADD SSTORE SWAP3 MLOAD PUSH32 0x405787FA12A823E0F2B7631CC41B3BA8828B3321CA811111FA75CD3AA3BB5ACF DUP6 ADD SSTORE SWAP4 MLOAD PUSH32 0x405787FA12A823E0F2B7631CC41B3BA8828B3321CA811111FA75CD3AA3BB5AD0 DUP5 ADD DUP1 SLOAD PUSH1 0x1 PUSH1 0x1 PUSH1 0xA0 SHL SUB NOT AND SWAP2 SWAP1 SWAP3 AND OR SWAP1 SSTORE SWAP2 MLOAD PUSH32 0x405787FA12A823E0F2B7631CC41B3BA8828B3321CA811111FA75CD3AA3BB5AD1 SWAP1 SWAP2 ADD SSTORE DUP3 SLOAD SWAP2 SWAP3 SWAP1 PUSH2 0xC45 DUP4 PUSH2 0x4544 JUMP JUMPDEST SWAP2 SWAP1 POP SSTORE POP PUSH2 0xC53 DUP2 PUSH2 0xC5E JUMP JUMPDEST SWAP2 POP POP JUMPDEST SWAP4 SWAP3 POP POP POP JUMP JUMPDEST PUSH2 0xC66 PUSH2 0x3B80 JUMP JUMPDEST PUSH1 0x2 DUP3 DUP2 SLOAD DUP2 LT PUSH2 0xC79 JUMPI PUSH2 0xC79 PUSH2 0x4575 JUMP JUMPDEST PUSH1 0x0 SWAP2 DUP3 MSTORE PUSH1 0x20 SWAP2 DUP3 SWAP1 KECCAK256 PUSH1 0x40 DUP1 MLOAD PUSH1 0x80 DUP2 ADD DUP3 MSTORE PUSH1 0x4 SWAP1 SWAP4 MUL SWAP1 SWAP2 ADD DUP1 SLOAD DUP4 MSTORE PUSH1 0x1 DUP2 ADD SLOAD SWAP4 DUP4 ADD SWAP4 SWAP1 SWAP4 MSTORE PUSH1 0x2 DUP4 ADD SLOAD PUSH1 0x1 PUSH1 0x1 PUSH1 0xA0 SHL SUB AND SWAP1 DUP3 ADD MSTORE PUSH1 0x3 SWAP1 SWAP2 ADD SLOAD PUSH1 0x60 DUP3 ADD MSTORE SWAP3 SWAP2 POP POP JUMP JUMPDEST PUSH1 0x60 PUSH1 0x0 PUSH2 0xCD6 DUP4 PUSH2 0x2EA5 JUMP JUMPDEST PUSH8 0xFFFFFFFFFFFFFFFF DUP2 GT ISZERO PUSH2 0xCEE JUMPI PUSH2 0xCEE PUSH2 0x458B JUMP JUMPDEST PUSH1 0x40 MLOAD SWAP1 DUP1 DUP3 MSTORE DUP1 PUSH1 0x20 MUL PUSH1 0x20 ADD DUP3 ADD PUSH1 0x40 MSTORE DUP1 ISZERO PUSH2 0xD27 JUMPI DUP2 PUSH1 0x20 ADD JUMPDEST PUSH2 0xD14 PUSH2 0x3BB1 JUMP JUMPDEST DUP2 MSTORE PUSH1 0x20 ADD SWAP1 PUSH1 0x1 SWAP1 SUB SWAP1 DUP2 PUSH2 0xD0C JUMPI SWAP1 POP JUMPDEST POP SWAP1 POP PUSH1 0x0 JUMPDEST PUSH1 0x1 SLOAD DUP2 LT ISZERO PUSH2 0x1022 JUMPI PUSH1 0x0 PUSH1 0x1 DUP3 DUP2 SLOAD DUP2 LT PUSH2 0xD4C JUMPI PUSH2 0xD4C PUSH2 0x4575 JUMP JUMPDEST SWAP1 PUSH1 0x0 MSTORE PUSH1 0x20 PUSH1 0x0 KECCAK256 SWAP1 PUSH1 0xC MUL ADD PUSH1 0x40 MLOAD DUP1 PUSH2 0x1E0 ADD PUSH1 0x40 MSTORE SWAP1 DUP2 PUSH1 0x0 DUP3 ADD SLOAD DUP2 MSTORE PUSH1 0x20 ADD PUSH1 0x1 DUP3 ADD PUSH1 0x0 SWAP1 SLOAD SWAP1 PUSH2 0x100 EXP SWAP1 DIV PUSH1 0x1 PUSH1 0x1 PUSH1 0xA0 SHL SUB AND PUSH1 0x1 PUSH1 0x1 PUSH1 0xA0 SHL SUB AND PUSH1 0x1 PUSH1 0x1 PUSH1 0xA0 SHL SUB AND DUP2 MSTORE PUSH1 0x20 ADD PUSH1 0x2 DUP3 ADD DUP1 SLOAD PUSH2 0xDAF SWAP1 PUSH2 0x450F JUMP JUMPDEST DUP1 PUSH1 0x1F ADD PUSH1 0x20 DUP1 SWAP2 DIV MUL PUSH1 0x20 ADD PUSH1 0x40 MLOAD SWAP1 DUP2 ADD PUSH1 0x40 MSTORE DUP1 SWAP3 SWAP2 SWAP1 DUP2 DUP2 MSTORE PUSH1 0x20 ADD DUP3 DUP1 SLOAD PUSH2 0xDDB SWAP1 PUSH2 0x450F JUMP JUMPDEST DUP1 ISZERO PUSH2 0xE28 JUMPI DUP1 PUSH1 0x1F LT PUSH2 0xDFD JUMPI PUSH2 0x100 DUP1 DUP4 SLOAD DIV MUL DUP4 MSTORE SWAP2 PUSH1 0x20 ADD SWAP2 PUSH2 0xE28 JUMP JUMPDEST DUP3 ADD SWAP2 SWAP1 PUSH1 0x0 MSTORE PUSH1 0x20 PUSH1 0x0 KECCAK256 SWAP1 JUMPDEST DUP2 SLOAD DUP2 MSTORE SWAP1 PUSH1 0x1 ADD SWAP1 PUSH1 0x20 ADD DUP1 DUP4 GT PUSH2 0xE0B JUMPI DUP3 SWAP1 SUB PUSH1 0x1F AND DUP3 ADD SWAP2 JUMPDEST POP POP POP POP POP DUP2 MSTORE PUSH1 0x20 ADD PUSH1 0x3 DUP3 ADD DUP1 SLOAD PUSH2 0xE41 SWAP1 PUSH2 0x450F JUMP JUMPDEST DUP1 PUSH1 0x1F ADD PUSH1 0x20 DUP1 SWAP2 DIV MUL PUSH1 0x20 ADD PUSH1 0x40 MLOAD SWAP1 DUP2 ADD PUSH1 0x40 MSTORE DUP1 SWAP3 SWAP2 SWAP1 DUP2 DUP2 MSTORE PUSH1 0x20 ADD DUP3 DUP1 SLOAD PUSH2 0xE6D SWAP1 PUSH2 0x450F JUMP JUMPDEST DUP1 ISZERO PUSH2 0xEBA JUMPI DUP1 PUSH1 0x1F LT PUSH2 0xE8F JUMPI PUSH2 0x100 DUP1 DUP4 SLOAD DIV MUL DUP4 MSTORE SWAP2 PUSH1 0x20 ADD SWAP2 PUSH2 0xEBA JUMP JUMPDEST DUP3 ADD SWAP2 SWAP1 PUSH1 0x0 MSTORE PUSH1 0x20 PUSH1 0x0 KECCAK256 SWAP1 JUMPDEST DUP2 SLOAD DUP2 MSTORE SWAP1 PUSH1 0x1 ADD SWAP1 PUSH1 0x20 ADD DUP1 DUP4 GT PUSH2 0xE9D JUMPI DUP3 SWAP1 SUB PUSH1 0x1F AND DUP3 ADD SWAP2 JUMPDEST POP POP POP POP POP DUP2 MSTORE PUSH1 0x20 ADD PUSH1 0x4 DUP3 ADD DUP1 SLOAD PUSH2 0xED3 SWAP1 PUSH2 0x450F JUMP JUMPDEST DUP1 PUSH1 0x1F ADD PUSH1 0x20 DUP1 SWAP2 DIV MUL PUSH1 0x20 ADD PUSH1 0x40 MLOAD SWAP1 DUP2 ADD PUSH1 0x40 MSTORE DUP1 SWAP3 SWAP2 SWAP1 DUP2 DUP2 MSTORE PUSH1 0x20 ADD DUP3 DUP1 SLOAD PUSH2 0xEFF SWAP1 PUSH2 0x450F JUMP JUMPDEST DUP1 ISZERO PUSH2 0xF4C JUMPI DUP1 PUSH1 0x1F LT PUSH2 0xF21 JUMPI PUSH2 0x100 DUP1 DUP4 SLOAD DIV MUL DUP4 MSTORE SWAP2 PUSH1 0x20 ADD SWAP2 PUSH2 0xF4C JUMP JUMPDEST DUP3 ADD SWAP2 SWAP1 PUSH1 0x0 MSTORE PUSH1 0x20 PUSH1 0x0 KECCAK256 SWAP1 JUMPDEST DUP2 SLOAD DUP2 MSTORE SWAP1 PUSH1 0x1 ADD SWAP1 PUSH1 0x20 ADD DUP1 DUP4 GT PUSH2 0xF2F JUMPI DUP3 SWAP1 SUB PUSH1 0x1F AND DUP3 ADD SWAP2 JUMPDEST POP POP POP SWAP2 DUP4 MSTORE POP POP PUSH1 0x5 DUP3 ADD SLOAD PUSH1 0x20 DUP1 DUP4 ADD SWAP2 SWAP1 SWAP2 MSTORE PUSH1 0x6 DUP4 ADD SLOAD PUSH1 0x40 DUP4 ADD MSTORE PUSH1 0x7 DUP4 ADD SLOAD PUSH1 0x60 DUP4 ADD MSTORE PUSH1 0x8 DUP4 ADD SLOAD PUSH1 0x80 DUP4 ADD MSTORE PUSH1 0x9 DUP4 ADD SLOAD PUSH1 0xFF DUP1 DUP3 AND ISZERO ISZERO PUSH1 0xA0 DUP6 ADD MSTORE PUSH2 0x100 DUP1 DUP4 DIV DUP3 AND ISZERO ISZERO PUSH1 0xC0 DUP7 ADD MSTORE PUSH3 0x10000 SWAP1 SWAP3 DIV DUP2 AND ISZERO ISZERO PUSH1 0xE0 DUP6 ADD MSTORE PUSH1 0xA DUP6 ADD SLOAD DUP3 DUP6 ADD MSTORE PUSH1 0xB SWAP1 SWAP5 ADD SLOAD DUP1 DUP6 AND ISZERO ISZERO PUSH2 0x120 DUP6 ADD MSTORE DIV SWAP1 SWAP3 AND ISZERO ISZERO PUSH2 0x140 SWAP1 SWAP2 ADD MSTORE DUP2 ADD MLOAD SWAP1 SWAP2 POP PUSH1 0x1 PUSH1 0x1 PUSH1 0xA0 SHL SUB DUP7 DUP2 AND SWAP2 AND EQ ISZERO PUSH2 0x100F JUMPI DUP1 DUP4 DUP4 DUP2 MLOAD DUP2 LT PUSH2 0x1003 JUMPI PUSH2 0x1003 PUSH2 0x4575 JUMP JUMPDEST PUSH1 0x20 MUL PUSH1 0x20 ADD ADD DUP2 SWAP1 MSTORE POP JUMPDEST POP DUP1 PUSH2 0x101A DUP2 PUSH2 0x4544 JUMP JUMPDEST SWAP2 POP POP PUSH2 0xD2D JUMP JUMPDEST POP SWAP3 SWAP2 POP POP JUMP JUMPDEST PUSH2 0x1031 PUSH2 0x3CBE JUMP JUMPDEST PUSH1 0x0 PUSH2 0x103C DUP6 PUSH2 0x24DB JUMP JUMPDEST SWAP1 POP DUP1 ISZERO PUSH2 0x1055 JUMPI PUSH2 0x104D DUP6 PUSH2 0x26E8 JUMP JUMPDEST SWAP2 POP POP PUSH2 0xC57 JUMP JUMPDEST PUSH1 0x5 DUP1 SLOAD PUSH1 0x40 DUP1 MLOAD PUSH1 0xC0 DUP2 ADD DUP3 MSTORE DUP3 DUP2 MSTORE PUSH1 0x1 PUSH1 0x1 PUSH1 0xA0 SHL SUB DUP1 DUP11 AND PUSH1 0x20 DUP1 DUP5 ADD SWAP2 DUP3 MSTORE SWAP4 DUP4 ADD DUP11 DUP2 MSTORE PUSH1 0x60 DUP5 ADD DUP11 SWAP1 MSTORE PUSH1 0x0 PUSH1 0x80 DUP6 ADD DUP2 SWAP1 MSTORE PUSH1 0xA0 DUP6 ADD DUP2 SWAP1 MSTORE DUP1 SLOAD PUSH1 0x1 DUP2 ADD DUP3 SSTORE SWAP1 DUP1 MSTORE DUP5 MLOAD SWAP8 MUL PUSH32 0x290DECD9548B62A8D60345A988386FC84BA6BC95484008F6362F93160EF3E563 DUP2 ADD SWAP8 DUP9 SSTORE SWAP2 MLOAD PUSH32 0x290DECD9548B62A8D60345A988386FC84BA6BC95484008F6362F93160EF3E564 DUP4 ADD DUP1 SLOAD SWAP2 SWAP1 SWAP5 AND PUSH1 0x1 PUSH1 0x1 PUSH1 0xA0 SHL SUB NOT SWAP1 SWAP2 AND OR SWAP1 SWAP3 SSTORE SWAP1 MLOAD DUP1 MLOAD SWAP5 SWAP6 SWAP3 SWAP5 SWAP3 SWAP4 PUSH2 0x1141 SWAP4 PUSH32 0x290DECD9548B62A8D60345A988386FC84BA6BC95484008F6362F93160EF3E565 SWAP1 SWAP4 ADD SWAP3 SWAP2 ADD SWAP1 PUSH2 0x3C3A JUMP JUMPDEST POP PUSH1 0x60 DUP3 ADD MLOAD DUP1 MLOAD PUSH2 0x115D SWAP2 PUSH1 0x3 DUP5 ADD SWAP2 PUSH1 0x20 SWAP1 SWAP2 ADD SWAP1 PUSH2 0x3C3A JUMP JUMPDEST POP PUSH1 0x80 DUP3 ADD MLOAD PUSH1 0x4 SWAP1 SWAP2 ADD DUP1 SLOAD PUSH1 0xA0 SWAP1 SWAP4 ADD MLOAD ISZERO ISZERO PUSH2 0x100 MUL PUSH2 0xFF00 NOT SWAP3 ISZERO ISZERO SWAP3 SWAP1 SWAP3 AND PUSH2 0xFFFF NOT SWAP1 SWAP4 AND SWAP3 SWAP1 SWAP3 OR OR SWAP1 SSTORE PUSH1 0x5 DUP1 SLOAD SWAP1 PUSH1 0x0 PUSH2 0x119F DUP4 PUSH2 0x4544 JUMP JUMPDEST SWAP2 SWAP1 POP SSTORE POP PUSH2 0x11AD DUP2 PUSH2 0x318E JUMP JUMPDEST SWAP7 SWAP6 POP POP POP POP POP POP JUMP JUMPDEST PUSH1 0x60 PUSH1 0x0 DUP1 PUSH2 0x11C4 PUSH2 0x3374 JUMP JUMPDEST PUSH8 0xFFFFFFFFFFFFFFFF DUP2 GT ISZERO PUSH2 0x11DC JUMPI PUSH2 0x11DC PUSH2 0x458B JUMP JUMPDEST PUSH1 0x40 MLOAD SWAP1 DUP1 DUP3 MSTORE DUP1 PUSH1 0x20 MUL PUSH1 0x20 ADD DUP3 ADD PUSH1 0x40 MSTORE DUP1 ISZERO PUSH2 0x1215 JUMPI DUP2 PUSH1 0x20 ADD JUMPDEST PUSH2 0x1202 PUSH2 0x3BB1 JUMP JUMPDEST DUP2 MSTORE PUSH1 0x20 ADD SWAP1 PUSH1 0x1 SWAP1 SUB SWAP1 DUP2 PUSH2 0x11FA JUMPI SWAP1 POP JUMPDEST POP SWAP1 POP PUSH1 0x0 JUMPDEST PUSH1 0x1 SLOAD DUP2 LT ISZERO PUSH2 0x1022 JUMPI PUSH1 0x0 PUSH1 0x1 DUP3 DUP2 SLOAD DUP2 LT PUSH2 0x123A JUMPI PUSH2 0x123A PUSH2 0x4575 JUMP JUMPDEST SWAP1 PUSH1 0x0 MSTORE PUSH1 0x20 PUSH1 0x0 KECCAK256 SWAP1 PUSH1 0xC MUL ADD PUSH1 0x40 MLOAD DUP1 PUSH2 0x1E0 ADD PUSH1 0x40 MSTORE SWAP1 DUP2 PUSH1 0x0 DUP3 ADD SLOAD DUP2 MSTORE PUSH1 0x20 ADD PUSH1 0x1 DUP3 ADD PUSH1 0x0 SWAP1 SLOAD SWAP1 PUSH2 0x100 EXP SWAP1 DIV PUSH1 0x1 PUSH1 0x1 PUSH1 0xA0 SHL SUB AND PUSH1 0x1 PUSH1 0x1 PUSH1 0xA0 SHL SUB AND PUSH1 0x1 PUSH1 0x1 PUSH1 0xA0 SHL SUB AND DUP2 MSTORE PUSH1 0x20 ADD PUSH1 0x2 DUP3 ADD DUP1 SLOAD PUSH2 0x129D SWAP1 PUSH2 0x450F JUMP JUMPDEST DUP1 PUSH1 0x1F ADD PUSH1 0x20 DUP1 SWAP2 DIV MUL PUSH1 0x20 ADD PUSH1 0x40 MLOAD SWAP1 DUP2 ADD PUSH1 0x40 MSTORE DUP1 SWAP3 SWAP2 SWAP1 DUP2 DUP2 MSTORE PUSH1 0x20 ADD DUP3 DUP1 SLOAD PUSH2 0x12C9 SWAP1 PUSH2 0x450F JUMP JUMPDEST DUP1 ISZERO PUSH2 0x1316 JUMPI DUP1 PUSH1 0x1F LT PUSH2 0x12EB JUMPI PUSH2 0x100 DUP1 DUP4 SLOAD DIV MUL DUP4 MSTORE SWAP2 PUSH1 0x20 ADD SWAP2 PUSH2 0x1316 JUMP JUMPDEST DUP3 ADD SWAP2 SWAP1 PUSH1 0x0 MSTORE PUSH1 0x20 PUSH1 0x0 KECCAK256 SWAP1 JUMPDEST DUP2 SLOAD DUP2 MSTORE SWAP1 PUSH1 0x1 ADD SWAP1 PUSH1 0x20 ADD DUP1 DUP4 GT PUSH2 0x12F9 JUMPI DUP3 SWAP1 SUB PUSH1 0x1F AND DUP3 ADD SWAP2 JUMPDEST POP POP POP POP POP DUP2 MSTORE PUSH1 0x20 ADD PUSH1 0x3 DUP3 ADD DUP1 SLOAD PUSH2 0x132F SWAP1 PUSH2 0x450F JUMP JUMPDEST DUP1 PUSH1 0x1F ADD PUSH1 0x20 DUP1 SWAP2 DIV MUL PUSH1 0x20 ADD PUSH1 0x40 MLOAD SWAP1 DUP2 ADD PUSH1 0x40 MSTORE DUP1 SWAP3 SWAP2 SWAP1 DUP2 DUP2 MSTORE PUSH1 0x20 ADD DUP3 DUP1 SLOAD PUSH2 0x135B SWAP1 PUSH2 0x450F JUMP JUMPDEST DUP1 ISZERO PUSH2 0x13A8 JUMPI DUP1 PUSH1 0x1F LT PUSH2 0x137D JUMPI PUSH2 0x100 DUP1 DUP4 SLOAD DIV MUL DUP4 MSTORE SWAP2 PUSH1 0x20 ADD SWAP2 PUSH2 0x13A8 JUMP JUMPDEST DUP3 ADD SWAP2 SWAP1 PUSH1 0x0 MSTORE PUSH1 0x20 PUSH1 0x0 KECCAK256 SWAP1 JUMPDEST DUP2 SLOAD DUP2 MSTORE SWAP1 PUSH1 0x1 ADD SWAP1 PUSH1 0x20 ADD DUP1 DUP4 GT PUSH2 0x138B JUMPI DUP3 SWAP1 SUB PUSH1 0x1F AND DUP3 ADD SWAP2 JUMPDEST POP POP POP POP POP DUP2 MSTORE PUSH1 0x20 ADD PUSH1 0x4 DUP3 ADD DUP1 SLOAD PUSH2 0x13C1 SWAP1 PUSH2 0x450F JUMP JUMPDEST DUP1 PUSH1 0x1F ADD PUSH1 0x20 DUP1 SWAP2 DIV MUL PUSH1 0x20 ADD PUSH1 0x40 MLOAD SWAP1 DUP2 ADD PUSH1 0x40 MSTORE DUP1 SWAP3 SWAP2 SWAP1 DUP2 DUP2 MSTORE PUSH1 0x20 ADD DUP3 DUP1 SLOAD PUSH2 0x13ED SWAP1 PUSH2 0x450F JUMP JUMPDEST DUP1 ISZERO PUSH2 0x143A JUMPI DUP1 PUSH1 0x1F LT PUSH2 0x140F JUMPI PUSH2 0x100 DUP1 DUP4 SLOAD DIV MUL DUP4 MSTORE SWAP2 PUSH1 0x20 ADD SWAP2 PUSH2 0x143A JUMP JUMPDEST DUP3 ADD SWAP2 SWAP1 PUSH1 0x0 MSTORE PUSH1 0x20 PUSH1 0x0 KECCAK256 SWAP1 JUMPDEST DUP2 SLOAD DUP2 MSTORE SWAP1 PUSH1 0x1 ADD SWAP1 PUSH1 0x20 ADD DUP1 DUP4 GT PUSH2 0x141D JUMPI DUP3 SWAP1 SUB PUSH1 0x1F AND DUP3 ADD SWAP2 JUMPDEST POP POP POP SWAP2 DUP4 MSTORE POP POP PUSH1 0x5 DUP3 ADD SLOAD PUSH1 0x20 DUP3 ADD MSTORE PUSH1 0x6 DUP3 ADD SLOAD PUSH1 0x40 DUP3 ADD MSTORE PUSH1 0x7 DUP3 ADD SLOAD PUSH1 0x60 DUP3 ADD MSTORE PUSH1 0x8 DUP3 ADD SLOAD PUSH1 0x80 DUP3 ADD MSTORE PUSH1 0x9 DUP3 ADD SLOAD PUSH1 0xFF DUP1 DUP3 AND ISZERO ISZERO PUSH1 0xA0 DUP5 ADD MSTORE PUSH2 0x100 DUP1 DUP4 DIV DUP3 AND ISZERO ISZERO PUSH1 0xC0 DUP6 ADD MSTORE PUSH3 0x10000 SWAP1 SWAP3 DIV DUP2 AND ISZERO ISZERO PUSH1 0xE0 DUP5 ADD MSTORE PUSH1 0xA DUP5 ADD SLOAD DUP3 DUP5 ADD MSTORE PUSH1 0xB SWAP1 SWAP4 ADD SLOAD DUP1 DUP5 AND ISZERO ISZERO PUSH2 0x120 DUP5 ADD MSTORE DIV SWAP1 SWAP2 AND ISZERO ISZERO PUSH2 0x140 SWAP2 DUP3 ADD MSTORE DUP2 ADD MLOAD SWAP1 SWAP2 POP ISZERO PUSH2 0x14F9 JUMPI DUP1 DUP4 DUP6 DUP2 MLOAD DUP2 LT PUSH2 0x14DF JUMPI PUSH2 0x14DF PUSH2 0x4575 JUMP JUMPDEST PUSH1 0x20 MUL PUSH1 0x20 ADD ADD DUP2 SWAP1 MSTORE POP DUP4 DUP1 PUSH2 0x14F5 SWAP1 PUSH2 0x4544 JUMP JUMPDEST SWAP5 POP POP JUMPDEST POP DUP1 PUSH2 0x1504 DUP2 PUSH2 0x4544 JUMP JUMPDEST SWAP2 POP POP PUSH2 0x121B JUMP JUMPDEST PUSH2 0x1514 PUSH2 0x3D01 JUMP JUMPDEST PUSH1 0x3 DUP3 DUP2 SLOAD DUP2 LT PUSH2 0x1527 JUMPI PUSH2 0x1527 PUSH2 0x4575 JUMP JUMPDEST PUSH1 0x0 SWAP2 DUP3 MSTORE PUSH1 0x20 SWAP2 DUP3 SWAP1 KECCAK256 PUSH1 0x40 DUP1 MLOAD PUSH1 0xC0 DUP2 ADD DUP3 MSTORE PUSH1 0x6 SWAP1 SWAP4 MUL SWAP1 SWAP2 ADD DUP1 SLOAD DUP4 MSTORE PUSH1 0x1 DUP2 ADD SLOAD SWAP4 DUP4 ADD SWAP4 SWAP1 SWAP4 MSTORE PUSH1 0x2 DUP4 ADD SLOAD PUSH1 0x1 PUSH1 0x1 PUSH1 0xA0 SHL SUB AND SWAP1 DUP3 ADD MSTORE PUSH1 0x3 DUP3 ADD SLOAD PUSH1 0x60 DUP3 ADD MSTORE PUSH1 0x4 DUP3 ADD SLOAD PUSH1 0x80 DUP3 ADD MSTORE PUSH1 0x5 SWAP1 SWAP2 ADD SLOAD PUSH1 0xFF AND ISZERO ISZERO PUSH1 0xA0 DUP3 ADD MSTORE SWAP3 SWAP2 POP POP JUMP JUMPDEST PUSH1 0x0 DUP1 DUP1 JUMPDEST PUSH1 0x2 SLOAD DUP2 LT ISZERO PUSH2 0x1022 JUMPI PUSH1 0x0 PUSH1 0x2 DUP3 DUP2 SLOAD DUP2 LT PUSH2 0x15B4 JUMPI PUSH2 0x15B4 PUSH2 0x4575 JUMP JUMPDEST PUSH1 0x0 SWAP2 DUP3 MSTORE PUSH1 0x20 SWAP2 DUP3 SWAP1 KECCAK256 PUSH1 0x40 DUP1 MLOAD PUSH1 0x80 DUP2 ADD DUP3 MSTORE PUSH1 0x4 SWAP1 SWAP4 MUL SWAP1 SWAP2 ADD DUP1 SLOAD DUP4 MSTORE PUSH1 0x1 DUP2 ADD SLOAD SWAP4 DUP4 ADD SWAP4 SWAP1 SWAP4 MSTORE PUSH1 0x2 DUP4 ADD SLOAD PUSH1 0x1 PUSH1 0x1 PUSH1 0xA0 SHL SUB SWAP1 DUP2 AND SWAP2 DUP4 ADD DUP3 SWAP1 MSTORE PUSH1 0x3 SWAP1 SWAP4 ADD SLOAD PUSH1 0x60 DUP4 ADD MSTORE SWAP1 SWAP3 POP SWAP1 DUP7 AND EQ ISZERO PUSH2 0x161C JUMPI DUP3 PUSH2 0x1618 DUP2 PUSH2 0x4544 JUMP JUMPDEST SWAP4 POP POP JUMPDEST POP DUP1 PUSH2 0x1627 DUP2 PUSH2 0x4544 JUMP JUMPDEST SWAP2 POP POP PUSH2 0x1595 JUMP JUMPDEST PUSH1 0x0 PUSH2 0x163A CALLER PUSH2 0x24DB JUMP JUMPDEST PUSH2 0x169B JUMPI PUSH1 0x40 MLOAD PUSH3 0x461BCD PUSH1 0xE5 SHL DUP2 MSTORE PUSH1 0x20 PUSH1 0x4 DUP3 ADD MSTORE PUSH1 0x2C PUSH1 0x24 DUP3 ADD MSTORE PUSH32 0x4F6E6C79204578697374696E672075736572732063616E20706572666F726D20 PUSH1 0x44 DUP3 ADD MSTORE PUSH12 0x3A3434B99030B1BA34B7B717 PUSH1 0xA1 SHL PUSH1 0x64 DUP3 ADD MSTORE PUSH1 0x84 ADD PUSH2 0x834 JUMP JUMPDEST PUSH1 0x0 PUSH2 0x16A6 DUP4 PUSH2 0x26E8 JUMP JUMPDEST SWAP1 POP DUP1 PUSH1 0xA0 ADD MLOAD PUSH2 0x1782 JUMPI DUP1 MLOAD PUSH1 0x1 PUSH1 0x80 DUP4 ADD MSTORE PUSH1 0x0 DUP1 SLOAD DUP4 SWAP2 SWAP1 DUP4 SWAP1 DUP2 LT PUSH2 0x16D1 JUMPI PUSH2 0x16D1 PUSH2 0x4575 JUMP JUMPDEST PUSH1 0x0 SWAP2 DUP3 MSTORE PUSH1 0x20 SWAP2 DUP3 SWAP1 KECCAK256 DUP4 MLOAD PUSH1 0x5 SWAP3 SWAP1 SWAP3 MUL ADD SWAP1 DUP2 SSTORE DUP3 DUP3 ADD MLOAD PUSH1 0x1 DUP3 ADD DUP1 SLOAD PUSH1 0x1 PUSH1 0x1 PUSH1 0xA0 SHL SUB NOT AND PUSH1 0x1 PUSH1 0x1 PUSH1 0xA0 SHL SUB SWAP1 SWAP3 AND SWAP2 SWAP1 SWAP2 OR SWAP1 SSTORE PUSH1 0x40 DUP4 ADD MLOAD DUP1 MLOAD SWAP2 SWAP3 PUSH2 0x1728 SWAP3 PUSH1 0x2 DUP6 ADD SWAP3 SWAP1 SWAP2 ADD SWAP1 PUSH2 0x3C3A JUMP JUMPDEST POP PUSH1 0x60 DUP3 ADD MLOAD DUP1 MLOAD PUSH2 0x1744 SWAP2 PUSH1 0x3 DUP5 ADD SWAP2 PUSH1 0x20 SWAP1 SWAP2 ADD SWAP1 PUSH2 0x3C3A JUMP JUMPDEST POP PUSH1 0x80 DUP3 ADD MLOAD PUSH1 0x4 SWAP1 SWAP2 ADD DUP1 SLOAD PUSH1 0xA0 SWAP1 SWAP4 ADD MLOAD ISZERO ISZERO PUSH2 0x100 MUL PUSH2 0xFF00 NOT SWAP3 ISZERO ISZERO SWAP3 SWAP1 SWAP3 AND PUSH2 0xFFFF NOT SWAP1 SWAP4 AND SWAP3 SWAP1 SWAP3 OR OR SWAP1 SSTORE POP PUSH1 0x1 SWAP2 POP PUSH2 0x1788 SWAP1 POP JUMP JUMPDEST PUSH1 0x0 SWAP2 POP POP JUMPDEST SWAP2 SWAP1 POP JUMP JUMPDEST PUSH1 0x0 DUP1 DUP1 JUMPDEST PUSH1 0x2 SLOAD DUP2 LT ISZERO PUSH2 0x1022 JUMPI PUSH1 0x0 PUSH1 0x2 DUP3 DUP2 SLOAD DUP2 LT PUSH2 0x17B1 JUMPI PUSH2 0x17B1 PUSH2 0x4575 JUMP JUMPDEST PUSH1 0x0 SWAP2 DUP3 MSTORE PUSH1 0x20 SWAP2 DUP3 SWAP1 KECCAK256 PUSH1 0x40 DUP1 MLOAD PUSH1 0x80 DUP2 ADD DUP3 MSTORE PUSH1 0x4 SWAP1 SWAP4 MUL SWAP1 SWAP2 ADD DUP1 SLOAD DUP4 MSTORE PUSH1 0x1 DUP2 ADD SLOAD SWAP4 DUP4 ADD DUP5 SWAP1 MSTORE PUSH1 0x2 DUP2 ADD SLOAD PUSH1 0x1 PUSH1 0x1 PUSH1 0xA0 SHL SUB AND SWAP2 DUP4 ADD SWAP2 SWAP1 SWAP2 MSTORE PUSH1 0x3 ADD SLOAD PUSH1 0x60 DUP3 ADD MSTORE SWAP2 POP DUP6 EQ ISZERO PUSH2 0x1812 JUMPI DUP3 PUSH2 0x180E DUP2 PUSH2 0x4544 JUMP JUMPDEST SWAP4 POP POP JUMPDEST POP DUP1 PUSH2 0x181D DUP2 PUSH2 0x4544 JUMP JUMPDEST SWAP2 POP POP PUSH2 0x1792 JUMP JUMPDEST PUSH1 0x0 DUP1 PUSH1 0x9 PUSH1 0x0 SWAP1 SLOAD SWAP1 PUSH2 0x100 EXP SWAP1 DIV PUSH1 0x1 PUSH1 0x1 PUSH1 0xA0 SHL SUB AND PUSH1 0x1 PUSH1 0x1 PUSH1 0xA0 SHL SUB AND PUSH4 0x313CE567 PUSH1 0x40 MLOAD DUP2 PUSH4 0xFFFFFFFF AND PUSH1 0xE0 SHL DUP2 MSTORE PUSH1 0x4 ADD PUSH1 0x20 PUSH1 0x40 MLOAD DUP1 DUP4 SUB DUP2 DUP7 DUP1 EXTCODESIZE ISZERO DUP1 ISZERO PUSH2 0x1876 JUMPI PUSH1 0x0 DUP1 REVERT JUMPDEST POP GAS STATICCALL ISZERO DUP1 ISZERO PUSH2 0x188A JUMPI RETURNDATASIZE PUSH1 0x0 DUP1 RETURNDATACOPY RETURNDATASIZE PUSH1 0x0 REVERT JUMPDEST POP POP POP POP PUSH1 0x40 MLOAD RETURNDATASIZE PUSH1 0x1F NOT PUSH1 0x1F DUP3 ADD AND DUP3 ADD DUP1 PUSH1 0x40 MSTORE POP DUP2 ADD SWAP1 PUSH2 0x18AE SWAP2 SWAP1 PUSH2 0x401D JUMP JUMPDEST PUSH2 0x18B9 SWAP1 PUSH1 0xA PUSH2 0x4445 JUMP JUMPDEST PUSH2 0x18C3 SWAP1 DUP5 PUSH2 0x44F0 JUMP JUMPDEST PUSH1 0x9 SLOAD PUSH1 0x40 MLOAD PUSH4 0x95EA7B3 PUSH1 0xE0 SHL DUP2 MSTORE ADDRESS PUSH1 0x4 DUP3 ADD MSTORE PUSH1 0x24 DUP2 ADD DUP4 SWAP1 MSTORE SWAP2 SWAP3 POP PUSH1 0x1 PUSH1 0x1 PUSH1 0xA0 SHL SUB AND SWAP1 PUSH4 0x95EA7B3 SWAP1 PUSH1 0x44 ADD JUMPDEST PUSH1 0x20 PUSH1 0x40 MLOAD DUP1 DUP4 SUB DUP2 PUSH1 0x0 DUP8 DUP1 EXTCODESIZE ISZERO DUP1 ISZERO PUSH2 0x1911 JUMPI PUSH1 0x0 DUP1 REVERT JUMPDEST POP GAS CALL ISZERO DUP1 ISZERO PUSH2 0x1925 JUMPI RETURNDATASIZE PUSH1 0x0 DUP1 RETURNDATACOPY RETURNDATASIZE PUSH1 0x0 REVERT JUMPDEST POP POP POP POP PUSH1 0x40 MLOAD RETURNDATASIZE PUSH1 0x1F NOT PUSH1 0x1F DUP3 ADD AND DUP3 ADD DUP1 PUSH1 0x40 MSTORE POP DUP2 ADD SWAP1 PUSH2 0xC57 SWAP2 SWAP1 PUSH2 0x3F4B JUMP JUMPDEST PUSH1 0x0 DUP1 PUSH1 0x1 DUP5 DUP2 SLOAD DUP2 LT PUSH2 0x195F JUMPI PUSH2 0x195F PUSH2 0x4575 JUMP JUMPDEST SWAP1 PUSH1 0x0 MSTORE PUSH1 0x20 PUSH1 0x0 KECCAK256 SWAP1 PUSH1 0xC MUL ADD PUSH1 0x40 MLOAD DUP1 PUSH2 0x1E0 ADD PUSH1 0x40 MSTORE SWAP1 DUP2 PUSH1 0x0 DUP3 ADD SLOAD DUP2 MSTORE PUSH1 0x20 ADD PUSH1 0x1 DUP3 ADD PUSH1 0x0 SWAP1 SLOAD SWAP1 PUSH2 0x100 EXP SWAP1 DIV PUSH1 0x1 PUSH1 0x1 PUSH1 0xA0 SHL SUB AND PUSH1 0x1 PUSH1 0x1 PUSH1 0xA0 SHL SUB AND PUSH1 0x1 PUSH1 0x1 PUSH1 0xA0 SHL SUB AND DUP2 MSTORE PUSH1 0x20 ADD PUSH1 0x2 DUP3 ADD DUP1 SLOAD PUSH2 0x19C2 SWAP1 PUSH2 0x450F JUMP JUMPDEST DUP1 PUSH1 0x1F ADD PUSH1 0x20 DUP1 SWAP2 DIV MUL PUSH1 0x20 ADD PUSH1 0x40 MLOAD SWAP1 DUP2 ADD PUSH1 0x40 MSTORE DUP1 SWAP3 SWAP2 SWAP1 DUP2 DUP2 MSTORE PUSH1 0x20 ADD DUP3 DUP1 SLOAD PUSH2 0x19EE SWAP1 PUSH2 0x450F JUMP JUMPDEST DUP1 ISZERO PUSH2 0x1A3B JUMPI DUP1 PUSH1 0x1F LT PUSH2 0x1A10 JUMPI PUSH2 0x100 DUP1 DUP4 SLOAD DIV MUL DUP4 MSTORE SWAP2 PUSH1 0x20 ADD SWAP2 PUSH2 0x1A3B JUMP JUMPDEST DUP3 ADD SWAP2 SWAP1 PUSH1 0x0 MSTORE PUSH1 0x20 PUSH1 0x0 KECCAK256 SWAP1 JUMPDEST DUP2 SLOAD DUP2 MSTORE SWAP1 PUSH1 0x1 ADD SWAP1 PUSH1 0x20 ADD DUP1 DUP4 GT PUSH2 0x1A1E JUMPI DUP3 SWAP1 SUB PUSH1 0x1F AND DUP3 ADD SWAP2 JUMPDEST POP POP POP POP POP DUP2 MSTORE PUSH1 0x20 ADD PUSH1 0x3 DUP3 ADD DUP1 SLOAD PUSH2 0x1A54 SWAP1 PUSH2 0x450F JUMP JUMPDEST DUP1 PUSH1 0x1F ADD PUSH1 0x20 DUP1 SWAP2 DIV MUL PUSH1 0x20 ADD PUSH1 0x40 MLOAD SWAP1 DUP2 ADD PUSH1 0x40 MSTORE DUP1 SWAP3 SWAP2 SWAP1 DUP2 DUP2 MSTORE PUSH1 0x20 ADD DUP3 DUP1 SLOAD PUSH2 0x1A80 SWAP1 PUSH2 0x450F JUMP JUMPDEST DUP1 ISZERO PUSH2 0x1ACD JUMPI DUP1 PUSH1 0x1F LT PUSH2 0x1AA2 JUMPI PUSH2 0x100 DUP1 DUP4 SLOAD DIV MUL DUP4 MSTORE SWAP2 PUSH1 0x20 ADD SWAP2 PUSH2 0x1ACD JUMP JUMPDEST DUP3 ADD SWAP2 SWAP1 PUSH1 0x0 MSTORE PUSH1 0x20 PUSH1 0x0 KECCAK256 SWAP1 JUMPDEST DUP2 SLOAD DUP2 MSTORE SWAP1 PUSH1 0x1 ADD SWAP1 PUSH1 0x20 ADD DUP1 DUP4 GT PUSH2 0x1AB0 JUMPI DUP3 SWAP1 SUB PUSH1 0x1F AND DUP3 ADD SWAP2 JUMPDEST POP POP POP POP POP DUP2 MSTORE PUSH1 0x20 ADD PUSH1 0x4 DUP3 ADD DUP1 SLOAD PUSH2 0x1AE6 SWAP1 PUSH2 0x450F JUMP JUMPDEST DUP1 PUSH1 0x1F ADD PUSH1 0x20 DUP1 SWAP2 DIV MUL PUSH1 0x20 ADD PUSH1 0x40 MLOAD SWAP1 DUP2 ADD PUSH1 0x40 MSTORE DUP1 SWAP3 SWAP2 SWAP1 DUP2 DUP2 MSTORE PUSH1 0x20 ADD DUP3 DUP1 SLOAD PUSH2 0x1B12 SWAP1 PUSH2 0x450F JUMP JUMPDEST DUP1 ISZERO PUSH2 0x1B5F JUMPI DUP1 PUSH1 0x1F LT PUSH2 0x1B34 JUMPI PUSH2 0x100 DUP1 DUP4 SLOAD DIV MUL DUP4 MSTORE SWAP2 PUSH1 0x20 ADD SWAP2 PUSH2 0x1B5F JUMP JUMPDEST DUP3 ADD SWAP2 SWAP1 PUSH1 0x0 MSTORE PUSH1 0x20 PUSH1 0x0 KECCAK256 SWAP1 JUMPDEST DUP2 SLOAD DUP2 MSTORE SWAP1 PUSH1 0x1 ADD SWAP1 PUSH1 0x20 ADD DUP1 DUP4 GT PUSH2 0x1B42 JUMPI DUP3 SWAP1 SUB PUSH1 0x1F AND DUP3 ADD SWAP2 JUMPDEST POP POP POP SWAP2 DUP4 MSTORE POP POP PUSH1 0x5 DUP3 ADD SLOAD PUSH1 0x20 DUP1 DUP4 ADD SWAP2 SWAP1 SWAP2 MSTORE PUSH1 0x6 DUP4 ADD SLOAD PUSH1 0x40 DUP4 ADD MSTORE PUSH1 0x7 DUP4 ADD SLOAD PUSH1 0x60 DUP4 ADD MSTORE PUSH1 0x8 DUP4 ADD SLOAD PUSH1 0x80 DUP4 ADD MSTORE PUSH1 0x9 DUP4 ADD SLOAD PUSH1 0xFF DUP1 DUP3 AND ISZERO ISZERO PUSH1 0xA0 DUP6 ADD MSTORE PUSH2 0x100 DUP1 DUP4 DIV DUP3 AND ISZERO ISZERO PUSH1 0xC0 DUP7 ADD MSTORE PUSH3 0x10000 SWAP1 SWAP3 DIV DUP2 AND ISZERO ISZERO PUSH1 0xE0 DUP6 ADD MSTORE PUSH1 0xA DUP6 ADD SLOAD DUP3 DUP6 ADD MSTORE PUSH1 0xB SWAP1 SWAP5 ADD SLOAD DUP1 DUP6 AND ISZERO ISZERO PUSH2 0x120 DUP6 ADD MSTORE DIV SWAP1 SWAP3 AND ISZERO ISZERO PUSH2 0x140 SWAP1 SWAP2 ADD MSTORE DUP2 ADD MLOAD SWAP1 SWAP2 POP PUSH1 0x1 PUSH1 0x1 PUSH1 0xA0 SHL SUB DUP5 DUP2 AND SWAP2 AND EQ ISZERO PUSH2 0x1C0D JUMPI PUSH1 0x1 SWAP2 POP POP PUSH2 0x5BC JUMP JUMPDEST POP PUSH1 0x0 SWAP4 SWAP3 POP POP POP JUMP JUMPDEST PUSH1 0x0 DUP1 DUP1 JUMPDEST PUSH1 0x1 SLOAD DUP2 LT ISZERO PUSH2 0x1022 JUMPI PUSH1 0x0 PUSH1 0x1 DUP3 DUP2 SLOAD DUP2 LT PUSH2 0x1C3B JUMPI PUSH2 0x1C3B PUSH2 0x4575 JUMP JUMPDEST SWAP1 PUSH1 0x0 MSTORE PUSH1 0x20 PUSH1 0x0 KECCAK256 SWAP1 PUSH1 0xC MUL ADD PUSH1 0x40 MLOAD DUP1 PUSH2 0x1E0 ADD PUSH1 0x40 MSTORE SWAP1 DUP2 PUSH1 0x0 DUP3 ADD SLOAD DUP2 MSTORE PUSH1 0x20 ADD PUSH1 0x1 DUP3 ADD PUSH1 0x0 SWAP1 SLOAD SWAP1 PUSH2 0x100 EXP SWAP1 DIV PUSH1 0x1 PUSH1 0x1 PUSH1 0xA0 SHL SUB AND PUSH1 0x1 PUSH1 0x1 PUSH1 0xA0 SHL SUB AND PUSH1 0x1 PUSH1 0x1 PUSH1 0xA0 SHL SUB AND DUP2 MSTORE PUSH1 0x20 ADD PUSH1 0x2 DUP3 ADD DUP1 SLOAD PUSH2 0x1C9E SWAP1 PUSH2 0x450F JUMP JUMPDEST DUP1 PUSH1 0x1F ADD PUSH1 0x20 DUP1 SWAP2 DIV MUL PUSH1 0x20 ADD PUSH1 0x40 MLOAD SWAP1 DUP2 ADD PUSH1 0x40 MSTORE DUP1 SWAP3 SWAP2 SWAP1 DUP2 DUP2 MSTORE PUSH1 0x20 ADD DUP3 DUP1 SLOAD PUSH2 0x1CCA SWAP1 PUSH2 0x450F JUMP JUMPDEST DUP1 ISZERO PUSH2 0x1D17 JUMPI DUP1 PUSH1 0x1F LT PUSH2 0x1CEC JUMPI PUSH2 0x100 DUP1 DUP4 SLOAD DIV MUL DUP4 MSTORE SWAP2 PUSH1 0x20 ADD SWAP2 PUSH2 0x1D17 JUMP JUMPDEST DUP3 ADD SWAP2 SWAP1 PUSH1 0x0 MSTORE PUSH1 0x20 PUSH1 0x0 KECCAK256 SWAP1 JUMPDEST DUP2 SLOAD DUP2 MSTORE SWAP1 PUSH1 0x1 ADD SWAP1 PUSH1 0x20 ADD DUP1 DUP4 GT PUSH2 0x1CFA JUMPI DUP3 SWAP1 SUB PUSH1 0x1F AND DUP3 ADD SWAP2 JUMPDEST POP POP POP POP POP DUP2 MSTORE PUSH1 0x20 ADD PUSH1 0x3 DUP3 ADD DUP1 SLOAD PUSH2 0x1D30 SWAP1 PUSH2 0x450F JUMP JUMPDEST DUP1 PUSH1 0x1F ADD PUSH1 0x20 DUP1 SWAP2 DIV MUL PUSH1 0x20 ADD PUSH1 0x40 MLOAD SWAP1 DUP2 ADD PUSH1 0x40 MSTORE DUP1 SWAP3 SWAP2 SWAP1 DUP2 DUP2 MSTORE PUSH1 0x20 ADD DUP3 DUP1 SLOAD PUSH2 0x1D5C SWAP1 PUSH2 0x450F JUMP JUMPDEST DUP1 ISZERO PUSH2 0x1DA9 JUMPI DUP1 PUSH1 0x1F LT PUSH2 0x1D7E JUMPI PUSH2 0x100 DUP1 DUP4 SLOAD DIV MUL DUP4 MSTORE SWAP2 PUSH1 0x20 ADD SWAP2 PUSH2 0x1DA9 JUMP JUMPDEST DUP3 ADD SWAP2 SWAP1 PUSH1 0x0 MSTORE PUSH1 0x20 PUSH1 0x0 KECCAK256 SWAP1 JUMPDEST DUP2 SLOAD DUP2 MSTORE SWAP1 PUSH1 0x1 ADD SWAP1 PUSH1 0x20 ADD DUP1 DUP4 GT PUSH2 0x1D8C JUMPI DUP3 SWAP1 SUB PUSH1 0x1F AND DUP3 ADD SWAP2 JUMPDEST POP POP POP POP POP DUP2 MSTORE PUSH1 0x20 ADD PUSH1 0x4 DUP3 ADD DUP1 SLOAD PUSH2 0x1DC2 SWAP1 PUSH2 0x450F JUMP JUMPDEST DUP1 PUSH1 0x1F ADD PUSH1 0x20 DUP1 SWAP2 DIV MUL PUSH1 0x20 ADD PUSH1 0x40 MLOAD SWAP1 DUP2 ADD PUSH1 0x40 MSTORE DUP1 SWAP3 SWAP2 SWAP1 DUP2 DUP2 MSTORE PUSH1 0x20 ADD DUP3 DUP1 SLOAD PUSH2 0x1DEE SWAP1 PUSH2 0x450F JUMP JUMPDEST DUP1 ISZERO PUSH2 0x1E3B JUMPI DUP1 PUSH1 0x1F LT PUSH2 0x1E10 JUMPI PUSH2 0x100 DUP1 DUP4 SLOAD DIV MUL DUP4 MSTORE SWAP2 PUSH1 0x20 ADD SWAP2 PUSH2 0x1E3B JUMP JUMPDEST DUP3 ADD SWAP2 SWAP1 PUSH1 0x0 MSTORE PUSH1 0x20 PUSH1 0x0 KECCAK256 SWAP1 JUMPDEST DUP2 SLOAD DUP2 MSTORE SWAP1 PUSH1 0x1 ADD SWAP1 PUSH1 0x20 ADD DUP1 DUP4 GT PUSH2 0x1E1E JUMPI DUP3 SWAP1 SUB PUSH1 0x1F AND DUP3 ADD SWAP2 JUMPDEST POP POP POP SWAP2 DUP4 MSTORE POP POP PUSH1 0x5 DUP3 ADD SLOAD PUSH1 0x20 DUP3 ADD MSTORE PUSH1 0x6 DUP3 ADD SLOAD PUSH1 0x40 DUP3 ADD MSTORE PUSH1 0x7 DUP3 ADD SLOAD PUSH1 0x60 DUP3 ADD MSTORE PUSH1 0x8 DUP3 ADD SLOAD PUSH1 0x80 DUP3 ADD MSTORE PUSH1 0x9 DUP3 ADD SLOAD PUSH1 0xFF DUP1 DUP3 AND ISZERO ISZERO PUSH1 0xA0 DUP5 ADD MSTORE PUSH2 0x100 DUP1 DUP4 DIV DUP3 AND ISZERO ISZERO PUSH1 0xC0 DUP6 ADD MSTORE PUSH3 0x10000 SWAP1 SWAP3 DIV DUP2 AND ISZERO ISZERO PUSH1 0xE0 DUP5 ADD MSTORE PUSH1 0xA DUP5 ADD SLOAD DUP3 DUP5 ADD MSTORE PUSH1 0xB SWAP1 SWAP4 ADD SLOAD DUP1 DUP5 AND ISZERO ISZERO PUSH2 0x120 DUP5 ADD MSTORE DIV SWAP1 SWAP2 AND ISZERO ISZERO PUSH2 0x140 SWAP1 SWAP2 ADD MSTORE DUP1 MLOAD SWAP1 SWAP2 POP DUP6 EQ ISZERO PUSH2 0x1EDC JUMPI DUP3 PUSH2 0x1ED8 DUP2 PUSH2 0x4544 JUMP JUMPDEST SWAP4 POP POP JUMPDEST POP DUP1 PUSH2 0x1EE7 DUP2 PUSH2 0x4544 JUMP JUMPDEST SWAP2 POP POP PUSH2 0x1C1C JUMP JUMPDEST PUSH2 0x1EF7 PUSH2 0x3D01 JUMP JUMPDEST DUP2 PUSH2 0x1F02 DUP2 CALLER PUSH2 0x1949 JUMP JUMPDEST PUSH2 0x1F1E JUMPI PUSH1 0x40 MLOAD PUSH3 0x461BCD PUSH1 0xE5 SHL DUP2 MSTORE PUSH1 0x4 ADD PUSH2 0x834 SWAP1 PUSH2 0x4321 JUMP JUMPDEST PUSH1 0x0 PUSH1 0x1 DUP5 DUP2 SLOAD DUP2 LT PUSH2 0x1F33 JUMPI PUSH2 0x1F33 PUSH2 0x4575 JUMP JUMPDEST SWAP1 PUSH1 0x0 MSTORE PUSH1 0x20 PUSH1 0x0 KECCAK256 SWAP1 PUSH1 0xC MUL ADD PUSH1 0x40 MLOAD DUP1 PUSH2 0x1E0 ADD PUSH1 0x40 MSTORE SWAP1 DUP2 PUSH1 0x0 DUP3 ADD SLOAD DUP2 MSTORE PUSH1 0x20 ADD PUSH1 0x1 DUP3 ADD PUSH1 0x0 SWAP1 SLOAD SWAP1 PUSH2 0x100 EXP SWAP1 DIV PUSH1 0x1 PUSH1 0x1 PUSH1 0xA0 SHL SUB AND PUSH1 0x1 PUSH1 0x1 PUSH1 0xA0 SHL SUB AND PUSH1 0x1 PUSH1 0x1 PUSH1 0xA0 SHL SUB AND DUP2 MSTORE PUSH1 0x20 ADD PUSH1 0x2 DUP3 ADD DUP1 SLOAD PUSH2 0x1F96 SWAP1 PUSH2 0x450F JUMP JUMPDEST DUP1 PUSH1 0x1F ADD PUSH1 0x20 DUP1 SWAP2 DIV MUL PUSH1 0x20 ADD PUSH1 0x40 MLOAD SWAP1 DUP2 ADD PUSH1 0x40 MSTORE DUP1 SWAP3 SWAP2 SWAP1 DUP2 DUP2 MSTORE PUSH1 0x20 ADD DUP3 DUP1 SLOAD PUSH2 0x1FC2 SWAP1 PUSH2 0x450F JUMP JUMPDEST DUP1 ISZERO PUSH2 0x200F JUMPI DUP1 PUSH1 0x1F LT PUSH2 0x1FE4 JUMPI PUSH2 0x100 DUP1 DUP4 SLOAD DIV MUL DUP4 MSTORE SWAP2 PUSH1 0x20 ADD SWAP2 PUSH2 0x200F JUMP JUMPDEST DUP3 ADD SWAP2 SWAP1 PUSH1 0x0 MSTORE PUSH1 0x20 PUSH1 0x0 KECCAK256 SWAP1 JUMPDEST DUP2 SLOAD DUP2 MSTORE SWAP1 PUSH1 0x1 ADD SWAP1 PUSH1 0x20 ADD DUP1 DUP4 GT PUSH2 0x1FF2 JUMPI DUP3 SWAP1 SUB PUSH1 0x1F AND DUP3 ADD SWAP2 JUMPDEST POP POP POP POP POP DUP2 MSTORE PUSH1 0x20 ADD PUSH1 0x3 DUP3 ADD DUP1 SLOAD PUSH2 0x2028 SWAP1 PUSH2 0x450F JUMP JUMPDEST DUP1 PUSH1 0x1F ADD PUSH1 0x20 DUP1 SWAP2 DIV MUL PUSH1 0x20 ADD PUSH1 0x40 MLOAD SWAP1 DUP2 ADD PUSH1 0x40 MSTORE DUP1 SWAP3 SWAP2 SWAP1 DUP2 DUP2 MSTORE PUSH1 0x20 ADD DUP3 DUP1 SLOAD PUSH2 0x2054 SWAP1 PUSH2 0x450F JUMP JUMPDEST DUP1 ISZERO PUSH2 0x20A1 JUMPI DUP1 PUSH1 0x1F LT PUSH2 0x2076 JUMPI PUSH2 0x100 DUP1 DUP4 SLOAD DIV MUL DUP4 MSTORE SWAP2 PUSH1 0x20 ADD SWAP2 PUSH2 0x20A1 JUMP JUMPDEST DUP3 ADD SWAP2 SWAP1 PUSH1 0x0 MSTORE PUSH1 0x20 PUSH1 0x0 KECCAK256 SWAP1 JUMPDEST DUP2 SLOAD DUP2 MSTORE SWAP1 PUSH1 0x1 ADD SWAP1 PUSH1 0x20 ADD DUP1 DUP4 GT PUSH2 0x2084 JUMPI DUP3 SWAP1 SUB PUSH1 0x1F AND DUP3 ADD SWAP2 JUMPDEST POP POP POP POP POP DUP2 MSTORE PUSH1 0x20 ADD PUSH1 0x4 DUP3 ADD DUP1 SLOAD PUSH2 0x20BA SWAP1 PUSH2 0x450F JUMP JUMPDEST DUP1 PUSH1 0x1F ADD PUSH1 0x20 DUP1 SWAP2 DIV MUL PUSH1 0x20 ADD PUSH1 0x40 MLOAD SWAP1 DUP2 ADD PUSH1 0x40 MSTORE DUP1 SWAP3 SWAP2 SWAP1 DUP2 DUP2 MSTORE PUSH1 0x20 ADD DUP3 DUP1 SLOAD PUSH2 0x20E6 SWAP1 PUSH2 0x450F JUMP JUMPDEST DUP1 ISZERO PUSH2 0x2133 JUMPI DUP1 PUSH1 0x1F LT PUSH2 0x2108 JUMPI PUSH2 0x100 DUP1 DUP4 SLOAD DIV MUL DUP4 MSTORE SWAP2 PUSH1 0x20 ADD SWAP2 PUSH2 0x2133 JUMP JUMPDEST DUP3 ADD SWAP2 SWAP1 PUSH1 0x0 MSTORE PUSH1 0x20 PUSH1 0x0 KECCAK256 SWAP1 JUMPDEST DUP2 SLOAD DUP2 MSTORE SWAP1 PUSH1 0x1 ADD SWAP1 PUSH1 0x20 ADD DUP1 DUP4 GT PUSH2 0x2116 JUMPI DUP3 SWAP1 SUB PUSH1 0x1F AND DUP3 ADD SWAP2 JUMPDEST POP POP POP SWAP2 DUP4 MSTORE POP POP PUSH1 0x5 DUP3 ADD SLOAD PUSH1 0x20 DUP3 ADD MSTORE PUSH1 0x6 DUP3 ADD SLOAD PUSH1 0x40 DUP3 ADD MSTORE PUSH1 0x7 DUP3 ADD SLOAD PUSH1 0x60 DUP3 ADD MSTORE PUSH1 0x8 DUP3 ADD SLOAD PUSH1 0x80 DUP3 ADD MSTORE PUSH1 0x9 DUP3 ADD SLOAD PUSH1 0xFF DUP1 DUP3 AND ISZERO ISZERO PUSH1 0xA0 DUP5 ADD MSTORE PUSH2 0x100 DUP1 DUP4 DIV DUP3 AND ISZERO ISZERO PUSH1 0xC0 DUP6 ADD MSTORE PUSH3 0x10000 SWAP1 SWAP3 DIV DUP2 AND ISZERO ISZERO PUSH1 0xE0 DUP5 ADD MSTORE PUSH1 0xA DUP5 ADD SLOAD DUP3 DUP5 ADD MSTORE PUSH1 0xB SWAP1 SWAP4 ADD SLOAD DUP1 DUP5 AND ISZERO ISZERO PUSH2 0x120 DUP5 ADD MSTORE DIV SWAP1 SWAP2 AND ISZERO ISZERO PUSH2 0x140 SWAP1 SWAP2 ADD MSTORE SWAP1 POP PUSH1 0x0 PUSH2 0x21C7 DUP6 PUSH2 0x80B JUMP JUMPDEST SWAP1 POP PUSH2 0x21D1 PUSH2 0x3D01 JUMP JUMPDEST PUSH1 0x1 PUSH1 0xA0 DUP3 ADD MSTORE DUP2 ISZERO PUSH2 0x21E8 JUMPI SWAP4 POP PUSH2 0x8EF SWAP2 POP POP JUMP JUMPDEST PUSH1 0x0 PUSH2 0x21F3 DUP8 PUSH2 0x3A25 JUMP JUMPDEST SWAP1 POP PUSH1 0x0 PUSH1 0xA PUSH2 0x2204 DUP4 PUSH1 0x8 PUSH2 0x44F0 JUMP JUMPDEST PUSH2 0x220E SWAP2 SWAP1 PUSH2 0x43E0 JUMP JUMPDEST SWAP1 POP PUSH1 0x0 PUSH1 0x9 PUSH1 0x0 SWAP1 SLOAD SWAP1 PUSH2 0x100 EXP SWAP1 DIV PUSH1 0x1 PUSH1 0x1 PUSH1 0xA0 SHL SUB AND PUSH1 0x1 PUSH1 0x1 PUSH1 0xA0 SHL SUB AND PUSH4 0x313CE567 PUSH1 0x40 MLOAD DUP2 PUSH4 0xFFFFFFFF AND PUSH1 0xE0 SHL DUP2 MSTORE PUSH1 0x4 ADD PUSH1 0x20 PUSH1 0x40 MLOAD DUP1 DUP4 SUB DUP2 DUP7 DUP1 EXTCODESIZE ISZERO DUP1 ISZERO PUSH2 0x2260 JUMPI PUSH1 0x0 DUP1 REVERT JUMPDEST POP GAS STATICCALL ISZERO DUP1 ISZERO PUSH2 0x2274 JUMPI RETURNDATASIZE PUSH1 0x0 DUP1 RETURNDATACOPY RETURNDATASIZE PUSH1 0x0 REVERT JUMPDEST POP POP POP POP PUSH1 0x40 MLOAD RETURNDATASIZE PUSH1 0x1F NOT PUSH1 0x1F DUP3 ADD AND DUP3 ADD DUP1 PUSH1 0x40 MSTORE POP DUP2 ADD SWAP1 PUSH2 0x2298 SWAP2 SWAP1 PUSH2 0x401D JUMP JUMPDEST PUSH2 0x22A3 SWAP1 PUSH1 0xA PUSH2 0x4445 JUMP JUMPDEST PUSH2 0x22AD SWAP1 DUP4 PUSH2 0x44F0 JUMP JUMPDEST PUSH1 0x9 SLOAD PUSH1 0x20 DUP9 ADD MLOAD PUSH1 0x40 MLOAD PUSH4 0xA9059CBB PUSH1 0xE0 SHL DUP2 MSTORE PUSH1 0x1 PUSH1 0x1 PUSH1 0xA0 SHL SUB SWAP2 DUP3 AND PUSH1 0x4 DUP3 ADD MSTORE PUSH1 0x24 DUP2 ADD DUP5 SWAP1 MSTORE SWAP3 SWAP4 POP PUSH1 0x0 SWAP3 SWAP2 AND SWAP1 PUSH4 0xA9059CBB SWAP1 PUSH1 0x44 ADD PUSH1 0x20 PUSH1 0x40 MLOAD DUP1 DUP4 SUB DUP2 PUSH1 0x0 DUP8 DUP1 EXTCODESIZE ISZERO DUP1 ISZERO PUSH2 0x2305 JUMPI PUSH1 0x0 DUP1 REVERT JUMPDEST POP GAS CALL ISZERO DUP1 ISZERO PUSH2 0x2319 JUMPI RETURNDATASIZE PUSH1 0x0 DUP1 RETURNDATACOPY RETURNDATASIZE PUSH1 0x0 REVERT JUMPDEST POP POP POP POP PUSH1 0x40 MLOAD RETURNDATASIZE PUSH1 0x1F NOT PUSH1 0x1F DUP3 ADD AND DUP3 ADD DUP1 PUSH1 0x40 MSTORE POP DUP2 ADD SWAP1 PUSH2 0x233D SWAP2 SWAP1 PUSH2 0x3F4B JUMP JUMPDEST SWAP1 POP DUP1 ISZERO PUSH2 0x24BE JUMPI PUSH1 0x0 PUSH1 0xA PUSH2 0x2354 DUP7 PUSH1 0x2 PUSH2 0x44F0 JUMP JUMPDEST PUSH2 0x235E SWAP2 SWAP1 PUSH2 0x43E0 JUMP JUMPDEST SWAP1 POP PUSH1 0x0 PUSH1 0x9 PUSH1 0x0 SWAP1 SLOAD SWAP1 PUSH2 0x100 EXP SWAP1 DIV PUSH1 0x1 PUSH1 0x1 PUSH1 0xA0 SHL SUB AND PUSH1 0x1 PUSH1 0x1 PUSH1 0xA0 SHL SUB AND PUSH4 0x313CE567 PUSH1 0x40 MLOAD DUP2 PUSH4 0xFFFFFFFF AND PUSH1 0xE0 SHL DUP2 MSTORE PUSH1 0x4 ADD PUSH1 0x20 PUSH1 0x40 MLOAD DUP1 DUP4 SUB DUP2 DUP7 DUP1 EXTCODESIZE ISZERO DUP1 ISZERO PUSH2 0x23B0 JUMPI PUSH1 0x0 DUP1 REVERT JUMPDEST POP GAS STATICCALL ISZERO DUP1 ISZERO PUSH2 0x23C4 JUMPI RETURNDATASIZE PUSH1 0x0 DUP1 RETURNDATACOPY RETURNDATASIZE PUSH1 0x0 REVERT JUMPDEST POP POP POP POP PUSH1 0x40 MLOAD RETURNDATASIZE PUSH1 0x1F NOT PUSH1 0x1F DUP3 ADD AND DUP3 ADD DUP1 PUSH1 0x40 MSTORE POP DUP2 ADD SWAP1 PUSH2 0x23E8 SWAP2 SWAP1 PUSH2 0x401D JUMP JUMPDEST PUSH2 0x23F3 SWAP1 PUSH1 0xA PUSH2 0x4445 JUMP JUMPDEST PUSH2 0x23FD SWAP1 DUP4 PUSH2 0x44F0 JUMP JUMPDEST PUSH1 0x9 SLOAD PUSH1 0x4 DUP1 SLOAD PUSH1 0x40 MLOAD PUSH4 0xA9059CBB PUSH1 0xE0 SHL DUP2 MSTORE PUSH1 0x1 PUSH1 0x1 PUSH1 0xA0 SHL SUB SWAP2 DUP3 AND SWAP3 DUP2 ADD SWAP3 SWAP1 SWAP3 MSTORE PUSH1 0x24 DUP3 ADD DUP5 SWAP1 MSTORE SWAP3 SWAP4 POP PUSH1 0x0 SWAP3 SWAP1 SWAP2 AND SWAP1 PUSH4 0xA9059CBB SWAP1 PUSH1 0x44 ADD PUSH1 0x20 PUSH1 0x40 MLOAD DUP1 DUP4 SUB DUP2 PUSH1 0x0 DUP8 DUP1 EXTCODESIZE ISZERO DUP1 ISZERO PUSH2 0x2457 JUMPI PUSH1 0x0 DUP1 REVERT JUMPDEST POP GAS CALL ISZERO DUP1 ISZERO PUSH2 0x246B JUMPI RETURNDATASIZE PUSH1 0x0 DUP1 RETURNDATACOPY RETURNDATASIZE PUSH1 0x0 REVERT JUMPDEST POP POP POP POP PUSH1 0x40 MLOAD RETURNDATASIZE PUSH1 0x1F NOT PUSH1 0x1F DUP3 ADD AND DUP3 ADD DUP1 PUSH1 0x40 MSTORE POP DUP2 ADD SWAP1 PUSH2 0x248F SWAP2 SWAP1 PUSH2 0x3F4B JUMP JUMPDEST SWAP1 POP DUP1 ISZERO PUSH2 0x24B6 JUMPI PUSH1 0x0 PUSH2 0x24A3 DUP15 DUP9 PUSH2 0x2D0F JUMP JUMPDEST SWAP13 POP PUSH2 0x8EF SWAP11 POP POP POP POP POP POP POP POP POP POP POP JUMP JUMPDEST POP POP POP PUSH2 0x24CD JUMP JUMPDEST DUP5 SWAP9 POP POP POP POP POP POP POP POP PUSH2 0x8EF JUMP JUMPDEST POP SWAP3 SWAP9 SWAP8 POP POP POP POP POP POP POP POP JUMP JUMPDEST PUSH1 0x0 DUP1 JUMPDEST PUSH1 0x0 SLOAD DUP2 LT ISZERO PUSH2 0x26DF JUMPI PUSH1 0x0 DUP1 DUP3 DUP2 SLOAD DUP2 LT PUSH2 0x24FD JUMPI PUSH2 0x24FD PUSH2 0x4575 JUMP JUMPDEST SWAP1 PUSH1 0x0 MSTORE PUSH1 0x20 PUSH1 0x0 KECCAK256 SWAP1 PUSH1 0x5 MUL ADD PUSH1 0x40 MLOAD DUP1 PUSH1 0xC0 ADD PUSH1 0x40 MSTORE SWAP1 DUP2 PUSH1 0x0 DUP3 ADD SLOAD DUP2 MSTORE PUSH1 0x20 ADD PUSH1 0x1 DUP3 ADD PUSH1 0x0 SWAP1 SLOAD SWAP1 PUSH2 0x100 EXP SWAP1 DIV PUSH1 0x1 PUSH1 0x1 PUSH1 0xA0 SHL SUB AND PUSH1 0x1 PUSH1 0x1 PUSH1 0xA0 SHL SUB AND PUSH1 0x1 PUSH1 0x1 PUSH1 0xA0 SHL SUB AND DUP2 MSTORE PUSH1 0x20 ADD PUSH1 0x2 DUP3 ADD DUP1 SLOAD PUSH2 0x255F SWAP1 PUSH2 0x450F JUMP JUMPDEST DUP1 PUSH1 0x1F ADD PUSH1 0x20 DUP1 SWAP2 DIV MUL PUSH1 0x20 ADD PUSH1 0x40 MLOAD SWAP1 DUP2 ADD PUSH1 0x40 MSTORE DUP1 SWAP3 SWAP2 SWAP1 DUP2 DUP2 MSTORE PUSH1 0x20 ADD DUP3 DUP1 SLOAD PUSH2 0x258B SWAP1 PUSH2 0x450F JUMP JUMPDEST DUP1 ISZERO PUSH2 0x25D8 JUMPI DUP1 PUSH1 0x1F LT PUSH2 0x25AD JUMPI PUSH2 0x100 DUP1 DUP4 SLOAD DIV MUL DUP4 MSTORE SWAP2 PUSH1 0x20 ADD SWAP2 PUSH2 0x25D8 JUMP JUMPDEST DUP3 ADD SWAP2 SWAP1 PUSH1 0x0 MSTORE PUSH1 0x20 PUSH1 0x0 KECCAK256 SWAP1 JUMPDEST DUP2 SLOAD DUP2 MSTORE SWAP1 PUSH1 0x1 ADD SWAP1 PUSH1 0x20 ADD DUP1 DUP4 GT PUSH2 0x25BB JUMPI DUP3 SWAP1 SUB PUSH1 0x1F AND DUP3 ADD SWAP2 JUMPDEST POP POP POP POP POP DUP2 MSTORE PUSH1 0x20 ADD PUSH1 0x3 DUP3 ADD DUP1 SLOAD PUSH2 0x25F1 SWAP1 PUSH2 0x450F JUMP JUMPDEST DUP1 PUSH1 0x1F ADD PUSH1 0x20 DUP1 SWAP2 DIV MUL PUSH1 0x20 ADD PUSH1 0x40 MLOAD SWAP1 DUP2 ADD PUSH1 0x40 MSTORE DUP1 SWAP3 SWAP2 SWAP1 DUP2 DUP2 MSTORE PUSH1 0x20 ADD DUP3 DUP1 SLOAD PUSH2 0x261D SWAP1 PUSH2 0x450F JUMP JUMPDEST DUP1 ISZERO PUSH2 0x266A JUMPI DUP1 PUSH1 0x1F LT PUSH2 0x263F JUMPI PUSH2 0x100 DUP1 DUP4 SLOAD DIV MUL DUP4 MSTORE SWAP2 PUSH1 0x20 ADD SWAP2 PUSH2 0x266A JUMP JUMPDEST DUP3 ADD SWAP2 SWAP1 PUSH1 0x0 MSTORE PUSH1 0x20 PUSH1 0x0 KECCAK256 SWAP1 JUMPDEST DUP2 SLOAD DUP2 MSTORE SWAP1 PUSH1 0x1 ADD SWAP1 PUSH1 0x20 ADD DUP1 DUP4 GT PUSH2 0x264D JUMPI DUP3 SWAP1 SUB PUSH1 0x1F AND DUP3 ADD SWAP2 JUMPDEST POP POP POP SWAP2 DUP4 MSTORE POP POP PUSH1 0x4 SWAP2 SWAP1 SWAP2 ADD SLOAD PUSH1 0xFF DUP1 DUP3 AND ISZERO ISZERO PUSH1 0x20 DUP1 DUP6 ADD SWAP2 SWAP1 SWAP2 MSTORE PUSH2 0x100 SWAP1 SWAP3 DIV AND ISZERO ISZERO PUSH1 0x40 SWAP1 SWAP3 ADD SWAP2 SWAP1 SWAP2 MSTORE DUP2 ADD MLOAD SWAP1 SWAP2 POP PUSH1 0x1 PUSH1 0x1 PUSH1 0xA0 SHL SUB DUP6 DUP2 AND SWAP2 AND EQ DUP1 ISZERO PUSH2 0x26BD JUMPI POP DUP1 PUSH1 0xA0 ADD MLOAD ISZERO JUMPDEST ISZERO PUSH2 0x26CC JUMPI POP PUSH1 0x1 SWAP4 SWAP3 POP POP POP JUMP JUMPDEST POP DUP1 PUSH2 0x26D7 DUP2 PUSH2 0x4544 JUMP JUMPDEST SWAP2 POP POP PUSH2 0x24DF JUMP JUMPDEST POP PUSH1 0x0 SWAP3 SWAP2 POP POP JUMP JUMPDEST PUSH2 0x26F0 PUSH2 0x3CBE JUMP JUMPDEST PUSH1 0x0 JUMPDEST PUSH1 0x0 SLOAD DUP2 LT ISZERO PUSH2 0x28E2 JUMPI PUSH1 0x0 DUP1 DUP3 DUP2 SLOAD DUP2 LT PUSH2 0x2711 JUMPI PUSH2 0x2711 PUSH2 0x4575 JUMP JUMPDEST SWAP1 PUSH1 0x0 MSTORE PUSH1 0x20 PUSH1 0x0 KECCAK256 SWAP1 PUSH1 0x5 MUL ADD PUSH1 0x40 MLOAD DUP1 PUSH1 0xC0 ADD PUSH1 0x40 MSTORE SWAP1 DUP2 PUSH1 0x0 DUP3 ADD SLOAD DUP2 MSTORE PUSH1 0x20 ADD PUSH1 0x1 DUP3 ADD PUSH1 0x0 SWAP1 SLOAD SWAP1 PUSH2 0x100 EXP SWAP1 DIV PUSH1 0x1 PUSH1 0x1 PUSH1 0xA0 SHL SUB AND PUSH1 0x1 PUSH1 0x1 PUSH1 0xA0 SHL SUB AND PUSH1 0x1 PUSH1 0x1 PUSH1 0xA0 SHL SUB AND DUP2 MSTORE PUSH1 0x20 ADD PUSH1 0x2 DUP3 ADD DUP1 SLOAD PUSH2 0x2773 SWAP1 PUSH2 0x450F JUMP JUMPDEST DUP1 PUSH1 0x1F ADD PUSH1 0x20 DUP1 SWAP2 DIV MUL PUSH1 0x20 ADD PUSH1 0x40 MLOAD SWAP1 DUP2 ADD PUSH1 0x40 MSTORE DUP1 SWAP3 SWAP2 SWAP1 DUP2 DUP2 MSTORE PUSH1 0x20 ADD DUP3 DUP1 SLOAD PUSH2 0x279F SWAP1 PUSH2 0x450F JUMP JUMPDEST DUP1 ISZERO PUSH2 0x27EC JUMPI DUP1 PUSH1 0x1F LT PUSH2 0x27C1 JUMPI PUSH2 0x100 DUP1 DUP4 SLOAD DIV MUL DUP4 MSTORE SWAP2 PUSH1 0x20 ADD SWAP2 PUSH2 0x27EC JUMP JUMPDEST DUP3 ADD SWAP2 SWAP1 PUSH1 0x0 MSTORE PUSH1 0x20 PUSH1 0x0 KECCAK256 SWAP1 JUMPDEST DUP2 SLOAD DUP2 MSTORE SWAP1 PUSH1 0x1 ADD SWAP1 PUSH1 0x20 ADD DUP1 DUP4 GT PUSH2 0x27CF JUMPI DUP3 SWAP1 SUB PUSH1 0x1F AND DUP3 ADD SWAP2 JUMPDEST POP POP POP POP POP DUP2 MSTORE PUSH1 0x20 ADD PUSH1 0x3 DUP3 ADD DUP1 SLOAD PUSH2 0x2805 SWAP1 PUSH2 0x450F JUMP JUMPDEST DUP1 PUSH1 0x1F ADD PUSH1 0x20 DUP1 SWAP2 DIV MUL PUSH1 0x20 ADD PUSH1 0x40 MLOAD SWAP1 DUP2 ADD PUSH1 0x40 MSTORE DUP1 SWAP3 SWAP2 SWAP1 DUP2 DUP2 MSTORE PUSH1 0x20 ADD DUP3 DUP1 SLOAD PUSH2 0x2831 SWAP1 PUSH2 0x450F JUMP JUMPDEST DUP1 ISZERO PUSH2 0x287E JUMPI DUP1 PUSH1 0x1F LT PUSH2 0x2853 JUMPI PUSH2 0x100 DUP1 DUP4 SLOAD DIV MUL DUP4 MSTORE SWAP2 PUSH1 0x20 ADD SWAP2 PUSH2 0x287E JUMP JUMPDEST DUP3 ADD SWAP2 SWAP1 PUSH1 0x0 MSTORE PUSH1 0x20 PUSH1 0x0 KECCAK256 SWAP1 JUMPDEST DUP2 SLOAD DUP2 MSTORE SWAP1 PUSH1 0x1 ADD SWAP1 PUSH1 0x20 ADD DUP1 DUP4 GT PUSH2 0x2861 JUMPI DUP3 SWAP1 SUB PUSH1 0x1F AND DUP3 ADD SWAP2 JUMPDEST POP POP POP SWAP2 DUP4 MSTORE POP POP PUSH1 0x4 SWAP2 SWAP1 SWAP2 ADD SLOAD PUSH1 0xFF DUP1 DUP3 AND ISZERO ISZERO PUSH1 0x20 DUP1 DUP6 ADD SWAP2 SWAP1 SWAP2 MSTORE PUSH2 0x100 SWAP1 SWAP3 DIV AND ISZERO ISZERO PUSH1 0x40 SWAP1 SWAP3 ADD SWAP2 SWAP1 SWAP2 MSTORE DUP2 ADD MLOAD SWAP1 SWAP2 POP PUSH1 0x1 PUSH1 0x1 PUSH1 0xA0 SHL SUB DUP6 DUP2 AND SWAP2 AND EQ ISZERO PUSH2 0x28CF JUMPI SWAP4 SWAP3 POP POP POP JUMP JUMPDEST POP DUP1 PUSH2 0x28DA DUP2 PUSH2 0x4544 JUMP JUMPDEST SWAP2 POP POP PUSH2 0x26F3 JUMP JUMPDEST POP PUSH2 0x28EB PUSH2 0x3CBE JUMP JUMPDEST PUSH1 0x1 PUSH1 0xA0 DUP3 ADD MSTORE SWAP3 SWAP2 POP POP JUMP JUMPDEST PUSH1 0x60 PUSH1 0x0 DUP1 PUSH2 0x2906 DUP5 PUSH2 0x1C17 JUMP JUMPDEST PUSH8 0xFFFFFFFFFFFFFFFF DUP2 GT ISZERO PUSH2 0x291E JUMPI PUSH2 0x291E PUSH2 0x458B JUMP JUMPDEST PUSH1 0x40 MLOAD SWAP1 DUP1 DUP3 MSTORE DUP1 PUSH1 0x20 MUL PUSH1 0x20 ADD DUP3 ADD PUSH1 0x40 MSTORE DUP1 ISZERO PUSH2 0x2957 JUMPI DUP2 PUSH1 0x20 ADD JUMPDEST PUSH2 0x2944 PUSH2 0x3CBE JUMP JUMPDEST DUP2 MSTORE PUSH1 0x20 ADD SWAP1 PUSH1 0x1 SWAP1 SUB SWAP1 DUP2 PUSH2 0x293C JUMPI SWAP1 POP JUMPDEST POP SWAP1 POP PUSH1 0x0 JUMPDEST PUSH1 0x2 SLOAD DUP2 LT ISZERO PUSH2 0x6E0 JUMPI PUSH1 0x0 PUSH1 0x2 DUP3 DUP2 SLOAD DUP2 LT PUSH2 0x297C JUMPI PUSH2 0x297C PUSH2 0x4575 JUMP JUMPDEST PUSH1 0x0 SWAP2 DUP3 MSTORE PUSH1 0x20 SWAP2 DUP3 SWAP1 KECCAK256 PUSH1 0x40 DUP1 MLOAD PUSH1 0x80 DUP2 ADD DUP3 MSTORE PUSH1 0x4 SWAP1 SWAP4 MUL SWAP1 SWAP2 ADD DUP1 SLOAD DUP4 MSTORE PUSH1 0x1 DUP2 ADD SLOAD SWAP4 DUP4 ADD DUP5 SWAP1 MSTORE PUSH1 0x2 DUP2 ADD SLOAD PUSH1 0x1 PUSH1 0x1 PUSH1 0xA0 SHL SUB AND SWAP2 DUP4 ADD SWAP2 SWAP1 SWAP2 MSTORE PUSH1 0x3 ADD SLOAD PUSH1 0x60 DUP3 ADD MSTORE SWAP2 POP DUP7 EQ ISZERO PUSH2 0x2A0E JUMPI PUSH1 0x0 PUSH2 0x29DE DUP3 PUSH1 0x40 ADD MLOAD PUSH2 0x26E8 JUMP JUMPDEST SWAP1 POP DUP1 DUP5 DUP7 DUP2 MLOAD DUP2 LT PUSH2 0x29F3 JUMPI PUSH2 0x29F3 PUSH2 0x4575 JUMP JUMPDEST PUSH1 0x20 MUL PUSH1 0x20 ADD ADD DUP2 SWAP1 MSTORE POP DUP5 DUP1 PUSH2 0x2A09 SWAP1 PUSH2 0x4544 JUMP JUMPDEST SWAP6 POP POP POP JUMPDEST POP DUP1 PUSH2 0x2A19 DUP2 PUSH2 0x4544 JUMP JUMPDEST SWAP2 POP POP PUSH2 0x295D JUMP JUMPDEST PUSH2 0x2A29 PUSH2 0x3BB1 JUMP JUMPDEST PUSH1 0x0 JUMPDEST PUSH1 0x1 SLOAD DUP2 LT ISZERO PUSH2 0x2CF8 JUMPI PUSH1 0x0 PUSH1 0x1 DUP3 DUP2 SLOAD DUP2 LT PUSH2 0x2A4B JUMPI PUSH2 0x2A4B PUSH2 0x4575 JUMP JUMPDEST SWAP1 PUSH1 0x0 MSTORE PUSH1 0x20 PUSH1 0x0 KECCAK256 SWAP1 PUSH1 0xC MUL ADD PUSH1 0x40 MLOAD DUP1 PUSH2 0x1E0 ADD PUSH1 0x40 MSTORE SWAP1 DUP2 PUSH1 0x0 DUP3 ADD SLOAD DUP2 MSTORE PUSH1 0x20 ADD PUSH1 0x1 DUP3 ADD PUSH1 0x0 SWAP1 SLOAD SWAP1 PUSH2 0x100 EXP SWAP1 DIV PUSH1 0x1 PUSH1 0x1 PUSH1 0xA0 SHL SUB AND PUSH1 0x1 PUSH1 0x1 PUSH1 0xA0 SHL SUB AND PUSH1 0x1 PUSH1 0x1 PUSH1 0xA0 SHL SUB AND DUP2 MSTORE PUSH1 0x20 ADD PUSH1 0x2 DUP3 ADD DUP1 SLOAD PUSH2 0x2AAE SWAP1 PUSH2 0x450F JUMP JUMPDEST DUP1 PUSH1 0x1F ADD PUSH1 0x20 DUP1 SWAP2 DIV MUL PUSH1 0x20 ADD PUSH1 0x40 MLOAD SWAP1 DUP2 ADD PUSH1 0x40 MSTORE DUP1 SWAP3 SWAP2 SWAP1 DUP2 DUP2 MSTORE PUSH1 0x20 ADD DUP3 DUP1 SLOAD PUSH2 0x2ADA SWAP1 PUSH2 0x450F JUMP JUMPDEST DUP1 ISZERO PUSH2 0x2B27 JUMPI DUP1 PUSH1 0x1F LT PUSH2 0x2AFC JUMPI PUSH2 0x100 DUP1 DUP4 SLOAD DIV MUL DUP4 MSTORE SWAP2 PUSH1 0x20 ADD SWAP2 PUSH2 0x2B27 JUMP JUMPDEST DUP3 ADD SWAP2 SWAP1 PUSH1 0x0 MSTORE PUSH1 0x20 PUSH1 0x0 KECCAK256 SWAP1 JUMPDEST DUP2 SLOAD DUP2 MSTORE SWAP1 PUSH1 0x1 ADD SWAP1 PUSH1 0x20 ADD DUP1 DUP4 GT PUSH2 0x2B0A JUMPI DUP3 SWAP1 SUB PUSH1 0x1F AND DUP3 ADD SWAP2 JUMPDEST POP POP POP POP POP DUP2 MSTORE PUSH1 0x20 ADD PUSH1 0x3 DUP3 ADD DUP1 SLOAD PUSH2 0x2B40 SWAP1 PUSH2 0x450F JUMP JUMPDEST DUP1 PUSH1 0x1F ADD PUSH1 0x20 DUP1 SWAP2 DIV MUL PUSH1 0x20 ADD PUSH1 0x40 MLOAD SWAP1 DUP2 ADD PUSH1 0x40 MSTORE DUP1 SWAP3 SWAP2 SWAP1 DUP2 DUP2 MSTORE PUSH1 0x20 ADD DUP3 DUP1 SLOAD PUSH2 0x2B6C SWAP1 PUSH2 0x450F JUMP JUMPDEST DUP1 ISZERO PUSH2 0x2BB9 JUMPI DUP1 PUSH1 0x1F LT PUSH2 0x2B8E JUMPI PUSH2 0x100 DUP1 DUP4 SLOAD DIV MUL DUP4 MSTORE SWAP2 PUSH1 0x20 ADD SWAP2 PUSH2 0x2BB9 JUMP JUMPDEST DUP3 ADD SWAP2 SWAP1 PUSH1 0x0 MSTORE PUSH1 0x20 PUSH1 0x0 KECCAK256 SWAP1 JUMPDEST DUP2 SLOAD DUP2 MSTORE SWAP1 PUSH1 0x1 ADD SWAP1 PUSH1 0x20 ADD DUP1 DUP4 GT PUSH2 0x2B9C JUMPI DUP3 SWAP1 SUB PUSH1 0x1F AND DUP3 ADD SWAP2 JUMPDEST POP POP POP POP POP DUP2 MSTORE PUSH1 0x20 ADD PUSH1 0x4 DUP3 ADD DUP1 SLOAD PUSH2 0x2BD2 SWAP1 PUSH2 0x450F JUMP JUMPDEST DUP1 PUSH1 0x1F ADD PUSH1 0x20 DUP1 SWAP2 DIV MUL PUSH1 0x20 ADD PUSH1 0x40 MLOAD SWAP1 DUP2 ADD PUSH1 0x40 MSTORE DUP1 SWAP3 SWAP2 SWAP1 DUP2 DUP2 MSTORE PUSH1 0x20 ADD DUP3 DUP1 SLOAD PUSH2 0x2BFE SWAP1 PUSH2 0x450F JUMP JUMPDEST DUP1 ISZERO PUSH2 0x2C4B JUMPI DUP1 PUSH1 0x1F LT PUSH2 0x2C20 JUMPI PUSH2 0x100 DUP1 DUP4 SLOAD DIV MUL DUP4 MSTORE SWAP2 PUSH1 0x20 ADD SWAP2 PUSH2 0x2C4B JUMP JUMPDEST DUP3 ADD SWAP2 SWAP1 PUSH1 0x0 MSTORE PUSH1 0x20 PUSH1 0x0 KECCAK256 SWAP1 JUMPDEST DUP2 SLOAD DUP2 MSTORE SWAP1 PUSH1 0x1 ADD SWAP1 PUSH1 0x20 ADD DUP1 DUP4 GT PUSH2 0x2C2E JUMPI DUP3 SWAP1 SUB PUSH1 0x1F AND DUP3 ADD SWAP2 JUMPDEST POP POP POP SWAP2 DUP4 MSTORE POP POP PUSH1 0x5 DUP3 ADD SLOAD PUSH1 0x20 DUP3 ADD MSTORE PUSH1 0x6 DUP3 ADD SLOAD PUSH1 0x40 DUP3 ADD MSTORE PUSH1 0x7 DUP3 ADD SLOAD PUSH1 0x60 DUP3 ADD MSTORE PUSH1 0x8 DUP3 ADD SLOAD PUSH1 0x80 DUP3 ADD MSTORE PUSH1 0x9 DUP3 ADD SLOAD PUSH1 0xFF DUP1 DUP3 AND ISZERO ISZERO PUSH1 0xA0 DUP5 ADD MSTORE PUSH2 0x100 DUP1 DUP4 DIV DUP3 AND ISZERO ISZERO PUSH1 0xC0 DUP6 ADD MSTORE PUSH3 0x10000 SWAP1 SWAP3 DIV DUP2 AND ISZERO ISZERO PUSH1 0xE0 DUP5 ADD MSTORE PUSH1 0xA DUP5 ADD SLOAD DUP3 DUP5 ADD MSTORE PUSH1 0xB SWAP1 SWAP4 ADD SLOAD DUP1 DUP5 AND ISZERO ISZERO PUSH2 0x120 DUP5 ADD MSTORE DIV SWAP1 SWAP2 AND ISZERO ISZERO PUSH2 0x140 SWAP1 SWAP2 ADD MSTORE DUP1 MLOAD SWAP1 SWAP2 POP DUP5 EQ ISZERO PUSH2 0x2CE5 JUMPI SWAP4 SWAP3 POP POP POP JUMP JUMPDEST POP DUP1 PUSH2 0x2CF0 DUP2 PUSH2 0x4544 JUMP JUMPDEST SWAP2 POP POP PUSH2 0x2A2C JUMP JUMPDEST POP PUSH2 0x2D01 PUSH2 0x3BB1 JUMP JUMPDEST PUSH1 0x1 PUSH2 0x120 DUP3 ADD MSTORE SWAP3 SWAP2 POP POP JUMP JUMPDEST PUSH2 0x2D17 PUSH2 0x3D01 JUMP JUMPDEST DUP3 PUSH2 0x2D22 DUP2 CALLER PUSH2 0x1949 JUMP JUMPDEST PUSH2 0x2D3E JUMPI PUSH1 0x40 MLOAD PUSH3 0x461BCD PUSH1 0xE5 SHL DUP2 MSTORE PUSH1 0x4 ADD PUSH2 0x834 SWAP1 PUSH2 0x4321 JUMP JUMPDEST PUSH1 0x8 SLOAD PUSH1 0x40 DUP1 MLOAD PUSH1 0xC0 DUP2 ADD DUP3 MSTORE DUP3 DUP2 MSTORE PUSH1 0x20 DUP2 ADD DUP8 DUP2 MSTORE CALLER SWAP3 DUP3 ADD SWAP3 DUP4 MSTORE PUSH1 0x60 DUP3 ADD DUP8 DUP2 MSTORE TIMESTAMP PUSH1 0x80 DUP5 ADD SWAP1 DUP2 MSTORE PUSH1 0x0 PUSH1 0xA0 DUP6 ADD DUP2 DUP2 MSTORE PUSH1 0x3 DUP1 SLOAD PUSH1 0x1 DUP2 ADD DUP3 SSTORE SWAP3 MSTORE SWAP5 MLOAD PUSH32 0xC2575A0E9E593C00F959F8C92F12DB2869C3395A3B0502D05E2516446F71F85B PUSH1 0x6 SWAP1 SWAP3 MUL SWAP2 DUP3 ADD SSTORE SWAP3 MLOAD PUSH32 0xC2575A0E9E593C00F959F8C92F12DB2869C3395A3B0502D05E2516446F71F85C DUP5 ADD SSTORE SWAP4 MLOAD PUSH32 0xC2575A0E9E593C00F959F8C92F12DB2869C3395A3B0502D05E2516446F71F85D DUP4 ADD DUP1 SLOAD PUSH1 0x1 PUSH1 0x1 PUSH1 0xA0 SHL SUB NOT AND PUSH1 0x1 PUSH1 0x1 PUSH1 0xA0 SHL SUB SWAP1 SWAP3 AND SWAP2 SWAP1 SWAP2 OR SWAP1 SSTORE MLOAD PUSH32 0xC2575A0E9E593C00F959F8C92F12DB2869C3395A3B0502D05E2516446F71F85E DUP3 ADD SSTORE SWAP2 MLOAD PUSH32 0xC2575A0E9E593C00F959F8C92F12DB2869C3395A3B0502D05E2516446F71F85F DUP4 ADD SSTORE MLOAD PUSH32 0xC2575A0E9E593C00F959F8C92F12DB2869C3395A3B0502D05E2516446F71F860 SWAP1 SWAP2 ADD DUP1 SLOAD PUSH1 0xFF NOT AND SWAP2 ISZERO ISZERO SWAP2 SWAP1 SWAP2 OR SWAP1 SSTORE PUSH2 0x2E9C DUP2 PUSH2 0x150C JUMP JUMPDEST SWAP6 SWAP5 POP POP POP POP POP JUMP JUMPDEST PUSH1 0x0 DUP1 DUP1 JUMPDEST PUSH1 0x1 SLOAD DUP2 LT ISZERO PUSH2 0x1022 JUMPI PUSH1 0x0 PUSH1 0x1 DUP3 DUP2 SLOAD DUP2 LT PUSH2 0x2EC9 JUMPI PUSH2 0x2EC9 PUSH2 0x4575 JUMP JUMPDEST SWAP1 PUSH1 0x0 MSTORE PUSH1 0x20 PUSH1 0x0 KECCAK256 SWAP1 PUSH1 0xC MUL ADD PUSH1 0x40 MLOAD DUP1 PUSH2 0x1E0 ADD PUSH1 0x40 MSTORE SWAP1 DUP2 PUSH1 0x0 DUP3 ADD SLOAD DUP2 MSTORE PUSH1 0x20 ADD PUSH1 0x1 DUP3 ADD PUSH1 0x0 SWAP1 SLOAD SWAP1 PUSH2 0x100 EXP SWAP1 DIV PUSH1 0x1 PUSH1 0x1 PUSH1 0xA0 SHL SUB AND PUSH1 0x1 PUSH1 0x1 PUSH1 0xA0 SHL SUB AND PUSH1 0x1 PUSH1 0x1 PUSH1 0xA0 SHL SUB AND DUP2 MSTORE PUSH1 0x20 ADD PUSH1 0x2 DUP3 ADD DUP1 SLOAD PUSH2 0x2F2C SWAP1 PUSH2 0x450F JUMP JUMPDEST DUP1 PUSH1 0x1F ADD PUSH1 0x20 DUP1 SWAP2 DIV MUL PUSH1 0x20 ADD PUSH1 0x40 MLOAD SWAP1 DUP2 ADD PUSH1 0x40 MSTORE DUP1 SWAP3 SWAP2 SWAP1 DUP2 DUP2 MSTORE PUSH1 0x20 ADD DUP3 DUP1 SLOAD PUSH2 0x2F58 SWAP1 PUSH2 0x450F JUMP JUMPDEST DUP1 ISZERO PUSH2 0x2FA5 JUMPI DUP1 PUSH1 0x1F LT PUSH2 0x2F7A JUMPI PUSH2 0x100 DUP1 DUP4 SLOAD DIV MUL DUP4 MSTORE SWAP2 PUSH1 0x20 ADD SWAP2 PUSH2 0x2FA5 JUMP JUMPDEST DUP3 ADD SWAP2 SWAP1 PUSH1 0x0 MSTORE PUSH1 0x20 PUSH1 0x0 KECCAK256 SWAP1 JUMPDEST DUP2 SLOAD DUP2 MSTORE SWAP1 PUSH1 0x1 ADD SWAP1 PUSH1 0x20 ADD DUP1 DUP4 GT PUSH2 0x2F88 JUMPI DUP3 SWAP1 SUB PUSH1 0x1F AND DUP3 ADD SWAP2 JUMPDEST POP POP POP POP POP DUP2 MSTORE PUSH1 0x20 ADD PUSH1 0x3 DUP3 ADD DUP1 SLOAD PUSH2 0x2FBE SWAP1 PUSH2 0x450F JUMP JUMPDEST DUP1 PUSH1 0x1F ADD PUSH1 0x20 DUP1 SWAP2 DIV MUL PUSH1 0x20 ADD PUSH1 0x40 MLOAD SWAP1 DUP2 ADD PUSH1 0x40 MSTORE DUP1 SWAP3 SWAP2 SWAP1 DUP2 DUP2 MSTORE PUSH1 0x20 ADD DUP3 DUP1 SLOAD PUSH2 0x2FEA SWAP1 PUSH2 0x450F JUMP JUMPDEST DUP1 ISZERO PUSH2 0x3037 JUMPI DUP1 PUSH1 0x1F LT PUSH2 0x300C JUMPI PUSH2 0x100 DUP1 DUP4 SLOAD DIV MUL DUP4 MSTORE SWAP2 PUSH1 0x20 ADD SWAP2 PUSH2 0x3037 JUMP JUMPDEST DUP3 ADD SWAP2 SWAP1 PUSH1 0x0 MSTORE PUSH1 0x20 PUSH1 0x0 KECCAK256 SWAP1 JUMPDEST DUP2 SLOAD DUP2 MSTORE SWAP1 PUSH1 0x1 ADD SWAP1 PUSH1 0x20 ADD DUP1 DUP4 GT PUSH2 0x301A JUMPI DUP3 SWAP1 SUB PUSH1 0x1F AND DUP3 ADD SWAP2 JUMPDEST POP POP POP POP POP DUP2 MSTORE PUSH1 0x20 ADD PUSH1 0x4 DUP3 ADD DUP1 SLOAD PUSH2 0x3050 SWAP1 PUSH2 0x450F JUMP JUMPDEST DUP1 PUSH1 0x1F ADD PUSH1 0x20 DUP1 SWAP2 DIV MUL PUSH1 0x20 ADD PUSH1 0x40 MLOAD SWAP1 DUP2 ADD PUSH1 0x40 MSTORE DUP1 SWAP3 SWAP2 SWAP1 DUP2 DUP2 MSTORE PUSH1 0x20 ADD DUP3 DUP1 SLOAD PUSH2 0x307C SWAP1 PUSH2 0x450F JUMP JUMPDEST DUP1 ISZERO PUSH2 0x30C9 JUMPI DUP1 PUSH1 0x1F LT PUSH2 0x309E JUMPI PUSH2 0x100 DUP1 DUP4 SLOAD DIV MUL DUP4 MSTORE SWAP2 PUSH1 0x20 ADD SWAP2 PUSH2 0x30C9 JUMP JUMPDEST DUP3 ADD SWAP2 SWAP1 PUSH1 0x0 MSTORE PUSH1 0x20 PUSH1 0x0 KECCAK256 SWAP1 JUMPDEST DUP2 SLOAD DUP2 MSTORE SWAP1 PUSH1 0x1 ADD SWAP1 PUSH1 0x20 ADD DUP1 DUP4 GT PUSH2 0x30AC JUMPI DUP3 SWAP1 SUB PUSH1 0x1F AND DUP3 ADD SWAP2 JUMPDEST POP POP POP SWAP2 DUP4 MSTORE POP POP PUSH1 0x5 DUP3 ADD SLOAD PUSH1 0x20 DUP1 DUP4 ADD SWAP2 SWAP1 SWAP2 MSTORE PUSH1 0x6 DUP4 ADD SLOAD PUSH1 0x40 DUP4 ADD MSTORE PUSH1 0x7 DUP4 ADD SLOAD PUSH1 0x60 DUP4 ADD MSTORE PUSH1 0x8 DUP4 ADD SLOAD PUSH1 0x80 DUP4 ADD MSTORE PUSH1 0x9 DUP4 ADD SLOAD PUSH1 0xFF DUP1 DUP3 AND ISZERO ISZERO PUSH1 0xA0 DUP6 ADD MSTORE PUSH2 0x100 DUP1 DUP4 DIV DUP3 AND ISZERO ISZERO PUSH1 0xC0 DUP7 ADD MSTORE PUSH3 0x10000 SWAP1 SWAP3 DIV DUP2 AND ISZERO ISZERO PUSH1 0xE0 DUP6 ADD MSTORE PUSH1 0xA DUP6 ADD SLOAD DUP3 DUP6 ADD MSTORE PUSH1 0xB SWAP1 SWAP5 ADD SLOAD DUP1 DUP6 AND ISZERO ISZERO PUSH2 0x120 DUP6 ADD MSTORE DIV SWAP1 SWAP3 AND ISZERO ISZERO PUSH2 0x140 SWAP1 SWAP2 ADD MSTORE DUP2 ADD MLOAD SWAP1 SWAP2 POP PUSH1 0x1 PUSH1 0x1 PUSH1 0xA0 SHL SUB DUP7 DUP2 AND SWAP2 AND EQ ISZERO PUSH2 0x317B JUMPI DUP3 PUSH2 0x3177 DUP2 PUSH2 0x4544 JUMP JUMPDEST SWAP4 POP POP JUMPDEST POP DUP1 PUSH2 0x3186 DUP2 PUSH2 0x4544 JUMP JUMPDEST SWAP2 POP POP PUSH2 0x2EAA JUMP JUMPDEST PUSH2 0x3196 PUSH2 0x3CBE JUMP JUMPDEST PUSH1 0x0 JUMPDEST PUSH1 0x0 SLOAD DUP2 LT ISZERO PUSH2 0x28E2 JUMPI PUSH1 0x0 DUP1 DUP3 DUP2 SLOAD DUP2 LT PUSH2 0x31B7 JUMPI PUSH2 0x31B7 PUSH2 0x4575 JUMP JUMPDEST SWAP1 PUSH1 0x0 MSTORE PUSH1 0x20 PUSH1 0x0 KECCAK256 SWAP1 PUSH1 0x5 MUL ADD PUSH1 0x40 MLOAD DUP1 PUSH1 0xC0 ADD PUSH1 0x40 MSTORE SWAP1 DUP2 PUSH1 0x0 DUP3 ADD SLOAD DUP2 MSTORE PUSH1 0x20 ADD PUSH1 0x1 DUP3 ADD PUSH1 0x0 SWAP1 SLOAD SWAP1 PUSH2 0x100 EXP SWAP1 DIV PUSH1 0x1 PUSH1 0x1 PUSH1 0xA0 SHL SUB AND PUSH1 0x1 PUSH1 0x1 PUSH1 0xA0 SHL SUB AND PUSH1 0x1 PUSH1 0x1 PUSH1 0xA0 SHL SUB AND DUP2 MSTORE PUSH1 0x20 ADD PUSH1 0x2 DUP3 ADD DUP1 SLOAD PUSH2 0x3219 SWAP1 PUSH2 0x450F JUMP JUMPDEST DUP1 PUSH1 0x1F ADD PUSH1 0x20 DUP1 SWAP2 DIV MUL PUSH1 0x20 ADD PUSH1 0x40 MLOAD SWAP1 DUP2 ADD PUSH1 0x40 MSTORE DUP1 SWAP3 SWAP2 SWAP1 DUP2 DUP2 MSTORE PUSH1 0x20 ADD DUP3 DUP1 SLOAD PUSH2 0x3245 SWAP1 PUSH2 0x450F JUMP JUMPDEST DUP1 ISZERO PUSH2 0x3292 JUMPI DUP1 PUSH1 0x1F LT PUSH2 0x3267 JUMPI PUSH2 0x100 DUP1 DUP4 SLOAD DIV MUL DUP4 MSTORE SWAP2 PUSH1 0x20 ADD SWAP2 PUSH2 0x3292 JUMP JUMPDEST DUP3 ADD SWAP2 SWAP1 PUSH1 0x0 MSTORE PUSH1 0x20 PUSH1 0x0 KECCAK256 SWAP1 JUMPDEST DUP2 SLOAD DUP2 MSTORE SWAP1 PUSH1 0x1 ADD SWAP1 PUSH1 0x20 ADD DUP1 DUP4 GT PUSH2 0x3275 JUMPI DUP3 SWAP1 SUB PUSH1 0x1F AND DUP3 ADD SWAP2 JUMPDEST POP POP POP POP POP DUP2 MSTORE PUSH1 0x20 ADD PUSH1 0x3 DUP3 ADD DUP1 SLOAD PUSH2 0x32AB SWAP1 PUSH2 0x450F JUMP JUMPDEST DUP1 PUSH1 0x1F ADD PUSH1 0x20 DUP1 SWAP2 DIV MUL PUSH1 0x20 ADD PUSH1 0x40 MLOAD SWAP1 DUP2 ADD PUSH1 0x40 MSTORE DUP1 SWAP3 SWAP2 SWAP1 DUP2 DUP2 MSTORE PUSH1 0x20 ADD DUP3 DUP1 SLOAD PUSH2 0x32D7 SWAP1 PUSH2 0x450F JUMP JUMPDEST DUP1 ISZERO PUSH2 0x3324 JUMPI DUP1 PUSH1 0x1F LT PUSH2 0x32F9 JUMPI PUSH2 0x100 DUP1 DUP4 SLOAD DIV MUL DUP4 MSTORE SWAP2 PUSH1 0x20 ADD SWAP2 PUSH2 0x3324 JUMP JUMPDEST DUP3 ADD SWAP2 SWAP1 PUSH1 0x0 MSTORE PUSH1 0x20 PUSH1 0x0 KECCAK256 SWAP1 JUMPDEST DUP2 SLOAD DUP2 MSTORE SWAP1 PUSH1 0x1 ADD SWAP1 PUSH1 0x20 ADD DUP1 DUP4 GT PUSH2 0x3307 JUMPI DUP3 SWAP1 SUB PUSH1 0x1F AND DUP3 ADD SWAP2 JUMPDEST POP POP POP SWAP2 DUP4 MSTORE POP POP PUSH1 0x4 SWAP2 SWAP1 SWAP2 ADD SLOAD PUSH1 0xFF DUP1 DUP3 AND ISZERO ISZERO PUSH1 0x20 DUP5 ADD MSTORE PUSH2 0x100 SWAP1 SWAP2 DIV AND ISZERO ISZERO PUSH1 0x40 SWAP1 SWAP2 ADD MSTORE DUP1 MLOAD SWAP1 SWAP2 POP DUP5 EQ ISZERO PUSH2 0x3361 JUMPI SWAP4 SWAP3 POP POP POP JUMP JUMPDEST POP DUP1 PUSH2 0x336C DUP2 PUSH2 0x4544 JUMP JUMPDEST SWAP2 POP POP PUSH2 0x3199 JUMP JUMPDEST PUSH1 0x0 DUP1 DUP1 JUMPDEST PUSH1 0x1 SLOAD DUP2 LT ISZERO PUSH2 0x8EF JUMPI PUSH1 0x0 PUSH1 0x1 DUP3 DUP2 SLOAD DUP2 LT PUSH2 0x3398 JUMPI PUSH2 0x3398 PUSH2 0x4575 JUMP JUMPDEST SWAP1 PUSH1 0x0 MSTORE PUSH1 0x20 PUSH1 0x0 KECCAK256 SWAP1 PUSH1 0xC MUL ADD PUSH1 0x40 MLOAD DUP1 PUSH2 0x1E0 ADD PUSH1 0x40 MSTORE SWAP1 DUP2 PUSH1 0x0 DUP3 ADD SLOAD DUP2 MSTORE PUSH1 0x20 ADD PUSH1 0x1 DUP3 ADD PUSH1 0x0 SWAP1 SLOAD SWAP1 PUSH2 0x100 EXP SWAP1 DIV PUSH1 0x1 PUSH1 0x1 PUSH1 0xA0 SHL SUB AND PUSH1 0x1 PUSH1 0x1 PUSH1 0xA0 SHL SUB AND PUSH1 0x1 PUSH1 0x1 PUSH1 0xA0 SHL SUB AND DUP2 MSTORE PUSH1 0x20 ADD PUSH1 0x2 DUP3 ADD DUP1 SLOAD PUSH2 0x33FB SWAP1 PUSH2 0x450F JUMP JUMPDEST DUP1 PUSH1 0x1F ADD PUSH1 0x20 DUP1 SWAP2 DIV MUL PUSH1 0x20 ADD PUSH1 0x40 MLOAD SWAP1 DUP2 ADD PUSH1 0x40 MSTORE DUP1 SWAP3 SWAP2 SWAP1 DUP2 DUP2 MSTORE PUSH1 0x20 ADD DUP3 DUP1 SLOAD PUSH2 0x3427 SWAP1 PUSH2 0x450F JUMP JUMPDEST DUP1 ISZERO PUSH2 0x3474 JUMPI DUP1 PUSH1 0x1F LT PUSH2 0x3449 JUMPI PUSH2 0x100 DUP1 DUP4 SLOAD DIV MUL DUP4 MSTORE SWAP2 PUSH1 0x20 ADD SWAP2 PUSH2 0x3474 JUMP JUMPDEST DUP3 ADD SWAP2 SWAP1 PUSH1 0x0 MSTORE PUSH1 0x20 PUSH1 0x0 KECCAK256 SWAP1 JUMPDEST DUP2 SLOAD DUP2 MSTORE SWAP1 PUSH1 0x1 ADD SWAP1 PUSH1 0x20 ADD DUP1 DUP4 GT PUSH2 0x3457 JUMPI DUP3 SWAP1 SUB PUSH1 0x1F AND DUP3 ADD SWAP2 JUMPDEST POP POP POP POP POP DUP2 MSTORE PUSH1 0x20 ADD PUSH1 0x3 DUP3 ADD DUP1 SLOAD PUSH2 0x348D SWAP1 PUSH2 0x450F JUMP JUMPDEST DUP1 PUSH1 0x1F ADD PUSH1 0x20 DUP1 SWAP2 DIV MUL PUSH1 0x20 ADD PUSH1 0x40 MLOAD SWAP1 DUP2 ADD PUSH1 0x40 MSTORE DUP1 SWAP3 SWAP2 SWAP1 DUP2 DUP2 MSTORE PUSH1 0x20 ADD DUP3 DUP1 SLOAD PUSH2 0x34B9 SWAP1 PUSH2 0x450F JUMP JUMPDEST DUP1 ISZERO PUSH2 0x3506 JUMPI DUP1 PUSH1 0x1F LT PUSH2 0x34DB JUMPI PUSH2 0x100 DUP1 DUP4 SLOAD DIV MUL DUP4 MSTORE SWAP2 PUSH1 0x20 ADD SWAP2 PUSH2 0x3506 JUMP JUMPDEST DUP3 ADD SWAP2 SWAP1 PUSH1 0x0 MSTORE PUSH1 0x20 PUSH1 0x0 KECCAK256 SWAP1 JUMPDEST DUP2 SLOAD DUP2 MSTORE SWAP1 PUSH1 0x1 ADD SWAP1 PUSH1 0x20 ADD DUP1 DUP4 GT PUSH2 0x34E9 JUMPI DUP3 SWAP1 SUB PUSH1 0x1F AND DUP3 ADD SWAP2 JUMPDEST POP POP POP POP POP DUP2 MSTORE PUSH1 0x20 ADD PUSH1 0x4 DUP3 ADD DUP1 SLOAD PUSH2 0x351F SWAP1 PUSH2 0x450F JUMP JUMPDEST DUP1 PUSH1 0x1F ADD PUSH1 0x20 DUP1 SWAP2 DIV MUL PUSH1 0x20 ADD PUSH1 0x40 MLOAD SWAP1 DUP2 ADD PUSH1 0x40 MSTORE DUP1 SWAP3 SWAP2 SWAP1 DUP2 DUP2 MSTORE PUSH1 0x20 ADD DUP3 DUP1 SLOAD PUSH2 0x354B SWAP1 PUSH2 0x450F JUMP JUMPDEST DUP1 ISZERO PUSH2 0x3598 JUMPI DUP1 PUSH1 0x1F LT PUSH2 0x356D JUMPI PUSH2 0x100 DUP1 DUP4 SLOAD DIV MUL DUP4 MSTORE SWAP2 PUSH1 0x20 ADD SWAP2 PUSH2 0x3598 JUMP JUMPDEST DUP3 ADD SWAP2 SWAP1 PUSH1 0x0 MSTORE PUSH1 0x20 PUSH1 0x0 KECCAK256 SWAP1 JUMPDEST DUP2 SLOAD DUP2 MSTORE SWAP1 PUSH1 0x1 ADD SWAP1 PUSH1 0x20 ADD DUP1 DUP4 GT PUSH2 0x357B JUMPI DUP3 SWAP1 SUB PUSH1 0x1F AND DUP3 ADD SWAP2 JUMPDEST POP POP POP SWAP2 DUP4 MSTORE POP POP PUSH1 0x5 DUP3 ADD SLOAD PUSH1 0x20 DUP3 ADD MSTORE PUSH1 0x6 DUP3 ADD SLOAD PUSH1 0x40 DUP3 ADD MSTORE PUSH1 0x7 DUP3 ADD SLOAD PUSH1 0x60 DUP3 ADD MSTORE PUSH1 0x8 DUP3 ADD SLOAD PUSH1 0x80 DUP3 ADD MSTORE PUSH1 0x9 DUP3 ADD SLOAD PUSH1 0xFF DUP1 DUP3 AND ISZERO ISZERO PUSH1 0xA0 DUP5 ADD MSTORE PUSH2 0x100 DUP1 DUP4 DIV DUP3 AND ISZERO ISZERO PUSH1 0xC0 DUP6 ADD MSTORE PUSH3 0x10000 SWAP1 SWAP3 DIV DUP2 AND ISZERO ISZERO PUSH1 0xE0 DUP5 ADD MSTORE PUSH1 0xA DUP5 ADD SLOAD DUP3 DUP5 ADD MSTORE PUSH1 0xB SWAP1 SWAP4 ADD SLOAD DUP1 DUP5 AND ISZERO ISZERO PUSH2 0x120 DUP5 ADD MSTORE DIV SWAP1 SWAP2 AND ISZERO ISZERO PUSH2 0x140 SWAP2 DUP3 ADD MSTORE DUP2 ADD MLOAD SWAP1 SWAP2 POP ISZERO PUSH2 0x3638 JUMPI DUP3 PUSH2 0x3634 DUP2 PUSH2 0x4544 JUMP JUMPDEST SWAP4 POP POP JUMPDEST POP DUP1 PUSH2 0x3643 DUP2 PUSH2 0x4544 JUMP JUMPDEST SWAP2 POP POP PUSH2 0x3379 JUMP JUMPDEST PUSH2 0x3653 PUSH2 0x3BB1 JUMP JUMPDEST PUSH1 0x0 PUSH2 0x365E DUP4 PUSH2 0x2A21 JUMP JUMPDEST PUSH1 0x1 PUSH2 0x140 DUP3 ADD DUP2 SWAP1 MSTORE DUP1 SLOAD SWAP2 SWAP3 POP DUP3 SWAP2 DUP6 SWAP1 DUP2 LT PUSH2 0x367F JUMPI PUSH2 0x367F PUSH2 0x4575 JUMP JUMPDEST PUSH1 0x0 SWAP2 DUP3 MSTORE PUSH1 0x20 SWAP2 DUP3 SWAP1 KECCAK256 DUP4 MLOAD PUSH1 0xC SWAP3 SWAP1 SWAP3 MUL ADD SWAP1 DUP2 SSTORE DUP3 DUP3 ADD MLOAD PUSH1 0x1 DUP3 ADD DUP1 SLOAD PUSH1 0x1 PUSH1 0x1 PUSH1 0xA0 SHL SUB NOT AND PUSH1 0x1 PUSH1 0x1 PUSH1 0xA0 SHL SUB SWAP1 SWAP3 AND SWAP2 SWAP1 SWAP2 OR SWAP1 SSTORE PUSH1 0x40 DUP4 ADD MLOAD DUP1 MLOAD SWAP2 SWAP3 PUSH2 0x36D6 SWAP3 PUSH1 0x2 DUP6 ADD SWAP3 SWAP1 SWAP2 ADD SWAP1 PUSH2 0x3C3A JUMP JUMPDEST POP PUSH1 0x60 DUP3 ADD MLOAD DUP1 MLOAD PUSH2 0x36F2 SWAP2 PUSH1 0x3 DUP5 ADD SWAP2 PUSH1 0x20 SWAP1 SWAP2 ADD SWAP1 PUSH2 0x3C3A JUMP JUMPDEST POP PUSH1 0x80 DUP3 ADD MLOAD DUP1 MLOAD PUSH2 0x370E SWAP2 PUSH1 0x4 DUP5 ADD SWAP2 PUSH1 0x20 SWAP1 SWAP2 ADD SWAP1 PUSH2 0x3C3A JUMP JUMPDEST POP PUSH1 0xA0 DUP3 ADD MLOAD PUSH1 0x5 DUP3 ADD SSTORE PUSH1 0xC0 DUP3 ADD MLOAD PUSH1 0x6 DUP3 ADD SSTORE PUSH1 0xE0 DUP3 ADD MLOAD PUSH1 0x7 DUP3 ADD SSTORE PUSH2 0x100 DUP1 DUP4 ADD MLOAD PUSH1 0x8 DUP4 ADD SSTORE PUSH2 0x120 DUP4 ADD MLOAD PUSH1 0x9 DUP4 ADD DUP1 SLOAD PUSH2 0x140 DUP7 ADD MLOAD PUSH2 0x160 DUP8 ADD MLOAD ISZERO ISZERO PUSH3 0x10000 MUL PUSH3 0xFF0000 NOT SWAP2 ISZERO ISZERO DUP7 MUL PUSH2 0xFF00 NOT SWAP6 ISZERO ISZERO DUP7 AND PUSH2 0xFFFF NOT SWAP5 DUP6 AND OR OR SWAP2 SWAP1 SWAP2 AND OR SWAP1 SWAP2 SSTORE PUSH2 0x180 DUP6 ADD MLOAD PUSH1 0xA DUP6 ADD SSTORE PUSH2 0x1A0 DUP6 ADD MLOAD PUSH1 0xB SWAP1 SWAP5 ADD DUP1 SLOAD PUSH2 0x1C0 SWAP1 SWAP7 ADD MLOAD ISZERO ISZERO SWAP1 SWAP4 MUL SWAP4 ISZERO ISZERO SWAP1 SWAP2 AND SWAP4 AND SWAP3 SWAP1 SWAP3 OR OR SWAP1 SSTORE SWAP3 SWAP2 POP POP JUMP JUMPDEST PUSH1 0x0 DUP1 PUSH1 0x9 PUSH1 0x0 SWAP1 SLOAD SWAP1 PUSH2 0x100 EXP SWAP1 DIV PUSH1 0x1 PUSH1 0x1 PUSH1 0xA0 SHL SUB AND PUSH1 0x1 PUSH1 0x1 PUSH1 0xA0 SHL SUB AND PUSH4 0x313CE567 PUSH1 0x40 MLOAD DUP2 PUSH4 0xFFFFFFFF AND PUSH1 0xE0 SHL DUP2 MSTORE PUSH1 0x4 ADD PUSH1 0x20 PUSH1 0x40 MLOAD DUP1 DUP4 SUB DUP2 DUP7 DUP1 EXTCODESIZE ISZERO DUP1 ISZERO PUSH2 0x3806 JUMPI PUSH1 0x0 DUP1 REVERT JUMPDEST POP GAS STATICCALL ISZERO DUP1 ISZERO PUSH2 0x381A JUMPI RETURNDATASIZE PUSH1 0x0 DUP1 RETURNDATACOPY RETURNDATASIZE PUSH1 0x0 REVERT JUMPDEST POP POP POP POP PUSH1 0x40 MLOAD RETURNDATASIZE PUSH1 0x1F NOT PUSH1 0x1F DUP3 ADD AND DUP3 ADD DUP1 PUSH1 0x40 MSTORE POP DUP2 ADD SWAP1 PUSH2 0x383E SWAP2 SWAP1 PUSH2 0x401D JUMP JUMPDEST PUSH2 0x3849 SWAP1 PUSH1 0xA PUSH2 0x4445 JUMP JUMPDEST PUSH2 0x3853 SWAP1 DUP5 PUSH2 0x44F0 JUMP JUMPDEST PUSH1 0x9 SLOAD PUSH1 0x40 MLOAD PUSH4 0x39509351 PUSH1 0xE0 SHL DUP2 MSTORE ADDRESS PUSH1 0x4 DUP3 ADD MSTORE PUSH1 0x24 DUP2 ADD DUP4 SWAP1 MSTORE SWAP2 SWAP3 POP PUSH1 0x1 PUSH1 0x1 PUSH1 0xA0 SHL SUB AND SWAP1 PUSH4 0x39509351 SWAP1 PUSH1 0x44 ADD PUSH2 0x18F7 JUMP JUMPDEST PUSH2 0x3893 PUSH2 0x3BB1 JUMP JUMPDEST PUSH1 0x0 PUSH2 0x389E DUP4 PUSH2 0x2A21 JUMP JUMPDEST SWAP1 POP PUSH1 0x0 PUSH1 0xA DUP3 PUSH1 0xA0 ADD MLOAD PUSH1 0x1 PUSH2 0x38B5 SWAP2 SWAP1 PUSH2 0x44F0 JUMP JUMPDEST PUSH2 0x38BF SWAP2 SWAP1 PUSH2 0x43E0 JUMP JUMPDEST TIMESTAMP PUSH1 0xE0 DUP5 ADD MSTORE PUSH1 0x1 PUSH2 0x160 DUP5 ADD DUP2 SWAP1 MSTORE PUSH2 0x180 DUP5 ADD DUP3 SWAP1 MSTORE DUP1 SLOAD SWAP2 SWAP3 POP DUP4 SWAP2 DUP7 SWAP1 DUP2 LT PUSH2 0x38EE JUMPI PUSH2 0x38EE PUSH2 0x4575 JUMP JUMPDEST PUSH1 0x0 SWAP2 DUP3 MSTORE PUSH1 0x20 SWAP2 DUP3 SWAP1 KECCAK256 DUP4 MLOAD PUSH1 0xC SWAP3 SWAP1 SWAP3 MUL ADD SWAP1 DUP2 SSTORE DUP3 DUP3 ADD MLOAD PUSH1 0x1 DUP3 ADD DUP1 SLOAD PUSH1 0x1 PUSH1 0x1 PUSH1 0xA0 SHL SUB NOT AND PUSH1 0x1 PUSH1 0x1 PUSH1 0xA0 SHL SUB SWAP1 SWAP3 AND SWAP2 SWAP1 SWAP2 OR SWAP1 SSTORE PUSH1 0x40 DUP4 ADD MLOAD DUP1 MLOAD SWAP2 SWAP3 PUSH2 0x3945 SWAP3 PUSH1 0x2 DUP6 ADD SWAP3 SWAP1 SWAP2 ADD SWAP1 PUSH2 0x3C3A JUMP JUMPDEST POP PUSH1 0x60 DUP3 ADD MLOAD DUP1 MLOAD PUSH2 0x3961 SWAP2 PUSH1 0x3 DUP5 ADD SWAP2 PUSH1 0x20 SWAP1 SWAP2 ADD SWAP1 PUSH2 0x3C3A JUMP JUMPDEST POP PUSH1 0x80 DUP3 ADD MLOAD DUP1 MLOAD PUSH2 0x397D SWAP2 PUSH1 0x4 DUP5 ADD SWAP2 PUSH1 0x20 SWAP1 SWAP2 ADD SWAP1 PUSH2 0x3C3A JUMP JUMPDEST POP PUSH1 0xA0 DUP3 ADD MLOAD PUSH1 0x5 DUP3 ADD SSTORE PUSH1 0xC0 DUP3 ADD MLOAD PUSH1 0x6 DUP3 ADD SSTORE PUSH1 0xE0 DUP3 ADD MLOAD PUSH1 0x7 DUP3 ADD SSTORE PUSH2 0x100 DUP1 DUP4 ADD MLOAD PUSH1 0x8 DUP4 ADD SSTORE PUSH2 0x120 DUP4 ADD MLOAD PUSH1 0x9 DUP4 ADD DUP1 SLOAD PUSH2 0x140 DUP7 ADD MLOAD PUSH2 0x160 DUP8 ADD MLOAD ISZERO ISZERO PUSH3 0x10000 MUL PUSH3 0xFF0000 NOT SWAP2 ISZERO ISZERO DUP7 MUL PUSH2 0xFF00 NOT SWAP6 ISZERO ISZERO DUP7 AND PUSH2 0xFFFF NOT SWAP5 DUP6 AND OR OR SWAP2 SWAP1 SWAP2 AND OR SWAP1 SWAP2 SSTORE PUSH2 0x180 DUP6 ADD MLOAD PUSH1 0xA DUP6 ADD SSTORE PUSH2 0x1A0 DUP6 ADD MLOAD PUSH1 0xB SWAP1 SWAP5 ADD DUP1 SLOAD PUSH2 0x1C0 SWAP1 SWAP7 ADD MLOAD ISZERO ISZERO SWAP1 SWAP4 MUL SWAP4 ISZERO ISZERO SWAP1 SWAP2 AND SWAP4 AND SWAP3 SWAP1 SWAP3 OR OR SWAP1 SSTORE POP SWAP3 SWAP2 POP POP JUMP JUMPDEST PUSH1 0x0 DUP1 DUP1 PUSH2 0x3A32 DUP5 PUSH2 0x6E8 JUMP JUMPDEST SWAP1 POP PUSH1 0x0 JUMPDEST DUP2 MLOAD DUP2 LT ISZERO PUSH2 0x3A84 JUMPI PUSH1 0x0 DUP3 DUP3 DUP2 MLOAD DUP2 LT PUSH2 0x3A54 JUMPI PUSH2 0x3A54 PUSH2 0x4575 JUMP JUMPDEST PUSH1 0x20 MUL PUSH1 0x20 ADD ADD MLOAD SWAP1 POP DUP1 PUSH1 0x60 ADD MLOAD DUP5 PUSH2 0x3A6E SWAP2 SWAP1 PUSH2 0x43C8 JUMP JUMPDEST SWAP4 POP POP DUP1 DUP1 PUSH2 0x3A7C SWAP1 PUSH2 0x4544 JUMP JUMPDEST SWAP2 POP POP PUSH2 0x3A37 JUMP JUMPDEST POP SWAP1 SWAP4 SWAP3 POP POP POP JUMP JUMPDEST PUSH1 0x9 SLOAD PUSH1 0x40 MLOAD PUSH4 0xA9059CBB PUSH1 0xE0 SHL DUP2 MSTORE ADDRESS PUSH1 0x4 DUP3 ADD MSTORE PUSH1 0x24 DUP2 ADD DUP4 SWAP1 MSTORE PUSH1 0x0 SWAP2 PUSH1 0x1 PUSH1 0x1 PUSH1 0xA0 SHL SUB AND SWAP1 PUSH4 0xA9059CBB SWAP1 PUSH1 0x44 ADD PUSH1 0x20 PUSH1 0x40 MLOAD DUP1 DUP4 SUB DUP2 PUSH1 0x0 DUP8 DUP1 EXTCODESIZE ISZERO DUP1 ISZERO PUSH2 0x3ADA JUMPI PUSH1 0x0 DUP1 REVERT JUMPDEST POP GAS CALL ISZERO DUP1 ISZERO PUSH2 0x3AEE JUMPI RETURNDATASIZE PUSH1 0x0 DUP1 RETURNDATACOPY RETURNDATASIZE PUSH1 0x0 REVERT JUMPDEST POP POP POP POP PUSH1 0x40 MLOAD RETURNDATASIZE PUSH1 0x1F NOT PUSH1 0x1F DUP3 ADD AND DUP3 ADD DUP1 PUSH1 0x40 MSTORE POP DUP2 ADD SWAP1 PUSH2 0x5BC SWAP2 SWAP1 PUSH2 0x3F4B JUMP JUMPDEST PUSH1 0x0 DUP1 PUSH2 0x3B1E DUP4 PUSH2 0x5C2 JUMP JUMPDEST SWAP1 POP PUSH1 0x0 JUMPDEST DUP2 MLOAD DUP2 LT ISZERO PUSH2 0x3B75 JUMPI PUSH1 0x0 DUP3 DUP3 DUP2 MLOAD DUP2 LT PUSH2 0x3B40 JUMPI PUSH2 0x3B40 PUSH2 0x4575 JUMP JUMPDEST PUSH1 0x20 MUL PUSH1 0x20 ADD ADD MLOAD SWAP1 POP DUP6 DUP2 PUSH1 0x20 ADD MLOAD EQ ISZERO PUSH2 0x3B62 JUMPI PUSH1 0x1 SWAP4 POP POP POP POP PUSH2 0x5BC JUMP JUMPDEST POP DUP1 PUSH2 0x3B6D DUP2 PUSH2 0x4544 JUMP JUMPDEST SWAP2 POP POP PUSH2 0x3B23 JUMP JUMPDEST POP PUSH1 0x0 SWAP5 SWAP4 POP POP POP POP JUMP JUMPDEST PUSH1 0x40 MLOAD DUP1 PUSH1 0x80 ADD PUSH1 0x40 MSTORE DUP1 PUSH1 0x0 DUP2 MSTORE PUSH1 0x20 ADD PUSH1 0x0 DUP2 MSTORE PUSH1 0x20 ADD PUSH1 0x0 PUSH1 0x1 PUSH1 0x1 PUSH1 0xA0 SHL SUB AND DUP2 MSTORE PUSH1 0x20 ADD PUSH1 0x0 DUP2 MSTORE POP SWAP1 JUMP JUMPDEST PUSH1 0x40 MLOAD DUP1 PUSH2 0x1E0 ADD PUSH1 0x40 MSTORE DUP1 PUSH1 0x0 DUP2 MSTORE PUSH1 0x20 ADD PUSH1 0x0 PUSH1 0x1 PUSH1 0x1 PUSH1 0xA0 SHL SUB AND DUP2 MSTORE PUSH1 0x20 ADD PUSH1 0x60 DUP2 MSTORE PUSH1 0x20 ADD PUSH1 0x60 DUP2 MSTORE PUSH1 0x20 ADD PUSH1 0x60 DUP2 MSTORE PUSH1 0x20 ADD PUSH1 0x0 DUP2 MSTORE PUSH1 0x20 ADD PUSH1 0x0 DUP2 MSTORE PUSH1 0x20 ADD PUSH1 0x0 DUP2 MSTORE PUSH1 0x20 ADD PUSH1 0x0 DUP2 MSTORE PUSH1 0x20 ADD PUSH1 0x0 ISZERO ISZERO DUP2 MSTORE PUSH1 0x20 ADD PUSH1 0x0 ISZERO ISZERO DUP2 MSTORE PUSH1 0x20 ADD PUSH1 0x0 ISZERO ISZERO DUP2 MSTORE PUSH1 0x20 ADD PUSH1 0x0 DUP2 MSTORE PUSH1 0x20 ADD PUSH1 0x0 ISZERO ISZERO DUP2 MSTORE PUSH1 0x20 ADD PUSH1 0x0 ISZERO ISZERO DUP2 MSTORE POP SWAP1 JUMP JUMPDEST DUP3 DUP1 SLOAD PUSH2 0x3C46 SWAP1 PUSH2 0x450F JUMP JUMPDEST SWAP1 PUSH1 0x0 MSTORE PUSH1 0x20 PUSH1 0x0 KECCAK256 SWAP1 PUSH1 0x1F ADD PUSH1 0x20 SWAP1 DIV DUP2 ADD SWAP3 DUP3 PUSH2 0x3C68 JUMPI PUSH1 0x0 DUP6 SSTORE PUSH2 0x3CAE JUMP JUMPDEST DUP3 PUSH1 0x1F LT PUSH2 0x3C81 JUMPI DUP1 MLOAD PUSH1 0xFF NOT AND DUP4 DUP1 ADD OR DUP6 SSTORE PUSH2 0x3CAE JUMP JUMPDEST DUP3 DUP1 ADD PUSH1 0x1 ADD DUP6 SSTORE DUP3 ISZERO PUSH2 0x3CAE JUMPI SWAP2 DUP3 ADD JUMPDEST DUP3 DUP2 GT ISZERO PUSH2 0x3CAE JUMPI DUP3 MLOAD DUP3 SSTORE SWAP2 PUSH1 0x20 ADD SWAP2 SWAP1 PUSH1 0x1 ADD SWAP1 PUSH2 0x3C93 JUMP JUMPDEST POP PUSH2 0x3CBA SWAP3 SWAP2 POP PUSH2 0x3D42 JUMP JUMPDEST POP SWAP1 JUMP JUMPDEST PUSH1 0x40 MLOAD DUP1 PUSH1 0xC0 ADD PUSH1 0x40 MSTORE DUP1 PUSH1 0x0 DUP2 MSTORE PUSH1 0x20 ADD PUSH1 0x0 PUSH1 0x1 PUSH1 0x1 PUSH1 0xA0 SHL SUB AND DUP2 MSTORE PUSH1 0x20 ADD PUSH1 0x60 DUP2 MSTORE PUSH1 0x20 ADD PUSH1 0x60 DUP2 MSTORE PUSH1 0x20 ADD PUSH1 0x0 ISZERO ISZERO DUP2 MSTORE PUSH1 0x20 ADD PUSH1 0x0 ISZERO ISZERO DUP2 MSTORE POP SWAP1 JUMP JUMPDEST PUSH1 0x40 MLOAD DUP1 PUSH1 0xC0 ADD PUSH1 0x40 MSTORE DUP1 PUSH1 0x0 DUP2 MSTORE PUSH1 0x20 ADD PUSH1 0x0 DUP2 MSTORE PUSH1 0x20 ADD PUSH1 0x0 PUSH1 0x1 PUSH1 0x1 PUSH1 0xA0 SHL SUB AND DUP2 MSTORE PUSH1 0x20 ADD PUSH1 0x0 DUP2 MSTORE PUSH1 0x20 ADD PUSH1 0x0 DUP2 MSTORE PUSH1 0x20 ADD PUSH1 0x0 ISZERO ISZERO DUP2 MSTORE POP SWAP1 JUMP JUMPDEST JUMPDEST DUP1 DUP3 GT ISZERO PUSH2 0x3CBA JUMPI PUSH1 0x0 DUP2 SSTORE PUSH1 0x1 ADD PUSH2 0x3D43 JUMP JUMPDEST DUP1 CALLDATALOAD PUSH1 0x1 PUSH1 0x1 PUSH1 0xA0 SHL SUB DUP2 AND DUP2 EQ PUSH2 0x1788 JUMPI PUSH1 0x0 DUP1 REVERT JUMPDEST PUSH1 0x0 DUP3 PUSH1 0x1F DUP4 ADD SLT PUSH2 0x3D7F JUMPI PUSH1 0x0 DUP1 REVERT JUMPDEST DUP2 CALLDATALOAD PUSH8 0xFFFFFFFFFFFFFFFF DUP1 DUP3 GT ISZERO PUSH2 0x3D9A JUMPI PUSH2 0x3D9A PUSH2 0x458B JUMP JUMPDEST PUSH1 0x40 MLOAD PUSH1 0x1F DUP4 ADD PUSH1 0x1F NOT SWAP1 DUP2 AND PUSH1 0x3F ADD AND DUP2 ADD SWAP1 DUP3 DUP3 GT DUP2 DUP4 LT OR ISZERO PUSH2 0x3DC2 JUMPI PUSH2 0x3DC2 PUSH2 0x458B JUMP JUMPDEST DUP2 PUSH1 0x40 MSTORE DUP4 DUP2 MSTORE DUP7 PUSH1 0x20 DUP6 DUP9 ADD ADD GT ISZERO PUSH2 0x3DDB JUMPI PUSH1 0x0 DUP1 REVERT JUMPDEST DUP4 PUSH1 0x20 DUP8 ADD PUSH1 0x20 DUP4 ADD CALLDATACOPY PUSH1 0x0 PUSH1 0x20 DUP6 DUP4 ADD ADD MSTORE DUP1 SWAP5 POP POP POP POP POP SWAP3 SWAP2 POP POP JUMP JUMPDEST PUSH1 0x0 PUSH1 0x20 DUP3 DUP5 SUB SLT ISZERO PUSH2 0x3E0D JUMPI PUSH1 0x0 DUP1 REVERT JUMPDEST PUSH2 0xC57 DUP3 PUSH2 0x3D57 JUMP JUMPDEST PUSH1 0x0 DUP1 PUSH1 0x0 PUSH1 0x60 DUP5 DUP7 SUB SLT ISZERO PUSH2 0x3E2B JUMPI PUSH1 0x0 DUP1 REVERT JUMPDEST PUSH2 0x3E34 DUP5 PUSH2 0x3D57 JUMP JUMPDEST SWAP3 POP PUSH1 0x20 DUP5 ADD CALLDATALOAD PUSH8 0xFFFFFFFFFFFFFFFF DUP1 DUP3 GT ISZERO PUSH2 0x3E51 JUMPI PUSH1 0x0 DUP1 REVERT JUMPDEST PUSH2 0x3E5D DUP8 DUP4 DUP9 ADD PUSH2 0x3D6E JUMP JUMPDEST SWAP4 POP PUSH1 0x40 DUP7 ADD CALLDATALOAD SWAP2 POP DUP1 DUP3 GT ISZERO PUSH2 0x3E73 JUMPI PUSH1 0x0 DUP1 REVERT JUMPDEST POP PUSH2 0x3E80 DUP7 DUP3 DUP8 ADD PUSH2 0x3D6E JUMP JUMPDEST SWAP2 POP POP SWAP3 POP SWAP3 POP SWAP3 JUMP JUMPDEST PUSH1 0x0 DUP1 PUSH1 0x0 DUP1 PUSH1 0x0 DUP1 PUSH1 0x0 PUSH1 0xE0 DUP9 DUP11 SUB SLT ISZERO PUSH2 0x3EA5 JUMPI PUSH1 0x0 DUP1 REVERT JUMPDEST PUSH2 0x3EAE DUP9 PUSH2 0x3D57 JUMP JUMPDEST SWAP7 POP PUSH1 0x20 DUP9 ADD CALLDATALOAD PUSH8 0xFFFFFFFFFFFFFFFF DUP1 DUP3 GT ISZERO PUSH2 0x3ECB JUMPI PUSH1 0x0 DUP1 REVERT JUMPDEST PUSH2 0x3ED7 DUP12 DUP4 DUP13 ADD PUSH2 0x3D6E JUMP JUMPDEST SWAP8 POP PUSH1 0x40 DUP11 ADD CALLDATALOAD SWAP2 POP DUP1 DUP3 GT ISZERO PUSH2 0x3EED JUMPI PUSH1 0x0 DUP1 REVERT JUMPDEST PUSH2 0x3EF9 DUP12 DUP4 DUP13 ADD PUSH2 0x3D6E JUMP JUMPDEST SWAP7 POP PUSH1 0x60 DUP11 ADD CALLDATALOAD SWAP2 POP DUP1 DUP3 GT ISZERO PUSH2 0x3F0F JUMPI PUSH1 0x0 DUP1 REVERT JUMPDEST POP PUSH2 0x3F1C DUP11 DUP3 DUP12 ADD PUSH2 0x3D6E JUMP JUMPDEST SWAP5 POP POP PUSH1 0x80 DUP9 ADD CALLDATALOAD SWAP3 POP PUSH1 0xA0 DUP9 ADD CALLDATALOAD SWAP2 POP PUSH1 0xC0 DUP9 ADD CALLDATALOAD PUSH2 0x3F3B DUP2 PUSH2 0x45A1 JUMP JUMPDEST DUP1 SWAP2 POP POP SWAP3 SWAP6 SWAP9 SWAP2 SWAP5 SWAP8 POP SWAP3 SWAP6 POP JUMP JUMPDEST PUSH1 0x0 PUSH1 0x20 DUP3 DUP5 SUB SLT ISZERO PUSH2 0x3F5D JUMPI PUSH1 0x0 DUP1 REVERT JUMPDEST DUP2 MLOAD PUSH2 0xC57 DUP2 PUSH2 0x45A1 JUMP JUMPDEST PUSH1 0x0 PUSH1 0x20 DUP3 DUP5 SUB SLT ISZERO PUSH2 0x3F7A JUMPI PUSH1 0x0 DUP1 REVERT JUMPDEST POP CALLDATALOAD SWAP2 SWAP1 POP JUMP JUMPDEST PUSH1 0x0 PUSH1 0x20 DUP3 DUP5 SUB SLT ISZERO PUSH2 0x3F93 JUMPI PUSH1 0x0 DUP1 REVERT JUMPDEST POP MLOAD SWAP2 SWAP1 POP JUMP JUMPDEST PUSH1 0x0 DUP1 PUSH1 0x40 DUP4 DUP6 SUB SLT ISZERO PUSH2 0x3FAD JUMPI PUSH1 0x0 DUP1 REVERT JUMPDEST DUP3 CALLDATALOAD SWAP2 POP PUSH2 0x3FBD PUSH1 0x20 DUP5 ADD PUSH2 0x3D57 JUMP JUMPDEST SWAP1 POP SWAP3 POP SWAP3 SWAP1 POP JUMP JUMPDEST PUSH1 0x0 DUP1 PUSH1 0x0 PUSH1 0x60 DUP5 DUP7 SUB SLT ISZERO PUSH2 0x3FDB JUMPI PUSH1 0x0 DUP1 REVERT JUMPDEST DUP4 CALLDATALOAD SWAP3 POP PUSH2 0x3FEB PUSH1 0x20 DUP6 ADD PUSH2 0x3D57 JUMP JUMPDEST SWAP2 POP PUSH1 0x40 DUP5 ADD CALLDATALOAD SWAP1 POP SWAP3 POP SWAP3 POP SWAP3 JUMP JUMPDEST PUSH1 0x0 DUP1 PUSH1 0x40 DUP4 DUP6 SUB SLT ISZERO PUSH2 0x400E JUMPI PUSH1 0x0 DUP1 REVERT JUMPDEST POP POP DUP1 CALLDATALOAD SWAP3 PUSH1 0x20 SWAP1 SWAP2 ADD CALLDATALOAD SWAP2 POP JUMP JUMPDEST PUSH1 0x0 PUSH1 0x20 DUP3 DUP5 SUB SLT ISZERO PUSH2 0x402F JUMPI PUSH1 0x0 DUP1 REVERT JUMPDEST DUP2 MLOAD PUSH1 0xFF DUP2 AND DUP2 EQ PUSH2 0xC57 JUMPI PUSH1 0x0 DUP1 REVERT JUMPDEST PUSH1 0x0 DUP2 MLOAD DUP1 DUP5 MSTORE PUSH1 0x0 JUMPDEST DUP2 DUP2 LT ISZERO PUSH2 0x4066 JUMPI PUSH1 0x20 DUP2 DUP6 ADD DUP2 ADD MLOAD DUP7 DUP4 ADD DUP3 ADD MSTORE ADD PUSH2 0x404A JUMP JUMPDEST DUP2 DUP2 GT ISZERO PUSH2 0x4078 JUMPI PUSH1 0x0 PUSH1 0x20 DUP4 DUP8 ADD ADD MSTORE JUMPDEST POP PUSH1 0x1F ADD PUSH1 0x1F NOT AND SWAP3 SWAP1 SWAP3 ADD PUSH1 0x20 ADD SWAP3 SWAP2 POP POP JUMP JUMPDEST PUSH1 0x0 PUSH2 0x1E0 DUP3 MLOAD DUP5 MSTORE PUSH1 0x20 DUP4 ADD MLOAD PUSH2 0x40B0 PUSH1 0x20 DUP7 ADD DUP3 PUSH1 0x1 PUSH1 0x1 PUSH1 0xA0 SHL SUB AND SWAP1 MSTORE JUMP JUMPDEST POP PUSH1 0x40 DUP4 ADD MLOAD DUP2 PUSH1 0x40 DUP7 ADD MSTORE PUSH2 0x40C8 DUP3 DUP7 ADD DUP3 PUSH2 0x4040 JUMP JUMPDEST SWAP2 POP POP PUSH1 0x60 DUP4 ADD MLOAD DUP5 DUP3 SUB PUSH1 0x60 DUP7 ADD MSTORE PUSH2 0x40E2 DUP3 DUP3 PUSH2 0x4040 JUMP JUMPDEST SWAP2 POP POP PUSH1 0x80 DUP4 ADD MLOAD DUP5 DUP3 SUB PUSH1 0x80 DUP7 ADD MSTORE PUSH2 0x40FC DUP3 DUP3 PUSH2 0x4040 JUMP JUMPDEST SWAP2 POP POP PUSH1 0xA0 DUP4 ADD MLOAD PUSH1 0xA0 DUP6 ADD MSTORE PUSH1 0xC0 DUP4 ADD MLOAD PUSH1 0xC0 DUP6 ADD MSTORE PUSH1 0xE0 DUP4 ADD MLOAD PUSH1 0xE0 DUP6 ADD MSTORE PUSH2 0x100 DUP1 DUP5 ADD MLOAD DUP2 DUP7 ADD MSTORE POP PUSH2 0x120 DUP1 DUP5 ADD MLOAD PUSH2 0x413D DUP3 DUP8 ADD DUP3 ISZERO ISZERO SWAP1 MSTORE JUMP JUMPDEST POP POP PUSH2 0x140 DUP4 DUP2 ADD MLOAD ISZERO ISZERO SWAP1 DUP6 ADD MSTORE PUSH2 0x160 DUP1 DUP5 ADD MLOAD ISZERO ISZERO SWAP1 DUP6 ADD MSTORE PUSH2 0x180 DUP1 DUP5 ADD MLOAD SWAP1 DUP6 ADD MSTORE PUSH2 0x1A0 DUP1 DUP5 ADD MLOAD ISZERO ISZERO SWAP1 DUP6 ADD MSTORE PUSH2 0x1C0 SWAP3 DUP4 ADD MLOAD ISZERO ISZERO SWAP3 SWAP1 SWAP4 ADD SWAP2 SWAP1 SWAP2 MSTORE POP SWAP1 JUMP JUMPDEST DUP1 MLOAD DUP3 MSTORE PUSH1 0x1 DUP1 PUSH1 0xA0 SHL SUB PUSH1 0x20 DUP3 ADD MLOAD AND PUSH1 0x20 DUP4 ADD MSTORE PUSH1 0x0 PUSH1 0x40 DUP3 ADD MLOAD PUSH1 0xC0 PUSH1 0x40 DUP6 ADD MSTORE PUSH2 0x41B7 PUSH1 0xC0 DUP6 ADD DUP3 PUSH2 0x4040 JUMP JUMPDEST SWAP1 POP PUSH1 0x60 DUP4 ADD MLOAD DUP5 DUP3 SUB PUSH1 0x60 DUP7 ADD MSTORE PUSH2 0x41D0 DUP3 DUP3 PUSH2 0x4040 JUMP JUMPDEST SWAP2 POP POP PUSH1 0x80 DUP4 ADD MLOAD ISZERO ISZERO PUSH1 0x80 DUP6 ADD MSTORE PUSH1 0xA0 DUP4 ADD MLOAD ISZERO ISZERO PUSH1 0xA0 DUP6 ADD MSTORE DUP1 SWAP2 POP POP SWAP3 SWAP2 POP POP JUMP JUMPDEST PUSH1 0x0 PUSH1 0x20 DUP1 DUP4 ADD DUP2 DUP5 MSTORE DUP1 DUP6 MLOAD DUP1 DUP4 MSTORE PUSH1 0x40 DUP7 ADD SWAP2 POP PUSH1 0x40 DUP2 PUSH1 0x5 SHL DUP8 ADD ADD SWAP3 POP DUP4 DUP8 ADD PUSH1 0x0 JUMPDEST DUP3 DUP2 LT ISZERO PUSH2 0x424A JUMPI PUSH1 0x3F NOT DUP9 DUP7 SUB ADD DUP5 MSTORE PUSH2 0x4238 DUP6 DUP4 MLOAD PUSH2 0x408D JUMP JUMPDEST SWAP5 POP SWAP3 DUP6 ADD SWAP3 SWAP1 DUP6 ADD SWAP1 PUSH1 0x1 ADD PUSH2 0x421C JUMP JUMPDEST POP SWAP3 SWAP8 SWAP7 POP POP POP POP POP POP POP JUMP JUMPDEST PUSH1 0x20 DUP1 DUP3 MSTORE DUP3 MLOAD DUP3 DUP3 ADD DUP2 SWAP1 MSTORE PUSH1 0x0 SWAP2 SWAP1 DUP5 DUP3 ADD SWAP1 PUSH1 0x40 DUP6 ADD SWAP1 DUP5 JUMPDEST DUP2 DUP2 LT ISZERO PUSH2 0x42C0 JUMPI PUSH2 0x42AD DUP4 DUP6 MLOAD DUP1 MLOAD DUP3 MSTORE PUSH1 0x20 DUP1 DUP3 ADD MLOAD SWAP1 DUP4 ADD MSTORE PUSH1 0x40 DUP1 DUP3 ADD MLOAD PUSH1 0x1 PUSH1 0x1 PUSH1 0xA0 SHL SUB AND SWAP1 DUP4 ADD MSTORE PUSH1 0x60 SWAP1 DUP2 ADD MLOAD SWAP2 ADD MSTORE JUMP JUMPDEST SWAP3 DUP5 ADD SWAP3 PUSH1 0x80 SWAP3 SWAP1 SWAP3 ADD SWAP2 PUSH1 0x1 ADD PUSH2 0x4273 JUMP JUMPDEST POP SWAP1 SWAP7 SWAP6 POP POP POP POP POP POP JUMP JUMPDEST PUSH1 0x0 PUSH1 0x20 DUP1 DUP4 ADD DUP2 DUP5 MSTORE DUP1 DUP6 MLOAD DUP1 DUP4 MSTORE PUSH1 0x40 DUP7 ADD SWAP2 POP PUSH1 0x40 DUP2 PUSH1 0x5 SHL DUP8 ADD ADD SWAP3 POP DUP4 DUP8 ADD PUSH1 0x0 JUMPDEST DUP3 DUP2 LT ISZERO PUSH2 0x424A JUMPI PUSH1 0x3F NOT DUP9 DUP7 SUB ADD DUP5 MSTORE PUSH2 0x430F DUP6 DUP4 MLOAD PUSH2 0x4186 JUMP JUMPDEST SWAP5 POP SWAP3 DUP6 ADD SWAP3 SWAP1 DUP6 ADD SWAP1 PUSH1 0x1 ADD PUSH2 0x42F3 JUMP JUMPDEST PUSH1 0x20 DUP1 DUP3 MSTORE PUSH1 0x2D SWAP1 DUP3 ADD MSTORE PUSH32 0x4F6E6C792061204372656174696E6720757365722063616E20706572666F726D PUSH1 0x40 DUP3 ADD MSTORE PUSH13 0x103A3434B99030B1BA34B7B717 PUSH1 0x99 SHL PUSH1 0x60 DUP3 ADD MSTORE PUSH1 0x80 ADD SWAP1 JUMP JUMPDEST PUSH1 0x20 DUP2 MSTORE PUSH1 0x0 PUSH2 0xC57 PUSH1 0x20 DUP4 ADD DUP5 PUSH2 0x408D JUMP JUMPDEST DUP2 MLOAD DUP2 MSTORE PUSH1 0x20 DUP1 DUP4 ADD MLOAD SWAP1 DUP3 ADD MSTORE PUSH1 0x40 DUP1 DUP4 ADD MLOAD PUSH1 0x1 PUSH1 0x1 PUSH1 0xA0 SHL SUB AND SWAP1 DUP3 ADD MSTORE PUSH1 0x60 DUP1 DUP4 ADD MLOAD SWAP1 DUP3 ADD MSTORE PUSH1 0x80 DUP2 ADD PUSH2 0x5BC JUMP JUMPDEST PUSH1 0x20 DUP2 MSTORE PUSH1 0x0 PUSH2 0xC57 PUSH1 0x20 DUP4 ADD DUP5 PUSH2 0x4186 JUMP JUMPDEST PUSH1 0x0 DUP3 NOT DUP3 GT ISZERO PUSH2 0x43DB JUMPI PUSH2 0x43DB PUSH2 0x455F JUMP JUMPDEST POP ADD SWAP1 JUMP JUMPDEST PUSH1 0x0 DUP3 PUSH2 0x43FD JUMPI PUSH4 0x4E487B71 PUSH1 0xE0 SHL PUSH1 0x0 MSTORE PUSH1 0x12 PUSH1 0x4 MSTORE PUSH1 0x24 PUSH1 0x0 REVERT JUMPDEST POP DIV SWAP1 JUMP JUMPDEST PUSH1 0x1 DUP2 DUP2 JUMPDEST DUP1 DUP6 GT ISZERO PUSH2 0x443D JUMPI DUP2 PUSH1 0x0 NOT DIV DUP3 GT ISZERO PUSH2 0x4423 JUMPI PUSH2 0x4423 PUSH2 0x455F JUMP JUMPDEST DUP1 DUP6 AND ISZERO PUSH2 0x4430 JUMPI SWAP2 DUP2 MUL SWAP2 JUMPDEST SWAP4 DUP5 SHR SWAP4 SWAP1 DUP1 MUL SWAP1 PUSH2 0x4407 JUMP JUMPDEST POP SWAP3 POP SWAP3 SWAP1 POP JUMP JUMPDEST PUSH1 0x0 PUSH2 0xC57 PUSH1 0xFF DUP5 AND DUP4 PUSH1 0x0 DUP3 PUSH2 0x445E JUMPI POP PUSH1 0x1 PUSH2 0x5BC JUMP JUMPDEST DUP2 PUSH2 0x446B JUMPI POP PUSH1 0x0 PUSH2 0x5BC JUMP JUMPDEST DUP2 PUSH1 0x1 DUP2 EQ PUSH2 0x4481 JUMPI PUSH1 0x2 DUP2 EQ PUSH2 0x448B JUMPI PUSH2 0x44A7 JUMP JUMPDEST PUSH1 0x1 SWAP2 POP POP PUSH2 0x5BC JUMP JUMPDEST PUSH1 0xFF DUP5 GT ISZERO PUSH2 0x449C JUMPI PUSH2 0x449C PUSH2 0x455F JUMP JUMPDEST POP POP PUSH1 0x1 DUP3 SHL PUSH2 0x5BC JUMP JUMPDEST POP PUSH1 0x20 DUP4 LT PUSH2 0x133 DUP4 LT AND PUSH1 0x4E DUP5 LT PUSH1 0xB DUP5 LT AND OR ISZERO PUSH2 0x44CA JUMPI POP DUP2 DUP2 EXP PUSH2 0x5BC JUMP JUMPDEST PUSH2 0x44D4 DUP4 DUP4 PUSH2 0x4402 JUMP JUMPDEST DUP1 PUSH1 0x0 NOT DIV DUP3 GT ISZERO PUSH2 0x44E8 JUMPI PUSH2 0x44E8 PUSH2 0x455F JUMP JUMPDEST MUL SWAP4 SWAP3 POP POP POP JUMP JUMPDEST PUSH1 0x0 DUP2 PUSH1 0x0 NOT DIV DUP4 GT DUP3 ISZERO ISZERO AND ISZERO PUSH2 0x450A JUMPI PUSH2 0x450A PUSH2 0x455F JUMP JUMPDEST POP MUL SWAP1 JUMP JUMPDEST PUSH1 0x1 DUP2 DUP2 SHR SWAP1 DUP3 AND DUP1 PUSH2 0x4523 JUMPI PUSH1 0x7F DUP3 AND SWAP2 POP JUMPDEST PUSH1 0x20 DUP3 LT DUP2 EQ ISZERO PUSH2 0x8EF JUMPI PUSH4 0x4E487B71 PUSH1 0xE0 SHL PUSH1 0x0 MSTORE PUSH1 0x22 PUSH1 0x4 MSTORE PUSH1 0x24 PUSH1 0x0 REVERT JUMPDEST PUSH1 0x0 PUSH1 0x0 NOT DUP3 EQ ISZERO PUSH2 0x4558 JUMPI PUSH2 0x4558 PUSH2 0x455F JUMP JUMPDEST POP PUSH1 0x1 ADD SWAP1 JUMP JUMPDEST PUSH4 0x4E487B71 PUSH1 0xE0 SHL PUSH1 0x0 MSTORE PUSH1 0x11 PUSH1 0x4 MSTORE PUSH1 0x24 PUSH1 0x0 REVERT JUMPDEST PUSH4 0x4E487B71 PUSH1 0xE0 SHL PUSH1 0x0 MSTORE PUSH1 0x32 PUSH1 0x4 MSTORE PUSH1 0x24 PUSH1 0x0 REVERT JUMPDEST PUSH4 0x4E487B71 PUSH1 0xE0 SHL PUSH1 0x0 MSTORE PUSH1 0x41 PUSH1 0x4 MSTORE PUSH1 0x24 PUSH1 0x0 REVERT JUMPDEST DUP1 ISZERO ISZERO DUP2 EQ PUSH2 0x45AF JUMPI PUSH1 0x0 DUP1 REVERT JUMPDEST POP JUMP INVALID LOG2 PUSH5 0x6970667358 0x22 SLT KECCAK256 PUSH20 0xD24C14265C096C0B483D20CBB6149FAE4DEC8D29 SDIV 0x22 PUSH16 0x538692AFBA553B64736F6C63430008 SMOD STOP CALLER "
		},
		"gasEstimates": {
			"creation": {
				"codeDepositCost": "3579200",
				"executionCost": "infinite",
				"totalCost": "infinite"
			},
			"external": {
				"approveStekcitBM(uint256)": "infinite",
				"checkIfEventIsAlreadyPaidOut(uint256)": "infinite",
				"checkIfUserAlreadyHasTicket(uint256,address)": "infinite",
				"checkIfUserExists(address)": "infinite",
				"checkIfUserisCreatingUserOfEvent(uint256,address)": "infinite",
				"checkStekcitBMAllowanceOfUser(address)": "infinite",
				"createEvent(address,string,string,string,uint256,uint256,bool)": "infinite",
				"createPayout(uint256,uint256)": "infinite",
				"createTicketForUser(uint256,address,uint256)": "infinite",
				"createUser(address,string,string)": "infinite",
				"getAllEventsCreatedByUser(address)": "infinite",
				"getAllPublishedEvents()": "infinite",
				"getAllTicketsOfEvent(uint256)": "infinite",
				"getAllTicketsOfUser(address)": "infinite",
				"getEventAttendees(uint256)": "infinite",
				"getEventById(uint256)": "infinite",
				"getNumberOfAllPublishedEvents()": "infinite",
				"getNumberOfTicketsOfEvent(uint256)": "infinite",
				"getNumberOfTicketsOfUser(address)": "infinite",
				"getPayoutById(uint256)": "15762",
				"getTicketById(uint256)": "11419",
				"getTotalAmountPaidToEvent(uint256)": "infinite",
				"getTotalNumberOfAllEventsCreatedByUser(address)": "infinite",
				"getTotalNumberOfTicketsOfEvent(uint256)": "infinite",
				"getUserByUserId(uint256)": "infinite",
				"getUserByWalletAddress(address)": "infinite",
				"increaseApprovalForStekcitBM(uint256)": "infinite",
				"makeCreatingUser(address)": "infinite",
				"payForEvent(uint256)": "infinite",
				"processPayout(uint256)": "infinite",
				"publishEvent(uint256)": "infinite",
				"stekcitBMOwnerAddress()": "2449",
				"verifyEvent(uint256)": "infinite"
			}
		},
		"methodIdentifiers": {
			"approveStekcitBM(uint256)": "7370f6cc",
			"checkIfEventIsAlreadyPaidOut(uint256)": "24c67b03",
			"checkIfUserAlreadyHasTicket(uint256,address)": "f5caa96b",
			"checkIfUserExists(address)": "9371de2b",
			"checkIfUserisCreatingUserOfEvent(uint256,address)": "75362943",
			"checkStekcitBMAllowanceOfUser(address)": "0c6c56f9",
			"createEvent(address,string,string,string,uint256,uint256,bool)": "25299d67",
			"createPayout(uint256,uint256)": "bb72caef",
			"createTicketForUser(uint256,address,uint256)": "25fb0d55",
			"createUser(address,string,string)": "4ceb48fd",
			"getAllEventsCreatedByUser(address)": "3b902afe",
			"getAllPublishedEvents()": "5d3ee0ee",
			"getAllTicketsOfEvent(uint256)": "235b3a3d",
			"getAllTicketsOfUser(address)": "184b0938",
			"getEventAttendees(uint256)": "ad395c14",
			"getEventById(uint256)": "b98079bc",
			"getNumberOfAllPublishedEvents()": "cee34e7b",
			"getNumberOfTicketsOfEvent(uint256)": "7354a25f",
			"getNumberOfTicketsOfUser(address)": "666ac2fb",
			"getPayoutById(uint256)": "65212f70",
			"getTicketById(uint256)": "27b7aabc",
			"getTotalAmountPaidToEvent(uint256)": "e5b16b4c",
			"getTotalNumberOfAllEventsCreatedByUser(address)": "c5b84029",
			"getTotalNumberOfTicketsOfEvent(uint256)": "76f8cbd5",
			"getUserByUserId(uint256)": "c89e9666",
			"getUserByWalletAddress(address)": "99bb6b08",
			"increaseApprovalForStekcitBM(uint256)": "d011287d",
			"makeCreatingUser(address)": "71ffeffe",
			"payForEvent(uint256)": "ea42e486",
			"processPayout(uint256)": "89ee68bf",
			"publishEvent(uint256)": "cfd9f3da",
			"stekcitBMOwnerAddress()": "9720807c",
			"verifyEvent(uint256)": "d903708b"
		}
	},
	"abi": [
		{
			"inputs": [
				{
					"internalType": "address",
					"name": "_stekcitBMOwnerAddress",
					"type": "address"
				}
			],
			"stateMutability": "nonpayable",
			"type": "constructor"
		},
		{
			"inputs": [
				{
					"internalType": "uint256",
					"name": "_amount",
					"type": "uint256"
				}
			],
			"name": "approveStekcitBM",
			"outputs": [
				{
					"internalType": "bool",
					"name": "",
					"type": "bool"
				}
			],
			"stateMutability": "nonpayable",
			"type": "function"
		},
		{
			"inputs": [
				{
					"internalType": "uint256",
					"name": "_eventId",
					"type": "uint256"
				}
			],
			"name": "checkIfEventIsAlreadyPaidOut",
			"outputs": [
				{
					"internalType": "bool",
					"name": "",
					"type": "bool"
				}
			],
			"stateMutability": "view",
			"type": "function"
		},
		{
			"inputs": [
				{
					"internalType": "uint256",
					"name": "_eventId",
					"type": "uint256"
				},
				{
					"internalType": "address",
					"name": "_walletAddress",
					"type": "address"
				}
			],
			"name": "checkIfUserAlreadyHasTicket",
			"outputs": [
				{
					"internalType": "bool",
					"name": "",
					"type": "bool"
				}
			],
			"stateMutability": "view",
			"type": "function"
		},
		{
			"inputs": [
				{
					"internalType": "address",
					"name": "_walletAddress",
					"type": "address"
				}
			],
			"name": "checkIfUserExists",
			"outputs": [
				{
					"internalType": "bool",
					"name": "",
					"type": "bool"
				}
			],
			"stateMutability": "view",
			"type": "function"
		},
		{
			"inputs": [
				{
					"internalType": "uint256",
					"name": "_eventId",
					"type": "uint256"
				},
				{
					"internalType": "address",
					"name": "_walletAddress",
					"type": "address"
				}
			],
			"name": "checkIfUserisCreatingUserOfEvent",
			"outputs": [
				{
					"internalType": "bool",
					"name": "",
					"type": "bool"
				}
			],
			"stateMutability": "view",
			"type": "function"
		},
		{
			"inputs": [
				{
					"internalType": "address",
					"name": "_walletAddress",
					"type": "address"
				}
			],
			"name": "checkStekcitBMAllowanceOfUser",
			"outputs": [
				{
					"internalType": "uint256",
					"name": "",
					"type": "uint256"
				}
			],
			"stateMutability": "view",
			"type": "function"
		},
		{
			"inputs": [
				{
					"internalType": "address",
					"name": "_creatingWalletAddress",
					"type": "address"
				},
				{
					"internalType": "string",
					"name": "_title",
					"type": "string"
				},
				{
					"internalType": "string",
					"name": "_description",
					"type": "string"
				},
				{
					"internalType": "string",
					"name": "_link",
					"type": "string"
				},
				{
					"internalType": "uint256",
					"name": "_amount",
					"type": "uint256"
				},
				{
					"internalType": "uint256",
					"name": "dateAndTime",
					"type": "uint256"
				},
				{
					"internalType": "bool",
					"name": "forImmediatePublishing",
					"type": "bool"
				}
			],
			"name": "createEvent",
			"outputs": [
				{
					"components": [
						{
							"internalType": "uint256",
							"name": "id",
							"type": "uint256"
						},
						{
							"internalType": "address",
							"name": "creatingUserWalletAddress",
							"type": "address"
						},
						{
							"internalType": "string",
							"name": "title",
							"type": "string"
						},
						{
							"internalType": "string",
							"name": "description",
							"type": "string"
						},
						{
							"internalType": "string",
							"name": "link",
							"type": "string"
						},
						{
							"internalType": "uint256",
							"name": "amount",
							"type": "uint256"
						},
						{
							"internalType": "uint256",
							"name": "createdAt",
							"type": "uint256"
						},
						{
							"internalType": "uint256",
							"name": "updatedAt",
							"type": "uint256"
						},
						{
							"internalType": "uint256",
							"name": "dateAndTime",
							"type": "uint256"
						},
						{
							"internalType": "bool",
							"name": "isBlank",
							"type": "bool"
						},
						{
							"internalType": "bool",
							"name": "isPublished",
							"type": "bool"
						},
						{
							"internalType": "bool",
							"name": "isVerified",
							"type": "bool"
						},
						{
							"internalType": "uint256",
							"name": "verificationAmount",
							"type": "uint256"
						},
						{
							"internalType": "bool",
							"name": "isEnded",
							"type": "bool"
						},
						{
							"internalType": "bool",
							"name": "isPaidOut",
							"type": "bool"
						}
					],
					"internalType": "struct StekcitEvent",
					"name": "",
					"type": "tuple"
				}
			],
			"stateMutability": "nonpayable",
			"type": "function"
		},
		{
			"inputs": [
				{
					"internalType": "uint256",
					"name": "_eventId",
					"type": "uint256"
				},
				{
					"internalType": "uint256",
					"name": "_amount",
					"type": "uint256"
				}
			],
			"name": "createPayout",
			"outputs": [
				{
					"components": [
						{
							"internalType": "uint256",
							"name": "id",
							"type": "uint256"
						},
						{
							"internalType": "uint256",
							"name": "eventId",
							"type": "uint256"
						},
						{
							"internalType": "address",
							"name": "creatingUserWalletAddress",
							"type": "address"
						},
						{
							"internalType": "uint256",
							"name": "amountPaidOut",
							"type": "uint256"
						},
						{
							"internalType": "uint256",
							"name": "dateTimeAndMade",
							"type": "uint256"
						},
						{
							"internalType": "bool",
							"name": "isBlank",
							"type": "bool"
						}
					],
					"internalType": "struct StekcitPayout",
					"name": "",
					"type": "tuple"
				}
			],
			"stateMutability": "nonpayable",
			"type": "function"
		},
		{
			"inputs": [
				{
					"internalType": "uint256",
					"name": "_eventId",
					"type": "uint256"
				},
				{
					"internalType": "address",
					"name": "_attendingUserWalletAddress",
					"type": "address"
				},
				{
					"internalType": "uint256",
					"name": "_amountPaid",
					"type": "uint256"
				}
			],
			"name": "createTicketForUser",
			"outputs": [
				{
					"components": [
						{
							"internalType": "uint256",
							"name": "id",
							"type": "uint256"
						},
						{
							"internalType": "uint256",
							"name": "eventId",
							"type": "uint256"
						},
						{
							"internalType": "address",
							"name": "attendingUserWalletAddress",
							"type": "address"
						},
						{
							"internalType": "uint256",
							"name": "amountPaid",
							"type": "uint256"
						}
					],
					"internalType": "struct StekcitTicket",
					"name": "",
					"type": "tuple"
				}
			],
			"stateMutability": "nonpayable",
			"type": "function"
		},
		{
			"inputs": [
				{
					"internalType": "address",
					"name": "_walletAddress",
					"type": "address"
				},
				{
					"internalType": "string",
					"name": "_username",
					"type": "string"
				},
				{
					"internalType": "string",
					"name": "_emailAddress",
					"type": "string"
				}
			],
			"name": "createUser",
			"outputs": [
				{
					"components": [
						{
							"internalType": "uint256",
							"name": "id",
							"type": "uint256"
						},
						{
							"internalType": "address",
							"name": "walletAddress",
							"type": "address"
						},
						{
							"internalType": "string",
							"name": "username",
							"type": "string"
						},
						{
							"internalType": "string",
							"name": "emailAddress",
							"type": "string"
						},
						{
							"internalType": "bool",
							"name": "isCreatingUser",
							"type": "bool"
						},
						{
							"internalType": "bool",
							"name": "isBlank",
							"type": "bool"
						}
					],
					"internalType": "struct StekcitUser",
					"name": "",
					"type": "tuple"
				}
			],
			"stateMutability": "nonpayable",
			"type": "function"
		},
		{
			"inputs": [
				{
					"internalType": "address",
					"name": "_walletAddress",
					"type": "address"
				}
			],
			"name": "getAllEventsCreatedByUser",
			"outputs": [
				{
					"components": [
						{
							"internalType": "uint256",
							"name": "id",
							"type": "uint256"
						},
						{
							"internalType": "address",
							"name": "creatingUserWalletAddress",
							"type": "address"
						},
						{
							"internalType": "string",
							"name": "title",
							"type": "string"
						},
						{
							"internalType": "string",
							"name": "description",
							"type": "string"
						},
						{
							"internalType": "string",
							"name": "link",
							"type": "string"
						},
						{
							"internalType": "uint256",
							"name": "amount",
							"type": "uint256"
						},
						{
							"internalType": "uint256",
							"name": "createdAt",
							"type": "uint256"
						},
						{
							"internalType": "uint256",
							"name": "updatedAt",
							"type": "uint256"
						},
						{
							"internalType": "uint256",
							"name": "dateAndTime",
							"type": "uint256"
						},
						{
							"internalType": "bool",
							"name": "isBlank",
							"type": "bool"
						},
						{
							"internalType": "bool",
							"name": "isPublished",
							"type": "bool"
						},
						{
							"internalType": "bool",
							"name": "isVerified",
							"type": "bool"
						},
						{
							"internalType": "uint256",
							"name": "verificationAmount",
							"type": "uint256"
						},
						{
							"internalType": "bool",
							"name": "isEnded",
							"type": "bool"
						},
						{
							"internalType": "bool",
							"name": "isPaidOut",
							"type": "bool"
						}
					],
					"internalType": "struct StekcitEvent[]",
					"name": "",
					"type": "tuple[]"
				}
			],
			"stateMutability": "view",
			"type": "function"
		},
		{
			"inputs": [],
			"name": "getAllPublishedEvents",
			"outputs": [
				{
					"components": [
						{
							"internalType": "uint256",
							"name": "id",
							"type": "uint256"
						},
						{
							"internalType": "address",
							"name": "creatingUserWalletAddress",
							"type": "address"
						},
						{
							"internalType": "string",
							"name": "title",
							"type": "string"
						},
						{
							"internalType": "string",
							"name": "description",
							"type": "string"
						},
						{
							"internalType": "string",
							"name": "link",
							"type": "string"
						},
						{
							"internalType": "uint256",
							"name": "amount",
							"type": "uint256"
						},
						{
							"internalType": "uint256",
							"name": "createdAt",
							"type": "uint256"
						},
						{
							"internalType": "uint256",
							"name": "updatedAt",
							"type": "uint256"
						},
						{
							"internalType": "uint256",
							"name": "dateAndTime",
							"type": "uint256"
						},
						{
							"internalType": "bool",
							"name": "isBlank",
							"type": "bool"
						},
						{
							"internalType": "bool",
							"name": "isPublished",
							"type": "bool"
						},
						{
							"internalType": "bool",
							"name": "isVerified",
							"type": "bool"
						},
						{
							"internalType": "uint256",
							"name": "verificationAmount",
							"type": "uint256"
						},
						{
							"internalType": "bool",
							"name": "isEnded",
							"type": "bool"
						},
						{
							"internalType": "bool",
							"name": "isPaidOut",
							"type": "bool"
						}
					],
					"internalType": "struct StekcitEvent[]",
					"name": "",
					"type": "tuple[]"
				}
			],
			"stateMutability": "view",
			"type": "function"
		},
		{
			"inputs": [
				{
					"internalType": "uint256",
					"name": "_eventId",
					"type": "uint256"
				}
			],
			"name": "getAllTicketsOfEvent",
			"outputs": [
				{
					"components": [
						{
							"internalType": "uint256",
							"name": "id",
							"type": "uint256"
						},
						{
							"internalType": "uint256",
							"name": "eventId",
							"type": "uint256"
						},
						{
							"internalType": "address",
							"name": "attendingUserWalletAddress",
							"type": "address"
						},
						{
							"internalType": "uint256",
							"name": "amountPaid",
							"type": "uint256"
						}
					],
					"internalType": "struct StekcitTicket[]",
					"name": "",
					"type": "tuple[]"
				}
			],
			"stateMutability": "view",
			"type": "function"
		},
		{
			"inputs": [
				{
					"internalType": "address",
					"name": "_walletAddress",
					"type": "address"
				}
			],
			"name": "getAllTicketsOfUser",
			"outputs": [
				{
					"components": [
						{
							"internalType": "uint256",
							"name": "id",
							"type": "uint256"
						},
						{
							"internalType": "uint256",
							"name": "eventId",
							"type": "uint256"
						},
						{
							"internalType": "address",
							"name": "attendingUserWalletAddress",
							"type": "address"
						},
						{
							"internalType": "uint256",
							"name": "amountPaid",
							"type": "uint256"
						}
					],
					"internalType": "struct StekcitTicket[]",
					"name": "",
					"type": "tuple[]"
				}
			],
			"stateMutability": "view",
			"type": "function"
		},
		{
			"inputs": [
				{
					"internalType": "uint256",
					"name": "_eventId",
					"type": "uint256"
				}
			],
			"name": "getEventAttendees",
			"outputs": [
				{
					"components": [
						{
							"internalType": "uint256",
							"name": "id",
							"type": "uint256"
						},
						{
							"internalType": "address",
							"name": "walletAddress",
							"type": "address"
						},
						{
							"internalType": "string",
							"name": "username",
							"type": "string"
						},
						{
							"internalType": "string",
							"name": "emailAddress",
							"type": "string"
						},
						{
							"internalType": "bool",
							"name": "isCreatingUser",
							"type": "bool"
						},
						{
							"internalType": "bool",
							"name": "isBlank",
							"type": "bool"
						}
					],
					"internalType": "struct StekcitUser[]",
					"name": "",
					"type": "tuple[]"
				}
			],
			"stateMutability": "view",
			"type": "function"
		},
		{
			"inputs": [
				{
					"internalType": "uint256",
					"name": "_eventId",
					"type": "uint256"
				}
			],
			"name": "getEventById",
			"outputs": [
				{
					"components": [
						{
							"internalType": "uint256",
							"name": "id",
							"type": "uint256"
						},
						{
							"internalType": "address",
							"name": "creatingUserWalletAddress",
							"type": "address"
						},
						{
							"internalType": "string",
							"name": "title",
							"type": "string"
						},
						{
							"internalType": "string",
							"name": "description",
							"type": "string"
						},
						{
							"internalType": "string",
							"name": "link",
							"type": "string"
						},
						{
							"internalType": "uint256",
							"name": "amount",
							"type": "uint256"
						},
						{
							"internalType": "uint256",
							"name": "createdAt",
							"type": "uint256"
						},
						{
							"internalType": "uint256",
							"name": "updatedAt",
							"type": "uint256"
						},
						{
							"internalType": "uint256",
							"name": "dateAndTime",
							"type": "uint256"
						},
						{
							"internalType": "bool",
							"name": "isBlank",
							"type": "bool"
						},
						{
							"internalType": "bool",
							"name": "isPublished",
							"type": "bool"
						},
						{
							"internalType": "bool",
							"name": "isVerified",
							"type": "bool"
						},
						{
							"internalType": "uint256",
							"name": "verificationAmount",
							"type": "uint256"
						},
						{
							"internalType": "bool",
							"name": "isEnded",
							"type": "bool"
						},
						{
							"internalType": "bool",
							"name": "isPaidOut",
							"type": "bool"
						}
					],
					"internalType": "struct StekcitEvent",
					"name": "",
					"type": "tuple"
				}
			],
			"stateMutability": "view",
			"type": "function"
		},
		{
			"inputs": [],
			"name": "getNumberOfAllPublishedEvents",
			"outputs": [
				{
					"internalType": "uint256",
					"name": "",
					"type": "uint256"
				}
			],
			"stateMutability": "view",
			"type": "function"
		},
		{
			"inputs": [
				{
					"internalType": "uint256",
					"name": "_eventId",
					"type": "uint256"
				}
			],
			"name": "getNumberOfTicketsOfEvent",
			"outputs": [
				{
					"internalType": "uint256",
					"name": "",
					"type": "uint256"
				}
			],
			"stateMutability": "view",
			"type": "function"
		},
		{
			"inputs": [
				{
					"internalType": "address",
					"name": "_walletAddress",
					"type": "address"
				}
			],
			"name": "getNumberOfTicketsOfUser",
			"outputs": [
				{
					"internalType": "uint256",
					"name": "",
					"type": "uint256"
				}
			],
			"stateMutability": "view",
			"type": "function"
		},
		{
			"inputs": [
				{
					"internalType": "uint256",
					"name": "_payoutId",
					"type": "uint256"
				}
			],
			"name": "getPayoutById",
			"outputs": [
				{
					"components": [
						{
							"internalType": "uint256",
							"name": "id",
							"type": "uint256"
						},
						{
							"internalType": "uint256",
							"name": "eventId",
							"type": "uint256"
						},
						{
							"internalType": "address",
							"name": "creatingUserWalletAddress",
							"type": "address"
						},
						{
							"internalType": "uint256",
							"name": "amountPaidOut",
							"type": "uint256"
						},
						{
							"internalType": "uint256",
							"name": "dateTimeAndMade",
							"type": "uint256"
						},
						{
							"internalType": "bool",
							"name": "isBlank",
							"type": "bool"
						}
					],
					"internalType": "struct StekcitPayout",
					"name": "",
					"type": "tuple"
				}
			],
			"stateMutability": "view",
			"type": "function"
		},
		{
			"inputs": [
				{
					"internalType": "uint256",
					"name": "_ticketId",
					"type": "uint256"
				}
			],
			"name": "getTicketById",
			"outputs": [
				{
					"components": [
						{
							"internalType": "uint256",
							"name": "id",
							"type": "uint256"
						},
						{
							"internalType": "uint256",
							"name": "eventId",
							"type": "uint256"
						},
						{
							"internalType": "address",
							"name": "attendingUserWalletAddress",
							"type": "address"
						},
						{
							"internalType": "uint256",
							"name": "amountPaid",
							"type": "uint256"
						}
					],
					"internalType": "struct StekcitTicket",
					"name": "",
					"type": "tuple"
				}
			],
			"stateMutability": "view",
			"type": "function"
		},
		{
			"inputs": [
				{
					"internalType": "uint256",
					"name": "_eventId",
					"type": "uint256"
				}
			],
			"name": "getTotalAmountPaidToEvent",
			"outputs": [
				{
					"internalType": "uint256",
					"name": "",
					"type": "uint256"
				}
			],
			"stateMutability": "view",
			"type": "function"
		},
		{
			"inputs": [
				{
					"internalType": "address",
					"name": "_walletAddress",
					"type": "address"
				}
			],
			"name": "getTotalNumberOfAllEventsCreatedByUser",
			"outputs": [
				{
					"internalType": "uint256",
					"name": "",
					"type": "uint256"
				}
			],
			"stateMutability": "view",
			"type": "function"
		},
		{
			"inputs": [
				{
					"internalType": "uint256",
					"name": "_eventId",
					"type": "uint256"
				}
			],
			"name": "getTotalNumberOfTicketsOfEvent",
			"outputs": [
				{
					"internalType": "uint256",
					"name": "",
					"type": "uint256"
				}
			],
			"stateMutability": "view",
			"type": "function"
		},
		{
			"inputs": [
				{
					"internalType": "uint256",
					"name": "_userId",
					"type": "uint256"
				}
			],
			"name": "getUserByUserId",
			"outputs": [
				{
					"components": [
						{
							"internalType": "uint256",
							"name": "id",
							"type": "uint256"
						},
						{
							"internalType": "address",
							"name": "walletAddress",
							"type": "address"
						},
						{
							"internalType": "string",
							"name": "username",
							"type": "string"
						},
						{
							"internalType": "string",
							"name": "emailAddress",
							"type": "string"
						},
						{
							"internalType": "bool",
							"name": "isCreatingUser",
							"type": "bool"
						},
						{
							"internalType": "bool",
							"name": "isBlank",
							"type": "bool"
						}
					],
					"internalType": "struct StekcitUser",
					"name": "",
					"type": "tuple"
				}
			],
			"stateMutability": "view",
			"type": "function"
		},
		{
			"inputs": [
				{
					"internalType": "address",
					"name": "_walletAddress",
					"type": "address"
				}
			],
			"name": "getUserByWalletAddress",
			"outputs": [
				{
					"components": [
						{
							"internalType": "uint256",
							"name": "id",
							"type": "uint256"
						},
						{
							"internalType": "address",
							"name": "walletAddress",
							"type": "address"
						},
						{
							"internalType": "string",
							"name": "username",
							"type": "string"
						},
						{
							"internalType": "string",
							"name": "emailAddress",
							"type": "string"
						},
						{
							"internalType": "bool",
							"name": "isCreatingUser",
							"type": "bool"
						},
						{
							"internalType": "bool",
							"name": "isBlank",
							"type": "bool"
						}
					],
					"internalType": "struct StekcitUser",
					"name": "",
					"type": "tuple"
				}
			],
			"stateMutability": "view",
			"type": "function"
		},
		{
			"inputs": [
				{
					"internalType": "uint256",
					"name": "_increaseApprovalAmount",
					"type": "uint256"
				}
			],
			"name": "increaseApprovalForStekcitBM",
			"outputs": [
				{
					"internalType": "bool",
					"name": "",
					"type": "bool"
				}
			],
			"stateMutability": "nonpayable",
			"type": "function"
		},
		{
			"inputs": [
				{
					"internalType": "address",
					"name": "_walletAddress",
					"type": "address"
				}
			],
			"name": "makeCreatingUser",
			"outputs": [
				{
					"internalType": "bool",
					"name": "",
					"type": "bool"
				}
			],
			"stateMutability": "nonpayable",
			"type": "function"
		},
		{
			"inputs": [
				{
					"internalType": "uint256",
					"name": "_amount",
					"type": "uint256"
				}
			],
			"name": "payForEvent",
			"outputs": [
				{
					"internalType": "bool",
					"name": "",
					"type": "bool"
				}
			],
			"stateMutability": "nonpayable",
			"type": "function"
		},
		{
			"inputs": [
				{
					"internalType": "uint256",
					"name": "_eventId",
					"type": "uint256"
				}
			],
			"name": "processPayout",
			"outputs": [
				{
					"components": [
						{
							"internalType": "uint256",
							"name": "id",
							"type": "uint256"
						},
						{
							"internalType": "uint256",
							"name": "eventId",
							"type": "uint256"
						},
						{
							"internalType": "address",
							"name": "creatingUserWalletAddress",
							"type": "address"
						},
						{
							"internalType": "uint256",
							"name": "amountPaidOut",
							"type": "uint256"
						},
						{
							"internalType": "uint256",
							"name": "dateTimeAndMade",
							"type": "uint256"
						},
						{
							"internalType": "bool",
							"name": "isBlank",
							"type": "bool"
						}
					],
					"internalType": "struct StekcitPayout",
					"name": "",
					"type": "tuple"
				}
			],
			"stateMutability": "nonpayable",
			"type": "function"
		},
		{
			"inputs": [
				{
					"internalType": "uint256",
					"name": "_eventId",
					"type": "uint256"
				}
			],
			"name": "publishEvent",
			"outputs": [
				{
					"components": [
						{
							"internalType": "uint256",
							"name": "id",
							"type": "uint256"
						},
						{
							"internalType": "address",
							"name": "creatingUserWalletAddress",
							"type": "address"
						},
						{
							"internalType": "string",
							"name": "title",
							"type": "string"
						},
						{
							"internalType": "string",
							"name": "description",
							"type": "string"
						},
						{
							"internalType": "string",
							"name": "link",
							"type": "string"
						},
						{
							"internalType": "uint256",
							"name": "amount",
							"type": "uint256"
						},
						{
							"internalType": "uint256",
							"name": "createdAt",
							"type": "uint256"
						},
						{
							"internalType": "uint256",
							"name": "updatedAt",
							"type": "uint256"
						},
						{
							"internalType": "uint256",
							"name": "dateAndTime",
							"type": "uint256"
						},
						{
							"internalType": "bool",
							"name": "isBlank",
							"type": "bool"
						},
						{
							"internalType": "bool",
							"name": "isPublished",
							"type": "bool"
						},
						{
							"internalType": "bool",
							"name": "isVerified",
							"type": "bool"
						},
						{
							"internalType": "uint256",
							"name": "verificationAmount",
							"type": "uint256"
						},
						{
							"internalType": "bool",
							"name": "isEnded",
							"type": "bool"
						},
						{
							"internalType": "bool",
							"name": "isPaidOut",
							"type": "bool"
						}
					],
					"internalType": "struct StekcitEvent",
					"name": "",
					"type": "tuple"
				}
			],
			"stateMutability": "nonpayable",
			"type": "function"
		},
		{
			"inputs": [],
			"name": "stekcitBMOwnerAddress",
			"outputs": [
				{
					"internalType": "address",
					"name": "",
					"type": "address"
				}
			],
			"stateMutability": "view",
			"type": "function"
		},
		{
			"inputs": [
				{
					"internalType": "uint256",
					"name": "_eventId",
					"type": "uint256"
				}
			],
			"name": "verifyEvent",
			"outputs": [
				{
					"components": [
						{
							"internalType": "uint256",
							"name": "id",
							"type": "uint256"
						},
						{
							"internalType": "address",
							"name": "creatingUserWalletAddress",
							"type": "address"
						},
						{
							"internalType": "string",
							"name": "title",
							"type": "string"
						},
						{
							"internalType": "string",
							"name": "description",
							"type": "string"
						},
						{
							"internalType": "string",
							"name": "link",
							"type": "string"
						},
						{
							"internalType": "uint256",
							"name": "amount",
							"type": "uint256"
						},
						{
							"internalType": "uint256",
							"name": "createdAt",
							"type": "uint256"
						},
						{
							"internalType": "uint256",
							"name": "updatedAt",
							"type": "uint256"
						},
						{
							"internalType": "uint256",
							"name": "dateAndTime",
							"type": "uint256"
						},
						{
							"internalType": "bool",
							"name": "isBlank",
							"type": "bool"
						},
						{
							"internalType": "bool",
							"name": "isPublished",
							"type": "bool"
						},
						{
							"internalType": "bool",
							"name": "isVerified",
							"type": "bool"
						},
						{
							"internalType": "uint256",
							"name": "verificationAmount",
							"type": "uint256"
						},
						{
							"internalType": "bool",
							"name": "isEnded",
							"type": "bool"
						},
						{
							"internalType": "bool",
							"name": "isPaidOut",
							"type": "bool"
						}
					],
					"internalType": "struct StekcitEvent",
					"name": "",
					"type": "tuple"
				}
			],
			"stateMutability": "nonpayable",
			"type": "function"
		}
	]
}