{
	"data": {
		"bytecode": {
			"linkReferences": {},
			"object": "60e0604052600b80546001600160a01b0319908116735425890298aed601595a70ab815c96711a31bc6517909155600c80548216730b9d5d9136855f6fec3c0993fee6e9ce8a297846179055600d80548216739345ac54da4d0b5cda8cb749d8ef37e5f02bbb21179055600e805490911673a9d587a00a31a52ed70d6026794a8fc5e2f5dcb01790553480156200009557600080fd5b506040516200611038038062006110833981016040819052620000b891620000f8565b600c54600d54600e546001600160a01b0390811660805291821660a052811660c052600480546001600160a01b031916929091169190911790556200012a565b6000602082840312156200010b57600080fd5b81516001600160a01b03811681146200012357600080fd5b9392505050565b60805160a05160c051615fa16200016f600039600081816107fc01528181613ed70152613fe001526000613ead01526000818161055e015261460b0152615fa16000f3fe608060405234801561001057600080fd5b50600436106102065760003560e01c8063767a58671161011a578063b07c7e6c116100ad578063c5b840291161007c578063c5b84029146104ff578063cee34e7b14610512578063cfd9f3da1461051a578063f10b812f1461052d578063f5caa96b1461054057600080fd5b8063b07c7e6c146104bc578063b98079bc146104d1578063c081ee70146104e4578063c0f555f0146104ec57600080fd5b80639720807c116100e95780639720807c1461044b57806399bb6b0814610476578063abda740514610489578063ad395c141461049c57600080fd5b8063767a5867146103ff57806376f8cbd51461041257806387b162b51461042557806389ee68bf1461043857600080fd5b80634591b6661161019d57806363ff89c71161016c57806363ff89c71461034157806365212f7014610354578063666ac2fb146103b95780636ed6da9e146103cc5780637354a25f146103ec57600080fd5b80634591b666146102f25780634dff247f1461031357806352a81eeb146103265780635d3ee0ee1461033957600080fd5b806322b1185e116101d957806322b1185e1461027c578063235b3a3d1461029c57806324c67b03146102af5780633b902afe146102d257600080fd5b80630ca761751461020b578063184b09381461022057806319867063146102495780631fe543e314610269575b600080fd5b61021e6102193660046152c0565b610553565b005b61023361022e366004615348565b6105d7565b60405161024091906153af565b60405180910390f35b61025c6102573660046153fd565b61071f565b6040516102409190615416565b61021e610277366004615447565b6107f1565b61028f61028a3660046153fd565b61087c565b604051610240919061563d565b6102336102aa3660046153fd565b610b85565b6102c26102bd3660046153fd565b610cca565b6040519015158152602001610240565b6102e56102e0366004615348565b610d7f565b6040516102409190615650565b6103056103003660046153fd565b6110f4565b604051908152602001610240565b61028f6103213660046153fd565b61115c565b610305610334366004615803565b611188565b6102e561124d565b6102c261034f3660046153fd565b6115bc565b6103676103623660046153fd565b61168a565b604051610240919081518152602080830151908201526040808301516001600160a01b031690820152606080830151908201526080808301519082015260a09182015115159181019190915260c00190565b6103056103c7366004615348565b61170e565b6103df6103da3660046153fd565b6117d0565b6040516102409190615993565b6103056103fa3660046153fd565b6119e5565b61025c61040d3660046153fd565b611aa0565b6103056104203660046153fd565b611ac5565b6103df6104333660046159a6565b611b80565b6103676104463660046153fd565b611d14565b60045461045e906001600160a01b031681565b6040516001600160a01b039091168152602001610240565b6103df610484366004615348565b6122fd565b61021e610497366004615a17565b61250c565b6104af6104aa3660046153fd565b6127dd565b6040516102409190615ac5565b6104c4612928565b6040516102409190615b1a565b61028f6104df3660046153fd565b6129b6565b6102c2612ca4565b61021e6104fa3660046153fd565b612daa565b61030561050d366004615348565b613254565b610305613553565b61028f6105283660046153fd565b61384b565b61025c61053b366004615b2d565b6139bb565b6102c261054e366004615b2d565b613aaf565b336001600160a01b037f0000000000000000000000000000000000000000000000000000000000000000161461059c5760405163c6829f8360e01b815260040160405180910390fd5b6105a7838383613b1c565b60405183907f85e1543bf2f84fe80c6badbce3648c8539ad1df4d2b3d822938ca0538be727e690600090a2505050565b60606000806105e58461170e565b6001600160401b038111156105fc576105fc61520b565b60405190808252806020026020018201604052801561063557816020015b610622615070565b81526020019060019003908161061a5790505b50905060005b6002548110156107175760006002828154811061065a5761065a615b59565b60009182526020918290206040805160e08101825260079093029091018054835260018101549383019390935260028301546001600160a01b0390811691830182905260038401546060840152600484015460ff1615156080840152600584015460a084015260069093015460c0830152909250908716900361070457808385815181106106ea576106ea615b59565b6020026020010181905250838061070090615b85565b9450505b508061070f81615b85565b91505061063b565b509392505050565b610727615070565b60005b6002548110156107db5760006002828154811061074957610749615b59565b60009182526020918290206040805160e08101825260079093029091018054835260018101549383019390935260028301546001600160a01b03169082015260038201546060820152600482015460ff1615156080820152600582015460a0820181905260069092015460c082015291508490036107c8579392505050565b50806107d381615b85565b91505061072a565b506107e4615070565b6001608082015292915050565b336001600160a01b037f0000000000000000000000000000000000000000000000000000000000000000161461086e5760405162461bcd60e51b815260206004820152601f60248201527f6f6e6c792056524620563220777261707065722063616e2066756c66696c6c0060448201526064015b60405180910390fd5b6108788282613e00565b5050565b6108846150b8565b60005b600154811015610b6e576000600182815481106108a6576108a6615b59565b90600052602060002090600e020160405180610220016040529081600082015481526020016001820160009054906101000a90046001600160a01b03166001600160a01b03166001600160a01b0316815260200160028201805461090990615b9e565b80601f016020809104026020016040519081016040528092919081815260200182805461093590615b9e565b80156109825780601f1061095757610100808354040283529160200191610982565b820191906000526020600020905b81548152906001019060200180831161096557829003601f168201915b5050505050815260200160038201805461099b90615b9e565b80601f01602080910402602001604051908101604052809291908181526020018280546109c790615b9e565b8015610a145780601f106109e957610100808354040283529160200191610a14565b820191906000526020600020905b8154815290600101906020018083116109f757829003601f168201915b50505050508152602001600482018054610a2d90615b9e565b80601f0160208091040260200160405190810160405280929190818152602001828054610a5990615b9e565b8015610aa65780601f10610a7b57610100808354040283529160200191610aa6565b820191906000526020600020905b815481529060010190602001808311610a8957829003601f168201915b505050918352505060058201546020820152600682015460408201526007820154606082015260088201546080820152600982015460ff808216151560a08401526101008083048216151560c0850152620100009092048116151560e0840152600a84015482840152600b840154808216151561012085015291909104161515610140820152600c820154610160820152600d90910154610180909101526101e0810151909150849003610b5b579392505050565b5080610b6681615b85565b915050610887565b50610b776150b8565b600161012082015292915050565b6060600080610b93846119e5565b90506000816001600160401b03811115610baf57610baf61520b565b604051908082528060200260200182016040528015610be857816020015b610bd5615070565b815260200190600190039081610bcd5790505b50905060005b82811015610cc157600060028281548110610c0b57610c0b615b59565b60009182526020918290206040805160e081018252600790930290910180548352600181015493830184905260028101546001600160a01b03169183019190915260038101546060830152600481015460ff1615156080830152600581015460a08301526006015460c08201529150879003610cae5780838681518110610c9457610c94615b59565b60200260200101819052508480610caa90615b85565b9550505b5080610cb981615b85565b915050610bee565b50949350505050565b6000805b600354811015610d7657600060038281548110610ced57610ced615b59565b60009182526020918290206040805160c081018252600690930290910180548352600181015493830184905260028101546001600160a01b03169183019190915260038101546060830152600481015460808301526005015460ff16151560a08201529150849003610d63575060019392505050565b5080610d6e81615b85565b915050610cce565b50600092915050565b60606000610d8c83613254565b6001600160401b03811115610da357610da361520b565b604051908082528060200260200182016040528015610ddc57816020015b610dc96150b8565b815260200190600190039081610dc15790505b50905060005b6001548110156110ed57600060018281548110610e0157610e01615b59565b90600052602060002090600e020160405180610220016040529081600082015481526020016001820160009054906101000a90046001600160a01b03166001600160a01b03166001600160a01b03168152602001600282018054610e6490615b9e565b80601f0160208091040260200160405190810160405280929190818152602001828054610e9090615b9e565b8015610edd5780601f10610eb257610100808354040283529160200191610edd565b820191906000526020600020905b815481529060010190602001808311610ec057829003601f168201915b50505050508152602001600382018054610ef690615b9e565b80601f0160208091040260200160405190810160405280929190818152602001828054610f2290615b9e565b8015610f6f5780601f10610f4457610100808354040283529160200191610f6f565b820191906000526020600020905b815481529060010190602001808311610f5257829003601f168201915b50505050508152602001600482018054610f8890615b9e565b80601f0160208091040260200160405190810160405280929190818152602001828054610fb490615b9e565b80156110015780601f10610fd657610100808354040283529160200191611001565b820191906000526020600020905b815481529060010190602001808311610fe457829003601f168201915b50505091835250506005820154602080830191909152600683015460408301526007830154606083015260088301546080830152600983015460ff808216151560a08501526101008083048216151560c0860152620100009092048116151560e0850152600a85015482850152600b850154808216151561012086015291909104161515610140830152600c830154610160830152600d90920154610180909101528101519091506001600160a01b038087169116036110da57808383815181106110ce576110ce615b59565b60200260200101819052505b50806110e581615b85565b915050610de2565b5092915050565b6000808061110184610b85565b905060005b815181101561115357600082828151811061112357611123615b59565b6020026020010151905080606001518461113d9190615bd2565b935050808061114b90615b85565b915050611106565b50909392505050565b6111646150b8565b6000611175620186a0600180613e87565b90506111818382614068565b9392505050565b60006111cb6040805160e0810190915280600081526020016000815260200160008152602001606081526020016060815260200160608152602001606081525090565b6111d5818c614206565b8951156111eb576111e6818b614213565b611205565b6001600160401b0388161561120557611205818a8a614244565b8651156112165761121681886142da565b855115611227576112278187614304565b600061123d6112358361432e565b878787614606565b9c9b505050505050505050505050565b606060008061125a613553565b6001600160401b038111156112715761127161520b565b6040519080825280602002602001820160405280156112aa57816020015b6112976150b8565b81526020019060019003908161128f5790505b50905060005b6001548110156110ed576000600182815481106112cf576112cf615b59565b90600052602060002090600e020160405180610220016040529081600082015481526020016001820160009054906101000a90046001600160a01b03166001600160a01b03166001600160a01b0316815260200160028201805461133290615b9e565b80601f016020809104026020016040519081016040528092919081815260200182805461135e90615b9e565b80156113ab5780601f10611380576101008083540402835291602001916113ab565b820191906000526020600020905b81548152906001019060200180831161138e57829003601f168201915b505050505081526020016003820180546113c490615b9e565b80601f01602080910402602001604051908101604052809291908181526020018280546113f090615b9e565b801561143d5780601f106114125761010080835404028352916020019161143d565b820191906000526020600020905b81548152906001019060200180831161142057829003601f168201915b5050505050815260200160048201805461145690615b9e565b80601f016020809104026020016040519081016040528092919081815260200182805461148290615b9e565b80156114cf5780601f106114a4576101008083540402835291602001916114cf565b820191906000526020600020905b8154815290600101906020018083116114b257829003601f168201915b505050918352505060058201546020820152600682015460408201526007820154606082015260088201546080820152600982015460ff808216151560a08401526101008083048216151560c0850152620100009092048116151560e0840152600a84015482840152600b84015480821615156101208501529190910416151561014080830191909152600c830154610160830152600d9092015461018090910152810151909150156115a9578083858151811061158f5761158f615b59565b602002602001018190525083806115a590615b85565b9450505b50806115b481615b85565b9150506112b0565b6000805b600254811015610d76576000600282815481106115df576115df615b59565b60009182526020918290206040805160e081018252600790930290910180548352600181015493830184905260028101546001600160a01b03169183019190915260038101546060830152600481015460ff1615156080830152600581015460a08301526006015460c0820152915084148015611668575060408101516001600160a01b031633145b15611677575060019392505050565b508061168281615b85565b9150506115c0565b61169261514f565b600382815481106116a5576116a5615b59565b60009182526020918290206040805160c08101825260069093029091018054835260018101549383019390935260028301546001600160a01b031690820152600382015460608201526004820154608082015260059091015460ff16151560a082015292915050565b600080805b6002548110156110ed5760006002828154811061173257611732615b59565b60009182526020918290206040805160e08101825260079093029091018054835260018101549383019390935260028301546001600160a01b0390811691830182905260038401546060840152600484015460ff1615156080840152600584015460a084015260069093015460c083015290925090861690036117bd57826117b981615b85565b9350505b50806117c881615b85565b915050611713565b6117d8615190565b60005b6000548110156119cf5760008082815481106117f9576117f9615b59565b906000526020600020906006020160405180610100016040529081600082015481526020016001820160009054906101000a90046001600160a01b03166001600160a01b03166001600160a01b0316815260200160028201805461185c90615b9e565b80601f016020809104026020016040519081016040528092919081815260200182805461188890615b9e565b80156118d55780601f106118aa576101008083540402835291602001916118d5565b820191906000526020600020905b8154815290600101906020018083116118b857829003601f168201915b505050505081526020016003820180546118ee90615b9e565b80601f016020809104026020016040519081016040528092919081815260200182805461191a90615b9e565b80156119675780601f1061193c57610100808354040283529160200191611967565b820191906000526020600020905b81548152906001019060200180831161194a57829003601f168201915b5050509183525050600482015460ff80821615156020840152610100820481161515604084015262010000909104161515606082015260059091015460809091015280519091508490036119bc579392505050565b50806119c781615b85565b9150506117db565b506119d8615190565b600160a082015292915050565b600080805b6002548110156110ed57600060028281548110611a0957611a09615b59565b60009182526020918290206040805160e081018252600790930290910180548352600181015493830184905260028101546001600160a01b03169183019190915260038101546060830152600481015460ff1615156080830152600581015460a08301526006015460c08201529150859003611a8d5782611a8981615b85565b9350505b5080611a9881615b85565b9150506119ea565b611aa8615070565b6000611ab9620186a0600180613e87565b905061118183826146d8565b600080805b6002548110156110ed57600060028281548110611ae957611ae9615b59565b60009182526020918290206040805160e081018252600790930290910180548352600181015493830184905260028101546001600160a01b03169183019190915260038101546060830152600481015460ff1615156080830152600581015460a08301526006015460c08201529150859003611b6d5782611b6981615b85565b9350505b5080611b7881615b85565b915050611aca565b611b88615190565b60068054604080516101008101825282815233602082019081529181018781526060820187905260006080830181905260a0830181905260c0830181905260e083018190528054600181018255908052825195027f290decd9548b62a8d60345a988386fc84ba6bc95484008f6362f93160ef3e563810195865592517f290decd9548b62a8d60345a988386fc84ba6bc95484008f6362f93160ef3e564840180546001600160a01b03929092166001600160a01b0319909216919091179055519293909290917f290decd9548b62a8d60345a988386fc84ba6bc95484008f6362f93160ef3e5650190611c7b9082615c33565b5060608201516003820190611c909082615c33565b50608082015160048201805460a085015160c08601511515620100000262ff0000199115156101000261ff00199515159590951661ffff1990931692909217939093179290921691909117905560e09091015160059091015560068054906000611cf983615b85565b91905055506000611d09826117d0565b925050505b92915050565b611d1c61514f565b600060018381548110611d3157611d31615b59565b90600052602060002090600e020160405180610220016040529081600082015481526020016001820160009054906101000a90046001600160a01b03166001600160a01b03166001600160a01b03168152602001600282018054611d9490615b9e565b80601f0160208091040260200160405190810160405280929190818152602001828054611dc090615b9e565b8015611e0d5780601f10611de257610100808354040283529160200191611e0d565b820191906000526020600020905b815481529060010190602001808311611df057829003601f168201915b50505050508152602001600382018054611e2690615b9e565b80601f0160208091040260200160405190810160405280929190818152602001828054611e5290615b9e565b8015611e9f5780601f10611e7457610100808354040283529160200191611e9f565b820191906000526020600020905b815481529060010190602001808311611e8257829003601f168201915b50505050508152602001600482018054611eb890615b9e565b80601f0160208091040260200160405190810160405280929190818152602001828054611ee490615b9e565b8015611f315780601f10611f0657610100808354040283529160200191611f31565b820191906000526020600020905b815481529060010190602001808311611f1457829003601f168201915b505050918352505060058201546020820152600682015460408201526007820154606082015260088201546080820152600982015460ff808216151560a08401526101008083048216151560c0850152620100009092048116151560e0840152600a84015482840152600b840154808216151561012085015291909104161515610140820152600c820154610160820152600d909101546101809091015290506000611fdc84610cca565b9050611fe661514f565b600160a08201528115611ffb57949350505050565b600080612007876110f4565b90506064612016826050615cf2565b6120209190615d1f565b61202a9083615bd2565b91508461016001511561204a576101808501516120479083615bd2565b91505b600b54602086015160405163a9059cbb60e01b81526001600160a01b03918216600482015260248101859052600092919091169063a9059cbb906044016020604051808303816000875af11580156120a6573d6000803e3d6000fd5b505050506040513d601f19601f820116820180604052508101906120ca9190615d33565b905080156122f157600060646120e1846014615cf2565b6120eb9190615d1f565b600b546004805460405163a9059cbb60e01b81526001600160a01b0391821692810192909252602482018490529293506000929091169063a9059cbb906044016020604051808303816000875af115801561214a573d6000803e3d6000fd5b505050506040513d601f19601f8201168201806040525081019061216e9190615d33565b905080156122ee5760016101a089018190526101c0890181905280548991908c90811061219d5761219d615b59565b60009182526020918290208351600e9290920201908155908201516001820180546001600160a01b0319166001600160a01b03909216919091179055604082015160028201906121ed9082615c33565b50606082015160038201906122029082615c33565b50608082015160048201906122179082615c33565b5060a0820151600582015560c0820151600682015560e082015160078201556101008083015160088301556101208301516009830180546101408601516101608701511515620100000262ff000019911515860261ff0019951515861661ffff1994851617179190911617909155610180850151600a8501556101a0850151600b850180546101c0880151151590950291151590931693909116929092179190911790556101e0820151600c82015561020090910151600d9091015560006122df8b87614800565b9b9a5050505050505050505050565b50505b50919695505050505050565b612305615190565b60005b6000548110156119cf57600080828154811061232657612326615b59565b906000526020600020906006020160405180610100016040529081600082015481526020016001820160009054906101000a90046001600160a01b03166001600160a01b03166001600160a01b0316815260200160028201805461238990615b9e565b80601f01602080910402602001604051908101604052809291908181526020018280546123b590615b9e565b80156124025780601f106123d757610100808354040283529160200191612402565b820191906000526020600020905b8154815290600101906020018083116123e557829003601f168201915b5050505050815260200160038201805461241b90615b9e565b80601f016020809104026020016040519081016040528092919081815260200182805461244790615b9e565b80156124945780601f1061246957610100808354040283529160200191612494565b820191906000526020600020905b81548152906001019060200180831161247757829003601f168201915b5050509183525050600482015460ff808216151560208085019190915261010083048216151560408501526201000090920416151560608301526005909201546080909101528101519091506001600160a01b038086169116036124f9579392505050565b508061250481615b85565b915050612308565b600754600b546040805163313ce56760e01b81529051429283926000926001600160a01b039092169163313ce567916004808201926020929091908290030181865afa158015612560573d6000803e3d6000fd5b505050506040513d601f19601f820116820180604052508101906125849190615d50565b61258f90600a615e51565b6125999088615cf2565b604080516102208101825286815233602082019081529181018d8152606082018d9052608082018c905260a0820184905260c0820187905260e0820186905261010082018a905260006101208301819052891515610140840152610160830181905261018083018190526101a083018190526101c083018190526101e083018190526102008301819052600180548082018255915282517fb10e2d527612073b26eecdfd717e6a320cf44b4afac2b0732d9fcbe2b7fa0cf6600e90920291820190815593517fb10e2d527612073b26eecdfd717e6a320cf44b4afac2b0732d9fcbe2b7fa0cf7820180546001600160a01b0319166001600160a01b03909216919091179055905193945090927fb10e2d527612073b26eecdfd717e6a320cf44b4afac2b0732d9fcbe2b7fa0cf8909101906126d49082615c33565b50606082015160038201906126e99082615c33565b50608082015160048201906126fe9082615c33565b5060a0820151600582015560c0820151600682015560e08201516007808301919091556101008084015160088401556101208401516009840180546101408701516101608801511515620100000262ff000019911515860261ff0019951515861661ffff1994851617179190911617909155610180860151600a8601556101a0860151600b860180546101c0890151151590950291151590931693909116929092179190911790556101e0830151600c83015561020090920151600d9091015580549060006127cc83615b85565b919050555050505050505050505050565b60606000806127eb84611ac5565b6001600160401b038111156128025761280261520b565b60405190808252806020026020018201604052801561283b57816020015b612828615190565b8152602001906001900390816128205790505b50905060005b6002548110156107175760006002828154811061286057612860615b59565b60009182526020918290206040805160e081018252600790930290910180548352600181015493830184905260028101546001600160a01b03169183019190915260038101546060830152600481015460ff1615156080830152600581015460a08301526006015460c082015291508690036129155760006128e582604001516122fd565b9050808486815181106128fa576128fa615b59565b6020026020010181905250848061291090615b85565b955050505b508061292081615b85565b915050612841565b6005805461293590615b9e565b80601f016020809104026020016040519081016040528092919081815260200182805461296190615b9e565b80156129ae5780601f10612983576101008083540402835291602001916129ae565b820191906000526020600020905b81548152906001019060200180831161299157829003601f168201915b505050505081565b6129be6150b8565b60005b600154811015610b6e576000600182815481106129e0576129e0615b59565b90600052602060002090600e020160405180610220016040529081600082015481526020016001820160009054906101000a90046001600160a01b03166001600160a01b03166001600160a01b03168152602001600282018054612a4390615b9e565b80601f0160208091040260200160405190810160405280929190818152602001828054612a6f90615b9e565b8015612abc5780601f10612a9157610100808354040283529160200191612abc565b820191906000526020600020905b815481529060010190602001808311612a9f57829003601f168201915b50505050508152602001600382018054612ad590615b9e565b80601f0160208091040260200160405190810160405280929190818152602001828054612b0190615b9e565b8015612b4e5780601f10612b2357610100808354040283529160200191612b4e565b820191906000526020600020905b815481529060010190602001808311612b3157829003601f168201915b50505050508152602001600482018054612b6790615b9e565b80601f0160208091040260200160405190810160405280929190818152602001828054612b9390615b9e565b8015612be05780601f10612bb557610100808354040283529160200191612be0565b820191906000526020600020905b815481529060010190602001808311612bc357829003601f168201915b505050918352505060058201546020820152600682015460408201526007820154606082015260088201546080820152600982015460ff808216151560a08401526101008083048216151560c0850152620100009092048116151560e0840152600a84015482840152600b840154808216151561012085015291909104161515610140820152600c820154610160820152600d90910154610180909101528051909150849003612c91579392505050565b5080612c9c81615b85565b9150506129c1565b600080612cb0336122fd565b90508060a00151612da2578051600160808301526000805483919083908110612cdb57612cdb615b59565b6000918252602091829020835160069290920201908155908201516001820180546001600160a01b0319166001600160a01b0390921691909117905560408201516002820190612d2b9082615c33565b5060608201516003820190612d409082615c33565b50608082015160048201805460a085015160c08601511515620100000262ff0000199115156101000261ff00199515159590951661ffff1990931692909217939093179290921691909117905560e09091015160059091015550600192915050565b600091505090565b600060018281548110612dbf57612dbf615b59565b90600052602060002090600e020160405180610220016040529081600082015481526020016001820160009054906101000a90046001600160a01b03166001600160a01b03166001600160a01b03168152602001600282018054612e2290615b9e565b80601f0160208091040260200160405190810160405280929190818152602001828054612e4e90615b9e565b8015612e9b5780601f10612e7057610100808354040283529160200191612e9b565b820191906000526020600020905b815481529060010190602001808311612e7e57829003601f168201915b50505050508152602001600382018054612eb490615b9e565b80601f0160208091040260200160405190810160405280929190818152602001828054612ee090615b9e565b8015612f2d5780601f10612f0257610100808354040283529160200191612f2d565b820191906000526020600020905b815481529060010190602001808311612f1057829003601f168201915b50505050508152602001600482018054612f4690615b9e565b80601f0160208091040260200160405190810160405280929190818152602001828054612f7290615b9e565b8015612fbf5780601f10612f9457610100808354040283529160200191612fbf565b820191906000526020600020905b815481529060010190602001808311612fa257829003601f168201915b505050918352505060058201546020820152600682015460408201526007820154606082015260088201546080820152600982015460ff808216151560a08401526101008083048216151560c0850152620100009092048116151560e0840152600a84015482840152600b840154808216151561012085015291909104161515610140820152600c820154610160820152600d90910154610180909101529050600061306a836115bc565b905080156130b25760405162461bcd60e51b81526020600482015260156024820152745469636b657420616c72656164792065786973747360581b6044820152606401610865565b600880546040805160e081018252828152602081018781523392820192835260a0878101516060840190815260006080850181815292850181815260c086018281526002805460018101825590845296517f405787fa12a823e0f2b7631cc41b3ba8828b3321ca811111fa75cd3aa3bb5ace60079098029788015594517f405787fa12a823e0f2b7631cc41b3ba8828b3321ca811111fa75cd3aa3bb5acf87015595517f405787fa12a823e0f2b7631cc41b3ba8828b3321ca811111fa75cd3aa3bb5ad0860180546001600160a01b0319166001600160a01b0390921691909117905590517f405787fa12a823e0f2b7631cc41b3ba8828b3321ca811111fa75cd3aa3bb5ad185015590517f405787fa12a823e0f2b7631cc41b3ba8828b3321ca811111fa75cd3aa3bb5ad28401805460ff191691151591909117905592517f405787fa12a823e0f2b7631cc41b3ba8828b3321ca811111fa75cd3aa3bb5ad3830155517f405787fa12a823e0f2b7631cc41b3ba8828b3321ca811111fa75cd3aa3bb5ad490910155825491929061324983615b85565b919050555050505050565b600080805b6001548110156110ed5760006001828154811061327857613278615b59565b90600052602060002090600e020160405180610220016040529081600082015481526020016001820160009054906101000a90046001600160a01b03166001600160a01b03166001600160a01b031681526020016002820180546132db90615b9e565b80601f016020809104026020016040519081016040528092919081815260200182805461330790615b9e565b80156133545780601f1061332957610100808354040283529160200191613354565b820191906000526020600020905b81548152906001019060200180831161333757829003601f168201915b5050505050815260200160038201805461336d90615b9e565b80601f016020809104026020016040519081016040528092919081815260200182805461339990615b9e565b80156133e65780601f106133bb576101008083540402835291602001916133e6565b820191906000526020600020905b8154815290600101906020018083116133c957829003601f168201915b505050505081526020016004820180546133ff90615b9e565b80601f016020809104026020016040519081016040528092919081815260200182805461342b90615b9e565b80156134785780601f1061344d57610100808354040283529160200191613478565b820191906000526020600020905b81548152906001019060200180831161345b57829003601f168201915b50505091835250506005820154602080830191909152600683015460408301526007830154606083015260088301546080830152600983015460ff808216151560a08501526101008083048216151560c0860152620100009092048116151560e0850152600a85015482850152600b850154808216151561012086015291909104161515610140830152600c830154610160830152600d90920154610180909101528101519091506001600160a01b03808716911603613540578261353c81615b85565b9350505b508061354b81615b85565b915050613259565b600080805b6001548110156138455760006001828154811061357757613577615b59565b90600052602060002090600e020160405180610220016040529081600082015481526020016001820160009054906101000a90046001600160a01b03166001600160a01b03166001600160a01b031681526020016002820180546135da90615b9e565b80601f016020809104026020016040519081016040528092919081815260200182805461360690615b9e565b80156136535780601f1061362857610100808354040283529160200191613653565b820191906000526020600020905b81548152906001019060200180831161363657829003601f168201915b5050505050815260200160038201805461366c90615b9e565b80601f016020809104026020016040519081016040528092919081815260200182805461369890615b9e565b80156136e55780601f106136ba576101008083540402835291602001916136e5565b820191906000526020600020905b8154815290600101906020018083116136c857829003601f168201915b505050505081526020016004820180546136fe90615b9e565b80601f016020809104026020016040519081016040528092919081815260200182805461372a90615b9e565b80156137775780601f1061374c57610100808354040283529160200191613777565b820191906000526020600020905b81548152906001019060200180831161375a57829003601f168201915b505050918352505060058201546020820152600682015460408201526007820154606082015260088201546080820152600982015460ff808216151560a08401526101008083048216151560c0850152620100009092048116151560e0840152600a84015482840152600b84015480821615156101208501529190910416151561014080830191909152600c830154610160830152600d909201546101809091015281015190915015613832578261382e81615b85565b9350505b508061383d81615b85565b915050613558565b50919050565b6138536150b8565b600061385e836129b6565b60016101408201819052805491925082918590811061387f5761387f615b59565b60009182526020918290208351600e9290920201908155908201516001820180546001600160a01b0319166001600160a01b03909216919091179055604082015160028201906138cf9082615c33565b50606082015160038201906138e49082615c33565b50608082015160048201906138f99082615c33565b5060a0820151600582015560c0820151600682015560e082015160078201556101008083015160088301556101208301516009830180546101408601516101608701511515620100000262ff000019911515860261ff0019951515861661ffff1994851617179190911617909155610180850151600a8501556101a0850151600b850180546101c0880151151590950291151590931693909116929092179190911790556101e0820151600c82015561020090910151600d9091015592915050565b6139c3615070565b60005b600254811015613a98576000600282815481106139e5576139e5615b59565b60009182526020918290206040805160e081018252600790930290910180548352600181015493830184905260028101546001600160a01b03169183019190915260038101546060830152600481015460ff1615156080830152600581015460a08301526006015460c0820152915085148015613a775750836001600160a01b031681604001516001600160a01b0316145b15613a85579150611d0e9050565b5080613a9081615b85565b9150506139c6565b50613aa1615070565b600160808201529392505050565b600080613abb836105d7565b905060005b8151811015613b11576000828281518110613add57613add615b59565b6020026020010151905085816020015103613afe5760019350505050611d0e565b5080613b0981615b85565b915050613ac0565b506000949350505050565b60008083806020019051810190613b339190615e60565b915091506000808381548110613b4b57613b4b615b59565b906000526020600020906006020160405180610100016040529081600082015481526020016001820160009054906101000a90046001600160a01b03166001600160a01b03166001600160a01b03168152602001600282018054613bae90615b9e565b80601f0160208091040260200160405190810160405280929190818152602001828054613bda90615b9e565b8015613c275780601f10613bfc57610100808354040283529160200191613c27565b820191906000526020600020905b815481529060010190602001808311613c0a57829003601f168201915b50505050508152602001600382018054613c4090615b9e565b80601f0160208091040260200160405190810160405280929190818152602001828054613c6c90615b9e565b8015613cb95780601f10613c8e57610100808354040283529160200191613cb9565b820191906000526020600020905b815481529060010190602001808311613c9c57829003601f168201915b5050509183525050600482015460ff80821615156020840152610100820481161515604084015262010000909104161515606082015260059091015460809091015260a0810151909150613deb57600160c082015260e081018690526000805482919085908110613d2c57613d2c615b59565b6000918252602091829020835160069290920201908155908201516001820180546001600160a01b0319166001600160a01b0390921691909117905560408201516002820190613d7c9082615c33565b5060608201516003820190613d919082615c33565b50608082015160048201805460a085015160c08601511515620100000262ff0000199115156101000261ff00199515159590951661ffff1990931692909217939093179290921691909117905560e0909101516005909101555b6005613df78582615c33565b50505050505050565b6000613e0b8361087c565b9050806101200151613e4157613e3f816000015183600081518110613e3257613e32615b59565b6020026020010151614966565b505b6000613e4c8461071f565b90508060800151613e8157613e7f816000015184600081518110613e7257613e72615b59565b6020026020010151614ade565b505b50505050565b6040516310c1b4d560e21b815263ffffffff841660048201526000906001600160a01b037f0000000000000000000000000000000000000000000000000000000000000000811691634000aea0917f00000000000000000000000000000000000000000000000000000000000000009190821690634306d35490602401602060405180830381865afa158015613f21573d6000803e3d6000fd5b505050506040513d601f19601f82011682018060405250810190613f459190615e90565b6040805163ffffffff808b16602083015261ffff8a169282019290925290871660608201526080016040516020818303038152906040526040518463ffffffff1660e01b8152600401613f9a93929190615ea9565b6020604051808303816000875af1158015613fb9573d6000803e3d6000fd5b505050506040513d601f19601f82011682018060405250810190613fdd9190615d33565b507f00000000000000000000000000000000000000000000000000000000000000006001600160a01b031663fc2a88c36040518163ffffffff1660e01b8152600401602060405180830381865afa15801561403c573d6000803e3d6000fd5b505050506040513d601f19601f820116820180604052508101906140609190615e90565b949350505050565b6140706150b8565b600061407b846129b6565b90506000600a8260a001516140909190615d1f565b600161016084018190524260e085015261018084018290526101e0840186905280549192508391879081106140c7576140c7615b59565b60009182526020918290208351600e9290920201908155908201516001820180546001600160a01b0319166001600160a01b03909216919091179055604082015160028201906141179082615c33565b506060820151600382019061412c9082615c33565b50608082015160048201906141419082615c33565b5060a0820151600582015560c0820151600682015560e082015160078201556101008083015160088301556101208301516009830180546101408601516101608701511515620100000262ff000019911515860261ff0019951515861661ffff1994851617179190911617909155610180850151600a8501556101a0850151600b850180546101c0880151151590950291151590931693909116929092179190911790556101e0820151600c82015561020090910151600d9091015550905092915050565b6108788260008084614b81565b80516000036142355760405163e889636f60e01b815260040160405180910390fd5b60016020830152608090910152565b6000614251610100614bff565b9050614284604051806040016040528060068152602001651cdb1bdd125160d21b81525082614c2090919063ffffffff16565b6142918160ff8516614c3e565b6040805180820190915260078152663b32b939b4b7b760c91b60208201526142ba908290614c20565b6142c48183614c3e565b6002602085015251516080909301929092525050565b80516000036142fc5760405163fe936cb760e01b815260040160405180910390fd5b60a090910152565b80516000036143265760405163fe936cb760e01b815260040160405180910390fd5b60c090910152565b6060600061433d610100614bff565b90506143766040518060400160405280600c81526020016b31b7b232a637b1b0ba34b7b760a11b81525082614c2090919063ffffffff16565b825161439490600281111561438d5761438d615ed9565b8290614c4a565b6040805180820190915260088152676c616e677561676560c01b60208201526143be908290614c20565b60408301516143d590801561438d5761438d615ed9565b604080518082019091526006815265736f7572636560d01b60208201526143fd908290614c20565b606083015161440d908290614c20565b60a083015151156144a1576040805180820190915260048152636172677360e01b602082015261443e908290614c20565b61444781614c83565b60005b8360a0015151811015614497576144878460a00151828151811061447057614470615b59565b602002602001015183614c2090919063ffffffff16565b61449081615b85565b905061444a565b506144a181614ca7565b60808301515115614565576000836020015160028111156144c4576144c4615ed9565b036144e25760405163a80d31f760e01b815260040160405180910390fd5b60408051808201909152600f81526e39b2b1b932ba39a637b1b0ba34b7b760891b6020820152614513908290614c20565b61452c8360200151600281111561438d5761438d615ed9565b6040805180820190915260078152667365637265747360c81b6020820152614555908290614c20565b6080830151614565908290614cc5565b60c083015151156145fe5760408051808201909152600981526862797465734172677360b81b602082015261459b908290614c20565b6145a481614c83565b60005b8360c00151518110156145f4576145e48460c0015182815181106145cd576145cd615b59565b602002602001015183614cc590919063ffffffff16565b6145ed81615b85565b90506145a7565b506145fe81614ca7565b515192915050565b6000807f00000000000000000000000000000000000000000000000000000000000000006001600160a01b031663461d27628688600188886040518663ffffffff1660e01b815260040161465e959493929190615eef565b6020604051808303816000875af115801561467d573d6000803e3d6000fd5b505050506040513d601f19601f820116820180604052508101906146a19190615e90565b60405190915081907f1131472297a800fee664d1d89cfa8f7676ff07189ecc53f80bbb5f4969099db890600090a295945050505050565b6146e0615070565b6000600284815481106146f5576146f5615b59565b60009182526020918290206040805160e0810182526007909302909101805483526001810154938301939093526002808401546001600160a01b03169183019190915260038301546060830152600483015460ff161515608083015260069092015460c082015260a0810185905281549092508291908690811061477b5761477b615b59565b600091825260209182902083516007929092020190815590820151600182015560408201516002820180546001600160a01b0319166001600160a01b0390921691909117905560608201516003820155608082015160048201805460ff191691151591909117905560a0820151600582015560c0909101516006909101559392505050565b61480861514f565b6009546040805160c0810182528281526020810186815233928201928352606082018681524260808401908152600060a0850181815260038054600181018255925294517fc2575a0e9e593c00f959f8c92f12db2869c3395a3b0502d05e2516446f71f85b60069092029182015592517fc2575a0e9e593c00f959f8c92f12db2869c3395a3b0502d05e2516446f71f85c84015593517fc2575a0e9e593c00f959f8c92f12db2869c3395a3b0502d05e2516446f71f85d830180546001600160a01b0319166001600160a01b03909216919091179055517fc2575a0e9e593c00f959f8c92f12db2869c3395a3b0502d05e2516446f71f85e82015591517fc2575a0e9e593c00f959f8c92f12db2869c3395a3b0502d05e2516446f71f85f830155517fc2575a0e9e593c00f959f8c92f12db2869c3395a3b0502d05e2516446f71f860909101805460ff19169115159190911790556140608161168a565b61496e6150b8565b6000614979846129b6565b4260e08201526102008101849052600180549192508291869081106149a0576149a0615b59565b60009182526020918290208351600e9290920201908155908201516001820180546001600160a01b0319166001600160a01b03909216919091179055604082015160028201906149f09082615c33565b5060608201516003820190614a059082615c33565b5060808201516004820190614a1a9082615c33565b5060a0820151600582015560c0820151600682015560e082015160078201556101008083015160088301556101208301516009830180546101408601516101608701511515620100000262ff000019911515860261ff0019951515861661ffff1994851617179190911617909155610180850151600a8501556101a0850151600b850180546101c0880151151590950291151590931693909116929092179190911790556101e0820151600c82015561020090910151600d90910155905092915050565b614ae6615070565b600060028481548110614afb57614afb615b59565b60009182526020918290206040805160e0810182526007909302909101805483526001810154938301939093526002808401546001600160a01b03169183019190915260038301546060830152600483015460ff161515608083015260059092015460a082015260c0810185905281549092508291908690811061477b5761477b615b59565b8051600003614ba3576040516322ce3edd60e01b815260040160405180910390fd5b83836002811115614bb657614bb6615ed9565b90816002811115614bc957614bc9615ed9565b90525060408401828015614bdf57614bdf615ed9565b90818015614bef57614bef615ed9565b9052506060909301929092525050565b614c076151d6565b8051614c139083614cd2565b5060006020820152919050565b614c2d8260038351614d49565b8151614c399082614e62565b505050565b61087882600083614d49565b8151614c579060c2614e83565b506108788282604051602001614c6f91815260200190565b604051602081830303815290604052614cc5565b614c8e816004614eec565b600181602001818151614ca19190615bd2565b90525050565b614cb2816007614eec565b600181602001818151614ca19190615f38565b614c2d8260028351614d49565b604080518082019091526060815260006020820152614cf2602083615f4b565b15614d1a57614d02602083615f4b565b614d0d906020615f38565b614d179083615bd2565b91505b602080840183905260405180855260008152908184010181811015614d3e57600080fd5b604052509192915050565b6017816001600160401b031611614d6f578251613e819060e0600585901b168317614e83565b60ff816001600160401b031611614daf578251614d97906018611fe0600586901b1617614e83565b508251613e81906001600160401b0383166001614f03565b61ffff816001600160401b031611614df0578251614dd8906019611fe0600586901b1617614e83565b508251613e81906001600160401b0383166002614f03565b63ffffffff816001600160401b031611614e33578251614e1b90601a611fe0600586901b1617614e83565b508251613e81906001600160401b0383166004614f03565b8251614e4a90601b611fe0600586901b1617614e83565b508251613e81906001600160401b0383166008614f03565b60408051808201909152606081526000602082015261118183838451614f88565b6040805180820190915260608152600060208201528251516000614ea8826001615bd2565b905084602001518210614ec957614ec985614ec4836002615cf2565b615059565b8451602083820101858153508051821115614ee2578181525b5093949350505050565b8151614c3990601f611fe0600585901b1617614e83565b6040805180820190915260608152600060208201528351516000614f278285615bd2565b90508560200151811115614f4457614f4486614ec4836002615cf2565b60006001614f5486610100615f5f565b614f5e9190615f38565b90508651828101878319825116178152508051831115614f7c578281525b50959695505050505050565b6040805180820190915260608152600060208201528251821115614fab57600080fd5b8351516000614fba8483615bd2565b90508560200151811115614fd757614fd786614ec4836002615cf2565b855180518382016020019160009180851115614ff1578482525b505050602086015b602086106150315780518252615010602083615bd2565b915061501d602082615bd2565b905061502a602087615f38565b9550614ff9565b51815160001960208890036101000a0190811690199190911617905250849150509392505050565b81516150658383614cd2565b50613e818382614e62565b6040518060e00160405280600081526020016000815260200160006001600160a01b031681526020016000815260200160001515815260200160008152602001600081525090565b6040518061022001604052806000815260200160006001600160a01b03168152602001606081526020016060815260200160608152602001600081526020016000815260200160008152602001600081526020016000151581526020016000151581526020016000151581526020016000815260200160001515815260200160001515815260200160008152602001600081525090565b6040518060c00160405280600081526020016000815260200160006001600160a01b0316815260200160008152602001600081526020016000151581525090565b60408051610100810182526000808252602082018190526060928201839052828201929092526080810182905260a0810182905260c0810182905260e081019190915290565b60405180604001604052806151fe604051806040016040528060608152602001600081525090565b8152602001600081525090565b634e487b7160e01b600052604160045260246000fd5b604051601f8201601f191681016001600160401b03811182821017156152495761524961520b565b604052919050565b600082601f83011261526257600080fd5b81356001600160401b0381111561527b5761527b61520b565b61528e601f8201601f1916602001615221565b8181528460208386010111156152a357600080fd5b816020850160208301376000918101602001919091529392505050565b6000806000606084860312156152d557600080fd5b8335925060208401356001600160401b03808211156152f357600080fd5b6152ff87838801615251565b9350604086013591508082111561531557600080fd5b5061532286828701615251565b9150509250925092565b80356001600160a01b038116811461534357600080fd5b919050565b60006020828403121561535a57600080fd5b6111818261532c565b80518252602080820151908301526040808201516001600160a01b0316908301526060808201519083015260808082015115159083015260a0808201519083015260c090810151910152565b6020808252825182820181905260009190848201906040850190845b818110156153f1576153de838551615363565b9284019260e092909201916001016153cb565b50909695505050505050565b60006020828403121561540f57600080fd5b5035919050565b60e08101611d0e8284615363565b60006001600160401b0382111561543d5761543d61520b565b5060051b60200190565b6000806040838503121561545a57600080fd5b823591506020808401356001600160401b0381111561547857600080fd5b8401601f8101861361548957600080fd5b803561549c61549782615424565b615221565b81815260059190911b820183019083810190888311156154bb57600080fd5b928401925b828410156154d9578335825292840192908401906154c0565b80955050505050509250929050565b6000815180845260005b8181101561550e576020818501810151868301820152016154f2565b506000602082860101526020601f19601f83011685010191505092915050565b600061022082518452602083015161555160208601826001600160a01b03169052565b506040830151816040860152615569828601826154e8565b9150506060830151848203606086015261558382826154e8565b9150506080830151848203608086015261559d82826154e8565b91505060a083015160a085015260c083015160c085015260e083015160e0850152610100808401518186015250610120808401516155de8287018215159052565b5050610140838101511515908501526101608084015115159085015261018080840151908501526101a0808401511515908501526101c0808401511515908501526101e080840151908501526102009283015192909301919091525090565b602081526000611181602083018461552e565b6000602080830181845280855180835260408601915060408160051b870101925083870160005b828110156156a557603f1988860301845261569385835161552e565b94509285019290850190600101615677565b5092979650505050505050565b60ff811681146156c157600080fd5b50565b8035615343816156b2565b80356001600160401b038116811461534357600080fd5b600082601f8301126156f757600080fd5b8135602061570761549783615424565b82815260059290921b8401810191818101908684111561572657600080fd5b8286015b848110156157655780356001600160401b038111156157495760008081fd5b6157578986838b0101615251565b84525091830191830161572a565b509695505050505050565b600082601f83011261578157600080fd5b8135602061579161549783615424565b82815260059290921b840181019181810190868411156157b057600080fd5b8286015b848110156157655780356001600160401b038111156157d35760008081fd5b6157e18986838b0101615251565b8452509183019183016157b4565b803563ffffffff8116811461534357600080fd5b60008060008060008060008060006101208a8c03121561582257600080fd5b89356001600160401b038082111561583957600080fd5b6158458d838e01615251565b9a5060208c013591508082111561585b57600080fd5b6158678d838e01615251565b995061587560408d016156c4565b985061588360608d016156cf565b975060808c013591508082111561589957600080fd5b6158a58d838e016156e6565b965060a08c01359150808211156158bb57600080fd5b506158c88c828d01615770565b9450506158d760c08b016156cf565b92506158e560e08b016157ef565b91506101008a013590509295985092959850929598565b60006101008251845260018060a01b036020840151166020850152604083015181604086015261592e828601826154e8565b9150506060830151848203606086015261594882826154e8565b91505060808301511515608085015260a083015161596a60a086018215159052565b5060c083015161597e60c086018215159052565b5060e083015160e08501528091505092915050565b60208152600061118160208301846158fc565b600080604083850312156159b957600080fd5b82356001600160401b03808211156159d057600080fd5b6159dc86838701615251565b935060208501359150808211156159f257600080fd5b506159ff85828601615251565b9150509250929050565b80151581146156c157600080fd5b60008060008060008060c08789031215615a3057600080fd5b86356001600160401b0380821115615a4757600080fd5b615a538a838b01615251565b97506020890135915080821115615a6957600080fd5b615a758a838b01615251565b96506040890135915080821115615a8b57600080fd5b50615a9889828a01615251565b945050606087013592506080870135915060a0870135615ab781615a09565b809150509295509295509295565b6000602080830181845280855180835260408601915060408160051b870101925083870160005b828110156156a557603f19888603018452615b088583516158fc565b94509285019290850190600101615aec565b60208152600061118160208301846154e8565b60008060408385031215615b4057600080fd5b82359150615b506020840161532c565b90509250929050565b634e487b7160e01b600052603260045260246000fd5b634e487b7160e01b600052601160045260246000fd5b600060018201615b9757615b97615b6f565b5060010190565b600181811c90821680615bb257607f821691505b60208210810361384557634e487b7160e01b600052602260045260246000fd5b80820180821115611d0e57611d0e615b6f565b601f821115614c3957600081815260208120601f850160051c81016020861015615c0c5750805b601f850160051c820191505b81811015615c2b57828155600101615c18565b505050505050565b81516001600160401b03811115615c4c57615c4c61520b565b615c6081615c5a8454615b9e565b84615be5565b602080601f831160018114615c955760008415615c7d5750858301515b600019600386901b1c1916600185901b178555615c2b565b600085815260208120601f198616915b82811015615cc457888601518255948401946001909101908401615ca5565b5085821015615ce25787850151600019600388901b60f8161c191681555b5050505050600190811b01905550565b8082028115828204841417611d0e57611d0e615b6f565b634e487b7160e01b600052601260045260246000fd5b600082615d2e57615d2e615d09565b500490565b600060208284031215615d4557600080fd5b815161118181615a09565b600060208284031215615d6257600080fd5b8151611181816156b2565b600181815b80851115615da8578160001904821115615d8e57615d8e615b6f565b80851615615d9b57918102915b93841c9390800290615d72565b509250929050565b600082615dbf57506001611d0e565b81615dcc57506000611d0e565b8160018114615de25760028114615dec57615e08565b6001915050611d0e565b60ff841115615dfd57615dfd615b6f565b50506001821b611d0e565b5060208310610133831016604e8410600b8410161715615e2b575081810a611d0e565b615e358383615d6d565b8060001904821115615e4957615e49615b6f565b029392505050565b600061118160ff841683615db0565b60008060408385031215615e7357600080fd5b825191506020830151615e8581615a09565b809150509250929050565b600060208284031215615ea257600080fd5b5051919050565b60018060a01b0384168152826020820152606060408201526000615ed060608301846154e8565b95945050505050565b634e487b7160e01b600052602160045260246000fd5b6001600160401b038616815260a060208201526000615f1160a08301876154e8565b61ffff9590951660408301525063ffffffff92909216606083015260809091015292915050565b81810381811115611d0e57611d0e615b6f565b600082615f5a57615f5a615d09565b500690565b60006111818383615db056fea26469706673582212209aad40cb60458f68139561e571d6636788fdf90425a5d3e09f4a164e02f8a41c64736f6c63430008130033",
			"opcodes": "PUSH1 0xE0 PUSH1 0x40 MSTORE PUSH1 0xB DUP1 SLOAD PUSH1 0x1 PUSH1 0x1 PUSH1 0xA0 SHL SUB NOT SWAP1 DUP2 AND PUSH20 0x5425890298AED601595A70AB815C96711A31BC65 OR SWAP1 SWAP2 SSTORE PUSH1 0xC DUP1 SLOAD DUP3 AND PUSH20 0xB9D5D9136855F6FEC3C0993FEE6E9CE8A297846 OR SWAP1 SSTORE PUSH1 0xD DUP1 SLOAD DUP3 AND PUSH20 0x9345AC54DA4D0B5CDA8CB749D8EF37E5F02BBB21 OR SWAP1 SSTORE PUSH1 0xE DUP1 SLOAD SWAP1 SWAP2 AND PUSH20 0xA9D587A00A31A52ED70D6026794A8FC5E2F5DCB0 OR SWAP1 SSTORE CALLVALUE DUP1 ISZERO PUSH3 0x95 JUMPI PUSH1 0x0 DUP1 REVERT JUMPDEST POP PUSH1 0x40 MLOAD PUSH3 0x6110 CODESIZE SUB DUP1 PUSH3 0x6110 DUP4 CODECOPY DUP2 ADD PUSH1 0x40 DUP2 SWAP1 MSTORE PUSH3 0xB8 SWAP2 PUSH3 0xF8 JUMP JUMPDEST PUSH1 0xC SLOAD PUSH1 0xD SLOAD PUSH1 0xE SLOAD PUSH1 0x1 PUSH1 0x1 PUSH1 0xA0 SHL SUB SWAP1 DUP2 AND PUSH1 0x80 MSTORE SWAP2 DUP3 AND PUSH1 0xA0 MSTORE DUP2 AND PUSH1 0xC0 MSTORE PUSH1 0x4 DUP1 SLOAD PUSH1 0x1 PUSH1 0x1 PUSH1 0xA0 SHL SUB NOT AND SWAP3 SWAP1 SWAP2 AND SWAP2 SWAP1 SWAP2 OR SWAP1 SSTORE PUSH3 0x12A JUMP JUMPDEST PUSH1 0x0 PUSH1 0x20 DUP3 DUP5 SUB SLT ISZERO PUSH3 0x10B JUMPI PUSH1 0x0 DUP1 REVERT JUMPDEST DUP2 MLOAD PUSH1 0x1 PUSH1 0x1 PUSH1 0xA0 SHL SUB DUP2 AND DUP2 EQ PUSH3 0x123 JUMPI PUSH1 0x0 DUP1 REVERT JUMPDEST SWAP4 SWAP3 POP POP POP JUMP JUMPDEST PUSH1 0x80 MLOAD PUSH1 0xA0 MLOAD PUSH1 0xC0 MLOAD PUSH2 0x5FA1 PUSH3 0x16F PUSH1 0x0 CODECOPY PUSH1 0x0 DUP2 DUP2 PUSH2 0x7FC ADD MSTORE DUP2 DUP2 PUSH2 0x3ED7 ADD MSTORE PUSH2 0x3FE0 ADD MSTORE PUSH1 0x0 PUSH2 0x3EAD ADD MSTORE PUSH1 0x0 DUP2 DUP2 PUSH2 0x55E ADD MSTORE PUSH2 0x460B ADD MSTORE PUSH2 0x5FA1 PUSH1 0x0 RETURN INVALID PUSH1 0x80 PUSH1 0x40 MSTORE CALLVALUE DUP1 ISZERO PUSH2 0x10 JUMPI PUSH1 0x0 DUP1 REVERT JUMPDEST POP PUSH1 0x4 CALLDATASIZE LT PUSH2 0x206 JUMPI PUSH1 0x0 CALLDATALOAD PUSH1 0xE0 SHR DUP1 PUSH4 0x767A5867 GT PUSH2 0x11A JUMPI DUP1 PUSH4 0xB07C7E6C GT PUSH2 0xAD JUMPI DUP1 PUSH4 0xC5B84029 GT PUSH2 0x7C JUMPI DUP1 PUSH4 0xC5B84029 EQ PUSH2 0x4FF JUMPI DUP1 PUSH4 0xCEE34E7B EQ PUSH2 0x512 JUMPI DUP1 PUSH4 0xCFD9F3DA EQ PUSH2 0x51A JUMPI DUP1 PUSH4 0xF10B812F EQ PUSH2 0x52D JUMPI DUP1 PUSH4 0xF5CAA96B EQ PUSH2 0x540 JUMPI PUSH1 0x0 DUP1 REVERT JUMPDEST DUP1 PUSH4 0xB07C7E6C EQ PUSH2 0x4BC JUMPI DUP1 PUSH4 0xB98079BC EQ PUSH2 0x4D1 JUMPI DUP1 PUSH4 0xC081EE70 EQ PUSH2 0x4E4 JUMPI DUP1 PUSH4 0xC0F555F0 EQ PUSH2 0x4EC JUMPI PUSH1 0x0 DUP1 REVERT JUMPDEST DUP1 PUSH4 0x9720807C GT PUSH2 0xE9 JUMPI DUP1 PUSH4 0x9720807C EQ PUSH2 0x44B JUMPI DUP1 PUSH4 0x99BB6B08 EQ PUSH2 0x476 JUMPI DUP1 PUSH4 0xABDA7405 EQ PUSH2 0x489 JUMPI DUP1 PUSH4 0xAD395C14 EQ PUSH2 0x49C JUMPI PUSH1 0x0 DUP1 REVERT JUMPDEST DUP1 PUSH4 0x767A5867 EQ PUSH2 0x3FF JUMPI DUP1 PUSH4 0x76F8CBD5 EQ PUSH2 0x412 JUMPI DUP1 PUSH4 0x87B162B5 EQ PUSH2 0x425 JUMPI DUP1 PUSH4 0x89EE68BF EQ PUSH2 0x438 JUMPI PUSH1 0x0 DUP1 REVERT JUMPDEST DUP1 PUSH4 0x4591B666 GT PUSH2 0x19D JUMPI DUP1 PUSH4 0x63FF89C7 GT PUSH2 0x16C JUMPI DUP1 PUSH4 0x63FF89C7 EQ PUSH2 0x341 JUMPI DUP1 PUSH4 0x65212F70 EQ PUSH2 0x354 JUMPI DUP1 PUSH4 0x666AC2FB EQ PUSH2 0x3B9 JUMPI DUP1 PUSH4 0x6ED6DA9E EQ PUSH2 0x3CC JUMPI DUP1 PUSH4 0x7354A25F EQ PUSH2 0x3EC JUMPI PUSH1 0x0 DUP1 REVERT JUMPDEST DUP1 PUSH4 0x4591B666 EQ PUSH2 0x2F2 JUMPI DUP1 PUSH4 0x4DFF247F EQ PUSH2 0x313 JUMPI DUP1 PUSH4 0x52A81EEB EQ PUSH2 0x326 JUMPI DUP1 PUSH4 0x5D3EE0EE EQ PUSH2 0x339 JUMPI PUSH1 0x0 DUP1 REVERT JUMPDEST DUP1 PUSH4 0x22B1185E GT PUSH2 0x1D9 JUMPI DUP1 PUSH4 0x22B1185E EQ PUSH2 0x27C JUMPI DUP1 PUSH4 0x235B3A3D EQ PUSH2 0x29C JUMPI DUP1 PUSH4 0x24C67B03 EQ PUSH2 0x2AF JUMPI DUP1 PUSH4 0x3B902AFE EQ PUSH2 0x2D2 JUMPI PUSH1 0x0 DUP1 REVERT JUMPDEST DUP1 PUSH4 0xCA76175 EQ PUSH2 0x20B JUMPI DUP1 PUSH4 0x184B0938 EQ PUSH2 0x220 JUMPI DUP1 PUSH4 0x19867063 EQ PUSH2 0x249 JUMPI DUP1 PUSH4 0x1FE543E3 EQ PUSH2 0x269 JUMPI JUMPDEST PUSH1 0x0 DUP1 REVERT JUMPDEST PUSH2 0x21E PUSH2 0x219 CALLDATASIZE PUSH1 0x4 PUSH2 0x52C0 JUMP JUMPDEST PUSH2 0x553 JUMP JUMPDEST STOP JUMPDEST PUSH2 0x233 PUSH2 0x22E CALLDATASIZE PUSH1 0x4 PUSH2 0x5348 JUMP JUMPDEST PUSH2 0x5D7 JUMP JUMPDEST PUSH1 0x40 MLOAD PUSH2 0x240 SWAP2 SWAP1 PUSH2 0x53AF JUMP JUMPDEST PUSH1 0x40 MLOAD DUP1 SWAP2 SUB SWAP1 RETURN JUMPDEST PUSH2 0x25C PUSH2 0x257 CALLDATASIZE PUSH1 0x4 PUSH2 0x53FD JUMP JUMPDEST PUSH2 0x71F JUMP JUMPDEST PUSH1 0x40 MLOAD PUSH2 0x240 SWAP2 SWAP1 PUSH2 0x5416 JUMP JUMPDEST PUSH2 0x21E PUSH2 0x277 CALLDATASIZE PUSH1 0x4 PUSH2 0x5447 JUMP JUMPDEST PUSH2 0x7F1 JUMP JUMPDEST PUSH2 0x28F PUSH2 0x28A CALLDATASIZE PUSH1 0x4 PUSH2 0x53FD JUMP JUMPDEST PUSH2 0x87C JUMP JUMPDEST PUSH1 0x40 MLOAD PUSH2 0x240 SWAP2 SWAP1 PUSH2 0x563D JUMP JUMPDEST PUSH2 0x233 PUSH2 0x2AA CALLDATASIZE PUSH1 0x4 PUSH2 0x53FD JUMP JUMPDEST PUSH2 0xB85 JUMP JUMPDEST PUSH2 0x2C2 PUSH2 0x2BD CALLDATASIZE PUSH1 0x4 PUSH2 0x53FD JUMP JUMPDEST PUSH2 0xCCA JUMP JUMPDEST PUSH1 0x40 MLOAD SWAP1 ISZERO ISZERO DUP2 MSTORE PUSH1 0x20 ADD PUSH2 0x240 JUMP JUMPDEST PUSH2 0x2E5 PUSH2 0x2E0 CALLDATASIZE PUSH1 0x4 PUSH2 0x5348 JUMP JUMPDEST PUSH2 0xD7F JUMP JUMPDEST PUSH1 0x40 MLOAD PUSH2 0x240 SWAP2 SWAP1 PUSH2 0x5650 JUMP JUMPDEST PUSH2 0x305 PUSH2 0x300 CALLDATASIZE PUSH1 0x4 PUSH2 0x53FD JUMP JUMPDEST PUSH2 0x10F4 JUMP JUMPDEST PUSH1 0x40 MLOAD SWAP1 DUP2 MSTORE PUSH1 0x20 ADD PUSH2 0x240 JUMP JUMPDEST PUSH2 0x28F PUSH2 0x321 CALLDATASIZE PUSH1 0x4 PUSH2 0x53FD JUMP JUMPDEST PUSH2 0x115C JUMP JUMPDEST PUSH2 0x305 PUSH2 0x334 CALLDATASIZE PUSH1 0x4 PUSH2 0x5803 JUMP JUMPDEST PUSH2 0x1188 JUMP JUMPDEST PUSH2 0x2E5 PUSH2 0x124D JUMP JUMPDEST PUSH2 0x2C2 PUSH2 0x34F CALLDATASIZE PUSH1 0x4 PUSH2 0x53FD JUMP JUMPDEST PUSH2 0x15BC JUMP JUMPDEST PUSH2 0x367 PUSH2 0x362 CALLDATASIZE PUSH1 0x4 PUSH2 0x53FD JUMP JUMPDEST PUSH2 0x168A JUMP JUMPDEST PUSH1 0x40 MLOAD PUSH2 0x240 SWAP2 SWAP1 DUP2 MLOAD DUP2 MSTORE PUSH1 0x20 DUP1 DUP4 ADD MLOAD SWAP1 DUP3 ADD MSTORE PUSH1 0x40 DUP1 DUP4 ADD MLOAD PUSH1 0x1 PUSH1 0x1 PUSH1 0xA0 SHL SUB AND SWAP1 DUP3 ADD MSTORE PUSH1 0x60 DUP1 DUP4 ADD MLOAD SWAP1 DUP3 ADD MSTORE PUSH1 0x80 DUP1 DUP4 ADD MLOAD SWAP1 DUP3 ADD MSTORE PUSH1 0xA0 SWAP2 DUP3 ADD MLOAD ISZERO ISZERO SWAP2 DUP2 ADD SWAP2 SWAP1 SWAP2 MSTORE PUSH1 0xC0 ADD SWAP1 JUMP JUMPDEST PUSH2 0x305 PUSH2 0x3C7 CALLDATASIZE PUSH1 0x4 PUSH2 0x5348 JUMP JUMPDEST PUSH2 0x170E JUMP JUMPDEST PUSH2 0x3DF PUSH2 0x3DA CALLDATASIZE PUSH1 0x4 PUSH2 0x53FD JUMP JUMPDEST PUSH2 0x17D0 JUMP JUMPDEST PUSH1 0x40 MLOAD PUSH2 0x240 SWAP2 SWAP1 PUSH2 0x5993 JUMP JUMPDEST PUSH2 0x305 PUSH2 0x3FA CALLDATASIZE PUSH1 0x4 PUSH2 0x53FD JUMP JUMPDEST PUSH2 0x19E5 JUMP JUMPDEST PUSH2 0x25C PUSH2 0x40D CALLDATASIZE PUSH1 0x4 PUSH2 0x53FD JUMP JUMPDEST PUSH2 0x1AA0 JUMP JUMPDEST PUSH2 0x305 PUSH2 0x420 CALLDATASIZE PUSH1 0x4 PUSH2 0x53FD JUMP JUMPDEST PUSH2 0x1AC5 JUMP JUMPDEST PUSH2 0x3DF PUSH2 0x433 CALLDATASIZE PUSH1 0x4 PUSH2 0x59A6 JUMP JUMPDEST PUSH2 0x1B80 JUMP JUMPDEST PUSH2 0x367 PUSH2 0x446 CALLDATASIZE PUSH1 0x4 PUSH2 0x53FD JUMP JUMPDEST PUSH2 0x1D14 JUMP JUMPDEST PUSH1 0x4 SLOAD PUSH2 0x45E SWAP1 PUSH1 0x1 PUSH1 0x1 PUSH1 0xA0 SHL SUB AND DUP2 JUMP JUMPDEST PUSH1 0x40 MLOAD PUSH1 0x1 PUSH1 0x1 PUSH1 0xA0 SHL SUB SWAP1 SWAP2 AND DUP2 MSTORE PUSH1 0x20 ADD PUSH2 0x240 JUMP JUMPDEST PUSH2 0x3DF PUSH2 0x484 CALLDATASIZE PUSH1 0x4 PUSH2 0x5348 JUMP JUMPDEST PUSH2 0x22FD JUMP JUMPDEST PUSH2 0x21E PUSH2 0x497 CALLDATASIZE PUSH1 0x4 PUSH2 0x5A17 JUMP JUMPDEST PUSH2 0x250C JUMP JUMPDEST PUSH2 0x4AF PUSH2 0x4AA CALLDATASIZE PUSH1 0x4 PUSH2 0x53FD JUMP JUMPDEST PUSH2 0x27DD JUMP JUMPDEST PUSH1 0x40 MLOAD PUSH2 0x240 SWAP2 SWAP1 PUSH2 0x5AC5 JUMP JUMPDEST PUSH2 0x4C4 PUSH2 0x2928 JUMP JUMPDEST PUSH1 0x40 MLOAD PUSH2 0x240 SWAP2 SWAP1 PUSH2 0x5B1A JUMP JUMPDEST PUSH2 0x28F PUSH2 0x4DF CALLDATASIZE PUSH1 0x4 PUSH2 0x53FD JUMP JUMPDEST PUSH2 0x29B6 JUMP JUMPDEST PUSH2 0x2C2 PUSH2 0x2CA4 JUMP JUMPDEST PUSH2 0x21E PUSH2 0x4FA CALLDATASIZE PUSH1 0x4 PUSH2 0x53FD JUMP JUMPDEST PUSH2 0x2DAA JUMP JUMPDEST PUSH2 0x305 PUSH2 0x50D CALLDATASIZE PUSH1 0x4 PUSH2 0x5348 JUMP JUMPDEST PUSH2 0x3254 JUMP JUMPDEST PUSH2 0x305 PUSH2 0x3553 JUMP JUMPDEST PUSH2 0x28F PUSH2 0x528 CALLDATASIZE PUSH1 0x4 PUSH2 0x53FD JUMP JUMPDEST PUSH2 0x384B JUMP JUMPDEST PUSH2 0x25C PUSH2 0x53B CALLDATASIZE PUSH1 0x4 PUSH2 0x5B2D JUMP JUMPDEST PUSH2 0x39BB JUMP JUMPDEST PUSH2 0x2C2 PUSH2 0x54E CALLDATASIZE PUSH1 0x4 PUSH2 0x5B2D JUMP JUMPDEST PUSH2 0x3AAF JUMP JUMPDEST CALLER PUSH1 0x1 PUSH1 0x1 PUSH1 0xA0 SHL SUB PUSH32 0x0 AND EQ PUSH2 0x59C JUMPI PUSH1 0x40 MLOAD PUSH4 0xC6829F83 PUSH1 0xE0 SHL DUP2 MSTORE PUSH1 0x4 ADD PUSH1 0x40 MLOAD DUP1 SWAP2 SUB SWAP1 REVERT JUMPDEST PUSH2 0x5A7 DUP4 DUP4 DUP4 PUSH2 0x3B1C JUMP JUMPDEST PUSH1 0x40 MLOAD DUP4 SWAP1 PUSH32 0x85E1543BF2F84FE80C6BADBCE3648C8539AD1DF4D2B3D822938CA0538BE727E6 SWAP1 PUSH1 0x0 SWAP1 LOG2 POP POP POP JUMP JUMPDEST PUSH1 0x60 PUSH1 0x0 DUP1 PUSH2 0x5E5 DUP5 PUSH2 0x170E JUMP JUMPDEST PUSH1 0x1 PUSH1 0x1 PUSH1 0x40 SHL SUB DUP2 GT ISZERO PUSH2 0x5FC JUMPI PUSH2 0x5FC PUSH2 0x520B JUMP JUMPDEST PUSH1 0x40 MLOAD SWAP1 DUP1 DUP3 MSTORE DUP1 PUSH1 0x20 MUL PUSH1 0x20 ADD DUP3 ADD PUSH1 0x40 MSTORE DUP1 ISZERO PUSH2 0x635 JUMPI DUP2 PUSH1 0x20 ADD JUMPDEST PUSH2 0x622 PUSH2 0x5070 JUMP JUMPDEST DUP2 MSTORE PUSH1 0x20 ADD SWAP1 PUSH1 0x1 SWAP1 SUB SWAP1 DUP2 PUSH2 0x61A JUMPI SWAP1 POP JUMPDEST POP SWAP1 POP PUSH1 0x0 JUMPDEST PUSH1 0x2 SLOAD DUP2 LT ISZERO PUSH2 0x717 JUMPI PUSH1 0x0 PUSH1 0x2 DUP3 DUP2 SLOAD DUP2 LT PUSH2 0x65A JUMPI PUSH2 0x65A PUSH2 0x5B59 JUMP JUMPDEST PUSH1 0x0 SWAP2 DUP3 MSTORE PUSH1 0x20 SWAP2 DUP3 SWAP1 KECCAK256 PUSH1 0x40 DUP1 MLOAD PUSH1 0xE0 DUP2 ADD DUP3 MSTORE PUSH1 0x7 SWAP1 SWAP4 MUL SWAP1 SWAP2 ADD DUP1 SLOAD DUP4 MSTORE PUSH1 0x1 DUP2 ADD SLOAD SWAP4 DUP4 ADD SWAP4 SWAP1 SWAP4 MSTORE PUSH1 0x2 DUP4 ADD SLOAD PUSH1 0x1 PUSH1 0x1 PUSH1 0xA0 SHL SUB SWAP1 DUP2 AND SWAP2 DUP4 ADD DUP3 SWAP1 MSTORE PUSH1 0x3 DUP5 ADD SLOAD PUSH1 0x60 DUP5 ADD MSTORE PUSH1 0x4 DUP5 ADD SLOAD PUSH1 0xFF AND ISZERO ISZERO PUSH1 0x80 DUP5 ADD MSTORE PUSH1 0x5 DUP5 ADD SLOAD PUSH1 0xA0 DUP5 ADD MSTORE PUSH1 0x6 SWAP1 SWAP4 ADD SLOAD PUSH1 0xC0 DUP4 ADD MSTORE SWAP1 SWAP3 POP SWAP1 DUP8 AND SWAP1 SUB PUSH2 0x704 JUMPI DUP1 DUP4 DUP6 DUP2 MLOAD DUP2 LT PUSH2 0x6EA JUMPI PUSH2 0x6EA PUSH2 0x5B59 JUMP JUMPDEST PUSH1 0x20 MUL PUSH1 0x20 ADD ADD DUP2 SWAP1 MSTORE POP DUP4 DUP1 PUSH2 0x700 SWAP1 PUSH2 0x5B85 JUMP JUMPDEST SWAP5 POP POP JUMPDEST POP DUP1 PUSH2 0x70F DUP2 PUSH2 0x5B85 JUMP JUMPDEST SWAP2 POP POP PUSH2 0x63B JUMP JUMPDEST POP SWAP4 SWAP3 POP POP POP JUMP JUMPDEST PUSH2 0x727 PUSH2 0x5070 JUMP JUMPDEST PUSH1 0x0 JUMPDEST PUSH1 0x2 SLOAD DUP2 LT ISZERO PUSH2 0x7DB JUMPI PUSH1 0x0 PUSH1 0x2 DUP3 DUP2 SLOAD DUP2 LT PUSH2 0x749 JUMPI PUSH2 0x749 PUSH2 0x5B59 JUMP JUMPDEST PUSH1 0x0 SWAP2 DUP3 MSTORE PUSH1 0x20 SWAP2 DUP3 SWAP1 KECCAK256 PUSH1 0x40 DUP1 MLOAD PUSH1 0xE0 DUP2 ADD DUP3 MSTORE PUSH1 0x7 SWAP1 SWAP4 MUL SWAP1 SWAP2 ADD DUP1 SLOAD DUP4 MSTORE PUSH1 0x1 DUP2 ADD SLOAD SWAP4 DUP4 ADD SWAP4 SWAP1 SWAP4 MSTORE PUSH1 0x2 DUP4 ADD SLOAD PUSH1 0x1 PUSH1 0x1 PUSH1 0xA0 SHL SUB AND SWAP1 DUP3 ADD MSTORE PUSH1 0x3 DUP3 ADD SLOAD PUSH1 0x60 DUP3 ADD MSTORE PUSH1 0x4 DUP3 ADD SLOAD PUSH1 0xFF AND ISZERO ISZERO PUSH1 0x80 DUP3 ADD MSTORE PUSH1 0x5 DUP3 ADD SLOAD PUSH1 0xA0 DUP3 ADD DUP2 SWAP1 MSTORE PUSH1 0x6 SWAP1 SWAP3 ADD SLOAD PUSH1 0xC0 DUP3 ADD MSTORE SWAP2 POP DUP5 SWAP1 SUB PUSH2 0x7C8 JUMPI SWAP4 SWAP3 POP POP POP JUMP JUMPDEST POP DUP1 PUSH2 0x7D3 DUP2 PUSH2 0x5B85 JUMP JUMPDEST SWAP2 POP POP PUSH2 0x72A JUMP JUMPDEST POP PUSH2 0x7E4 PUSH2 0x5070 JUMP JUMPDEST PUSH1 0x1 PUSH1 0x80 DUP3 ADD MSTORE SWAP3 SWAP2 POP POP JUMP JUMPDEST CALLER PUSH1 0x1 PUSH1 0x1 PUSH1 0xA0 SHL SUB PUSH32 0x0 AND EQ PUSH2 0x86E JUMPI PUSH1 0x40 MLOAD PUSH3 0x461BCD PUSH1 0xE5 SHL DUP2 MSTORE PUSH1 0x20 PUSH1 0x4 DUP3 ADD MSTORE PUSH1 0x1F PUSH1 0x24 DUP3 ADD MSTORE PUSH32 0x6F6E6C792056524620563220777261707065722063616E2066756C66696C6C00 PUSH1 0x44 DUP3 ADD MSTORE PUSH1 0x64 ADD JUMPDEST PUSH1 0x40 MLOAD DUP1 SWAP2 SUB SWAP1 REVERT JUMPDEST PUSH2 0x878 DUP3 DUP3 PUSH2 0x3E00 JUMP JUMPDEST POP POP JUMP JUMPDEST PUSH2 0x884 PUSH2 0x50B8 JUMP JUMPDEST PUSH1 0x0 JUMPDEST PUSH1 0x1 SLOAD DUP2 LT ISZERO PUSH2 0xB6E JUMPI PUSH1 0x0 PUSH1 0x1 DUP3 DUP2 SLOAD DUP2 LT PUSH2 0x8A6 JUMPI PUSH2 0x8A6 PUSH2 0x5B59 JUMP JUMPDEST SWAP1 PUSH1 0x0 MSTORE PUSH1 0x20 PUSH1 0x0 KECCAK256 SWAP1 PUSH1 0xE MUL ADD PUSH1 0x40 MLOAD DUP1 PUSH2 0x220 ADD PUSH1 0x40 MSTORE SWAP1 DUP2 PUSH1 0x0 DUP3 ADD SLOAD DUP2 MSTORE PUSH1 0x20 ADD PUSH1 0x1 DUP3 ADD PUSH1 0x0 SWAP1 SLOAD SWAP1 PUSH2 0x100 EXP SWAP1 DIV PUSH1 0x1 PUSH1 0x1 PUSH1 0xA0 SHL SUB AND PUSH1 0x1 PUSH1 0x1 PUSH1 0xA0 SHL SUB AND PUSH1 0x1 PUSH1 0x1 PUSH1 0xA0 SHL SUB AND DUP2 MSTORE PUSH1 0x20 ADD PUSH1 0x2 DUP3 ADD DUP1 SLOAD PUSH2 0x909 SWAP1 PUSH2 0x5B9E JUMP JUMPDEST DUP1 PUSH1 0x1F ADD PUSH1 0x20 DUP1 SWAP2 DIV MUL PUSH1 0x20 ADD PUSH1 0x40 MLOAD SWAP1 DUP2 ADD PUSH1 0x40 MSTORE DUP1 SWAP3 SWAP2 SWAP1 DUP2 DUP2 MSTORE PUSH1 0x20 ADD DUP3 DUP1 SLOAD PUSH2 0x935 SWAP1 PUSH2 0x5B9E JUMP JUMPDEST DUP1 ISZERO PUSH2 0x982 JUMPI DUP1 PUSH1 0x1F LT PUSH2 0x957 JUMPI PUSH2 0x100 DUP1 DUP4 SLOAD DIV MUL DUP4 MSTORE SWAP2 PUSH1 0x20 ADD SWAP2 PUSH2 0x982 JUMP JUMPDEST DUP3 ADD SWAP2 SWAP1 PUSH1 0x0 MSTORE PUSH1 0x20 PUSH1 0x0 KECCAK256 SWAP1 JUMPDEST DUP2 SLOAD DUP2 MSTORE SWAP1 PUSH1 0x1 ADD SWAP1 PUSH1 0x20 ADD DUP1 DUP4 GT PUSH2 0x965 JUMPI DUP3 SWAP1 SUB PUSH1 0x1F AND DUP3 ADD SWAP2 JUMPDEST POP POP POP POP POP DUP2 MSTORE PUSH1 0x20 ADD PUSH1 0x3 DUP3 ADD DUP1 SLOAD PUSH2 0x99B SWAP1 PUSH2 0x5B9E JUMP JUMPDEST DUP1 PUSH1 0x1F ADD PUSH1 0x20 DUP1 SWAP2 DIV MUL PUSH1 0x20 ADD PUSH1 0x40 MLOAD SWAP1 DUP2 ADD PUSH1 0x40 MSTORE DUP1 SWAP3 SWAP2 SWAP1 DUP2 DUP2 MSTORE PUSH1 0x20 ADD DUP3 DUP1 SLOAD PUSH2 0x9C7 SWAP1 PUSH2 0x5B9E JUMP JUMPDEST DUP1 ISZERO PUSH2 0xA14 JUMPI DUP1 PUSH1 0x1F LT PUSH2 0x9E9 JUMPI PUSH2 0x100 DUP1 DUP4 SLOAD DIV MUL DUP4 MSTORE SWAP2 PUSH1 0x20 ADD SWAP2 PUSH2 0xA14 JUMP JUMPDEST DUP3 ADD SWAP2 SWAP1 PUSH1 0x0 MSTORE PUSH1 0x20 PUSH1 0x0 KECCAK256 SWAP1 JUMPDEST DUP2 SLOAD DUP2 MSTORE SWAP1 PUSH1 0x1 ADD SWAP1 PUSH1 0x20 ADD DUP1 DUP4 GT PUSH2 0x9F7 JUMPI DUP3 SWAP1 SUB PUSH1 0x1F AND DUP3 ADD SWAP2 JUMPDEST POP POP POP POP POP DUP2 MSTORE PUSH1 0x20 ADD PUSH1 0x4 DUP3 ADD DUP1 SLOAD PUSH2 0xA2D SWAP1 PUSH2 0x5B9E JUMP JUMPDEST DUP1 PUSH1 0x1F ADD PUSH1 0x20 DUP1 SWAP2 DIV MUL PUSH1 0x20 ADD PUSH1 0x40 MLOAD SWAP1 DUP2 ADD PUSH1 0x40 MSTORE DUP1 SWAP3 SWAP2 SWAP1 DUP2 DUP2 MSTORE PUSH1 0x20 ADD DUP3 DUP1 SLOAD PUSH2 0xA59 SWAP1 PUSH2 0x5B9E JUMP JUMPDEST DUP1 ISZERO PUSH2 0xAA6 JUMPI DUP1 PUSH1 0x1F LT PUSH2 0xA7B JUMPI PUSH2 0x100 DUP1 DUP4 SLOAD DIV MUL DUP4 MSTORE SWAP2 PUSH1 0x20 ADD SWAP2 PUSH2 0xAA6 JUMP JUMPDEST DUP3 ADD SWAP2 SWAP1 PUSH1 0x0 MSTORE PUSH1 0x20 PUSH1 0x0 KECCAK256 SWAP1 JUMPDEST DUP2 SLOAD DUP2 MSTORE SWAP1 PUSH1 0x1 ADD SWAP1 PUSH1 0x20 ADD DUP1 DUP4 GT PUSH2 0xA89 JUMPI DUP3 SWAP1 SUB PUSH1 0x1F AND DUP3 ADD SWAP2 JUMPDEST POP POP POP SWAP2 DUP4 MSTORE POP POP PUSH1 0x5 DUP3 ADD SLOAD PUSH1 0x20 DUP3 ADD MSTORE PUSH1 0x6 DUP3 ADD SLOAD PUSH1 0x40 DUP3 ADD MSTORE PUSH1 0x7 DUP3 ADD SLOAD PUSH1 0x60 DUP3 ADD MSTORE PUSH1 0x8 DUP3 ADD SLOAD PUSH1 0x80 DUP3 ADD MSTORE PUSH1 0x9 DUP3 ADD SLOAD PUSH1 0xFF DUP1 DUP3 AND ISZERO ISZERO PUSH1 0xA0 DUP5 ADD MSTORE PUSH2 0x100 DUP1 DUP4 DIV DUP3 AND ISZERO ISZERO PUSH1 0xC0 DUP6 ADD MSTORE PUSH3 0x10000 SWAP1 SWAP3 DIV DUP2 AND ISZERO ISZERO PUSH1 0xE0 DUP5 ADD MSTORE PUSH1 0xA DUP5 ADD SLOAD DUP3 DUP5 ADD MSTORE PUSH1 0xB DUP5 ADD SLOAD DUP1 DUP3 AND ISZERO ISZERO PUSH2 0x120 DUP6 ADD MSTORE SWAP2 SWAP1 SWAP2 DIV AND ISZERO ISZERO PUSH2 0x140 DUP3 ADD MSTORE PUSH1 0xC DUP3 ADD SLOAD PUSH2 0x160 DUP3 ADD MSTORE PUSH1 0xD SWAP1 SWAP2 ADD SLOAD PUSH2 0x180 SWAP1 SWAP2 ADD MSTORE PUSH2 0x1E0 DUP2 ADD MLOAD SWAP1 SWAP2 POP DUP5 SWAP1 SUB PUSH2 0xB5B JUMPI SWAP4 SWAP3 POP POP POP JUMP JUMPDEST POP DUP1 PUSH2 0xB66 DUP2 PUSH2 0x5B85 JUMP JUMPDEST SWAP2 POP POP PUSH2 0x887 JUMP JUMPDEST POP PUSH2 0xB77 PUSH2 0x50B8 JUMP JUMPDEST PUSH1 0x1 PUSH2 0x120 DUP3 ADD MSTORE SWAP3 SWAP2 POP POP JUMP JUMPDEST PUSH1 0x60 PUSH1 0x0 DUP1 PUSH2 0xB93 DUP5 PUSH2 0x19E5 JUMP JUMPDEST SWAP1 POP PUSH1 0x0 DUP2 PUSH1 0x1 PUSH1 0x1 PUSH1 0x40 SHL SUB DUP2 GT ISZERO PUSH2 0xBAF JUMPI PUSH2 0xBAF PUSH2 0x520B JUMP JUMPDEST PUSH1 0x40 MLOAD SWAP1 DUP1 DUP3 MSTORE DUP1 PUSH1 0x20 MUL PUSH1 0x20 ADD DUP3 ADD PUSH1 0x40 MSTORE DUP1 ISZERO PUSH2 0xBE8 JUMPI DUP2 PUSH1 0x20 ADD JUMPDEST PUSH2 0xBD5 PUSH2 0x5070 JUMP JUMPDEST DUP2 MSTORE PUSH1 0x20 ADD SWAP1 PUSH1 0x1 SWAP1 SUB SWAP1 DUP2 PUSH2 0xBCD JUMPI SWAP1 POP JUMPDEST POP SWAP1 POP PUSH1 0x0 JUMPDEST DUP3 DUP2 LT ISZERO PUSH2 0xCC1 JUMPI PUSH1 0x0 PUSH1 0x2 DUP3 DUP2 SLOAD DUP2 LT PUSH2 0xC0B JUMPI PUSH2 0xC0B PUSH2 0x5B59 JUMP JUMPDEST PUSH1 0x0 SWAP2 DUP3 MSTORE PUSH1 0x20 SWAP2 DUP3 SWAP1 KECCAK256 PUSH1 0x40 DUP1 MLOAD PUSH1 0xE0 DUP2 ADD DUP3 MSTORE PUSH1 0x7 SWAP1 SWAP4 MUL SWAP1 SWAP2 ADD DUP1 SLOAD DUP4 MSTORE PUSH1 0x1 DUP2 ADD SLOAD SWAP4 DUP4 ADD DUP5 SWAP1 MSTORE PUSH1 0x2 DUP2 ADD SLOAD PUSH1 0x1 PUSH1 0x1 PUSH1 0xA0 SHL SUB AND SWAP2 DUP4 ADD SWAP2 SWAP1 SWAP2 MSTORE PUSH1 0x3 DUP2 ADD SLOAD PUSH1 0x60 DUP4 ADD MSTORE PUSH1 0x4 DUP2 ADD SLOAD PUSH1 0xFF AND ISZERO ISZERO PUSH1 0x80 DUP4 ADD MSTORE PUSH1 0x5 DUP2 ADD SLOAD PUSH1 0xA0 DUP4 ADD MSTORE PUSH1 0x6 ADD SLOAD PUSH1 0xC0 DUP3 ADD MSTORE SWAP2 POP DUP8 SWAP1 SUB PUSH2 0xCAE JUMPI DUP1 DUP4 DUP7 DUP2 MLOAD DUP2 LT PUSH2 0xC94 JUMPI PUSH2 0xC94 PUSH2 0x5B59 JUMP JUMPDEST PUSH1 0x20 MUL PUSH1 0x20 ADD ADD DUP2 SWAP1 MSTORE POP DUP5 DUP1 PUSH2 0xCAA SWAP1 PUSH2 0x5B85 JUMP JUMPDEST SWAP6 POP POP JUMPDEST POP DUP1 PUSH2 0xCB9 DUP2 PUSH2 0x5B85 JUMP JUMPDEST SWAP2 POP POP PUSH2 0xBEE JUMP JUMPDEST POP SWAP5 SWAP4 POP POP POP POP JUMP JUMPDEST PUSH1 0x0 DUP1 JUMPDEST PUSH1 0x3 SLOAD DUP2 LT ISZERO PUSH2 0xD76 JUMPI PUSH1 0x0 PUSH1 0x3 DUP3 DUP2 SLOAD DUP2 LT PUSH2 0xCED JUMPI PUSH2 0xCED PUSH2 0x5B59 JUMP JUMPDEST PUSH1 0x0 SWAP2 DUP3 MSTORE PUSH1 0x20 SWAP2 DUP3 SWAP1 KECCAK256 PUSH1 0x40 DUP1 MLOAD PUSH1 0xC0 DUP2 ADD DUP3 MSTORE PUSH1 0x6 SWAP1 SWAP4 MUL SWAP1 SWAP2 ADD DUP1 SLOAD DUP4 MSTORE PUSH1 0x1 DUP2 ADD SLOAD SWAP4 DUP4 ADD DUP5 SWAP1 MSTORE PUSH1 0x2 DUP2 ADD SLOAD PUSH1 0x1 PUSH1 0x1 PUSH1 0xA0 SHL SUB AND SWAP2 DUP4 ADD SWAP2 SWAP1 SWAP2 MSTORE PUSH1 0x3 DUP2 ADD SLOAD PUSH1 0x60 DUP4 ADD MSTORE PUSH1 0x4 DUP2 ADD SLOAD PUSH1 0x80 DUP4 ADD MSTORE PUSH1 0x5 ADD SLOAD PUSH1 0xFF AND ISZERO ISZERO PUSH1 0xA0 DUP3 ADD MSTORE SWAP2 POP DUP5 SWAP1 SUB PUSH2 0xD63 JUMPI POP PUSH1 0x1 SWAP4 SWAP3 POP POP POP JUMP JUMPDEST POP DUP1 PUSH2 0xD6E DUP2 PUSH2 0x5B85 JUMP JUMPDEST SWAP2 POP POP PUSH2 0xCCE JUMP JUMPDEST POP PUSH1 0x0 SWAP3 SWAP2 POP POP JUMP JUMPDEST PUSH1 0x60 PUSH1 0x0 PUSH2 0xD8C DUP4 PUSH2 0x3254 JUMP JUMPDEST PUSH1 0x1 PUSH1 0x1 PUSH1 0x40 SHL SUB DUP2 GT ISZERO PUSH2 0xDA3 JUMPI PUSH2 0xDA3 PUSH2 0x520B JUMP JUMPDEST PUSH1 0x40 MLOAD SWAP1 DUP1 DUP3 MSTORE DUP1 PUSH1 0x20 MUL PUSH1 0x20 ADD DUP3 ADD PUSH1 0x40 MSTORE DUP1 ISZERO PUSH2 0xDDC JUMPI DUP2 PUSH1 0x20 ADD JUMPDEST PUSH2 0xDC9 PUSH2 0x50B8 JUMP JUMPDEST DUP2 MSTORE PUSH1 0x20 ADD SWAP1 PUSH1 0x1 SWAP1 SUB SWAP1 DUP2 PUSH2 0xDC1 JUMPI SWAP1 POP JUMPDEST POP SWAP1 POP PUSH1 0x0 JUMPDEST PUSH1 0x1 SLOAD DUP2 LT ISZERO PUSH2 0x10ED JUMPI PUSH1 0x0 PUSH1 0x1 DUP3 DUP2 SLOAD DUP2 LT PUSH2 0xE01 JUMPI PUSH2 0xE01 PUSH2 0x5B59 JUMP JUMPDEST SWAP1 PUSH1 0x0 MSTORE PUSH1 0x20 PUSH1 0x0 KECCAK256 SWAP1 PUSH1 0xE MUL ADD PUSH1 0x40 MLOAD DUP1 PUSH2 0x220 ADD PUSH1 0x40 MSTORE SWAP1 DUP2 PUSH1 0x0 DUP3 ADD SLOAD DUP2 MSTORE PUSH1 0x20 ADD PUSH1 0x1 DUP3 ADD PUSH1 0x0 SWAP1 SLOAD SWAP1 PUSH2 0x100 EXP SWAP1 DIV PUSH1 0x1 PUSH1 0x1 PUSH1 0xA0 SHL SUB AND PUSH1 0x1 PUSH1 0x1 PUSH1 0xA0 SHL SUB AND PUSH1 0x1 PUSH1 0x1 PUSH1 0xA0 SHL SUB AND DUP2 MSTORE PUSH1 0x20 ADD PUSH1 0x2 DUP3 ADD DUP1 SLOAD PUSH2 0xE64 SWAP1 PUSH2 0x5B9E JUMP JUMPDEST DUP1 PUSH1 0x1F ADD PUSH1 0x20 DUP1 SWAP2 DIV MUL PUSH1 0x20 ADD PUSH1 0x40 MLOAD SWAP1 DUP2 ADD PUSH1 0x40 MSTORE DUP1 SWAP3 SWAP2 SWAP1 DUP2 DUP2 MSTORE PUSH1 0x20 ADD DUP3 DUP1 SLOAD PUSH2 0xE90 SWAP1 PUSH2 0x5B9E JUMP JUMPDEST DUP1 ISZERO PUSH2 0xEDD JUMPI DUP1 PUSH1 0x1F LT PUSH2 0xEB2 JUMPI PUSH2 0x100 DUP1 DUP4 SLOAD DIV MUL DUP4 MSTORE SWAP2 PUSH1 0x20 ADD SWAP2 PUSH2 0xEDD JUMP JUMPDEST DUP3 ADD SWAP2 SWAP1 PUSH1 0x0 MSTORE PUSH1 0x20 PUSH1 0x0 KECCAK256 SWAP1 JUMPDEST DUP2 SLOAD DUP2 MSTORE SWAP1 PUSH1 0x1 ADD SWAP1 PUSH1 0x20 ADD DUP1 DUP4 GT PUSH2 0xEC0 JUMPI DUP3 SWAP1 SUB PUSH1 0x1F AND DUP3 ADD SWAP2 JUMPDEST POP POP POP POP POP DUP2 MSTORE PUSH1 0x20 ADD PUSH1 0x3 DUP3 ADD DUP1 SLOAD PUSH2 0xEF6 SWAP1 PUSH2 0x5B9E JUMP JUMPDEST DUP1 PUSH1 0x1F ADD PUSH1 0x20 DUP1 SWAP2 DIV MUL PUSH1 0x20 ADD PUSH1 0x40 MLOAD SWAP1 DUP2 ADD PUSH1 0x40 MSTORE DUP1 SWAP3 SWAP2 SWAP1 DUP2 DUP2 MSTORE PUSH1 0x20 ADD DUP3 DUP1 SLOAD PUSH2 0xF22 SWAP1 PUSH2 0x5B9E JUMP JUMPDEST DUP1 ISZERO PUSH2 0xF6F JUMPI DUP1 PUSH1 0x1F LT PUSH2 0xF44 JUMPI PUSH2 0x100 DUP1 DUP4 SLOAD DIV MUL DUP4 MSTORE SWAP2 PUSH1 0x20 ADD SWAP2 PUSH2 0xF6F JUMP JUMPDEST DUP3 ADD SWAP2 SWAP1 PUSH1 0x0 MSTORE PUSH1 0x20 PUSH1 0x0 KECCAK256 SWAP1 JUMPDEST DUP2 SLOAD DUP2 MSTORE SWAP1 PUSH1 0x1 ADD SWAP1 PUSH1 0x20 ADD DUP1 DUP4 GT PUSH2 0xF52 JUMPI DUP3 SWAP1 SUB PUSH1 0x1F AND DUP3 ADD SWAP2 JUMPDEST POP POP POP POP POP DUP2 MSTORE PUSH1 0x20 ADD PUSH1 0x4 DUP3 ADD DUP1 SLOAD PUSH2 0xF88 SWAP1 PUSH2 0x5B9E JUMP JUMPDEST DUP1 PUSH1 0x1F ADD PUSH1 0x20 DUP1 SWAP2 DIV MUL PUSH1 0x20 ADD PUSH1 0x40 MLOAD SWAP1 DUP2 ADD PUSH1 0x40 MSTORE DUP1 SWAP3 SWAP2 SWAP1 DUP2 DUP2 MSTORE PUSH1 0x20 ADD DUP3 DUP1 SLOAD PUSH2 0xFB4 SWAP1 PUSH2 0x5B9E JUMP JUMPDEST DUP1 ISZERO PUSH2 0x1001 JUMPI DUP1 PUSH1 0x1F LT PUSH2 0xFD6 JUMPI PUSH2 0x100 DUP1 DUP4 SLOAD DIV MUL DUP4 MSTORE SWAP2 PUSH1 0x20 ADD SWAP2 PUSH2 0x1001 JUMP JUMPDEST DUP3 ADD SWAP2 SWAP1 PUSH1 0x0 MSTORE PUSH1 0x20 PUSH1 0x0 KECCAK256 SWAP1 JUMPDEST DUP2 SLOAD DUP2 MSTORE SWAP1 PUSH1 0x1 ADD SWAP1 PUSH1 0x20 ADD DUP1 DUP4 GT PUSH2 0xFE4 JUMPI DUP3 SWAP1 SUB PUSH1 0x1F AND DUP3 ADD SWAP2 JUMPDEST POP POP POP SWAP2 DUP4 MSTORE POP POP PUSH1 0x5 DUP3 ADD SLOAD PUSH1 0x20 DUP1 DUP4 ADD SWAP2 SWAP1 SWAP2 MSTORE PUSH1 0x6 DUP4 ADD SLOAD PUSH1 0x40 DUP4 ADD MSTORE PUSH1 0x7 DUP4 ADD SLOAD PUSH1 0x60 DUP4 ADD MSTORE PUSH1 0x8 DUP4 ADD SLOAD PUSH1 0x80 DUP4 ADD MSTORE PUSH1 0x9 DUP4 ADD SLOAD PUSH1 0xFF DUP1 DUP3 AND ISZERO ISZERO PUSH1 0xA0 DUP6 ADD MSTORE PUSH2 0x100 DUP1 DUP4 DIV DUP3 AND ISZERO ISZERO PUSH1 0xC0 DUP7 ADD MSTORE PUSH3 0x10000 SWAP1 SWAP3 DIV DUP2 AND ISZERO ISZERO PUSH1 0xE0 DUP6 ADD MSTORE PUSH1 0xA DUP6 ADD SLOAD DUP3 DUP6 ADD MSTORE PUSH1 0xB DUP6 ADD SLOAD DUP1 DUP3 AND ISZERO ISZERO PUSH2 0x120 DUP7 ADD MSTORE SWAP2 SWAP1 SWAP2 DIV AND ISZERO ISZERO PUSH2 0x140 DUP4 ADD MSTORE PUSH1 0xC DUP4 ADD SLOAD PUSH2 0x160 DUP4 ADD MSTORE PUSH1 0xD SWAP1 SWAP3 ADD SLOAD PUSH2 0x180 SWAP1 SWAP2 ADD MSTORE DUP2 ADD MLOAD SWAP1 SWAP2 POP PUSH1 0x1 PUSH1 0x1 PUSH1 0xA0 SHL SUB DUP1 DUP8 AND SWAP2 AND SUB PUSH2 0x10DA JUMPI DUP1 DUP4 DUP4 DUP2 MLOAD DUP2 LT PUSH2 0x10CE JUMPI PUSH2 0x10CE PUSH2 0x5B59 JUMP JUMPDEST PUSH1 0x20 MUL PUSH1 0x20 ADD ADD DUP2 SWAP1 MSTORE POP JUMPDEST POP DUP1 PUSH2 0x10E5 DUP2 PUSH2 0x5B85 JUMP JUMPDEST SWAP2 POP POP PUSH2 0xDE2 JUMP JUMPDEST POP SWAP3 SWAP2 POP POP JUMP JUMPDEST PUSH1 0x0 DUP1 DUP1 PUSH2 0x1101 DUP5 PUSH2 0xB85 JUMP JUMPDEST SWAP1 POP PUSH1 0x0 JUMPDEST DUP2 MLOAD DUP2 LT ISZERO PUSH2 0x1153 JUMPI PUSH1 0x0 DUP3 DUP3 DUP2 MLOAD DUP2 LT PUSH2 0x1123 JUMPI PUSH2 0x1123 PUSH2 0x5B59 JUMP JUMPDEST PUSH1 0x20 MUL PUSH1 0x20 ADD ADD MLOAD SWAP1 POP DUP1 PUSH1 0x60 ADD MLOAD DUP5 PUSH2 0x113D SWAP2 SWAP1 PUSH2 0x5BD2 JUMP JUMPDEST SWAP4 POP POP DUP1 DUP1 PUSH2 0x114B SWAP1 PUSH2 0x5B85 JUMP JUMPDEST SWAP2 POP POP PUSH2 0x1106 JUMP JUMPDEST POP SWAP1 SWAP4 SWAP3 POP POP POP JUMP JUMPDEST PUSH2 0x1164 PUSH2 0x50B8 JUMP JUMPDEST PUSH1 0x0 PUSH2 0x1175 PUSH3 0x186A0 PUSH1 0x1 DUP1 PUSH2 0x3E87 JUMP JUMPDEST SWAP1 POP PUSH2 0x1181 DUP4 DUP3 PUSH2 0x4068 JUMP JUMPDEST SWAP4 SWAP3 POP POP POP JUMP JUMPDEST PUSH1 0x0 PUSH2 0x11CB PUSH1 0x40 DUP1 MLOAD PUSH1 0xE0 DUP2 ADD SWAP1 SWAP2 MSTORE DUP1 PUSH1 0x0 DUP2 MSTORE PUSH1 0x20 ADD PUSH1 0x0 DUP2 MSTORE PUSH1 0x20 ADD PUSH1 0x0 DUP2 MSTORE PUSH1 0x20 ADD PUSH1 0x60 DUP2 MSTORE PUSH1 0x20 ADD PUSH1 0x60 DUP2 MSTORE PUSH1 0x20 ADD PUSH1 0x60 DUP2 MSTORE PUSH1 0x20 ADD PUSH1 0x60 DUP2 MSTORE POP SWAP1 JUMP JUMPDEST PUSH2 0x11D5 DUP2 DUP13 PUSH2 0x4206 JUMP JUMPDEST DUP10 MLOAD ISZERO PUSH2 0x11EB JUMPI PUSH2 0x11E6 DUP2 DUP12 PUSH2 0x4213 JUMP JUMPDEST PUSH2 0x1205 JUMP JUMPDEST PUSH1 0x1 PUSH1 0x1 PUSH1 0x40 SHL SUB DUP9 AND ISZERO PUSH2 0x1205 JUMPI PUSH2 0x1205 DUP2 DUP11 DUP11 PUSH2 0x4244 JUMP JUMPDEST DUP7 MLOAD ISZERO PUSH2 0x1216 JUMPI PUSH2 0x1216 DUP2 DUP9 PUSH2 0x42DA JUMP JUMPDEST DUP6 MLOAD ISZERO PUSH2 0x1227 JUMPI PUSH2 0x1227 DUP2 DUP8 PUSH2 0x4304 JUMP JUMPDEST PUSH1 0x0 PUSH2 0x123D PUSH2 0x1235 DUP4 PUSH2 0x432E JUMP JUMPDEST DUP8 DUP8 DUP8 PUSH2 0x4606 JUMP JUMPDEST SWAP13 SWAP12 POP POP POP POP POP POP POP POP POP POP POP POP JUMP JUMPDEST PUSH1 0x60 PUSH1 0x0 DUP1 PUSH2 0x125A PUSH2 0x3553 JUMP JUMPDEST PUSH1 0x1 PUSH1 0x1 PUSH1 0x40 SHL SUB DUP2 GT ISZERO PUSH2 0x1271 JUMPI PUSH2 0x1271 PUSH2 0x520B JUMP JUMPDEST PUSH1 0x40 MLOAD SWAP1 DUP1 DUP3 MSTORE DUP1 PUSH1 0x20 MUL PUSH1 0x20 ADD DUP3 ADD PUSH1 0x40 MSTORE DUP1 ISZERO PUSH2 0x12AA JUMPI DUP2 PUSH1 0x20 ADD JUMPDEST PUSH2 0x1297 PUSH2 0x50B8 JUMP JUMPDEST DUP2 MSTORE PUSH1 0x20 ADD SWAP1 PUSH1 0x1 SWAP1 SUB SWAP1 DUP2 PUSH2 0x128F JUMPI SWAP1 POP JUMPDEST POP SWAP1 POP PUSH1 0x0 JUMPDEST PUSH1 0x1 SLOAD DUP2 LT ISZERO PUSH2 0x10ED JUMPI PUSH1 0x0 PUSH1 0x1 DUP3 DUP2 SLOAD DUP2 LT PUSH2 0x12CF JUMPI PUSH2 0x12CF PUSH2 0x5B59 JUMP JUMPDEST SWAP1 PUSH1 0x0 MSTORE PUSH1 0x20 PUSH1 0x0 KECCAK256 SWAP1 PUSH1 0xE MUL ADD PUSH1 0x40 MLOAD DUP1 PUSH2 0x220 ADD PUSH1 0x40 MSTORE SWAP1 DUP2 PUSH1 0x0 DUP3 ADD SLOAD DUP2 MSTORE PUSH1 0x20 ADD PUSH1 0x1 DUP3 ADD PUSH1 0x0 SWAP1 SLOAD SWAP1 PUSH2 0x100 EXP SWAP1 DIV PUSH1 0x1 PUSH1 0x1 PUSH1 0xA0 SHL SUB AND PUSH1 0x1 PUSH1 0x1 PUSH1 0xA0 SHL SUB AND PUSH1 0x1 PUSH1 0x1 PUSH1 0xA0 SHL SUB AND DUP2 MSTORE PUSH1 0x20 ADD PUSH1 0x2 DUP3 ADD DUP1 SLOAD PUSH2 0x1332 SWAP1 PUSH2 0x5B9E JUMP JUMPDEST DUP1 PUSH1 0x1F ADD PUSH1 0x20 DUP1 SWAP2 DIV MUL PUSH1 0x20 ADD PUSH1 0x40 MLOAD SWAP1 DUP2 ADD PUSH1 0x40 MSTORE DUP1 SWAP3 SWAP2 SWAP1 DUP2 DUP2 MSTORE PUSH1 0x20 ADD DUP3 DUP1 SLOAD PUSH2 0x135E SWAP1 PUSH2 0x5B9E JUMP JUMPDEST DUP1 ISZERO PUSH2 0x13AB JUMPI DUP1 PUSH1 0x1F LT PUSH2 0x1380 JUMPI PUSH2 0x100 DUP1 DUP4 SLOAD DIV MUL DUP4 MSTORE SWAP2 PUSH1 0x20 ADD SWAP2 PUSH2 0x13AB JUMP JUMPDEST DUP3 ADD SWAP2 SWAP1 PUSH1 0x0 MSTORE PUSH1 0x20 PUSH1 0x0 KECCAK256 SWAP1 JUMPDEST DUP2 SLOAD DUP2 MSTORE SWAP1 PUSH1 0x1 ADD SWAP1 PUSH1 0x20 ADD DUP1 DUP4 GT PUSH2 0x138E JUMPI DUP3 SWAP1 SUB PUSH1 0x1F AND DUP3 ADD SWAP2 JUMPDEST POP POP POP POP POP DUP2 MSTORE PUSH1 0x20 ADD PUSH1 0x3 DUP3 ADD DUP1 SLOAD PUSH2 0x13C4 SWAP1 PUSH2 0x5B9E JUMP JUMPDEST DUP1 PUSH1 0x1F ADD PUSH1 0x20 DUP1 SWAP2 DIV MUL PUSH1 0x20 ADD PUSH1 0x40 MLOAD SWAP1 DUP2 ADD PUSH1 0x40 MSTORE DUP1 SWAP3 SWAP2 SWAP1 DUP2 DUP2 MSTORE PUSH1 0x20 ADD DUP3 DUP1 SLOAD PUSH2 0x13F0 SWAP1 PUSH2 0x5B9E JUMP JUMPDEST DUP1 ISZERO PUSH2 0x143D JUMPI DUP1 PUSH1 0x1F LT PUSH2 0x1412 JUMPI PUSH2 0x100 DUP1 DUP4 SLOAD DIV MUL DUP4 MSTORE SWAP2 PUSH1 0x20 ADD SWAP2 PUSH2 0x143D JUMP JUMPDEST DUP3 ADD SWAP2 SWAP1 PUSH1 0x0 MSTORE PUSH1 0x20 PUSH1 0x0 KECCAK256 SWAP1 JUMPDEST DUP2 SLOAD DUP2 MSTORE SWAP1 PUSH1 0x1 ADD SWAP1 PUSH1 0x20 ADD DUP1 DUP4 GT PUSH2 0x1420 JUMPI DUP3 SWAP1 SUB PUSH1 0x1F AND DUP3 ADD SWAP2 JUMPDEST POP POP POP POP POP DUP2 MSTORE PUSH1 0x20 ADD PUSH1 0x4 DUP3 ADD DUP1 SLOAD PUSH2 0x1456 SWAP1 PUSH2 0x5B9E JUMP JUMPDEST DUP1 PUSH1 0x1F ADD PUSH1 0x20 DUP1 SWAP2 DIV MUL PUSH1 0x20 ADD PUSH1 0x40 MLOAD SWAP1 DUP2 ADD PUSH1 0x40 MSTORE DUP1 SWAP3 SWAP2 SWAP1 DUP2 DUP2 MSTORE PUSH1 0x20 ADD DUP3 DUP1 SLOAD PUSH2 0x1482 SWAP1 PUSH2 0x5B9E JUMP JUMPDEST DUP1 ISZERO PUSH2 0x14CF JUMPI DUP1 PUSH1 0x1F LT PUSH2 0x14A4 JUMPI PUSH2 0x100 DUP1 DUP4 SLOAD DIV MUL DUP4 MSTORE SWAP2 PUSH1 0x20 ADD SWAP2 PUSH2 0x14CF JUMP JUMPDEST DUP3 ADD SWAP2 SWAP1 PUSH1 0x0 MSTORE PUSH1 0x20 PUSH1 0x0 KECCAK256 SWAP1 JUMPDEST DUP2 SLOAD DUP2 MSTORE SWAP1 PUSH1 0x1 ADD SWAP1 PUSH1 0x20 ADD DUP1 DUP4 GT PUSH2 0x14B2 JUMPI DUP3 SWAP1 SUB PUSH1 0x1F AND DUP3 ADD SWAP2 JUMPDEST POP POP POP SWAP2 DUP4 MSTORE POP POP PUSH1 0x5 DUP3 ADD SLOAD PUSH1 0x20 DUP3 ADD MSTORE PUSH1 0x6 DUP3 ADD SLOAD PUSH1 0x40 DUP3 ADD MSTORE PUSH1 0x7 DUP3 ADD SLOAD PUSH1 0x60 DUP3 ADD MSTORE PUSH1 0x8 DUP3 ADD SLOAD PUSH1 0x80 DUP3 ADD MSTORE PUSH1 0x9 DUP3 ADD SLOAD PUSH1 0xFF DUP1 DUP3 AND ISZERO ISZERO PUSH1 0xA0 DUP5 ADD MSTORE PUSH2 0x100 DUP1 DUP4 DIV DUP3 AND ISZERO ISZERO PUSH1 0xC0 DUP6 ADD MSTORE PUSH3 0x10000 SWAP1 SWAP3 DIV DUP2 AND ISZERO ISZERO PUSH1 0xE0 DUP5 ADD MSTORE PUSH1 0xA DUP5 ADD SLOAD DUP3 DUP5 ADD MSTORE PUSH1 0xB DUP5 ADD SLOAD DUP1 DUP3 AND ISZERO ISZERO PUSH2 0x120 DUP6 ADD MSTORE SWAP2 SWAP1 SWAP2 DIV AND ISZERO ISZERO PUSH2 0x140 DUP1 DUP4 ADD SWAP2 SWAP1 SWAP2 MSTORE PUSH1 0xC DUP4 ADD SLOAD PUSH2 0x160 DUP4 ADD MSTORE PUSH1 0xD SWAP1 SWAP3 ADD SLOAD PUSH2 0x180 SWAP1 SWAP2 ADD MSTORE DUP2 ADD MLOAD SWAP1 SWAP2 POP ISZERO PUSH2 0x15A9 JUMPI DUP1 DUP4 DUP6 DUP2 MLOAD DUP2 LT PUSH2 0x158F JUMPI PUSH2 0x158F PUSH2 0x5B59 JUMP JUMPDEST PUSH1 0x20 MUL PUSH1 0x20 ADD ADD DUP2 SWAP1 MSTORE POP DUP4 DUP1 PUSH2 0x15A5 SWAP1 PUSH2 0x5B85 JUMP JUMPDEST SWAP5 POP POP JUMPDEST POP DUP1 PUSH2 0x15B4 DUP2 PUSH2 0x5B85 JUMP JUMPDEST SWAP2 POP POP PUSH2 0x12B0 JUMP JUMPDEST PUSH1 0x0 DUP1 JUMPDEST PUSH1 0x2 SLOAD DUP2 LT ISZERO PUSH2 0xD76 JUMPI PUSH1 0x0 PUSH1 0x2 DUP3 DUP2 SLOAD DUP2 LT PUSH2 0x15DF JUMPI PUSH2 0x15DF PUSH2 0x5B59 JUMP JUMPDEST PUSH1 0x0 SWAP2 DUP3 MSTORE PUSH1 0x20 SWAP2 DUP3 SWAP1 KECCAK256 PUSH1 0x40 DUP1 MLOAD PUSH1 0xE0 DUP2 ADD DUP3 MSTORE PUSH1 0x7 SWAP1 SWAP4 MUL SWAP1 SWAP2 ADD DUP1 SLOAD DUP4 MSTORE PUSH1 0x1 DUP2 ADD SLOAD SWAP4 DUP4 ADD DUP5 SWAP1 MSTORE PUSH1 0x2 DUP2 ADD SLOAD PUSH1 0x1 PUSH1 0x1 PUSH1 0xA0 SHL SUB AND SWAP2 DUP4 ADD SWAP2 SWAP1 SWAP2 MSTORE PUSH1 0x3 DUP2 ADD SLOAD PUSH1 0x60 DUP4 ADD MSTORE PUSH1 0x4 DUP2 ADD SLOAD PUSH1 0xFF AND ISZERO ISZERO PUSH1 0x80 DUP4 ADD MSTORE PUSH1 0x5 DUP2 ADD SLOAD PUSH1 0xA0 DUP4 ADD MSTORE PUSH1 0x6 ADD SLOAD PUSH1 0xC0 DUP3 ADD MSTORE SWAP2 POP DUP5 EQ DUP1 ISZERO PUSH2 0x1668 JUMPI POP PUSH1 0x40 DUP2 ADD MLOAD PUSH1 0x1 PUSH1 0x1 PUSH1 0xA0 SHL SUB AND CALLER EQ JUMPDEST ISZERO PUSH2 0x1677 JUMPI POP PUSH1 0x1 SWAP4 SWAP3 POP POP POP JUMP JUMPDEST POP DUP1 PUSH2 0x1682 DUP2 PUSH2 0x5B85 JUMP JUMPDEST SWAP2 POP POP PUSH2 0x15C0 JUMP JUMPDEST PUSH2 0x1692 PUSH2 0x514F JUMP JUMPDEST PUSH1 0x3 DUP3 DUP2 SLOAD DUP2 LT PUSH2 0x16A5 JUMPI PUSH2 0x16A5 PUSH2 0x5B59 JUMP JUMPDEST PUSH1 0x0 SWAP2 DUP3 MSTORE PUSH1 0x20 SWAP2 DUP3 SWAP1 KECCAK256 PUSH1 0x40 DUP1 MLOAD PUSH1 0xC0 DUP2 ADD DUP3 MSTORE PUSH1 0x6 SWAP1 SWAP4 MUL SWAP1 SWAP2 ADD DUP1 SLOAD DUP4 MSTORE PUSH1 0x1 DUP2 ADD SLOAD SWAP4 DUP4 ADD SWAP4 SWAP1 SWAP4 MSTORE PUSH1 0x2 DUP4 ADD SLOAD PUSH1 0x1 PUSH1 0x1 PUSH1 0xA0 SHL SUB AND SWAP1 DUP3 ADD MSTORE PUSH1 0x3 DUP3 ADD SLOAD PUSH1 0x60 DUP3 ADD MSTORE PUSH1 0x4 DUP3 ADD SLOAD PUSH1 0x80 DUP3 ADD MSTORE PUSH1 0x5 SWAP1 SWAP2 ADD SLOAD PUSH1 0xFF AND ISZERO ISZERO PUSH1 0xA0 DUP3 ADD MSTORE SWAP3 SWAP2 POP POP JUMP JUMPDEST PUSH1 0x0 DUP1 DUP1 JUMPDEST PUSH1 0x2 SLOAD DUP2 LT ISZERO PUSH2 0x10ED JUMPI PUSH1 0x0 PUSH1 0x2 DUP3 DUP2 SLOAD DUP2 LT PUSH2 0x1732 JUMPI PUSH2 0x1732 PUSH2 0x5B59 JUMP JUMPDEST PUSH1 0x0 SWAP2 DUP3 MSTORE PUSH1 0x20 SWAP2 DUP3 SWAP1 KECCAK256 PUSH1 0x40 DUP1 MLOAD PUSH1 0xE0 DUP2 ADD DUP3 MSTORE PUSH1 0x7 SWAP1 SWAP4 MUL SWAP1 SWAP2 ADD DUP1 SLOAD DUP4 MSTORE PUSH1 0x1 DUP2 ADD SLOAD SWAP4 DUP4 ADD SWAP4 SWAP1 SWAP4 MSTORE PUSH1 0x2 DUP4 ADD SLOAD PUSH1 0x1 PUSH1 0x1 PUSH1 0xA0 SHL SUB SWAP1 DUP2 AND SWAP2 DUP4 ADD DUP3 SWAP1 MSTORE PUSH1 0x3 DUP5 ADD SLOAD PUSH1 0x60 DUP5 ADD MSTORE PUSH1 0x4 DUP5 ADD SLOAD PUSH1 0xFF AND ISZERO ISZERO PUSH1 0x80 DUP5 ADD MSTORE PUSH1 0x5 DUP5 ADD SLOAD PUSH1 0xA0 DUP5 ADD MSTORE PUSH1 0x6 SWAP1 SWAP4 ADD SLOAD PUSH1 0xC0 DUP4 ADD MSTORE SWAP1 SWAP3 POP SWAP1 DUP7 AND SWAP1 SUB PUSH2 0x17BD JUMPI DUP3 PUSH2 0x17B9 DUP2 PUSH2 0x5B85 JUMP JUMPDEST SWAP4 POP POP JUMPDEST POP DUP1 PUSH2 0x17C8 DUP2 PUSH2 0x5B85 JUMP JUMPDEST SWAP2 POP POP PUSH2 0x1713 JUMP JUMPDEST PUSH2 0x17D8 PUSH2 0x5190 JUMP JUMPDEST PUSH1 0x0 JUMPDEST PUSH1 0x0 SLOAD DUP2 LT ISZERO PUSH2 0x19CF JUMPI PUSH1 0x0 DUP1 DUP3 DUP2 SLOAD DUP2 LT PUSH2 0x17F9 JUMPI PUSH2 0x17F9 PUSH2 0x5B59 JUMP JUMPDEST SWAP1 PUSH1 0x0 MSTORE PUSH1 0x20 PUSH1 0x0 KECCAK256 SWAP1 PUSH1 0x6 MUL ADD PUSH1 0x40 MLOAD DUP1 PUSH2 0x100 ADD PUSH1 0x40 MSTORE SWAP1 DUP2 PUSH1 0x0 DUP3 ADD SLOAD DUP2 MSTORE PUSH1 0x20 ADD PUSH1 0x1 DUP3 ADD PUSH1 0x0 SWAP1 SLOAD SWAP1 PUSH2 0x100 EXP SWAP1 DIV PUSH1 0x1 PUSH1 0x1 PUSH1 0xA0 SHL SUB AND PUSH1 0x1 PUSH1 0x1 PUSH1 0xA0 SHL SUB AND PUSH1 0x1 PUSH1 0x1 PUSH1 0xA0 SHL SUB AND DUP2 MSTORE PUSH1 0x20 ADD PUSH1 0x2 DUP3 ADD DUP1 SLOAD PUSH2 0x185C SWAP1 PUSH2 0x5B9E JUMP JUMPDEST DUP1 PUSH1 0x1F ADD PUSH1 0x20 DUP1 SWAP2 DIV MUL PUSH1 0x20 ADD PUSH1 0x40 MLOAD SWAP1 DUP2 ADD PUSH1 0x40 MSTORE DUP1 SWAP3 SWAP2 SWAP1 DUP2 DUP2 MSTORE PUSH1 0x20 ADD DUP3 DUP1 SLOAD PUSH2 0x1888 SWAP1 PUSH2 0x5B9E JUMP JUMPDEST DUP1 ISZERO PUSH2 0x18D5 JUMPI DUP1 PUSH1 0x1F LT PUSH2 0x18AA JUMPI PUSH2 0x100 DUP1 DUP4 SLOAD DIV MUL DUP4 MSTORE SWAP2 PUSH1 0x20 ADD SWAP2 PUSH2 0x18D5 JUMP JUMPDEST DUP3 ADD SWAP2 SWAP1 PUSH1 0x0 MSTORE PUSH1 0x20 PUSH1 0x0 KECCAK256 SWAP1 JUMPDEST DUP2 SLOAD DUP2 MSTORE SWAP1 PUSH1 0x1 ADD SWAP1 PUSH1 0x20 ADD DUP1 DUP4 GT PUSH2 0x18B8 JUMPI DUP3 SWAP1 SUB PUSH1 0x1F AND DUP3 ADD SWAP2 JUMPDEST POP POP POP POP POP DUP2 MSTORE PUSH1 0x20 ADD PUSH1 0x3 DUP3 ADD DUP1 SLOAD PUSH2 0x18EE SWAP1 PUSH2 0x5B9E JUMP JUMPDEST DUP1 PUSH1 0x1F ADD PUSH1 0x20 DUP1 SWAP2 DIV MUL PUSH1 0x20 ADD PUSH1 0x40 MLOAD SWAP1 DUP2 ADD PUSH1 0x40 MSTORE DUP1 SWAP3 SWAP2 SWAP1 DUP2 DUP2 MSTORE PUSH1 0x20 ADD DUP3 DUP1 SLOAD PUSH2 0x191A SWAP1 PUSH2 0x5B9E JUMP JUMPDEST DUP1 ISZERO PUSH2 0x1967 JUMPI DUP1 PUSH1 0x1F LT PUSH2 0x193C JUMPI PUSH2 0x100 DUP1 DUP4 SLOAD DIV MUL DUP4 MSTORE SWAP2 PUSH1 0x20 ADD SWAP2 PUSH2 0x1967 JUMP JUMPDEST DUP3 ADD SWAP2 SWAP1 PUSH1 0x0 MSTORE PUSH1 0x20 PUSH1 0x0 KECCAK256 SWAP1 JUMPDEST DUP2 SLOAD DUP2 MSTORE SWAP1 PUSH1 0x1 ADD SWAP1 PUSH1 0x20 ADD DUP1 DUP4 GT PUSH2 0x194A JUMPI DUP3 SWAP1 SUB PUSH1 0x1F AND DUP3 ADD SWAP2 JUMPDEST POP POP POP SWAP2 DUP4 MSTORE POP POP PUSH1 0x4 DUP3 ADD SLOAD PUSH1 0xFF DUP1 DUP3 AND ISZERO ISZERO PUSH1 0x20 DUP5 ADD MSTORE PUSH2 0x100 DUP3 DIV DUP2 AND ISZERO ISZERO PUSH1 0x40 DUP5 ADD MSTORE PUSH3 0x10000 SWAP1 SWAP2 DIV AND ISZERO ISZERO PUSH1 0x60 DUP3 ADD MSTORE PUSH1 0x5 SWAP1 SWAP2 ADD SLOAD PUSH1 0x80 SWAP1 SWAP2 ADD MSTORE DUP1 MLOAD SWAP1 SWAP2 POP DUP5 SWAP1 SUB PUSH2 0x19BC JUMPI SWAP4 SWAP3 POP POP POP JUMP JUMPDEST POP DUP1 PUSH2 0x19C7 DUP2 PUSH2 0x5B85 JUMP JUMPDEST SWAP2 POP POP PUSH2 0x17DB JUMP JUMPDEST POP PUSH2 0x19D8 PUSH2 0x5190 JUMP JUMPDEST PUSH1 0x1 PUSH1 0xA0 DUP3 ADD MSTORE SWAP3 SWAP2 POP POP JUMP JUMPDEST PUSH1 0x0 DUP1 DUP1 JUMPDEST PUSH1 0x2 SLOAD DUP2 LT ISZERO PUSH2 0x10ED JUMPI PUSH1 0x0 PUSH1 0x2 DUP3 DUP2 SLOAD DUP2 LT PUSH2 0x1A09 JUMPI PUSH2 0x1A09 PUSH2 0x5B59 JUMP JUMPDEST PUSH1 0x0 SWAP2 DUP3 MSTORE PUSH1 0x20 SWAP2 DUP3 SWAP1 KECCAK256 PUSH1 0x40 DUP1 MLOAD PUSH1 0xE0 DUP2 ADD DUP3 MSTORE PUSH1 0x7 SWAP1 SWAP4 MUL SWAP1 SWAP2 ADD DUP1 SLOAD DUP4 MSTORE PUSH1 0x1 DUP2 ADD SLOAD SWAP4 DUP4 ADD DUP5 SWAP1 MSTORE PUSH1 0x2 DUP2 ADD SLOAD PUSH1 0x1 PUSH1 0x1 PUSH1 0xA0 SHL SUB AND SWAP2 DUP4 ADD SWAP2 SWAP1 SWAP2 MSTORE PUSH1 0x3 DUP2 ADD SLOAD PUSH1 0x60 DUP4 ADD MSTORE PUSH1 0x4 DUP2 ADD SLOAD PUSH1 0xFF AND ISZERO ISZERO PUSH1 0x80 DUP4 ADD MSTORE PUSH1 0x5 DUP2 ADD SLOAD PUSH1 0xA0 DUP4 ADD MSTORE PUSH1 0x6 ADD SLOAD PUSH1 0xC0 DUP3 ADD MSTORE SWAP2 POP DUP6 SWAP1 SUB PUSH2 0x1A8D JUMPI DUP3 PUSH2 0x1A89 DUP2 PUSH2 0x5B85 JUMP JUMPDEST SWAP4 POP POP JUMPDEST POP DUP1 PUSH2 0x1A98 DUP2 PUSH2 0x5B85 JUMP JUMPDEST SWAP2 POP POP PUSH2 0x19EA JUMP JUMPDEST PUSH2 0x1AA8 PUSH2 0x5070 JUMP JUMPDEST PUSH1 0x0 PUSH2 0x1AB9 PUSH3 0x186A0 PUSH1 0x1 DUP1 PUSH2 0x3E87 JUMP JUMPDEST SWAP1 POP PUSH2 0x1181 DUP4 DUP3 PUSH2 0x46D8 JUMP JUMPDEST PUSH1 0x0 DUP1 DUP1 JUMPDEST PUSH1 0x2 SLOAD DUP2 LT ISZERO PUSH2 0x10ED JUMPI PUSH1 0x0 PUSH1 0x2 DUP3 DUP2 SLOAD DUP2 LT PUSH2 0x1AE9 JUMPI PUSH2 0x1AE9 PUSH2 0x5B59 JUMP JUMPDEST PUSH1 0x0 SWAP2 DUP3 MSTORE PUSH1 0x20 SWAP2 DUP3 SWAP1 KECCAK256 PUSH1 0x40 DUP1 MLOAD PUSH1 0xE0 DUP2 ADD DUP3 MSTORE PUSH1 0x7 SWAP1 SWAP4 MUL SWAP1 SWAP2 ADD DUP1 SLOAD DUP4 MSTORE PUSH1 0x1 DUP2 ADD SLOAD SWAP4 DUP4 ADD DUP5 SWAP1 MSTORE PUSH1 0x2 DUP2 ADD SLOAD PUSH1 0x1 PUSH1 0x1 PUSH1 0xA0 SHL SUB AND SWAP2 DUP4 ADD SWAP2 SWAP1 SWAP2 MSTORE PUSH1 0x3 DUP2 ADD SLOAD PUSH1 0x60 DUP4 ADD MSTORE PUSH1 0x4 DUP2 ADD SLOAD PUSH1 0xFF AND ISZERO ISZERO PUSH1 0x80 DUP4 ADD MSTORE PUSH1 0x5 DUP2 ADD SLOAD PUSH1 0xA0 DUP4 ADD MSTORE PUSH1 0x6 ADD SLOAD PUSH1 0xC0 DUP3 ADD MSTORE SWAP2 POP DUP6 SWAP1 SUB PUSH2 0x1B6D JUMPI DUP3 PUSH2 0x1B69 DUP2 PUSH2 0x5B85 JUMP JUMPDEST SWAP4 POP POP JUMPDEST POP DUP1 PUSH2 0x1B78 DUP2 PUSH2 0x5B85 JUMP JUMPDEST SWAP2 POP POP PUSH2 0x1ACA JUMP JUMPDEST PUSH2 0x1B88 PUSH2 0x5190 JUMP JUMPDEST PUSH1 0x6 DUP1 SLOAD PUSH1 0x40 DUP1 MLOAD PUSH2 0x100 DUP2 ADD DUP3 MSTORE DUP3 DUP2 MSTORE CALLER PUSH1 0x20 DUP3 ADD SWAP1 DUP2 MSTORE SWAP2 DUP2 ADD DUP8 DUP2 MSTORE PUSH1 0x60 DUP3 ADD DUP8 SWAP1 MSTORE PUSH1 0x0 PUSH1 0x80 DUP4 ADD DUP2 SWAP1 MSTORE PUSH1 0xA0 DUP4 ADD DUP2 SWAP1 MSTORE PUSH1 0xC0 DUP4 ADD DUP2 SWAP1 MSTORE PUSH1 0xE0 DUP4 ADD DUP2 SWAP1 MSTORE DUP1 SLOAD PUSH1 0x1 DUP2 ADD DUP3 SSTORE SWAP1 DUP1 MSTORE DUP3 MLOAD SWAP6 MUL PUSH32 0x290DECD9548B62A8D60345A988386FC84BA6BC95484008F6362F93160EF3E563 DUP2 ADD SWAP6 DUP7 SSTORE SWAP3 MLOAD PUSH32 0x290DECD9548B62A8D60345A988386FC84BA6BC95484008F6362F93160EF3E564 DUP5 ADD DUP1 SLOAD PUSH1 0x1 PUSH1 0x1 PUSH1 0xA0 SHL SUB SWAP3 SWAP1 SWAP3 AND PUSH1 0x1 PUSH1 0x1 PUSH1 0xA0 SHL SUB NOT SWAP1 SWAP3 AND SWAP2 SWAP1 SWAP2 OR SWAP1 SSTORE MLOAD SWAP3 SWAP4 SWAP1 SWAP3 SWAP1 SWAP2 PUSH32 0x290DECD9548B62A8D60345A988386FC84BA6BC95484008F6362F93160EF3E565 ADD SWAP1 PUSH2 0x1C7B SWAP1 DUP3 PUSH2 0x5C33 JUMP JUMPDEST POP PUSH1 0x60 DUP3 ADD MLOAD PUSH1 0x3 DUP3 ADD SWAP1 PUSH2 0x1C90 SWAP1 DUP3 PUSH2 0x5C33 JUMP JUMPDEST POP PUSH1 0x80 DUP3 ADD MLOAD PUSH1 0x4 DUP3 ADD DUP1 SLOAD PUSH1 0xA0 DUP6 ADD MLOAD PUSH1 0xC0 DUP7 ADD MLOAD ISZERO ISZERO PUSH3 0x10000 MUL PUSH3 0xFF0000 NOT SWAP2 ISZERO ISZERO PUSH2 0x100 MUL PUSH2 0xFF00 NOT SWAP6 ISZERO ISZERO SWAP6 SWAP1 SWAP6 AND PUSH2 0xFFFF NOT SWAP1 SWAP4 AND SWAP3 SWAP1 SWAP3 OR SWAP4 SWAP1 SWAP4 OR SWAP3 SWAP1 SWAP3 AND SWAP2 SWAP1 SWAP2 OR SWAP1 SSTORE PUSH1 0xE0 SWAP1 SWAP2 ADD MLOAD PUSH1 0x5 SWAP1 SWAP2 ADD SSTORE PUSH1 0x6 DUP1 SLOAD SWAP1 PUSH1 0x0 PUSH2 0x1CF9 DUP4 PUSH2 0x5B85 JUMP JUMPDEST SWAP2 SWAP1 POP SSTORE POP PUSH1 0x0 PUSH2 0x1D09 DUP3 PUSH2 0x17D0 JUMP JUMPDEST SWAP3 POP POP POP JUMPDEST SWAP3 SWAP2 POP POP JUMP JUMPDEST PUSH2 0x1D1C PUSH2 0x514F JUMP JUMPDEST PUSH1 0x0 PUSH1 0x1 DUP4 DUP2 SLOAD DUP2 LT PUSH2 0x1D31 JUMPI PUSH2 0x1D31 PUSH2 0x5B59 JUMP JUMPDEST SWAP1 PUSH1 0x0 MSTORE PUSH1 0x20 PUSH1 0x0 KECCAK256 SWAP1 PUSH1 0xE MUL ADD PUSH1 0x40 MLOAD DUP1 PUSH2 0x220 ADD PUSH1 0x40 MSTORE SWAP1 DUP2 PUSH1 0x0 DUP3 ADD SLOAD DUP2 MSTORE PUSH1 0x20 ADD PUSH1 0x1 DUP3 ADD PUSH1 0x0 SWAP1 SLOAD SWAP1 PUSH2 0x100 EXP SWAP1 DIV PUSH1 0x1 PUSH1 0x1 PUSH1 0xA0 SHL SUB AND PUSH1 0x1 PUSH1 0x1 PUSH1 0xA0 SHL SUB AND PUSH1 0x1 PUSH1 0x1 PUSH1 0xA0 SHL SUB AND DUP2 MSTORE PUSH1 0x20 ADD PUSH1 0x2 DUP3 ADD DUP1 SLOAD PUSH2 0x1D94 SWAP1 PUSH2 0x5B9E JUMP JUMPDEST DUP1 PUSH1 0x1F ADD PUSH1 0x20 DUP1 SWAP2 DIV MUL PUSH1 0x20 ADD PUSH1 0x40 MLOAD SWAP1 DUP2 ADD PUSH1 0x40 MSTORE DUP1 SWAP3 SWAP2 SWAP1 DUP2 DUP2 MSTORE PUSH1 0x20 ADD DUP3 DUP1 SLOAD PUSH2 0x1DC0 SWAP1 PUSH2 0x5B9E JUMP JUMPDEST DUP1 ISZERO PUSH2 0x1E0D JUMPI DUP1 PUSH1 0x1F LT PUSH2 0x1DE2 JUMPI PUSH2 0x100 DUP1 DUP4 SLOAD DIV MUL DUP4 MSTORE SWAP2 PUSH1 0x20 ADD SWAP2 PUSH2 0x1E0D JUMP JUMPDEST DUP3 ADD SWAP2 SWAP1 PUSH1 0x0 MSTORE PUSH1 0x20 PUSH1 0x0 KECCAK256 SWAP1 JUMPDEST DUP2 SLOAD DUP2 MSTORE SWAP1 PUSH1 0x1 ADD SWAP1 PUSH1 0x20 ADD DUP1 DUP4 GT PUSH2 0x1DF0 JUMPI DUP3 SWAP1 SUB PUSH1 0x1F AND DUP3 ADD SWAP2 JUMPDEST POP POP POP POP POP DUP2 MSTORE PUSH1 0x20 ADD PUSH1 0x3 DUP3 ADD DUP1 SLOAD PUSH2 0x1E26 SWAP1 PUSH2 0x5B9E JUMP JUMPDEST DUP1 PUSH1 0x1F ADD PUSH1 0x20 DUP1 SWAP2 DIV MUL PUSH1 0x20 ADD PUSH1 0x40 MLOAD SWAP1 DUP2 ADD PUSH1 0x40 MSTORE DUP1 SWAP3 SWAP2 SWAP1 DUP2 DUP2 MSTORE PUSH1 0x20 ADD DUP3 DUP1 SLOAD PUSH2 0x1E52 SWAP1 PUSH2 0x5B9E JUMP JUMPDEST DUP1 ISZERO PUSH2 0x1E9F JUMPI DUP1 PUSH1 0x1F LT PUSH2 0x1E74 JUMPI PUSH2 0x100 DUP1 DUP4 SLOAD DIV MUL DUP4 MSTORE SWAP2 PUSH1 0x20 ADD SWAP2 PUSH2 0x1E9F JUMP JUMPDEST DUP3 ADD SWAP2 SWAP1 PUSH1 0x0 MSTORE PUSH1 0x20 PUSH1 0x0 KECCAK256 SWAP1 JUMPDEST DUP2 SLOAD DUP2 MSTORE SWAP1 PUSH1 0x1 ADD SWAP1 PUSH1 0x20 ADD DUP1 DUP4 GT PUSH2 0x1E82 JUMPI DUP3 SWAP1 SUB PUSH1 0x1F AND DUP3 ADD SWAP2 JUMPDEST POP POP POP POP POP DUP2 MSTORE PUSH1 0x20 ADD PUSH1 0x4 DUP3 ADD DUP1 SLOAD PUSH2 0x1EB8 SWAP1 PUSH2 0x5B9E JUMP JUMPDEST DUP1 PUSH1 0x1F ADD PUSH1 0x20 DUP1 SWAP2 DIV MUL PUSH1 0x20 ADD PUSH1 0x40 MLOAD SWAP1 DUP2 ADD PUSH1 0x40 MSTORE DUP1 SWAP3 SWAP2 SWAP1 DUP2 DUP2 MSTORE PUSH1 0x20 ADD DUP3 DUP1 SLOAD PUSH2 0x1EE4 SWAP1 PUSH2 0x5B9E JUMP JUMPDEST DUP1 ISZERO PUSH2 0x1F31 JUMPI DUP1 PUSH1 0x1F LT PUSH2 0x1F06 JUMPI PUSH2 0x100 DUP1 DUP4 SLOAD DIV MUL DUP4 MSTORE SWAP2 PUSH1 0x20 ADD SWAP2 PUSH2 0x1F31 JUMP JUMPDEST DUP3 ADD SWAP2 SWAP1 PUSH1 0x0 MSTORE PUSH1 0x20 PUSH1 0x0 KECCAK256 SWAP1 JUMPDEST DUP2 SLOAD DUP2 MSTORE SWAP1 PUSH1 0x1 ADD SWAP1 PUSH1 0x20 ADD DUP1 DUP4 GT PUSH2 0x1F14 JUMPI DUP3 SWAP1 SUB PUSH1 0x1F AND DUP3 ADD SWAP2 JUMPDEST POP POP POP SWAP2 DUP4 MSTORE POP POP PUSH1 0x5 DUP3 ADD SLOAD PUSH1 0x20 DUP3 ADD MSTORE PUSH1 0x6 DUP3 ADD SLOAD PUSH1 0x40 DUP3 ADD MSTORE PUSH1 0x7 DUP3 ADD SLOAD PUSH1 0x60 DUP3 ADD MSTORE PUSH1 0x8 DUP3 ADD SLOAD PUSH1 0x80 DUP3 ADD MSTORE PUSH1 0x9 DUP3 ADD SLOAD PUSH1 0xFF DUP1 DUP3 AND ISZERO ISZERO PUSH1 0xA0 DUP5 ADD MSTORE PUSH2 0x100 DUP1 DUP4 DIV DUP3 AND ISZERO ISZERO PUSH1 0xC0 DUP6 ADD MSTORE PUSH3 0x10000 SWAP1 SWAP3 DIV DUP2 AND ISZERO ISZERO PUSH1 0xE0 DUP5 ADD MSTORE PUSH1 0xA DUP5 ADD SLOAD DUP3 DUP5 ADD MSTORE PUSH1 0xB DUP5 ADD SLOAD DUP1 DUP3 AND ISZERO ISZERO PUSH2 0x120 DUP6 ADD MSTORE SWAP2 SWAP1 SWAP2 DIV AND ISZERO ISZERO PUSH2 0x140 DUP3 ADD MSTORE PUSH1 0xC DUP3 ADD SLOAD PUSH2 0x160 DUP3 ADD MSTORE PUSH1 0xD SWAP1 SWAP2 ADD SLOAD PUSH2 0x180 SWAP1 SWAP2 ADD MSTORE SWAP1 POP PUSH1 0x0 PUSH2 0x1FDC DUP5 PUSH2 0xCCA JUMP JUMPDEST SWAP1 POP PUSH2 0x1FE6 PUSH2 0x514F JUMP JUMPDEST PUSH1 0x1 PUSH1 0xA0 DUP3 ADD MSTORE DUP2 ISZERO PUSH2 0x1FFB JUMPI SWAP5 SWAP4 POP POP POP POP JUMP JUMPDEST PUSH1 0x0 DUP1 PUSH2 0x2007 DUP8 PUSH2 0x10F4 JUMP JUMPDEST SWAP1 POP PUSH1 0x64 PUSH2 0x2016 DUP3 PUSH1 0x50 PUSH2 0x5CF2 JUMP JUMPDEST PUSH2 0x2020 SWAP2 SWAP1 PUSH2 0x5D1F JUMP JUMPDEST PUSH2 0x202A SWAP1 DUP4 PUSH2 0x5BD2 JUMP JUMPDEST SWAP2 POP DUP5 PUSH2 0x160 ADD MLOAD ISZERO PUSH2 0x204A JUMPI PUSH2 0x180 DUP6 ADD MLOAD PUSH2 0x2047 SWAP1 DUP4 PUSH2 0x5BD2 JUMP JUMPDEST SWAP2 POP JUMPDEST PUSH1 0xB SLOAD PUSH1 0x20 DUP7 ADD MLOAD PUSH1 0x40 MLOAD PUSH4 0xA9059CBB PUSH1 0xE0 SHL DUP2 MSTORE PUSH1 0x1 PUSH1 0x1 PUSH1 0xA0 SHL SUB SWAP2 DUP3 AND PUSH1 0x4 DUP3 ADD MSTORE PUSH1 0x24 DUP2 ADD DUP6 SWAP1 MSTORE PUSH1 0x0 SWAP3 SWAP2 SWAP1 SWAP2 AND SWAP1 PUSH4 0xA9059CBB SWAP1 PUSH1 0x44 ADD PUSH1 0x20 PUSH1 0x40 MLOAD DUP1 DUP4 SUB DUP2 PUSH1 0x0 DUP8 GAS CALL ISZERO DUP1 ISZERO PUSH2 0x20A6 JUMPI RETURNDATASIZE PUSH1 0x0 DUP1 RETURNDATACOPY RETURNDATASIZE PUSH1 0x0 REVERT JUMPDEST POP POP POP POP PUSH1 0x40 MLOAD RETURNDATASIZE PUSH1 0x1F NOT PUSH1 0x1F DUP3 ADD AND DUP3 ADD DUP1 PUSH1 0x40 MSTORE POP DUP2 ADD SWAP1 PUSH2 0x20CA SWAP2 SWAP1 PUSH2 0x5D33 JUMP JUMPDEST SWAP1 POP DUP1 ISZERO PUSH2 0x22F1 JUMPI PUSH1 0x0 PUSH1 0x64 PUSH2 0x20E1 DUP5 PUSH1 0x14 PUSH2 0x5CF2 JUMP JUMPDEST PUSH2 0x20EB SWAP2 SWAP1 PUSH2 0x5D1F JUMP JUMPDEST PUSH1 0xB SLOAD PUSH1 0x4 DUP1 SLOAD PUSH1 0x40 MLOAD PUSH4 0xA9059CBB PUSH1 0xE0 SHL DUP2 MSTORE PUSH1 0x1 PUSH1 0x1 PUSH1 0xA0 SHL SUB SWAP2 DUP3 AND SWAP3 DUP2 ADD SWAP3 SWAP1 SWAP3 MSTORE PUSH1 0x24 DUP3 ADD DUP5 SWAP1 MSTORE SWAP3 SWAP4 POP PUSH1 0x0 SWAP3 SWAP1 SWAP2 AND SWAP1 PUSH4 0xA9059CBB SWAP1 PUSH1 0x44 ADD PUSH1 0x20 PUSH1 0x40 MLOAD DUP1 DUP4 SUB DUP2 PUSH1 0x0 DUP8 GAS CALL ISZERO DUP1 ISZERO PUSH2 0x214A JUMPI RETURNDATASIZE PUSH1 0x0 DUP1 RETURNDATACOPY RETURNDATASIZE PUSH1 0x0 REVERT JUMPDEST POP POP POP POP PUSH1 0x40 MLOAD RETURNDATASIZE PUSH1 0x1F NOT PUSH1 0x1F DUP3 ADD AND DUP3 ADD DUP1 PUSH1 0x40 MSTORE POP DUP2 ADD SWAP1 PUSH2 0x216E SWAP2 SWAP1 PUSH2 0x5D33 JUMP JUMPDEST SWAP1 POP DUP1 ISZERO PUSH2 0x22EE JUMPI PUSH1 0x1 PUSH2 0x1A0 DUP10 ADD DUP2 SWAP1 MSTORE PUSH2 0x1C0 DUP10 ADD DUP2 SWAP1 MSTORE DUP1 SLOAD DUP10 SWAP2 SWAP1 DUP13 SWAP1 DUP2 LT PUSH2 0x219D JUMPI PUSH2 0x219D PUSH2 0x5B59 JUMP JUMPDEST PUSH1 0x0 SWAP2 DUP3 MSTORE PUSH1 0x20 SWAP2 DUP3 SWAP1 KECCAK256 DUP4 MLOAD PUSH1 0xE SWAP3 SWAP1 SWAP3 MUL ADD SWAP1 DUP2 SSTORE SWAP1 DUP3 ADD MLOAD PUSH1 0x1 DUP3 ADD DUP1 SLOAD PUSH1 0x1 PUSH1 0x1 PUSH1 0xA0 SHL SUB NOT AND PUSH1 0x1 PUSH1 0x1 PUSH1 0xA0 SHL SUB SWAP1 SWAP3 AND SWAP2 SWAP1 SWAP2 OR SWAP1 SSTORE PUSH1 0x40 DUP3 ADD MLOAD PUSH1 0x2 DUP3 ADD SWAP1 PUSH2 0x21ED SWAP1 DUP3 PUSH2 0x5C33 JUMP JUMPDEST POP PUSH1 0x60 DUP3 ADD MLOAD PUSH1 0x3 DUP3 ADD SWAP1 PUSH2 0x2202 SWAP1 DUP3 PUSH2 0x5C33 JUMP JUMPDEST POP PUSH1 0x80 DUP3 ADD MLOAD PUSH1 0x4 DUP3 ADD SWAP1 PUSH2 0x2217 SWAP1 DUP3 PUSH2 0x5C33 JUMP JUMPDEST POP PUSH1 0xA0 DUP3 ADD MLOAD PUSH1 0x5 DUP3 ADD SSTORE PUSH1 0xC0 DUP3 ADD MLOAD PUSH1 0x6 DUP3 ADD SSTORE PUSH1 0xE0 DUP3 ADD MLOAD PUSH1 0x7 DUP3 ADD SSTORE PUSH2 0x100 DUP1 DUP4 ADD MLOAD PUSH1 0x8 DUP4 ADD SSTORE PUSH2 0x120 DUP4 ADD MLOAD PUSH1 0x9 DUP4 ADD DUP1 SLOAD PUSH2 0x140 DUP7 ADD MLOAD PUSH2 0x160 DUP8 ADD MLOAD ISZERO ISZERO PUSH3 0x10000 MUL PUSH3 0xFF0000 NOT SWAP2 ISZERO ISZERO DUP7 MUL PUSH2 0xFF00 NOT SWAP6 ISZERO ISZERO DUP7 AND PUSH2 0xFFFF NOT SWAP5 DUP6 AND OR OR SWAP2 SWAP1 SWAP2 AND OR SWAP1 SWAP2 SSTORE PUSH2 0x180 DUP6 ADD MLOAD PUSH1 0xA DUP6 ADD SSTORE PUSH2 0x1A0 DUP6 ADD MLOAD PUSH1 0xB DUP6 ADD DUP1 SLOAD PUSH2 0x1C0 DUP9 ADD MLOAD ISZERO ISZERO SWAP1 SWAP6 MUL SWAP2 ISZERO ISZERO SWAP1 SWAP4 AND SWAP4 SWAP1 SWAP2 AND SWAP3 SWAP1 SWAP3 OR SWAP2 SWAP1 SWAP2 OR SWAP1 SSTORE PUSH2 0x1E0 DUP3 ADD MLOAD PUSH1 0xC DUP3 ADD SSTORE PUSH2 0x200 SWAP1 SWAP2 ADD MLOAD PUSH1 0xD SWAP1 SWAP2 ADD SSTORE PUSH1 0x0 PUSH2 0x22DF DUP12 DUP8 PUSH2 0x4800 JUMP JUMPDEST SWAP12 SWAP11 POP POP POP POP POP POP POP POP POP POP POP JUMP JUMPDEST POP POP JUMPDEST POP SWAP2 SWAP7 SWAP6 POP POP POP POP POP POP JUMP JUMPDEST PUSH2 0x2305 PUSH2 0x5190 JUMP JUMPDEST PUSH1 0x0 JUMPDEST PUSH1 0x0 SLOAD DUP2 LT ISZERO PUSH2 0x19CF JUMPI PUSH1 0x0 DUP1 DUP3 DUP2 SLOAD DUP2 LT PUSH2 0x2326 JUMPI PUSH2 0x2326 PUSH2 0x5B59 JUMP JUMPDEST SWAP1 PUSH1 0x0 MSTORE PUSH1 0x20 PUSH1 0x0 KECCAK256 SWAP1 PUSH1 0x6 MUL ADD PUSH1 0x40 MLOAD DUP1 PUSH2 0x100 ADD PUSH1 0x40 MSTORE SWAP1 DUP2 PUSH1 0x0 DUP3 ADD SLOAD DUP2 MSTORE PUSH1 0x20 ADD PUSH1 0x1 DUP3 ADD PUSH1 0x0 SWAP1 SLOAD SWAP1 PUSH2 0x100 EXP SWAP1 DIV PUSH1 0x1 PUSH1 0x1 PUSH1 0xA0 SHL SUB AND PUSH1 0x1 PUSH1 0x1 PUSH1 0xA0 SHL SUB AND PUSH1 0x1 PUSH1 0x1 PUSH1 0xA0 SHL SUB AND DUP2 MSTORE PUSH1 0x20 ADD PUSH1 0x2 DUP3 ADD DUP1 SLOAD PUSH2 0x2389 SWAP1 PUSH2 0x5B9E JUMP JUMPDEST DUP1 PUSH1 0x1F ADD PUSH1 0x20 DUP1 SWAP2 DIV MUL PUSH1 0x20 ADD PUSH1 0x40 MLOAD SWAP1 DUP2 ADD PUSH1 0x40 MSTORE DUP1 SWAP3 SWAP2 SWAP1 DUP2 DUP2 MSTORE PUSH1 0x20 ADD DUP3 DUP1 SLOAD PUSH2 0x23B5 SWAP1 PUSH2 0x5B9E JUMP JUMPDEST DUP1 ISZERO PUSH2 0x2402 JUMPI DUP1 PUSH1 0x1F LT PUSH2 0x23D7 JUMPI PUSH2 0x100 DUP1 DUP4 SLOAD DIV MUL DUP4 MSTORE SWAP2 PUSH1 0x20 ADD SWAP2 PUSH2 0x2402 JUMP JUMPDEST DUP3 ADD SWAP2 SWAP1 PUSH1 0x0 MSTORE PUSH1 0x20 PUSH1 0x0 KECCAK256 SWAP1 JUMPDEST DUP2 SLOAD DUP2 MSTORE SWAP1 PUSH1 0x1 ADD SWAP1 PUSH1 0x20 ADD DUP1 DUP4 GT PUSH2 0x23E5 JUMPI DUP3 SWAP1 SUB PUSH1 0x1F AND DUP3 ADD SWAP2 JUMPDEST POP POP POP POP POP DUP2 MSTORE PUSH1 0x20 ADD PUSH1 0x3 DUP3 ADD DUP1 SLOAD PUSH2 0x241B SWAP1 PUSH2 0x5B9E JUMP JUMPDEST DUP1 PUSH1 0x1F ADD PUSH1 0x20 DUP1 SWAP2 DIV MUL PUSH1 0x20 ADD PUSH1 0x40 MLOAD SWAP1 DUP2 ADD PUSH1 0x40 MSTORE DUP1 SWAP3 SWAP2 SWAP1 DUP2 DUP2 MSTORE PUSH1 0x20 ADD DUP3 DUP1 SLOAD PUSH2 0x2447 SWAP1 PUSH2 0x5B9E JUMP JUMPDEST DUP1 ISZERO PUSH2 0x2494 JUMPI DUP1 PUSH1 0x1F LT PUSH2 0x2469 JUMPI PUSH2 0x100 DUP1 DUP4 SLOAD DIV MUL DUP4 MSTORE SWAP2 PUSH1 0x20 ADD SWAP2 PUSH2 0x2494 JUMP JUMPDEST DUP3 ADD SWAP2 SWAP1 PUSH1 0x0 MSTORE PUSH1 0x20 PUSH1 0x0 KECCAK256 SWAP1 JUMPDEST DUP2 SLOAD DUP2 MSTORE SWAP1 PUSH1 0x1 ADD SWAP1 PUSH1 0x20 ADD DUP1 DUP4 GT PUSH2 0x2477 JUMPI DUP3 SWAP1 SUB PUSH1 0x1F AND DUP3 ADD SWAP2 JUMPDEST POP POP POP SWAP2 DUP4 MSTORE POP POP PUSH1 0x4 DUP3 ADD SLOAD PUSH1 0xFF DUP1 DUP3 AND ISZERO ISZERO PUSH1 0x20 DUP1 DUP6 ADD SWAP2 SWAP1 SWAP2 MSTORE PUSH2 0x100 DUP4 DIV DUP3 AND ISZERO ISZERO PUSH1 0x40 DUP6 ADD MSTORE PUSH3 0x10000 SWAP1 SWAP3 DIV AND ISZERO ISZERO PUSH1 0x60 DUP4 ADD MSTORE PUSH1 0x5 SWAP1 SWAP3 ADD SLOAD PUSH1 0x80 SWAP1 SWAP2 ADD MSTORE DUP2 ADD MLOAD SWAP1 SWAP2 POP PUSH1 0x1 PUSH1 0x1 PUSH1 0xA0 SHL SUB DUP1 DUP7 AND SWAP2 AND SUB PUSH2 0x24F9 JUMPI SWAP4 SWAP3 POP POP POP JUMP JUMPDEST POP DUP1 PUSH2 0x2504 DUP2 PUSH2 0x5B85 JUMP JUMPDEST SWAP2 POP POP PUSH2 0x2308 JUMP JUMPDEST PUSH1 0x7 SLOAD PUSH1 0xB SLOAD PUSH1 0x40 DUP1 MLOAD PUSH4 0x313CE567 PUSH1 0xE0 SHL DUP2 MSTORE SWAP1 MLOAD TIMESTAMP SWAP3 DUP4 SWAP3 PUSH1 0x0 SWAP3 PUSH1 0x1 PUSH1 0x1 PUSH1 0xA0 SHL SUB SWAP1 SWAP3 AND SWAP2 PUSH4 0x313CE567 SWAP2 PUSH1 0x4 DUP1 DUP3 ADD SWAP3 PUSH1 0x20 SWAP3 SWAP1 SWAP2 SWAP1 DUP3 SWAP1 SUB ADD DUP2 DUP7 GAS STATICCALL ISZERO DUP1 ISZERO PUSH2 0x2560 JUMPI RETURNDATASIZE PUSH1 0x0 DUP1 RETURNDATACOPY RETURNDATASIZE PUSH1 0x0 REVERT JUMPDEST POP POP POP POP PUSH1 0x40 MLOAD RETURNDATASIZE PUSH1 0x1F NOT PUSH1 0x1F DUP3 ADD AND DUP3 ADD DUP1 PUSH1 0x40 MSTORE POP DUP2 ADD SWAP1 PUSH2 0x2584 SWAP2 SWAP1 PUSH2 0x5D50 JUMP JUMPDEST PUSH2 0x258F SWAP1 PUSH1 0xA PUSH2 0x5E51 JUMP JUMPDEST PUSH2 0x2599 SWAP1 DUP9 PUSH2 0x5CF2 JUMP JUMPDEST PUSH1 0x40 DUP1 MLOAD PUSH2 0x220 DUP2 ADD DUP3 MSTORE DUP7 DUP2 MSTORE CALLER PUSH1 0x20 DUP3 ADD SWAP1 DUP2 MSTORE SWAP2 DUP2 ADD DUP14 DUP2 MSTORE PUSH1 0x60 DUP3 ADD DUP14 SWAP1 MSTORE PUSH1 0x80 DUP3 ADD DUP13 SWAP1 MSTORE PUSH1 0xA0 DUP3 ADD DUP5 SWAP1 MSTORE PUSH1 0xC0 DUP3 ADD DUP8 SWAP1 MSTORE PUSH1 0xE0 DUP3 ADD DUP7 SWAP1 MSTORE PUSH2 0x100 DUP3 ADD DUP11 SWAP1 MSTORE PUSH1 0x0 PUSH2 0x120 DUP4 ADD DUP2 SWAP1 MSTORE DUP10 ISZERO ISZERO PUSH2 0x140 DUP5 ADD MSTORE PUSH2 0x160 DUP4 ADD DUP2 SWAP1 MSTORE PUSH2 0x180 DUP4 ADD DUP2 SWAP1 MSTORE PUSH2 0x1A0 DUP4 ADD DUP2 SWAP1 MSTORE PUSH2 0x1C0 DUP4 ADD DUP2 SWAP1 MSTORE PUSH2 0x1E0 DUP4 ADD DUP2 SWAP1 MSTORE PUSH2 0x200 DUP4 ADD DUP2 SWAP1 MSTORE PUSH1 0x1 DUP1 SLOAD DUP1 DUP3 ADD DUP3 SSTORE SWAP2 MSTORE DUP3 MLOAD PUSH32 0xB10E2D527612073B26EECDFD717E6A320CF44B4AFAC2B0732D9FCBE2B7FA0CF6 PUSH1 0xE SWAP1 SWAP3 MUL SWAP2 DUP3 ADD SWAP1 DUP2 SSTORE SWAP4 MLOAD PUSH32 0xB10E2D527612073B26EECDFD717E6A320CF44B4AFAC2B0732D9FCBE2B7FA0CF7 DUP3 ADD DUP1 SLOAD PUSH1 0x1 PUSH1 0x1 PUSH1 0xA0 SHL SUB NOT AND PUSH1 0x1 PUSH1 0x1 PUSH1 0xA0 SHL SUB SWAP1 SWAP3 AND SWAP2 SWAP1 SWAP2 OR SWAP1 SSTORE SWAP1 MLOAD SWAP4 SWAP5 POP SWAP1 SWAP3 PUSH32 0xB10E2D527612073B26EECDFD717E6A320CF44B4AFAC2B0732D9FCBE2B7FA0CF8 SWAP1 SWAP2 ADD SWAP1 PUSH2 0x26D4 SWAP1 DUP3 PUSH2 0x5C33 JUMP JUMPDEST POP PUSH1 0x60 DUP3 ADD MLOAD PUSH1 0x3 DUP3 ADD SWAP1 PUSH2 0x26E9 SWAP1 DUP3 PUSH2 0x5C33 JUMP JUMPDEST POP PUSH1 0x80 DUP3 ADD MLOAD PUSH1 0x4 DUP3 ADD SWAP1 PUSH2 0x26FE SWAP1 DUP3 PUSH2 0x5C33 JUMP JUMPDEST POP PUSH1 0xA0 DUP3 ADD MLOAD PUSH1 0x5 DUP3 ADD SSTORE PUSH1 0xC0 DUP3 ADD MLOAD PUSH1 0x6 DUP3 ADD SSTORE PUSH1 0xE0 DUP3 ADD MLOAD PUSH1 0x7 DUP1 DUP4 ADD SWAP2 SWAP1 SWAP2 SSTORE PUSH2 0x100 DUP1 DUP5 ADD MLOAD PUSH1 0x8 DUP5 ADD SSTORE PUSH2 0x120 DUP5 ADD MLOAD PUSH1 0x9 DUP5 ADD DUP1 SLOAD PUSH2 0x140 DUP8 ADD MLOAD PUSH2 0x160 DUP9 ADD MLOAD ISZERO ISZERO PUSH3 0x10000 MUL PUSH3 0xFF0000 NOT SWAP2 ISZERO ISZERO DUP7 MUL PUSH2 0xFF00 NOT SWAP6 ISZERO ISZERO DUP7 AND PUSH2 0xFFFF NOT SWAP5 DUP6 AND OR OR SWAP2 SWAP1 SWAP2 AND OR SWAP1 SWAP2 SSTORE PUSH2 0x180 DUP7 ADD MLOAD PUSH1 0xA DUP7 ADD SSTORE PUSH2 0x1A0 DUP7 ADD MLOAD PUSH1 0xB DUP7 ADD DUP1 SLOAD PUSH2 0x1C0 DUP10 ADD MLOAD ISZERO ISZERO SWAP1 SWAP6 MUL SWAP2 ISZERO ISZERO SWAP1 SWAP4 AND SWAP4 SWAP1 SWAP2 AND SWAP3 SWAP1 SWAP3 OR SWAP2 SWAP1 SWAP2 OR SWAP1 SSTORE PUSH2 0x1E0 DUP4 ADD MLOAD PUSH1 0xC DUP4 ADD SSTORE PUSH2 0x200 SWAP1 SWAP3 ADD MLOAD PUSH1 0xD SWAP1 SWAP2 ADD SSTORE DUP1 SLOAD SWAP1 PUSH1 0x0 PUSH2 0x27CC DUP4 PUSH2 0x5B85 JUMP JUMPDEST SWAP2 SWAP1 POP SSTORE POP POP POP POP POP POP POP POP POP POP POP JUMP JUMPDEST PUSH1 0x60 PUSH1 0x0 DUP1 PUSH2 0x27EB DUP5 PUSH2 0x1AC5 JUMP JUMPDEST PUSH1 0x1 PUSH1 0x1 PUSH1 0x40 SHL SUB DUP2 GT ISZERO PUSH2 0x2802 JUMPI PUSH2 0x2802 PUSH2 0x520B JUMP JUMPDEST PUSH1 0x40 MLOAD SWAP1 DUP1 DUP3 MSTORE DUP1 PUSH1 0x20 MUL PUSH1 0x20 ADD DUP3 ADD PUSH1 0x40 MSTORE DUP1 ISZERO PUSH2 0x283B JUMPI DUP2 PUSH1 0x20 ADD JUMPDEST PUSH2 0x2828 PUSH2 0x5190 JUMP JUMPDEST DUP2 MSTORE PUSH1 0x20 ADD SWAP1 PUSH1 0x1 SWAP1 SUB SWAP1 DUP2 PUSH2 0x2820 JUMPI SWAP1 POP JUMPDEST POP SWAP1 POP PUSH1 0x0 JUMPDEST PUSH1 0x2 SLOAD DUP2 LT ISZERO PUSH2 0x717 JUMPI PUSH1 0x0 PUSH1 0x2 DUP3 DUP2 SLOAD DUP2 LT PUSH2 0x2860 JUMPI PUSH2 0x2860 PUSH2 0x5B59 JUMP JUMPDEST PUSH1 0x0 SWAP2 DUP3 MSTORE PUSH1 0x20 SWAP2 DUP3 SWAP1 KECCAK256 PUSH1 0x40 DUP1 MLOAD PUSH1 0xE0 DUP2 ADD DUP3 MSTORE PUSH1 0x7 SWAP1 SWAP4 MUL SWAP1 SWAP2 ADD DUP1 SLOAD DUP4 MSTORE PUSH1 0x1 DUP2 ADD SLOAD SWAP4 DUP4 ADD DUP5 SWAP1 MSTORE PUSH1 0x2 DUP2 ADD SLOAD PUSH1 0x1 PUSH1 0x1 PUSH1 0xA0 SHL SUB AND SWAP2 DUP4 ADD SWAP2 SWAP1 SWAP2 MSTORE PUSH1 0x3 DUP2 ADD SLOAD PUSH1 0x60 DUP4 ADD MSTORE PUSH1 0x4 DUP2 ADD SLOAD PUSH1 0xFF AND ISZERO ISZERO PUSH1 0x80 DUP4 ADD MSTORE PUSH1 0x5 DUP2 ADD SLOAD PUSH1 0xA0 DUP4 ADD MSTORE PUSH1 0x6 ADD SLOAD PUSH1 0xC0 DUP3 ADD MSTORE SWAP2 POP DUP7 SWAP1 SUB PUSH2 0x2915 JUMPI PUSH1 0x0 PUSH2 0x28E5 DUP3 PUSH1 0x40 ADD MLOAD PUSH2 0x22FD JUMP JUMPDEST SWAP1 POP DUP1 DUP5 DUP7 DUP2 MLOAD DUP2 LT PUSH2 0x28FA JUMPI PUSH2 0x28FA PUSH2 0x5B59 JUMP JUMPDEST PUSH1 0x20 MUL PUSH1 0x20 ADD ADD DUP2 SWAP1 MSTORE POP DUP5 DUP1 PUSH2 0x2910 SWAP1 PUSH2 0x5B85 JUMP JUMPDEST SWAP6 POP POP POP JUMPDEST POP DUP1 PUSH2 0x2920 DUP2 PUSH2 0x5B85 JUMP JUMPDEST SWAP2 POP POP PUSH2 0x2841 JUMP JUMPDEST PUSH1 0x5 DUP1 SLOAD PUSH2 0x2935 SWAP1 PUSH2 0x5B9E JUMP JUMPDEST DUP1 PUSH1 0x1F ADD PUSH1 0x20 DUP1 SWAP2 DIV MUL PUSH1 0x20 ADD PUSH1 0x40 MLOAD SWAP1 DUP2 ADD PUSH1 0x40 MSTORE DUP1 SWAP3 SWAP2 SWAP1 DUP2 DUP2 MSTORE PUSH1 0x20 ADD DUP3 DUP1 SLOAD PUSH2 0x2961 SWAP1 PUSH2 0x5B9E JUMP JUMPDEST DUP1 ISZERO PUSH2 0x29AE JUMPI DUP1 PUSH1 0x1F LT PUSH2 0x2983 JUMPI PUSH2 0x100 DUP1 DUP4 SLOAD DIV MUL DUP4 MSTORE SWAP2 PUSH1 0x20 ADD SWAP2 PUSH2 0x29AE JUMP JUMPDEST DUP3 ADD SWAP2 SWAP1 PUSH1 0x0 MSTORE PUSH1 0x20 PUSH1 0x0 KECCAK256 SWAP1 JUMPDEST DUP2 SLOAD DUP2 MSTORE SWAP1 PUSH1 0x1 ADD SWAP1 PUSH1 0x20 ADD DUP1 DUP4 GT PUSH2 0x2991 JUMPI DUP3 SWAP1 SUB PUSH1 0x1F AND DUP3 ADD SWAP2 JUMPDEST POP POP POP POP POP DUP2 JUMP JUMPDEST PUSH2 0x29BE PUSH2 0x50B8 JUMP JUMPDEST PUSH1 0x0 JUMPDEST PUSH1 0x1 SLOAD DUP2 LT ISZERO PUSH2 0xB6E JUMPI PUSH1 0x0 PUSH1 0x1 DUP3 DUP2 SLOAD DUP2 LT PUSH2 0x29E0 JUMPI PUSH2 0x29E0 PUSH2 0x5B59 JUMP JUMPDEST SWAP1 PUSH1 0x0 MSTORE PUSH1 0x20 PUSH1 0x0 KECCAK256 SWAP1 PUSH1 0xE MUL ADD PUSH1 0x40 MLOAD DUP1 PUSH2 0x220 ADD PUSH1 0x40 MSTORE SWAP1 DUP2 PUSH1 0x0 DUP3 ADD SLOAD DUP2 MSTORE PUSH1 0x20 ADD PUSH1 0x1 DUP3 ADD PUSH1 0x0 SWAP1 SLOAD SWAP1 PUSH2 0x100 EXP SWAP1 DIV PUSH1 0x1 PUSH1 0x1 PUSH1 0xA0 SHL SUB AND PUSH1 0x1 PUSH1 0x1 PUSH1 0xA0 SHL SUB AND PUSH1 0x1 PUSH1 0x1 PUSH1 0xA0 SHL SUB AND DUP2 MSTORE PUSH1 0x20 ADD PUSH1 0x2 DUP3 ADD DUP1 SLOAD PUSH2 0x2A43 SWAP1 PUSH2 0x5B9E JUMP JUMPDEST DUP1 PUSH1 0x1F ADD PUSH1 0x20 DUP1 SWAP2 DIV MUL PUSH1 0x20 ADD PUSH1 0x40 MLOAD SWAP1 DUP2 ADD PUSH1 0x40 MSTORE DUP1 SWAP3 SWAP2 SWAP1 DUP2 DUP2 MSTORE PUSH1 0x20 ADD DUP3 DUP1 SLOAD PUSH2 0x2A6F SWAP1 PUSH2 0x5B9E JUMP JUMPDEST DUP1 ISZERO PUSH2 0x2ABC JUMPI DUP1 PUSH1 0x1F LT PUSH2 0x2A91 JUMPI PUSH2 0x100 DUP1 DUP4 SLOAD DIV MUL DUP4 MSTORE SWAP2 PUSH1 0x20 ADD SWAP2 PUSH2 0x2ABC JUMP JUMPDEST DUP3 ADD SWAP2 SWAP1 PUSH1 0x0 MSTORE PUSH1 0x20 PUSH1 0x0 KECCAK256 SWAP1 JUMPDEST DUP2 SLOAD DUP2 MSTORE SWAP1 PUSH1 0x1 ADD SWAP1 PUSH1 0x20 ADD DUP1 DUP4 GT PUSH2 0x2A9F JUMPI DUP3 SWAP1 SUB PUSH1 0x1F AND DUP3 ADD SWAP2 JUMPDEST POP POP POP POP POP DUP2 MSTORE PUSH1 0x20 ADD PUSH1 0x3 DUP3 ADD DUP1 SLOAD PUSH2 0x2AD5 SWAP1 PUSH2 0x5B9E JUMP JUMPDEST DUP1 PUSH1 0x1F ADD PUSH1 0x20 DUP1 SWAP2 DIV MUL PUSH1 0x20 ADD PUSH1 0x40 MLOAD SWAP1 DUP2 ADD PUSH1 0x40 MSTORE DUP1 SWAP3 SWAP2 SWAP1 DUP2 DUP2 MSTORE PUSH1 0x20 ADD DUP3 DUP1 SLOAD PUSH2 0x2B01 SWAP1 PUSH2 0x5B9E JUMP JUMPDEST DUP1 ISZERO PUSH2 0x2B4E JUMPI DUP1 PUSH1 0x1F LT PUSH2 0x2B23 JUMPI PUSH2 0x100 DUP1 DUP4 SLOAD DIV MUL DUP4 MSTORE SWAP2 PUSH1 0x20 ADD SWAP2 PUSH2 0x2B4E JUMP JUMPDEST DUP3 ADD SWAP2 SWAP1 PUSH1 0x0 MSTORE PUSH1 0x20 PUSH1 0x0 KECCAK256 SWAP1 JUMPDEST DUP2 SLOAD DUP2 MSTORE SWAP1 PUSH1 0x1 ADD SWAP1 PUSH1 0x20 ADD DUP1 DUP4 GT PUSH2 0x2B31 JUMPI DUP3 SWAP1 SUB PUSH1 0x1F AND DUP3 ADD SWAP2 JUMPDEST POP POP POP POP POP DUP2 MSTORE PUSH1 0x20 ADD PUSH1 0x4 DUP3 ADD DUP1 SLOAD PUSH2 0x2B67 SWAP1 PUSH2 0x5B9E JUMP JUMPDEST DUP1 PUSH1 0x1F ADD PUSH1 0x20 DUP1 SWAP2 DIV MUL PUSH1 0x20 ADD PUSH1 0x40 MLOAD SWAP1 DUP2 ADD PUSH1 0x40 MSTORE DUP1 SWAP3 SWAP2 SWAP1 DUP2 DUP2 MSTORE PUSH1 0x20 ADD DUP3 DUP1 SLOAD PUSH2 0x2B93 SWAP1 PUSH2 0x5B9E JUMP JUMPDEST DUP1 ISZERO PUSH2 0x2BE0 JUMPI DUP1 PUSH1 0x1F LT PUSH2 0x2BB5 JUMPI PUSH2 0x100 DUP1 DUP4 SLOAD DIV MUL DUP4 MSTORE SWAP2 PUSH1 0x20 ADD SWAP2 PUSH2 0x2BE0 JUMP JUMPDEST DUP3 ADD SWAP2 SWAP1 PUSH1 0x0 MSTORE PUSH1 0x20 PUSH1 0x0 KECCAK256 SWAP1 JUMPDEST DUP2 SLOAD DUP2 MSTORE SWAP1 PUSH1 0x1 ADD SWAP1 PUSH1 0x20 ADD DUP1 DUP4 GT PUSH2 0x2BC3 JUMPI DUP3 SWAP1 SUB PUSH1 0x1F AND DUP3 ADD SWAP2 JUMPDEST POP POP POP SWAP2 DUP4 MSTORE POP POP PUSH1 0x5 DUP3 ADD SLOAD PUSH1 0x20 DUP3 ADD MSTORE PUSH1 0x6 DUP3 ADD SLOAD PUSH1 0x40 DUP3 ADD MSTORE PUSH1 0x7 DUP3 ADD SLOAD PUSH1 0x60 DUP3 ADD MSTORE PUSH1 0x8 DUP3 ADD SLOAD PUSH1 0x80 DUP3 ADD MSTORE PUSH1 0x9 DUP3 ADD SLOAD PUSH1 0xFF DUP1 DUP3 AND ISZERO ISZERO PUSH1 0xA0 DUP5 ADD MSTORE PUSH2 0x100 DUP1 DUP4 DIV DUP3 AND ISZERO ISZERO PUSH1 0xC0 DUP6 ADD MSTORE PUSH3 0x10000 SWAP1 SWAP3 DIV DUP2 AND ISZERO ISZERO PUSH1 0xE0 DUP5 ADD MSTORE PUSH1 0xA DUP5 ADD SLOAD DUP3 DUP5 ADD MSTORE PUSH1 0xB DUP5 ADD SLOAD DUP1 DUP3 AND ISZERO ISZERO PUSH2 0x120 DUP6 ADD MSTORE SWAP2 SWAP1 SWAP2 DIV AND ISZERO ISZERO PUSH2 0x140 DUP3 ADD MSTORE PUSH1 0xC DUP3 ADD SLOAD PUSH2 0x160 DUP3 ADD MSTORE PUSH1 0xD SWAP1 SWAP2 ADD SLOAD PUSH2 0x180 SWAP1 SWAP2 ADD MSTORE DUP1 MLOAD SWAP1 SWAP2 POP DUP5 SWAP1 SUB PUSH2 0x2C91 JUMPI SWAP4 SWAP3 POP POP POP JUMP JUMPDEST POP DUP1 PUSH2 0x2C9C DUP2 PUSH2 0x5B85 JUMP JUMPDEST SWAP2 POP POP PUSH2 0x29C1 JUMP JUMPDEST PUSH1 0x0 DUP1 PUSH2 0x2CB0 CALLER PUSH2 0x22FD JUMP JUMPDEST SWAP1 POP DUP1 PUSH1 0xA0 ADD MLOAD PUSH2 0x2DA2 JUMPI DUP1 MLOAD PUSH1 0x1 PUSH1 0x80 DUP4 ADD MSTORE PUSH1 0x0 DUP1 SLOAD DUP4 SWAP2 SWAP1 DUP4 SWAP1 DUP2 LT PUSH2 0x2CDB JUMPI PUSH2 0x2CDB PUSH2 0x5B59 JUMP JUMPDEST PUSH1 0x0 SWAP2 DUP3 MSTORE PUSH1 0x20 SWAP2 DUP3 SWAP1 KECCAK256 DUP4 MLOAD PUSH1 0x6 SWAP3 SWAP1 SWAP3 MUL ADD SWAP1 DUP2 SSTORE SWAP1 DUP3 ADD MLOAD PUSH1 0x1 DUP3 ADD DUP1 SLOAD PUSH1 0x1 PUSH1 0x1 PUSH1 0xA0 SHL SUB NOT AND PUSH1 0x1 PUSH1 0x1 PUSH1 0xA0 SHL SUB SWAP1 SWAP3 AND SWAP2 SWAP1 SWAP2 OR SWAP1 SSTORE PUSH1 0x40 DUP3 ADD MLOAD PUSH1 0x2 DUP3 ADD SWAP1 PUSH2 0x2D2B SWAP1 DUP3 PUSH2 0x5C33 JUMP JUMPDEST POP PUSH1 0x60 DUP3 ADD MLOAD PUSH1 0x3 DUP3 ADD SWAP1 PUSH2 0x2D40 SWAP1 DUP3 PUSH2 0x5C33 JUMP JUMPDEST POP PUSH1 0x80 DUP3 ADD MLOAD PUSH1 0x4 DUP3 ADD DUP1 SLOAD PUSH1 0xA0 DUP6 ADD MLOAD PUSH1 0xC0 DUP7 ADD MLOAD ISZERO ISZERO PUSH3 0x10000 MUL PUSH3 0xFF0000 NOT SWAP2 ISZERO ISZERO PUSH2 0x100 MUL PUSH2 0xFF00 NOT SWAP6 ISZERO ISZERO SWAP6 SWAP1 SWAP6 AND PUSH2 0xFFFF NOT SWAP1 SWAP4 AND SWAP3 SWAP1 SWAP3 OR SWAP4 SWAP1 SWAP4 OR SWAP3 SWAP1 SWAP3 AND SWAP2 SWAP1 SWAP2 OR SWAP1 SSTORE PUSH1 0xE0 SWAP1 SWAP2 ADD MLOAD PUSH1 0x5 SWAP1 SWAP2 ADD SSTORE POP PUSH1 0x1 SWAP3 SWAP2 POP POP JUMP JUMPDEST PUSH1 0x0 SWAP2 POP POP SWAP1 JUMP JUMPDEST PUSH1 0x0 PUSH1 0x1 DUP3 DUP2 SLOAD DUP2 LT PUSH2 0x2DBF JUMPI PUSH2 0x2DBF PUSH2 0x5B59 JUMP JUMPDEST SWAP1 PUSH1 0x0 MSTORE PUSH1 0x20 PUSH1 0x0 KECCAK256 SWAP1 PUSH1 0xE MUL ADD PUSH1 0x40 MLOAD DUP1 PUSH2 0x220 ADD PUSH1 0x40 MSTORE SWAP1 DUP2 PUSH1 0x0 DUP3 ADD SLOAD DUP2 MSTORE PUSH1 0x20 ADD PUSH1 0x1 DUP3 ADD PUSH1 0x0 SWAP1 SLOAD SWAP1 PUSH2 0x100 EXP SWAP1 DIV PUSH1 0x1 PUSH1 0x1 PUSH1 0xA0 SHL SUB AND PUSH1 0x1 PUSH1 0x1 PUSH1 0xA0 SHL SUB AND PUSH1 0x1 PUSH1 0x1 PUSH1 0xA0 SHL SUB AND DUP2 MSTORE PUSH1 0x20 ADD PUSH1 0x2 DUP3 ADD DUP1 SLOAD PUSH2 0x2E22 SWAP1 PUSH2 0x5B9E JUMP JUMPDEST DUP1 PUSH1 0x1F ADD PUSH1 0x20 DUP1 SWAP2 DIV MUL PUSH1 0x20 ADD PUSH1 0x40 MLOAD SWAP1 DUP2 ADD PUSH1 0x40 MSTORE DUP1 SWAP3 SWAP2 SWAP1 DUP2 DUP2 MSTORE PUSH1 0x20 ADD DUP3 DUP1 SLOAD PUSH2 0x2E4E SWAP1 PUSH2 0x5B9E JUMP JUMPDEST DUP1 ISZERO PUSH2 0x2E9B JUMPI DUP1 PUSH1 0x1F LT PUSH2 0x2E70 JUMPI PUSH2 0x100 DUP1 DUP4 SLOAD DIV MUL DUP4 MSTORE SWAP2 PUSH1 0x20 ADD SWAP2 PUSH2 0x2E9B JUMP JUMPDEST DUP3 ADD SWAP2 SWAP1 PUSH1 0x0 MSTORE PUSH1 0x20 PUSH1 0x0 KECCAK256 SWAP1 JUMPDEST DUP2 SLOAD DUP2 MSTORE SWAP1 PUSH1 0x1 ADD SWAP1 PUSH1 0x20 ADD DUP1 DUP4 GT PUSH2 0x2E7E JUMPI DUP3 SWAP1 SUB PUSH1 0x1F AND DUP3 ADD SWAP2 JUMPDEST POP POP POP POP POP DUP2 MSTORE PUSH1 0x20 ADD PUSH1 0x3 DUP3 ADD DUP1 SLOAD PUSH2 0x2EB4 SWAP1 PUSH2 0x5B9E JUMP JUMPDEST DUP1 PUSH1 0x1F ADD PUSH1 0x20 DUP1 SWAP2 DIV MUL PUSH1 0x20 ADD PUSH1 0x40 MLOAD SWAP1 DUP2 ADD PUSH1 0x40 MSTORE DUP1 SWAP3 SWAP2 SWAP1 DUP2 DUP2 MSTORE PUSH1 0x20 ADD DUP3 DUP1 SLOAD PUSH2 0x2EE0 SWAP1 PUSH2 0x5B9E JUMP JUMPDEST DUP1 ISZERO PUSH2 0x2F2D JUMPI DUP1 PUSH1 0x1F LT PUSH2 0x2F02 JUMPI PUSH2 0x100 DUP1 DUP4 SLOAD DIV MUL DUP4 MSTORE SWAP2 PUSH1 0x20 ADD SWAP2 PUSH2 0x2F2D JUMP JUMPDEST DUP3 ADD SWAP2 SWAP1 PUSH1 0x0 MSTORE PUSH1 0x20 PUSH1 0x0 KECCAK256 SWAP1 JUMPDEST DUP2 SLOAD DUP2 MSTORE SWAP1 PUSH1 0x1 ADD SWAP1 PUSH1 0x20 ADD DUP1 DUP4 GT PUSH2 0x2F10 JUMPI DUP3 SWAP1 SUB PUSH1 0x1F AND DUP3 ADD SWAP2 JUMPDEST POP POP POP POP POP DUP2 MSTORE PUSH1 0x20 ADD PUSH1 0x4 DUP3 ADD DUP1 SLOAD PUSH2 0x2F46 SWAP1 PUSH2 0x5B9E JUMP JUMPDEST DUP1 PUSH1 0x1F ADD PUSH1 0x20 DUP1 SWAP2 DIV MUL PUSH1 0x20 ADD PUSH1 0x40 MLOAD SWAP1 DUP2 ADD PUSH1 0x40 MSTORE DUP1 SWAP3 SWAP2 SWAP1 DUP2 DUP2 MSTORE PUSH1 0x20 ADD DUP3 DUP1 SLOAD PUSH2 0x2F72 SWAP1 PUSH2 0x5B9E JUMP JUMPDEST DUP1 ISZERO PUSH2 0x2FBF JUMPI DUP1 PUSH1 0x1F LT PUSH2 0x2F94 JUMPI PUSH2 0x100 DUP1 DUP4 SLOAD DIV MUL DUP4 MSTORE SWAP2 PUSH1 0x20 ADD SWAP2 PUSH2 0x2FBF JUMP JUMPDEST DUP3 ADD SWAP2 SWAP1 PUSH1 0x0 MSTORE PUSH1 0x20 PUSH1 0x0 KECCAK256 SWAP1 JUMPDEST DUP2 SLOAD DUP2 MSTORE SWAP1 PUSH1 0x1 ADD SWAP1 PUSH1 0x20 ADD DUP1 DUP4 GT PUSH2 0x2FA2 JUMPI DUP3 SWAP1 SUB PUSH1 0x1F AND DUP3 ADD SWAP2 JUMPDEST POP POP POP SWAP2 DUP4 MSTORE POP POP PUSH1 0x5 DUP3 ADD SLOAD PUSH1 0x20 DUP3 ADD MSTORE PUSH1 0x6 DUP3 ADD SLOAD PUSH1 0x40 DUP3 ADD MSTORE PUSH1 0x7 DUP3 ADD SLOAD PUSH1 0x60 DUP3 ADD MSTORE PUSH1 0x8 DUP3 ADD SLOAD PUSH1 0x80 DUP3 ADD MSTORE PUSH1 0x9 DUP3 ADD SLOAD PUSH1 0xFF DUP1 DUP3 AND ISZERO ISZERO PUSH1 0xA0 DUP5 ADD MSTORE PUSH2 0x100 DUP1 DUP4 DIV DUP3 AND ISZERO ISZERO PUSH1 0xC0 DUP6 ADD MSTORE PUSH3 0x10000 SWAP1 SWAP3 DIV DUP2 AND ISZERO ISZERO PUSH1 0xE0 DUP5 ADD MSTORE PUSH1 0xA DUP5 ADD SLOAD DUP3 DUP5 ADD MSTORE PUSH1 0xB DUP5 ADD SLOAD DUP1 DUP3 AND ISZERO ISZERO PUSH2 0x120 DUP6 ADD MSTORE SWAP2 SWAP1 SWAP2 DIV AND ISZERO ISZERO PUSH2 0x140 DUP3 ADD MSTORE PUSH1 0xC DUP3 ADD SLOAD PUSH2 0x160 DUP3 ADD MSTORE PUSH1 0xD SWAP1 SWAP2 ADD SLOAD PUSH2 0x180 SWAP1 SWAP2 ADD MSTORE SWAP1 POP PUSH1 0x0 PUSH2 0x306A DUP4 PUSH2 0x15BC JUMP JUMPDEST SWAP1 POP DUP1 ISZERO PUSH2 0x30B2 JUMPI PUSH1 0x40 MLOAD PUSH3 0x461BCD PUSH1 0xE5 SHL DUP2 MSTORE PUSH1 0x20 PUSH1 0x4 DUP3 ADD MSTORE PUSH1 0x15 PUSH1 0x24 DUP3 ADD MSTORE PUSH21 0x5469636B657420616C726561647920657869737473 PUSH1 0x58 SHL PUSH1 0x44 DUP3 ADD MSTORE PUSH1 0x64 ADD PUSH2 0x865 JUMP JUMPDEST PUSH1 0x8 DUP1 SLOAD PUSH1 0x40 DUP1 MLOAD PUSH1 0xE0 DUP2 ADD DUP3 MSTORE DUP3 DUP2 MSTORE PUSH1 0x20 DUP2 ADD DUP8 DUP2 MSTORE CALLER SWAP3 DUP3 ADD SWAP3 DUP4 MSTORE PUSH1 0xA0 DUP8 DUP2 ADD MLOAD PUSH1 0x60 DUP5 ADD SWAP1 DUP2 MSTORE PUSH1 0x0 PUSH1 0x80 DUP6 ADD DUP2 DUP2 MSTORE SWAP3 DUP6 ADD DUP2 DUP2 MSTORE PUSH1 0xC0 DUP7 ADD DUP3 DUP2 MSTORE PUSH1 0x2 DUP1 SLOAD PUSH1 0x1 DUP2 ADD DUP3 SSTORE SWAP1 DUP5 MSTORE SWAP7 MLOAD PUSH32 0x405787FA12A823E0F2B7631CC41B3BA8828B3321CA811111FA75CD3AA3BB5ACE PUSH1 0x7 SWAP1 SWAP9 MUL SWAP8 DUP9 ADD SSTORE SWAP5 MLOAD PUSH32 0x405787FA12A823E0F2B7631CC41B3BA8828B3321CA811111FA75CD3AA3BB5ACF DUP8 ADD SSTORE SWAP6 MLOAD PUSH32 0x405787FA12A823E0F2B7631CC41B3BA8828B3321CA811111FA75CD3AA3BB5AD0 DUP7 ADD DUP1 SLOAD PUSH1 0x1 PUSH1 0x1 PUSH1 0xA0 SHL SUB NOT AND PUSH1 0x1 PUSH1 0x1 PUSH1 0xA0 SHL SUB SWAP1 SWAP3 AND SWAP2 SWAP1 SWAP2 OR SWAP1 SSTORE SWAP1 MLOAD PUSH32 0x405787FA12A823E0F2B7631CC41B3BA8828B3321CA811111FA75CD3AA3BB5AD1 DUP6 ADD SSTORE SWAP1 MLOAD PUSH32 0x405787FA12A823E0F2B7631CC41B3BA8828B3321CA811111FA75CD3AA3BB5AD2 DUP5 ADD DUP1 SLOAD PUSH1 0xFF NOT AND SWAP2 ISZERO ISZERO SWAP2 SWAP1 SWAP2 OR SWAP1 SSTORE SWAP3 MLOAD PUSH32 0x405787FA12A823E0F2B7631CC41B3BA8828B3321CA811111FA75CD3AA3BB5AD3 DUP4 ADD SSTORE MLOAD PUSH32 0x405787FA12A823E0F2B7631CC41B3BA8828B3321CA811111FA75CD3AA3BB5AD4 SWAP1 SWAP2 ADD SSTORE DUP3 SLOAD SWAP2 SWAP3 SWAP1 PUSH2 0x3249 DUP4 PUSH2 0x5B85 JUMP JUMPDEST SWAP2 SWAP1 POP SSTORE POP POP POP POP POP JUMP JUMPDEST PUSH1 0x0 DUP1 DUP1 JUMPDEST PUSH1 0x1 SLOAD DUP2 LT ISZERO PUSH2 0x10ED JUMPI PUSH1 0x0 PUSH1 0x1 DUP3 DUP2 SLOAD DUP2 LT PUSH2 0x3278 JUMPI PUSH2 0x3278 PUSH2 0x5B59 JUMP JUMPDEST SWAP1 PUSH1 0x0 MSTORE PUSH1 0x20 PUSH1 0x0 KECCAK256 SWAP1 PUSH1 0xE MUL ADD PUSH1 0x40 MLOAD DUP1 PUSH2 0x220 ADD PUSH1 0x40 MSTORE SWAP1 DUP2 PUSH1 0x0 DUP3 ADD SLOAD DUP2 MSTORE PUSH1 0x20 ADD PUSH1 0x1 DUP3 ADD PUSH1 0x0 SWAP1 SLOAD SWAP1 PUSH2 0x100 EXP SWAP1 DIV PUSH1 0x1 PUSH1 0x1 PUSH1 0xA0 SHL SUB AND PUSH1 0x1 PUSH1 0x1 PUSH1 0xA0 SHL SUB AND PUSH1 0x1 PUSH1 0x1 PUSH1 0xA0 SHL SUB AND DUP2 MSTORE PUSH1 0x20 ADD PUSH1 0x2 DUP3 ADD DUP1 SLOAD PUSH2 0x32DB SWAP1 PUSH2 0x5B9E JUMP JUMPDEST DUP1 PUSH1 0x1F ADD PUSH1 0x20 DUP1 SWAP2 DIV MUL PUSH1 0x20 ADD PUSH1 0x40 MLOAD SWAP1 DUP2 ADD PUSH1 0x40 MSTORE DUP1 SWAP3 SWAP2 SWAP1 DUP2 DUP2 MSTORE PUSH1 0x20 ADD DUP3 DUP1 SLOAD PUSH2 0x3307 SWAP1 PUSH2 0x5B9E JUMP JUMPDEST DUP1 ISZERO PUSH2 0x3354 JUMPI DUP1 PUSH1 0x1F LT PUSH2 0x3329 JUMPI PUSH2 0x100 DUP1 DUP4 SLOAD DIV MUL DUP4 MSTORE SWAP2 PUSH1 0x20 ADD SWAP2 PUSH2 0x3354 JUMP JUMPDEST DUP3 ADD SWAP2 SWAP1 PUSH1 0x0 MSTORE PUSH1 0x20 PUSH1 0x0 KECCAK256 SWAP1 JUMPDEST DUP2 SLOAD DUP2 MSTORE SWAP1 PUSH1 0x1 ADD SWAP1 PUSH1 0x20 ADD DUP1 DUP4 GT PUSH2 0x3337 JUMPI DUP3 SWAP1 SUB PUSH1 0x1F AND DUP3 ADD SWAP2 JUMPDEST POP POP POP POP POP DUP2 MSTORE PUSH1 0x20 ADD PUSH1 0x3 DUP3 ADD DUP1 SLOAD PUSH2 0x336D SWAP1 PUSH2 0x5B9E JUMP JUMPDEST DUP1 PUSH1 0x1F ADD PUSH1 0x20 DUP1 SWAP2 DIV MUL PUSH1 0x20 ADD PUSH1 0x40 MLOAD SWAP1 DUP2 ADD PUSH1 0x40 MSTORE DUP1 SWAP3 SWAP2 SWAP1 DUP2 DUP2 MSTORE PUSH1 0x20 ADD DUP3 DUP1 SLOAD PUSH2 0x3399 SWAP1 PUSH2 0x5B9E JUMP JUMPDEST DUP1 ISZERO PUSH2 0x33E6 JUMPI DUP1 PUSH1 0x1F LT PUSH2 0x33BB JUMPI PUSH2 0x100 DUP1 DUP4 SLOAD DIV MUL DUP4 MSTORE SWAP2 PUSH1 0x20 ADD SWAP2 PUSH2 0x33E6 JUMP JUMPDEST DUP3 ADD SWAP2 SWAP1 PUSH1 0x0 MSTORE PUSH1 0x20 PUSH1 0x0 KECCAK256 SWAP1 JUMPDEST DUP2 SLOAD DUP2 MSTORE SWAP1 PUSH1 0x1 ADD SWAP1 PUSH1 0x20 ADD DUP1 DUP4 GT PUSH2 0x33C9 JUMPI DUP3 SWAP1 SUB PUSH1 0x1F AND DUP3 ADD SWAP2 JUMPDEST POP POP POP POP POP DUP2 MSTORE PUSH1 0x20 ADD PUSH1 0x4 DUP3 ADD DUP1 SLOAD PUSH2 0x33FF SWAP1 PUSH2 0x5B9E JUMP JUMPDEST DUP1 PUSH1 0x1F ADD PUSH1 0x20 DUP1 SWAP2 DIV MUL PUSH1 0x20 ADD PUSH1 0x40 MLOAD SWAP1 DUP2 ADD PUSH1 0x40 MSTORE DUP1 SWAP3 SWAP2 SWAP1 DUP2 DUP2 MSTORE PUSH1 0x20 ADD DUP3 DUP1 SLOAD PUSH2 0x342B SWAP1 PUSH2 0x5B9E JUMP JUMPDEST DUP1 ISZERO PUSH2 0x3478 JUMPI DUP1 PUSH1 0x1F LT PUSH2 0x344D JUMPI PUSH2 0x100 DUP1 DUP4 SLOAD DIV MUL DUP4 MSTORE SWAP2 PUSH1 0x20 ADD SWAP2 PUSH2 0x3478 JUMP JUMPDEST DUP3 ADD SWAP2 SWAP1 PUSH1 0x0 MSTORE PUSH1 0x20 PUSH1 0x0 KECCAK256 SWAP1 JUMPDEST DUP2 SLOAD DUP2 MSTORE SWAP1 PUSH1 0x1 ADD SWAP1 PUSH1 0x20 ADD DUP1 DUP4 GT PUSH2 0x345B JUMPI DUP3 SWAP1 SUB PUSH1 0x1F AND DUP3 ADD SWAP2 JUMPDEST POP POP POP SWAP2 DUP4 MSTORE POP POP PUSH1 0x5 DUP3 ADD SLOAD PUSH1 0x20 DUP1 DUP4 ADD SWAP2 SWAP1 SWAP2 MSTORE PUSH1 0x6 DUP4 ADD SLOAD PUSH1 0x40 DUP4 ADD MSTORE PUSH1 0x7 DUP4 ADD SLOAD PUSH1 0x60 DUP4 ADD MSTORE PUSH1 0x8 DUP4 ADD SLOAD PUSH1 0x80 DUP4 ADD MSTORE PUSH1 0x9 DUP4 ADD SLOAD PUSH1 0xFF DUP1 DUP3 AND ISZERO ISZERO PUSH1 0xA0 DUP6 ADD MSTORE PUSH2 0x100 DUP1 DUP4 DIV DUP3 AND ISZERO ISZERO PUSH1 0xC0 DUP7 ADD MSTORE PUSH3 0x10000 SWAP1 SWAP3 DIV DUP2 AND ISZERO ISZERO PUSH1 0xE0 DUP6 ADD MSTORE PUSH1 0xA DUP6 ADD SLOAD DUP3 DUP6 ADD MSTORE PUSH1 0xB DUP6 ADD SLOAD DUP1 DUP3 AND ISZERO ISZERO PUSH2 0x120 DUP7 ADD MSTORE SWAP2 SWAP1 SWAP2 DIV AND ISZERO ISZERO PUSH2 0x140 DUP4 ADD MSTORE PUSH1 0xC DUP4 ADD SLOAD PUSH2 0x160 DUP4 ADD MSTORE PUSH1 0xD SWAP1 SWAP3 ADD SLOAD PUSH2 0x180 SWAP1 SWAP2 ADD MSTORE DUP2 ADD MLOAD SWAP1 SWAP2 POP PUSH1 0x1 PUSH1 0x1 PUSH1 0xA0 SHL SUB DUP1 DUP8 AND SWAP2 AND SUB PUSH2 0x3540 JUMPI DUP3 PUSH2 0x353C DUP2 PUSH2 0x5B85 JUMP JUMPDEST SWAP4 POP POP JUMPDEST POP DUP1 PUSH2 0x354B DUP2 PUSH2 0x5B85 JUMP JUMPDEST SWAP2 POP POP PUSH2 0x3259 JUMP JUMPDEST PUSH1 0x0 DUP1 DUP1 JUMPDEST PUSH1 0x1 SLOAD DUP2 LT ISZERO PUSH2 0x3845 JUMPI PUSH1 0x0 PUSH1 0x1 DUP3 DUP2 SLOAD DUP2 LT PUSH2 0x3577 JUMPI PUSH2 0x3577 PUSH2 0x5B59 JUMP JUMPDEST SWAP1 PUSH1 0x0 MSTORE PUSH1 0x20 PUSH1 0x0 KECCAK256 SWAP1 PUSH1 0xE MUL ADD PUSH1 0x40 MLOAD DUP1 PUSH2 0x220 ADD PUSH1 0x40 MSTORE SWAP1 DUP2 PUSH1 0x0 DUP3 ADD SLOAD DUP2 MSTORE PUSH1 0x20 ADD PUSH1 0x1 DUP3 ADD PUSH1 0x0 SWAP1 SLOAD SWAP1 PUSH2 0x100 EXP SWAP1 DIV PUSH1 0x1 PUSH1 0x1 PUSH1 0xA0 SHL SUB AND PUSH1 0x1 PUSH1 0x1 PUSH1 0xA0 SHL SUB AND PUSH1 0x1 PUSH1 0x1 PUSH1 0xA0 SHL SUB AND DUP2 MSTORE PUSH1 0x20 ADD PUSH1 0x2 DUP3 ADD DUP1 SLOAD PUSH2 0x35DA SWAP1 PUSH2 0x5B9E JUMP JUMPDEST DUP1 PUSH1 0x1F ADD PUSH1 0x20 DUP1 SWAP2 DIV MUL PUSH1 0x20 ADD PUSH1 0x40 MLOAD SWAP1 DUP2 ADD PUSH1 0x40 MSTORE DUP1 SWAP3 SWAP2 SWAP1 DUP2 DUP2 MSTORE PUSH1 0x20 ADD DUP3 DUP1 SLOAD PUSH2 0x3606 SWAP1 PUSH2 0x5B9E JUMP JUMPDEST DUP1 ISZERO PUSH2 0x3653 JUMPI DUP1 PUSH1 0x1F LT PUSH2 0x3628 JUMPI PUSH2 0x100 DUP1 DUP4 SLOAD DIV MUL DUP4 MSTORE SWAP2 PUSH1 0x20 ADD SWAP2 PUSH2 0x3653 JUMP JUMPDEST DUP3 ADD SWAP2 SWAP1 PUSH1 0x0 MSTORE PUSH1 0x20 PUSH1 0x0 KECCAK256 SWAP1 JUMPDEST DUP2 SLOAD DUP2 MSTORE SWAP1 PUSH1 0x1 ADD SWAP1 PUSH1 0x20 ADD DUP1 DUP4 GT PUSH2 0x3636 JUMPI DUP3 SWAP1 SUB PUSH1 0x1F AND DUP3 ADD SWAP2 JUMPDEST POP POP POP POP POP DUP2 MSTORE PUSH1 0x20 ADD PUSH1 0x3 DUP3 ADD DUP1 SLOAD PUSH2 0x366C SWAP1 PUSH2 0x5B9E JUMP JUMPDEST DUP1 PUSH1 0x1F ADD PUSH1 0x20 DUP1 SWAP2 DIV MUL PUSH1 0x20 ADD PUSH1 0x40 MLOAD SWAP1 DUP2 ADD PUSH1 0x40 MSTORE DUP1 SWAP3 SWAP2 SWAP1 DUP2 DUP2 MSTORE PUSH1 0x20 ADD DUP3 DUP1 SLOAD PUSH2 0x3698 SWAP1 PUSH2 0x5B9E JUMP JUMPDEST DUP1 ISZERO PUSH2 0x36E5 JUMPI DUP1 PUSH1 0x1F LT PUSH2 0x36BA JUMPI PUSH2 0x100 DUP1 DUP4 SLOAD DIV MUL DUP4 MSTORE SWAP2 PUSH1 0x20 ADD SWAP2 PUSH2 0x36E5 JUMP JUMPDEST DUP3 ADD SWAP2 SWAP1 PUSH1 0x0 MSTORE PUSH1 0x20 PUSH1 0x0 KECCAK256 SWAP1 JUMPDEST DUP2 SLOAD DUP2 MSTORE SWAP1 PUSH1 0x1 ADD SWAP1 PUSH1 0x20 ADD DUP1 DUP4 GT PUSH2 0x36C8 JUMPI DUP3 SWAP1 SUB PUSH1 0x1F AND DUP3 ADD SWAP2 JUMPDEST POP POP POP POP POP DUP2 MSTORE PUSH1 0x20 ADD PUSH1 0x4 DUP3 ADD DUP1 SLOAD PUSH2 0x36FE SWAP1 PUSH2 0x5B9E JUMP JUMPDEST DUP1 PUSH1 0x1F ADD PUSH1 0x20 DUP1 SWAP2 DIV MUL PUSH1 0x20 ADD PUSH1 0x40 MLOAD SWAP1 DUP2 ADD PUSH1 0x40 MSTORE DUP1 SWAP3 SWAP2 SWAP1 DUP2 DUP2 MSTORE PUSH1 0x20 ADD DUP3 DUP1 SLOAD PUSH2 0x372A SWAP1 PUSH2 0x5B9E JUMP JUMPDEST DUP1 ISZERO PUSH2 0x3777 JUMPI DUP1 PUSH1 0x1F LT PUSH2 0x374C JUMPI PUSH2 0x100 DUP1 DUP4 SLOAD DIV MUL DUP4 MSTORE SWAP2 PUSH1 0x20 ADD SWAP2 PUSH2 0x3777 JUMP JUMPDEST DUP3 ADD SWAP2 SWAP1 PUSH1 0x0 MSTORE PUSH1 0x20 PUSH1 0x0 KECCAK256 SWAP1 JUMPDEST DUP2 SLOAD DUP2 MSTORE SWAP1 PUSH1 0x1 ADD SWAP1 PUSH1 0x20 ADD DUP1 DUP4 GT PUSH2 0x375A JUMPI DUP3 SWAP1 SUB PUSH1 0x1F AND DUP3 ADD SWAP2 JUMPDEST POP POP POP SWAP2 DUP4 MSTORE POP POP PUSH1 0x5 DUP3 ADD SLOAD PUSH1 0x20 DUP3 ADD MSTORE PUSH1 0x6 DUP3 ADD SLOAD PUSH1 0x40 DUP3 ADD MSTORE PUSH1 0x7 DUP3 ADD SLOAD PUSH1 0x60 DUP3 ADD MSTORE PUSH1 0x8 DUP3 ADD SLOAD PUSH1 0x80 DUP3 ADD MSTORE PUSH1 0x9 DUP3 ADD SLOAD PUSH1 0xFF DUP1 DUP3 AND ISZERO ISZERO PUSH1 0xA0 DUP5 ADD MSTORE PUSH2 0x100 DUP1 DUP4 DIV DUP3 AND ISZERO ISZERO PUSH1 0xC0 DUP6 ADD MSTORE PUSH3 0x10000 SWAP1 SWAP3 DIV DUP2 AND ISZERO ISZERO PUSH1 0xE0 DUP5 ADD MSTORE PUSH1 0xA DUP5 ADD SLOAD DUP3 DUP5 ADD MSTORE PUSH1 0xB DUP5 ADD SLOAD DUP1 DUP3 AND ISZERO ISZERO PUSH2 0x120 DUP6 ADD MSTORE SWAP2 SWAP1 SWAP2 DIV AND ISZERO ISZERO PUSH2 0x140 DUP1 DUP4 ADD SWAP2 SWAP1 SWAP2 MSTORE PUSH1 0xC DUP4 ADD SLOAD PUSH2 0x160 DUP4 ADD MSTORE PUSH1 0xD SWAP1 SWAP3 ADD SLOAD PUSH2 0x180 SWAP1 SWAP2 ADD MSTORE DUP2 ADD MLOAD SWAP1 SWAP2 POP ISZERO PUSH2 0x3832 JUMPI DUP3 PUSH2 0x382E DUP2 PUSH2 0x5B85 JUMP JUMPDEST SWAP4 POP POP JUMPDEST POP DUP1 PUSH2 0x383D DUP2 PUSH2 0x5B85 JUMP JUMPDEST SWAP2 POP POP PUSH2 0x3558 JUMP JUMPDEST POP SWAP2 SWAP1 POP JUMP JUMPDEST PUSH2 0x3853 PUSH2 0x50B8 JUMP JUMPDEST PUSH1 0x0 PUSH2 0x385E DUP4 PUSH2 0x29B6 JUMP JUMPDEST PUSH1 0x1 PUSH2 0x140 DUP3 ADD DUP2 SWAP1 MSTORE DUP1 SLOAD SWAP2 SWAP3 POP DUP3 SWAP2 DUP6 SWAP1 DUP2 LT PUSH2 0x387F JUMPI PUSH2 0x387F PUSH2 0x5B59 JUMP JUMPDEST PUSH1 0x0 SWAP2 DUP3 MSTORE PUSH1 0x20 SWAP2 DUP3 SWAP1 KECCAK256 DUP4 MLOAD PUSH1 0xE SWAP3 SWAP1 SWAP3 MUL ADD SWAP1 DUP2 SSTORE SWAP1 DUP3 ADD MLOAD PUSH1 0x1 DUP3 ADD DUP1 SLOAD PUSH1 0x1 PUSH1 0x1 PUSH1 0xA0 SHL SUB NOT AND PUSH1 0x1 PUSH1 0x1 PUSH1 0xA0 SHL SUB SWAP1 SWAP3 AND SWAP2 SWAP1 SWAP2 OR SWAP1 SSTORE PUSH1 0x40 DUP3 ADD MLOAD PUSH1 0x2 DUP3 ADD SWAP1 PUSH2 0x38CF SWAP1 DUP3 PUSH2 0x5C33 JUMP JUMPDEST POP PUSH1 0x60 DUP3 ADD MLOAD PUSH1 0x3 DUP3 ADD SWAP1 PUSH2 0x38E4 SWAP1 DUP3 PUSH2 0x5C33 JUMP JUMPDEST POP PUSH1 0x80 DUP3 ADD MLOAD PUSH1 0x4 DUP3 ADD SWAP1 PUSH2 0x38F9 SWAP1 DUP3 PUSH2 0x5C33 JUMP JUMPDEST POP PUSH1 0xA0 DUP3 ADD MLOAD PUSH1 0x5 DUP3 ADD SSTORE PUSH1 0xC0 DUP3 ADD MLOAD PUSH1 0x6 DUP3 ADD SSTORE PUSH1 0xE0 DUP3 ADD MLOAD PUSH1 0x7 DUP3 ADD SSTORE PUSH2 0x100 DUP1 DUP4 ADD MLOAD PUSH1 0x8 DUP4 ADD SSTORE PUSH2 0x120 DUP4 ADD MLOAD PUSH1 0x9 DUP4 ADD DUP1 SLOAD PUSH2 0x140 DUP7 ADD MLOAD PUSH2 0x160 DUP8 ADD MLOAD ISZERO ISZERO PUSH3 0x10000 MUL PUSH3 0xFF0000 NOT SWAP2 ISZERO ISZERO DUP7 MUL PUSH2 0xFF00 NOT SWAP6 ISZERO ISZERO DUP7 AND PUSH2 0xFFFF NOT SWAP5 DUP6 AND OR OR SWAP2 SWAP1 SWAP2 AND OR SWAP1 SWAP2 SSTORE PUSH2 0x180 DUP6 ADD MLOAD PUSH1 0xA DUP6 ADD SSTORE PUSH2 0x1A0 DUP6 ADD MLOAD PUSH1 0xB DUP6 ADD DUP1 SLOAD PUSH2 0x1C0 DUP9 ADD MLOAD ISZERO ISZERO SWAP1 SWAP6 MUL SWAP2 ISZERO ISZERO SWAP1 SWAP4 AND SWAP4 SWAP1 SWAP2 AND SWAP3 SWAP1 SWAP3 OR SWAP2 SWAP1 SWAP2 OR SWAP1 SSTORE PUSH2 0x1E0 DUP3 ADD MLOAD PUSH1 0xC DUP3 ADD SSTORE PUSH2 0x200 SWAP1 SWAP2 ADD MLOAD PUSH1 0xD SWAP1 SWAP2 ADD SSTORE SWAP3 SWAP2 POP POP JUMP JUMPDEST PUSH2 0x39C3 PUSH2 0x5070 JUMP JUMPDEST PUSH1 0x0 JUMPDEST PUSH1 0x2 SLOAD DUP2 LT ISZERO PUSH2 0x3A98 JUMPI PUSH1 0x0 PUSH1 0x2 DUP3 DUP2 SLOAD DUP2 LT PUSH2 0x39E5 JUMPI PUSH2 0x39E5 PUSH2 0x5B59 JUMP JUMPDEST PUSH1 0x0 SWAP2 DUP3 MSTORE PUSH1 0x20 SWAP2 DUP3 SWAP1 KECCAK256 PUSH1 0x40 DUP1 MLOAD PUSH1 0xE0 DUP2 ADD DUP3 MSTORE PUSH1 0x7 SWAP1 SWAP4 MUL SWAP1 SWAP2 ADD DUP1 SLOAD DUP4 MSTORE PUSH1 0x1 DUP2 ADD SLOAD SWAP4 DUP4 ADD DUP5 SWAP1 MSTORE PUSH1 0x2 DUP2 ADD SLOAD PUSH1 0x1 PUSH1 0x1 PUSH1 0xA0 SHL SUB AND SWAP2 DUP4 ADD SWAP2 SWAP1 SWAP2 MSTORE PUSH1 0x3 DUP2 ADD SLOAD PUSH1 0x60 DUP4 ADD MSTORE PUSH1 0x4 DUP2 ADD SLOAD PUSH1 0xFF AND ISZERO ISZERO PUSH1 0x80 DUP4 ADD MSTORE PUSH1 0x5 DUP2 ADD SLOAD PUSH1 0xA0 DUP4 ADD MSTORE PUSH1 0x6 ADD SLOAD PUSH1 0xC0 DUP3 ADD MSTORE SWAP2 POP DUP6 EQ DUP1 ISZERO PUSH2 0x3A77 JUMPI POP DUP4 PUSH1 0x1 PUSH1 0x1 PUSH1 0xA0 SHL SUB AND DUP2 PUSH1 0x40 ADD MLOAD PUSH1 0x1 PUSH1 0x1 PUSH1 0xA0 SHL SUB AND EQ JUMPDEST ISZERO PUSH2 0x3A85 JUMPI SWAP2 POP PUSH2 0x1D0E SWAP1 POP JUMP JUMPDEST POP DUP1 PUSH2 0x3A90 DUP2 PUSH2 0x5B85 JUMP JUMPDEST SWAP2 POP POP PUSH2 0x39C6 JUMP JUMPDEST POP PUSH2 0x3AA1 PUSH2 0x5070 JUMP JUMPDEST PUSH1 0x1 PUSH1 0x80 DUP3 ADD MSTORE SWAP4 SWAP3 POP POP POP JUMP JUMPDEST PUSH1 0x0 DUP1 PUSH2 0x3ABB DUP4 PUSH2 0x5D7 JUMP JUMPDEST SWAP1 POP PUSH1 0x0 JUMPDEST DUP2 MLOAD DUP2 LT ISZERO PUSH2 0x3B11 JUMPI PUSH1 0x0 DUP3 DUP3 DUP2 MLOAD DUP2 LT PUSH2 0x3ADD JUMPI PUSH2 0x3ADD PUSH2 0x5B59 JUMP JUMPDEST PUSH1 0x20 MUL PUSH1 0x20 ADD ADD MLOAD SWAP1 POP DUP6 DUP2 PUSH1 0x20 ADD MLOAD SUB PUSH2 0x3AFE JUMPI PUSH1 0x1 SWAP4 POP POP POP POP PUSH2 0x1D0E JUMP JUMPDEST POP DUP1 PUSH2 0x3B09 DUP2 PUSH2 0x5B85 JUMP JUMPDEST SWAP2 POP POP PUSH2 0x3AC0 JUMP JUMPDEST POP PUSH1 0x0 SWAP5 SWAP4 POP POP POP POP JUMP JUMPDEST PUSH1 0x0 DUP1 DUP4 DUP1 PUSH1 0x20 ADD SWAP1 MLOAD DUP2 ADD SWAP1 PUSH2 0x3B33 SWAP2 SWAP1 PUSH2 0x5E60 JUMP JUMPDEST SWAP2 POP SWAP2 POP PUSH1 0x0 DUP1 DUP4 DUP2 SLOAD DUP2 LT PUSH2 0x3B4B JUMPI PUSH2 0x3B4B PUSH2 0x5B59 JUMP JUMPDEST SWAP1 PUSH1 0x0 MSTORE PUSH1 0x20 PUSH1 0x0 KECCAK256 SWAP1 PUSH1 0x6 MUL ADD PUSH1 0x40 MLOAD DUP1 PUSH2 0x100 ADD PUSH1 0x40 MSTORE SWAP1 DUP2 PUSH1 0x0 DUP3 ADD SLOAD DUP2 MSTORE PUSH1 0x20 ADD PUSH1 0x1 DUP3 ADD PUSH1 0x0 SWAP1 SLOAD SWAP1 PUSH2 0x100 EXP SWAP1 DIV PUSH1 0x1 PUSH1 0x1 PUSH1 0xA0 SHL SUB AND PUSH1 0x1 PUSH1 0x1 PUSH1 0xA0 SHL SUB AND PUSH1 0x1 PUSH1 0x1 PUSH1 0xA0 SHL SUB AND DUP2 MSTORE PUSH1 0x20 ADD PUSH1 0x2 DUP3 ADD DUP1 SLOAD PUSH2 0x3BAE SWAP1 PUSH2 0x5B9E JUMP JUMPDEST DUP1 PUSH1 0x1F ADD PUSH1 0x20 DUP1 SWAP2 DIV MUL PUSH1 0x20 ADD PUSH1 0x40 MLOAD SWAP1 DUP2 ADD PUSH1 0x40 MSTORE DUP1 SWAP3 SWAP2 SWAP1 DUP2 DUP2 MSTORE PUSH1 0x20 ADD DUP3 DUP1 SLOAD PUSH2 0x3BDA SWAP1 PUSH2 0x5B9E JUMP JUMPDEST DUP1 ISZERO PUSH2 0x3C27 JUMPI DUP1 PUSH1 0x1F LT PUSH2 0x3BFC JUMPI PUSH2 0x100 DUP1 DUP4 SLOAD DIV MUL DUP4 MSTORE SWAP2 PUSH1 0x20 ADD SWAP2 PUSH2 0x3C27 JUMP JUMPDEST DUP3 ADD SWAP2 SWAP1 PUSH1 0x0 MSTORE PUSH1 0x20 PUSH1 0x0 KECCAK256 SWAP1 JUMPDEST DUP2 SLOAD DUP2 MSTORE SWAP1 PUSH1 0x1 ADD SWAP1 PUSH1 0x20 ADD DUP1 DUP4 GT PUSH2 0x3C0A JUMPI DUP3 SWAP1 SUB PUSH1 0x1F AND DUP3 ADD SWAP2 JUMPDEST POP POP POP POP POP DUP2 MSTORE PUSH1 0x20 ADD PUSH1 0x3 DUP3 ADD DUP1 SLOAD PUSH2 0x3C40 SWAP1 PUSH2 0x5B9E JUMP JUMPDEST DUP1 PUSH1 0x1F ADD PUSH1 0x20 DUP1 SWAP2 DIV MUL PUSH1 0x20 ADD PUSH1 0x40 MLOAD SWAP1 DUP2 ADD PUSH1 0x40 MSTORE DUP1 SWAP3 SWAP2 SWAP1 DUP2 DUP2 MSTORE PUSH1 0x20 ADD DUP3 DUP1 SLOAD PUSH2 0x3C6C SWAP1 PUSH2 0x5B9E JUMP JUMPDEST DUP1 ISZERO PUSH2 0x3CB9 JUMPI DUP1 PUSH1 0x1F LT PUSH2 0x3C8E JUMPI PUSH2 0x100 DUP1 DUP4 SLOAD DIV MUL DUP4 MSTORE SWAP2 PUSH1 0x20 ADD SWAP2 PUSH2 0x3CB9 JUMP JUMPDEST DUP3 ADD SWAP2 SWAP1 PUSH1 0x0 MSTORE PUSH1 0x20 PUSH1 0x0 KECCAK256 SWAP1 JUMPDEST DUP2 SLOAD DUP2 MSTORE SWAP1 PUSH1 0x1 ADD SWAP1 PUSH1 0x20 ADD DUP1 DUP4 GT PUSH2 0x3C9C JUMPI DUP3 SWAP1 SUB PUSH1 0x1F AND DUP3 ADD SWAP2 JUMPDEST POP POP POP SWAP2 DUP4 MSTORE POP POP PUSH1 0x4 DUP3 ADD SLOAD PUSH1 0xFF DUP1 DUP3 AND ISZERO ISZERO PUSH1 0x20 DUP5 ADD MSTORE PUSH2 0x100 DUP3 DIV DUP2 AND ISZERO ISZERO PUSH1 0x40 DUP5 ADD MSTORE PUSH3 0x10000 SWAP1 SWAP2 DIV AND ISZERO ISZERO PUSH1 0x60 DUP3 ADD MSTORE PUSH1 0x5 SWAP1 SWAP2 ADD SLOAD PUSH1 0x80 SWAP1 SWAP2 ADD MSTORE PUSH1 0xA0 DUP2 ADD MLOAD SWAP1 SWAP2 POP PUSH2 0x3DEB JUMPI PUSH1 0x1 PUSH1 0xC0 DUP3 ADD MSTORE PUSH1 0xE0 DUP2 ADD DUP7 SWAP1 MSTORE PUSH1 0x0 DUP1 SLOAD DUP3 SWAP2 SWAP1 DUP6 SWAP1 DUP2 LT PUSH2 0x3D2C JUMPI PUSH2 0x3D2C PUSH2 0x5B59 JUMP JUMPDEST PUSH1 0x0 SWAP2 DUP3 MSTORE PUSH1 0x20 SWAP2 DUP3 SWAP1 KECCAK256 DUP4 MLOAD PUSH1 0x6 SWAP3 SWAP1 SWAP3 MUL ADD SWAP1 DUP2 SSTORE SWAP1 DUP3 ADD MLOAD PUSH1 0x1 DUP3 ADD DUP1 SLOAD PUSH1 0x1 PUSH1 0x1 PUSH1 0xA0 SHL SUB NOT AND PUSH1 0x1 PUSH1 0x1 PUSH1 0xA0 SHL SUB SWAP1 SWAP3 AND SWAP2 SWAP1 SWAP2 OR SWAP1 SSTORE PUSH1 0x40 DUP3 ADD MLOAD PUSH1 0x2 DUP3 ADD SWAP1 PUSH2 0x3D7C SWAP1 DUP3 PUSH2 0x5C33 JUMP JUMPDEST POP PUSH1 0x60 DUP3 ADD MLOAD PUSH1 0x3 DUP3 ADD SWAP1 PUSH2 0x3D91 SWAP1 DUP3 PUSH2 0x5C33 JUMP JUMPDEST POP PUSH1 0x80 DUP3 ADD MLOAD PUSH1 0x4 DUP3 ADD DUP1 SLOAD PUSH1 0xA0 DUP6 ADD MLOAD PUSH1 0xC0 DUP7 ADD MLOAD ISZERO ISZERO PUSH3 0x10000 MUL PUSH3 0xFF0000 NOT SWAP2 ISZERO ISZERO PUSH2 0x100 MUL PUSH2 0xFF00 NOT SWAP6 ISZERO ISZERO SWAP6 SWAP1 SWAP6 AND PUSH2 0xFFFF NOT SWAP1 SWAP4 AND SWAP3 SWAP1 SWAP3 OR SWAP4 SWAP1 SWAP4 OR SWAP3 SWAP1 SWAP3 AND SWAP2 SWAP1 SWAP2 OR SWAP1 SSTORE PUSH1 0xE0 SWAP1 SWAP2 ADD MLOAD PUSH1 0x5 SWAP1 SWAP2 ADD SSTORE JUMPDEST PUSH1 0x5 PUSH2 0x3DF7 DUP6 DUP3 PUSH2 0x5C33 JUMP JUMPDEST POP POP POP POP POP POP POP JUMP JUMPDEST PUSH1 0x0 PUSH2 0x3E0B DUP4 PUSH2 0x87C JUMP JUMPDEST SWAP1 POP DUP1 PUSH2 0x120 ADD MLOAD PUSH2 0x3E41 JUMPI PUSH2 0x3E3F DUP2 PUSH1 0x0 ADD MLOAD DUP4 PUSH1 0x0 DUP2 MLOAD DUP2 LT PUSH2 0x3E32 JUMPI PUSH2 0x3E32 PUSH2 0x5B59 JUMP JUMPDEST PUSH1 0x20 MUL PUSH1 0x20 ADD ADD MLOAD PUSH2 0x4966 JUMP JUMPDEST POP JUMPDEST PUSH1 0x0 PUSH2 0x3E4C DUP5 PUSH2 0x71F JUMP JUMPDEST SWAP1 POP DUP1 PUSH1 0x80 ADD MLOAD PUSH2 0x3E81 JUMPI PUSH2 0x3E7F DUP2 PUSH1 0x0 ADD MLOAD DUP5 PUSH1 0x0 DUP2 MLOAD DUP2 LT PUSH2 0x3E72 JUMPI PUSH2 0x3E72 PUSH2 0x5B59 JUMP JUMPDEST PUSH1 0x20 MUL PUSH1 0x20 ADD ADD MLOAD PUSH2 0x4ADE JUMP JUMPDEST POP JUMPDEST POP POP POP POP JUMP JUMPDEST PUSH1 0x40 MLOAD PUSH4 0x10C1B4D5 PUSH1 0xE2 SHL DUP2 MSTORE PUSH4 0xFFFFFFFF DUP5 AND PUSH1 0x4 DUP3 ADD MSTORE PUSH1 0x0 SWAP1 PUSH1 0x1 PUSH1 0x1 PUSH1 0xA0 SHL SUB PUSH32 0x0 DUP2 AND SWAP2 PUSH4 0x4000AEA0 SWAP2 PUSH32 0x0 SWAP2 SWAP1 DUP3 AND SWAP1 PUSH4 0x4306D354 SWAP1 PUSH1 0x24 ADD PUSH1 0x20 PUSH1 0x40 MLOAD DUP1 DUP4 SUB DUP2 DUP7 GAS STATICCALL ISZERO DUP1 ISZERO PUSH2 0x3F21 JUMPI RETURNDATASIZE PUSH1 0x0 DUP1 RETURNDATACOPY RETURNDATASIZE PUSH1 0x0 REVERT JUMPDEST POP POP POP POP PUSH1 0x40 MLOAD RETURNDATASIZE PUSH1 0x1F NOT PUSH1 0x1F DUP3 ADD AND DUP3 ADD DUP1 PUSH1 0x40 MSTORE POP DUP2 ADD SWAP1 PUSH2 0x3F45 SWAP2 SWAP1 PUSH2 0x5E90 JUMP JUMPDEST PUSH1 0x40 DUP1 MLOAD PUSH4 0xFFFFFFFF DUP1 DUP12 AND PUSH1 0x20 DUP4 ADD MSTORE PUSH2 0xFFFF DUP11 AND SWAP3 DUP3 ADD SWAP3 SWAP1 SWAP3 MSTORE SWAP1 DUP8 AND PUSH1 0x60 DUP3 ADD MSTORE PUSH1 0x80 ADD PUSH1 0x40 MLOAD PUSH1 0x20 DUP2 DUP4 SUB SUB DUP2 MSTORE SWAP1 PUSH1 0x40 MSTORE PUSH1 0x40 MLOAD DUP5 PUSH4 0xFFFFFFFF AND PUSH1 0xE0 SHL DUP2 MSTORE PUSH1 0x4 ADD PUSH2 0x3F9A SWAP4 SWAP3 SWAP2 SWAP1 PUSH2 0x5EA9 JUMP JUMPDEST PUSH1 0x20 PUSH1 0x40 MLOAD DUP1 DUP4 SUB DUP2 PUSH1 0x0 DUP8 GAS CALL ISZERO DUP1 ISZERO PUSH2 0x3FB9 JUMPI RETURNDATASIZE PUSH1 0x0 DUP1 RETURNDATACOPY RETURNDATASIZE PUSH1 0x0 REVERT JUMPDEST POP POP POP POP PUSH1 0x40 MLOAD RETURNDATASIZE PUSH1 0x1F NOT PUSH1 0x1F DUP3 ADD AND DUP3 ADD DUP1 PUSH1 0x40 MSTORE POP DUP2 ADD SWAP1 PUSH2 0x3FDD SWAP2 SWAP1 PUSH2 0x5D33 JUMP JUMPDEST POP PUSH32 0x0 PUSH1 0x1 PUSH1 0x1 PUSH1 0xA0 SHL SUB AND PUSH4 0xFC2A88C3 PUSH1 0x40 MLOAD DUP2 PUSH4 0xFFFFFFFF AND PUSH1 0xE0 SHL DUP2 MSTORE PUSH1 0x4 ADD PUSH1 0x20 PUSH1 0x40 MLOAD DUP1 DUP4 SUB DUP2 DUP7 GAS STATICCALL ISZERO DUP1 ISZERO PUSH2 0x403C JUMPI RETURNDATASIZE PUSH1 0x0 DUP1 RETURNDATACOPY RETURNDATASIZE PUSH1 0x0 REVERT JUMPDEST POP POP POP POP PUSH1 0x40 MLOAD RETURNDATASIZE PUSH1 0x1F NOT PUSH1 0x1F DUP3 ADD AND DUP3 ADD DUP1 PUSH1 0x40 MSTORE POP DUP2 ADD SWAP1 PUSH2 0x4060 SWAP2 SWAP1 PUSH2 0x5E90 JUMP JUMPDEST SWAP5 SWAP4 POP POP POP POP JUMP JUMPDEST PUSH2 0x4070 PUSH2 0x50B8 JUMP JUMPDEST PUSH1 0x0 PUSH2 0x407B DUP5 PUSH2 0x29B6 JUMP JUMPDEST SWAP1 POP PUSH1 0x0 PUSH1 0xA DUP3 PUSH1 0xA0 ADD MLOAD PUSH2 0x4090 SWAP2 SWAP1 PUSH2 0x5D1F JUMP JUMPDEST PUSH1 0x1 PUSH2 0x160 DUP5 ADD DUP2 SWAP1 MSTORE TIMESTAMP PUSH1 0xE0 DUP6 ADD MSTORE PUSH2 0x180 DUP5 ADD DUP3 SWAP1 MSTORE PUSH2 0x1E0 DUP5 ADD DUP7 SWAP1 MSTORE DUP1 SLOAD SWAP2 SWAP3 POP DUP4 SWAP2 DUP8 SWAP1 DUP2 LT PUSH2 0x40C7 JUMPI PUSH2 0x40C7 PUSH2 0x5B59 JUMP JUMPDEST PUSH1 0x0 SWAP2 DUP3 MSTORE PUSH1 0x20 SWAP2 DUP3 SWAP1 KECCAK256 DUP4 MLOAD PUSH1 0xE SWAP3 SWAP1 SWAP3 MUL ADD SWAP1 DUP2 SSTORE SWAP1 DUP3 ADD MLOAD PUSH1 0x1 DUP3 ADD DUP1 SLOAD PUSH1 0x1 PUSH1 0x1 PUSH1 0xA0 SHL SUB NOT AND PUSH1 0x1 PUSH1 0x1 PUSH1 0xA0 SHL SUB SWAP1 SWAP3 AND SWAP2 SWAP1 SWAP2 OR SWAP1 SSTORE PUSH1 0x40 DUP3 ADD MLOAD PUSH1 0x2 DUP3 ADD SWAP1 PUSH2 0x4117 SWAP1 DUP3 PUSH2 0x5C33 JUMP JUMPDEST POP PUSH1 0x60 DUP3 ADD MLOAD PUSH1 0x3 DUP3 ADD SWAP1 PUSH2 0x412C SWAP1 DUP3 PUSH2 0x5C33 JUMP JUMPDEST POP PUSH1 0x80 DUP3 ADD MLOAD PUSH1 0x4 DUP3 ADD SWAP1 PUSH2 0x4141 SWAP1 DUP3 PUSH2 0x5C33 JUMP JUMPDEST POP PUSH1 0xA0 DUP3 ADD MLOAD PUSH1 0x5 DUP3 ADD SSTORE PUSH1 0xC0 DUP3 ADD MLOAD PUSH1 0x6 DUP3 ADD SSTORE PUSH1 0xE0 DUP3 ADD MLOAD PUSH1 0x7 DUP3 ADD SSTORE PUSH2 0x100 DUP1 DUP4 ADD MLOAD PUSH1 0x8 DUP4 ADD SSTORE PUSH2 0x120 DUP4 ADD MLOAD PUSH1 0x9 DUP4 ADD DUP1 SLOAD PUSH2 0x140 DUP7 ADD MLOAD PUSH2 0x160 DUP8 ADD MLOAD ISZERO ISZERO PUSH3 0x10000 MUL PUSH3 0xFF0000 NOT SWAP2 ISZERO ISZERO DUP7 MUL PUSH2 0xFF00 NOT SWAP6 ISZERO ISZERO DUP7 AND PUSH2 0xFFFF NOT SWAP5 DUP6 AND OR OR SWAP2 SWAP1 SWAP2 AND OR SWAP1 SWAP2 SSTORE PUSH2 0x180 DUP6 ADD MLOAD PUSH1 0xA DUP6 ADD SSTORE PUSH2 0x1A0 DUP6 ADD MLOAD PUSH1 0xB DUP6 ADD DUP1 SLOAD PUSH2 0x1C0 DUP9 ADD MLOAD ISZERO ISZERO SWAP1 SWAP6 MUL SWAP2 ISZERO ISZERO SWAP1 SWAP4 AND SWAP4 SWAP1 SWAP2 AND SWAP3 SWAP1 SWAP3 OR SWAP2 SWAP1 SWAP2 OR SWAP1 SSTORE PUSH2 0x1E0 DUP3 ADD MLOAD PUSH1 0xC DUP3 ADD SSTORE PUSH2 0x200 SWAP1 SWAP2 ADD MLOAD PUSH1 0xD SWAP1 SWAP2 ADD SSTORE POP SWAP1 POP SWAP3 SWAP2 POP POP JUMP JUMPDEST PUSH2 0x878 DUP3 PUSH1 0x0 DUP1 DUP5 PUSH2 0x4B81 JUMP JUMPDEST DUP1 MLOAD PUSH1 0x0 SUB PUSH2 0x4235 JUMPI PUSH1 0x40 MLOAD PUSH4 0xE889636F PUSH1 0xE0 SHL DUP2 MSTORE PUSH1 0x4 ADD PUSH1 0x40 MLOAD DUP1 SWAP2 SUB SWAP1 REVERT JUMPDEST PUSH1 0x1 PUSH1 0x20 DUP4 ADD MSTORE PUSH1 0x80 SWAP1 SWAP2 ADD MSTORE JUMP JUMPDEST PUSH1 0x0 PUSH2 0x4251 PUSH2 0x100 PUSH2 0x4BFF JUMP JUMPDEST SWAP1 POP PUSH2 0x4284 PUSH1 0x40 MLOAD DUP1 PUSH1 0x40 ADD PUSH1 0x40 MSTORE DUP1 PUSH1 0x6 DUP2 MSTORE PUSH1 0x20 ADD PUSH6 0x1CDB1BDD1251 PUSH1 0xD2 SHL DUP2 MSTORE POP DUP3 PUSH2 0x4C20 SWAP1 SWAP2 SWAP1 PUSH4 0xFFFFFFFF AND JUMP JUMPDEST PUSH2 0x4291 DUP2 PUSH1 0xFF DUP6 AND PUSH2 0x4C3E JUMP JUMPDEST PUSH1 0x40 DUP1 MLOAD DUP1 DUP3 ADD SWAP1 SWAP2 MSTORE PUSH1 0x7 DUP2 MSTORE PUSH7 0x3B32B939B4B7B7 PUSH1 0xC9 SHL PUSH1 0x20 DUP3 ADD MSTORE PUSH2 0x42BA SWAP1 DUP3 SWAP1 PUSH2 0x4C20 JUMP JUMPDEST PUSH2 0x42C4 DUP2 DUP4 PUSH2 0x4C3E JUMP JUMPDEST PUSH1 0x2 PUSH1 0x20 DUP6 ADD MSTORE MLOAD MLOAD PUSH1 0x80 SWAP1 SWAP4 ADD SWAP3 SWAP1 SWAP3 MSTORE POP POP JUMP JUMPDEST DUP1 MLOAD PUSH1 0x0 SUB PUSH2 0x42FC JUMPI PUSH1 0x40 MLOAD PUSH4 0xFE936CB7 PUSH1 0xE0 SHL DUP2 MSTORE PUSH1 0x4 ADD PUSH1 0x40 MLOAD DUP1 SWAP2 SUB SWAP1 REVERT JUMPDEST PUSH1 0xA0 SWAP1 SWAP2 ADD MSTORE JUMP JUMPDEST DUP1 MLOAD PUSH1 0x0 SUB PUSH2 0x4326 JUMPI PUSH1 0x40 MLOAD PUSH4 0xFE936CB7 PUSH1 0xE0 SHL DUP2 MSTORE PUSH1 0x4 ADD PUSH1 0x40 MLOAD DUP1 SWAP2 SUB SWAP1 REVERT JUMPDEST PUSH1 0xC0 SWAP1 SWAP2 ADD MSTORE JUMP JUMPDEST PUSH1 0x60 PUSH1 0x0 PUSH2 0x433D PUSH2 0x100 PUSH2 0x4BFF JUMP JUMPDEST SWAP1 POP PUSH2 0x4376 PUSH1 0x40 MLOAD DUP1 PUSH1 0x40 ADD PUSH1 0x40 MSTORE DUP1 PUSH1 0xC DUP2 MSTORE PUSH1 0x20 ADD PUSH12 0x31B7B232A637B1B0BA34B7B7 PUSH1 0xA1 SHL DUP2 MSTORE POP DUP3 PUSH2 0x4C20 SWAP1 SWAP2 SWAP1 PUSH4 0xFFFFFFFF AND JUMP JUMPDEST DUP3 MLOAD PUSH2 0x4394 SWAP1 PUSH1 0x2 DUP2 GT ISZERO PUSH2 0x438D JUMPI PUSH2 0x438D PUSH2 0x5ED9 JUMP JUMPDEST DUP3 SWAP1 PUSH2 0x4C4A JUMP JUMPDEST PUSH1 0x40 DUP1 MLOAD DUP1 DUP3 ADD SWAP1 SWAP2 MSTORE PUSH1 0x8 DUP2 MSTORE PUSH8 0x6C616E6775616765 PUSH1 0xC0 SHL PUSH1 0x20 DUP3 ADD MSTORE PUSH2 0x43BE SWAP1 DUP3 SWAP1 PUSH2 0x4C20 JUMP JUMPDEST PUSH1 0x40 DUP4 ADD MLOAD PUSH2 0x43D5 SWAP1 DUP1 ISZERO PUSH2 0x438D JUMPI PUSH2 0x438D PUSH2 0x5ED9 JUMP JUMPDEST PUSH1 0x40 DUP1 MLOAD DUP1 DUP3 ADD SWAP1 SWAP2 MSTORE PUSH1 0x6 DUP2 MSTORE PUSH6 0x736F75726365 PUSH1 0xD0 SHL PUSH1 0x20 DUP3 ADD MSTORE PUSH2 0x43FD SWAP1 DUP3 SWAP1 PUSH2 0x4C20 JUMP JUMPDEST PUSH1 0x60 DUP4 ADD MLOAD PUSH2 0x440D SWAP1 DUP3 SWAP1 PUSH2 0x4C20 JUMP JUMPDEST PUSH1 0xA0 DUP4 ADD MLOAD MLOAD ISZERO PUSH2 0x44A1 JUMPI PUSH1 0x40 DUP1 MLOAD DUP1 DUP3 ADD SWAP1 SWAP2 MSTORE PUSH1 0x4 DUP2 MSTORE PUSH4 0x61726773 PUSH1 0xE0 SHL PUSH1 0x20 DUP3 ADD MSTORE PUSH2 0x443E SWAP1 DUP3 SWAP1 PUSH2 0x4C20 JUMP JUMPDEST PUSH2 0x4447 DUP2 PUSH2 0x4C83 JUMP JUMPDEST PUSH1 0x0 JUMPDEST DUP4 PUSH1 0xA0 ADD MLOAD MLOAD DUP2 LT ISZERO PUSH2 0x4497 JUMPI PUSH2 0x4487 DUP5 PUSH1 0xA0 ADD MLOAD DUP3 DUP2 MLOAD DUP2 LT PUSH2 0x4470 JUMPI PUSH2 0x4470 PUSH2 0x5B59 JUMP JUMPDEST PUSH1 0x20 MUL PUSH1 0x20 ADD ADD MLOAD DUP4 PUSH2 0x4C20 SWAP1 SWAP2 SWAP1 PUSH4 0xFFFFFFFF AND JUMP JUMPDEST PUSH2 0x4490 DUP2 PUSH2 0x5B85 JUMP JUMPDEST SWAP1 POP PUSH2 0x444A JUMP JUMPDEST POP PUSH2 0x44A1 DUP2 PUSH2 0x4CA7 JUMP JUMPDEST PUSH1 0x80 DUP4 ADD MLOAD MLOAD ISZERO PUSH2 0x4565 JUMPI PUSH1 0x0 DUP4 PUSH1 0x20 ADD MLOAD PUSH1 0x2 DUP2 GT ISZERO PUSH2 0x44C4 JUMPI PUSH2 0x44C4 PUSH2 0x5ED9 JUMP JUMPDEST SUB PUSH2 0x44E2 JUMPI PUSH1 0x40 MLOAD PUSH4 0xA80D31F7 PUSH1 0xE0 SHL DUP2 MSTORE PUSH1 0x4 ADD PUSH1 0x40 MLOAD DUP1 SWAP2 SUB SWAP1 REVERT JUMPDEST PUSH1 0x40 DUP1 MLOAD DUP1 DUP3 ADD SWAP1 SWAP2 MSTORE PUSH1 0xF DUP2 MSTORE PUSH15 0x39B2B1B932BA39A637B1B0BA34B7B7 PUSH1 0x89 SHL PUSH1 0x20 DUP3 ADD MSTORE PUSH2 0x4513 SWAP1 DUP3 SWAP1 PUSH2 0x4C20 JUMP JUMPDEST PUSH2 0x452C DUP4 PUSH1 0x20 ADD MLOAD PUSH1 0x2 DUP2 GT ISZERO PUSH2 0x438D JUMPI PUSH2 0x438D PUSH2 0x5ED9 JUMP JUMPDEST PUSH1 0x40 DUP1 MLOAD DUP1 DUP3 ADD SWAP1 SWAP2 MSTORE PUSH1 0x7 DUP2 MSTORE PUSH7 0x73656372657473 PUSH1 0xC8 SHL PUSH1 0x20 DUP3 ADD MSTORE PUSH2 0x4555 SWAP1 DUP3 SWAP1 PUSH2 0x4C20 JUMP JUMPDEST PUSH1 0x80 DUP4 ADD MLOAD PUSH2 0x4565 SWAP1 DUP3 SWAP1 PUSH2 0x4CC5 JUMP JUMPDEST PUSH1 0xC0 DUP4 ADD MLOAD MLOAD ISZERO PUSH2 0x45FE JUMPI PUSH1 0x40 DUP1 MLOAD DUP1 DUP3 ADD SWAP1 SWAP2 MSTORE PUSH1 0x9 DUP2 MSTORE PUSH9 0x627974657341726773 PUSH1 0xB8 SHL PUSH1 0x20 DUP3 ADD MSTORE PUSH2 0x459B SWAP1 DUP3 SWAP1 PUSH2 0x4C20 JUMP JUMPDEST PUSH2 0x45A4 DUP2 PUSH2 0x4C83 JUMP JUMPDEST PUSH1 0x0 JUMPDEST DUP4 PUSH1 0xC0 ADD MLOAD MLOAD DUP2 LT ISZERO PUSH2 0x45F4 JUMPI PUSH2 0x45E4 DUP5 PUSH1 0xC0 ADD MLOAD DUP3 DUP2 MLOAD DUP2 LT PUSH2 0x45CD JUMPI PUSH2 0x45CD PUSH2 0x5B59 JUMP JUMPDEST PUSH1 0x20 MUL PUSH1 0x20 ADD ADD MLOAD DUP4 PUSH2 0x4CC5 SWAP1 SWAP2 SWAP1 PUSH4 0xFFFFFFFF AND JUMP JUMPDEST PUSH2 0x45ED DUP2 PUSH2 0x5B85 JUMP JUMPDEST SWAP1 POP PUSH2 0x45A7 JUMP JUMPDEST POP PUSH2 0x45FE DUP2 PUSH2 0x4CA7 JUMP JUMPDEST MLOAD MLOAD SWAP3 SWAP2 POP POP JUMP JUMPDEST PUSH1 0x0 DUP1 PUSH32 0x0 PUSH1 0x1 PUSH1 0x1 PUSH1 0xA0 SHL SUB AND PUSH4 0x461D2762 DUP7 DUP9 PUSH1 0x1 DUP9 DUP9 PUSH1 0x40 MLOAD DUP7 PUSH4 0xFFFFFFFF AND PUSH1 0xE0 SHL DUP2 MSTORE PUSH1 0x4 ADD PUSH2 0x465E SWAP6 SWAP5 SWAP4 SWAP3 SWAP2 SWAP1 PUSH2 0x5EEF JUMP JUMPDEST PUSH1 0x20 PUSH1 0x40 MLOAD DUP1 DUP4 SUB DUP2 PUSH1 0x0 DUP8 GAS CALL ISZERO DUP1 ISZERO PUSH2 0x467D JUMPI RETURNDATASIZE PUSH1 0x0 DUP1 RETURNDATACOPY RETURNDATASIZE PUSH1 0x0 REVERT JUMPDEST POP POP POP POP PUSH1 0x40 MLOAD RETURNDATASIZE PUSH1 0x1F NOT PUSH1 0x1F DUP3 ADD AND DUP3 ADD DUP1 PUSH1 0x40 MSTORE POP DUP2 ADD SWAP1 PUSH2 0x46A1 SWAP2 SWAP1 PUSH2 0x5E90 JUMP JUMPDEST PUSH1 0x40 MLOAD SWAP1 SWAP2 POP DUP2 SWAP1 PUSH32 0x1131472297A800FEE664D1D89CFA8F7676FF07189ECC53F80BBB5F4969099DB8 SWAP1 PUSH1 0x0 SWAP1 LOG2 SWAP6 SWAP5 POP POP POP POP POP JUMP JUMPDEST PUSH2 0x46E0 PUSH2 0x5070 JUMP JUMPDEST PUSH1 0x0 PUSH1 0x2 DUP5 DUP2 SLOAD DUP2 LT PUSH2 0x46F5 JUMPI PUSH2 0x46F5 PUSH2 0x5B59 JUMP JUMPDEST PUSH1 0x0 SWAP2 DUP3 MSTORE PUSH1 0x20 SWAP2 DUP3 SWAP1 KECCAK256 PUSH1 0x40 DUP1 MLOAD PUSH1 0xE0 DUP2 ADD DUP3 MSTORE PUSH1 0x7 SWAP1 SWAP4 MUL SWAP1 SWAP2 ADD DUP1 SLOAD DUP4 MSTORE PUSH1 0x1 DUP2 ADD SLOAD SWAP4 DUP4 ADD SWAP4 SWAP1 SWAP4 MSTORE PUSH1 0x2 DUP1 DUP5 ADD SLOAD PUSH1 0x1 PUSH1 0x1 PUSH1 0xA0 SHL SUB AND SWAP2 DUP4 ADD SWAP2 SWAP1 SWAP2 MSTORE PUSH1 0x3 DUP4 ADD SLOAD PUSH1 0x60 DUP4 ADD MSTORE PUSH1 0x4 DUP4 ADD SLOAD PUSH1 0xFF AND ISZERO ISZERO PUSH1 0x80 DUP4 ADD MSTORE PUSH1 0x6 SWAP1 SWAP3 ADD SLOAD PUSH1 0xC0 DUP3 ADD MSTORE PUSH1 0xA0 DUP2 ADD DUP6 SWAP1 MSTORE DUP2 SLOAD SWAP1 SWAP3 POP DUP3 SWAP2 SWAP1 DUP7 SWAP1 DUP2 LT PUSH2 0x477B JUMPI PUSH2 0x477B PUSH2 0x5B59 JUMP JUMPDEST PUSH1 0x0 SWAP2 DUP3 MSTORE PUSH1 0x20 SWAP2 DUP3 SWAP1 KECCAK256 DUP4 MLOAD PUSH1 0x7 SWAP3 SWAP1 SWAP3 MUL ADD SWAP1 DUP2 SSTORE SWAP1 DUP3 ADD MLOAD PUSH1 0x1 DUP3 ADD SSTORE PUSH1 0x40 DUP3 ADD MLOAD PUSH1 0x2 DUP3 ADD DUP1 SLOAD PUSH1 0x1 PUSH1 0x1 PUSH1 0xA0 SHL SUB NOT AND PUSH1 0x1 PUSH1 0x1 PUSH1 0xA0 SHL SUB SWAP1 SWAP3 AND SWAP2 SWAP1 SWAP2 OR SWAP1 SSTORE PUSH1 0x60 DUP3 ADD MLOAD PUSH1 0x3 DUP3 ADD SSTORE PUSH1 0x80 DUP3 ADD MLOAD PUSH1 0x4 DUP3 ADD DUP1 SLOAD PUSH1 0xFF NOT AND SWAP2 ISZERO ISZERO SWAP2 SWAP1 SWAP2 OR SWAP1 SSTORE PUSH1 0xA0 DUP3 ADD MLOAD PUSH1 0x5 DUP3 ADD SSTORE PUSH1 0xC0 SWAP1 SWAP2 ADD MLOAD PUSH1 0x6 SWAP1 SWAP2 ADD SSTORE SWAP4 SWAP3 POP POP POP JUMP JUMPDEST PUSH2 0x4808 PUSH2 0x514F JUMP JUMPDEST PUSH1 0x9 SLOAD PUSH1 0x40 DUP1 MLOAD PUSH1 0xC0 DUP2 ADD DUP3 MSTORE DUP3 DUP2 MSTORE PUSH1 0x20 DUP2 ADD DUP7 DUP2 MSTORE CALLER SWAP3 DUP3 ADD SWAP3 DUP4 MSTORE PUSH1 0x60 DUP3 ADD DUP7 DUP2 MSTORE TIMESTAMP PUSH1 0x80 DUP5 ADD SWAP1 DUP2 MSTORE PUSH1 0x0 PUSH1 0xA0 DUP6 ADD DUP2 DUP2 MSTORE PUSH1 0x3 DUP1 SLOAD PUSH1 0x1 DUP2 ADD DUP3 SSTORE SWAP3 MSTORE SWAP5 MLOAD PUSH32 0xC2575A0E9E593C00F959F8C92F12DB2869C3395A3B0502D05E2516446F71F85B PUSH1 0x6 SWAP1 SWAP3 MUL SWAP2 DUP3 ADD SSTORE SWAP3 MLOAD PUSH32 0xC2575A0E9E593C00F959F8C92F12DB2869C3395A3B0502D05E2516446F71F85C DUP5 ADD SSTORE SWAP4 MLOAD PUSH32 0xC2575A0E9E593C00F959F8C92F12DB2869C3395A3B0502D05E2516446F71F85D DUP4 ADD DUP1 SLOAD PUSH1 0x1 PUSH1 0x1 PUSH1 0xA0 SHL SUB NOT AND PUSH1 0x1 PUSH1 0x1 PUSH1 0xA0 SHL SUB SWAP1 SWAP3 AND SWAP2 SWAP1 SWAP2 OR SWAP1 SSTORE MLOAD PUSH32 0xC2575A0E9E593C00F959F8C92F12DB2869C3395A3B0502D05E2516446F71F85E DUP3 ADD SSTORE SWAP2 MLOAD PUSH32 0xC2575A0E9E593C00F959F8C92F12DB2869C3395A3B0502D05E2516446F71F85F DUP4 ADD SSTORE MLOAD PUSH32 0xC2575A0E9E593C00F959F8C92F12DB2869C3395A3B0502D05E2516446F71F860 SWAP1 SWAP2 ADD DUP1 SLOAD PUSH1 0xFF NOT AND SWAP2 ISZERO ISZERO SWAP2 SWAP1 SWAP2 OR SWAP1 SSTORE PUSH2 0x4060 DUP2 PUSH2 0x168A JUMP JUMPDEST PUSH2 0x496E PUSH2 0x50B8 JUMP JUMPDEST PUSH1 0x0 PUSH2 0x4979 DUP5 PUSH2 0x29B6 JUMP JUMPDEST TIMESTAMP PUSH1 0xE0 DUP3 ADD MSTORE PUSH2 0x200 DUP2 ADD DUP5 SWAP1 MSTORE PUSH1 0x1 DUP1 SLOAD SWAP2 SWAP3 POP DUP3 SWAP2 DUP7 SWAP1 DUP2 LT PUSH2 0x49A0 JUMPI PUSH2 0x49A0 PUSH2 0x5B59 JUMP JUMPDEST PUSH1 0x0 SWAP2 DUP3 MSTORE PUSH1 0x20 SWAP2 DUP3 SWAP1 KECCAK256 DUP4 MLOAD PUSH1 0xE SWAP3 SWAP1 SWAP3 MUL ADD SWAP1 DUP2 SSTORE SWAP1 DUP3 ADD MLOAD PUSH1 0x1 DUP3 ADD DUP1 SLOAD PUSH1 0x1 PUSH1 0x1 PUSH1 0xA0 SHL SUB NOT AND PUSH1 0x1 PUSH1 0x1 PUSH1 0xA0 SHL SUB SWAP1 SWAP3 AND SWAP2 SWAP1 SWAP2 OR SWAP1 SSTORE PUSH1 0x40 DUP3 ADD MLOAD PUSH1 0x2 DUP3 ADD SWAP1 PUSH2 0x49F0 SWAP1 DUP3 PUSH2 0x5C33 JUMP JUMPDEST POP PUSH1 0x60 DUP3 ADD MLOAD PUSH1 0x3 DUP3 ADD SWAP1 PUSH2 0x4A05 SWAP1 DUP3 PUSH2 0x5C33 JUMP JUMPDEST POP PUSH1 0x80 DUP3 ADD MLOAD PUSH1 0x4 DUP3 ADD SWAP1 PUSH2 0x4A1A SWAP1 DUP3 PUSH2 0x5C33 JUMP JUMPDEST POP PUSH1 0xA0 DUP3 ADD MLOAD PUSH1 0x5 DUP3 ADD SSTORE PUSH1 0xC0 DUP3 ADD MLOAD PUSH1 0x6 DUP3 ADD SSTORE PUSH1 0xE0 DUP3 ADD MLOAD PUSH1 0x7 DUP3 ADD SSTORE PUSH2 0x100 DUP1 DUP4 ADD MLOAD PUSH1 0x8 DUP4 ADD SSTORE PUSH2 0x120 DUP4 ADD MLOAD PUSH1 0x9 DUP4 ADD DUP1 SLOAD PUSH2 0x140 DUP7 ADD MLOAD PUSH2 0x160 DUP8 ADD MLOAD ISZERO ISZERO PUSH3 0x10000 MUL PUSH3 0xFF0000 NOT SWAP2 ISZERO ISZERO DUP7 MUL PUSH2 0xFF00 NOT SWAP6 ISZERO ISZERO DUP7 AND PUSH2 0xFFFF NOT SWAP5 DUP6 AND OR OR SWAP2 SWAP1 SWAP2 AND OR SWAP1 SWAP2 SSTORE PUSH2 0x180 DUP6 ADD MLOAD PUSH1 0xA DUP6 ADD SSTORE PUSH2 0x1A0 DUP6 ADD MLOAD PUSH1 0xB DUP6 ADD DUP1 SLOAD PUSH2 0x1C0 DUP9 ADD MLOAD ISZERO ISZERO SWAP1 SWAP6 MUL SWAP2 ISZERO ISZERO SWAP1 SWAP4 AND SWAP4 SWAP1 SWAP2 AND SWAP3 SWAP1 SWAP3 OR SWAP2 SWAP1 SWAP2 OR SWAP1 SSTORE PUSH2 0x1E0 DUP3 ADD MLOAD PUSH1 0xC DUP3 ADD SSTORE PUSH2 0x200 SWAP1 SWAP2 ADD MLOAD PUSH1 0xD SWAP1 SWAP2 ADD SSTORE SWAP1 POP SWAP3 SWAP2 POP POP JUMP JUMPDEST PUSH2 0x4AE6 PUSH2 0x5070 JUMP JUMPDEST PUSH1 0x0 PUSH1 0x2 DUP5 DUP2 SLOAD DUP2 LT PUSH2 0x4AFB JUMPI PUSH2 0x4AFB PUSH2 0x5B59 JUMP JUMPDEST PUSH1 0x0 SWAP2 DUP3 MSTORE PUSH1 0x20 SWAP2 DUP3 SWAP1 KECCAK256 PUSH1 0x40 DUP1 MLOAD PUSH1 0xE0 DUP2 ADD DUP3 MSTORE PUSH1 0x7 SWAP1 SWAP4 MUL SWAP1 SWAP2 ADD DUP1 SLOAD DUP4 MSTORE PUSH1 0x1 DUP2 ADD SLOAD SWAP4 DUP4 ADD SWAP4 SWAP1 SWAP4 MSTORE PUSH1 0x2 DUP1 DUP5 ADD SLOAD PUSH1 0x1 PUSH1 0x1 PUSH1 0xA0 SHL SUB AND SWAP2 DUP4 ADD SWAP2 SWAP1 SWAP2 MSTORE PUSH1 0x3 DUP4 ADD SLOAD PUSH1 0x60 DUP4 ADD MSTORE PUSH1 0x4 DUP4 ADD SLOAD PUSH1 0xFF AND ISZERO ISZERO PUSH1 0x80 DUP4 ADD MSTORE PUSH1 0x5 SWAP1 SWAP3 ADD SLOAD PUSH1 0xA0 DUP3 ADD MSTORE PUSH1 0xC0 DUP2 ADD DUP6 SWAP1 MSTORE DUP2 SLOAD SWAP1 SWAP3 POP DUP3 SWAP2 SWAP1 DUP7 SWAP1 DUP2 LT PUSH2 0x477B JUMPI PUSH2 0x477B PUSH2 0x5B59 JUMP JUMPDEST DUP1 MLOAD PUSH1 0x0 SUB PUSH2 0x4BA3 JUMPI PUSH1 0x40 MLOAD PUSH4 0x22CE3EDD PUSH1 0xE0 SHL DUP2 MSTORE PUSH1 0x4 ADD PUSH1 0x40 MLOAD DUP1 SWAP2 SUB SWAP1 REVERT JUMPDEST DUP4 DUP4 PUSH1 0x2 DUP2 GT ISZERO PUSH2 0x4BB6 JUMPI PUSH2 0x4BB6 PUSH2 0x5ED9 JUMP JUMPDEST SWAP1 DUP2 PUSH1 0x2 DUP2 GT ISZERO PUSH2 0x4BC9 JUMPI PUSH2 0x4BC9 PUSH2 0x5ED9 JUMP JUMPDEST SWAP1 MSTORE POP PUSH1 0x40 DUP5 ADD DUP3 DUP1 ISZERO PUSH2 0x4BDF JUMPI PUSH2 0x4BDF PUSH2 0x5ED9 JUMP JUMPDEST SWAP1 DUP2 DUP1 ISZERO PUSH2 0x4BEF JUMPI PUSH2 0x4BEF PUSH2 0x5ED9 JUMP JUMPDEST SWAP1 MSTORE POP PUSH1 0x60 SWAP1 SWAP4 ADD SWAP3 SWAP1 SWAP3 MSTORE POP POP JUMP JUMPDEST PUSH2 0x4C07 PUSH2 0x51D6 JUMP JUMPDEST DUP1 MLOAD PUSH2 0x4C13 SWAP1 DUP4 PUSH2 0x4CD2 JUMP JUMPDEST POP PUSH1 0x0 PUSH1 0x20 DUP3 ADD MSTORE SWAP2 SWAP1 POP JUMP JUMPDEST PUSH2 0x4C2D DUP3 PUSH1 0x3 DUP4 MLOAD PUSH2 0x4D49 JUMP JUMPDEST DUP2 MLOAD PUSH2 0x4C39 SWAP1 DUP3 PUSH2 0x4E62 JUMP JUMPDEST POP POP POP JUMP JUMPDEST PUSH2 0x878 DUP3 PUSH1 0x0 DUP4 PUSH2 0x4D49 JUMP JUMPDEST DUP2 MLOAD PUSH2 0x4C57 SWAP1 PUSH1 0xC2 PUSH2 0x4E83 JUMP JUMPDEST POP PUSH2 0x878 DUP3 DUP3 PUSH1 0x40 MLOAD PUSH1 0x20 ADD PUSH2 0x4C6F SWAP2 DUP2 MSTORE PUSH1 0x20 ADD SWAP1 JUMP JUMPDEST PUSH1 0x40 MLOAD PUSH1 0x20 DUP2 DUP4 SUB SUB DUP2 MSTORE SWAP1 PUSH1 0x40 MSTORE PUSH2 0x4CC5 JUMP JUMPDEST PUSH2 0x4C8E DUP2 PUSH1 0x4 PUSH2 0x4EEC JUMP JUMPDEST PUSH1 0x1 DUP2 PUSH1 0x20 ADD DUP2 DUP2 MLOAD PUSH2 0x4CA1 SWAP2 SWAP1 PUSH2 0x5BD2 JUMP JUMPDEST SWAP1 MSTORE POP POP JUMP JUMPDEST PUSH2 0x4CB2 DUP2 PUSH1 0x7 PUSH2 0x4EEC JUMP JUMPDEST PUSH1 0x1 DUP2 PUSH1 0x20 ADD DUP2 DUP2 MLOAD PUSH2 0x4CA1 SWAP2 SWAP1 PUSH2 0x5F38 JUMP JUMPDEST PUSH2 0x4C2D DUP3 PUSH1 0x2 DUP4 MLOAD PUSH2 0x4D49 JUMP JUMPDEST PUSH1 0x40 DUP1 MLOAD DUP1 DUP3 ADD SWAP1 SWAP2 MSTORE PUSH1 0x60 DUP2 MSTORE PUSH1 0x0 PUSH1 0x20 DUP3 ADD MSTORE PUSH2 0x4CF2 PUSH1 0x20 DUP4 PUSH2 0x5F4B JUMP JUMPDEST ISZERO PUSH2 0x4D1A JUMPI PUSH2 0x4D02 PUSH1 0x20 DUP4 PUSH2 0x5F4B JUMP JUMPDEST PUSH2 0x4D0D SWAP1 PUSH1 0x20 PUSH2 0x5F38 JUMP JUMPDEST PUSH2 0x4D17 SWAP1 DUP4 PUSH2 0x5BD2 JUMP JUMPDEST SWAP2 POP JUMPDEST PUSH1 0x20 DUP1 DUP5 ADD DUP4 SWAP1 MSTORE PUSH1 0x40 MLOAD DUP1 DUP6 MSTORE PUSH1 0x0 DUP2 MSTORE SWAP1 DUP2 DUP5 ADD ADD DUP2 DUP2 LT ISZERO PUSH2 0x4D3E JUMPI PUSH1 0x0 DUP1 REVERT JUMPDEST PUSH1 0x40 MSTORE POP SWAP2 SWAP3 SWAP2 POP POP JUMP JUMPDEST PUSH1 0x17 DUP2 PUSH1 0x1 PUSH1 0x1 PUSH1 0x40 SHL SUB AND GT PUSH2 0x4D6F JUMPI DUP3 MLOAD PUSH2 0x3E81 SWAP1 PUSH1 0xE0 PUSH1 0x5 DUP6 SWAP1 SHL AND DUP4 OR PUSH2 0x4E83 JUMP JUMPDEST PUSH1 0xFF DUP2 PUSH1 0x1 PUSH1 0x1 PUSH1 0x40 SHL SUB AND GT PUSH2 0x4DAF JUMPI DUP3 MLOAD PUSH2 0x4D97 SWAP1 PUSH1 0x18 PUSH2 0x1FE0 PUSH1 0x5 DUP7 SWAP1 SHL AND OR PUSH2 0x4E83 JUMP JUMPDEST POP DUP3 MLOAD PUSH2 0x3E81 SWAP1 PUSH1 0x1 PUSH1 0x1 PUSH1 0x40 SHL SUB DUP4 AND PUSH1 0x1 PUSH2 0x4F03 JUMP JUMPDEST PUSH2 0xFFFF DUP2 PUSH1 0x1 PUSH1 0x1 PUSH1 0x40 SHL SUB AND GT PUSH2 0x4DF0 JUMPI DUP3 MLOAD PUSH2 0x4DD8 SWAP1 PUSH1 0x19 PUSH2 0x1FE0 PUSH1 0x5 DUP7 SWAP1 SHL AND OR PUSH2 0x4E83 JUMP JUMPDEST POP DUP3 MLOAD PUSH2 0x3E81 SWAP1 PUSH1 0x1 PUSH1 0x1 PUSH1 0x40 SHL SUB DUP4 AND PUSH1 0x2 PUSH2 0x4F03 JUMP JUMPDEST PUSH4 0xFFFFFFFF DUP2 PUSH1 0x1 PUSH1 0x1 PUSH1 0x40 SHL SUB AND GT PUSH2 0x4E33 JUMPI DUP3 MLOAD PUSH2 0x4E1B SWAP1 PUSH1 0x1A PUSH2 0x1FE0 PUSH1 0x5 DUP7 SWAP1 SHL AND OR PUSH2 0x4E83 JUMP JUMPDEST POP DUP3 MLOAD PUSH2 0x3E81 SWAP1 PUSH1 0x1 PUSH1 0x1 PUSH1 0x40 SHL SUB DUP4 AND PUSH1 0x4 PUSH2 0x4F03 JUMP JUMPDEST DUP3 MLOAD PUSH2 0x4E4A SWAP1 PUSH1 0x1B PUSH2 0x1FE0 PUSH1 0x5 DUP7 SWAP1 SHL AND OR PUSH2 0x4E83 JUMP JUMPDEST POP DUP3 MLOAD PUSH2 0x3E81 SWAP1 PUSH1 0x1 PUSH1 0x1 PUSH1 0x40 SHL SUB DUP4 AND PUSH1 0x8 PUSH2 0x4F03 JUMP JUMPDEST PUSH1 0x40 DUP1 MLOAD DUP1 DUP3 ADD SWAP1 SWAP2 MSTORE PUSH1 0x60 DUP2 MSTORE PUSH1 0x0 PUSH1 0x20 DUP3 ADD MSTORE PUSH2 0x1181 DUP4 DUP4 DUP5 MLOAD PUSH2 0x4F88 JUMP JUMPDEST PUSH1 0x40 DUP1 MLOAD DUP1 DUP3 ADD SWAP1 SWAP2 MSTORE PUSH1 0x60 DUP2 MSTORE PUSH1 0x0 PUSH1 0x20 DUP3 ADD MSTORE DUP3 MLOAD MLOAD PUSH1 0x0 PUSH2 0x4EA8 DUP3 PUSH1 0x1 PUSH2 0x5BD2 JUMP JUMPDEST SWAP1 POP DUP5 PUSH1 0x20 ADD MLOAD DUP3 LT PUSH2 0x4EC9 JUMPI PUSH2 0x4EC9 DUP6 PUSH2 0x4EC4 DUP4 PUSH1 0x2 PUSH2 0x5CF2 JUMP JUMPDEST PUSH2 0x5059 JUMP JUMPDEST DUP5 MLOAD PUSH1 0x20 DUP4 DUP3 ADD ADD DUP6 DUP2 MSTORE8 POP DUP1 MLOAD DUP3 GT ISZERO PUSH2 0x4EE2 JUMPI DUP2 DUP2 MSTORE JUMPDEST POP SWAP4 SWAP5 SWAP4 POP POP POP POP JUMP JUMPDEST DUP2 MLOAD PUSH2 0x4C39 SWAP1 PUSH1 0x1F PUSH2 0x1FE0 PUSH1 0x5 DUP6 SWAP1 SHL AND OR PUSH2 0x4E83 JUMP JUMPDEST PUSH1 0x40 DUP1 MLOAD DUP1 DUP3 ADD SWAP1 SWAP2 MSTORE PUSH1 0x60 DUP2 MSTORE PUSH1 0x0 PUSH1 0x20 DUP3 ADD MSTORE DUP4 MLOAD MLOAD PUSH1 0x0 PUSH2 0x4F27 DUP3 DUP6 PUSH2 0x5BD2 JUMP JUMPDEST SWAP1 POP DUP6 PUSH1 0x20 ADD MLOAD DUP2 GT ISZERO PUSH2 0x4F44 JUMPI PUSH2 0x4F44 DUP7 PUSH2 0x4EC4 DUP4 PUSH1 0x2 PUSH2 0x5CF2 JUMP JUMPDEST PUSH1 0x0 PUSH1 0x1 PUSH2 0x4F54 DUP7 PUSH2 0x100 PUSH2 0x5F5F JUMP JUMPDEST PUSH2 0x4F5E SWAP2 SWAP1 PUSH2 0x5F38 JUMP JUMPDEST SWAP1 POP DUP7 MLOAD DUP3 DUP2 ADD DUP8 DUP4 NOT DUP3 MLOAD AND OR DUP2 MSTORE POP DUP1 MLOAD DUP4 GT ISZERO PUSH2 0x4F7C JUMPI DUP3 DUP2 MSTORE JUMPDEST POP SWAP6 SWAP7 SWAP6 POP POP POP POP POP POP JUMP JUMPDEST PUSH1 0x40 DUP1 MLOAD DUP1 DUP3 ADD SWAP1 SWAP2 MSTORE PUSH1 0x60 DUP2 MSTORE PUSH1 0x0 PUSH1 0x20 DUP3 ADD MSTORE DUP3 MLOAD DUP3 GT ISZERO PUSH2 0x4FAB JUMPI PUSH1 0x0 DUP1 REVERT JUMPDEST DUP4 MLOAD MLOAD PUSH1 0x0 PUSH2 0x4FBA DUP5 DUP4 PUSH2 0x5BD2 JUMP JUMPDEST SWAP1 POP DUP6 PUSH1 0x20 ADD MLOAD DUP2 GT ISZERO PUSH2 0x4FD7 JUMPI PUSH2 0x4FD7 DUP7 PUSH2 0x4EC4 DUP4 PUSH1 0x2 PUSH2 0x5CF2 JUMP JUMPDEST DUP6 MLOAD DUP1 MLOAD DUP4 DUP3 ADD PUSH1 0x20 ADD SWAP2 PUSH1 0x0 SWAP2 DUP1 DUP6 GT ISZERO PUSH2 0x4FF1 JUMPI DUP5 DUP3 MSTORE JUMPDEST POP POP POP PUSH1 0x20 DUP7 ADD JUMPDEST PUSH1 0x20 DUP7 LT PUSH2 0x5031 JUMPI DUP1 MLOAD DUP3 MSTORE PUSH2 0x5010 PUSH1 0x20 DUP4 PUSH2 0x5BD2 JUMP JUMPDEST SWAP2 POP PUSH2 0x501D PUSH1 0x20 DUP3 PUSH2 0x5BD2 JUMP JUMPDEST SWAP1 POP PUSH2 0x502A PUSH1 0x20 DUP8 PUSH2 0x5F38 JUMP JUMPDEST SWAP6 POP PUSH2 0x4FF9 JUMP JUMPDEST MLOAD DUP2 MLOAD PUSH1 0x0 NOT PUSH1 0x20 DUP9 SWAP1 SUB PUSH2 0x100 EXP ADD SWAP1 DUP2 AND SWAP1 NOT SWAP2 SWAP1 SWAP2 AND OR SWAP1 MSTORE POP DUP5 SWAP2 POP POP SWAP4 SWAP3 POP POP POP JUMP JUMPDEST DUP2 MLOAD PUSH2 0x5065 DUP4 DUP4 PUSH2 0x4CD2 JUMP JUMPDEST POP PUSH2 0x3E81 DUP4 DUP3 PUSH2 0x4E62 JUMP JUMPDEST PUSH1 0x40 MLOAD DUP1 PUSH1 0xE0 ADD PUSH1 0x40 MSTORE DUP1 PUSH1 0x0 DUP2 MSTORE PUSH1 0x20 ADD PUSH1 0x0 DUP2 MSTORE PUSH1 0x20 ADD PUSH1 0x0 PUSH1 0x1 PUSH1 0x1 PUSH1 0xA0 SHL SUB AND DUP2 MSTORE PUSH1 0x20 ADD PUSH1 0x0 DUP2 MSTORE PUSH1 0x20 ADD PUSH1 0x0 ISZERO ISZERO DUP2 MSTORE PUSH1 0x20 ADD PUSH1 0x0 DUP2 MSTORE PUSH1 0x20 ADD PUSH1 0x0 DUP2 MSTORE POP SWAP1 JUMP JUMPDEST PUSH1 0x40 MLOAD DUP1 PUSH2 0x220 ADD PUSH1 0x40 MSTORE DUP1 PUSH1 0x0 DUP2 MSTORE PUSH1 0x20 ADD PUSH1 0x0 PUSH1 0x1 PUSH1 0x1 PUSH1 0xA0 SHL SUB AND DUP2 MSTORE PUSH1 0x20 ADD PUSH1 0x60 DUP2 MSTORE PUSH1 0x20 ADD PUSH1 0x60 DUP2 MSTORE PUSH1 0x20 ADD PUSH1 0x60 DUP2 MSTORE PUSH1 0x20 ADD PUSH1 0x0 DUP2 MSTORE PUSH1 0x20 ADD PUSH1 0x0 DUP2 MSTORE PUSH1 0x20 ADD PUSH1 0x0 DUP2 MSTORE PUSH1 0x20 ADD PUSH1 0x0 DUP2 MSTORE PUSH1 0x20 ADD PUSH1 0x0 ISZERO ISZERO DUP2 MSTORE PUSH1 0x20 ADD PUSH1 0x0 ISZERO ISZERO DUP2 MSTORE PUSH1 0x20 ADD PUSH1 0x0 ISZERO ISZERO DUP2 MSTORE PUSH1 0x20 ADD PUSH1 0x0 DUP2 MSTORE PUSH1 0x20 ADD PUSH1 0x0 ISZERO ISZERO DUP2 MSTORE PUSH1 0x20 ADD PUSH1 0x0 ISZERO ISZERO DUP2 MSTORE PUSH1 0x20 ADD PUSH1 0x0 DUP2 MSTORE PUSH1 0x20 ADD PUSH1 0x0 DUP2 MSTORE POP SWAP1 JUMP JUMPDEST PUSH1 0x40 MLOAD DUP1 PUSH1 0xC0 ADD PUSH1 0x40 MSTORE DUP1 PUSH1 0x0 DUP2 MSTORE PUSH1 0x20 ADD PUSH1 0x0 DUP2 MSTORE PUSH1 0x20 ADD PUSH1 0x0 PUSH1 0x1 PUSH1 0x1 PUSH1 0xA0 SHL SUB AND DUP2 MSTORE PUSH1 0x20 ADD PUSH1 0x0 DUP2 MSTORE PUSH1 0x20 ADD PUSH1 0x0 DUP2 MSTORE PUSH1 0x20 ADD PUSH1 0x0 ISZERO ISZERO DUP2 MSTORE POP SWAP1 JUMP JUMPDEST PUSH1 0x40 DUP1 MLOAD PUSH2 0x100 DUP2 ADD DUP3 MSTORE PUSH1 0x0 DUP1 DUP3 MSTORE PUSH1 0x20 DUP3 ADD DUP2 SWAP1 MSTORE PUSH1 0x60 SWAP3 DUP3 ADD DUP4 SWAP1 MSTORE DUP3 DUP3 ADD SWAP3 SWAP1 SWAP3 MSTORE PUSH1 0x80 DUP2 ADD DUP3 SWAP1 MSTORE PUSH1 0xA0 DUP2 ADD DUP3 SWAP1 MSTORE PUSH1 0xC0 DUP2 ADD DUP3 SWAP1 MSTORE PUSH1 0xE0 DUP2 ADD SWAP2 SWAP1 SWAP2 MSTORE SWAP1 JUMP JUMPDEST PUSH1 0x40 MLOAD DUP1 PUSH1 0x40 ADD PUSH1 0x40 MSTORE DUP1 PUSH2 0x51FE PUSH1 0x40 MLOAD DUP1 PUSH1 0x40 ADD PUSH1 0x40 MSTORE DUP1 PUSH1 0x60 DUP2 MSTORE PUSH1 0x20 ADD PUSH1 0x0 DUP2 MSTORE POP SWAP1 JUMP JUMPDEST DUP2 MSTORE PUSH1 0x20 ADD PUSH1 0x0 DUP2 MSTORE POP SWAP1 JUMP JUMPDEST PUSH4 0x4E487B71 PUSH1 0xE0 SHL PUSH1 0x0 MSTORE PUSH1 0x41 PUSH1 0x4 MSTORE PUSH1 0x24 PUSH1 0x0 REVERT JUMPDEST PUSH1 0x40 MLOAD PUSH1 0x1F DUP3 ADD PUSH1 0x1F NOT AND DUP2 ADD PUSH1 0x1 PUSH1 0x1 PUSH1 0x40 SHL SUB DUP2 GT DUP3 DUP3 LT OR ISZERO PUSH2 0x5249 JUMPI PUSH2 0x5249 PUSH2 0x520B JUMP JUMPDEST PUSH1 0x40 MSTORE SWAP2 SWAP1 POP JUMP JUMPDEST PUSH1 0x0 DUP3 PUSH1 0x1F DUP4 ADD SLT PUSH2 0x5262 JUMPI PUSH1 0x0 DUP1 REVERT JUMPDEST DUP2 CALLDATALOAD PUSH1 0x1 PUSH1 0x1 PUSH1 0x40 SHL SUB DUP2 GT ISZERO PUSH2 0x527B JUMPI PUSH2 0x527B PUSH2 0x520B JUMP JUMPDEST PUSH2 0x528E PUSH1 0x1F DUP3 ADD PUSH1 0x1F NOT AND PUSH1 0x20 ADD PUSH2 0x5221 JUMP JUMPDEST DUP2 DUP2 MSTORE DUP5 PUSH1 0x20 DUP4 DUP7 ADD ADD GT ISZERO PUSH2 0x52A3 JUMPI PUSH1 0x0 DUP1 REVERT JUMPDEST DUP2 PUSH1 0x20 DUP6 ADD PUSH1 0x20 DUP4 ADD CALLDATACOPY PUSH1 0x0 SWAP2 DUP2 ADD PUSH1 0x20 ADD SWAP2 SWAP1 SWAP2 MSTORE SWAP4 SWAP3 POP POP POP JUMP JUMPDEST PUSH1 0x0 DUP1 PUSH1 0x0 PUSH1 0x60 DUP5 DUP7 SUB SLT ISZERO PUSH2 0x52D5 JUMPI PUSH1 0x0 DUP1 REVERT JUMPDEST DUP4 CALLDATALOAD SWAP3 POP PUSH1 0x20 DUP5 ADD CALLDATALOAD PUSH1 0x1 PUSH1 0x1 PUSH1 0x40 SHL SUB DUP1 DUP3 GT ISZERO PUSH2 0x52F3 JUMPI PUSH1 0x0 DUP1 REVERT JUMPDEST PUSH2 0x52FF DUP8 DUP4 DUP9 ADD PUSH2 0x5251 JUMP JUMPDEST SWAP4 POP PUSH1 0x40 DUP7 ADD CALLDATALOAD SWAP2 POP DUP1 DUP3 GT ISZERO PUSH2 0x5315 JUMPI PUSH1 0x0 DUP1 REVERT JUMPDEST POP PUSH2 0x5322 DUP7 DUP3 DUP8 ADD PUSH2 0x5251 JUMP JUMPDEST SWAP2 POP POP SWAP3 POP SWAP3 POP SWAP3 JUMP JUMPDEST DUP1 CALLDATALOAD PUSH1 0x1 PUSH1 0x1 PUSH1 0xA0 SHL SUB DUP2 AND DUP2 EQ PUSH2 0x5343 JUMPI PUSH1 0x0 DUP1 REVERT JUMPDEST SWAP2 SWAP1 POP JUMP JUMPDEST PUSH1 0x0 PUSH1 0x20 DUP3 DUP5 SUB SLT ISZERO PUSH2 0x535A JUMPI PUSH1 0x0 DUP1 REVERT JUMPDEST PUSH2 0x1181 DUP3 PUSH2 0x532C JUMP JUMPDEST DUP1 MLOAD DUP3 MSTORE PUSH1 0x20 DUP1 DUP3 ADD MLOAD SWAP1 DUP4 ADD MSTORE PUSH1 0x40 DUP1 DUP3 ADD MLOAD PUSH1 0x1 PUSH1 0x1 PUSH1 0xA0 SHL SUB AND SWAP1 DUP4 ADD MSTORE PUSH1 0x60 DUP1 DUP3 ADD MLOAD SWAP1 DUP4 ADD MSTORE PUSH1 0x80 DUP1 DUP3 ADD MLOAD ISZERO ISZERO SWAP1 DUP4 ADD MSTORE PUSH1 0xA0 DUP1 DUP3 ADD MLOAD SWAP1 DUP4 ADD MSTORE PUSH1 0xC0 SWAP1 DUP2 ADD MLOAD SWAP2 ADD MSTORE JUMP JUMPDEST PUSH1 0x20 DUP1 DUP3 MSTORE DUP3 MLOAD DUP3 DUP3 ADD DUP2 SWAP1 MSTORE PUSH1 0x0 SWAP2 SWAP1 DUP5 DUP3 ADD SWAP1 PUSH1 0x40 DUP6 ADD SWAP1 DUP5 JUMPDEST DUP2 DUP2 LT ISZERO PUSH2 0x53F1 JUMPI PUSH2 0x53DE DUP4 DUP6 MLOAD PUSH2 0x5363 JUMP JUMPDEST SWAP3 DUP5 ADD SWAP3 PUSH1 0xE0 SWAP3 SWAP1 SWAP3 ADD SWAP2 PUSH1 0x1 ADD PUSH2 0x53CB JUMP JUMPDEST POP SWAP1 SWAP7 SWAP6 POP POP POP POP POP POP JUMP JUMPDEST PUSH1 0x0 PUSH1 0x20 DUP3 DUP5 SUB SLT ISZERO PUSH2 0x540F JUMPI PUSH1 0x0 DUP1 REVERT JUMPDEST POP CALLDATALOAD SWAP2 SWAP1 POP JUMP JUMPDEST PUSH1 0xE0 DUP2 ADD PUSH2 0x1D0E DUP3 DUP5 PUSH2 0x5363 JUMP JUMPDEST PUSH1 0x0 PUSH1 0x1 PUSH1 0x1 PUSH1 0x40 SHL SUB DUP3 GT ISZERO PUSH2 0x543D JUMPI PUSH2 0x543D PUSH2 0x520B JUMP JUMPDEST POP PUSH1 0x5 SHL PUSH1 0x20 ADD SWAP1 JUMP JUMPDEST PUSH1 0x0 DUP1 PUSH1 0x40 DUP4 DUP6 SUB SLT ISZERO PUSH2 0x545A JUMPI PUSH1 0x0 DUP1 REVERT JUMPDEST DUP3 CALLDATALOAD SWAP2 POP PUSH1 0x20 DUP1 DUP5 ADD CALLDATALOAD PUSH1 0x1 PUSH1 0x1 PUSH1 0x40 SHL SUB DUP2 GT ISZERO PUSH2 0x5478 JUMPI PUSH1 0x0 DUP1 REVERT JUMPDEST DUP5 ADD PUSH1 0x1F DUP2 ADD DUP7 SGT PUSH2 0x5489 JUMPI PUSH1 0x0 DUP1 REVERT JUMPDEST DUP1 CALLDATALOAD PUSH2 0x549C PUSH2 0x5497 DUP3 PUSH2 0x5424 JUMP JUMPDEST PUSH2 0x5221 JUMP JUMPDEST DUP2 DUP2 MSTORE PUSH1 0x5 SWAP2 SWAP1 SWAP2 SHL DUP3 ADD DUP4 ADD SWAP1 DUP4 DUP2 ADD SWAP1 DUP9 DUP4 GT ISZERO PUSH2 0x54BB JUMPI PUSH1 0x0 DUP1 REVERT JUMPDEST SWAP3 DUP5 ADD SWAP3 JUMPDEST DUP3 DUP5 LT ISZERO PUSH2 0x54D9 JUMPI DUP4 CALLDATALOAD DUP3 MSTORE SWAP3 DUP5 ADD SWAP3 SWAP1 DUP5 ADD SWAP1 PUSH2 0x54C0 JUMP JUMPDEST DUP1 SWAP6 POP POP POP POP POP POP SWAP3 POP SWAP3 SWAP1 POP JUMP JUMPDEST PUSH1 0x0 DUP2 MLOAD DUP1 DUP5 MSTORE PUSH1 0x0 JUMPDEST DUP2 DUP2 LT ISZERO PUSH2 0x550E JUMPI PUSH1 0x20 DUP2 DUP6 ADD DUP2 ADD MLOAD DUP7 DUP4 ADD DUP3 ADD MSTORE ADD PUSH2 0x54F2 JUMP JUMPDEST POP PUSH1 0x0 PUSH1 0x20 DUP3 DUP7 ADD ADD MSTORE PUSH1 0x20 PUSH1 0x1F NOT PUSH1 0x1F DUP4 ADD AND DUP6 ADD ADD SWAP2 POP POP SWAP3 SWAP2 POP POP JUMP JUMPDEST PUSH1 0x0 PUSH2 0x220 DUP3 MLOAD DUP5 MSTORE PUSH1 0x20 DUP4 ADD MLOAD PUSH2 0x5551 PUSH1 0x20 DUP7 ADD DUP3 PUSH1 0x1 PUSH1 0x1 PUSH1 0xA0 SHL SUB AND SWAP1 MSTORE JUMP JUMPDEST POP PUSH1 0x40 DUP4 ADD MLOAD DUP2 PUSH1 0x40 DUP7 ADD MSTORE PUSH2 0x5569 DUP3 DUP7 ADD DUP3 PUSH2 0x54E8 JUMP JUMPDEST SWAP2 POP POP PUSH1 0x60 DUP4 ADD MLOAD DUP5 DUP3 SUB PUSH1 0x60 DUP7 ADD MSTORE PUSH2 0x5583 DUP3 DUP3 PUSH2 0x54E8 JUMP JUMPDEST SWAP2 POP POP PUSH1 0x80 DUP4 ADD MLOAD DUP5 DUP3 SUB PUSH1 0x80 DUP7 ADD MSTORE PUSH2 0x559D DUP3 DUP3 PUSH2 0x54E8 JUMP JUMPDEST SWAP2 POP POP PUSH1 0xA0 DUP4 ADD MLOAD PUSH1 0xA0 DUP6 ADD MSTORE PUSH1 0xC0 DUP4 ADD MLOAD PUSH1 0xC0 DUP6 ADD MSTORE PUSH1 0xE0 DUP4 ADD MLOAD PUSH1 0xE0 DUP6 ADD MSTORE PUSH2 0x100 DUP1 DUP5 ADD MLOAD DUP2 DUP7 ADD MSTORE POP PUSH2 0x120 DUP1 DUP5 ADD MLOAD PUSH2 0x55DE DUP3 DUP8 ADD DUP3 ISZERO ISZERO SWAP1 MSTORE JUMP JUMPDEST POP POP PUSH2 0x140 DUP4 DUP2 ADD MLOAD ISZERO ISZERO SWAP1 DUP6 ADD MSTORE PUSH2 0x160 DUP1 DUP5 ADD MLOAD ISZERO ISZERO SWAP1 DUP6 ADD MSTORE PUSH2 0x180 DUP1 DUP5 ADD MLOAD SWAP1 DUP6 ADD MSTORE PUSH2 0x1A0 DUP1 DUP5 ADD MLOAD ISZERO ISZERO SWAP1 DUP6 ADD MSTORE PUSH2 0x1C0 DUP1 DUP5 ADD MLOAD ISZERO ISZERO SWAP1 DUP6 ADD MSTORE PUSH2 0x1E0 DUP1 DUP5 ADD MLOAD SWAP1 DUP6 ADD MSTORE PUSH2 0x200 SWAP3 DUP4 ADD MLOAD SWAP3 SWAP1 SWAP4 ADD SWAP2 SWAP1 SWAP2 MSTORE POP SWAP1 JUMP JUMPDEST PUSH1 0x20 DUP2 MSTORE PUSH1 0x0 PUSH2 0x1181 PUSH1 0x20 DUP4 ADD DUP5 PUSH2 0x552E JUMP JUMPDEST PUSH1 0x0 PUSH1 0x20 DUP1 DUP4 ADD DUP2 DUP5 MSTORE DUP1 DUP6 MLOAD DUP1 DUP4 MSTORE PUSH1 0x40 DUP7 ADD SWAP2 POP PUSH1 0x40 DUP2 PUSH1 0x5 SHL DUP8 ADD ADD SWAP3 POP DUP4 DUP8 ADD PUSH1 0x0 JUMPDEST DUP3 DUP2 LT ISZERO PUSH2 0x56A5 JUMPI PUSH1 0x3F NOT DUP9 DUP7 SUB ADD DUP5 MSTORE PUSH2 0x5693 DUP6 DUP4 MLOAD PUSH2 0x552E JUMP JUMPDEST SWAP5 POP SWAP3 DUP6 ADD SWAP3 SWAP1 DUP6 ADD SWAP1 PUSH1 0x1 ADD PUSH2 0x5677 JUMP JUMPDEST POP SWAP3 SWAP8 SWAP7 POP POP POP POP POP POP POP JUMP JUMPDEST PUSH1 0xFF DUP2 AND DUP2 EQ PUSH2 0x56C1 JUMPI PUSH1 0x0 DUP1 REVERT JUMPDEST POP JUMP JUMPDEST DUP1 CALLDATALOAD PUSH2 0x5343 DUP2 PUSH2 0x56B2 JUMP JUMPDEST DUP1 CALLDATALOAD PUSH1 0x1 PUSH1 0x1 PUSH1 0x40 SHL SUB DUP2 AND DUP2 EQ PUSH2 0x5343 JUMPI PUSH1 0x0 DUP1 REVERT JUMPDEST PUSH1 0x0 DUP3 PUSH1 0x1F DUP4 ADD SLT PUSH2 0x56F7 JUMPI PUSH1 0x0 DUP1 REVERT JUMPDEST DUP2 CALLDATALOAD PUSH1 0x20 PUSH2 0x5707 PUSH2 0x5497 DUP4 PUSH2 0x5424 JUMP JUMPDEST DUP3 DUP2 MSTORE PUSH1 0x5 SWAP3 SWAP1 SWAP3 SHL DUP5 ADD DUP2 ADD SWAP2 DUP2 DUP2 ADD SWAP1 DUP7 DUP5 GT ISZERO PUSH2 0x5726 JUMPI PUSH1 0x0 DUP1 REVERT JUMPDEST DUP3 DUP7 ADD JUMPDEST DUP5 DUP2 LT ISZERO PUSH2 0x5765 JUMPI DUP1 CALLDATALOAD PUSH1 0x1 PUSH1 0x1 PUSH1 0x40 SHL SUB DUP2 GT ISZERO PUSH2 0x5749 JUMPI PUSH1 0x0 DUP1 DUP2 REVERT JUMPDEST PUSH2 0x5757 DUP10 DUP7 DUP4 DUP12 ADD ADD PUSH2 0x5251 JUMP JUMPDEST DUP5 MSTORE POP SWAP2 DUP4 ADD SWAP2 DUP4 ADD PUSH2 0x572A JUMP JUMPDEST POP SWAP7 SWAP6 POP POP POP POP POP POP JUMP JUMPDEST PUSH1 0x0 DUP3 PUSH1 0x1F DUP4 ADD SLT PUSH2 0x5781 JUMPI PUSH1 0x0 DUP1 REVERT JUMPDEST DUP2 CALLDATALOAD PUSH1 0x20 PUSH2 0x5791 PUSH2 0x5497 DUP4 PUSH2 0x5424 JUMP JUMPDEST DUP3 DUP2 MSTORE PUSH1 0x5 SWAP3 SWAP1 SWAP3 SHL DUP5 ADD DUP2 ADD SWAP2 DUP2 DUP2 ADD SWAP1 DUP7 DUP5 GT ISZERO PUSH2 0x57B0 JUMPI PUSH1 0x0 DUP1 REVERT JUMPDEST DUP3 DUP7 ADD JUMPDEST DUP5 DUP2 LT ISZERO PUSH2 0x5765 JUMPI DUP1 CALLDATALOAD PUSH1 0x1 PUSH1 0x1 PUSH1 0x40 SHL SUB DUP2 GT ISZERO PUSH2 0x57D3 JUMPI PUSH1 0x0 DUP1 DUP2 REVERT JUMPDEST PUSH2 0x57E1 DUP10 DUP7 DUP4 DUP12 ADD ADD PUSH2 0x5251 JUMP JUMPDEST DUP5 MSTORE POP SWAP2 DUP4 ADD SWAP2 DUP4 ADD PUSH2 0x57B4 JUMP JUMPDEST DUP1 CALLDATALOAD PUSH4 0xFFFFFFFF DUP2 AND DUP2 EQ PUSH2 0x5343 JUMPI PUSH1 0x0 DUP1 REVERT JUMPDEST PUSH1 0x0 DUP1 PUSH1 0x0 DUP1 PUSH1 0x0 DUP1 PUSH1 0x0 DUP1 PUSH1 0x0 PUSH2 0x120 DUP11 DUP13 SUB SLT ISZERO PUSH2 0x5822 JUMPI PUSH1 0x0 DUP1 REVERT JUMPDEST DUP10 CALLDATALOAD PUSH1 0x1 PUSH1 0x1 PUSH1 0x40 SHL SUB DUP1 DUP3 GT ISZERO PUSH2 0x5839 JUMPI PUSH1 0x0 DUP1 REVERT JUMPDEST PUSH2 0x5845 DUP14 DUP4 DUP15 ADD PUSH2 0x5251 JUMP JUMPDEST SWAP11 POP PUSH1 0x20 DUP13 ADD CALLDATALOAD SWAP2 POP DUP1 DUP3 GT ISZERO PUSH2 0x585B JUMPI PUSH1 0x0 DUP1 REVERT JUMPDEST PUSH2 0x5867 DUP14 DUP4 DUP15 ADD PUSH2 0x5251 JUMP JUMPDEST SWAP10 POP PUSH2 0x5875 PUSH1 0x40 DUP14 ADD PUSH2 0x56C4 JUMP JUMPDEST SWAP9 POP PUSH2 0x5883 PUSH1 0x60 DUP14 ADD PUSH2 0x56CF JUMP JUMPDEST SWAP8 POP PUSH1 0x80 DUP13 ADD CALLDATALOAD SWAP2 POP DUP1 DUP3 GT ISZERO PUSH2 0x5899 JUMPI PUSH1 0x0 DUP1 REVERT JUMPDEST PUSH2 0x58A5 DUP14 DUP4 DUP15 ADD PUSH2 0x56E6 JUMP JUMPDEST SWAP7 POP PUSH1 0xA0 DUP13 ADD CALLDATALOAD SWAP2 POP DUP1 DUP3 GT ISZERO PUSH2 0x58BB JUMPI PUSH1 0x0 DUP1 REVERT JUMPDEST POP PUSH2 0x58C8 DUP13 DUP3 DUP14 ADD PUSH2 0x5770 JUMP JUMPDEST SWAP5 POP POP PUSH2 0x58D7 PUSH1 0xC0 DUP12 ADD PUSH2 0x56CF JUMP JUMPDEST SWAP3 POP PUSH2 0x58E5 PUSH1 0xE0 DUP12 ADD PUSH2 0x57EF JUMP JUMPDEST SWAP2 POP PUSH2 0x100 DUP11 ADD CALLDATALOAD SWAP1 POP SWAP3 SWAP6 SWAP9 POP SWAP3 SWAP6 SWAP9 POP SWAP3 SWAP6 SWAP9 JUMP JUMPDEST PUSH1 0x0 PUSH2 0x100 DUP3 MLOAD DUP5 MSTORE PUSH1 0x1 DUP1 PUSH1 0xA0 SHL SUB PUSH1 0x20 DUP5 ADD MLOAD AND PUSH1 0x20 DUP6 ADD MSTORE PUSH1 0x40 DUP4 ADD MLOAD DUP2 PUSH1 0x40 DUP7 ADD MSTORE PUSH2 0x592E DUP3 DUP7 ADD DUP3 PUSH2 0x54E8 JUMP JUMPDEST SWAP2 POP POP PUSH1 0x60 DUP4 ADD MLOAD DUP5 DUP3 SUB PUSH1 0x60 DUP7 ADD MSTORE PUSH2 0x5948 DUP3 DUP3 PUSH2 0x54E8 JUMP JUMPDEST SWAP2 POP POP PUSH1 0x80 DUP4 ADD MLOAD ISZERO ISZERO PUSH1 0x80 DUP6 ADD MSTORE PUSH1 0xA0 DUP4 ADD MLOAD PUSH2 0x596A PUSH1 0xA0 DUP7 ADD DUP3 ISZERO ISZERO SWAP1 MSTORE JUMP JUMPDEST POP PUSH1 0xC0 DUP4 ADD MLOAD PUSH2 0x597E PUSH1 0xC0 DUP7 ADD DUP3 ISZERO ISZERO SWAP1 MSTORE JUMP JUMPDEST POP PUSH1 0xE0 DUP4 ADD MLOAD PUSH1 0xE0 DUP6 ADD MSTORE DUP1 SWAP2 POP POP SWAP3 SWAP2 POP POP JUMP JUMPDEST PUSH1 0x20 DUP2 MSTORE PUSH1 0x0 PUSH2 0x1181 PUSH1 0x20 DUP4 ADD DUP5 PUSH2 0x58FC JUMP JUMPDEST PUSH1 0x0 DUP1 PUSH1 0x40 DUP4 DUP6 SUB SLT ISZERO PUSH2 0x59B9 JUMPI PUSH1 0x0 DUP1 REVERT JUMPDEST DUP3 CALLDATALOAD PUSH1 0x1 PUSH1 0x1 PUSH1 0x40 SHL SUB DUP1 DUP3 GT ISZERO PUSH2 0x59D0 JUMPI PUSH1 0x0 DUP1 REVERT JUMPDEST PUSH2 0x59DC DUP7 DUP4 DUP8 ADD PUSH2 0x5251 JUMP JUMPDEST SWAP4 POP PUSH1 0x20 DUP6 ADD CALLDATALOAD SWAP2 POP DUP1 DUP3 GT ISZERO PUSH2 0x59F2 JUMPI PUSH1 0x0 DUP1 REVERT JUMPDEST POP PUSH2 0x59FF DUP6 DUP3 DUP7 ADD PUSH2 0x5251 JUMP JUMPDEST SWAP2 POP POP SWAP3 POP SWAP3 SWAP1 POP JUMP JUMPDEST DUP1 ISZERO ISZERO DUP2 EQ PUSH2 0x56C1 JUMPI PUSH1 0x0 DUP1 REVERT JUMPDEST PUSH1 0x0 DUP1 PUSH1 0x0 DUP1 PUSH1 0x0 DUP1 PUSH1 0xC0 DUP8 DUP10 SUB SLT ISZERO PUSH2 0x5A30 JUMPI PUSH1 0x0 DUP1 REVERT JUMPDEST DUP7 CALLDATALOAD PUSH1 0x1 PUSH1 0x1 PUSH1 0x40 SHL SUB DUP1 DUP3 GT ISZERO PUSH2 0x5A47 JUMPI PUSH1 0x0 DUP1 REVERT JUMPDEST PUSH2 0x5A53 DUP11 DUP4 DUP12 ADD PUSH2 0x5251 JUMP JUMPDEST SWAP8 POP PUSH1 0x20 DUP10 ADD CALLDATALOAD SWAP2 POP DUP1 DUP3 GT ISZERO PUSH2 0x5A69 JUMPI PUSH1 0x0 DUP1 REVERT JUMPDEST PUSH2 0x5A75 DUP11 DUP4 DUP12 ADD PUSH2 0x5251 JUMP JUMPDEST SWAP7 POP PUSH1 0x40 DUP10 ADD CALLDATALOAD SWAP2 POP DUP1 DUP3 GT ISZERO PUSH2 0x5A8B JUMPI PUSH1 0x0 DUP1 REVERT JUMPDEST POP PUSH2 0x5A98 DUP10 DUP3 DUP11 ADD PUSH2 0x5251 JUMP JUMPDEST SWAP5 POP POP PUSH1 0x60 DUP8 ADD CALLDATALOAD SWAP3 POP PUSH1 0x80 DUP8 ADD CALLDATALOAD SWAP2 POP PUSH1 0xA0 DUP8 ADD CALLDATALOAD PUSH2 0x5AB7 DUP2 PUSH2 0x5A09 JUMP JUMPDEST DUP1 SWAP2 POP POP SWAP3 SWAP6 POP SWAP3 SWAP6 POP SWAP3 SWAP6 JUMP JUMPDEST PUSH1 0x0 PUSH1 0x20 DUP1 DUP4 ADD DUP2 DUP5 MSTORE DUP1 DUP6 MLOAD DUP1 DUP4 MSTORE PUSH1 0x40 DUP7 ADD SWAP2 POP PUSH1 0x40 DUP2 PUSH1 0x5 SHL DUP8 ADD ADD SWAP3 POP DUP4 DUP8 ADD PUSH1 0x0 JUMPDEST DUP3 DUP2 LT ISZERO PUSH2 0x56A5 JUMPI PUSH1 0x3F NOT DUP9 DUP7 SUB ADD DUP5 MSTORE PUSH2 0x5B08 DUP6 DUP4 MLOAD PUSH2 0x58FC JUMP JUMPDEST SWAP5 POP SWAP3 DUP6 ADD SWAP3 SWAP1 DUP6 ADD SWAP1 PUSH1 0x1 ADD PUSH2 0x5AEC JUMP JUMPDEST PUSH1 0x20 DUP2 MSTORE PUSH1 0x0 PUSH2 0x1181 PUSH1 0x20 DUP4 ADD DUP5 PUSH2 0x54E8 JUMP JUMPDEST PUSH1 0x0 DUP1 PUSH1 0x40 DUP4 DUP6 SUB SLT ISZERO PUSH2 0x5B40 JUMPI PUSH1 0x0 DUP1 REVERT JUMPDEST DUP3 CALLDATALOAD SWAP2 POP PUSH2 0x5B50 PUSH1 0x20 DUP5 ADD PUSH2 0x532C JUMP JUMPDEST SWAP1 POP SWAP3 POP SWAP3 SWAP1 POP JUMP JUMPDEST PUSH4 0x4E487B71 PUSH1 0xE0 SHL PUSH1 0x0 MSTORE PUSH1 0x32 PUSH1 0x4 MSTORE PUSH1 0x24 PUSH1 0x0 REVERT JUMPDEST PUSH4 0x4E487B71 PUSH1 0xE0 SHL PUSH1 0x0 MSTORE PUSH1 0x11 PUSH1 0x4 MSTORE PUSH1 0x24 PUSH1 0x0 REVERT JUMPDEST PUSH1 0x0 PUSH1 0x1 DUP3 ADD PUSH2 0x5B97 JUMPI PUSH2 0x5B97 PUSH2 0x5B6F JUMP JUMPDEST POP PUSH1 0x1 ADD SWAP1 JUMP JUMPDEST PUSH1 0x1 DUP2 DUP2 SHR SWAP1 DUP3 AND DUP1 PUSH2 0x5BB2 JUMPI PUSH1 0x7F DUP3 AND SWAP2 POP JUMPDEST PUSH1 0x20 DUP3 LT DUP2 SUB PUSH2 0x3845 JUMPI PUSH4 0x4E487B71 PUSH1 0xE0 SHL PUSH1 0x0 MSTORE PUSH1 0x22 PUSH1 0x4 MSTORE PUSH1 0x24 PUSH1 0x0 REVERT JUMPDEST DUP1 DUP3 ADD DUP1 DUP3 GT ISZERO PUSH2 0x1D0E JUMPI PUSH2 0x1D0E PUSH2 0x5B6F JUMP JUMPDEST PUSH1 0x1F DUP3 GT ISZERO PUSH2 0x4C39 JUMPI PUSH1 0x0 DUP2 DUP2 MSTORE PUSH1 0x20 DUP2 KECCAK256 PUSH1 0x1F DUP6 ADD PUSH1 0x5 SHR DUP2 ADD PUSH1 0x20 DUP7 LT ISZERO PUSH2 0x5C0C JUMPI POP DUP1 JUMPDEST PUSH1 0x1F DUP6 ADD PUSH1 0x5 SHR DUP3 ADD SWAP2 POP JUMPDEST DUP2 DUP2 LT ISZERO PUSH2 0x5C2B JUMPI DUP3 DUP2 SSTORE PUSH1 0x1 ADD PUSH2 0x5C18 JUMP JUMPDEST POP POP POP POP POP POP JUMP JUMPDEST DUP2 MLOAD PUSH1 0x1 PUSH1 0x1 PUSH1 0x40 SHL SUB DUP2 GT ISZERO PUSH2 0x5C4C JUMPI PUSH2 0x5C4C PUSH2 0x520B JUMP JUMPDEST PUSH2 0x5C60 DUP2 PUSH2 0x5C5A DUP5 SLOAD PUSH2 0x5B9E JUMP JUMPDEST DUP5 PUSH2 0x5BE5 JUMP JUMPDEST PUSH1 0x20 DUP1 PUSH1 0x1F DUP4 GT PUSH1 0x1 DUP2 EQ PUSH2 0x5C95 JUMPI PUSH1 0x0 DUP5 ISZERO PUSH2 0x5C7D JUMPI POP DUP6 DUP4 ADD MLOAD JUMPDEST PUSH1 0x0 NOT PUSH1 0x3 DUP7 SWAP1 SHL SHR NOT AND PUSH1 0x1 DUP6 SWAP1 SHL OR DUP6 SSTORE PUSH2 0x5C2B JUMP JUMPDEST PUSH1 0x0 DUP6 DUP2 MSTORE PUSH1 0x20 DUP2 KECCAK256 PUSH1 0x1F NOT DUP7 AND SWAP2 JUMPDEST DUP3 DUP2 LT ISZERO PUSH2 0x5CC4 JUMPI DUP9 DUP7 ADD MLOAD DUP3 SSTORE SWAP5 DUP5 ADD SWAP5 PUSH1 0x1 SWAP1 SWAP2 ADD SWAP1 DUP5 ADD PUSH2 0x5CA5 JUMP JUMPDEST POP DUP6 DUP3 LT ISZERO PUSH2 0x5CE2 JUMPI DUP8 DUP6 ADD MLOAD PUSH1 0x0 NOT PUSH1 0x3 DUP9 SWAP1 SHL PUSH1 0xF8 AND SHR NOT AND DUP2 SSTORE JUMPDEST POP POP POP POP POP PUSH1 0x1 SWAP1 DUP2 SHL ADD SWAP1 SSTORE POP JUMP JUMPDEST DUP1 DUP3 MUL DUP2 ISZERO DUP3 DUP3 DIV DUP5 EQ OR PUSH2 0x1D0E JUMPI PUSH2 0x1D0E PUSH2 0x5B6F JUMP JUMPDEST PUSH4 0x4E487B71 PUSH1 0xE0 SHL PUSH1 0x0 MSTORE PUSH1 0x12 PUSH1 0x4 MSTORE PUSH1 0x24 PUSH1 0x0 REVERT JUMPDEST PUSH1 0x0 DUP3 PUSH2 0x5D2E JUMPI PUSH2 0x5D2E PUSH2 0x5D09 JUMP JUMPDEST POP DIV SWAP1 JUMP JUMPDEST PUSH1 0x0 PUSH1 0x20 DUP3 DUP5 SUB SLT ISZERO PUSH2 0x5D45 JUMPI PUSH1 0x0 DUP1 REVERT JUMPDEST DUP2 MLOAD PUSH2 0x1181 DUP2 PUSH2 0x5A09 JUMP JUMPDEST PUSH1 0x0 PUSH1 0x20 DUP3 DUP5 SUB SLT ISZERO PUSH2 0x5D62 JUMPI PUSH1 0x0 DUP1 REVERT JUMPDEST DUP2 MLOAD PUSH2 0x1181 DUP2 PUSH2 0x56B2 JUMP JUMPDEST PUSH1 0x1 DUP2 DUP2 JUMPDEST DUP1 DUP6 GT ISZERO PUSH2 0x5DA8 JUMPI DUP2 PUSH1 0x0 NOT DIV DUP3 GT ISZERO PUSH2 0x5D8E JUMPI PUSH2 0x5D8E PUSH2 0x5B6F JUMP JUMPDEST DUP1 DUP6 AND ISZERO PUSH2 0x5D9B JUMPI SWAP2 DUP2 MUL SWAP2 JUMPDEST SWAP4 DUP5 SHR SWAP4 SWAP1 DUP1 MUL SWAP1 PUSH2 0x5D72 JUMP JUMPDEST POP SWAP3 POP SWAP3 SWAP1 POP JUMP JUMPDEST PUSH1 0x0 DUP3 PUSH2 0x5DBF JUMPI POP PUSH1 0x1 PUSH2 0x1D0E JUMP JUMPDEST DUP2 PUSH2 0x5DCC JUMPI POP PUSH1 0x0 PUSH2 0x1D0E JUMP JUMPDEST DUP2 PUSH1 0x1 DUP2 EQ PUSH2 0x5DE2 JUMPI PUSH1 0x2 DUP2 EQ PUSH2 0x5DEC JUMPI PUSH2 0x5E08 JUMP JUMPDEST PUSH1 0x1 SWAP2 POP POP PUSH2 0x1D0E JUMP JUMPDEST PUSH1 0xFF DUP5 GT ISZERO PUSH2 0x5DFD JUMPI PUSH2 0x5DFD PUSH2 0x5B6F JUMP JUMPDEST POP POP PUSH1 0x1 DUP3 SHL PUSH2 0x1D0E JUMP JUMPDEST POP PUSH1 0x20 DUP4 LT PUSH2 0x133 DUP4 LT AND PUSH1 0x4E DUP5 LT PUSH1 0xB DUP5 LT AND OR ISZERO PUSH2 0x5E2B JUMPI POP DUP2 DUP2 EXP PUSH2 0x1D0E JUMP JUMPDEST PUSH2 0x5E35 DUP4 DUP4 PUSH2 0x5D6D JUMP JUMPDEST DUP1 PUSH1 0x0 NOT DIV DUP3 GT ISZERO PUSH2 0x5E49 JUMPI PUSH2 0x5E49 PUSH2 0x5B6F JUMP JUMPDEST MUL SWAP4 SWAP3 POP POP POP JUMP JUMPDEST PUSH1 0x0 PUSH2 0x1181 PUSH1 0xFF DUP5 AND DUP4 PUSH2 0x5DB0 JUMP JUMPDEST PUSH1 0x0 DUP1 PUSH1 0x40 DUP4 DUP6 SUB SLT ISZERO PUSH2 0x5E73 JUMPI PUSH1 0x0 DUP1 REVERT JUMPDEST DUP3 MLOAD SWAP2 POP PUSH1 0x20 DUP4 ADD MLOAD PUSH2 0x5E85 DUP2 PUSH2 0x5A09 JUMP JUMPDEST DUP1 SWAP2 POP POP SWAP3 POP SWAP3 SWAP1 POP JUMP JUMPDEST PUSH1 0x0 PUSH1 0x20 DUP3 DUP5 SUB SLT ISZERO PUSH2 0x5EA2 JUMPI PUSH1 0x0 DUP1 REVERT JUMPDEST POP MLOAD SWAP2 SWAP1 POP JUMP JUMPDEST PUSH1 0x1 DUP1 PUSH1 0xA0 SHL SUB DUP5 AND DUP2 MSTORE DUP3 PUSH1 0x20 DUP3 ADD MSTORE PUSH1 0x60 PUSH1 0x40 DUP3 ADD MSTORE PUSH1 0x0 PUSH2 0x5ED0 PUSH1 0x60 DUP4 ADD DUP5 PUSH2 0x54E8 JUMP JUMPDEST SWAP6 SWAP5 POP POP POP POP POP JUMP JUMPDEST PUSH4 0x4E487B71 PUSH1 0xE0 SHL PUSH1 0x0 MSTORE PUSH1 0x21 PUSH1 0x4 MSTORE PUSH1 0x24 PUSH1 0x0 REVERT JUMPDEST PUSH1 0x1 PUSH1 0x1 PUSH1 0x40 SHL SUB DUP7 AND DUP2 MSTORE PUSH1 0xA0 PUSH1 0x20 DUP3 ADD MSTORE PUSH1 0x0 PUSH2 0x5F11 PUSH1 0xA0 DUP4 ADD DUP8 PUSH2 0x54E8 JUMP JUMPDEST PUSH2 0xFFFF SWAP6 SWAP1 SWAP6 AND PUSH1 0x40 DUP4 ADD MSTORE POP PUSH4 0xFFFFFFFF SWAP3 SWAP1 SWAP3 AND PUSH1 0x60 DUP4 ADD MSTORE PUSH1 0x80 SWAP1 SWAP2 ADD MSTORE SWAP3 SWAP2 POP POP JUMP JUMPDEST DUP2 DUP2 SUB DUP2 DUP2 GT ISZERO PUSH2 0x1D0E JUMPI PUSH2 0x1D0E PUSH2 0x5B6F JUMP JUMPDEST PUSH1 0x0 DUP3 PUSH2 0x5F5A JUMPI PUSH2 0x5F5A PUSH2 0x5D09 JUMP JUMPDEST POP MOD SWAP1 JUMP JUMPDEST PUSH1 0x0 PUSH2 0x1181 DUP4 DUP4 PUSH2 0x5DB0 JUMP INVALID LOG2 PUSH5 0x6970667358 0x22 SLT KECCAK256 SWAP11 0xAD BLOCKHASH 0xCB PUSH1 0x45 DUP16 PUSH9 0x139561E571D6636788 REVERT 0xF9 DIV 0x25 0xA5 0xD3 0xE0 SWAP16 0x4A AND 0x4E MUL 0xF8 LOG4 SHR PUSH5 0x736F6C6343 STOP ADDMOD SGT STOP CALLER "
		},
		"gasEstimates": {
			"creation": {
				"codeDepositCost": "4896200",
				"executionCost": "infinite",
				"totalCost": "infinite"
			},
			"external": {
				"checkIfEventIsAlreadyPaidOut(uint256)": "infinite",
				"checkIfTicketOfUserForThisEventExists(uint256)": "infinite",
				"checkIfUserAlreadyHasTicket(uint256,address)": "infinite",
				"createEvent(string,string,string,uint256,uint256,bool)": "infinite",
				"createTicketForUser(uint256)": "infinite",
				"createUser(string,string)": "infinite",
				"getAllEventsCreatedByUser(address)": "infinite",
				"getAllPublishedEvents()": "infinite",
				"getAllTicketsOfEvent(uint256)": "infinite",
				"getAllTicketsOfUser(address)": "infinite",
				"getEventAttendees(uint256)": "infinite",
				"getEventById(uint256)": "infinite",
				"getEventByVerificationRequestId(uint256)": "infinite",
				"getNumberOfAllPublishedEvents()": "infinite",
				"getNumberOfTicketsOfEvent(uint256)": "infinite",
				"getNumberOfTicketsOfUser(address)": "infinite",
				"getPayoutById(uint256)": "15739",
				"getTicketByEventIdAndWalletAddress(uint256,address)": "infinite",
				"getTicketByVerificationRequestId(uint256)": "infinite",
				"getTotalAmountPaidToEventInEthers(uint256)": "infinite",
				"getTotalNumberOfAllEventsCreatedByUser(address)": "infinite",
				"getTotalNumberOfTicketsOfEvent(uint256)": "infinite",
				"getUserById(uint256)": "infinite",
				"getUserByWalletAddress(address)": "infinite",
				"handleOracleFulfillment(bytes32,bytes,bytes)": "infinite",
				"lastFunctionsError()": "infinite",
				"makeCreatingUser()": "infinite",
				"processPayout(uint256)": "infinite",
				"publishEvent(uint256)": "infinite",
				"rawFulfillRandomWords(uint256,uint256[])": "infinite",
				"sendRequest(string,bytes,uint8,uint64,string[],bytes[],uint64,uint32,bytes32)": "infinite",
				"stekcitBMOwnerAddress()": "2382",
				"verifyEventAndSetVerificationRequestId(uint256)": "infinite",
				"verifyTicketAndSetVerificationRequestId(uint256)": "infinite"
			},
			"internal": {
				"createPayout(uint256,uint256)": "infinite",
				"fulfillRandomWords(uint256,uint256[] memory)": "infinite",
				"fulfillRequest(bytes32,bytes memory,bytes memory)": "infinite",
				"setVerificationIdForEvent(uint256,uint256)": "infinite",
				"setVerificationIdForTicket(uint256,uint256)": "infinite",
				"setVerificationRequestIdForEvent(uint256,uint256)": "infinite",
				"setVerificationRequestIdForTicket(uint256,uint256)": "infinite"
			}
		},
		"methodIdentifiers": {
			"checkIfEventIsAlreadyPaidOut(uint256)": "24c67b03",
			"checkIfTicketOfUserForThisEventExists(uint256)": "63ff89c7",
			"checkIfUserAlreadyHasTicket(uint256,address)": "f5caa96b",
			"createEvent(string,string,string,uint256,uint256,bool)": "abda7405",
			"createTicketForUser(uint256)": "c0f555f0",
			"createUser(string,string)": "87b162b5",
			"getAllEventsCreatedByUser(address)": "3b902afe",
			"getAllPublishedEvents()": "5d3ee0ee",
			"getAllTicketsOfEvent(uint256)": "235b3a3d",
			"getAllTicketsOfUser(address)": "184b0938",
			"getEventAttendees(uint256)": "ad395c14",
			"getEventById(uint256)": "b98079bc",
			"getEventByVerificationRequestId(uint256)": "22b1185e",
			"getNumberOfAllPublishedEvents()": "cee34e7b",
			"getNumberOfTicketsOfEvent(uint256)": "7354a25f",
			"getNumberOfTicketsOfUser(address)": "666ac2fb",
			"getPayoutById(uint256)": "65212f70",
			"getTicketByEventIdAndWalletAddress(uint256,address)": "f10b812f",
			"getTicketByVerificationRequestId(uint256)": "19867063",
			"getTotalAmountPaidToEventInEthers(uint256)": "4591b666",
			"getTotalNumberOfAllEventsCreatedByUser(address)": "c5b84029",
			"getTotalNumberOfTicketsOfEvent(uint256)": "76f8cbd5",
			"getUserById(uint256)": "6ed6da9e",
			"getUserByWalletAddress(address)": "99bb6b08",
			"handleOracleFulfillment(bytes32,bytes,bytes)": "0ca76175",
			"lastFunctionsError()": "b07c7e6c",
			"makeCreatingUser()": "c081ee70",
			"processPayout(uint256)": "89ee68bf",
			"publishEvent(uint256)": "cfd9f3da",
			"rawFulfillRandomWords(uint256,uint256[])": "1fe543e3",
			"sendRequest(string,bytes,uint8,uint64,string[],bytes[],uint64,uint32,bytes32)": "52a81eeb",
			"stekcitBMOwnerAddress()": "9720807c",
			"verifyEventAndSetVerificationRequestId(uint256)": "4dff247f",
			"verifyTicketAndSetVerificationRequestId(uint256)": "767a5867"
		}
	},
	"abi": [
		{
			"inputs": [
				{
					"internalType": "address",
					"name": "_stekcitBMOwnerAddress",
					"type": "address"
				}
			],
			"stateMutability": "nonpayable",
			"type": "constructor"
		},
		{
			"inputs": [],
			"name": "EmptyArgs",
			"type": "error"
		},
		{
			"inputs": [],
			"name": "EmptySecrets",
			"type": "error"
		},
		{
			"inputs": [],
			"name": "EmptySource",
			"type": "error"
		},
		{
			"inputs": [],
			"name": "NoInlineSecrets",
			"type": "error"
		},
		{
			"inputs": [],
			"name": "OnlyRouterCanFulfill",
			"type": "error"
		},
		{
			"anonymous": false,
			"inputs": [
				{
					"indexed": true,
					"internalType": "bytes32",
					"name": "id",
					"type": "bytes32"
				}
			],
			"name": "RequestFulfilled",
			"type": "event"
		},
		{
			"anonymous": false,
			"inputs": [
				{
					"indexed": true,
					"internalType": "bytes32",
					"name": "id",
					"type": "bytes32"
				}
			],
			"name": "RequestSent",
			"type": "event"
		},
		{
			"inputs": [
				{
					"internalType": "uint256",
					"name": "_eventId",
					"type": "uint256"
				}
			],
			"name": "checkIfEventIsAlreadyPaidOut",
			"outputs": [
				{
					"internalType": "bool",
					"name": "",
					"type": "bool"
				}
			],
			"stateMutability": "view",
			"type": "function"
		},
		{
			"inputs": [
				{
					"internalType": "uint256",
					"name": "_eventId",
					"type": "uint256"
				}
			],
			"name": "checkIfTicketOfUserForThisEventExists",
			"outputs": [
				{
					"internalType": "bool",
					"name": "",
					"type": "bool"
				}
			],
			"stateMutability": "view",
			"type": "function"
		},
		{
			"inputs": [
				{
					"internalType": "uint256",
					"name": "_eventId",
					"type": "uint256"
				},
				{
					"internalType": "address",
					"name": "_walletAddress",
					"type": "address"
				}
			],
			"name": "checkIfUserAlreadyHasTicket",
			"outputs": [
				{
					"internalType": "bool",
					"name": "",
					"type": "bool"
				}
			],
			"stateMutability": "view",
			"type": "function"
		},
		{
			"inputs": [
				{
					"internalType": "string",
					"name": "_title",
					"type": "string"
				},
				{
					"internalType": "string",
					"name": "_description",
					"type": "string"
				},
				{
					"internalType": "string",
					"name": "_link",
					"type": "string"
				},
				{
					"internalType": "uint256",
					"name": "_amount",
					"type": "uint256"
				},
				{
					"internalType": "uint256",
					"name": "_dateAndTime",
					"type": "uint256"
				},
				{
					"internalType": "bool",
					"name": "_forImmediatePublishing",
					"type": "bool"
				}
			],
			"name": "createEvent",
			"outputs": [],
			"stateMutability": "nonpayable",
			"type": "function"
		},
		{
			"inputs": [
				{
					"internalType": "uint256",
					"name": "_eventId",
					"type": "uint256"
				}
			],
			"name": "createTicketForUser",
			"outputs": [],
			"stateMutability": "nonpayable",
			"type": "function"
		},
		{
			"inputs": [
				{
					"internalType": "string",
					"name": "_username",
					"type": "string"
				},
				{
					"internalType": "string",
					"name": "_emailAddress",
					"type": "string"
				}
			],
			"name": "createUser",
			"outputs": [
				{
					"components": [
						{
							"internalType": "uint256",
							"name": "id",
							"type": "uint256"
						},
						{
							"internalType": "address",
							"name": "walletAddress",
							"type": "address"
						},
						{
							"internalType": "string",
							"name": "username",
							"type": "string"
						},
						{
							"internalType": "string",
							"name": "emailAddress",
							"type": "string"
						},
						{
							"internalType": "bool",
							"name": "isCreatingUser",
							"type": "bool"
						},
						{
							"internalType": "bool",
							"name": "isBlank",
							"type": "bool"
						},
						{
							"internalType": "bool",
							"name": "isWelcomeEmailSent",
							"type": "bool"
						},
						{
							"internalType": "bytes32",
							"name": "welcomeEmailVerificationId",
							"type": "bytes32"
						}
					],
					"internalType": "struct StekcitUser",
					"name": "",
					"type": "tuple"
				}
			],
			"stateMutability": "nonpayable",
			"type": "function"
		},
		{
			"inputs": [
				{
					"internalType": "address",
					"name": "_walletAddress",
					"type": "address"
				}
			],
			"name": "getAllEventsCreatedByUser",
			"outputs": [
				{
					"components": [
						{
							"internalType": "uint256",
							"name": "id",
							"type": "uint256"
						},
						{
							"internalType": "address",
							"name": "creatingUserWalletAddress",
							"type": "address"
						},
						{
							"internalType": "string",
							"name": "title",
							"type": "string"
						},
						{
							"internalType": "string",
							"name": "description",
							"type": "string"
						},
						{
							"internalType": "string",
							"name": "link",
							"type": "string"
						},
						{
							"internalType": "uint256",
							"name": "amountInEthers",
							"type": "uint256"
						},
						{
							"internalType": "uint256",
							"name": "createdAt",
							"type": "uint256"
						},
						{
							"internalType": "uint256",
							"name": "updatedAt",
							"type": "uint256"
						},
						{
							"internalType": "uint256",
							"name": "dateAndTime",
							"type": "uint256"
						},
						{
							"internalType": "bool",
							"name": "isBlank",
							"type": "bool"
						},
						{
							"internalType": "bool",
							"name": "isPublished",
							"type": "bool"
						},
						{
							"internalType": "bool",
							"name": "isVerified",
							"type": "bool"
						},
						{
							"internalType": "uint256",
							"name": "verificationAmountInEthers",
							"type": "uint256"
						},
						{
							"internalType": "bool",
							"name": "isEnded",
							"type": "bool"
						},
						{
							"internalType": "bool",
							"name": "isPaidOut",
							"type": "bool"
						},
						{
							"internalType": "uint256",
							"name": "verificationRequestId",
							"type": "uint256"
						},
						{
							"internalType": "uint256",
							"name": "verificationId",
							"type": "uint256"
						}
					],
					"internalType": "struct StekcitEvent[]",
					"name": "",
					"type": "tuple[]"
				}
			],
			"stateMutability": "view",
			"type": "function"
		},
		{
			"inputs": [],
			"name": "getAllPublishedEvents",
			"outputs": [
				{
					"components": [
						{
							"internalType": "uint256",
							"name": "id",
							"type": "uint256"
						},
						{
							"internalType": "address",
							"name": "creatingUserWalletAddress",
							"type": "address"
						},
						{
							"internalType": "string",
							"name": "title",
							"type": "string"
						},
						{
							"internalType": "string",
							"name": "description",
							"type": "string"
						},
						{
							"internalType": "string",
							"name": "link",
							"type": "string"
						},
						{
							"internalType": "uint256",
							"name": "amountInEthers",
							"type": "uint256"
						},
						{
							"internalType": "uint256",
							"name": "createdAt",
							"type": "uint256"
						},
						{
							"internalType": "uint256",
							"name": "updatedAt",
							"type": "uint256"
						},
						{
							"internalType": "uint256",
							"name": "dateAndTime",
							"type": "uint256"
						},
						{
							"internalType": "bool",
							"name": "isBlank",
							"type": "bool"
						},
						{
							"internalType": "bool",
							"name": "isPublished",
							"type": "bool"
						},
						{
							"internalType": "bool",
							"name": "isVerified",
							"type": "bool"
						},
						{
							"internalType": "uint256",
							"name": "verificationAmountInEthers",
							"type": "uint256"
						},
						{
							"internalType": "bool",
							"name": "isEnded",
							"type": "bool"
						},
						{
							"internalType": "bool",
							"name": "isPaidOut",
							"type": "bool"
						},
						{
							"internalType": "uint256",
							"name": "verificationRequestId",
							"type": "uint256"
						},
						{
							"internalType": "uint256",
							"name": "verificationId",
							"type": "uint256"
						}
					],
					"internalType": "struct StekcitEvent[]",
					"name": "",
					"type": "tuple[]"
				}
			],
			"stateMutability": "view",
			"type": "function"
		},
		{
			"inputs": [
				{
					"internalType": "uint256",
					"name": "_eventId",
					"type": "uint256"
				}
			],
			"name": "getAllTicketsOfEvent",
			"outputs": [
				{
					"components": [
						{
							"internalType": "uint256",
							"name": "id",
							"type": "uint256"
						},
						{
							"internalType": "uint256",
							"name": "eventId",
							"type": "uint256"
						},
						{
							"internalType": "address",
							"name": "attendingUserWalletAddress",
							"type": "address"
						},
						{
							"internalType": "uint256",
							"name": "amountPaidInEthers",
							"type": "uint256"
						},
						{
							"internalType": "bool",
							"name": "isBlank",
							"type": "bool"
						},
						{
							"internalType": "uint256",
							"name": "verificationRequestId",
							"type": "uint256"
						},
						{
							"internalType": "uint256",
							"name": "verificationId",
							"type": "uint256"
						}
					],
					"internalType": "struct StekcitTicket[]",
					"name": "",
					"type": "tuple[]"
				}
			],
			"stateMutability": "view",
			"type": "function"
		},
		{
			"inputs": [
				{
					"internalType": "address",
					"name": "_walletAddress",
					"type": "address"
				}
			],
			"name": "getAllTicketsOfUser",
			"outputs": [
				{
					"components": [
						{
							"internalType": "uint256",
							"name": "id",
							"type": "uint256"
						},
						{
							"internalType": "uint256",
							"name": "eventId",
							"type": "uint256"
						},
						{
							"internalType": "address",
							"name": "attendingUserWalletAddress",
							"type": "address"
						},
						{
							"internalType": "uint256",
							"name": "amountPaidInEthers",
							"type": "uint256"
						},
						{
							"internalType": "bool",
							"name": "isBlank",
							"type": "bool"
						},
						{
							"internalType": "uint256",
							"name": "verificationRequestId",
							"type": "uint256"
						},
						{
							"internalType": "uint256",
							"name": "verificationId",
							"type": "uint256"
						}
					],
					"internalType": "struct StekcitTicket[]",
					"name": "",
					"type": "tuple[]"
				}
			],
			"stateMutability": "view",
			"type": "function"
		},
		{
			"inputs": [
				{
					"internalType": "uint256",
					"name": "_eventId",
					"type": "uint256"
				}
			],
			"name": "getEventAttendees",
			"outputs": [
				{
					"components": [
						{
							"internalType": "uint256",
							"name": "id",
							"type": "uint256"
						},
						{
							"internalType": "address",
							"name": "walletAddress",
							"type": "address"
						},
						{
							"internalType": "string",
							"name": "username",
							"type": "string"
						},
						{
							"internalType": "string",
							"name": "emailAddress",
							"type": "string"
						},
						{
							"internalType": "bool",
							"name": "isCreatingUser",
							"type": "bool"
						},
						{
							"internalType": "bool",
							"name": "isBlank",
							"type": "bool"
						},
						{
							"internalType": "bool",
							"name": "isWelcomeEmailSent",
							"type": "bool"
						},
						{
							"internalType": "bytes32",
							"name": "welcomeEmailVerificationId",
							"type": "bytes32"
						}
					],
					"internalType": "struct StekcitUser[]",
					"name": "",
					"type": "tuple[]"
				}
			],
			"stateMutability": "view",
			"type": "function"
		},
		{
			"inputs": [
				{
					"internalType": "uint256",
					"name": "_eventId",
					"type": "uint256"
				}
			],
			"name": "getEventById",
			"outputs": [
				{
					"components": [
						{
							"internalType": "uint256",
							"name": "id",
							"type": "uint256"
						},
						{
							"internalType": "address",
							"name": "creatingUserWalletAddress",
							"type": "address"
						},
						{
							"internalType": "string",
							"name": "title",
							"type": "string"
						},
						{
							"internalType": "string",
							"name": "description",
							"type": "string"
						},
						{
							"internalType": "string",
							"name": "link",
							"type": "string"
						},
						{
							"internalType": "uint256",
							"name": "amountInEthers",
							"type": "uint256"
						},
						{
							"internalType": "uint256",
							"name": "createdAt",
							"type": "uint256"
						},
						{
							"internalType": "uint256",
							"name": "updatedAt",
							"type": "uint256"
						},
						{
							"internalType": "uint256",
							"name": "dateAndTime",
							"type": "uint256"
						},
						{
							"internalType": "bool",
							"name": "isBlank",
							"type": "bool"
						},
						{
							"internalType": "bool",
							"name": "isPublished",
							"type": "bool"
						},
						{
							"internalType": "bool",
							"name": "isVerified",
							"type": "bool"
						},
						{
							"internalType": "uint256",
							"name": "verificationAmountInEthers",
							"type": "uint256"
						},
						{
							"internalType": "bool",
							"name": "isEnded",
							"type": "bool"
						},
						{
							"internalType": "bool",
							"name": "isPaidOut",
							"type": "bool"
						},
						{
							"internalType": "uint256",
							"name": "verificationRequestId",
							"type": "uint256"
						},
						{
							"internalType": "uint256",
							"name": "verificationId",
							"type": "uint256"
						}
					],
					"internalType": "struct StekcitEvent",
					"name": "",
					"type": "tuple"
				}
			],
			"stateMutability": "view",
			"type": "function"
		},
		{
			"inputs": [
				{
					"internalType": "uint256",
					"name": "_verificationRequestId",
					"type": "uint256"
				}
			],
			"name": "getEventByVerificationRequestId",
			"outputs": [
				{
					"components": [
						{
							"internalType": "uint256",
							"name": "id",
							"type": "uint256"
						},
						{
							"internalType": "address",
							"name": "creatingUserWalletAddress",
							"type": "address"
						},
						{
							"internalType": "string",
							"name": "title",
							"type": "string"
						},
						{
							"internalType": "string",
							"name": "description",
							"type": "string"
						},
						{
							"internalType": "string",
							"name": "link",
							"type": "string"
						},
						{
							"internalType": "uint256",
							"name": "amountInEthers",
							"type": "uint256"
						},
						{
							"internalType": "uint256",
							"name": "createdAt",
							"type": "uint256"
						},
						{
							"internalType": "uint256",
							"name": "updatedAt",
							"type": "uint256"
						},
						{
							"internalType": "uint256",
							"name": "dateAndTime",
							"type": "uint256"
						},
						{
							"internalType": "bool",
							"name": "isBlank",
							"type": "bool"
						},
						{
							"internalType": "bool",
							"name": "isPublished",
							"type": "bool"
						},
						{
							"internalType": "bool",
							"name": "isVerified",
							"type": "bool"
						},
						{
							"internalType": "uint256",
							"name": "verificationAmountInEthers",
							"type": "uint256"
						},
						{
							"internalType": "bool",
							"name": "isEnded",
							"type": "bool"
						},
						{
							"internalType": "bool",
							"name": "isPaidOut",
							"type": "bool"
						},
						{
							"internalType": "uint256",
							"name": "verificationRequestId",
							"type": "uint256"
						},
						{
							"internalType": "uint256",
							"name": "verificationId",
							"type": "uint256"
						}
					],
					"internalType": "struct StekcitEvent",
					"name": "",
					"type": "tuple"
				}
			],
			"stateMutability": "view",
			"type": "function"
		},
		{
			"inputs": [],
			"name": "getNumberOfAllPublishedEvents",
			"outputs": [
				{
					"internalType": "uint256",
					"name": "",
					"type": "uint256"
				}
			],
			"stateMutability": "view",
			"type": "function"
		},
		{
			"inputs": [
				{
					"internalType": "uint256",
					"name": "_eventId",
					"type": "uint256"
				}
			],
			"name": "getNumberOfTicketsOfEvent",
			"outputs": [
				{
					"internalType": "uint256",
					"name": "",
					"type": "uint256"
				}
			],
			"stateMutability": "view",
			"type": "function"
		},
		{
			"inputs": [
				{
					"internalType": "address",
					"name": "_walletAddress",
					"type": "address"
				}
			],
			"name": "getNumberOfTicketsOfUser",
			"outputs": [
				{
					"internalType": "uint256",
					"name": "",
					"type": "uint256"
				}
			],
			"stateMutability": "view",
			"type": "function"
		},
		{
			"inputs": [
				{
					"internalType": "uint256",
					"name": "_payoutId",
					"type": "uint256"
				}
			],
			"name": "getPayoutById",
			"outputs": [
				{
					"components": [
						{
							"internalType": "uint256",
							"name": "id",
							"type": "uint256"
						},
						{
							"internalType": "uint256",
							"name": "eventId",
							"type": "uint256"
						},
						{
							"internalType": "address",
							"name": "creatingUserWalletAddress",
							"type": "address"
						},
						{
							"internalType": "uint256",
							"name": "amountPaidOutInEthers",
							"type": "uint256"
						},
						{
							"internalType": "uint256",
							"name": "dateTimeAndMade",
							"type": "uint256"
						},
						{
							"internalType": "bool",
							"name": "isBlank",
							"type": "bool"
						}
					],
					"internalType": "struct StekcitPayout",
					"name": "",
					"type": "tuple"
				}
			],
			"stateMutability": "view",
			"type": "function"
		},
		{
			"inputs": [
				{
					"internalType": "uint256",
					"name": "_eventId",
					"type": "uint256"
				},
				{
					"internalType": "address",
					"name": "_walletAddress",
					"type": "address"
				}
			],
			"name": "getTicketByEventIdAndWalletAddress",
			"outputs": [
				{
					"components": [
						{
							"internalType": "uint256",
							"name": "id",
							"type": "uint256"
						},
						{
							"internalType": "uint256",
							"name": "eventId",
							"type": "uint256"
						},
						{
							"internalType": "address",
							"name": "attendingUserWalletAddress",
							"type": "address"
						},
						{
							"internalType": "uint256",
							"name": "amountPaidInEthers",
							"type": "uint256"
						},
						{
							"internalType": "bool",
							"name": "isBlank",
							"type": "bool"
						},
						{
							"internalType": "uint256",
							"name": "verificationRequestId",
							"type": "uint256"
						},
						{
							"internalType": "uint256",
							"name": "verificationId",
							"type": "uint256"
						}
					],
					"internalType": "struct StekcitTicket",
					"name": "",
					"type": "tuple"
				}
			],
			"stateMutability": "view",
			"type": "function"
		},
		{
			"inputs": [
				{
					"internalType": "uint256",
					"name": "_verificationRequestId",
					"type": "uint256"
				}
			],
			"name": "getTicketByVerificationRequestId",
			"outputs": [
				{
					"components": [
						{
							"internalType": "uint256",
							"name": "id",
							"type": "uint256"
						},
						{
							"internalType": "uint256",
							"name": "eventId",
							"type": "uint256"
						},
						{
							"internalType": "address",
							"name": "attendingUserWalletAddress",
							"type": "address"
						},
						{
							"internalType": "uint256",
							"name": "amountPaidInEthers",
							"type": "uint256"
						},
						{
							"internalType": "bool",
							"name": "isBlank",
							"type": "bool"
						},
						{
							"internalType": "uint256",
							"name": "verificationRequestId",
							"type": "uint256"
						},
						{
							"internalType": "uint256",
							"name": "verificationId",
							"type": "uint256"
						}
					],
					"internalType": "struct StekcitTicket",
					"name": "",
					"type": "tuple"
				}
			],
			"stateMutability": "view",
			"type": "function"
		},
		{
			"inputs": [
				{
					"internalType": "uint256",
					"name": "_eventId",
					"type": "uint256"
				}
			],
			"name": "getTotalAmountPaidToEventInEthers",
			"outputs": [
				{
					"internalType": "uint256",
					"name": "",
					"type": "uint256"
				}
			],
			"stateMutability": "view",
			"type": "function"
		},
		{
			"inputs": [
				{
					"internalType": "address",
					"name": "_walletAddress",
					"type": "address"
				}
			],
			"name": "getTotalNumberOfAllEventsCreatedByUser",
			"outputs": [
				{
					"internalType": "uint256",
					"name": "",
					"type": "uint256"
				}
			],
			"stateMutability": "view",
			"type": "function"
		},
		{
			"inputs": [
				{
					"internalType": "uint256",
					"name": "_eventId",
					"type": "uint256"
				}
			],
			"name": "getTotalNumberOfTicketsOfEvent",
			"outputs": [
				{
					"internalType": "uint256",
					"name": "",
					"type": "uint256"
				}
			],
			"stateMutability": "view",
			"type": "function"
		},
		{
			"inputs": [
				{
					"internalType": "uint256",
					"name": "_userId",
					"type": "uint256"
				}
			],
			"name": "getUserById",
			"outputs": [
				{
					"components": [
						{
							"internalType": "uint256",
							"name": "id",
							"type": "uint256"
						},
						{
							"internalType": "address",
							"name": "walletAddress",
							"type": "address"
						},
						{
							"internalType": "string",
							"name": "username",
							"type": "string"
						},
						{
							"internalType": "string",
							"name": "emailAddress",
							"type": "string"
						},
						{
							"internalType": "bool",
							"name": "isCreatingUser",
							"type": "bool"
						},
						{
							"internalType": "bool",
							"name": "isBlank",
							"type": "bool"
						},
						{
							"internalType": "bool",
							"name": "isWelcomeEmailSent",
							"type": "bool"
						},
						{
							"internalType": "bytes32",
							"name": "welcomeEmailVerificationId",
							"type": "bytes32"
						}
					],
					"internalType": "struct StekcitUser",
					"name": "",
					"type": "tuple"
				}
			],
			"stateMutability": "view",
			"type": "function"
		},
		{
			"inputs": [
				{
					"internalType": "address",
					"name": "_walletAddress",
					"type": "address"
				}
			],
			"name": "getUserByWalletAddress",
			"outputs": [
				{
					"components": [
						{
							"internalType": "uint256",
							"name": "id",
							"type": "uint256"
						},
						{
							"internalType": "address",
							"name": "walletAddress",
							"type": "address"
						},
						{
							"internalType": "string",
							"name": "username",
							"type": "string"
						},
						{
							"internalType": "string",
							"name": "emailAddress",
							"type": "string"
						},
						{
							"internalType": "bool",
							"name": "isCreatingUser",
							"type": "bool"
						},
						{
							"internalType": "bool",
							"name": "isBlank",
							"type": "bool"
						},
						{
							"internalType": "bool",
							"name": "isWelcomeEmailSent",
							"type": "bool"
						},
						{
							"internalType": "bytes32",
							"name": "welcomeEmailVerificationId",
							"type": "bytes32"
						}
					],
					"internalType": "struct StekcitUser",
					"name": "",
					"type": "tuple"
				}
			],
			"stateMutability": "view",
			"type": "function"
		},
		{
			"inputs": [
				{
					"internalType": "bytes32",
					"name": "requestId",
					"type": "bytes32"
				},
				{
					"internalType": "bytes",
					"name": "response",
					"type": "bytes"
				},
				{
					"internalType": "bytes",
					"name": "err",
					"type": "bytes"
				}
			],
			"name": "handleOracleFulfillment",
			"outputs": [],
			"stateMutability": "nonpayable",
			"type": "function"
		},
		{
			"inputs": [],
			"name": "lastFunctionsError",
			"outputs": [
				{
					"internalType": "bytes",
					"name": "",
					"type": "bytes"
				}
			],
			"stateMutability": "view",
			"type": "function"
		},
		{
			"inputs": [],
			"name": "makeCreatingUser",
			"outputs": [
				{
					"internalType": "bool",
					"name": "",
					"type": "bool"
				}
			],
			"stateMutability": "nonpayable",
			"type": "function"
		},
		{
			"inputs": [
				{
					"internalType": "uint256",
					"name": "_eventId",
					"type": "uint256"
				}
			],
			"name": "processPayout",
			"outputs": [
				{
					"components": [
						{
							"internalType": "uint256",
							"name": "id",
							"type": "uint256"
						},
						{
							"internalType": "uint256",
							"name": "eventId",
							"type": "uint256"
						},
						{
							"internalType": "address",
							"name": "creatingUserWalletAddress",
							"type": "address"
						},
						{
							"internalType": "uint256",
							"name": "amountPaidOutInEthers",
							"type": "uint256"
						},
						{
							"internalType": "uint256",
							"name": "dateTimeAndMade",
							"type": "uint256"
						},
						{
							"internalType": "bool",
							"name": "isBlank",
							"type": "bool"
						}
					],
					"internalType": "struct StekcitPayout",
					"name": "",
					"type": "tuple"
				}
			],
			"stateMutability": "nonpayable",
			"type": "function"
		},
		{
			"inputs": [
				{
					"internalType": "uint256",
					"name": "_eventId",
					"type": "uint256"
				}
			],
			"name": "publishEvent",
			"outputs": [
				{
					"components": [
						{
							"internalType": "uint256",
							"name": "id",
							"type": "uint256"
						},
						{
							"internalType": "address",
							"name": "creatingUserWalletAddress",
							"type": "address"
						},
						{
							"internalType": "string",
							"name": "title",
							"type": "string"
						},
						{
							"internalType": "string",
							"name": "description",
							"type": "string"
						},
						{
							"internalType": "string",
							"name": "link",
							"type": "string"
						},
						{
							"internalType": "uint256",
							"name": "amountInEthers",
							"type": "uint256"
						},
						{
							"internalType": "uint256",
							"name": "createdAt",
							"type": "uint256"
						},
						{
							"internalType": "uint256",
							"name": "updatedAt",
							"type": "uint256"
						},
						{
							"internalType": "uint256",
							"name": "dateAndTime",
							"type": "uint256"
						},
						{
							"internalType": "bool",
							"name": "isBlank",
							"type": "bool"
						},
						{
							"internalType": "bool",
							"name": "isPublished",
							"type": "bool"
						},
						{
							"internalType": "bool",
							"name": "isVerified",
							"type": "bool"
						},
						{
							"internalType": "uint256",
							"name": "verificationAmountInEthers",
							"type": "uint256"
						},
						{
							"internalType": "bool",
							"name": "isEnded",
							"type": "bool"
						},
						{
							"internalType": "bool",
							"name": "isPaidOut",
							"type": "bool"
						},
						{
							"internalType": "uint256",
							"name": "verificationRequestId",
							"type": "uint256"
						},
						{
							"internalType": "uint256",
							"name": "verificationId",
							"type": "uint256"
						}
					],
					"internalType": "struct StekcitEvent",
					"name": "",
					"type": "tuple"
				}
			],
			"stateMutability": "nonpayable",
			"type": "function"
		},
		{
			"inputs": [
				{
					"internalType": "uint256",
					"name": "_requestId",
					"type": "uint256"
				},
				{
					"internalType": "uint256[]",
					"name": "_randomWords",
					"type": "uint256[]"
				}
			],
			"name": "rawFulfillRandomWords",
			"outputs": [],
			"stateMutability": "nonpayable",
			"type": "function"
		},
		{
			"inputs": [
				{
					"internalType": "string",
					"name": "source",
					"type": "string"
				},
				{
					"internalType": "bytes",
					"name": "encryptedSecretsUrls",
					"type": "bytes"
				},
				{
					"internalType": "uint8",
					"name": "donHostedSecretsSlotID",
					"type": "uint8"
				},
				{
					"internalType": "uint64",
					"name": "donHostedSecretsVersion",
					"type": "uint64"
				},
				{
					"internalType": "string[]",
					"name": "args",
					"type": "string[]"
				},
				{
					"internalType": "bytes[]",
					"name": "bytesArgs",
					"type": "bytes[]"
				},
				{
					"internalType": "uint64",
					"name": "subscriptionId",
					"type": "uint64"
				},
				{
					"internalType": "uint32",
					"name": "gasLimit",
					"type": "uint32"
				},
				{
					"internalType": "bytes32",
					"name": "donID",
					"type": "bytes32"
				}
			],
			"name": "sendRequest",
			"outputs": [
				{
					"internalType": "bytes32",
					"name": "",
					"type": "bytes32"
				}
			],
			"stateMutability": "nonpayable",
			"type": "function"
		},
		{
			"inputs": [],
			"name": "stekcitBMOwnerAddress",
			"outputs": [
				{
					"internalType": "address",
					"name": "",
					"type": "address"
				}
			],
			"stateMutability": "view",
			"type": "function"
		},
		{
			"inputs": [
				{
					"internalType": "uint256",
					"name": "_eventId",
					"type": "uint256"
				}
			],
			"name": "verifyEventAndSetVerificationRequestId",
			"outputs": [
				{
					"components": [
						{
							"internalType": "uint256",
							"name": "id",
							"type": "uint256"
						},
						{
							"internalType": "address",
							"name": "creatingUserWalletAddress",
							"type": "address"
						},
						{
							"internalType": "string",
							"name": "title",
							"type": "string"
						},
						{
							"internalType": "string",
							"name": "description",
							"type": "string"
						},
						{
							"internalType": "string",
							"name": "link",
							"type": "string"
						},
						{
							"internalType": "uint256",
							"name": "amountInEthers",
							"type": "uint256"
						},
						{
							"internalType": "uint256",
							"name": "createdAt",
							"type": "uint256"
						},
						{
							"internalType": "uint256",
							"name": "updatedAt",
							"type": "uint256"
						},
						{
							"internalType": "uint256",
							"name": "dateAndTime",
							"type": "uint256"
						},
						{
							"internalType": "bool",
							"name": "isBlank",
							"type": "bool"
						},
						{
							"internalType": "bool",
							"name": "isPublished",
							"type": "bool"
						},
						{
							"internalType": "bool",
							"name": "isVerified",
							"type": "bool"
						},
						{
							"internalType": "uint256",
							"name": "verificationAmountInEthers",
							"type": "uint256"
						},
						{
							"internalType": "bool",
							"name": "isEnded",
							"type": "bool"
						},
						{
							"internalType": "bool",
							"name": "isPaidOut",
							"type": "bool"
						},
						{
							"internalType": "uint256",
							"name": "verificationRequestId",
							"type": "uint256"
						},
						{
							"internalType": "uint256",
							"name": "verificationId",
							"type": "uint256"
						}
					],
					"internalType": "struct StekcitEvent",
					"name": "",
					"type": "tuple"
				}
			],
			"stateMutability": "nonpayable",
			"type": "function"
		},
		{
			"inputs": [
				{
					"internalType": "uint256",
					"name": "_ticketId",
					"type": "uint256"
				}
			],
			"name": "verifyTicketAndSetVerificationRequestId",
			"outputs": [
				{
					"components": [
						{
							"internalType": "uint256",
							"name": "id",
							"type": "uint256"
						},
						{
							"internalType": "uint256",
							"name": "eventId",
							"type": "uint256"
						},
						{
							"internalType": "address",
							"name": "attendingUserWalletAddress",
							"type": "address"
						},
						{
							"internalType": "uint256",
							"name": "amountPaidInEthers",
							"type": "uint256"
						},
						{
							"internalType": "bool",
							"name": "isBlank",
							"type": "bool"
						},
						{
							"internalType": "uint256",
							"name": "verificationRequestId",
							"type": "uint256"
						},
						{
							"internalType": "uint256",
							"name": "verificationId",
							"type": "uint256"
						}
					],
					"internalType": "struct StekcitTicket",
					"name": "",
					"type": "tuple"
				}
			],
			"stateMutability": "nonpayable",
			"type": "function"
		}
	]
}