{
	"data": {
		"bytecode": {
			"linkReferences": {},
			"object": "60b1610038600b82828239805160001a607314602b57634e487b7160e01b600052600060045260246000fd5b30600052607381538281f3fe730000000000000000000000000000000000000000301460806040526004361060335760003560e01c8063f7514ab4146038575b600080fd5b605e7f92fd13387c7fe7befbc38d303d6468778fb9731bc4583f17d92989c6fcfdeaaa81565b6040516001600160e01b0319909116815260200160405180910390f3fea2646970667358221220ab42e607f35fc0dfd53827df98b3f904728bf64d7a8cb559dab863a5a21d8b9e64736f6c63430008130033",
			"opcodes": "PUSH1 0xB1 PUSH2 0x38 PUSH1 0xB DUP3 DUP3 DUP3 CODECOPY DUP1 MLOAD PUSH1 0x0 BYTE PUSH1 0x73 EQ PUSH1 0x2B JUMPI PUSH4 0x4E487B71 PUSH1 0xE0 SHL PUSH1 0x0 MSTORE PUSH1 0x0 PUSH1 0x4 MSTORE PUSH1 0x24 PUSH1 0x0 REVERT JUMPDEST ADDRESS PUSH1 0x0 MSTORE PUSH1 0x73 DUP2 MSTORE8 DUP3 DUP2 RETURN INVALID PUSH20 0x0 ADDRESS EQ PUSH1 0x80 PUSH1 0x40 MSTORE PUSH1 0x4 CALLDATASIZE LT PUSH1 0x33 JUMPI PUSH1 0x0 CALLDATALOAD PUSH1 0xE0 SHR DUP1 PUSH4 0xF7514AB4 EQ PUSH1 0x38 JUMPI JUMPDEST PUSH1 0x0 DUP1 REVERT JUMPDEST PUSH1 0x5E PUSH32 0x92FD13387C7FE7BEFBC38D303D6468778FB9731BC4583F17D92989C6FCFDEAAA DUP2 JUMP JUMPDEST PUSH1 0x40 MLOAD PUSH1 0x1 PUSH1 0x1 PUSH1 0xE0 SHL SUB NOT SWAP1 SWAP2 AND DUP2 MSTORE PUSH1 0x20 ADD PUSH1 0x40 MLOAD DUP1 SWAP2 SUB SWAP1 RETURN INVALID LOG2 PUSH5 0x6970667358 0x22 SLT KECCAK256 0xAB TIMESTAMP 0xE6 SMOD RETURN 0x5F 0xC0 0xDF 0xD5 CODESIZE 0x27 0xDF SWAP9 0xB3 0xF9 DIV PUSH19 0x8BF64D7A8CB559DAB863A5A21D8B9E64736F6C PUSH4 0x43000813 STOP CALLER "
		},
		"gasEstimates": {
			"creation": {
				"codeDepositCost": "35400",
				"executionCost": "118",
				"totalCost": "35518"
			},
			"external": {
				"EXTRA_ARGS_V1_TAG()": "169"
			},
			"internal": {
				"_argsToBytes(struct VRFV2PlusClient.ExtraArgsV1 memory)": "infinite"
			}
		},
		"methodIdentifiers": {
			"EXTRA_ARGS_V1_TAG()": "f7514ab4"
		}
	},
	"abi": [
		{
			"inputs": [],
			"name": "EXTRA_ARGS_V1_TAG",
			"outputs": [
				{
					"internalType": "bytes4",
					"name": "",
					"type": "bytes4"
				}
			],
			"stateMutability": "view",
			"type": "function"
		}
	]
}